{
  "contracts/RandomStub.sol": {
    "RandomStub": {
      "abi": [
        {
          "inputs": [],
          "name": "returnValue",
          "outputs": [
            {
              "internalType": "bytes32",
              "name": "",
              "type": "bytes32"
            }
          ],
          "stateMutability": "view",
          "type": "function"
        }
      ],
      "evm": {
        "bytecode": {
          "linkReferences": {},
          "object": "608060405234801561001057600080fd5b5061010b806100206000396000f3fe6080604052348015600f57600080fd5b506004361060285760003560e01c8063990c8f7914602d575b600080fd5b60336045565b60405190815260200160405180910390f35b6000434142605360018460b1565b6040805160208101959095526bffffffffffffffffffffffff19606094851b81169186019190915260548501929092524060748401523290911b16609482015260a80160405160208183030381529060405280519060200120905090565b60008282101560d057634e487b7160e01b600052601160045260246000fd5b50039056fea26469706673582212205247fc7d73b0ef36494f8613f616fa7ad2ead90ca2c988de7da7b68df7c34d4364736f6c634300080d0033",
          "opcodes": "PUSH1 0x80 PUSH1 0x40 MSTORE CALLVALUE DUP1 ISZERO PUSH2 0x10 JUMPI PUSH1 0x0 DUP1 REVERT JUMPDEST POP PUSH2 0x10B DUP1 PUSH2 0x20 PUSH1 0x0 CODECOPY PUSH1 0x0 RETURN INVALID PUSH1 0x80 PUSH1 0x40 MSTORE CALLVALUE DUP1 ISZERO PUSH1 0xF JUMPI PUSH1 0x0 DUP1 REVERT JUMPDEST POP PUSH1 0x4 CALLDATASIZE LT PUSH1 0x28 JUMPI PUSH1 0x0 CALLDATALOAD PUSH1 0xE0 SHR DUP1 PUSH4 0x990C8F79 EQ PUSH1 0x2D JUMPI JUMPDEST PUSH1 0x0 DUP1 REVERT JUMPDEST PUSH1 0x33 PUSH1 0x45 JUMP JUMPDEST PUSH1 0x40 MLOAD SWAP1 DUP2 MSTORE PUSH1 0x20 ADD PUSH1 0x40 MLOAD DUP1 SWAP2 SUB SWAP1 RETURN JUMPDEST PUSH1 0x0 NUMBER COINBASE TIMESTAMP PUSH1 0x53 PUSH1 0x1 DUP5 PUSH1 0xB1 JUMP JUMPDEST PUSH1 0x40 DUP1 MLOAD PUSH1 0x20 DUP2 ADD SWAP6 SWAP1 SWAP6 MSTORE PUSH12 0xFFFFFFFFFFFFFFFFFFFFFFFF NOT PUSH1 0x60 SWAP5 DUP6 SHL DUP2 AND SWAP2 DUP7 ADD SWAP2 SWAP1 SWAP2 MSTORE PUSH1 0x54 DUP6 ADD SWAP3 SWAP1 SWAP3 MSTORE BLOCKHASH PUSH1 0x74 DUP5 ADD MSTORE ORIGIN SWAP1 SWAP2 SHL AND PUSH1 0x94 DUP3 ADD MSTORE PUSH1 0xA8 ADD PUSH1 0x40 MLOAD PUSH1 0x20 DUP2 DUP4 SUB SUB DUP2 MSTORE SWAP1 PUSH1 0x40 MSTORE DUP1 MLOAD SWAP1 PUSH1 0x20 ADD KECCAK256 SWAP1 POP SWAP1 JUMP JUMPDEST PUSH1 0x0 DUP3 DUP3 LT ISZERO PUSH1 0xD0 JUMPI PUSH4 0x4E487B71 PUSH1 0xE0 SHL PUSH1 0x0 MSTORE PUSH1 0x11 PUSH1 0x4 MSTORE PUSH1 0x24 PUSH1 0x0 REVERT JUMPDEST POP SUB SWAP1 JUMP INVALID LOG2 PUSH5 0x6970667358 0x22 SLT KECCAK256 MSTORE SELFBALANCE 0xFC PUSH30 0x73B0EF36494F8613F616FA7AD2EAD90CA2C988DE7DA7B68DF7C34D436473 PUSH16 0x6C634300080D00330000000000000000 "
        },
        "methodIdentifiers": {
          "returnValue()": "990c8f79"
        }
      }
    }
  }
}