{
  "_format": "hh-sol-artifact-1",
  "contractName": "RandomStub",
  "sourceName": "contracts/RandomStub.sol",
  "abi": [
    {
      "inputs": [],
      "name": "returnValue",
      "outputs": [
        {
          "internalType": "bytes32",
          "name": "",
          "type": "bytes32"
        }
      ],
      "stateMutability": "view",
      "type": "function"
    }
  ],
  "bytecode": "0x608060405234801561001057600080fd5b5061010b806100206000396000f3fe6080604052348015600f57600080fd5b506004361060285760003560e01c8063990c8f7914602d575b600080fd5b60336045565b60405190815260200160405180910390f35b6000434142605360018460b1565b6040805160208101959095526bffffffffffffffffffffffff19606094851b81169186019190915260548501929092524060748401523290911b16609482015260a80160405160208183030381529060405280519060200120905090565b60008282101560d057634e487b7160e01b600052601160045260246000fd5b50039056fea26469706673582212205247fc7d73b0ef36494f8613f616fa7ad2ead90ca2c988de7da7b68df7c34d4364736f6c634300080d0033",
  "linkReferences": {},
  "deployedLinkReferences": {}
}