{
  "_format": "hh-sol-artifact-1",
  "contractName": "FineNFT",
  "sourceName": "contracts/FineNFT.sol",
  "abi": [
    {
      "inputs": [
        {
          "internalType": "address",
          "name": "coreAddress",
          "type": "address"
        },
        {
          "internalType": "address",
          "name": "shopAddress",
          "type": "address"
        }
      ],
      "stateMutability": "nonpayable",
      "type": "constructor"
    },
    {
      "anonymous": false,
      "inputs": [
        {
          "indexed": true,
          "internalType": "address",
          "name": "owner",
          "type": "address"
        },
        {
          "indexed": true,
          "internalType": "address",
          "name": "approved",
          "type": "address"
        },
        {
          "indexed": true,
          "internalType": "uint256",
          "name": "tokenId",
          "type": "uint256"
        }
      ],
      "name": "Approval",
      "type": "event"
    },
    {
      "anonymous": false,
      "inputs": [
        {
          "indexed": true,
          "internalType": "address",
          "name": "owner",
          "type": "address"
        },
        {
          "indexed": true,
          "internalType": "address",
          "name": "operator",
          "type": "address"
        },
        {
          "indexed": false,
          "internalType": "bool",
          "name": "approved",
          "type": "bool"
        }
      ],
      "name": "ApprovalForAll",
      "type": "event"
    },
    {
      "anonymous": false,
      "inputs": [
        {
          "indexed": true,
          "internalType": "bytes32",
          "name": "role",
          "type": "bytes32"
        },
        {
          "indexed": true,
          "internalType": "bytes32",
          "name": "previousAdminRole",
          "type": "bytes32"
        },
        {
          "indexed": true,
          "internalType": "bytes32",
          "name": "newAdminRole",
          "type": "bytes32"
        }
      ],
      "name": "RoleAdminChanged",
      "type": "event"
    },
    {
      "anonymous": false,
      "inputs": [
        {
          "indexed": true,
          "internalType": "bytes32",
          "name": "role",
          "type": "bytes32"
        },
        {
          "indexed": true,
          "internalType": "address",
          "name": "account",
          "type": "address"
        },
        {
          "indexed": true,
          "internalType": "address",
          "name": "sender",
          "type": "address"
        }
      ],
      "name": "RoleGranted",
      "type": "event"
    },
    {
      "anonymous": false,
      "inputs": [
        {
          "indexed": true,
          "internalType": "bytes32",
          "name": "role",
          "type": "bytes32"
        },
        {
          "indexed": true,
          "internalType": "address",
          "name": "account",
          "type": "address"
        },
        {
          "indexed": true,
          "internalType": "address",
          "name": "sender",
          "type": "address"
        }
      ],
      "name": "RoleRevoked",
      "type": "event"
    },
    {
      "anonymous": false,
      "inputs": [
        {
          "indexed": true,
          "internalType": "address",
          "name": "from",
          "type": "address"
        },
        {
          "indexed": true,
          "internalType": "address",
          "name": "to",
          "type": "address"
        },
        {
          "indexed": true,
          "internalType": "uint256",
          "name": "tokenId",
          "type": "uint256"
        }
      ],
      "name": "Transfer",
      "type": "event"
    },
    {
      "inputs": [],
      "name": "DEFAULT_ADMIN_ROLE",
      "outputs": [
        {
          "internalType": "bytes32",
          "name": "",
          "type": "bytes32"
        }
      ],
      "stateMutability": "view",
      "type": "function"
    },
    {
      "inputs": [],
      "name": "MINTER_ROLE",
      "outputs": [
        {
          "internalType": "bytes32",
          "name": "",
          "type": "bytes32"
        }
      ],
      "stateMutability": "view",
      "type": "function"
    },
    {
      "inputs": [],
      "name": "TOKEN_LIMIT",
      "outputs": [
        {
          "internalType": "uint256",
          "name": "",
          "type": "uint256"
        }
      ],
      "stateMutability": "view",
      "type": "function"
    },
    {
      "inputs": [],
      "name": "additionalPayee",
      "outputs": [
        {
          "internalType": "address payable",
          "name": "",
          "type": "address"
        }
      ],
      "stateMutability": "view",
      "type": "function"
    },
    {
      "inputs": [],
      "name": "additionalPayeePercentage",
      "outputs": [
        {
          "internalType": "uint256",
          "name": "",
          "type": "uint256"
        }
      ],
      "stateMutability": "view",
      "type": "function"
    },
    {
      "inputs": [
        {
          "internalType": "address",
          "name": "to",
          "type": "address"
        },
        {
          "internalType": "uint256",
          "name": "tokenId",
          "type": "uint256"
        }
      ],
      "name": "approve",
      "outputs": [],
      "stateMutability": "nonpayable",
      "type": "function"
    },
    {
      "inputs": [],
      "name": "artist",
      "outputs": [
        {
          "internalType": "string",
          "name": "",
          "type": "string"
        }
      ],
      "stateMutability": "view",
      "type": "function"
    },
    {
      "inputs": [],
      "name": "artistAddress",
      "outputs": [
        {
          "internalType": "address payable",
          "name": "",
          "type": "address"
        }
      ],
      "stateMutability": "view",
      "type": "function"
    },
    {
      "inputs": [
        {
          "internalType": "uint256",
          "name": "",
          "type": "uint256"
        }
      ],
      "name": "artworkId",
      "outputs": [
        {
          "internalType": "uint256",
          "name": "",
          "type": "uint256"
        }
      ],
      "stateMutability": "view",
      "type": "function"
    },
    {
      "inputs": [
        {
          "internalType": "address",
          "name": "owner",
          "type": "address"
        }
      ],
      "name": "balanceOf",
      "outputs": [
        {
          "internalType": "uint256",
          "name": "",
          "type": "uint256"
        }
      ],
      "stateMutability": "view",
      "type": "function"
    },
    {
      "inputs": [],
      "name": "baseURI",
      "outputs": [
        {
          "internalType": "string",
          "name": "",
          "type": "string"
        }
      ],
      "stateMutability": "view",
      "type": "function"
    },
    {
      "inputs": [
        {
          "internalType": "uint256",
          "name": "tokenId",
          "type": "uint256"
        }
      ],
      "name": "burn",
      "outputs": [],
      "stateMutability": "nonpayable",
      "type": "function"
    },
    {
      "inputs": [],
      "name": "checkPool",
      "outputs": [
        {
          "internalType": "uint256",
          "name": "",
          "type": "uint256"
        }
      ],
      "stateMutability": "view",
      "type": "function"
    },
    {
      "inputs": [],
      "name": "description",
      "outputs": [
        {
          "internalType": "string",
          "name": "",
          "type": "string"
        }
      ],
      "stateMutability": "view",
      "type": "function"
    },
    {
      "inputs": [],
      "name": "getAdditionalPayee",
      "outputs": [
        {
          "internalType": "address payable",
          "name": "",
          "type": "address"
        }
      ],
      "stateMutability": "view",
      "type": "function"
    },
    {
      "inputs": [],
      "name": "getAdditionalPayeePercentage",
      "outputs": [
        {
          "internalType": "uint256",
          "name": "",
          "type": "uint256"
        }
      ],
      "stateMutability": "view",
      "type": "function"
    },
    {
      "inputs": [
        {
          "internalType": "uint256",
          "name": "tokenId",
          "type": "uint256"
        }
      ],
      "name": "getApproved",
      "outputs": [
        {
          "internalType": "address",
          "name": "",
          "type": "address"
        }
      ],
      "stateMutability": "view",
      "type": "function"
    },
    {
      "inputs": [],
      "name": "getArtistAddress",
      "outputs": [
        {
          "internalType": "address payable",
          "name": "",
          "type": "address"
        }
      ],
      "stateMutability": "view",
      "type": "function"
    },
    {
      "inputs": [
        {
          "internalType": "bytes32",
          "name": "role",
          "type": "bytes32"
        }
      ],
      "name": "getRoleAdmin",
      "outputs": [
        {
          "internalType": "bytes32",
          "name": "",
          "type": "bytes32"
        }
      ],
      "stateMutability": "view",
      "type": "function"
    },
    {
      "inputs": [],
      "name": "getTokenLimit",
      "outputs": [
        {
          "internalType": "uint256",
          "name": "",
          "type": "uint256"
        }
      ],
      "stateMutability": "view",
      "type": "function"
    },
    {
      "inputs": [
        {
          "internalType": "bytes32",
          "name": "role",
          "type": "bytes32"
        },
        {
          "internalType": "address",
          "name": "account",
          "type": "address"
        }
      ],
      "name": "grantRole",
      "outputs": [],
      "stateMutability": "nonpayable",
      "type": "function"
    },
    {
      "inputs": [
        {
          "internalType": "bytes32",
          "name": "role",
          "type": "bytes32"
        },
        {
          "internalType": "address",
          "name": "account",
          "type": "address"
        }
      ],
      "name": "hasRole",
      "outputs": [
        {
          "internalType": "bool",
          "name": "",
          "type": "bool"
        }
      ],
      "stateMutability": "view",
      "type": "function"
    },
    {
      "inputs": [
        {
          "internalType": "uint256",
          "name": "start",
          "type": "uint256"
        },
        {
          "internalType": "uint256",
          "name": "end",
          "type": "uint256"
        }
      ],
      "name": "initPool",
      "outputs": [],
      "stateMutability": "nonpayable",
      "type": "function"
    },
    {
      "inputs": [
        {
          "internalType": "address",
          "name": "owner",
          "type": "address"
        },
        {
          "internalType": "address",
          "name": "operator",
          "type": "address"
        }
      ],
      "name": "isApprovedForAll",
      "outputs": [
        {
          "internalType": "bool",
          "name": "",
          "type": "bool"
        }
      ],
      "stateMutability": "view",
      "type": "function"
    },
    {
      "inputs": [],
      "name": "license",
      "outputs": [
        {
          "internalType": "string",
          "name": "",
          "type": "string"
        }
      ],
      "stateMutability": "view",
      "type": "function"
    },
    {
      "inputs": [
        {
          "internalType": "address",
          "name": "to",
          "type": "address"
        }
      ],
      "name": "mint",
      "outputs": [
        {
          "internalType": "uint256",
          "name": "tokenId",
          "type": "uint256"
        }
      ],
      "stateMutability": "nonpayable",
      "type": "function"
    },
    {
      "inputs": [],
      "name": "name",
      "outputs": [
        {
          "internalType": "string",
          "name": "",
          "type": "string"
        }
      ],
      "stateMutability": "view",
      "type": "function"
    },
    {
      "inputs": [
        {
          "internalType": "uint256",
          "name": "tokenId",
          "type": "uint256"
        }
      ],
      "name": "ownerOf",
      "outputs": [
        {
          "internalType": "address",
          "name": "",
          "type": "address"
        }
      ],
      "stateMutability": "view",
      "type": "function"
    },
    {
      "inputs": [
        {
          "internalType": "bytes32",
          "name": "role",
          "type": "bytes32"
        },
        {
          "internalType": "address",
          "name": "account",
          "type": "address"
        }
      ],
      "name": "renounceRole",
      "outputs": [],
      "stateMutability": "nonpayable",
      "type": "function"
    },
    {
      "inputs": [
        {
          "internalType": "bytes32",
          "name": "role",
          "type": "bytes32"
        },
        {
          "internalType": "address",
          "name": "account",
          "type": "address"
        }
      ],
      "name": "revokeRole",
      "outputs": [],
      "stateMutability": "nonpayable",
      "type": "function"
    },
    {
      "inputs": [
        {
          "internalType": "uint256",
          "name": "_tokenId",
          "type": "uint256"
        },
        {
          "internalType": "uint256",
          "name": "_salePrice",
          "type": "uint256"
        }
      ],
      "name": "royaltyInfo",
      "outputs": [
        {
          "internalType": "address",
          "name": "",
          "type": "address"
        },
        {
          "internalType": "uint256",
          "name": "",
          "type": "uint256"
        }
      ],
      "stateMutability": "view",
      "type": "function"
    },
    {
      "inputs": [],
      "name": "royaltyPercent",
      "outputs": [
        {
          "internalType": "uint96",
          "name": "",
          "type": "uint96"
        }
      ],
      "stateMutability": "view",
      "type": "function"
    },
    {
      "inputs": [
        {
          "internalType": "address",
          "name": "from",
          "type": "address"
        },
        {
          "internalType": "address",
          "name": "to",
          "type": "address"
        },
        {
          "internalType": "uint256",
          "name": "tokenId",
          "type": "uint256"
        }
      ],
      "name": "safeTransferFrom",
      "outputs": [],
      "stateMutability": "nonpayable",
      "type": "function"
    },
    {
      "inputs": [
        {
          "internalType": "address",
          "name": "from",
          "type": "address"
        },
        {
          "internalType": "address",
          "name": "to",
          "type": "address"
        },
        {
          "internalType": "uint256",
          "name": "tokenId",
          "type": "uint256"
        },
        {
          "internalType": "bytes",
          "name": "_data",
          "type": "bytes"
        }
      ],
      "name": "safeTransferFrom",
      "outputs": [],
      "stateMutability": "nonpayable",
      "type": "function"
    },
    {
      "inputs": [
        {
          "internalType": "uint256",
          "name": "",
          "type": "uint256"
        }
      ],
      "name": "scripts",
      "outputs": [
        {
          "internalType": "string",
          "name": "",
          "type": "string"
        }
      ],
      "stateMutability": "view",
      "type": "function"
    },
    {
      "inputs": [
        {
          "internalType": "address",
          "name": "operator",
          "type": "address"
        },
        {
          "internalType": "bool",
          "name": "approved",
          "type": "bool"
        }
      ],
      "name": "setApprovalForAll",
      "outputs": [],
      "stateMutability": "nonpayable",
      "type": "function"
    },
    {
      "inputs": [
        {
          "internalType": "string",
          "name": "_uri",
          "type": "string"
        }
      ],
      "name": "setBaseURI",
      "outputs": [],
      "stateMutability": "nonpayable",
      "type": "function"
    },
    {
      "inputs": [
        {
          "internalType": "string",
          "name": "_desc",
          "type": "string"
        }
      ],
      "name": "setDescription",
      "outputs": [],
      "stateMutability": "nonpayable",
      "type": "function"
    },
    {
      "inputs": [
        {
          "internalType": "uint256",
          "name": "index",
          "type": "uint256"
        },
        {
          "internalType": "string",
          "name": "script",
          "type": "string"
        }
      ],
      "name": "setScript",
      "outputs": [],
      "stateMutability": "nonpayable",
      "type": "function"
    },
    {
      "inputs": [
        {
          "internalType": "string",
          "name": "_url",
          "type": "string"
        }
      ],
      "name": "setWebsite",
      "outputs": [],
      "stateMutability": "nonpayable",
      "type": "function"
    },
    {
      "inputs": [
        {
          "internalType": "bytes4",
          "name": "interfaceId",
          "type": "bytes4"
        }
      ],
      "name": "supportsInterface",
      "outputs": [
        {
          "internalType": "bool",
          "name": "",
          "type": "bool"
        }
      ],
      "stateMutability": "view",
      "type": "function"
    },
    {
      "inputs": [],
      "name": "symbol",
      "outputs": [
        {
          "internalType": "string",
          "name": "",
          "type": "string"
        }
      ],
      "stateMutability": "view",
      "type": "function"
    },
    {
      "inputs": [
        {
          "internalType": "uint256",
          "name": "index",
          "type": "uint256"
        }
      ],
      "name": "tokenByIndex",
      "outputs": [
        {
          "internalType": "uint256",
          "name": "",
          "type": "uint256"
        }
      ],
      "stateMutability": "view",
      "type": "function"
    },
    {
      "inputs": [
        {
          "internalType": "address",
          "name": "owner",
          "type": "address"
        },
        {
          "internalType": "uint256",
          "name": "index",
          "type": "uint256"
        }
      ],
      "name": "tokenOfOwnerByIndex",
      "outputs": [
        {
          "internalType": "uint256",
          "name": "",
          "type": "uint256"
        }
      ],
      "stateMutability": "view",
      "type": "function"
    },
    {
      "inputs": [
        {
          "internalType": "uint256",
          "name": "tokenId",
          "type": "uint256"
        }
      ],
      "name": "tokenURI",
      "outputs": [
        {
          "internalType": "string",
          "name": "",
          "type": "string"
        }
      ],
      "stateMutability": "view",
      "type": "function"
    },
    {
      "inputs": [],
      "name": "totalSupply",
      "outputs": [
        {
          "internalType": "uint256",
          "name": "",
          "type": "uint256"
        }
      ],
      "stateMutability": "view",
      "type": "function"
    },
    {
      "inputs": [
        {
          "internalType": "address",
          "name": "from",
          "type": "address"
        },
        {
          "internalType": "address",
          "name": "to",
          "type": "address"
        },
        {
          "internalType": "uint256",
          "name": "tokenId",
          "type": "uint256"
        }
      ],
      "name": "transferFrom",
      "outputs": [],
      "stateMutability": "nonpayable",
      "type": "function"
    },
    {
      "inputs": [],
      "name": "website",
      "outputs": [
        {
          "internalType": "string",
          "name": "",
          "type": "string"
        }
      ],
      "stateMutability": "view",
      "type": "function"
    },
    {
      "inputs": [],
      "name": "withdraw",
      "outputs": [],
      "stateMutability": "nonpayable",
      "type": "function"
    },
    {
      "stateMutability": "payable",
      "type": "receive"
    }
  ],
  "bytecode": "0x60806040526103e8600d5573e31a7d022e545eced32d276ca880649852c91353601460006101000a81548173ffffffffffffffffffffffffffffffffffffffff021916908373ffffffffffffffffffffffffffffffffffffffff1602179055506000601560006101000a81548173ffffffffffffffffffffffffffffffffffffffff021916908373ffffffffffffffffffffffffffffffffffffffff16021790555060006016556102ee601760006101000a8154816bffffffffffffffffffffffff02191690836bffffffffffffffffffffffff1602179055506040518060400160405280600e81526020017f4950465320484153482048455245000000000000000000000000000000000000815250601890805190602001906200012692919062000700565b506040518060400160405280600481526020017f66696e6500000000000000000000000000000000000000000000000000000000815250601990805190602001906200017492919062000700565b506040518060400160405280601581526020017f612073616d706c65204e465420666f722046494e450000000000000000000000815250601a9080519060200190620001c292919062000700565b506040518060400160405280601481526020017f68747470733a2f2f66696e652e6469676974616c000000000000000000000000815250601b90805190602001906200021092919062000700565b506040518060400160405280600381526020017f4d49540000000000000000000000000000000000000000000000000000000000815250601c90805190602001906200025e92919062000700565b503480156200026c57600080fd5b5060405162006080380380620060808339818101604052810190620002929190620007c7565b6040518060400160405280600c81526020017f46494e45204469676974616c00000000000000000000000000000000000000008152506040518060400160405280600481526020017f46494e450000000000000000000000000000000000000000000000000000000081525081600290805190602001906200031692919062000700565b5080600390805190602001906200032f92919062000700565b505050620003476000801b33620003ee60201b60201c565b620003797f9f2df0fed2c77648de5860a4cc508cd0818c85b8b8a1ab4ceeef8d981c8956a682620003ee60201b60201c565b81600e60006101000a81548173ffffffffffffffffffffffffffffffffffffffff021916908373ffffffffffffffffffffffffffffffffffffffff160217905550620003e630601760009054906101000a90046bffffffffffffffffffffffff16620004e060201b60201c565b5050620009d6565b6200040082826200068360201b60201c565b620004dc576001600c600084815260200190815260200160002060000160008373ffffffffffffffffffffffffffffffffffffffff1673ffffffffffffffffffffffffffffffffffffffff16815260200190815260200160002060006101000a81548160ff02191690831515021790555062000481620006ee60201b60201c565b73ffffffffffffffffffffffffffffffffffffffff168173ffffffffffffffffffffffffffffffffffffffff16837f2f8788117e7eff1d82e926ec794901d17c78024a50270940304540a733656f0d60405160405180910390a45b5050565b620004f0620006f660201b60201c565b6bffffffffffffffffffffffff16816bffffffffffffffffffffffff16111562000551576040517f08c379a0000000000000000000000000000000000000000000000000000000008152600401620005489062000856565b60405180910390fd5b600073ffffffffffffffffffffffffffffffffffffffff168273ffffffffffffffffffffffffffffffffffffffff161415620005c4576040517f08c379a0000000000000000000000000000000000000000000000000000000008152600401620005bb9062000878565b60405180910390fd5b60405180604001604052808373ffffffffffffffffffffffffffffffffffffffff168152602001826bffffffffffffffffffffffff168152506000808201518160000160006101000a81548173ffffffffffffffffffffffffffffffffffffffff021916908373ffffffffffffffffffffffffffffffffffffffff16021790555060208201518160000160146101000a8154816bffffffffffffffffffffffff02191690836bffffffffffffffffffffffff1602179055509050505050565b6000600c600084815260200190815260200160002060000160008373ffffffffffffffffffffffffffffffffffffffff1673ffffffffffffffffffffffffffffffffffffffff16815260200190815260200160002060009054906101000a900460ff16905092915050565b600033905090565b6000612710905090565b8280546200070e90620008df565b90600052602060002090601f0160209004810192826200073257600085556200077e565b82601f106200074d57805160ff19168380011785556200077e565b828001600101855582156200077e579182015b828111156200077d57825182559160200191906001019062000760565b5b5090506200078d919062000791565b5090565b5b80821115620007ac57600081600090555060010162000792565b5090565b600081519050620007c181620009bc565b92915050565b60008060408385031215620007db57600080fd5b6000620007eb85828601620007b0565b9250506020620007fe85828601620007b0565b9150509250929050565b600062000817602a836200089a565b9150620008248262000944565b604082019050919050565b60006200083e6019836200089a565b91506200084b8262000993565b602082019050919050565b60006020820190508181036000830152620008718162000808565b9050919050565b6000602082019050818103600083015262000893816200082f565b9050919050565b600082825260208201905092915050565b6000620008b882620008bf565b9050919050565b600073ffffffffffffffffffffffffffffffffffffffff82169050919050565b60006002820490506001821680620008f857607f821691505b602082108114156200090f576200090e62000915565b5b50919050565b7f4e487b7100000000000000000000000000000000000000000000000000000000600052602260045260246000fd5b7f455243323938313a20726f79616c7479206665652077696c6c2065786365656460008201527f2073616c65507269636500000000000000000000000000000000000000000000602082015250565b7f455243323938313a20696e76616c696420726563656976657200000000000000600082015250565b620009c781620008ab565b8114620009d357600080fd5b50565b61569a80620009e66000396000f3fe6080604052600436106102b25760003560e01c806359748cb21161017557806395d89b41116100dc578063beb0a41611610095578063d547741f1161006f578063d547741f14610b0c578063d7eb3f3a14610b35578063e985e9c514610b60578063f87f44b914610b9d576102b9565b8063beb0a41614610a79578063c87b56dd14610aa4578063d539139314610ae1576102b9565b806395d89b411461097d5780639e1b0045146109a85780639f67756d146109d1578063a217fddf146109fc578063a22cb46514610a27578063b88d4fde14610a50576102b9565b806370a082311161012e57806370a082311461085b57806371199d30146108985780637284e416146108c15780638cbe8d80146108ec57806390c3f38f1461091757806391d1485414610940576102b9565b806359748cb2146107355780636352211e146107605780636a6278421461079d5780636b87d24c146107da5780636c0360eb146108055780636ff314c714610830576102b9565b80632cc889741161021957806342842e0e116101d257806342842e0e1461062757806342966c681461065057806343bc1612146106795780634771218a146106a45780634f6ccce7146106cf57806355f804b31461070c576102b9565b80632cc889741461052b5780632f2ff15d146105565780632f745c591461057f57806336568abe146105bc5780633ccfd60b146105e557806340138ff1146105fc576102b9565b8063176f5b091161026b578063176f5b09146103f457806318160ddd1461043157806323b872dd1461045c578063248a9ca31461048557806328485586146104c25780632a55205a146104ed576102b9565b806301ffc9a7146102be578063031bd4c4146102fb57806306fdde0314610326578063081812fc1461035157806308ff7f611461038e578063095ea7b3146103cb576102b9565b366102b957005b600080fd5b3480156102ca57600080fd5b506102e560048036038101906102e091906141f0565b610bc6565b6040516102f291906148d1565b60405180910390f35b34801561030757600080fd5b50610310610bd8565b60405161031d9190614b89565b60405180910390f35b34801561033257600080fd5b5061033b610bde565b6040516103489190614907565b60405180910390f35b34801561035d57600080fd5b5061037860048036038101906103739190614287565b610c70565b6040516103859190614826565b60405180910390f35b34801561039a57600080fd5b506103b560048036038101906103b09190614287565b610cf5565b6040516103c29190614907565b60405180910390f35b3480156103d757600080fd5b506103f260048036038101906103ed919061414f565b610d95565b005b34801561040057600080fd5b5061041b60048036038101906104169190614287565b610ead565b6040516104289190614b89565b60405180910390f35b34801561043d57600080fd5b50610446610ec5565b6040516104539190614b89565b60405180910390f35b34801561046857600080fd5b50610483600480360381019061047e9190614049565b610ed2565b005b34801561049157600080fd5b506104ac60048036038101906104a7919061418b565b610f32565b6040516104b991906148ec565b60405180910390f35b3480156104ce57600080fd5b506104d7610f52565b6040516104e49190614b89565b60405180910390f35b3480156104f957600080fd5b50610514600480360381019061050f9190614331565b610f5c565b6040516105229291906148a8565b60405180910390f35b34801561053757600080fd5b50610540611147565b60405161054d9190614b89565b60405180910390f35b34801561056257600080fd5b5061057d600480360381019061057891906141b4565b611151565b005b34801561058b57600080fd5b506105a660048036038101906105a1919061414f565b61117a565b6040516105b39190614b89565b60405180910390f35b3480156105c857600080fd5b506105e360048036038101906105de91906141b4565b61121f565b005b3480156105f157600080fd5b506105fa6112a2565b005b34801561060857600080fd5b506106116112c3565b60405161061e9190614b89565b60405180910390f35b34801561063357600080fd5b5061064e60048036038101906106499190614049565b6112c9565b005b34801561065c57600080fd5b5061067760048036038101906106729190614287565b6112e9565b005b34801561068557600080fd5b5061068e611345565b60405161069b9190614907565b60405180910390f35b3480156106b057600080fd5b506106b96113d3565b6040516106c69190614b89565b60405180910390f35b3480156106db57600080fd5b506106f660048036038101906106f19190614287565b6113e4565b6040516107039190614b89565b60405180910390f35b34801561071857600080fd5b50610733600480360381019061072e9190614242565b61147b565b005b34801561074157600080fd5b5061074a6114a7565b6040516107579190614841565b60405180910390f35b34801561076c57600080fd5b5061078760048036038101906107829190614287565b6114cd565b6040516107949190614826565b60405180910390f35b3480156107a957600080fd5b506107c460048036038101906107bf9190613fbb565b61157f565b6040516107d19190614b89565b60405180910390f35b3480156107e657600080fd5b506107ef61172f565b6040516107fc9190614907565b60405180910390f35b34801561081157600080fd5b5061081a6117bd565b6040516108279190614907565b60405180910390f35b34801561083c57600080fd5b5061084561184b565b6040516108529190614841565b60405180910390f35b34801561086757600080fd5b50610882600480360381019061087d9190613fbb565b611875565b60405161088f9190614b89565b60405180910390f35b3480156108a457600080fd5b506108bf60048036038101906108ba91906142d9565b61192d565b005b3480156108cd57600080fd5b506108d661196b565b6040516108e39190614907565b60405180910390f35b3480156108f857600080fd5b506109016119f9565b60405161090e9190614841565b60405180910390f35b34801561092357600080fd5b5061093e60048036038101906109399190614242565b611a23565b005b34801561094c57600080fd5b50610967600480360381019061096291906141b4565b611a4f565b60405161097491906148d1565b60405180910390f35b34801561098957600080fd5b50610992611aba565b60405161099f9190614907565b60405180910390f35b3480156109b457600080fd5b506109cf60048036038101906109ca9190614331565b611b4c565b005b3480156109dd57600080fd5b506109e6611b87565b6040516109f39190614bcd565b60405180910390f35b348015610a0857600080fd5b50610a11611ba5565b604051610a1e91906148ec565b60405180910390f35b348015610a3357600080fd5b50610a4e6004803603810190610a499190614113565b611bac565b005b348015610a5c57600080fd5b50610a776004803603810190610a729190614098565b611bc2565b005b348015610a8557600080fd5b50610a8e611c24565b604051610a9b9190614907565b60405180910390f35b348015610ab057600080fd5b50610acb6004803603810190610ac69190614287565b611cb2565b604051610ad89190614907565b60405180910390f35b348015610aed57600080fd5b50610af6611cf9565b604051610b0391906148ec565b60405180910390f35b348015610b1857600080fd5b50610b336004803603810190610b2e91906141b4565b611d1d565b005b348015610b4157600080fd5b50610b4a611d46565b604051610b579190614841565b60405180910390f35b348015610b6c57600080fd5b50610b876004803603810190610b82919061400d565b611d6c565b604051610b9491906148d1565b60405180910390f35b348015610ba957600080fd5b50610bc46004803603810190610bbf9190614242565b611e00565b005b6000610bd182611e2c565b9050919050565b600d5481565b606060028054610bed90614ebf565b80601f0160208091040260200160405190810160405280929190818152602001828054610c1990614ebf565b8015610c665780601f10610c3b57610100808354040283529160200191610c66565b820191906000526020600020905b815481529060010190602001808311610c4957829003601f168201915b5050505050905090565b6000610c7b82611ea6565b610cba576040517f08c379a0000000000000000000000000000000000000000000000000000000008152600401610cb190614aa9565b60405180910390fd5b6006600083815260200190815260200160002060009054906101000a900473ffffffffffffffffffffffffffffffffffffffff169050919050565b60116020528060005260406000206000915090508054610d1490614ebf565b80601f0160208091040260200160405190810160405280929190818152602001828054610d4090614ebf565b8015610d8d5780601f10610d6257610100808354040283529160200191610d8d565b820191906000526020600020905b815481529060010190602001808311610d7057829003601f168201915b505050505081565b6000610da0826114cd565b90508073ffffffffffffffffffffffffffffffffffffffff168373ffffffffffffffffffffffffffffffffffffffff161415610e11576040517f08c379a0000000000000000000000000000000000000000000000000000000008152600401610e0890614ac9565b60405180910390fd5b8073ffffffffffffffffffffffffffffffffffffffff16610e30611f12565b73ffffffffffffffffffffffffffffffffffffffff161480610e5f5750610e5e81610e59611f12565b611d6c565b5b610e9e576040517f08c379a0000000000000000000000000000000000000000000000000000000008152600401610e9590614a29565b60405180910390fd5b610ea88383611f1a565b505050565b60106020528060005260406000206000915090505481565b6000600a80549050905090565b610ee3610edd611f12565b82611fd3565b610f22576040517f08c379a0000000000000000000000000000000000000000000000000000000008152600401610f1990614ae9565b60405180910390fd5b610f2d8383836120b1565b505050565b6000600c6000838152602001908152602001600020600101549050919050565b6000600d54905090565b6000806000600160008681526020019081526020016000206040518060400160405290816000820160009054906101000a900473ffffffffffffffffffffffffffffffffffffffff1673ffffffffffffffffffffffffffffffffffffffff1673ffffffffffffffffffffffffffffffffffffffff1681526020016000820160149054906101000a90046bffffffffffffffffffffffff166bffffffffffffffffffffffff166bffffffffffffffffffffffff16815250509050600073ffffffffffffffffffffffffffffffffffffffff16816000015173ffffffffffffffffffffffffffffffffffffffff1614156110f25760006040518060400160405290816000820160009054906101000a900473ffffffffffffffffffffffffffffffffffffffff1673ffffffffffffffffffffffffffffffffffffffff1673ffffffffffffffffffffffffffffffffffffffff1681526020016000820160149054906101000a90046bffffffffffffffffffffffff166bffffffffffffffffffffffff166bffffffffffffffffffffffff168152505090505b60006110fc612318565b6bffffffffffffffffffffffff1682602001516bffffffffffffffffffffffff16866111289190614d1d565b6111329190614cec565b90508160000151819350935050509250929050565b6000601654905090565b61115a82610f32565b61116b81611166611f12565b612322565b61117583836123bf565b505050565b600061118583611875565b82106111c6576040517f08c379a00000000000000000000000000000000000000000000000000000000081526004016111bd90614949565b60405180910390fd5b600860008473ffffffffffffffffffffffffffffffffffffffff1673ffffffffffffffffffffffffffffffffffffffff168152602001908152602001600020600083815260200190815260200160002054905092915050565b611227611f12565b73ffffffffffffffffffffffffffffffffffffffff168173ffffffffffffffffffffffffffffffffffffffff1614611294576040517f08c379a000000000000000000000000000000000000000000000000000000000815260040161128b90614b69565b60405180910390fd5b61129e82826124a0565b5050565b6000801b6112b7816112b2611f12565b612322565b6112c047612582565b50565b60165481565b6112e483838360405180602001604052806000815250611bc2565b505050565b6112fa6112f4611f12565b82611fd3565b611339576040517f08c379a000000000000000000000000000000000000000000000000000000000815260040161133090614b49565b60405180910390fd5b611342816127aa565b50565b6019805461135290614ebf565b80601f016020809104026020016040519081016040528092919081815260200182805461137e90614ebf565b80156113cb5780601f106113a0576101008083540402835291602001916113cb565b820191906000526020600020905b8154815290600101906020018083116113ae57829003601f168201915b505050505081565b60006113df60126127b6565b905090565b60006113ee610ec5565b821061142f576040517f08c379a000000000000000000000000000000000000000000000000000000000815260040161142690614b09565b60405180910390fd5b600a8281548110611469577f4e487b7100000000000000000000000000000000000000000000000000000000600052603260045260246000fd5b90600052602060002001549050919050565b6000801b6114908161148b611f12565b612322565b8282601891906114a1929190613dbe565b50505050565b601560009054906101000a900473ffffffffffffffffffffffffffffffffffffffff1681565b6000806004600084815260200190815260200160002060009054906101000a900473ffffffffffffffffffffffffffffffffffffffff169050600073ffffffffffffffffffffffffffffffffffffffff168173ffffffffffffffffffffffffffffffffffffffff161415611576576040517f08c379a000000000000000000000000000000000000000000000000000000000815260040161156d90614a69565b60405180910390fd5b80915050919050565b60007f9f2df0fed2c77648de5860a4cc508cd0818c85b8b8a1ab4ceeef8d981c8956a66115b3816115ae611f12565b612322565b6115bd600f6127cb565b9150600d548210611603576040517f08c379a00000000000000000000000000000000000000000000000000000000081526004016115fa90614b29565b60405180910390fd5b61160d600f6127d9565b61161783836127ef565b6000600e60009054906101000a900473ffffffffffffffffffffffffffffffffffffffff1673ffffffffffffffffffffffffffffffffffffffff166329e5d83184426040518363ffffffff1660e01b8152600401611676929190614ba4565b60206040518083038186803b15801561168e57600080fd5b505afa1580156116a2573d6000803e3d6000fd5b505050506040513d601f19601f820116820180604052508101906116c691906142b0565b905060006116d460126127b6565b826116df9190614f6b565b905060006116f782601261280d90919063ffffffff16565b905080601060008781526020019081526020016000208190555061172581601261282790919063ffffffff16565b5050505050919050565b601c805461173c90614ebf565b80601f016020809104026020016040519081016040528092919081815260200182805461176890614ebf565b80156117b55780601f1061178a576101008083540402835291602001916117b5565b820191906000526020600020905b81548152906001019060200180831161179857829003601f168201915b505050505081565b601880546117ca90614ebf565b80601f01602080910402602001604051908101604052809291908181526020018280546117f690614ebf565b80156118435780601f1061181857610100808354040283529160200191611843565b820191906000526020600020905b81548152906001019060200180831161182657829003601f168201915b505050505081565b6000601560009054906101000a900473ffffffffffffffffffffffffffffffffffffffff16905090565b60008073ffffffffffffffffffffffffffffffffffffffff168273ffffffffffffffffffffffffffffffffffffffff1614156118e6576040517f08c379a00000000000000000000000000000000000000000000000000000000081526004016118dd90614a49565b60405180910390fd5b600560008373ffffffffffffffffffffffffffffffffffffffff1673ffffffffffffffffffffffffffffffffffffffff168152602001908152602001600020549050919050565b6000801b6119428161193d611f12565b612322565b8282601160008781526020019081526020016000209190611964929190613dbe565b5050505050565b601a805461197890614ebf565b80601f01602080910402602001604051908101604052809291908181526020018280546119a490614ebf565b80156119f15780601f106119c6576101008083540402835291602001916119f1565b820191906000526020600020905b8154815290600101906020018083116119d457829003601f168201915b505050505081565b6000601460009054906101000a900473ffffffffffffffffffffffffffffffffffffffff16905090565b6000801b611a3881611a33611f12565b612322565b8282601a9190611a49929190613dbe565b50505050565b6000600c600084815260200190815260200160002060000160008373ffffffffffffffffffffffffffffffffffffffff1673ffffffffffffffffffffffffffffffffffffffff16815260200190815260200160002060009054906101000a900460ff16905092915050565b606060038054611ac990614ebf565b80601f0160208091040260200160405190810160405280929190818152602001828054611af590614ebf565b8015611b425780601f10611b1757610100808354040283529160200191611b42565b820191906000526020600020905b815481529060010190602001808311611b2557829003601f168201915b5050505050905090565b60008290505b81811015611b8257611b6e81601261284190919063ffffffff16565b508080611b7a90614f22565b915050611b52565b505050565b601760009054906101000a90046bffffffffffffffffffffffff1681565b6000801b81565b611bbe611bb7611f12565b838361285b565b5050565b611bd3611bcd611f12565b83611fd3565b611c12576040517f08c379a0000000000000000000000000000000000000000000000000000000008152600401611c0990614ae9565b60405180910390fd5b611c1e848484846129c8565b50505050565b601b8054611c3190614ebf565b80601f0160208091040260200160405190810160405280929190818152602001828054611c5d90614ebf565b8015611caa5780601f10611c7f57610100808354040283529160200191611caa565b820191906000526020600020905b815481529060010190602001808311611c8d57829003601f168201915b505050505081565b60606018611cd26010600085815260200190815260200160002054612a24565b604051602001611ce39291906147c8565b6040516020818303038152906040529050919050565b7f9f2df0fed2c77648de5860a4cc508cd0818c85b8b8a1ab4ceeef8d981c8956a681565b611d2682610f32565b611d3781611d32611f12565b612322565b611d4183836124a0565b505050565b601460009054906101000a900473ffffffffffffffffffffffffffffffffffffffff1681565b6000600760008473ffffffffffffffffffffffffffffffffffffffff1673ffffffffffffffffffffffffffffffffffffffff16815260200190815260200160002060008373ffffffffffffffffffffffffffffffffffffffff1673ffffffffffffffffffffffffffffffffffffffff16815260200190815260200160002060009054906101000a900460ff16905092915050565b6000801b611e1581611e10611f12565b612322565b8282601b9190611e26929190613dbe565b50505050565b60007f7965db0b000000000000000000000000000000000000000000000000000000007bffffffffffffffffffffffffffffffffffffffffffffffffffffffff1916827bffffffffffffffffffffffffffffffffffffffffffffffffffffffff19161480611e9f5750611e9e82612bd1565b5b9050919050565b60008073ffffffffffffffffffffffffffffffffffffffff166004600084815260200190815260200160002060009054906101000a900473ffffffffffffffffffffffffffffffffffffffff1673ffffffffffffffffffffffffffffffffffffffff1614159050919050565b600033905090565b816006600083815260200190815260200160002060006101000a81548173ffffffffffffffffffffffffffffffffffffffff021916908373ffffffffffffffffffffffffffffffffffffffff160217905550808273ffffffffffffffffffffffffffffffffffffffff16611f8d836114cd565b73ffffffffffffffffffffffffffffffffffffffff167f8c5be1e5ebec7d5bd14f71427d1e84f3dd0314c0f7b2291e5b200ac8c7c3b92560405160405180910390a45050565b6000611fde82611ea6565b61201d576040517f08c379a000000000000000000000000000000000000000000000000000000000815260040161201490614a09565b60405180910390fd5b6000612028836114cd565b90508073ffffffffffffffffffffffffffffffffffffffff168473ffffffffffffffffffffffffffffffffffffffff16148061209757508373ffffffffffffffffffffffffffffffffffffffff1661207f84610c70565b73ffffffffffffffffffffffffffffffffffffffff16145b806120a857506120a78185611d6c565b5b91505092915050565b8273ffffffffffffffffffffffffffffffffffffffff166120d1826114cd565b73ffffffffffffffffffffffffffffffffffffffff1614612127576040517f08c379a000000000000000000000000000000000000000000000000000000000815260040161211e90614989565b60405180910390fd5b600073ffffffffffffffffffffffffffffffffffffffff168273ffffffffffffffffffffffffffffffffffffffff161415612197576040517f08c379a000000000000000000000000000000000000000000000000000000000815260040161218e906149c9565b60405180910390fd5b6121a2838383612be3565b6121ad600082611f1a565b6001600560008573ffffffffffffffffffffffffffffffffffffffff1673ffffffffffffffffffffffffffffffffffffffff16815260200190815260200160002060008282546121fd9190614d77565b925050819055506001600560008473ffffffffffffffffffffffffffffffffffffffff1673ffffffffffffffffffffffffffffffffffffffff16815260200190815260200160002060008282546122549190614c96565b92505081905550816004600083815260200190815260200160002060006101000a81548173ffffffffffffffffffffffffffffffffffffffff021916908373ffffffffffffffffffffffffffffffffffffffff160217905550808273ffffffffffffffffffffffffffffffffffffffff168473ffffffffffffffffffffffffffffffffffffffff167fddf252ad1be2c89b69c2b068fc378daa952ba7f163c4a11628f55a4df523b3ef60405160405180910390a4612313838383612bf3565b505050565b6000612710905090565b61232c8282611a4f565b6123bb576123518173ffffffffffffffffffffffffffffffffffffffff166014612bf8565b61235f8360001c6020612bf8565b6040516020016123709291906147ec565b6040516020818303038152906040526040517f08c379a00000000000000000000000000000000000000000000000000000000081526004016123b29190614907565b60405180910390fd5b5050565b6123c98282611a4f565b61249c576001600c600084815260200190815260200160002060000160008373ffffffffffffffffffffffffffffffffffffffff1673ffffffffffffffffffffffffffffffffffffffff16815260200190815260200160002060006101000a81548160ff021916908315150217905550612441611f12565b73ffffffffffffffffffffffffffffffffffffffff168173ffffffffffffffffffffffffffffffffffffffff16837f2f8788117e7eff1d82e926ec794901d17c78024a50270940304540a733656f0d60405160405180910390a45b5050565b6124aa8282611a4f565b1561257e576000600c600084815260200190815260200160002060000160008373ffffffffffffffffffffffffffffffffffffffff1673ffffffffffffffffffffffffffffffffffffffff16815260200190815260200160002060006101000a81548160ff021916908315150217905550612523611f12565b73ffffffffffffffffffffffffffffffffffffffff168173ffffffffffffffffffffffffffffffffffffffff16837ff6391f5c32d9c69d2a47ea670b442974b53935d1edc7fd64eb21e047a839171b60405160405180910390a45b5050565b60008111156127a7576000612710600e60009054906101000a900473ffffffffffffffffffffffffffffffffffffffff1673ffffffffffffffffffffffffffffffffffffffff1663d672131b6040518163ffffffff1660e01b8152600401602060405180830381600087803b1580156125fa57600080fd5b505af115801561260e573d6000803e3d6000fd5b505050506040513d601f19601f8201168201806040525081019061263291906142b0565b8361263d9190614d1d565b6126479190614cec565b9050600e60009054906101000a900473ffffffffffffffffffffffffffffffffffffffff1673ffffffffffffffffffffffffffffffffffffffff16637dafc0d36040518163ffffffff1660e01b8152600401602060405180830381600087803b1580156126b357600080fd5b505af11580156126c7573d6000803e3d6000fd5b505050506040513d601f19601f820116820180604052508101906126eb9190613fe4565b73ffffffffffffffffffffffffffffffffffffffff166108fc829081150290604051600060405180830381858888f19350505050158015612730573d6000803e3d6000fd5b50601460009054906101000a900473ffffffffffffffffffffffffffffffffffffffff1673ffffffffffffffffffffffffffffffffffffffff166108fc82846127799190614d77565b9081150290604051600060405180830381858888f193505050501580156127a4573d6000803e3d6000fd5b50505b50565b6127b381612ef2565b50565b60006127c482600001612f07565b9050919050565b600081600001549050919050565b6001816000016000828254019250508190555050565b612809828260405180602001604052806000815250612f18565b5050565b600061281c8360000183612f73565b60001c905092915050565b6000612839836000018360001b612fc4565b905092915050565b6000612853836000018360001b61314a565b905092915050565b8173ffffffffffffffffffffffffffffffffffffffff168373ffffffffffffffffffffffffffffffffffffffff1614156128ca576040517f08c379a00000000000000000000000000000000000000000000000000000000081526004016128c1906149e9565b60405180910390fd5b80600760008573ffffffffffffffffffffffffffffffffffffffff1673ffffffffffffffffffffffffffffffffffffffff16815260200190815260200160002060008473ffffffffffffffffffffffffffffffffffffffff1673ffffffffffffffffffffffffffffffffffffffff16815260200190815260200160002060006101000a81548160ff0219169083151502179055508173ffffffffffffffffffffffffffffffffffffffff168373ffffffffffffffffffffffffffffffffffffffff167f17307eab39ab6107e8899845ad3d59bd9653f200f220920489ca2b5937696c31836040516129bb91906148d1565b60405180910390a3505050565b6129d38484846120b1565b6129df848484846131ba565b612a1e576040517f08c379a0000000000000000000000000000000000000000000000000000000008152600401612a1590614969565b60405180910390fd5b50505050565b60606000821415612a6c576040518060400160405280600181526020017f30000000000000000000000000000000000000000000000000000000000000008152509050612bcc565b600082905060005b60008214612a9e578080612a8790614f22565b915050600a82612a979190614cec565b9150612a74565b60008167ffffffffffffffff811115612ae0577f4e487b7100000000000000000000000000000000000000000000000000000000600052604160045260246000fd5b6040519080825280601f01601f191660200182016040528015612b125781602001600182028036833780820191505090505b5090505b60008514612bc557600182612b2b9190614d77565b9150600a85612b3a9190614f6b565b6030612b469190614c96565b60f81b818381518110612b82577f4e487b7100000000000000000000000000000000000000000000000000000000600052603260045260246000fd5b60200101907effffffffffffffffffffffffffffffffffffffffffffffffffffffffffffff1916908160001a905350600a85612bbe9190614cec565b9450612b16565b8093505050505b919050565b6000612bdc82613351565b9050919050565b612bee8383836133cb565b505050565b505050565b606060006002836002612c0b9190614d1d565b612c159190614c96565b67ffffffffffffffff811115612c54577f4e487b7100000000000000000000000000000000000000000000000000000000600052604160045260246000fd5b6040519080825280601f01601f191660200182016040528015612c865781602001600182028036833780820191505090505b5090507f300000000000000000000000000000000000000000000000000000000000000081600081518110612ce4577f4e487b7100000000000000000000000000000000000000000000000000000000600052603260045260246000fd5b60200101907effffffffffffffffffffffffffffffffffffffffffffffffffffffffffffff1916908160001a9053507f780000000000000000000000000000000000000000000000000000000000000081600181518110612d6e577f4e487b7100000000000000000000000000000000000000000000000000000000600052603260045260246000fd5b60200101907effffffffffffffffffffffffffffffffffffffffffffffffffffffffffffff1916908160001a90535060006001846002612dae9190614d1d565b612db89190614c96565b90505b6001811115612ea4577f3031323334353637383961626364656600000000000000000000000000000000600f861660108110612e20577f4e487b7100000000000000000000000000000000000000000000000000000000600052603260045260246000fd5b1a60f81b828281518110612e5d577f4e487b7100000000000000000000000000000000000000000000000000000000600052603260045260246000fd5b60200101907effffffffffffffffffffffffffffffffffffffffffffffffffffffffffffff1916908160001a905350600485901c945080612e9d90614e95565b9050612dbb565b5060008414612ee8576040517f08c379a0000000000000000000000000000000000000000000000000000000008152600401612edf90614929565b60405180910390fd5b8091505092915050565b612efb816134df565b612f04816135fc565b50565b600081600001805490509050919050565b612f22838361365b565b612f2f60008484846131ba565b612f6e576040517f08c379a0000000000000000000000000000000000000000000000000000000008152600401612f6590614969565b60405180910390fd5b505050565b6000826000018281548110612fb1577f4e487b7100000000000000000000000000000000000000000000000000000000600052603260045260246000fd5b9060005260206000200154905092915050565b6000808360010160008481526020019081526020016000205490506000811461313e576000600182612ff69190614d77565b905060006001866000018054905061300e9190614d77565b90508181146130c9576000866000018281548110613055577f4e487b7100000000000000000000000000000000000000000000000000000000600052603260045260246000fd5b906000526020600020015490508087600001848154811061309f577f4e487b7100000000000000000000000000000000000000000000000000000000600052603260045260246000fd5b90600052602060002001819055508387600101600083815260200190815260200160002081905550505b85600001805480613103577f4e487b7100000000000000000000000000000000000000000000000000000000600052603160045260246000fd5b600190038181906000526020600020016000905590558560010160008681526020019081526020016000206000905560019350505050613144565b60009150505b92915050565b60006131568383613835565b6131af5782600001829080600181540180825580915050600190039060005260206000200160009091909190915055826000018054905083600101600084815260200190815260200160002081905550600190506131b4565b600090505b92915050565b60006131db8473ffffffffffffffffffffffffffffffffffffffff16613858565b15613344578373ffffffffffffffffffffffffffffffffffffffff1663150b7a02613204611f12565b8786866040518563ffffffff1660e01b8152600401613226949392919061485c565b602060405180830381600087803b15801561324057600080fd5b505af192505050801561327157506040513d601f19601f8201168201806040525081019061326e9190614219565b60015b6132f4573d80600081146132a1576040519150601f19603f3d011682016040523d82523d6000602084013e6132a6565b606091505b506000815114156132ec576040517f08c379a00000000000000000000000000000000000000000000000000000000081526004016132e390614969565b60405180910390fd5b805181602001fd5b63150b7a0260e01b7bffffffffffffffffffffffffffffffffffffffffffffffffffffffff1916817bffffffffffffffffffffffffffffffffffffffffffffffffffffffff191614915050613349565b600190505b949350505050565b60007f780e9d63000000000000000000000000000000000000000000000000000000007bffffffffffffffffffffffffffffffffffffffffffffffffffffffff1916827bffffffffffffffffffffffffffffffffffffffffffffffffffffffff191614806133c457506133c38261387b565b5b9050919050565b6133d683838361395d565b600073ffffffffffffffffffffffffffffffffffffffff168373ffffffffffffffffffffffffffffffffffffffff1614156134195761341481613962565b613458565b8173ffffffffffffffffffffffffffffffffffffffff168373ffffffffffffffffffffffffffffffffffffffff16146134575761345683826139ab565b5b5b600073ffffffffffffffffffffffffffffffffffffffff168273ffffffffffffffffffffffffffffffffffffffff16141561349b5761349681613b18565b6134da565b8273ffffffffffffffffffffffffffffffffffffffff168273ffffffffffffffffffffffffffffffffffffffff16146134d9576134d88282613c5b565b5b5b505050565b60006134ea826114cd565b90506134f881600084612be3565b613503600083611f1a565b6001600560008373ffffffffffffffffffffffffffffffffffffffff1673ffffffffffffffffffffffffffffffffffffffff16815260200190815260200160002060008282546135539190614d77565b925050819055506004600083815260200190815260200160002060006101000a81549073ffffffffffffffffffffffffffffffffffffffff021916905581600073ffffffffffffffffffffffffffffffffffffffff168273ffffffffffffffffffffffffffffffffffffffff167fddf252ad1be2c89b69c2b068fc378daa952ba7f163c4a11628f55a4df523b3ef60405160405180910390a46135f881600084612bf3565b5050565b60016000828152602001908152602001600020600080820160006101000a81549073ffffffffffffffffffffffffffffffffffffffff02191690556000820160146101000a8154906bffffffffffffffffffffffff0219169055505050565b600073ffffffffffffffffffffffffffffffffffffffff168273ffffffffffffffffffffffffffffffffffffffff1614156136cb576040517f08c379a00000000000000000000000000000000000000000000000000000000081526004016136c290614a89565b60405180910390fd5b6136d481611ea6565b15613714576040517f08c379a000000000000000000000000000000000000000000000000000000000815260040161370b906149a9565b60405180910390fd5b61372060008383612be3565b6001600560008473ffffffffffffffffffffffffffffffffffffffff1673ffffffffffffffffffffffffffffffffffffffff16815260200190815260200160002060008282546137709190614c96565b92505081905550816004600083815260200190815260200160002060006101000a81548173ffffffffffffffffffffffffffffffffffffffff021916908373ffffffffffffffffffffffffffffffffffffffff160217905550808273ffffffffffffffffffffffffffffffffffffffff16600073ffffffffffffffffffffffffffffffffffffffff167fddf252ad1be2c89b69c2b068fc378daa952ba7f163c4a11628f55a4df523b3ef60405160405180910390a461383160008383612bf3565b5050565b600080836001016000848152602001908152602001600020541415905092915050565b6000808273ffffffffffffffffffffffffffffffffffffffff163b119050919050565b60007f80ac58cd000000000000000000000000000000000000000000000000000000007bffffffffffffffffffffffffffffffffffffffffffffffffffffffff1916827bffffffffffffffffffffffffffffffffffffffffffffffffffffffff1916148061394657507f5b5e139f000000000000000000000000000000000000000000000000000000007bffffffffffffffffffffffffffffffffffffffffffffffffffffffff1916827bffffffffffffffffffffffffffffffffffffffffffffffffffffffff1916145b80613956575061395582613cda565b5b9050919050565b505050565b600a80549050600b600083815260200190815260200160002081905550600a81908060018154018082558091505060019003906000526020600020016000909190919091505550565b600060016139b884611875565b6139c29190614d77565b9050600060096000848152602001908152602001600020549050818114613aa7576000600860008673ffffffffffffffffffffffffffffffffffffffff1673ffffffffffffffffffffffffffffffffffffffff168152602001908152602001600020600084815260200190815260200160002054905080600860008773ffffffffffffffffffffffffffffffffffffffff1673ffffffffffffffffffffffffffffffffffffffff168152602001908152602001600020600084815260200190815260200160002081905550816009600083815260200190815260200160002081905550505b6009600084815260200190815260200160002060009055600860008573ffffffffffffffffffffffffffffffffffffffff1673ffffffffffffffffffffffffffffffffffffffff16815260200190815260200160002060008381526020019081526020016000206000905550505050565b60006001600a80549050613b2c9190614d77565b90506000600b60008481526020019081526020016000205490506000600a8381548110613b82577f4e487b7100000000000000000000000000000000000000000000000000000000600052603260045260246000fd5b9060005260206000200154905080600a8381548110613bca577f4e487b7100000000000000000000000000000000000000000000000000000000600052603260045260246000fd5b906000526020600020018190555081600b600083815260200190815260200160002081905550600b600085815260200190815260200160002060009055600a805480613c3f577f4e487b7100000000000000000000000000000000000000000000000000000000600052603160045260246000fd5b6001900381819060005260206000200160009055905550505050565b6000613c6683611875565b905081600860008573ffffffffffffffffffffffffffffffffffffffff1673ffffffffffffffffffffffffffffffffffffffff168152602001908152602001600020600083815260200190815260200160002081905550806009600084815260200190815260200160002081905550505050565b60007f2a55205a000000000000000000000000000000000000000000000000000000007bffffffffffffffffffffffffffffffffffffffffffffffffffffffff1916827bffffffffffffffffffffffffffffffffffffffffffffffffffffffff19161480613d4d5750613d4c82613d54565b5b9050919050565b60007f01ffc9a7000000000000000000000000000000000000000000000000000000007bffffffffffffffffffffffffffffffffffffffffffffffffffffffff1916827bffffffffffffffffffffffffffffffffffffffffffffffffffffffff1916149050919050565b828054613dca90614ebf565b90600052602060002090601f016020900481019282613dec5760008555613e33565b82601f10613e0557803560ff1916838001178555613e33565b82800160010185558215613e33579182015b82811115613e32578235825591602001919060010190613e17565b5b509050613e409190613e44565b5090565b5b80821115613e5d576000816000905550600101613e45565b5090565b6000613e74613e6f84614c0d565b614be8565b905082815260208101848484011115613e8c57600080fd5b613e97848285614e53565b509392505050565b600081359050613eae816155da565b92915050565b600081519050613ec3816155f1565b92915050565b600081359050613ed881615608565b92915050565b600081359050613eed8161561f565b92915050565b600081359050613f0281615636565b92915050565b600081519050613f1781615636565b92915050565b600082601f830112613f2e57600080fd5b8135613f3e848260208601613e61565b91505092915050565b60008083601f840112613f5957600080fd5b8235905067ffffffffffffffff811115613f7257600080fd5b602083019150836001820283011115613f8a57600080fd5b9250929050565b600081359050613fa08161564d565b92915050565b600081519050613fb58161564d565b92915050565b600060208284031215613fcd57600080fd5b6000613fdb84828501613e9f565b91505092915050565b600060208284031215613ff657600080fd5b600061400484828501613eb4565b91505092915050565b6000806040838503121561402057600080fd5b600061402e85828601613e9f565b925050602061403f85828601613e9f565b9150509250929050565b60008060006060848603121561405e57600080fd5b600061406c86828701613e9f565b935050602061407d86828701613e9f565b925050604061408e86828701613f91565b9150509250925092565b600080600080608085870312156140ae57600080fd5b60006140bc87828801613e9f565b94505060206140cd87828801613e9f565b93505060406140de87828801613f91565b925050606085013567ffffffffffffffff8111156140fb57600080fd5b61410787828801613f1d565b91505092959194509250565b6000806040838503121561412657600080fd5b600061413485828601613e9f565b925050602061414585828601613ec9565b9150509250929050565b6000806040838503121561416257600080fd5b600061417085828601613e9f565b925050602061418185828601613f91565b9150509250929050565b60006020828403121561419d57600080fd5b60006141ab84828501613ede565b91505092915050565b600080604083850312156141c757600080fd5b60006141d585828601613ede565b92505060206141e685828601613e9f565b9150509250929050565b60006020828403121561420257600080fd5b600061421084828501613ef3565b91505092915050565b60006020828403121561422b57600080fd5b600061423984828501613f08565b91505092915050565b6000806020838503121561425557600080fd5b600083013567ffffffffffffffff81111561426f57600080fd5b61427b85828601613f47565b92509250509250929050565b60006020828403121561429957600080fd5b60006142a784828501613f91565b91505092915050565b6000602082840312156142c257600080fd5b60006142d084828501613fa6565b91505092915050565b6000806000604084860312156142ee57600080fd5b60006142fc86828701613f91565b935050602084013567ffffffffffffffff81111561431957600080fd5b61432586828701613f47565b92509250509250925092565b6000806040838503121561434457600080fd5b600061435285828601613f91565b925050602061436385828601613f91565b9150509250929050565b61437681614dbd565b82525050565b61438581614dab565b82525050565b61439481614dcf565b82525050565b6143a381614ddb565b82525050565b60006143b482614c53565b6143be8185614c69565b93506143ce818560208601614e62565b6143d781615058565b840191505092915050565b60006143ed82614c5e565b6143f78185614c7a565b9350614407818560208601614e62565b61441081615058565b840191505092915050565b600061442682614c5e565b6144308185614c8b565b9350614440818560208601614e62565b80840191505092915050565b6000815461445981614ebf565b6144638186614c8b565b9450600182166000811461447e576001811461448f576144c2565b60ff198316865281860193506144c2565b61449885614c3e565b60005b838110156144ba5781548189015260018201915060208101905061449b565b838801955050505b50505092915050565b60006144d8602083614c7a565b91506144e382615069565b602082019050919050565b60006144fb602b83614c7a565b915061450682615092565b604082019050919050565b600061451e603283614c7a565b9150614529826150e1565b604082019050919050565b6000614541602583614c7a565b915061454c82615130565b604082019050919050565b6000614564601c83614c7a565b915061456f8261517f565b602082019050919050565b6000614587602483614c7a565b9150614592826151a8565b604082019050919050565b60006145aa601983614c7a565b91506145b5826151f7565b602082019050919050565b60006145cd602c83614c7a565b91506145d882615220565b604082019050919050565b60006145f0603883614c7a565b91506145fb8261526f565b604082019050919050565b6000614613602a83614c7a565b915061461e826152be565b604082019050919050565b6000614636602983614c7a565b91506146418261530d565b604082019050919050565b6000614659602083614c7a565b91506146648261535c565b602082019050919050565b600061467c602c83614c7a565b915061468782615385565b604082019050919050565b600061469f602183614c7a565b91506146aa826153d4565b604082019050919050565b60006146c2603183614c7a565b91506146cd82615423565b604082019050919050565b60006146e5602c83614c7a565b91506146f082615472565b604082019050919050565b6000614708601783614c8b565b9150614713826154c1565b601782019050919050565b600061472b601283614c7a565b9150614736826154ea565b602082019050919050565b600061474e603083614c7a565b915061475982615513565b604082019050919050565b6000614771601183614c8b565b915061477c82615562565b601182019050919050565b6000614794602f83614c7a565b915061479f8261558b565b604082019050919050565b6147b381614e31565b82525050565b6147c281614e3b565b82525050565b60006147d4828561444c565b91506147e0828461441b565b91508190509392505050565b60006147f7826146fb565b9150614803828561441b565b915061480e82614764565b915061481a828461441b565b91508190509392505050565b600060208201905061483b600083018461437c565b92915050565b6000602082019050614856600083018461436d565b92915050565b6000608082019050614871600083018761437c565b61487e602083018661437c565b61488b60408301856147aa565b818103606083015261489d81846143a9565b905095945050505050565b60006040820190506148bd600083018561437c565b6148ca60208301846147aa565b9392505050565b60006020820190506148e6600083018461438b565b92915050565b6000602082019050614901600083018461439a565b92915050565b6000602082019050818103600083015261492181846143e2565b905092915050565b60006020820190508181036000830152614942816144cb565b9050919050565b60006020820190508181036000830152614962816144ee565b9050919050565b6000602082019050818103600083015261498281614511565b9050919050565b600060208201905081810360008301526149a281614534565b9050919050565b600060208201905081810360008301526149c281614557565b9050919050565b600060208201905081810360008301526149e28161457a565b9050919050565b60006020820190508181036000830152614a028161459d565b9050919050565b60006020820190508181036000830152614a22816145c0565b9050919050565b60006020820190508181036000830152614a42816145e3565b9050919050565b60006020820190508181036000830152614a6281614606565b9050919050565b60006020820190508181036000830152614a8281614629565b9050919050565b60006020820190508181036000830152614aa28161464c565b9050919050565b60006020820190508181036000830152614ac28161466f565b9050919050565b60006020820190508181036000830152614ae281614692565b9050919050565b60006020820190508181036000830152614b02816146b5565b9050919050565b60006020820190508181036000830152614b22816146d8565b9050919050565b60006020820190508181036000830152614b428161471e565b9050919050565b60006020820190508181036000830152614b6281614741565b9050919050565b60006020820190508181036000830152614b8281614787565b9050919050565b6000602082019050614b9e60008301846147aa565b92915050565b6000604082019050614bb960008301856147aa565b614bc660208301846147aa565b9392505050565b6000602082019050614be260008301846147b9565b92915050565b6000614bf2614c03565b9050614bfe8282614ef1565b919050565b6000604051905090565b600067ffffffffffffffff821115614c2857614c27615029565b5b614c3182615058565b9050602081019050919050565b60008190508160005260206000209050919050565b600081519050919050565b600081519050919050565b600082825260208201905092915050565b600082825260208201905092915050565b600081905092915050565b6000614ca182614e31565b9150614cac83614e31565b9250827fffffffffffffffffffffffffffffffffffffffffffffffffffffffffffffffff03821115614ce157614ce0614f9c565b5b828201905092915050565b6000614cf782614e31565b9150614d0283614e31565b925082614d1257614d11614fcb565b5b828204905092915050565b6000614d2882614e31565b9150614d3383614e31565b9250817fffffffffffffffffffffffffffffffffffffffffffffffffffffffffffffffff0483118215151615614d6c57614d6b614f9c565b5b828202905092915050565b6000614d8282614e31565b9150614d8d83614e31565b925082821015614da057614d9f614f9c565b5b828203905092915050565b6000614db682614e11565b9050919050565b6000614dc882614e11565b9050919050565b60008115159050919050565b6000819050919050565b60007fffffffff0000000000000000000000000000000000000000000000000000000082169050919050565b600073ffffffffffffffffffffffffffffffffffffffff82169050919050565b6000819050919050565b60006bffffffffffffffffffffffff82169050919050565b82818337600083830152505050565b60005b83811015614e80578082015181840152602081019050614e65565b83811115614e8f576000848401525b50505050565b6000614ea082614e31565b91506000821415614eb457614eb3614f9c565b5b600182039050919050565b60006002820490506001821680614ed757607f821691505b60208210811415614eeb57614eea614ffa565b5b50919050565b614efa82615058565b810181811067ffffffffffffffff82111715614f1957614f18615029565b5b80604052505050565b6000614f2d82614e31565b91507fffffffffffffffffffffffffffffffffffffffffffffffffffffffffffffffff821415614f6057614f5f614f9c565b5b600182019050919050565b6000614f7682614e31565b9150614f8183614e31565b925082614f9157614f90614fcb565b5b828206905092915050565b7f4e487b7100000000000000000000000000000000000000000000000000000000600052601160045260246000fd5b7f4e487b7100000000000000000000000000000000000000000000000000000000600052601260045260246000fd5b7f4e487b7100000000000000000000000000000000000000000000000000000000600052602260045260246000fd5b7f4e487b7100000000000000000000000000000000000000000000000000000000600052604160045260246000fd5b6000601f19601f8301169050919050565b7f537472696e67733a20686578206c656e67746820696e73756666696369656e74600082015250565b7f455243373231456e756d657261626c653a206f776e657220696e646578206f7560008201527f74206f6620626f756e6473000000000000000000000000000000000000000000602082015250565b7f4552433732313a207472616e7366657220746f206e6f6e20455243373231526560008201527f63656976657220696d706c656d656e7465720000000000000000000000000000602082015250565b7f4552433732313a207472616e736665722066726f6d20696e636f72726563742060008201527f6f776e6572000000000000000000000000000000000000000000000000000000602082015250565b7f4552433732313a20746f6b656e20616c7265616479206d696e74656400000000600082015250565b7f4552433732313a207472616e7366657220746f20746865207a65726f2061646460008201527f7265737300000000000000000000000000000000000000000000000000000000602082015250565b7f4552433732313a20617070726f766520746f2063616c6c657200000000000000600082015250565b7f4552433732313a206f70657261746f7220717565727920666f72206e6f6e657860008201527f697374656e7420746f6b656e0000000000000000000000000000000000000000602082015250565b7f4552433732313a20617070726f76652063616c6c6572206973206e6f74206f7760008201527f6e6572206e6f7220617070726f76656420666f7220616c6c0000000000000000602082015250565b7f4552433732313a2062616c616e636520717565727920666f7220746865207a6560008201527f726f206164647265737300000000000000000000000000000000000000000000602082015250565b7f4552433732313a206f776e657220717565727920666f72206e6f6e657869737460008201527f656e7420746f6b656e0000000000000000000000000000000000000000000000602082015250565b7f4552433732313a206d696e7420746f20746865207a65726f2061646472657373600082015250565b7f4552433732313a20617070726f76656420717565727920666f72206e6f6e657860008201527f697374656e7420746f6b656e0000000000000000000000000000000000000000602082015250565b7f4552433732313a20617070726f76616c20746f2063757272656e74206f776e6560008201527f7200000000000000000000000000000000000000000000000000000000000000602082015250565b7f4552433732313a207472616e736665722063616c6c6572206973206e6f74206f60008201527f776e6572206e6f7220617070726f766564000000000000000000000000000000602082015250565b7f455243373231456e756d657261626c653a20676c6f62616c20696e646578206f60008201527f7574206f6620626f756e64730000000000000000000000000000000000000000602082015250565b7f416363657373436f6e74726f6c3a206163636f756e7420000000000000000000600082015250565b7f737570706c792063617020726561636865640000000000000000000000000000600082015250565b7f4552433732314275726e61626c653a2063616c6c6572206973206e6f74206f7760008201527f6e6572206e6f7220617070726f76656400000000000000000000000000000000602082015250565b7f206973206d697373696e6720726f6c6520000000000000000000000000000000600082015250565b7f416363657373436f6e74726f6c3a2063616e206f6e6c792072656e6f756e636560008201527f20726f6c657320666f722073656c660000000000000000000000000000000000602082015250565b6155e381614dab565b81146155ee57600080fd5b50565b6155fa81614dbd565b811461560557600080fd5b50565b61561181614dcf565b811461561c57600080fd5b50565b61562881614ddb565b811461563357600080fd5b50565b61563f81614de5565b811461564a57600080fd5b50565b61565681614e31565b811461566157600080fd5b5056fea2646970667358221220c80a0e41003ed57bd26160ab42eed6e451070410023cf458cb332d59803b66a964736f6c63430008020033",
  "linkReferences": {},
  "deployedLinkReferences": {}
}