{
  "_format": "hh-sol-artifact-1",
  "contractName": "FineNFT",
  "sourceName": "contracts/FineNFT.sol",
  "abi": [
    {
      "inputs": [
        {
          "internalType": "address",
          "name": "coreAddress",
          "type": "address"
        },
        {
          "internalType": "address",
          "name": "shopAddress",
          "type": "address"
        }
      ],
      "stateMutability": "nonpayable",
      "type": "constructor"
    },
    {
      "anonymous": false,
      "inputs": [
        {
          "indexed": true,
          "internalType": "address",
          "name": "owner",
          "type": "address"
        },
        {
          "indexed": true,
          "internalType": "address",
          "name": "approved",
          "type": "address"
        },
        {
          "indexed": true,
          "internalType": "uint256",
          "name": "tokenId",
          "type": "uint256"
        }
      ],
      "name": "Approval",
      "type": "event"
    },
    {
      "anonymous": false,
      "inputs": [
        {
          "indexed": true,
          "internalType": "address",
          "name": "owner",
          "type": "address"
        },
        {
          "indexed": true,
          "internalType": "address",
          "name": "operator",
          "type": "address"
        },
        {
          "indexed": false,
          "internalType": "bool",
          "name": "approved",
          "type": "bool"
        }
      ],
      "name": "ApprovalForAll",
      "type": "event"
    },
    {
      "anonymous": false,
      "inputs": [
        {
          "indexed": true,
          "internalType": "bytes32",
          "name": "role",
          "type": "bytes32"
        },
        {
          "indexed": true,
          "internalType": "bytes32",
          "name": "previousAdminRole",
          "type": "bytes32"
        },
        {
          "indexed": true,
          "internalType": "bytes32",
          "name": "newAdminRole",
          "type": "bytes32"
        }
      ],
      "name": "RoleAdminChanged",
      "type": "event"
    },
    {
      "anonymous": false,
      "inputs": [
        {
          "indexed": true,
          "internalType": "bytes32",
          "name": "role",
          "type": "bytes32"
        },
        {
          "indexed": true,
          "internalType": "address",
          "name": "account",
          "type": "address"
        },
        {
          "indexed": true,
          "internalType": "address",
          "name": "sender",
          "type": "address"
        }
      ],
      "name": "RoleGranted",
      "type": "event"
    },
    {
      "anonymous": false,
      "inputs": [
        {
          "indexed": true,
          "internalType": "bytes32",
          "name": "role",
          "type": "bytes32"
        },
        {
          "indexed": true,
          "internalType": "address",
          "name": "account",
          "type": "address"
        },
        {
          "indexed": true,
          "internalType": "address",
          "name": "sender",
          "type": "address"
        }
      ],
      "name": "RoleRevoked",
      "type": "event"
    },
    {
      "anonymous": false,
      "inputs": [
        {
          "indexed": true,
          "internalType": "address",
          "name": "from",
          "type": "address"
        },
        {
          "indexed": true,
          "internalType": "address",
          "name": "to",
          "type": "address"
        },
        {
          "indexed": true,
          "internalType": "uint256",
          "name": "tokenId",
          "type": "uint256"
        }
      ],
      "name": "Transfer",
      "type": "event"
    },
    {
      "anonymous": false,
      "inputs": [
        {
          "indexed": false,
          "internalType": "address",
          "name": "_from",
          "type": "address"
        },
        {
          "indexed": false,
          "internalType": "uint256",
          "name": "_amount",
          "type": "uint256"
        }
      ],
      "name": "recievedFunds",
      "type": "event"
    },
    {
      "inputs": [],
      "name": "DEFAULT_ADMIN_ROLE",
      "outputs": [
        {
          "internalType": "bytes32",
          "name": "",
          "type": "bytes32"
        }
      ],
      "stateMutability": "view",
      "type": "function"
    },
    {
      "inputs": [],
      "name": "MINTER_ROLE",
      "outputs": [
        {
          "internalType": "bytes32",
          "name": "",
          "type": "bytes32"
        }
      ],
      "stateMutability": "view",
      "type": "function"
    },
    {
      "inputs": [],
      "name": "TOKEN_LIMIT",
      "outputs": [
        {
          "internalType": "uint256",
          "name": "",
          "type": "uint256"
        }
      ],
      "stateMutability": "view",
      "type": "function"
    },
    {
      "inputs": [],
      "name": "_contractURI",
      "outputs": [
        {
          "internalType": "string",
          "name": "",
          "type": "string"
        }
      ],
      "stateMutability": "view",
      "type": "function"
    },
    {
      "inputs": [],
      "name": "additionalPayee",
      "outputs": [
        {
          "internalType": "address payable",
          "name": "",
          "type": "address"
        }
      ],
      "stateMutability": "view",
      "type": "function"
    },
    {
      "inputs": [
        {
          "internalType": "uint96",
          "name": "_percentage",
          "type": "uint96"
        }
      ],
      "name": "additionalPayeePercent",
      "outputs": [],
      "stateMutability": "nonpayable",
      "type": "function"
    },
    {
      "inputs": [],
      "name": "additionalPayeePercentage",
      "outputs": [
        {
          "internalType": "uint256",
          "name": "",
          "type": "uint256"
        }
      ],
      "stateMutability": "view",
      "type": "function"
    },
    {
      "inputs": [
        {
          "internalType": "uint96",
          "name": "_percentage",
          "type": "uint96"
        }
      ],
      "name": "additionalPayeeRoyaltyPercent",
      "outputs": [],
      "stateMutability": "nonpayable",
      "type": "function"
    },
    {
      "inputs": [],
      "name": "additionalPayeeRoyaltyPercentage",
      "outputs": [
        {
          "internalType": "uint256",
          "name": "",
          "type": "uint256"
        }
      ],
      "stateMutability": "view",
      "type": "function"
    },
    {
      "inputs": [
        {
          "internalType": "address",
          "name": "to",
          "type": "address"
        },
        {
          "internalType": "uint256",
          "name": "tokenId",
          "type": "uint256"
        }
      ],
      "name": "approve",
      "outputs": [],
      "stateMutability": "nonpayable",
      "type": "function"
    },
    {
      "inputs": [],
      "name": "artist",
      "outputs": [
        {
          "internalType": "string",
          "name": "",
          "type": "string"
        }
      ],
      "stateMutability": "view",
      "type": "function"
    },
    {
      "inputs": [],
      "name": "artistAddress",
      "outputs": [
        {
          "internalType": "address payable",
          "name": "",
          "type": "address"
        }
      ],
      "stateMutability": "view",
      "type": "function"
    },
    {
      "inputs": [
        {
          "internalType": "uint256",
          "name": "",
          "type": "uint256"
        }
      ],
      "name": "artworkId",
      "outputs": [
        {
          "internalType": "uint256",
          "name": "",
          "type": "uint256"
        }
      ],
      "stateMutability": "view",
      "type": "function"
    },
    {
      "inputs": [
        {
          "internalType": "address",
          "name": "owner",
          "type": "address"
        }
      ],
      "name": "balanceOf",
      "outputs": [
        {
          "internalType": "uint256",
          "name": "",
          "type": "uint256"
        }
      ],
      "stateMutability": "view",
      "type": "function"
    },
    {
      "inputs": [],
      "name": "baseURI",
      "outputs": [
        {
          "internalType": "string",
          "name": "",
          "type": "string"
        }
      ],
      "stateMutability": "view",
      "type": "function"
    },
    {
      "inputs": [
        {
          "internalType": "uint256",
          "name": "tokenId",
          "type": "uint256"
        }
      ],
      "name": "burn",
      "outputs": [],
      "stateMutability": "nonpayable",
      "type": "function"
    },
    {
      "inputs": [],
      "name": "checkPool",
      "outputs": [
        {
          "internalType": "uint256",
          "name": "",
          "type": "uint256"
        }
      ],
      "stateMutability": "view",
      "type": "function"
    },
    {
      "inputs": [],
      "name": "contractURI",
      "outputs": [
        {
          "internalType": "string",
          "name": "",
          "type": "string"
        }
      ],
      "stateMutability": "view",
      "type": "function"
    },
    {
      "inputs": [],
      "name": "description",
      "outputs": [
        {
          "internalType": "string",
          "name": "",
          "type": "string"
        }
      ],
      "stateMutability": "view",
      "type": "function"
    },
    {
      "inputs": [],
      "name": "getAdditionalPayee",
      "outputs": [
        {
          "internalType": "address payable",
          "name": "",
          "type": "address"
        }
      ],
      "stateMutability": "view",
      "type": "function"
    },
    {
      "inputs": [],
      "name": "getAdditionalPayeePercentage",
      "outputs": [
        {
          "internalType": "uint256",
          "name": "",
          "type": "uint256"
        }
      ],
      "stateMutability": "view",
      "type": "function"
    },
    {
      "inputs": [
        {
          "internalType": "uint256",
          "name": "tokenId",
          "type": "uint256"
        }
      ],
      "name": "getApproved",
      "outputs": [
        {
          "internalType": "address",
          "name": "",
          "type": "address"
        }
      ],
      "stateMutability": "view",
      "type": "function"
    },
    {
      "inputs": [],
      "name": "getArtistAddress",
      "outputs": [
        {
          "internalType": "address payable",
          "name": "",
          "type": "address"
        }
      ],
      "stateMutability": "view",
      "type": "function"
    },
    {
      "inputs": [
        {
          "internalType": "bytes32",
          "name": "role",
          "type": "bytes32"
        }
      ],
      "name": "getRoleAdmin",
      "outputs": [
        {
          "internalType": "bytes32",
          "name": "",
          "type": "bytes32"
        }
      ],
      "stateMutability": "view",
      "type": "function"
    },
    {
      "inputs": [],
      "name": "getTokenLimit",
      "outputs": [
        {
          "internalType": "uint256",
          "name": "",
          "type": "uint256"
        }
      ],
      "stateMutability": "view",
      "type": "function"
    },
    {
      "inputs": [
        {
          "internalType": "bytes32",
          "name": "role",
          "type": "bytes32"
        },
        {
          "internalType": "address",
          "name": "account",
          "type": "address"
        }
      ],
      "name": "grantRole",
      "outputs": [],
      "stateMutability": "nonpayable",
      "type": "function"
    },
    {
      "inputs": [
        {
          "internalType": "bytes32",
          "name": "role",
          "type": "bytes32"
        },
        {
          "internalType": "address",
          "name": "account",
          "type": "address"
        }
      ],
      "name": "hasRole",
      "outputs": [
        {
          "internalType": "bool",
          "name": "",
          "type": "bool"
        }
      ],
      "stateMutability": "view",
      "type": "function"
    },
    {
      "inputs": [
        {
          "internalType": "uint256",
          "name": "start",
          "type": "uint256"
        },
        {
          "internalType": "uint256",
          "name": "end",
          "type": "uint256"
        }
      ],
      "name": "initPool",
      "outputs": [],
      "stateMutability": "nonpayable",
      "type": "function"
    },
    {
      "inputs": [
        {
          "internalType": "address",
          "name": "owner",
          "type": "address"
        },
        {
          "internalType": "address",
          "name": "operator",
          "type": "address"
        }
      ],
      "name": "isApprovedForAll",
      "outputs": [
        {
          "internalType": "bool",
          "name": "",
          "type": "bool"
        }
      ],
      "stateMutability": "view",
      "type": "function"
    },
    {
      "inputs": [],
      "name": "license",
      "outputs": [
        {
          "internalType": "string",
          "name": "",
          "type": "string"
        }
      ],
      "stateMutability": "view",
      "type": "function"
    },
    {
      "inputs": [],
      "name": "lock",
      "outputs": [],
      "stateMutability": "nonpayable",
      "type": "function"
    },
    {
      "inputs": [],
      "name": "locked",
      "outputs": [
        {
          "internalType": "bool",
          "name": "",
          "type": "bool"
        }
      ],
      "stateMutability": "view",
      "type": "function"
    },
    {
      "inputs": [
        {
          "internalType": "address",
          "name": "to",
          "type": "address"
        }
      ],
      "name": "mint",
      "outputs": [
        {
          "internalType": "uint256",
          "name": "tokenId",
          "type": "uint256"
        }
      ],
      "stateMutability": "nonpayable",
      "type": "function"
    },
    {
      "inputs": [],
      "name": "name",
      "outputs": [
        {
          "internalType": "string",
          "name": "",
          "type": "string"
        }
      ],
      "stateMutability": "view",
      "type": "function"
    },
    {
      "inputs": [
        {
          "internalType": "uint256",
          "name": "tokenId",
          "type": "uint256"
        }
      ],
      "name": "ownerOf",
      "outputs": [
        {
          "internalType": "address",
          "name": "",
          "type": "address"
        }
      ],
      "stateMutability": "view",
      "type": "function"
    },
    {
      "inputs": [
        {
          "internalType": "bytes32",
          "name": "role",
          "type": "bytes32"
        },
        {
          "internalType": "address",
          "name": "account",
          "type": "address"
        }
      ],
      "name": "renounceRole",
      "outputs": [],
      "stateMutability": "nonpayable",
      "type": "function"
    },
    {
      "inputs": [
        {
          "internalType": "bytes32",
          "name": "role",
          "type": "bytes32"
        },
        {
          "internalType": "address",
          "name": "account",
          "type": "address"
        }
      ],
      "name": "revokeRole",
      "outputs": [],
      "stateMutability": "nonpayable",
      "type": "function"
    },
    {
      "inputs": [
        {
          "internalType": "uint256",
          "name": "_tokenId",
          "type": "uint256"
        },
        {
          "internalType": "uint256",
          "name": "_salePrice",
          "type": "uint256"
        }
      ],
      "name": "royaltyInfo",
      "outputs": [
        {
          "internalType": "address",
          "name": "",
          "type": "address"
        },
        {
          "internalType": "uint256",
          "name": "",
          "type": "uint256"
        }
      ],
      "stateMutability": "view",
      "type": "function"
    },
    {
      "inputs": [],
      "name": "royaltyPercent",
      "outputs": [
        {
          "internalType": "uint96",
          "name": "",
          "type": "uint96"
        }
      ],
      "stateMutability": "view",
      "type": "function"
    },
    {
      "inputs": [
        {
          "internalType": "address",
          "name": "from",
          "type": "address"
        },
        {
          "internalType": "address",
          "name": "to",
          "type": "address"
        },
        {
          "internalType": "uint256",
          "name": "tokenId",
          "type": "uint256"
        }
      ],
      "name": "safeTransferFrom",
      "outputs": [],
      "stateMutability": "nonpayable",
      "type": "function"
    },
    {
      "inputs": [
        {
          "internalType": "address",
          "name": "from",
          "type": "address"
        },
        {
          "internalType": "address",
          "name": "to",
          "type": "address"
        },
        {
          "internalType": "uint256",
          "name": "tokenId",
          "type": "uint256"
        },
        {
          "internalType": "bytes",
          "name": "_data",
          "type": "bytes"
        }
      ],
      "name": "safeTransferFrom",
      "outputs": [],
      "stateMutability": "nonpayable",
      "type": "function"
    },
    {
      "inputs": [
        {
          "internalType": "uint256",
          "name": "",
          "type": "uint256"
        }
      ],
      "name": "scripts",
      "outputs": [
        {
          "internalType": "string",
          "name": "",
          "type": "string"
        }
      ],
      "stateMutability": "view",
      "type": "function"
    },
    {
      "inputs": [
        {
          "internalType": "address",
          "name": "operator",
          "type": "address"
        },
        {
          "internalType": "bool",
          "name": "approved",
          "type": "bool"
        }
      ],
      "name": "setApprovalForAll",
      "outputs": [],
      "stateMutability": "nonpayable",
      "type": "function"
    },
    {
      "inputs": [
        {
          "internalType": "string",
          "name": "_uri",
          "type": "string"
        }
      ],
      "name": "setBaseURI",
      "outputs": [],
      "stateMutability": "nonpayable",
      "type": "function"
    },
    {
      "inputs": [
        {
          "internalType": "string",
          "name": "_uri",
          "type": "string"
        }
      ],
      "name": "setContractURI",
      "outputs": [],
      "stateMutability": "nonpayable",
      "type": "function"
    },
    {
      "inputs": [
        {
          "internalType": "string",
          "name": "_desc",
          "type": "string"
        }
      ],
      "name": "setDescription",
      "outputs": [],
      "stateMutability": "nonpayable",
      "type": "function"
    },
    {
      "inputs": [
        {
          "internalType": "uint96",
          "name": "_percentage",
          "type": "uint96"
        }
      ],
      "name": "setRoyaltyPercent",
      "outputs": [],
      "stateMutability": "nonpayable",
      "type": "function"
    },
    {
      "inputs": [
        {
          "internalType": "uint256",
          "name": "index",
          "type": "uint256"
        },
        {
          "internalType": "string",
          "name": "script",
          "type": "string"
        }
      ],
      "name": "setScript",
      "outputs": [],
      "stateMutability": "nonpayable",
      "type": "function"
    },
    {
      "inputs": [
        {
          "internalType": "string",
          "name": "_url",
          "type": "string"
        }
      ],
      "name": "setWebsite",
      "outputs": [],
      "stateMutability": "nonpayable",
      "type": "function"
    },
    {
      "inputs": [
        {
          "internalType": "bytes4",
          "name": "interfaceId",
          "type": "bytes4"
        }
      ],
      "name": "supportsInterface",
      "outputs": [
        {
          "internalType": "bool",
          "name": "",
          "type": "bool"
        }
      ],
      "stateMutability": "view",
      "type": "function"
    },
    {
      "inputs": [],
      "name": "symbol",
      "outputs": [
        {
          "internalType": "string",
          "name": "",
          "type": "string"
        }
      ],
      "stateMutability": "view",
      "type": "function"
    },
    {
      "inputs": [
        {
          "internalType": "uint256",
          "name": "index",
          "type": "uint256"
        }
      ],
      "name": "tokenByIndex",
      "outputs": [
        {
          "internalType": "uint256",
          "name": "",
          "type": "uint256"
        }
      ],
      "stateMutability": "view",
      "type": "function"
    },
    {
      "inputs": [
        {
          "internalType": "address",
          "name": "owner",
          "type": "address"
        },
        {
          "internalType": "uint256",
          "name": "index",
          "type": "uint256"
        }
      ],
      "name": "tokenOfOwnerByIndex",
      "outputs": [
        {
          "internalType": "uint256",
          "name": "",
          "type": "uint256"
        }
      ],
      "stateMutability": "view",
      "type": "function"
    },
    {
      "inputs": [
        {
          "internalType": "uint256",
          "name": "tokenId",
          "type": "uint256"
        }
      ],
      "name": "tokenURI",
      "outputs": [
        {
          "internalType": "string",
          "name": "",
          "type": "string"
        }
      ],
      "stateMutability": "view",
      "type": "function"
    },
    {
      "inputs": [],
      "name": "totalSupply",
      "outputs": [
        {
          "internalType": "uint256",
          "name": "",
          "type": "uint256"
        }
      ],
      "stateMutability": "view",
      "type": "function"
    },
    {
      "inputs": [
        {
          "internalType": "address",
          "name": "from",
          "type": "address"
        },
        {
          "internalType": "address",
          "name": "to",
          "type": "address"
        },
        {
          "internalType": "uint256",
          "name": "tokenId",
          "type": "uint256"
        }
      ],
      "name": "transferFrom",
      "outputs": [],
      "stateMutability": "nonpayable",
      "type": "function"
    },
    {
      "inputs": [],
      "name": "website",
      "outputs": [
        {
          "internalType": "string",
          "name": "",
          "type": "string"
        }
      ],
      "stateMutability": "view",
      "type": "function"
    },
    {
      "inputs": [],
      "name": "withdraw",
      "outputs": [],
      "stateMutability": "nonpayable",
      "type": "function"
    },
    {
      "stateMutability": "payable",
      "type": "receive"
    }
  ],
  "bytecode": "0x60806040526103e8600d556000601460006101000a81548160ff02191690831515021790555073e31a7d022e545eced32d276ca880649852c91353601460016101000a81548173ffffffffffffffffffffffffffffffffffffffff021916908373ffffffffffffffffffffffffffffffffffffffff16021790555073268b87e4f6b7e7beb58e3128138d4f6b768e1b17601560006101000a81548173ffffffffffffffffffffffffffffffffffffffff021916908373ffffffffffffffffffffffffffffffffffffffff16021790555060646016556064601755611d4c601860006101000a8154816bffffffffffffffffffffffff02191690836bffffffffffffffffffffffff1602179055506040518060400160405280600e81526020017f4950465320484153482048455245000000000000000000000000000000000000815250601990805190602001906200015992919062000781565b506040518060400160405280600e81526020017f4950465320484153482048455245000000000000000000000000000000000000815250601a9080519060200190620001a792919062000781565b506040518060400160405280600481526020017f66696e6500000000000000000000000000000000000000000000000000000000815250601b9080519060200190620001f592919062000781565b506040518060400160405280601581526020017f612073616d706c65204e465420666f722046494e450000000000000000000000815250601c90805190602001906200024392919062000781565b506040518060400160405280601481526020017f68747470733a2f2f66696e652e6469676974616c000000000000000000000000815250601d90805190602001906200029192919062000781565b506040518060400160405280600381526020017f4d49540000000000000000000000000000000000000000000000000000000000815250601e9080519060200190620002df92919062000781565b50348015620002ed57600080fd5b506040516200683a3803806200683a833981810160405281019062000313919062000848565b6040518060400160405280600c81526020017f46494e45204469676974616c00000000000000000000000000000000000000008152506040518060400160405280600481526020017f46494e450000000000000000000000000000000000000000000000000000000081525081600290805190602001906200039792919062000781565b508060039080519060200190620003b092919062000781565b505050620003c86000801b336200046f60201b60201c565b620003fa7f9f2df0fed2c77648de5860a4cc508cd0818c85b8b8a1ab4ceeef8d981c8956a6826200046f60201b60201c565b81600e60006101000a81548173ffffffffffffffffffffffffffffffffffffffff021916908373ffffffffffffffffffffffffffffffffffffffff1602179055506200046730601860009054906101000a90046bffffffffffffffffffffffff166200056160201b60201c565b505062000a57565b6200048182826200070460201b60201c565b6200055d576001600c600084815260200190815260200160002060000160008373ffffffffffffffffffffffffffffffffffffffff1673ffffffffffffffffffffffffffffffffffffffff16815260200190815260200160002060006101000a81548160ff021916908315150217905550620005026200076f60201b60201c565b73ffffffffffffffffffffffffffffffffffffffff168173ffffffffffffffffffffffffffffffffffffffff16837f2f8788117e7eff1d82e926ec794901d17c78024a50270940304540a733656f0d60405160405180910390a45b5050565b620005716200077760201b60201c565b6bffffffffffffffffffffffff16816bffffffffffffffffffffffff161115620005d2576040517f08c379a0000000000000000000000000000000000000000000000000000000008152600401620005c990620008d7565b60405180910390fd5b600073ffffffffffffffffffffffffffffffffffffffff168273ffffffffffffffffffffffffffffffffffffffff16141562000645576040517f08c379a00000000000000000000000000000000000000000000000000000000081526004016200063c90620008f9565b60405180910390fd5b60405180604001604052808373ffffffffffffffffffffffffffffffffffffffff168152602001826bffffffffffffffffffffffff168152506000808201518160000160006101000a81548173ffffffffffffffffffffffffffffffffffffffff021916908373ffffffffffffffffffffffffffffffffffffffff16021790555060208201518160000160146101000a8154816bffffffffffffffffffffffff02191690836bffffffffffffffffffffffff1602179055509050505050565b6000600c600084815260200190815260200160002060000160008373ffffffffffffffffffffffffffffffffffffffff1673ffffffffffffffffffffffffffffffffffffffff16815260200190815260200160002060009054906101000a900460ff16905092915050565b600033905090565b6000612710905090565b8280546200078f9062000960565b90600052602060002090601f016020900481019282620007b35760008555620007ff565b82601f10620007ce57805160ff1916838001178555620007ff565b82800160010185558215620007ff579182015b82811115620007fe578251825591602001919060010190620007e1565b5b5090506200080e919062000812565b5090565b5b808211156200082d57600081600090555060010162000813565b5090565b600081519050620008428162000a3d565b92915050565b600080604083850312156200085c57600080fd5b60006200086c8582860162000831565b92505060206200087f8582860162000831565b9150509250929050565b600062000898602a836200091b565b9150620008a582620009c5565b604082019050919050565b6000620008bf6019836200091b565b9150620008cc8262000a14565b602082019050919050565b60006020820190508181036000830152620008f28162000889565b9050919050565b600060208201905081810360008301526200091481620008b0565b9050919050565b600082825260208201905092915050565b6000620009398262000940565b9050919050565b600073ffffffffffffffffffffffffffffffffffffffff82169050919050565b600060028204905060018216806200097957607f821691505b6020821081141562000990576200098f62000996565b5b50919050565b7f4e487b7100000000000000000000000000000000000000000000000000000000600052602260045260246000fd5b7f455243323938313a20726f79616c7479206665652077696c6c2065786365656460008201527f2073616c65507269636500000000000000000000000000000000000000000000602082015250565b7f455243323938313a20696e76616c696420726563656976657200000000000000600082015250565b62000a48816200092c565b811462000a5457600080fd5b50565b615dd38062000a676000396000f3fe6080604052600436106103855760003560e01c80636c0360eb116101d1578063a22cb46511610102578063d547741f116100a0578063ea099ad91161006f578063ea099ad914610da5578063f83d08ba14610dd0578063f87f44b914610de7578063f9f3bfd814610e10576103c5565b8063d547741f14610ce9578063d7eb3f3a14610d12578063e8a3d48514610d3d578063e985e9c514610d68576103c5565b8063c0e72740116100dc578063c0e7274014610c2b578063c87b56dd14610c56578063cf30901214610c93578063d539139314610cbe576103c5565b8063a22cb46514610bae578063b88d4fde14610bd7578063beb0a41614610c00576103c5565b806390c3f38f1161016f57806395d89b411161014957806395d89b4114610b045780639e1b004514610b2f5780639f67756d14610b58578063a217fddf14610b83576103c5565b806390c3f38f14610a7557806391d1485414610a9e578063938e3d7b14610adb576103c5565b806371199d30116101ab57806371199d30146109cd5780637284e416146109f6578063867644d914610a215780638cbe8d8014610a4a576103c5565b80636c0360eb1461093a5780636ff314c71461096557806370a0823114610990576103c5565b80632f745c59116102b65780634771218a1161025457806359748cb21161022357806359748cb21461086a5780636352211e146108955780636a627842146108d25780636b87d24c1461090f576103c5565b80634771218a146107b05780634bc46a82146107db5780634f6ccce71461080457806355f804b314610841576103c5565b806340138ff11161029057806340138ff11461070857806342842e0e1461073357806342966c681461075c57806343bc161214610785576103c5565b80632f745c591461068b57806336568abe146106c85780633ccfd60b146106f1576103c5565b806318160ddd1161032357806328485586116102fd57806328485586146105ce5780632a55205a146105f95780632cc88974146106375780632f2ff15d14610662576103c5565b806318160ddd1461053d57806323b872dd14610568578063248a9ca314610591576103c5565b8063081812fc1161035f578063081812fc1461045d57806308ff7f611461049a578063095ea7b3146104d7578063176f5b0914610500576103c5565b806301ffc9a7146103ca578063031bd4c41461040757806306fdde0314610432576103c5565b366103c5577ffb5cb5fc5900f14be0f619816129d1490c275a13734b28ae77072a2f5d676f5733346040516103bb929190614f38565b60405180910390a1005b600080fd5b3480156103d657600080fd5b506103f160048036038101906103ec9190614811565b610e39565b6040516103fe9190614f61565b60405180910390f35b34801561041357600080fd5b5061041c610e4b565b6040516104299190615259565b60405180910390f35b34801561043e57600080fd5b50610447610e51565b6040516104549190614f97565b60405180910390f35b34801561046957600080fd5b50610484600480360381019061047f91906148a8565b610ee3565b6040516104919190614eb6565b60405180910390f35b3480156104a657600080fd5b506104c160048036038101906104bc91906148a8565b610f68565b6040516104ce9190614f97565b60405180910390f35b3480156104e357600080fd5b506104fe60048036038101906104f99190614770565b611008565b005b34801561050c57600080fd5b50610527600480360381019061052291906148a8565b611120565b6040516105349190615259565b60405180910390f35b34801561054957600080fd5b50610552611138565b60405161055f9190615259565b60405180910390f35b34801561057457600080fd5b5061058f600480360381019061058a919061466a565b611145565b005b34801561059d57600080fd5b506105b860048036038101906105b391906147ac565b6111a5565b6040516105c59190614f7c565b60405180910390f35b3480156105da57600080fd5b506105e36111c5565b6040516105f09190615259565b60405180910390f35b34801561060557600080fd5b50610620600480360381019061061b9190614952565b6111cf565b60405161062e929190614f38565b60405180910390f35b34801561064357600080fd5b5061064c6113ba565b6040516106599190615259565b60405180910390f35b34801561066e57600080fd5b50610689600480360381019061068491906147d5565b6113c4565b005b34801561069757600080fd5b506106b260048036038101906106ad9190614770565b6113ed565b6040516106bf9190615259565b60405180910390f35b3480156106d457600080fd5b506106ef60048036038101906106ea91906147d5565b611492565b005b3480156106fd57600080fd5b50610706611515565b005b34801561071457600080fd5b5061071d611536565b60405161072a9190615259565b60405180910390f35b34801561073f57600080fd5b5061075a6004803603810190610755919061466a565b61153c565b005b34801561076857600080fd5b50610783600480360381019061077e91906148a8565b61155c565b005b34801561079157600080fd5b5061079a6115b8565b6040516107a79190614f97565b60405180910390f35b3480156107bc57600080fd5b506107c5611646565b6040516107d29190615259565b60405180910390f35b3480156107e757600080fd5b5061080260048036038101906107fd919061498e565b611657565b005b34801561081057600080fd5b5061082b600480360381019061082691906148a8565b6116a1565b6040516108389190615259565b60405180910390f35b34801561084d57600080fd5b5061086860048036038101906108639190614863565b611738565b005b34801561087657600080fd5b5061087f611764565b60405161088c9190614ed1565b60405180910390f35b3480156108a157600080fd5b506108bc60048036038101906108b791906148a8565b61178a565b6040516108c99190614eb6565b60405180910390f35b3480156108de57600080fd5b506108f960048036038101906108f491906145dc565b61183c565b6040516109069190615259565b60405180910390f35b34801561091b57600080fd5b50610924611a2d565b6040516109319190614f97565b60405180910390f35b34801561094657600080fd5b5061094f611abb565b60405161095c9190614f97565b60405180910390f35b34801561097157600080fd5b5061097a611b49565b6040516109879190614ed1565b60405180910390f35b34801561099c57600080fd5b506109b760048036038101906109b291906145dc565b611b73565b6040516109c49190615259565b60405180910390f35b3480156109d957600080fd5b506109f460048036038101906109ef91906148fa565b611c2b565b005b348015610a0257600080fd5b50610a0b611c69565b604051610a189190614f97565b60405180910390f35b348015610a2d57600080fd5b50610a486004803603810190610a43919061498e565b611cf7565b005b348015610a5657600080fd5b50610a5f611d25565b604051610a6c9190614ed1565b60405180910390f35b348015610a8157600080fd5b50610a9c6004803603810190610a979190614863565b611d4f565b005b348015610aaa57600080fd5b50610ac56004803603810190610ac091906147d5565b611d7b565b604051610ad29190614f61565b60405180910390f35b348015610ae757600080fd5b50610b026004803603810190610afd9190614863565b611de6565b005b348015610b1057600080fd5b50610b19611e12565b604051610b269190614f97565b60405180910390f35b348015610b3b57600080fd5b50610b566004803603810190610b519190614952565b611ea4565b005b348015610b6457600080fd5b50610b6d611f2f565b604051610b7a919061529d565b60405180910390f35b348015610b8f57600080fd5b50610b98611f4d565b604051610ba59190614f7c565b60405180910390f35b348015610bba57600080fd5b50610bd56004803603810190610bd09190614734565b611f54565b005b348015610be357600080fd5b50610bfe6004803603810190610bf991906146b9565b611f6a565b005b348015610c0c57600080fd5b50610c15611fcc565b604051610c229190614f97565b60405180910390f35b348015610c3757600080fd5b50610c4061205a565b604051610c4d9190614f97565b60405180910390f35b348015610c6257600080fd5b50610c7d6004803603810190610c7891906148a8565b6120e8565b604051610c8a9190614f97565b60405180910390f35b348015610c9f57600080fd5b50610ca861212f565b604051610cb59190614f61565b60405180910390f35b348015610cca57600080fd5b50610cd3612142565b604051610ce09190614f7c565b60405180910390f35b348015610cf557600080fd5b50610d106004803603810190610d0b91906147d5565b612166565b005b348015610d1e57600080fd5b50610d2761218f565b604051610d349190614ed1565b60405180910390f35b348015610d4957600080fd5b50610d526121b5565b604051610d5f9190614f97565b60405180910390f35b348015610d7457600080fd5b50610d8f6004803603810190610d8a919061462e565b612247565b604051610d9c9190614f61565b60405180910390f35b348015610db157600080fd5b50610dba6122db565b604051610dc79190615259565b60405180910390f35b348015610ddc57600080fd5b50610de56122e1565b005b348015610df357600080fd5b50610e0e6004803603810190610e099190614863565b612364565b005b348015610e1c57600080fd5b50610e376004803603810190610e32919061498e565b612390565b005b6000610e44826123be565b9050919050565b600d5481565b606060028054610e609061558f565b80601f0160208091040260200160405190810160405280929190818152602001828054610e8c9061558f565b8015610ed95780601f10610eae57610100808354040283529160200191610ed9565b820191906000526020600020905b815481529060010190602001808311610ebc57829003601f168201915b5050505050905090565b6000610eee82612438565b610f2d576040517f08c379a0000000000000000000000000000000000000000000000000000000008152600401610f2490615179565b60405180910390fd5b6006600083815260200190815260200160002060009054906101000a900473ffffffffffffffffffffffffffffffffffffffff169050919050565b60116020528060005260406000206000915090508054610f879061558f565b80601f0160208091040260200160405190810160405280929190818152602001828054610fb39061558f565b80156110005780601f10610fd557610100808354040283529160200191611000565b820191906000526020600020905b815481529060010190602001808311610fe357829003601f168201915b505050505081565b60006110138261178a565b90508073ffffffffffffffffffffffffffffffffffffffff168373ffffffffffffffffffffffffffffffffffffffff161415611084576040517f08c379a000000000000000000000000000000000000000000000000000000000815260040161107b906151b9565b60405180910390fd5b8073ffffffffffffffffffffffffffffffffffffffff166110a36124a4565b73ffffffffffffffffffffffffffffffffffffffff1614806110d257506110d1816110cc6124a4565b612247565b5b611111576040517f08c379a0000000000000000000000000000000000000000000000000000000008152600401611108906150f9565b60405180910390fd5b61111b83836124ac565b505050565b60106020528060005260406000206000915090505481565b6000600a80549050905090565b6111566111506124a4565b82612565565b611195576040517f08c379a000000000000000000000000000000000000000000000000000000000815260040161118c906151d9565b60405180910390fd5b6111a0838383612643565b505050565b6000600c6000838152602001908152602001600020600101549050919050565b6000600d54905090565b6000806000600160008681526020019081526020016000206040518060400160405290816000820160009054906101000a900473ffffffffffffffffffffffffffffffffffffffff1673ffffffffffffffffffffffffffffffffffffffff1673ffffffffffffffffffffffffffffffffffffffff1681526020016000820160149054906101000a90046bffffffffffffffffffffffff166bffffffffffffffffffffffff166bffffffffffffffffffffffff16815250509050600073ffffffffffffffffffffffffffffffffffffffff16816000015173ffffffffffffffffffffffffffffffffffffffff1614156113655760006040518060400160405290816000820160009054906101000a900473ffffffffffffffffffffffffffffffffffffffff1673ffffffffffffffffffffffffffffffffffffffff1673ffffffffffffffffffffffffffffffffffffffff1681526020016000820160149054906101000a90046bffffffffffffffffffffffff166bffffffffffffffffffffffff166bffffffffffffffffffffffff168152505090505b600061136f6128aa565b6bffffffffffffffffffffffff1682602001516bffffffffffffffffffffffff168661139b91906153ed565b6113a591906153bc565b90508160000151819350935050509250929050565b6000601654905090565b6113cd826111a5565b6113de816113d96124a4565b6128b4565b6113e88383612951565b505050565b60006113f883611b73565b8210611439576040517f08c379a000000000000000000000000000000000000000000000000000000000815260040161143090614fd9565b60405180910390fd5b600860008473ffffffffffffffffffffffffffffffffffffffff1673ffffffffffffffffffffffffffffffffffffffff168152602001908152602001600020600083815260200190815260200160002054905092915050565b61149a6124a4565b73ffffffffffffffffffffffffffffffffffffffff168173ffffffffffffffffffffffffffffffffffffffff1614611507576040517f08c379a00000000000000000000000000000000000000000000000000000000081526004016114fe90615239565b60405180910390fd5b6115118282612a32565b5050565b6000801b61152a816115256124a4565b6128b4565b61153347612b14565b50565b60165481565b61155783838360405180602001604052806000815250611f6a565b505050565b61156d6115676124a4565b82612565565b6115ac576040517f08c379a00000000000000000000000000000000000000000000000000000000081526004016115a390615219565b60405180910390fd5b6115b581612dda565b50565b601b80546115c59061558f565b80601f01602080910402602001604051908101604052809291908181526020018280546115f19061558f565b801561163e5780601f106116135761010080835404028352916020019161163e565b820191906000526020600020905b81548152906001019060200180831161162157829003601f168201915b505050505081565b60006116526012612de6565b905090565b6000801b61166c816116676124a4565b6128b4565b81601860006101000a8154816bffffffffffffffffffffffff02191690836bffffffffffffffffffffffff1602179055505050565b60006116ab611138565b82106116ec576040517f08c379a00000000000000000000000000000000000000000000000000000000081526004016116e3906151f9565b60405180910390fd5b600a8281548110611726577f4e487b7100000000000000000000000000000000000000000000000000000000600052603260045260246000fd5b90600052602060002001549050919050565b6000801b61174d816117486124a4565b6128b4565b8282601a919061175e9291906143ca565b50505050565b601560009054906101000a900473ffffffffffffffffffffffffffffffffffffffff1681565b6000806004600084815260200190815260200160002060009054906101000a900473ffffffffffffffffffffffffffffffffffffffff169050600073ffffffffffffffffffffffffffffffffffffffff168173ffffffffffffffffffffffffffffffffffffffff161415611833576040517f08c379a000000000000000000000000000000000000000000000000000000000815260040161182a90615139565b60405180910390fd5b80915050919050565b60007f9f2df0fed2c77648de5860a4cc508cd0818c85b8b8a1ab4ceeef8d981c8956a66118708161186b6124a4565b6128b4565b601460009054906101000a900460ff166118bf576040517f08c379a00000000000000000000000000000000000000000000000000000000081526004016118b6906150d9565b60405180910390fd5b60006118cb6012612de6565b1161190b576040517f08c379a000000000000000000000000000000000000000000000000000000000815260040161190290615019565b60405180910390fd5b6000600e60009054906101000a900473ffffffffffffffffffffffffffffffffffffffff1673ffffffffffffffffffffffffffffffffffffffff166329e5d83184426040518363ffffffff1660e01b815260040161196a929190615274565b60206040518083038186803b15801561198257600080fd5b505afa158015611996573d6000803e3d6000fd5b505050506040513d601f19601f820116820180604052508101906119ba91906148d1565b905060006119c86012612de6565b826119d3919061563b565b905060006119eb826012612dfb90919063ffffffff16565b9050806010600087815260200190815260200160002081905550611a19816012612e1590919063ffffffff16565b50611a248682612e2f565b50505050919050565b601e8054611a3a9061558f565b80601f0160208091040260200160405190810160405280929190818152602001828054611a669061558f565b8015611ab35780601f10611a8857610100808354040283529160200191611ab3565b820191906000526020600020905b815481529060010190602001808311611a9657829003601f168201915b505050505081565b601a8054611ac89061558f565b80601f0160208091040260200160405190810160405280929190818152602001828054611af49061558f565b8015611b415780601f10611b1657610100808354040283529160200191611b41565b820191906000526020600020905b815481529060010190602001808311611b2457829003601f168201915b505050505081565b6000601560009054906101000a900473ffffffffffffffffffffffffffffffffffffffff16905090565b60008073ffffffffffffffffffffffffffffffffffffffff168273ffffffffffffffffffffffffffffffffffffffff161415611be4576040517f08c379a0000000000000000000000000000000000000000000000000000000008152600401611bdb90615119565b60405180910390fd5b600560008373ffffffffffffffffffffffffffffffffffffffff1673ffffffffffffffffffffffffffffffffffffffff168152602001908152602001600020549050919050565b6000801b611c4081611c3b6124a4565b6128b4565b8282601160008781526020019081526020016000209190611c629291906143ca565b5050505050565b601c8054611c769061558f565b80601f0160208091040260200160405190810160405280929190818152602001828054611ca29061558f565b8015611cef5780601f10611cc457610100808354040283529160200191611cef565b820191906000526020600020905b815481529060010190602001808311611cd257829003601f168201915b505050505081565b6000801b611d0c81611d076124a4565b6128b4565b816bffffffffffffffffffffffff166017819055505050565b6000601460019054906101000a900473ffffffffffffffffffffffffffffffffffffffff16905090565b6000801b611d6481611d5f6124a4565b6128b4565b8282601c9190611d759291906143ca565b50505050565b6000600c600084815260200190815260200160002060000160008373ffffffffffffffffffffffffffffffffffffffff1673ffffffffffffffffffffffffffffffffffffffff16815260200190815260200160002060009054906101000a900460ff16905092915050565b6000801b611dfb81611df66124a4565b6128b4565b828260199190611e0c9291906143ca565b50505050565b606060038054611e219061558f565b80601f0160208091040260200160405190810160405280929190818152602001828054611e4d9061558f565b8015611e9a5780601f10611e6f57610100808354040283529160200191611e9a565b820191906000526020600020905b815481529060010190602001808311611e7d57829003601f168201915b5050505050905090565b601460009054906101000a900460ff1615611ef4576040517f08c379a0000000000000000000000000000000000000000000000000000000008152600401611eeb90615199565b60405180910390fd5b60008290505b81811015611f2a57611f16816012612e4d90919063ffffffff16565b508080611f22906155f2565b915050611efa565b505050565b601860009054906101000a90046bffffffffffffffffffffffff1681565b6000801b81565b611f66611f5f6124a4565b8383612e67565b5050565b611f7b611f756124a4565b83612565565b611fba576040517f08c379a0000000000000000000000000000000000000000000000000000000008152600401611fb1906151d9565b60405180910390fd5b611fc684848484612fd4565b50505050565b601d8054611fd99061558f565b80601f01602080910402602001604051908101604052809291908181526020018280546120059061558f565b80156120525780601f1061202757610100808354040283529160200191612052565b820191906000526020600020905b81548152906001019060200180831161203557829003601f168201915b505050505081565b601980546120679061558f565b80601f01602080910402602001604051908101604052809291908181526020018280546120939061558f565b80156120e05780601f106120b5576101008083540402835291602001916120e0565b820191906000526020600020905b8154815290600101906020018083116120c357829003601f168201915b505050505081565b6060601a6121086010600085815260200190815260200160002054613030565b604051602001612119929190614e58565b6040516020818303038152906040529050919050565b601460009054906101000a900460ff1681565b7f9f2df0fed2c77648de5860a4cc508cd0818c85b8b8a1ab4ceeef8d981c8956a681565b61216f826111a5565b6121808161217b6124a4565b6128b4565b61218a8383612a32565b505050565b601460019054906101000a900473ffffffffffffffffffffffffffffffffffffffff1681565b6060601980546121c49061558f565b80601f01602080910402602001604051908101604052809291908181526020018280546121f09061558f565b801561223d5780601f106122125761010080835404028352916020019161223d565b820191906000526020600020905b81548152906001019060200180831161222057829003601f168201915b5050505050905090565b6000600760008473ffffffffffffffffffffffffffffffffffffffff1673ffffffffffffffffffffffffffffffffffffffff16815260200190815260200160002060008373ffffffffffffffffffffffffffffffffffffffff1673ffffffffffffffffffffffffffffffffffffffff16815260200190815260200160002060009054906101000a900460ff16905092915050565b60175481565b6000801b6122f6816122f16124a4565b6128b4565b601460009054906101000a900460ff1615612346576040517f08c379a000000000000000000000000000000000000000000000000000000000815260040161233d90615199565b60405180910390fd5b6001601460006101000a81548160ff02191690831515021790555050565b6000801b612379816123746124a4565b6128b4565b8282601d919061238a9291906143ca565b50505050565b6000801b6123a5816123a06124a4565b6128b4565b816bffffffffffffffffffffffff166016819055505050565b60007f7965db0b000000000000000000000000000000000000000000000000000000007bffffffffffffffffffffffffffffffffffffffffffffffffffffffff1916827bffffffffffffffffffffffffffffffffffffffffffffffffffffffff191614806124315750612430826131dd565b5b9050919050565b60008073ffffffffffffffffffffffffffffffffffffffff166004600084815260200190815260200160002060009054906101000a900473ffffffffffffffffffffffffffffffffffffffff1673ffffffffffffffffffffffffffffffffffffffff1614159050919050565b600033905090565b816006600083815260200190815260200160002060006101000a81548173ffffffffffffffffffffffffffffffffffffffff021916908373ffffffffffffffffffffffffffffffffffffffff160217905550808273ffffffffffffffffffffffffffffffffffffffff1661251f8361178a565b73ffffffffffffffffffffffffffffffffffffffff167f8c5be1e5ebec7d5bd14f71427d1e84f3dd0314c0f7b2291e5b200ac8c7c3b92560405160405180910390a45050565b600061257082612438565b6125af576040517f08c379a00000000000000000000000000000000000000000000000000000000081526004016125a6906150b9565b60405180910390fd5b60006125ba8361178a565b90508073ffffffffffffffffffffffffffffffffffffffff168473ffffffffffffffffffffffffffffffffffffffff16148061262957508373ffffffffffffffffffffffffffffffffffffffff1661261184610ee3565b73ffffffffffffffffffffffffffffffffffffffff16145b8061263a57506126398185612247565b5b91505092915050565b8273ffffffffffffffffffffffffffffffffffffffff166126638261178a565b73ffffffffffffffffffffffffffffffffffffffff16146126b9576040517f08c379a00000000000000000000000000000000000000000000000000000000081526004016126b090615039565b60405180910390fd5b600073ffffffffffffffffffffffffffffffffffffffff168273ffffffffffffffffffffffffffffffffffffffff161415612729576040517f08c379a000000000000000000000000000000000000000000000000000000000815260040161272090615079565b60405180910390fd5b6127348383836131ef565b61273f6000826124ac565b6001600560008573ffffffffffffffffffffffffffffffffffffffff1673ffffffffffffffffffffffffffffffffffffffff168152602001908152602001600020600082825461278f9190615447565b925050819055506001600560008473ffffffffffffffffffffffffffffffffffffffff1673ffffffffffffffffffffffffffffffffffffffff16815260200190815260200160002060008282546127e69190615366565b92505081905550816004600083815260200190815260200160002060006101000a81548173ffffffffffffffffffffffffffffffffffffffff021916908373ffffffffffffffffffffffffffffffffffffffff160217905550808273ffffffffffffffffffffffffffffffffffffffff168473ffffffffffffffffffffffffffffffffffffffff167fddf252ad1be2c89b69c2b068fc378daa952ba7f163c4a11628f55a4df523b3ef60405160405180910390a46128a58383836131ff565b505050565b6000612710905090565b6128be8282611d7b565b61294d576128e38173ffffffffffffffffffffffffffffffffffffffff166014613204565b6128f18360001c6020613204565b604051602001612902929190614e7c565b6040516020818303038152906040526040517f08c379a00000000000000000000000000000000000000000000000000000000081526004016129449190614f97565b60405180910390fd5b5050565b61295b8282611d7b565b612a2e576001600c600084815260200190815260200160002060000160008373ffffffffffffffffffffffffffffffffffffffff1673ffffffffffffffffffffffffffffffffffffffff16815260200190815260200160002060006101000a81548160ff0219169083151502179055506129d36124a4565b73ffffffffffffffffffffffffffffffffffffffff168173ffffffffffffffffffffffffffffffffffffffff16837f2f8788117e7eff1d82e926ec794901d17c78024a50270940304540a733656f0d60405160405180910390a45b5050565b612a3c8282611d7b565b15612b10576000600c600084815260200190815260200160002060000160008373ffffffffffffffffffffffffffffffffffffffff1673ffffffffffffffffffffffffffffffffffffffff16815260200190815260200160002060006101000a81548160ff021916908315150217905550612ab56124a4565b73ffffffffffffffffffffffffffffffffffffffff168173ffffffffffffffffffffffffffffffffffffffff16837ff6391f5c32d9c69d2a47ea670b442974b53935d1edc7fd64eb21e047a839171b60405160405180910390a45b5050565b6000811115612dd7576000612710600e60009054906101000a900473ffffffffffffffffffffffffffffffffffffffff1673ffffffffffffffffffffffffffffffffffffffff1663d672131b6040518163ffffffff1660e01b8152600401602060405180830381600087803b158015612b8c57600080fd5b505af1158015612ba0573d6000803e3d6000fd5b505050506040513d601f19601f82011682018060405250810190612bc491906148d1565b83612bcf91906153ed565b612bd991906153bc565b9050600e60009054906101000a900473ffffffffffffffffffffffffffffffffffffffff1673ffffffffffffffffffffffffffffffffffffffff16637dafc0d36040518163ffffffff1660e01b8152600401602060405180830381600087803b158015612c4557600080fd5b505af1158015612c59573d6000803e3d6000fd5b505050506040513d601f19601f82011682018060405250810190612c7d9190614605565b73ffffffffffffffffffffffffffffffffffffffff166108fc829081150290604051600060405180830381858888f19350505050158015612cc2573d6000803e3d6000fd5b50600061271060175484612cd691906153ed565b612ce091906153bc565b90506000811115612d5557601560009054906101000a900473ffffffffffffffffffffffffffffffffffffffff1673ffffffffffffffffffffffffffffffffffffffff166108fc829081150290604051600060405180830381858888f19350505050158015612d53573d6000803e3d6000fd5b505b601460019054906101000a900473ffffffffffffffffffffffffffffffffffffffff1673ffffffffffffffffffffffffffffffffffffffff166108fc828486612d9e9190615447565b612da89190615447565b9081150290604051600060405180830381858888f19350505050158015612dd3573d6000803e3d6000fd5b5050505b50565b612de3816134fe565b50565b6000612df482600001613513565b9050919050565b6000612e0a8360000183613524565b60001c905092915050565b6000612e27836000018360001b613575565b905092915050565b612e498282604051806020016040528060008152506136fb565b5050565b6000612e5f836000018360001b613756565b905092915050565b8173ffffffffffffffffffffffffffffffffffffffff168373ffffffffffffffffffffffffffffffffffffffff161415612ed6576040517f08c379a0000000000000000000000000000000000000000000000000000000008152600401612ecd90615099565b60405180910390fd5b80600760008573ffffffffffffffffffffffffffffffffffffffff1673ffffffffffffffffffffffffffffffffffffffff16815260200190815260200160002060008473ffffffffffffffffffffffffffffffffffffffff1673ffffffffffffffffffffffffffffffffffffffff16815260200190815260200160002060006101000a81548160ff0219169083151502179055508173ffffffffffffffffffffffffffffffffffffffff168373ffffffffffffffffffffffffffffffffffffffff167f17307eab39ab6107e8899845ad3d59bd9653f200f220920489ca2b5937696c3183604051612fc79190614f61565b60405180910390a3505050565b612fdf848484612643565b612feb848484846137c6565b61302a576040517f08c379a000000000000000000000000000000000000000000000000000000000815260040161302190614ff9565b60405180910390fd5b50505050565b60606000821415613078576040518060400160405280600181526020017f300000000000000000000000000000000000000000000000000000000000000081525090506131d8565b600082905060005b600082146130aa578080613093906155f2565b915050600a826130a391906153bc565b9150613080565b60008167ffffffffffffffff8111156130ec577f4e487b7100000000000000000000000000000000000000000000000000000000600052604160045260246000fd5b6040519080825280601f01601f19166020018201604052801561311e5781602001600182028036833780820191505090505b5090505b600085146131d1576001826131379190615447565b9150600a85613146919061563b565b60306131529190615366565b60f81b81838151811061318e577f4e487b7100000000000000000000000000000000000000000000000000000000600052603260045260246000fd5b60200101907effffffffffffffffffffffffffffffffffffffffffffffffffffffffffffff1916908160001a905350600a856131ca91906153bc565b9450613122565b8093505050505b919050565b60006131e88261395d565b9050919050565b6131fa8383836139d7565b505050565b505050565b60606000600283600261321791906153ed565b6132219190615366565b67ffffffffffffffff811115613260577f4e487b7100000000000000000000000000000000000000000000000000000000600052604160045260246000fd5b6040519080825280601f01601f1916602001820160405280156132925781602001600182028036833780820191505090505b5090507f3000000000000000000000000000000000000000000000000000000000000000816000815181106132f0577f4e487b7100000000000000000000000000000000000000000000000000000000600052603260045260246000fd5b60200101907effffffffffffffffffffffffffffffffffffffffffffffffffffffffffffff1916908160001a9053507f78000000000000000000000000000000000000000000000000000000000000008160018151811061337a577f4e487b7100000000000000000000000000000000000000000000000000000000600052603260045260246000fd5b60200101907effffffffffffffffffffffffffffffffffffffffffffffffffffffffffffff1916908160001a905350600060018460026133ba91906153ed565b6133c49190615366565b90505b60018111156134b0577f3031323334353637383961626364656600000000000000000000000000000000600f86166010811061342c577f4e487b7100000000000000000000000000000000000000000000000000000000600052603260045260246000fd5b1a60f81b828281518110613469577f4e487b7100000000000000000000000000000000000000000000000000000000600052603260045260246000fd5b60200101907effffffffffffffffffffffffffffffffffffffffffffffffffffffffffffff1916908160001a905350600485901c9450806134a990615565565b90506133c7565b50600084146134f4576040517f08c379a00000000000000000000000000000000000000000000000000000000081526004016134eb90614fb9565b60405180910390fd5b8091505092915050565b61350781613aeb565b61351081613c08565b50565b600081600001805490509050919050565b6000826000018281548110613562577f4e487b7100000000000000000000000000000000000000000000000000000000600052603260045260246000fd5b9060005260206000200154905092915050565b600080836001016000848152602001908152602001600020549050600081146136ef5760006001826135a79190615447565b90506000600186600001805490506135bf9190615447565b905081811461367a576000866000018281548110613606577f4e487b7100000000000000000000000000000000000000000000000000000000600052603260045260246000fd5b9060005260206000200154905080876000018481548110613650577f4e487b7100000000000000000000000000000000000000000000000000000000600052603260045260246000fd5b90600052602060002001819055508387600101600083815260200190815260200160002081905550505b856000018054806136b4577f4e487b7100000000000000000000000000000000000000000000000000000000600052603160045260246000fd5b6001900381819060005260206000200160009055905585600101600086815260200190815260200160002060009055600193505050506136f5565b60009150505b92915050565b6137058383613c67565b61371260008484846137c6565b613751576040517f08c379a000000000000000000000000000000000000000000000000000000000815260040161374890614ff9565b60405180910390fd5b505050565b60006137628383613e41565b6137bb5782600001829080600181540180825580915050600190039060005260206000200160009091909190915055826000018054905083600101600084815260200190815260200160002081905550600190506137c0565b600090505b92915050565b60006137e78473ffffffffffffffffffffffffffffffffffffffff16613e64565b15613950578373ffffffffffffffffffffffffffffffffffffffff1663150b7a026138106124a4565b8786866040518563ffffffff1660e01b81526004016138329493929190614eec565b602060405180830381600087803b15801561384c57600080fd5b505af192505050801561387d57506040513d601f19601f8201168201806040525081019061387a919061483a565b60015b613900573d80600081146138ad576040519150601f19603f3d011682016040523d82523d6000602084013e6138b2565b606091505b506000815114156138f8576040517f08c379a00000000000000000000000000000000000000000000000000000000081526004016138ef90614ff9565b60405180910390fd5b805181602001fd5b63150b7a0260e01b7bffffffffffffffffffffffffffffffffffffffffffffffffffffffff1916817bffffffffffffffffffffffffffffffffffffffffffffffffffffffff191614915050613955565b600190505b949350505050565b60007f780e9d63000000000000000000000000000000000000000000000000000000007bffffffffffffffffffffffffffffffffffffffffffffffffffffffff1916827bffffffffffffffffffffffffffffffffffffffffffffffffffffffff191614806139d057506139cf82613e87565b5b9050919050565b6139e2838383613f69565b600073ffffffffffffffffffffffffffffffffffffffff168373ffffffffffffffffffffffffffffffffffffffff161415613a2557613a2081613f6e565b613a64565b8173ffffffffffffffffffffffffffffffffffffffff168373ffffffffffffffffffffffffffffffffffffffff1614613a6357613a628382613fb7565b5b5b600073ffffffffffffffffffffffffffffffffffffffff168273ffffffffffffffffffffffffffffffffffffffff161415613aa757613aa281614124565b613ae6565b8273ffffffffffffffffffffffffffffffffffffffff168273ffffffffffffffffffffffffffffffffffffffff1614613ae557613ae48282614267565b5b5b505050565b6000613af68261178a565b9050613b04816000846131ef565b613b0f6000836124ac565b6001600560008373ffffffffffffffffffffffffffffffffffffffff1673ffffffffffffffffffffffffffffffffffffffff1681526020019081526020016000206000828254613b5f9190615447565b925050819055506004600083815260200190815260200160002060006101000a81549073ffffffffffffffffffffffffffffffffffffffff021916905581600073ffffffffffffffffffffffffffffffffffffffff168273ffffffffffffffffffffffffffffffffffffffff167fddf252ad1be2c89b69c2b068fc378daa952ba7f163c4a11628f55a4df523b3ef60405160405180910390a4613c04816000846131ff565b5050565b60016000828152602001908152602001600020600080820160006101000a81549073ffffffffffffffffffffffffffffffffffffffff02191690556000820160146101000a8154906bffffffffffffffffffffffff0219169055505050565b600073ffffffffffffffffffffffffffffffffffffffff168273ffffffffffffffffffffffffffffffffffffffff161415613cd7576040517f08c379a0000000000000000000000000000000000000000000000000000000008152600401613cce90615159565b60405180910390fd5b613ce081612438565b15613d20576040517f08c379a0000000000000000000000000000000000000000000000000000000008152600401613d1790615059565b60405180910390fd5b613d2c600083836131ef565b6001600560008473ffffffffffffffffffffffffffffffffffffffff1673ffffffffffffffffffffffffffffffffffffffff1681526020019081526020016000206000828254613d7c9190615366565b92505081905550816004600083815260200190815260200160002060006101000a81548173ffffffffffffffffffffffffffffffffffffffff021916908373ffffffffffffffffffffffffffffffffffffffff160217905550808273ffffffffffffffffffffffffffffffffffffffff16600073ffffffffffffffffffffffffffffffffffffffff167fddf252ad1be2c89b69c2b068fc378daa952ba7f163c4a11628f55a4df523b3ef60405160405180910390a4613e3d600083836131ff565b5050565b600080836001016000848152602001908152602001600020541415905092915050565b6000808273ffffffffffffffffffffffffffffffffffffffff163b119050919050565b60007f80ac58cd000000000000000000000000000000000000000000000000000000007bffffffffffffffffffffffffffffffffffffffffffffffffffffffff1916827bffffffffffffffffffffffffffffffffffffffffffffffffffffffff19161480613f5257507f5b5e139f000000000000000000000000000000000000000000000000000000007bffffffffffffffffffffffffffffffffffffffffffffffffffffffff1916827bffffffffffffffffffffffffffffffffffffffffffffffffffffffff1916145b80613f625750613f61826142e6565b5b9050919050565b505050565b600a80549050600b600083815260200190815260200160002081905550600a81908060018154018082558091505060019003906000526020600020016000909190919091505550565b60006001613fc484611b73565b613fce9190615447565b90506000600960008481526020019081526020016000205490508181146140b3576000600860008673ffffffffffffffffffffffffffffffffffffffff1673ffffffffffffffffffffffffffffffffffffffff168152602001908152602001600020600084815260200190815260200160002054905080600860008773ffffffffffffffffffffffffffffffffffffffff1673ffffffffffffffffffffffffffffffffffffffff168152602001908152602001600020600084815260200190815260200160002081905550816009600083815260200190815260200160002081905550505b6009600084815260200190815260200160002060009055600860008573ffffffffffffffffffffffffffffffffffffffff1673ffffffffffffffffffffffffffffffffffffffff16815260200190815260200160002060008381526020019081526020016000206000905550505050565b60006001600a805490506141389190615447565b90506000600b60008481526020019081526020016000205490506000600a838154811061418e577f4e487b7100000000000000000000000000000000000000000000000000000000600052603260045260246000fd5b9060005260206000200154905080600a83815481106141d6577f4e487b7100000000000000000000000000000000000000000000000000000000600052603260045260246000fd5b906000526020600020018190555081600b600083815260200190815260200160002081905550600b600085815260200190815260200160002060009055600a80548061424b577f4e487b7100000000000000000000000000000000000000000000000000000000600052603160045260246000fd5b6001900381819060005260206000200160009055905550505050565b600061427283611b73565b905081600860008573ffffffffffffffffffffffffffffffffffffffff1673ffffffffffffffffffffffffffffffffffffffff168152602001908152602001600020600083815260200190815260200160002081905550806009600084815260200190815260200160002081905550505050565b60007f2a55205a000000000000000000000000000000000000000000000000000000007bffffffffffffffffffffffffffffffffffffffffffffffffffffffff1916827bffffffffffffffffffffffffffffffffffffffffffffffffffffffff19161480614359575061435882614360565b5b9050919050565b60007f01ffc9a7000000000000000000000000000000000000000000000000000000007bffffffffffffffffffffffffffffffffffffffffffffffffffffffff1916827bffffffffffffffffffffffffffffffffffffffffffffffffffffffff1916149050919050565b8280546143d69061558f565b90600052602060002090601f0160209004810192826143f8576000855561443f565b82601f1061441157803560ff191683800117855561443f565b8280016001018555821561443f579182015b8281111561443e578235825591602001919060010190614423565b5b50905061444c9190614450565b5090565b5b80821115614469576000816000905550600101614451565b5090565b600061448061447b846152dd565b6152b8565b90508281526020810184848401111561449857600080fd5b6144a3848285615523565b509392505050565b6000813590506144ba81615cfc565b92915050565b6000815190506144cf81615d13565b92915050565b6000813590506144e481615d2a565b92915050565b6000813590506144f981615d41565b92915050565b60008135905061450e81615d58565b92915050565b60008151905061452381615d58565b92915050565b600082601f83011261453a57600080fd5b813561454a84826020860161446d565b91505092915050565b60008083601f84011261456557600080fd5b8235905067ffffffffffffffff81111561457e57600080fd5b60208301915083600182028301111561459657600080fd5b9250929050565b6000813590506145ac81615d6f565b92915050565b6000815190506145c181615d6f565b92915050565b6000813590506145d681615d86565b92915050565b6000602082840312156145ee57600080fd5b60006145fc848285016144ab565b91505092915050565b60006020828403121561461757600080fd5b6000614625848285016144c0565b91505092915050565b6000806040838503121561464157600080fd5b600061464f858286016144ab565b9250506020614660858286016144ab565b9150509250929050565b60008060006060848603121561467f57600080fd5b600061468d868287016144ab565b935050602061469e868287016144ab565b92505060406146af8682870161459d565b9150509250925092565b600080600080608085870312156146cf57600080fd5b60006146dd878288016144ab565b94505060206146ee878288016144ab565b93505060406146ff8782880161459d565b925050606085013567ffffffffffffffff81111561471c57600080fd5b61472887828801614529565b91505092959194509250565b6000806040838503121561474757600080fd5b6000614755858286016144ab565b9250506020614766858286016144d5565b9150509250929050565b6000806040838503121561478357600080fd5b6000614791858286016144ab565b92505060206147a28582860161459d565b9150509250929050565b6000602082840312156147be57600080fd5b60006147cc848285016144ea565b91505092915050565b600080604083850312156147e857600080fd5b60006147f6858286016144ea565b9250506020614807858286016144ab565b9150509250929050565b60006020828403121561482357600080fd5b6000614831848285016144ff565b91505092915050565b60006020828403121561484c57600080fd5b600061485a84828501614514565b91505092915050565b6000806020838503121561487657600080fd5b600083013567ffffffffffffffff81111561489057600080fd5b61489c85828601614553565b92509250509250929050565b6000602082840312156148ba57600080fd5b60006148c88482850161459d565b91505092915050565b6000602082840312156148e357600080fd5b60006148f1848285016145b2565b91505092915050565b60008060006040848603121561490f57600080fd5b600061491d8682870161459d565b935050602084013567ffffffffffffffff81111561493a57600080fd5b61494686828701614553565b92509250509250925092565b6000806040838503121561496557600080fd5b60006149738582860161459d565b92505060206149848582860161459d565b9150509250929050565b6000602082840312156149a057600080fd5b60006149ae848285016145c7565b91505092915050565b6149c08161548d565b82525050565b6149cf8161547b565b82525050565b6149de8161549f565b82525050565b6149ed816154ab565b82525050565b60006149fe82615323565b614a088185615339565b9350614a18818560208601615532565b614a2181615728565b840191505092915050565b6000614a378261532e565b614a41818561534a565b9350614a51818560208601615532565b614a5a81615728565b840191505092915050565b6000614a708261532e565b614a7a818561535b565b9350614a8a818560208601615532565b80840191505092915050565b60008154614aa38161558f565b614aad818661535b565b94506001821660008114614ac85760018114614ad957614b0c565b60ff19831686528186019350614b0c565b614ae28561530e565b60005b83811015614b0457815481890152600182019150602081019050614ae5565b838801955050505b50505092915050565b6000614b2260208361534a565b9150614b2d82615739565b602082019050919050565b6000614b45602b8361534a565b9150614b5082615762565b604082019050919050565b6000614b6860328361534a565b9150614b73826157b1565b604082019050919050565b6000614b8b60118361534a565b9150614b9682615800565b602082019050919050565b6000614bae60258361534a565b9150614bb982615829565b604082019050919050565b6000614bd1601c8361534a565b9150614bdc82615878565b602082019050919050565b6000614bf460248361534a565b9150614bff826158a1565b604082019050919050565b6000614c1760198361534a565b9150614c22826158f0565b602082019050919050565b6000614c3a602c8361534a565b9150614c4582615919565b604082019050919050565b6000614c5d60138361534a565b9150614c6882615968565b602082019050919050565b6000614c8060388361534a565b9150614c8b82615991565b604082019050919050565b6000614ca3602a8361534a565b9150614cae826159e0565b604082019050919050565b6000614cc660298361534a565b9150614cd182615a2f565b604082019050919050565b6000614ce960208361534a565b9150614cf482615a7e565b602082019050919050565b6000614d0c602c8361534a565b9150614d1782615aa7565b604082019050919050565b6000614d2f60178361534a565b9150614d3a82615af6565b602082019050919050565b6000614d5260218361534a565b9150614d5d82615b1f565b604082019050919050565b6000614d7560318361534a565b9150614d8082615b6e565b604082019050919050565b6000614d98602c8361534a565b9150614da382615bbd565b604082019050919050565b6000614dbb60178361535b565b9150614dc682615c0c565b601782019050919050565b6000614dde60308361534a565b9150614de982615c35565b604082019050919050565b6000614e0160118361535b565b9150614e0c82615c84565b601182019050919050565b6000614e24602f8361534a565b9150614e2f82615cad565b604082019050919050565b614e4381615501565b82525050565b614e528161550b565b82525050565b6000614e648285614a96565b9150614e708284614a65565b91508190509392505050565b6000614e8782614dae565b9150614e938285614a65565b9150614e9e82614df4565b9150614eaa8284614a65565b91508190509392505050565b6000602082019050614ecb60008301846149c6565b92915050565b6000602082019050614ee660008301846149b7565b92915050565b6000608082019050614f0160008301876149c6565b614f0e60208301866149c6565b614f1b6040830185614e3a565b8181036060830152614f2d81846149f3565b905095945050505050565b6000604082019050614f4d60008301856149c6565b614f5a6020830184614e3a565b9392505050565b6000602082019050614f7660008301846149d5565b92915050565b6000602082019050614f9160008301846149e4565b92915050565b60006020820190508181036000830152614fb18184614a2c565b905092915050565b60006020820190508181036000830152614fd281614b15565b9050919050565b60006020820190508181036000830152614ff281614b38565b9050919050565b6000602082019050818103600083015261501281614b5b565b9050919050565b6000602082019050818103600083015261503281614b7e565b9050919050565b6000602082019050818103600083015261505281614ba1565b9050919050565b6000602082019050818103600083015261507281614bc4565b9050919050565b6000602082019050818103600083015261509281614be7565b9050919050565b600060208201905081810360008301526150b281614c0a565b9050919050565b600060208201905081810360008301526150d281614c2d565b9050919050565b600060208201905081810360008301526150f281614c50565b9050919050565b6000602082019050818103600083015261511281614c73565b9050919050565b6000602082019050818103600083015261513281614c96565b9050919050565b6000602082019050818103600083015261515281614cb9565b9050919050565b6000602082019050818103600083015261517281614cdc565b9050919050565b6000602082019050818103600083015261519281614cff565b9050919050565b600060208201905081810360008301526151b281614d22565b9050919050565b600060208201905081810360008301526151d281614d45565b9050919050565b600060208201905081810360008301526151f281614d68565b9050919050565b6000602082019050818103600083015261521281614d8b565b9050919050565b6000602082019050818103600083015261523281614dd1565b9050919050565b6000602082019050818103600083015261525281614e17565b9050919050565b600060208201905061526e6000830184614e3a565b92915050565b60006040820190506152896000830185614e3a565b6152966020830184614e3a565b9392505050565b60006020820190506152b26000830184614e49565b92915050565b60006152c26152d3565b90506152ce82826155c1565b919050565b6000604051905090565b600067ffffffffffffffff8211156152f8576152f76156f9565b5b61530182615728565b9050602081019050919050565b60008190508160005260206000209050919050565b600081519050919050565b600081519050919050565b600082825260208201905092915050565b600082825260208201905092915050565b600081905092915050565b600061537182615501565b915061537c83615501565b9250827fffffffffffffffffffffffffffffffffffffffffffffffffffffffffffffffff038211156153b1576153b061566c565b5b828201905092915050565b60006153c782615501565b91506153d283615501565b9250826153e2576153e161569b565b5b828204905092915050565b60006153f882615501565b915061540383615501565b9250817fffffffffffffffffffffffffffffffffffffffffffffffffffffffffffffffff048311821515161561543c5761543b61566c565b5b828202905092915050565b600061545282615501565b915061545d83615501565b9250828210156154705761546f61566c565b5b828203905092915050565b6000615486826154e1565b9050919050565b6000615498826154e1565b9050919050565b60008115159050919050565b6000819050919050565b60007fffffffff0000000000000000000000000000000000000000000000000000000082169050919050565b600073ffffffffffffffffffffffffffffffffffffffff82169050919050565b6000819050919050565b60006bffffffffffffffffffffffff82169050919050565b82818337600083830152505050565b60005b83811015615550578082015181840152602081019050615535565b8381111561555f576000848401525b50505050565b600061557082615501565b915060008214156155845761558361566c565b5b600182039050919050565b600060028204905060018216806155a757607f821691505b602082108114156155bb576155ba6156ca565b5b50919050565b6155ca82615728565b810181811067ffffffffffffffff821117156155e9576155e86156f9565b5b80604052505050565b60006155fd82615501565b91507fffffffffffffffffffffffffffffffffffffffffffffffffffffffffffffffff8214156156305761562f61566c565b5b600182019050919050565b600061564682615501565b915061565183615501565b9250826156615761566061569b565b5b828206905092915050565b7f4e487b7100000000000000000000000000000000000000000000000000000000600052601160045260246000fd5b7f4e487b7100000000000000000000000000000000000000000000000000000000600052601260045260246000fd5b7f4e487b7100000000000000000000000000000000000000000000000000000000600052602260045260246000fd5b7f4e487b7100000000000000000000000000000000000000000000000000000000600052604160045260246000fd5b6000601f19601f8301169050919050565b7f537472696e67733a20686578206c656e67746820696e73756666696369656e74600082015250565b7f455243373231456e756d657261626c653a206f776e657220696e646578206f7560008201527f74206f6620626f756e6473000000000000000000000000000000000000000000602082015250565b7f4552433732313a207472616e7366657220746f206e6f6e20455243373231526560008201527f63656976657220696d706c656d656e7465720000000000000000000000000000602082015250565b7f616c6c20746f6b656e73206d696e746564000000000000000000000000000000600082015250565b7f4552433732313a207472616e736665722066726f6d20696e636f72726563742060008201527f6f776e6572000000000000000000000000000000000000000000000000000000602082015250565b7f4552433732313a20746f6b656e20616c7265616479206d696e74656400000000600082015250565b7f4552433732313a207472616e7366657220746f20746865207a65726f2061646460008201527f7265737300000000000000000000000000000000000000000000000000000000602082015250565b7f4552433732313a20617070726f766520746f2063616c6c657200000000000000600082015250565b7f4552433732313a206f70657261746f7220717565727920666f72206e6f6e657860008201527f697374656e7420746f6b656e0000000000000000000000000000000000000000602082015250565b7f73657474696e6773206e6f74206c6f636b656400000000000000000000000000600082015250565b7f4552433732313a20617070726f76652063616c6c6572206973206e6f74206f7760008201527f6e6572206e6f7220617070726f76656420666f7220616c6c0000000000000000602082015250565b7f4552433732313a2062616c616e636520717565727920666f7220746865207a6560008201527f726f206164647265737300000000000000000000000000000000000000000000602082015250565b7f4552433732313a206f776e657220717565727920666f72206e6f6e657869737460008201527f656e7420746f6b656e0000000000000000000000000000000000000000000000602082015250565b7f4552433732313a206d696e7420746f20746865207a65726f2061646472657373600082015250565b7f4552433732313a20617070726f76656420717565727920666f72206e6f6e657860008201527f697374656e7420746f6b656e0000000000000000000000000000000000000000602082015250565b7f73657474696e677320616c7265616479206c6f636b6564000000000000000000600082015250565b7f4552433732313a20617070726f76616c20746f2063757272656e74206f776e6560008201527f7200000000000000000000000000000000000000000000000000000000000000602082015250565b7f4552433732313a207472616e736665722063616c6c6572206973206e6f74206f60008201527f776e6572206e6f7220617070726f766564000000000000000000000000000000602082015250565b7f455243373231456e756d657261626c653a20676c6f62616c20696e646578206f60008201527f7574206f6620626f756e64730000000000000000000000000000000000000000602082015250565b7f416363657373436f6e74726f6c3a206163636f756e7420000000000000000000600082015250565b7f4552433732314275726e61626c653a2063616c6c6572206973206e6f74206f7760008201527f6e6572206e6f7220617070726f76656400000000000000000000000000000000602082015250565b7f206973206d697373696e6720726f6c6520000000000000000000000000000000600082015250565b7f416363657373436f6e74726f6c3a2063616e206f6e6c792072656e6f756e636560008201527f20726f6c657320666f722073656c660000000000000000000000000000000000602082015250565b615d058161547b565b8114615d1057600080fd5b50565b615d1c8161548d565b8114615d2757600080fd5b50565b615d338161549f565b8114615d3e57600080fd5b50565b615d4a816154ab565b8114615d5557600080fd5b50565b615d61816154b5565b8114615d6c57600080fd5b50565b615d7881615501565b8114615d8357600080fd5b50565b615d8f8161550b565b8114615d9a57600080fd5b5056fea2646970667358221220a76d38ebea2de1272cb69487d3b25b9bbf3eda2857e89f8c3d5c1c0731fd754364736f6c63430008020033",
  "linkReferences": {},
  "deployedLinkReferences": {}
}