{
  "_format": "hh-sol-artifact-1",
  "contractName": "FineNFT",
  "sourceName": "contracts/FineNFT.sol",
  "abi": [
    {
      "inputs": [
        {
          "internalType": "address",
          "name": "coreAddress",
          "type": "address"
        },
        {
          "internalType": "address",
          "name": "shopAddress",
          "type": "address"
        }
      ],
      "stateMutability": "nonpayable",
      "type": "constructor"
    },
    {
      "anonymous": false,
      "inputs": [
        {
          "indexed": true,
          "internalType": "address",
          "name": "owner",
          "type": "address"
        },
        {
          "indexed": true,
          "internalType": "address",
          "name": "approved",
          "type": "address"
        },
        {
          "indexed": true,
          "internalType": "uint256",
          "name": "tokenId",
          "type": "uint256"
        }
      ],
      "name": "Approval",
      "type": "event"
    },
    {
      "anonymous": false,
      "inputs": [
        {
          "indexed": true,
          "internalType": "address",
          "name": "owner",
          "type": "address"
        },
        {
          "indexed": true,
          "internalType": "address",
          "name": "operator",
          "type": "address"
        },
        {
          "indexed": false,
          "internalType": "bool",
          "name": "approved",
          "type": "bool"
        }
      ],
      "name": "ApprovalForAll",
      "type": "event"
    },
    {
      "anonymous": false,
      "inputs": [
        {
          "indexed": true,
          "internalType": "bytes32",
          "name": "role",
          "type": "bytes32"
        },
        {
          "indexed": true,
          "internalType": "bytes32",
          "name": "previousAdminRole",
          "type": "bytes32"
        },
        {
          "indexed": true,
          "internalType": "bytes32",
          "name": "newAdminRole",
          "type": "bytes32"
        }
      ],
      "name": "RoleAdminChanged",
      "type": "event"
    },
    {
      "anonymous": false,
      "inputs": [
        {
          "indexed": true,
          "internalType": "bytes32",
          "name": "role",
          "type": "bytes32"
        },
        {
          "indexed": true,
          "internalType": "address",
          "name": "account",
          "type": "address"
        },
        {
          "indexed": true,
          "internalType": "address",
          "name": "sender",
          "type": "address"
        }
      ],
      "name": "RoleGranted",
      "type": "event"
    },
    {
      "anonymous": false,
      "inputs": [
        {
          "indexed": true,
          "internalType": "bytes32",
          "name": "role",
          "type": "bytes32"
        },
        {
          "indexed": true,
          "internalType": "address",
          "name": "account",
          "type": "address"
        },
        {
          "indexed": true,
          "internalType": "address",
          "name": "sender",
          "type": "address"
        }
      ],
      "name": "RoleRevoked",
      "type": "event"
    },
    {
      "anonymous": false,
      "inputs": [
        {
          "indexed": true,
          "internalType": "address",
          "name": "from",
          "type": "address"
        },
        {
          "indexed": true,
          "internalType": "address",
          "name": "to",
          "type": "address"
        },
        {
          "indexed": true,
          "internalType": "uint256",
          "name": "tokenId",
          "type": "uint256"
        }
      ],
      "name": "Transfer",
      "type": "event"
    },
    {
      "inputs": [],
      "name": "DEFAULT_ADMIN_ROLE",
      "outputs": [
        {
          "internalType": "bytes32",
          "name": "",
          "type": "bytes32"
        }
      ],
      "stateMutability": "view",
      "type": "function"
    },
    {
      "inputs": [],
      "name": "MINTER_ROLE",
      "outputs": [
        {
          "internalType": "bytes32",
          "name": "",
          "type": "bytes32"
        }
      ],
      "stateMutability": "view",
      "type": "function"
    },
    {
      "inputs": [],
      "name": "TOKEN_LIMIT",
      "outputs": [
        {
          "internalType": "uint256",
          "name": "",
          "type": "uint256"
        }
      ],
      "stateMutability": "view",
      "type": "function"
    },
    {
      "inputs": [],
      "name": "additionalPayee",
      "outputs": [
        {
          "internalType": "address payable",
          "name": "",
          "type": "address"
        }
      ],
      "stateMutability": "view",
      "type": "function"
    },
    {
      "inputs": [],
      "name": "additionalPayeePercentage",
      "outputs": [
        {
          "internalType": "uint256",
          "name": "",
          "type": "uint256"
        }
      ],
      "stateMutability": "view",
      "type": "function"
    },
    {
      "inputs": [
        {
          "internalType": "address",
          "name": "to",
          "type": "address"
        },
        {
          "internalType": "uint256",
          "name": "tokenId",
          "type": "uint256"
        }
      ],
      "name": "approve",
      "outputs": [],
      "stateMutability": "nonpayable",
      "type": "function"
    },
    {
      "inputs": [],
      "name": "artist",
      "outputs": [
        {
          "internalType": "string",
          "name": "",
          "type": "string"
        }
      ],
      "stateMutability": "view",
      "type": "function"
    },
    {
      "inputs": [],
      "name": "artistAddress",
      "outputs": [
        {
          "internalType": "address payable",
          "name": "",
          "type": "address"
        }
      ],
      "stateMutability": "view",
      "type": "function"
    },
    {
      "inputs": [
        {
          "internalType": "uint256",
          "name": "",
          "type": "uint256"
        }
      ],
      "name": "artworkId",
      "outputs": [
        {
          "internalType": "uint256",
          "name": "",
          "type": "uint256"
        }
      ],
      "stateMutability": "view",
      "type": "function"
    },
    {
      "inputs": [
        {
          "internalType": "address",
          "name": "owner",
          "type": "address"
        }
      ],
      "name": "balanceOf",
      "outputs": [
        {
          "internalType": "uint256",
          "name": "",
          "type": "uint256"
        }
      ],
      "stateMutability": "view",
      "type": "function"
    },
    {
      "inputs": [
        {
          "internalType": "uint256",
          "name": "tokenId",
          "type": "uint256"
        }
      ],
      "name": "burn",
      "outputs": [],
      "stateMutability": "nonpayable",
      "type": "function"
    },
    {
      "inputs": [],
      "name": "description",
      "outputs": [
        {
          "internalType": "string",
          "name": "",
          "type": "string"
        }
      ],
      "stateMutability": "view",
      "type": "function"
    },
    {
      "inputs": [],
      "name": "getAdditionalPayee",
      "outputs": [
        {
          "internalType": "address payable",
          "name": "",
          "type": "address"
        }
      ],
      "stateMutability": "view",
      "type": "function"
    },
    {
      "inputs": [],
      "name": "getAdditionalPayeePercentage",
      "outputs": [
        {
          "internalType": "uint256",
          "name": "",
          "type": "uint256"
        }
      ],
      "stateMutability": "view",
      "type": "function"
    },
    {
      "inputs": [
        {
          "internalType": "uint256",
          "name": "tokenId",
          "type": "uint256"
        }
      ],
      "name": "getApproved",
      "outputs": [
        {
          "internalType": "address",
          "name": "",
          "type": "address"
        }
      ],
      "stateMutability": "view",
      "type": "function"
    },
    {
      "inputs": [],
      "name": "getArtistAddress",
      "outputs": [
        {
          "internalType": "address payable",
          "name": "",
          "type": "address"
        }
      ],
      "stateMutability": "view",
      "type": "function"
    },
    {
      "inputs": [
        {
          "internalType": "bytes32",
          "name": "role",
          "type": "bytes32"
        }
      ],
      "name": "getRoleAdmin",
      "outputs": [
        {
          "internalType": "bytes32",
          "name": "",
          "type": "bytes32"
        }
      ],
      "stateMutability": "view",
      "type": "function"
    },
    {
      "inputs": [],
      "name": "getTokenLimit",
      "outputs": [
        {
          "internalType": "uint256",
          "name": "",
          "type": "uint256"
        }
      ],
      "stateMutability": "view",
      "type": "function"
    },
    {
      "inputs": [
        {
          "internalType": "bytes32",
          "name": "role",
          "type": "bytes32"
        },
        {
          "internalType": "address",
          "name": "account",
          "type": "address"
        }
      ],
      "name": "grantRole",
      "outputs": [],
      "stateMutability": "nonpayable",
      "type": "function"
    },
    {
      "inputs": [
        {
          "internalType": "bytes32",
          "name": "role",
          "type": "bytes32"
        },
        {
          "internalType": "address",
          "name": "account",
          "type": "address"
        }
      ],
      "name": "hasRole",
      "outputs": [
        {
          "internalType": "bool",
          "name": "",
          "type": "bool"
        }
      ],
      "stateMutability": "view",
      "type": "function"
    },
    {
      "inputs": [
        {
          "internalType": "address",
          "name": "owner",
          "type": "address"
        },
        {
          "internalType": "address",
          "name": "operator",
          "type": "address"
        }
      ],
      "name": "isApprovedForAll",
      "outputs": [
        {
          "internalType": "bool",
          "name": "",
          "type": "bool"
        }
      ],
      "stateMutability": "view",
      "type": "function"
    },
    {
      "inputs": [],
      "name": "license",
      "outputs": [
        {
          "internalType": "string",
          "name": "",
          "type": "string"
        }
      ],
      "stateMutability": "view",
      "type": "function"
    },
    {
      "inputs": [
        {
          "internalType": "address",
          "name": "to",
          "type": "address"
        }
      ],
      "name": "mint",
      "outputs": [
        {
          "internalType": "uint256",
          "name": "tokenId",
          "type": "uint256"
        }
      ],
      "stateMutability": "nonpayable",
      "type": "function"
    },
    {
      "inputs": [],
      "name": "name",
      "outputs": [
        {
          "internalType": "string",
          "name": "",
          "type": "string"
        }
      ],
      "stateMutability": "view",
      "type": "function"
    },
    {
      "inputs": [
        {
          "internalType": "uint256",
          "name": "tokenId",
          "type": "uint256"
        }
      ],
      "name": "ownerOf",
      "outputs": [
        {
          "internalType": "address",
          "name": "",
          "type": "address"
        }
      ],
      "stateMutability": "view",
      "type": "function"
    },
    {
      "inputs": [],
      "name": "projectId",
      "outputs": [
        {
          "internalType": "uint256",
          "name": "",
          "type": "uint256"
        }
      ],
      "stateMutability": "view",
      "type": "function"
    },
    {
      "inputs": [
        {
          "internalType": "bytes32",
          "name": "role",
          "type": "bytes32"
        },
        {
          "internalType": "address",
          "name": "account",
          "type": "address"
        }
      ],
      "name": "renounceRole",
      "outputs": [],
      "stateMutability": "nonpayable",
      "type": "function"
    },
    {
      "inputs": [
        {
          "internalType": "bytes32",
          "name": "role",
          "type": "bytes32"
        },
        {
          "internalType": "address",
          "name": "account",
          "type": "address"
        }
      ],
      "name": "revokeRole",
      "outputs": [],
      "stateMutability": "nonpayable",
      "type": "function"
    },
    {
      "inputs": [
        {
          "internalType": "uint256",
          "name": "_tokenId",
          "type": "uint256"
        },
        {
          "internalType": "uint256",
          "name": "_salePrice",
          "type": "uint256"
        }
      ],
      "name": "royaltyInfo",
      "outputs": [
        {
          "internalType": "address",
          "name": "",
          "type": "address"
        },
        {
          "internalType": "uint256",
          "name": "",
          "type": "uint256"
        }
      ],
      "stateMutability": "view",
      "type": "function"
    },
    {
      "inputs": [
        {
          "internalType": "address",
          "name": "from",
          "type": "address"
        },
        {
          "internalType": "address",
          "name": "to",
          "type": "address"
        },
        {
          "internalType": "uint256",
          "name": "tokenId",
          "type": "uint256"
        }
      ],
      "name": "safeTransferFrom",
      "outputs": [],
      "stateMutability": "nonpayable",
      "type": "function"
    },
    {
      "inputs": [
        {
          "internalType": "address",
          "name": "from",
          "type": "address"
        },
        {
          "internalType": "address",
          "name": "to",
          "type": "address"
        },
        {
          "internalType": "uint256",
          "name": "tokenId",
          "type": "uint256"
        },
        {
          "internalType": "bytes",
          "name": "_data",
          "type": "bytes"
        }
      ],
      "name": "safeTransferFrom",
      "outputs": [],
      "stateMutability": "nonpayable",
      "type": "function"
    },
    {
      "inputs": [
        {
          "internalType": "uint256",
          "name": "",
          "type": "uint256"
        }
      ],
      "name": "scripts",
      "outputs": [
        {
          "internalType": "string",
          "name": "",
          "type": "string"
        }
      ],
      "stateMutability": "view",
      "type": "function"
    },
    {
      "inputs": [
        {
          "internalType": "address",
          "name": "operator",
          "type": "address"
        },
        {
          "internalType": "bool",
          "name": "approved",
          "type": "bool"
        }
      ],
      "name": "setApprovalForAll",
      "outputs": [],
      "stateMutability": "nonpayable",
      "type": "function"
    },
    {
      "inputs": [
        {
          "internalType": "string",
          "name": "_uri",
          "type": "string"
        }
      ],
      "name": "setBaseURI",
      "outputs": [],
      "stateMutability": "nonpayable",
      "type": "function"
    },
    {
      "inputs": [
        {
          "internalType": "string",
          "name": "_desc",
          "type": "string"
        }
      ],
      "name": "setDescription",
      "outputs": [],
      "stateMutability": "nonpayable",
      "type": "function"
    },
    {
      "inputs": [
        {
          "internalType": "uint256",
          "name": "index",
          "type": "uint256"
        },
        {
          "internalType": "string",
          "name": "script",
          "type": "string"
        }
      ],
      "name": "setScript",
      "outputs": [],
      "stateMutability": "nonpayable",
      "type": "function"
    },
    {
      "inputs": [
        {
          "internalType": "string",
          "name": "_url",
          "type": "string"
        }
      ],
      "name": "setWebsite",
      "outputs": [],
      "stateMutability": "nonpayable",
      "type": "function"
    },
    {
      "inputs": [
        {
          "internalType": "bytes4",
          "name": "interfaceId",
          "type": "bytes4"
        }
      ],
      "name": "supportsInterface",
      "outputs": [
        {
          "internalType": "bool",
          "name": "",
          "type": "bool"
        }
      ],
      "stateMutability": "view",
      "type": "function"
    },
    {
      "inputs": [],
      "name": "symbol",
      "outputs": [
        {
          "internalType": "string",
          "name": "",
          "type": "string"
        }
      ],
      "stateMutability": "view",
      "type": "function"
    },
    {
      "inputs": [
        {
          "internalType": "uint256",
          "name": "index",
          "type": "uint256"
        }
      ],
      "name": "tokenByIndex",
      "outputs": [
        {
          "internalType": "uint256",
          "name": "",
          "type": "uint256"
        }
      ],
      "stateMutability": "view",
      "type": "function"
    },
    {
      "inputs": [
        {
          "internalType": "address",
          "name": "owner",
          "type": "address"
        },
        {
          "internalType": "uint256",
          "name": "index",
          "type": "uint256"
        }
      ],
      "name": "tokenOfOwnerByIndex",
      "outputs": [
        {
          "internalType": "uint256",
          "name": "",
          "type": "uint256"
        }
      ],
      "stateMutability": "view",
      "type": "function"
    },
    {
      "inputs": [
        {
          "internalType": "uint256",
          "name": "tokenId",
          "type": "uint256"
        }
      ],
      "name": "tokenURI",
      "outputs": [
        {
          "internalType": "string",
          "name": "",
          "type": "string"
        }
      ],
      "stateMutability": "view",
      "type": "function"
    },
    {
      "inputs": [],
      "name": "totalSupply",
      "outputs": [
        {
          "internalType": "uint256",
          "name": "",
          "type": "uint256"
        }
      ],
      "stateMutability": "view",
      "type": "function"
    },
    {
      "inputs": [
        {
          "internalType": "address",
          "name": "from",
          "type": "address"
        },
        {
          "internalType": "address",
          "name": "to",
          "type": "address"
        },
        {
          "internalType": "uint256",
          "name": "tokenId",
          "type": "uint256"
        }
      ],
      "name": "transferFrom",
      "outputs": [],
      "stateMutability": "nonpayable",
      "type": "function"
    },
    {
      "inputs": [],
      "name": "website",
      "outputs": [
        {
          "internalType": "string",
          "name": "",
          "type": "string"
        }
      ],
      "stateMutability": "view",
      "type": "function"
    },
    {
      "inputs": [],
      "name": "withdraw",
      "outputs": [],
      "stateMutability": "nonpayable",
      "type": "function"
    }
  ],
  "bytecode": "0x60806040526103e8600d55737a832c86002323a5de3a317b3281eb88ec3b2c00601460006101000a81548173ffffffffffffffffffffffffffffffffffffffff021916908373ffffffffffffffffffffffffffffffffffffffff1602179055506000601560006101000a81548173ffffffffffffffffffffffffffffffffffffffff021916908373ffffffffffffffffffffffffffffffffffffffff16021790555060006016556102ee601760006101000a8154816bffffffffffffffffffffffff02191690836bffffffffffffffffffffffff16021790555060405180606001604052806022815260200162005d5760229139601890805190602001906200010a92919062000816565b506040518060400160405280600481526020017f66696e6500000000000000000000000000000000000000000000000000000000815250601990805190602001906200015892919062000816565b506040518060400160405280601581526020017f612073616d706c65204e465420666f722046494e450000000000000000000000815250601a9080519060200190620001a692919062000816565b506040518060400160405280601881526020017f68747470733a2f2f6170692e66696e652e6469676974616c0000000000000000815250601b9080519060200190620001f492919062000816565b506040518060400160405280600381526020017f4d49540000000000000000000000000000000000000000000000000000000000815250601c90805190602001906200024292919062000816565b503480156200025057600080fd5b5060405162005d7938038062005d798339818101604052810190620002769190620008dd565b6040518060400160405280600c81526020017f46494e45204469676974616c00000000000000000000000000000000000000008152506040518060400160405280600481526020017f46494e45000000000000000000000000000000000000000000000000000000008152508160029080519060200190620002fa92919062000816565b5080600390805190602001906200031392919062000816565b5050506200032b6000801b336200044560201b60201c565b6200035d7f9f2df0fed2c77648de5860a4cc508cd0818c85b8b8a1ab4ceeef8d981c8956a6336200044560201b60201c565b6200038f7f9f2df0fed2c77648de5860a4cc508cd0818c85b8b8a1ab4ceeef8d981c8956a6826200044560201b60201c565b81600e60006101000a81548173ffffffffffffffffffffffffffffffffffffffff021916908373ffffffffffffffffffffffffffffffffffffffff160217905550620003fc30601760009054906101000a90046bffffffffffffffffffffffff166200053760201b60201c565b60005b600d548110156200043c5762000425816012620006da60201b62001bbf1790919060201c565b508080620004339062000a35565b915050620003ff565b50505062000b73565b620004578282620006fc60201b60201c565b62000533576001600c600084815260200190815260200160002060000160008373ffffffffffffffffffffffffffffffffffffffff1673ffffffffffffffffffffffffffffffffffffffff16815260200190815260200160002060006101000a81548160ff021916908315150217905550620004d86200076760201b60201c565b73ffffffffffffffffffffffffffffffffffffffff168173ffffffffffffffffffffffffffffffffffffffff16837f2f8788117e7eff1d82e926ec794901d17c78024a50270940304540a733656f0d60405160405180910390a45b5050565b620005476200076f60201b60201c565b6bffffffffffffffffffffffff16816bffffffffffffffffffffffff161115620005a8576040517f08c379a00000000000000000000000000000000000000000000000000000000081526004016200059f906200096c565b60405180910390fd5b600073ffffffffffffffffffffffffffffffffffffffff168273ffffffffffffffffffffffffffffffffffffffff1614156200061b576040517f08c379a000000000000000000000000000000000000000000000000000000000815260040162000612906200098e565b60405180910390fd5b60405180604001604052808373ffffffffffffffffffffffffffffffffffffffff168152602001826bffffffffffffffffffffffff168152506000808201518160000160006101000a81548173ffffffffffffffffffffffffffffffffffffffff021916908373ffffffffffffffffffffffffffffffffffffffff16021790555060208201518160000160146101000a8154816bffffffffffffffffffffffff02191690836bffffffffffffffffffffffff1602179055509050505050565b6000620006f4836000018360001b6200077960201b60201c565b905092915050565b6000600c600084815260200190815260200160002060000160008373ffffffffffffffffffffffffffffffffffffffff1673ffffffffffffffffffffffffffffffffffffffff16815260200190815260200160002060009054906101000a900460ff16905092915050565b600033905090565b6000612710905090565b60006200078d8383620007f360201b60201c565b620007e8578260000182908060018154018082558091505060019003906000526020600020016000909190919091505582600001805490508360010160008481526020019081526020016000208190555060019050620007ed565b600090505b92915050565b600080836001016000848152602001908152602001600020541415905092915050565b8280546200082490620009ff565b90600052602060002090601f01602090048101928262000848576000855562000894565b82601f106200086357805160ff191683800117855562000894565b8280016001018555821562000894579182015b828111156200089357825182559160200191906001019062000876565b5b509050620008a39190620008a7565b5090565b5b80821115620008c2576000816000905550600101620008a8565b5090565b600081519050620008d78162000b59565b92915050565b60008060408385031215620008f157600080fd5b60006200090185828601620008c6565b92505060206200091485828601620008c6565b9150509250929050565b60006200092d602a83620009b0565b91506200093a8262000ae1565b604082019050919050565b600062000954601983620009b0565b9150620009618262000b30565b602082019050919050565b6000602082019050818103600083015262000987816200091e565b9050919050565b60006020820190508181036000830152620009a98162000945565b9050919050565b600082825260208201905092915050565b6000620009ce82620009d5565b9050919050565b600073ffffffffffffffffffffffffffffffffffffffff82169050919050565b6000819050919050565b6000600282049050600182168062000a1857607f821691505b6020821081141562000a2f5762000a2e62000ab2565b5b50919050565b600062000a4282620009f5565b91507fffffffffffffffffffffffffffffffffffffffffffffffffffffffffffffffff82141562000a785762000a7762000a83565b5b600182019050919050565b7f4e487b7100000000000000000000000000000000000000000000000000000000600052601160045260246000fd5b7f4e487b7100000000000000000000000000000000000000000000000000000000600052602260045260246000fd5b7f455243323938313a20726f79616c7479206665652077696c6c2065786365656460008201527f2073616c65507269636500000000000000000000000000000000000000000000602082015250565b7f455243323938313a20696e76616c696420726563656976657200000000000000600082015250565b62000b6481620009c1565b811462000b7057600080fd5b50565b6151d48062000b836000396000f3fe608060405234801561001057600080fd5b506004361061028a5760003560e01c806355f804b31161015c57806391d14854116100ce578063c87b56dd11610087578063c87b56dd146107ee578063d53913931461081e578063d547741f1461083c578063d7eb3f3a14610858578063e985e9c514610876578063f87f44b9146108a65761028a565b806391d148541461072c57806395d89b411461075c578063a217fddf1461077a578063a22cb46514610798578063b88d4fde146107b4578063beb0a416146107d05761028a565b80636ff314c7116101205780636ff314c71461066a57806370a082311461068857806371199d30146106b85780637284e416146106d45780638cbe8d80146106f257806390c3f38f146107105761028a565b806355f804b3146105b257806359748cb2146105ce5780636352211e146105ec5780636a6278421461061c5780636b87d24c1461064c5761028a565b80632a55205a116102005780633fafa127116101b95780633fafa127146104f057806340138ff11461050e57806342842e0e1461052c57806342966c681461054857806343bc1612146105645780634f6ccce7146105825761028a565b80632a55205a1461042f5780632cc88974146104605780632f2ff15d1461047e5780632f745c591461049a57806336568abe146104ca5780633ccfd60b146104e65761028a565b8063095ea7b311610252578063095ea7b31461035b578063176f5b091461037757806318160ddd146103a757806323b872dd146103c5578063248a9ca3146103e157806328485586146104115761028a565b806301ffc9a71461028f578063031bd4c4146102bf57806306fdde03146102dd578063081812fc146102fb57806308ff7f611461032b575b600080fd5b6102a960048036038101906102a49190613d38565b6108c2565b6040516102b691906143f1565b60405180910390f35b6102c76108d4565b6040516102d491906146c9565b60405180910390f35b6102e56108da565b6040516102f29190614427565b60405180910390f35b61031560048036038101906103109190613dcf565b61096c565b6040516103229190614346565b60405180910390f35b61034560048036038101906103409190613dcf565b6109f1565b6040516103529190614427565b60405180910390f35b61037560048036038101906103709190613c97565b610a91565b005b610391600480360381019061038c9190613dcf565b610ba9565b60405161039e91906146c9565b60405180910390f35b6103af610bc1565b6040516103bc91906146c9565b60405180910390f35b6103df60048036038101906103da9190613b91565b610bce565b005b6103fb60048036038101906103f69190613cd3565b610c2e565b604051610408919061440c565b60405180910390f35b610419610c4e565b60405161042691906146c9565b60405180910390f35b61044960048036038101906104449190613e79565b610c58565b6040516104579291906143c8565b60405180910390f35b610468610e43565b60405161047591906146c9565b60405180910390f35b61049860048036038101906104939190613cfc565b610e4d565b005b6104b460048036038101906104af9190613c97565b610e76565b6040516104c191906146c9565b60405180910390f35b6104e460048036038101906104df9190613cfc565b610f1b565b005b6104ee610f9e565b005b6104f8611003565b60405161050591906146c9565b60405180910390f35b6105166110b5565b60405161052391906146c9565b60405180910390f35b61054660048036038101906105419190613b91565b6110bb565b005b610562600480360381019061055d9190613dcf565b6110db565b005b61056c611137565b6040516105799190614427565b60405180910390f35b61059c60048036038101906105979190613dcf565b6111c5565b6040516105a991906146c9565b60405180910390f35b6105cc60048036038101906105c79190613d8a565b61125c565b005b6105d6611288565b6040516105e39190614361565b60405180910390f35b61060660048036038101906106019190613dcf565b6112ae565b6040516106139190614346565b60405180910390f35b61063660048036038101906106319190613b2c565b611360565b60405161064391906146c9565b60405180910390f35b610654611549565b6040516106619190614427565b60405180910390f35b6106726115d7565b60405161067f9190614361565b60405180910390f35b6106a2600480360381019061069d9190613b2c565b611601565b6040516106af91906146c9565b60405180910390f35b6106d260048036038101906106cd9190613e21565b6116b9565b005b6106dc6116f7565b6040516106e99190614427565b60405180910390f35b6106fa611785565b6040516107079190614361565b60405180910390f35b61072a60048036038101906107259190613d8a565b6117af565b005b61074660048036038101906107419190613cfc565b6117db565b60405161075391906143f1565b60405180910390f35b610764611846565b6040516107719190614427565b60405180910390f35b6107826118d8565b60405161078f919061440c565b60405180910390f35b6107b260048036038101906107ad9190613c5b565b6118df565b005b6107ce60048036038101906107c99190613be0565b6118f5565b005b6107d8611957565b6040516107e59190614427565b60405180910390f35b61080860048036038101906108039190613dcf565b6119e5565b6040516108159190614427565b60405180910390f35b610826611a8c565b604051610833919061440c565b60405180910390f35b61085660048036038101906108519190613cfc565b611ab0565b005b610860611ad9565b60405161086d9190614361565b60405180910390f35b610890600480360381019061088b9190613b55565b611aff565b60405161089d91906143f1565b60405180910390f35b6108c060048036038101906108bb9190613d8a565b611b93565b005b60006108cd82611bd9565b9050919050565b600d5481565b6060600280546108e9906149b7565b80601f0160208091040260200160405190810160405280929190818152602001828054610915906149b7565b80156109625780601f1061093757610100808354040283529160200191610962565b820191906000526020600020905b81548152906001019060200180831161094557829003601f168201915b5050505050905090565b600061097782611c53565b6109b6576040517f08c379a00000000000000000000000000000000000000000000000000000000081526004016109ad906145c9565b60405180910390fd5b6006600083815260200190815260200160002060009054906101000a900473ffffffffffffffffffffffffffffffffffffffff169050919050565b60116020528060005260406000206000915090508054610a10906149b7565b80601f0160208091040260200160405190810160405280929190818152602001828054610a3c906149b7565b8015610a895780601f10610a5e57610100808354040283529160200191610a89565b820191906000526020600020905b815481529060010190602001808311610a6c57829003601f168201915b505050505081565b6000610a9c826112ae565b90508073ffffffffffffffffffffffffffffffffffffffff168373ffffffffffffffffffffffffffffffffffffffff161415610b0d576040517f08c379a0000000000000000000000000000000000000000000000000000000008152600401610b0490614609565b60405180910390fd5b8073ffffffffffffffffffffffffffffffffffffffff16610b2c611cbf565b73ffffffffffffffffffffffffffffffffffffffff161480610b5b5750610b5a81610b55611cbf565b611aff565b5b610b9a576040517f08c379a0000000000000000000000000000000000000000000000000000000008152600401610b9190614549565b60405180910390fd5b610ba48383611cc7565b505050565b60106020528060005260406000206000915090505481565b6000600a80549050905090565b610bdf610bd9611cbf565b82611d80565b610c1e576040517f08c379a0000000000000000000000000000000000000000000000000000000008152600401610c1590614629565b60405180910390fd5b610c29838383611e5e565b505050565b6000600c6000838152602001908152602001600020600101549050919050565b6000600d54905090565b6000806000600160008681526020019081526020016000206040518060400160405290816000820160009054906101000a900473ffffffffffffffffffffffffffffffffffffffff1673ffffffffffffffffffffffffffffffffffffffff1673ffffffffffffffffffffffffffffffffffffffff1681526020016000820160149054906101000a90046bffffffffffffffffffffffff166bffffffffffffffffffffffff166bffffffffffffffffffffffff16815250509050600073ffffffffffffffffffffffffffffffffffffffff16816000015173ffffffffffffffffffffffffffffffffffffffff161415610dee5760006040518060400160405290816000820160009054906101000a900473ffffffffffffffffffffffffffffffffffffffff1673ffffffffffffffffffffffffffffffffffffffff1673ffffffffffffffffffffffffffffffffffffffff1681526020016000820160149054906101000a90046bffffffffffffffffffffffff166bffffffffffffffffffffffff166bffffffffffffffffffffffff168152505090505b6000610df86120c5565b6bffffffffffffffffffffffff1682602001516bffffffffffffffffffffffff1686610e24919061482d565b610e2e91906147fc565b90508160000151819350935050509250929050565b6000601654905090565b610e5682610c2e565b610e6781610e62611cbf565b6120cf565b610e71838361216c565b505050565b6000610e8183611601565b8210610ec2576040517f08c379a0000000000000000000000000000000000000000000000000000000008152600401610eb990614469565b60405180910390fd5b600860008473ffffffffffffffffffffffffffffffffffffffff1673ffffffffffffffffffffffffffffffffffffffff168152602001908152602001600020600083815260200190815260200160002054905092915050565b610f23611cbf565b73ffffffffffffffffffffffffffffffffffffffff168173ffffffffffffffffffffffffffffffffffffffff1614610f90576040517f08c379a0000000000000000000000000000000000000000000000000000000008152600401610f87906146a9565b60405180910390fd5b610f9a828261224d565b5050565b6000801b610fb381610fae611cbf565b6120cf565b60003390508073ffffffffffffffffffffffffffffffffffffffff166108fc479081150290604051600060405180830381858888f19350505050158015610ffe573d6000803e3d6000fd5b505050565b6000600e60009054906101000a900473ffffffffffffffffffffffffffffffffffffffff1673ffffffffffffffffffffffffffffffffffffffff1663aee233b3306040518263ffffffff1660e01b81526004016110609190614346565b60206040518083038186803b15801561107857600080fd5b505afa15801561108c573d6000803e3d6000fd5b505050506040513d601f19601f820116820180604052508101906110b09190613df8565b905090565b60165481565b6110d6838383604051806020016040528060008152506118f5565b505050565b6110ec6110e6611cbf565b82611d80565b61112b576040517f08c379a000000000000000000000000000000000000000000000000000000000815260040161112290614689565b60405180910390fd5b6111348161232f565b50565b60198054611144906149b7565b80601f0160208091040260200160405190810160405280929190818152602001828054611170906149b7565b80156111bd5780601f10611192576101008083540402835291602001916111bd565b820191906000526020600020905b8154815290600101906020018083116111a057829003601f168201915b505050505081565b60006111cf610bc1565b8210611210576040517f08c379a000000000000000000000000000000000000000000000000000000000815260040161120790614649565b60405180910390fd5b600a828154811061124a577f4e487b7100000000000000000000000000000000000000000000000000000000600052603260045260246000fd5b90600052602060002001549050919050565b6000801b6112718161126c611cbf565b6120cf565b828260189190611282929190613944565b50505050565b601560009054906101000a900473ffffffffffffffffffffffffffffffffffffffff1681565b6000806004600084815260200190815260200160002060009054906101000a900473ffffffffffffffffffffffffffffffffffffffff169050600073ffffffffffffffffffffffffffffffffffffffff168173ffffffffffffffffffffffffffffffffffffffff161415611357576040517f08c379a000000000000000000000000000000000000000000000000000000000815260040161134e90614589565b60405180910390fd5b80915050919050565b60007f9f2df0fed2c77648de5860a4cc508cd0818c85b8b8a1ab4ceeef8d981c8956a66113948161138f611cbf565b6120cf565b61139e600f61233b565b9150600d5482106113e4576040517f08c379a00000000000000000000000000000000000000000000000000000000081526004016113db90614669565b60405180910390fd5b6113ee600f612349565b6113f8838361235f565b6000600e60009054906101000a900473ffffffffffffffffffffffffffffffffffffffff1673ffffffffffffffffffffffffffffffffffffffff166329e5d83184426040518363ffffffff1660e01b81526004016114579291906146e4565b60206040518083038186803b15801561146f57600080fd5b505afa158015611483573d6000803e3d6000fd5b505050506040513d601f19601f820116820180604052508101906114a79190613df8565b90506000600d54826114b99190614a6d565b90505b6114d081601261237d90919063ffffffff16565b61151457600d5482826040516020016114ea92919061431a565b6040516020818303038152906040528051906020012060001c61150d9190614a6d565b90506114bc565b80601060008681526020019081526020016000208190555061154081601261239790919063ffffffff16565b50505050919050565b601c8054611556906149b7565b80601f0160208091040260200160405190810160405280929190818152602001828054611582906149b7565b80156115cf5780601f106115a4576101008083540402835291602001916115cf565b820191906000526020600020905b8154815290600101906020018083116115b257829003601f168201915b505050505081565b6000601560009054906101000a900473ffffffffffffffffffffffffffffffffffffffff16905090565b60008073ffffffffffffffffffffffffffffffffffffffff168273ffffffffffffffffffffffffffffffffffffffff161415611672576040517f08c379a000000000000000000000000000000000000000000000000000000000815260040161166990614569565b60405180910390fd5b600560008373ffffffffffffffffffffffffffffffffffffffff1673ffffffffffffffffffffffffffffffffffffffff168152602001908152602001600020549050919050565b6000801b6116ce816116c9611cbf565b6120cf565b82826011600087815260200190815260200160002091906116f0929190613944565b5050505050565b601a8054611704906149b7565b80601f0160208091040260200160405190810160405280929190818152602001828054611730906149b7565b801561177d5780601f106117525761010080835404028352916020019161177d565b820191906000526020600020905b81548152906001019060200180831161176057829003601f168201915b505050505081565b6000601460009054906101000a900473ffffffffffffffffffffffffffffffffffffffff16905090565b6000801b6117c4816117bf611cbf565b6120cf565b8282601a91906117d5929190613944565b50505050565b6000600c600084815260200190815260200160002060000160008373ffffffffffffffffffffffffffffffffffffffff1673ffffffffffffffffffffffffffffffffffffffff16815260200190815260200160002060009054906101000a900460ff16905092915050565b606060038054611855906149b7565b80601f0160208091040260200160405190810160405280929190818152602001828054611881906149b7565b80156118ce5780601f106118a3576101008083540402835291602001916118ce565b820191906000526020600020905b8154815290600101906020018083116118b157829003601f168201915b5050505050905090565b6000801b81565b6118f16118ea611cbf565b83836123b1565b5050565b611906611900611cbf565b83611d80565b611945576040517f08c379a000000000000000000000000000000000000000000000000000000000815260040161193c90614629565b60405180910390fd5b6119518484848461251e565b50505050565b601b8054611964906149b7565b80601f0160208091040260200160405190810160405280929190818152602001828054611990906149b7565b80156119dd5780601f106119b2576101008083540402835291602001916119dd565b820191906000526020600020905b8154815290600101906020018083116119c057829003601f168201915b505050505081565b60606119f082611c53565b611a2f576040517f08c379a0000000000000000000000000000000000000000000000000000000008152600401611a26906145e9565b60405180910390fd5b6000611a3961257a565b90506000815111611a595760405180602001604052806000815250611a84565b80611a638461260c565b604051602001611a749291906142bc565b6040516020818303038152906040525b915050919050565b7f9f2df0fed2c77648de5860a4cc508cd0818c85b8b8a1ab4ceeef8d981c8956a681565b611ab982610c2e565b611aca81611ac5611cbf565b6120cf565b611ad4838361224d565b505050565b601460009054906101000a900473ffffffffffffffffffffffffffffffffffffffff1681565b6000600760008473ffffffffffffffffffffffffffffffffffffffff1673ffffffffffffffffffffffffffffffffffffffff16815260200190815260200160002060008373ffffffffffffffffffffffffffffffffffffffff1673ffffffffffffffffffffffffffffffffffffffff16815260200190815260200160002060009054906101000a900460ff16905092915050565b6000801b611ba881611ba3611cbf565b6120cf565b8282601b9190611bb9929190613944565b50505050565b6000611bd1836000018360001b6127b9565b905092915050565b60007f7965db0b000000000000000000000000000000000000000000000000000000007bffffffffffffffffffffffffffffffffffffffffffffffffffffffff1916827bffffffffffffffffffffffffffffffffffffffffffffffffffffffff19161480611c4c5750611c4b82612829565b5b9050919050565b60008073ffffffffffffffffffffffffffffffffffffffff166004600084815260200190815260200160002060009054906101000a900473ffffffffffffffffffffffffffffffffffffffff1673ffffffffffffffffffffffffffffffffffffffff1614159050919050565b600033905090565b816006600083815260200190815260200160002060006101000a81548173ffffffffffffffffffffffffffffffffffffffff021916908373ffffffffffffffffffffffffffffffffffffffff160217905550808273ffffffffffffffffffffffffffffffffffffffff16611d3a836112ae565b73ffffffffffffffffffffffffffffffffffffffff167f8c5be1e5ebec7d5bd14f71427d1e84f3dd0314c0f7b2291e5b200ac8c7c3b92560405160405180910390a45050565b6000611d8b82611c53565b611dca576040517f08c379a0000000000000000000000000000000000000000000000000000000008152600401611dc190614529565b60405180910390fd5b6000611dd5836112ae565b90508073ffffffffffffffffffffffffffffffffffffffff168473ffffffffffffffffffffffffffffffffffffffff161480611e4457508373ffffffffffffffffffffffffffffffffffffffff16611e2c8461096c565b73ffffffffffffffffffffffffffffffffffffffff16145b80611e555750611e548185611aff565b5b91505092915050565b8273ffffffffffffffffffffffffffffffffffffffff16611e7e826112ae565b73ffffffffffffffffffffffffffffffffffffffff1614611ed4576040517f08c379a0000000000000000000000000000000000000000000000000000000008152600401611ecb906144a9565b60405180910390fd5b600073ffffffffffffffffffffffffffffffffffffffff168273ffffffffffffffffffffffffffffffffffffffff161415611f44576040517f08c379a0000000000000000000000000000000000000000000000000000000008152600401611f3b906144e9565b60405180910390fd5b611f4f83838361283b565b611f5a600082611cc7565b6001600560008573ffffffffffffffffffffffffffffffffffffffff1673ffffffffffffffffffffffffffffffffffffffff1681526020019081526020016000206000828254611faa9190614887565b925050819055506001600560008473ffffffffffffffffffffffffffffffffffffffff1673ffffffffffffffffffffffffffffffffffffffff168152602001908152602001600020600082825461200191906147a6565b92505081905550816004600083815260200190815260200160002060006101000a81548173ffffffffffffffffffffffffffffffffffffffff021916908373ffffffffffffffffffffffffffffffffffffffff160217905550808273ffffffffffffffffffffffffffffffffffffffff168473ffffffffffffffffffffffffffffffffffffffff167fddf252ad1be2c89b69c2b068fc378daa952ba7f163c4a11628f55a4df523b3ef60405160405180910390a46120c083838361284b565b505050565b6000612710905090565b6120d982826117db565b612168576120fe8173ffffffffffffffffffffffffffffffffffffffff166014612850565b61210c8360001c6020612850565b60405160200161211d9291906142e0565b6040516020818303038152906040526040517f08c379a000000000000000000000000000000000000000000000000000000000815260040161215f9190614427565b60405180910390fd5b5050565b61217682826117db565b612249576001600c600084815260200190815260200160002060000160008373ffffffffffffffffffffffffffffffffffffffff1673ffffffffffffffffffffffffffffffffffffffff16815260200190815260200160002060006101000a81548160ff0219169083151502179055506121ee611cbf565b73ffffffffffffffffffffffffffffffffffffffff168173ffffffffffffffffffffffffffffffffffffffff16837f2f8788117e7eff1d82e926ec794901d17c78024a50270940304540a733656f0d60405160405180910390a45b5050565b61225782826117db565b1561232b576000600c600084815260200190815260200160002060000160008373ffffffffffffffffffffffffffffffffffffffff1673ffffffffffffffffffffffffffffffffffffffff16815260200190815260200160002060006101000a81548160ff0219169083151502179055506122d0611cbf565b73ffffffffffffffffffffffffffffffffffffffff168173ffffffffffffffffffffffffffffffffffffffff16837ff6391f5c32d9c69d2a47ea670b442974b53935d1edc7fd64eb21e047a839171b60405160405180910390a45b5050565b61233881612b4a565b50565b600081600001549050919050565b6001816000016000828254019250508190555050565b612379828260405180602001604052806000815250612b5f565b5050565b600061238f836000018360001b612bba565b905092915050565b60006123a9836000018360001b612bdd565b905092915050565b8173ffffffffffffffffffffffffffffffffffffffff168373ffffffffffffffffffffffffffffffffffffffff161415612420576040517f08c379a000000000000000000000000000000000000000000000000000000000815260040161241790614509565b60405180910390fd5b80600760008573ffffffffffffffffffffffffffffffffffffffff1673ffffffffffffffffffffffffffffffffffffffff16815260200190815260200160002060008473ffffffffffffffffffffffffffffffffffffffff1673ffffffffffffffffffffffffffffffffffffffff16815260200190815260200160002060006101000a81548160ff0219169083151502179055508173ffffffffffffffffffffffffffffffffffffffff168373ffffffffffffffffffffffffffffffffffffffff167f17307eab39ab6107e8899845ad3d59bd9653f200f220920489ca2b5937696c318360405161251191906143f1565b60405180910390a3505050565b612529848484611e5e565b61253584848484612d63565b612574576040517f08c379a000000000000000000000000000000000000000000000000000000000815260040161256b90614489565b60405180910390fd5b50505050565b606060188054612589906149b7565b80601f01602080910402602001604051908101604052809291908181526020018280546125b5906149b7565b80156126025780601f106125d757610100808354040283529160200191612602565b820191906000526020600020905b8154815290600101906020018083116125e557829003601f168201915b5050505050905090565b60606000821415612654576040518060400160405280600181526020017f300000000000000000000000000000000000000000000000000000000000000081525090506127b4565b600082905060005b6000821461268657808061266f90614a1a565b915050600a8261267f91906147fc565b915061265c565b60008167ffffffffffffffff8111156126c8577f4e487b7100000000000000000000000000000000000000000000000000000000600052604160045260246000fd5b6040519080825280601f01601f1916602001820160405280156126fa5781602001600182028036833780820191505090505b5090505b600085146127ad576001826127139190614887565b9150600a856127229190614a6d565b603061272e91906147a6565b60f81b81838151811061276a577f4e487b7100000000000000000000000000000000000000000000000000000000600052603260045260246000fd5b60200101907effffffffffffffffffffffffffffffffffffffffffffffffffffffffffffff1916908160001a905350600a856127a691906147fc565b94506126fe565b8093505050505b919050565b60006127c58383612bba565b61281e578260000182908060018154018082558091505060019003906000526020600020016000909190919091505582600001805490508360010160008481526020019081526020016000208190555060019050612823565b600090505b92915050565b600061283482612efa565b9050919050565b612846838383612f74565b505050565b505050565b606060006002836002612863919061482d565b61286d91906147a6565b67ffffffffffffffff8111156128ac577f4e487b7100000000000000000000000000000000000000000000000000000000600052604160045260246000fd5b6040519080825280601f01601f1916602001820160405280156128de5781602001600182028036833780820191505090505b5090507f30000000000000000000000000000000000000000000000000000000000000008160008151811061293c577f4e487b7100000000000000000000000000000000000000000000000000000000600052603260045260246000fd5b60200101907effffffffffffffffffffffffffffffffffffffffffffffffffffffffffffff1916908160001a9053507f7800000000000000000000000000000000000000000000000000000000000000816001815181106129c6577f4e487b7100000000000000000000000000000000000000000000000000000000600052603260045260246000fd5b60200101907effffffffffffffffffffffffffffffffffffffffffffffffffffffffffffff1916908160001a90535060006001846002612a06919061482d565b612a1091906147a6565b90505b6001811115612afc577f3031323334353637383961626364656600000000000000000000000000000000600f861660108110612a78577f4e487b7100000000000000000000000000000000000000000000000000000000600052603260045260246000fd5b1a60f81b828281518110612ab5577f4e487b7100000000000000000000000000000000000000000000000000000000600052603260045260246000fd5b60200101907effffffffffffffffffffffffffffffffffffffffffffffffffffffffffffff1916908160001a905350600485901c945080612af59061498d565b9050612a13565b5060008414612b40576040517f08c379a0000000000000000000000000000000000000000000000000000000008152600401612b3790614449565b60405180910390fd5b8091505092915050565b612b5381613088565b612b5c816131a5565b50565b612b698383613204565b612b766000848484612d63565b612bb5576040517f08c379a0000000000000000000000000000000000000000000000000000000008152600401612bac90614489565b60405180910390fd5b505050565b600080836001016000848152602001908152602001600020541415905092915050565b60008083600101600084815260200190815260200160002054905060008114612d57576000600182612c0f9190614887565b9050600060018660000180549050612c279190614887565b9050818114612ce2576000866000018281548110612c6e577f4e487b7100000000000000000000000000000000000000000000000000000000600052603260045260246000fd5b9060005260206000200154905080876000018481548110612cb8577f4e487b7100000000000000000000000000000000000000000000000000000000600052603260045260246000fd5b90600052602060002001819055508387600101600083815260200190815260200160002081905550505b85600001805480612d1c577f4e487b7100000000000000000000000000000000000000000000000000000000600052603160045260246000fd5b600190038181906000526020600020016000905590558560010160008681526020019081526020016000206000905560019350505050612d5d565b60009150505b92915050565b6000612d848473ffffffffffffffffffffffffffffffffffffffff166133de565b15612eed578373ffffffffffffffffffffffffffffffffffffffff1663150b7a02612dad611cbf565b8786866040518563ffffffff1660e01b8152600401612dcf949392919061437c565b602060405180830381600087803b158015612de957600080fd5b505af1925050508015612e1a57506040513d601f19601f82011682018060405250810190612e179190613d61565b60015b612e9d573d8060008114612e4a576040519150601f19603f3d011682016040523d82523d6000602084013e612e4f565b606091505b50600081511415612e95576040517f08c379a0000000000000000000000000000000000000000000000000000000008152600401612e8c90614489565b60405180910390fd5b805181602001fd5b63150b7a0260e01b7bffffffffffffffffffffffffffffffffffffffffffffffffffffffff1916817bffffffffffffffffffffffffffffffffffffffffffffffffffffffff191614915050612ef2565b600190505b949350505050565b60007f780e9d63000000000000000000000000000000000000000000000000000000007bffffffffffffffffffffffffffffffffffffffffffffffffffffffff1916827bffffffffffffffffffffffffffffffffffffffffffffffffffffffff19161480612f6d5750612f6c82613401565b5b9050919050565b612f7f8383836134e3565b600073ffffffffffffffffffffffffffffffffffffffff168373ffffffffffffffffffffffffffffffffffffffff161415612fc257612fbd816134e8565b613001565b8173ffffffffffffffffffffffffffffffffffffffff168373ffffffffffffffffffffffffffffffffffffffff161461300057612fff8382613531565b5b5b600073ffffffffffffffffffffffffffffffffffffffff168273ffffffffffffffffffffffffffffffffffffffff1614156130445761303f8161369e565b613083565b8273ffffffffffffffffffffffffffffffffffffffff168273ffffffffffffffffffffffffffffffffffffffff16146130825761308182826137e1565b5b5b505050565b6000613093826112ae565b90506130a18160008461283b565b6130ac600083611cc7565b6001600560008373ffffffffffffffffffffffffffffffffffffffff1673ffffffffffffffffffffffffffffffffffffffff16815260200190815260200160002060008282546130fc9190614887565b925050819055506004600083815260200190815260200160002060006101000a81549073ffffffffffffffffffffffffffffffffffffffff021916905581600073ffffffffffffffffffffffffffffffffffffffff168273ffffffffffffffffffffffffffffffffffffffff167fddf252ad1be2c89b69c2b068fc378daa952ba7f163c4a11628f55a4df523b3ef60405160405180910390a46131a18160008461284b565b5050565b60016000828152602001908152602001600020600080820160006101000a81549073ffffffffffffffffffffffffffffffffffffffff02191690556000820160146101000a8154906bffffffffffffffffffffffff0219169055505050565b600073ffffffffffffffffffffffffffffffffffffffff168273ffffffffffffffffffffffffffffffffffffffff161415613274576040517f08c379a000000000000000000000000000000000000000000000000000000000815260040161326b906145a9565b60405180910390fd5b61327d81611c53565b156132bd576040517f08c379a00000000000000000000000000000000000000000000000000000000081526004016132b4906144c9565b60405180910390fd5b6132c96000838361283b565b6001600560008473ffffffffffffffffffffffffffffffffffffffff1673ffffffffffffffffffffffffffffffffffffffff168152602001908152602001600020600082825461331991906147a6565b92505081905550816004600083815260200190815260200160002060006101000a81548173ffffffffffffffffffffffffffffffffffffffff021916908373ffffffffffffffffffffffffffffffffffffffff160217905550808273ffffffffffffffffffffffffffffffffffffffff16600073ffffffffffffffffffffffffffffffffffffffff167fddf252ad1be2c89b69c2b068fc378daa952ba7f163c4a11628f55a4df523b3ef60405160405180910390a46133da6000838361284b565b5050565b6000808273ffffffffffffffffffffffffffffffffffffffff163b119050919050565b60007f80ac58cd000000000000000000000000000000000000000000000000000000007bffffffffffffffffffffffffffffffffffffffffffffffffffffffff1916827bffffffffffffffffffffffffffffffffffffffffffffffffffffffff191614806134cc57507f5b5e139f000000000000000000000000000000000000000000000000000000007bffffffffffffffffffffffffffffffffffffffffffffffffffffffff1916827bffffffffffffffffffffffffffffffffffffffffffffffffffffffff1916145b806134dc57506134db82613860565b5b9050919050565b505050565b600a80549050600b600083815260200190815260200160002081905550600a81908060018154018082558091505060019003906000526020600020016000909190919091505550565b6000600161353e84611601565b6135489190614887565b905060006009600084815260200190815260200160002054905081811461362d576000600860008673ffffffffffffffffffffffffffffffffffffffff1673ffffffffffffffffffffffffffffffffffffffff168152602001908152602001600020600084815260200190815260200160002054905080600860008773ffffffffffffffffffffffffffffffffffffffff1673ffffffffffffffffffffffffffffffffffffffff168152602001908152602001600020600084815260200190815260200160002081905550816009600083815260200190815260200160002081905550505b6009600084815260200190815260200160002060009055600860008573ffffffffffffffffffffffffffffffffffffffff1673ffffffffffffffffffffffffffffffffffffffff16815260200190815260200160002060008381526020019081526020016000206000905550505050565b60006001600a805490506136b29190614887565b90506000600b60008481526020019081526020016000205490506000600a8381548110613708577f4e487b7100000000000000000000000000000000000000000000000000000000600052603260045260246000fd5b9060005260206000200154905080600a8381548110613750577f4e487b7100000000000000000000000000000000000000000000000000000000600052603260045260246000fd5b906000526020600020018190555081600b600083815260200190815260200160002081905550600b600085815260200190815260200160002060009055600a8054806137c5577f4e487b7100000000000000000000000000000000000000000000000000000000600052603160045260246000fd5b6001900381819060005260206000200160009055905550505050565b60006137ec83611601565b905081600860008573ffffffffffffffffffffffffffffffffffffffff1673ffffffffffffffffffffffffffffffffffffffff168152602001908152602001600020600083815260200190815260200160002081905550806009600084815260200190815260200160002081905550505050565b60007f2a55205a000000000000000000000000000000000000000000000000000000007bffffffffffffffffffffffffffffffffffffffffffffffffffffffff1916827bffffffffffffffffffffffffffffffffffffffffffffffffffffffff191614806138d357506138d2826138da565b5b9050919050565b60007f01ffc9a7000000000000000000000000000000000000000000000000000000007bffffffffffffffffffffffffffffffffffffffffffffffffffffffff1916827bffffffffffffffffffffffffffffffffffffffffffffffffffffffff1916149050919050565b828054613950906149b7565b90600052602060002090601f01602090048101928261397257600085556139b9565b82601f1061398b57803560ff19168380011785556139b9565b828001600101855582156139b9579182015b828111156139b857823582559160200191906001019061399d565b5b5090506139c691906139ca565b5090565b5b808211156139e35760008160009055506001016139cb565b5090565b60006139fa6139f584614732565b61470d565b905082815260208101848484011115613a1257600080fd5b613a1d84828561494b565b509392505050565b600081359050613a348161512b565b92915050565b600081359050613a4981615142565b92915050565b600081359050613a5e81615159565b92915050565b600081359050613a7381615170565b92915050565b600081519050613a8881615170565b92915050565b600082601f830112613a9f57600080fd5b8135613aaf8482602086016139e7565b91505092915050565b60008083601f840112613aca57600080fd5b8235905067ffffffffffffffff811115613ae357600080fd5b602083019150836001820283011115613afb57600080fd5b9250929050565b600081359050613b1181615187565b92915050565b600081519050613b2681615187565b92915050565b600060208284031215613b3e57600080fd5b6000613b4c84828501613a25565b91505092915050565b60008060408385031215613b6857600080fd5b6000613b7685828601613a25565b9250506020613b8785828601613a25565b9150509250929050565b600080600060608486031215613ba657600080fd5b6000613bb486828701613a25565b9350506020613bc586828701613a25565b9250506040613bd686828701613b02565b9150509250925092565b60008060008060808587031215613bf657600080fd5b6000613c0487828801613a25565b9450506020613c1587828801613a25565b9350506040613c2687828801613b02565b925050606085013567ffffffffffffffff811115613c4357600080fd5b613c4f87828801613a8e565b91505092959194509250565b60008060408385031215613c6e57600080fd5b6000613c7c85828601613a25565b9250506020613c8d85828601613a3a565b9150509250929050565b60008060408385031215613caa57600080fd5b6000613cb885828601613a25565b9250506020613cc985828601613b02565b9150509250929050565b600060208284031215613ce557600080fd5b6000613cf384828501613a4f565b91505092915050565b60008060408385031215613d0f57600080fd5b6000613d1d85828601613a4f565b9250506020613d2e85828601613a25565b9150509250929050565b600060208284031215613d4a57600080fd5b6000613d5884828501613a64565b91505092915050565b600060208284031215613d7357600080fd5b6000613d8184828501613a79565b91505092915050565b60008060208385031215613d9d57600080fd5b600083013567ffffffffffffffff811115613db757600080fd5b613dc385828601613ab8565b92509250509250929050565b600060208284031215613de157600080fd5b6000613def84828501613b02565b91505092915050565b600060208284031215613e0a57600080fd5b6000613e1884828501613b17565b91505092915050565b600080600060408486031215613e3657600080fd5b6000613e4486828701613b02565b935050602084013567ffffffffffffffff811115613e6157600080fd5b613e6d86828701613ab8565b92509250509250925092565b60008060408385031215613e8c57600080fd5b6000613e9a85828601613b02565b9250506020613eab85828601613b02565b9150509250929050565b613ebe816148cd565b82525050565b613ecd816148bb565b82525050565b613edc816148df565b82525050565b613eeb816148eb565b82525050565b6000613efc82614763565b613f068185614779565b9350613f1681856020860161495a565b613f1f81614b5a565b840191505092915050565b6000613f358261476e565b613f3f818561478a565b9350613f4f81856020860161495a565b613f5881614b5a565b840191505092915050565b6000613f6e8261476e565b613f78818561479b565b9350613f8881856020860161495a565b80840191505092915050565b6000613fa160208361478a565b9150613fac82614b6b565b602082019050919050565b6000613fc4602b8361478a565b9150613fcf82614b94565b604082019050919050565b6000613fe760328361478a565b9150613ff282614be3565b604082019050919050565b600061400a60258361478a565b915061401582614c32565b604082019050919050565b600061402d601c8361478a565b915061403882614c81565b602082019050919050565b600061405060248361478a565b915061405b82614caa565b604082019050919050565b600061407360198361478a565b915061407e82614cf9565b602082019050919050565b6000614096602c8361478a565b91506140a182614d22565b604082019050919050565b60006140b960388361478a565b91506140c482614d71565b604082019050919050565b60006140dc602a8361478a565b91506140e782614dc0565b604082019050919050565b60006140ff60298361478a565b915061410a82614e0f565b604082019050919050565b600061412260208361478a565b915061412d82614e5e565b602082019050919050565b6000614145602c8361478a565b915061415082614e87565b604082019050919050565b6000614168602f8361478a565b915061417382614ed6565b604082019050919050565b600061418b60218361478a565b915061419682614f25565b604082019050919050565b60006141ae60318361478a565b91506141b982614f74565b604082019050919050565b60006141d1602c8361478a565b91506141dc82614fc3565b604082019050919050565b60006141f460178361479b565b91506141ff82615012565b601782019050919050565b600061421760128361478a565b91506142228261503b565b602082019050919050565b600061423a60308361478a565b915061424582615064565b604082019050919050565b600061425d60118361479b565b9150614268826150b3565b601182019050919050565b6000614280602f8361478a565b915061428b826150dc565b604082019050919050565b61429f81614941565b82525050565b6142b66142b182614941565b614a63565b82525050565b60006142c88285613f63565b91506142d48284613f63565b91508190509392505050565b60006142eb826141e7565b91506142f78285613f63565b915061430282614250565b915061430e8284613f63565b91508190509392505050565b600061432682856142a5565b60208201915061433682846142a5565b6020820191508190509392505050565b600060208201905061435b6000830184613ec4565b92915050565b60006020820190506143766000830184613eb5565b92915050565b60006080820190506143916000830187613ec4565b61439e6020830186613ec4565b6143ab6040830185614296565b81810360608301526143bd8184613ef1565b905095945050505050565b60006040820190506143dd6000830185613ec4565b6143ea6020830184614296565b9392505050565b60006020820190506144066000830184613ed3565b92915050565b60006020820190506144216000830184613ee2565b92915050565b600060208201905081810360008301526144418184613f2a565b905092915050565b6000602082019050818103600083015261446281613f94565b9050919050565b6000602082019050818103600083015261448281613fb7565b9050919050565b600060208201905081810360008301526144a281613fda565b9050919050565b600060208201905081810360008301526144c281613ffd565b9050919050565b600060208201905081810360008301526144e281614020565b9050919050565b6000602082019050818103600083015261450281614043565b9050919050565b6000602082019050818103600083015261452281614066565b9050919050565b6000602082019050818103600083015261454281614089565b9050919050565b60006020820190508181036000830152614562816140ac565b9050919050565b60006020820190508181036000830152614582816140cf565b9050919050565b600060208201905081810360008301526145a2816140f2565b9050919050565b600060208201905081810360008301526145c281614115565b9050919050565b600060208201905081810360008301526145e281614138565b9050919050565b600060208201905081810360008301526146028161415b565b9050919050565b600060208201905081810360008301526146228161417e565b9050919050565b60006020820190508181036000830152614642816141a1565b9050919050565b60006020820190508181036000830152614662816141c4565b9050919050565b600060208201905081810360008301526146828161420a565b9050919050565b600060208201905081810360008301526146a28161422d565b9050919050565b600060208201905081810360008301526146c281614273565b9050919050565b60006020820190506146de6000830184614296565b92915050565b60006040820190506146f96000830185614296565b6147066020830184614296565b9392505050565b6000614717614728565b905061472382826149e9565b919050565b6000604051905090565b600067ffffffffffffffff82111561474d5761474c614b2b565b5b61475682614b5a565b9050602081019050919050565b600081519050919050565b600081519050919050565b600082825260208201905092915050565b600082825260208201905092915050565b600081905092915050565b60006147b182614941565b91506147bc83614941565b9250827fffffffffffffffffffffffffffffffffffffffffffffffffffffffffffffffff038211156147f1576147f0614a9e565b5b828201905092915050565b600061480782614941565b915061481283614941565b92508261482257614821614acd565b5b828204905092915050565b600061483882614941565b915061484383614941565b9250817fffffffffffffffffffffffffffffffffffffffffffffffffffffffffffffffff048311821515161561487c5761487b614a9e565b5b828202905092915050565b600061489282614941565b915061489d83614941565b9250828210156148b0576148af614a9e565b5b828203905092915050565b60006148c682614921565b9050919050565b60006148d882614921565b9050919050565b60008115159050919050565b6000819050919050565b60007fffffffff0000000000000000000000000000000000000000000000000000000082169050919050565b600073ffffffffffffffffffffffffffffffffffffffff82169050919050565b6000819050919050565b82818337600083830152505050565b60005b8381101561497857808201518184015260208101905061495d565b83811115614987576000848401525b50505050565b600061499882614941565b915060008214156149ac576149ab614a9e565b5b600182039050919050565b600060028204905060018216806149cf57607f821691505b602082108114156149e3576149e2614afc565b5b50919050565b6149f282614b5a565b810181811067ffffffffffffffff82111715614a1157614a10614b2b565b5b80604052505050565b6000614a2582614941565b91507fffffffffffffffffffffffffffffffffffffffffffffffffffffffffffffffff821415614a5857614a57614a9e565b5b600182019050919050565b6000819050919050565b6000614a7882614941565b9150614a8383614941565b925082614a9357614a92614acd565b5b828206905092915050565b7f4e487b7100000000000000000000000000000000000000000000000000000000600052601160045260246000fd5b7f4e487b7100000000000000000000000000000000000000000000000000000000600052601260045260246000fd5b7f4e487b7100000000000000000000000000000000000000000000000000000000600052602260045260246000fd5b7f4e487b7100000000000000000000000000000000000000000000000000000000600052604160045260246000fd5b6000601f19601f8301169050919050565b7f537472696e67733a20686578206c656e67746820696e73756666696369656e74600082015250565b7f455243373231456e756d657261626c653a206f776e657220696e646578206f7560008201527f74206f6620626f756e6473000000000000000000000000000000000000000000602082015250565b7f4552433732313a207472616e7366657220746f206e6f6e20455243373231526560008201527f63656976657220696d706c656d656e7465720000000000000000000000000000602082015250565b7f4552433732313a207472616e736665722066726f6d20696e636f72726563742060008201527f6f776e6572000000000000000000000000000000000000000000000000000000602082015250565b7f4552433732313a20746f6b656e20616c7265616479206d696e74656400000000600082015250565b7f4552433732313a207472616e7366657220746f20746865207a65726f2061646460008201527f7265737300000000000000000000000000000000000000000000000000000000602082015250565b7f4552433732313a20617070726f766520746f2063616c6c657200000000000000600082015250565b7f4552433732313a206f70657261746f7220717565727920666f72206e6f6e657860008201527f697374656e7420746f6b656e0000000000000000000000000000000000000000602082015250565b7f4552433732313a20617070726f76652063616c6c6572206973206e6f74206f7760008201527f6e6572206e6f7220617070726f76656420666f7220616c6c0000000000000000602082015250565b7f4552433732313a2062616c616e636520717565727920666f7220746865207a6560008201527f726f206164647265737300000000000000000000000000000000000000000000602082015250565b7f4552433732313a206f776e657220717565727920666f72206e6f6e657869737460008201527f656e7420746f6b656e0000000000000000000000000000000000000000000000602082015250565b7f4552433732313a206d696e7420746f20746865207a65726f2061646472657373600082015250565b7f4552433732313a20617070726f76656420717565727920666f72206e6f6e657860008201527f697374656e7420746f6b656e0000000000000000000000000000000000000000602082015250565b7f4552433732314d657461646174613a2055524920717565727920666f72206e6f60008201527f6e6578697374656e7420746f6b656e0000000000000000000000000000000000602082015250565b7f4552433732313a20617070726f76616c20746f2063757272656e74206f776e6560008201527f7200000000000000000000000000000000000000000000000000000000000000602082015250565b7f4552433732313a207472616e736665722063616c6c6572206973206e6f74206f60008201527f776e6572206e6f7220617070726f766564000000000000000000000000000000602082015250565b7f455243373231456e756d657261626c653a20676c6f62616c20696e646578206f60008201527f7574206f6620626f756e64730000000000000000000000000000000000000000602082015250565b7f416363657373436f6e74726f6c3a206163636f756e7420000000000000000000600082015250565b7f737570706c792063617020726561636865640000000000000000000000000000600082015250565b7f4552433732314275726e61626c653a2063616c6c6572206973206e6f74206f7760008201527f6e6572206e6f7220617070726f76656400000000000000000000000000000000602082015250565b7f206973206d697373696e6720726f6c6520000000000000000000000000000000600082015250565b7f416363657373436f6e74726f6c3a2063616e206f6e6c792072656e6f756e636560008201527f20726f6c657320666f722073656c660000000000000000000000000000000000602082015250565b615134816148bb565b811461513f57600080fd5b50565b61514b816148df565b811461515657600080fd5b50565b615162816148eb565b811461516d57600080fd5b50565b615179816148f5565b811461518457600080fd5b50565b61519081614941565b811461519b57600080fd5b5056fea2646970667358221220eaab28eb4b53fdcbdee134dd6b9ffbcc756dae2e07011c76998b471c7f617e7a64736f6c6343000802003368747470733a2f2f6170692e66696e652e6469676974616c2f6d657461646174612f",
  "linkReferences": {},
  "deployedLinkReferences": {}
}