{
  "_format": "hh-sol-artifact-1",
  "contractName": "FineNFT",
  "sourceName": "contracts/FineNFT.sol",
  "abi": [
    {
      "inputs": [
        {
          "internalType": "address",
          "name": "coreAddress",
          "type": "address"
        },
        {
          "internalType": "address",
          "name": "shopAddress",
          "type": "address"
        }
      ],
      "stateMutability": "nonpayable",
      "type": "constructor"
    },
    {
      "anonymous": false,
      "inputs": [
        {
          "indexed": true,
          "internalType": "address",
          "name": "owner",
          "type": "address"
        },
        {
          "indexed": true,
          "internalType": "address",
          "name": "approved",
          "type": "address"
        },
        {
          "indexed": true,
          "internalType": "uint256",
          "name": "tokenId",
          "type": "uint256"
        }
      ],
      "name": "Approval",
      "type": "event"
    },
    {
      "anonymous": false,
      "inputs": [
        {
          "indexed": true,
          "internalType": "address",
          "name": "owner",
          "type": "address"
        },
        {
          "indexed": true,
          "internalType": "address",
          "name": "operator",
          "type": "address"
        },
        {
          "indexed": false,
          "internalType": "bool",
          "name": "approved",
          "type": "bool"
        }
      ],
      "name": "ApprovalForAll",
      "type": "event"
    },
    {
      "anonymous": false,
      "inputs": [
        {
          "indexed": true,
          "internalType": "bytes32",
          "name": "role",
          "type": "bytes32"
        },
        {
          "indexed": true,
          "internalType": "bytes32",
          "name": "previousAdminRole",
          "type": "bytes32"
        },
        {
          "indexed": true,
          "internalType": "bytes32",
          "name": "newAdminRole",
          "type": "bytes32"
        }
      ],
      "name": "RoleAdminChanged",
      "type": "event"
    },
    {
      "anonymous": false,
      "inputs": [
        {
          "indexed": true,
          "internalType": "bytes32",
          "name": "role",
          "type": "bytes32"
        },
        {
          "indexed": true,
          "internalType": "address",
          "name": "account",
          "type": "address"
        },
        {
          "indexed": true,
          "internalType": "address",
          "name": "sender",
          "type": "address"
        }
      ],
      "name": "RoleGranted",
      "type": "event"
    },
    {
      "anonymous": false,
      "inputs": [
        {
          "indexed": true,
          "internalType": "bytes32",
          "name": "role",
          "type": "bytes32"
        },
        {
          "indexed": true,
          "internalType": "address",
          "name": "account",
          "type": "address"
        },
        {
          "indexed": true,
          "internalType": "address",
          "name": "sender",
          "type": "address"
        }
      ],
      "name": "RoleRevoked",
      "type": "event"
    },
    {
      "anonymous": false,
      "inputs": [
        {
          "indexed": true,
          "internalType": "address",
          "name": "from",
          "type": "address"
        },
        {
          "indexed": true,
          "internalType": "address",
          "name": "to",
          "type": "address"
        },
        {
          "indexed": true,
          "internalType": "uint256",
          "name": "tokenId",
          "type": "uint256"
        }
      ],
      "name": "Transfer",
      "type": "event"
    },
    {
      "inputs": [],
      "name": "DEFAULT_ADMIN_ROLE",
      "outputs": [
        {
          "internalType": "bytes32",
          "name": "",
          "type": "bytes32"
        }
      ],
      "stateMutability": "view",
      "type": "function"
    },
    {
      "inputs": [],
      "name": "MINTER_ROLE",
      "outputs": [
        {
          "internalType": "bytes32",
          "name": "",
          "type": "bytes32"
        }
      ],
      "stateMutability": "view",
      "type": "function"
    },
    {
      "inputs": [],
      "name": "TOKEN_LIMIT",
      "outputs": [
        {
          "internalType": "uint256",
          "name": "",
          "type": "uint256"
        }
      ],
      "stateMutability": "view",
      "type": "function"
    },
    {
      "inputs": [],
      "name": "additionalPayee",
      "outputs": [
        {
          "internalType": "address payable",
          "name": "",
          "type": "address"
        }
      ],
      "stateMutability": "view",
      "type": "function"
    },
    {
      "inputs": [],
      "name": "additionalPayeePercentage",
      "outputs": [
        {
          "internalType": "uint256",
          "name": "",
          "type": "uint256"
        }
      ],
      "stateMutability": "view",
      "type": "function"
    },
    {
      "inputs": [
        {
          "internalType": "address",
          "name": "to",
          "type": "address"
        },
        {
          "internalType": "uint256",
          "name": "tokenId",
          "type": "uint256"
        }
      ],
      "name": "approve",
      "outputs": [],
      "stateMutability": "nonpayable",
      "type": "function"
    },
    {
      "inputs": [],
      "name": "artist",
      "outputs": [
        {
          "internalType": "string",
          "name": "",
          "type": "string"
        }
      ],
      "stateMutability": "view",
      "type": "function"
    },
    {
      "inputs": [],
      "name": "artistAddress",
      "outputs": [
        {
          "internalType": "address payable",
          "name": "",
          "type": "address"
        }
      ],
      "stateMutability": "view",
      "type": "function"
    },
    {
      "inputs": [
        {
          "internalType": "uint256",
          "name": "",
          "type": "uint256"
        }
      ],
      "name": "artworkId",
      "outputs": [
        {
          "internalType": "uint256",
          "name": "",
          "type": "uint256"
        }
      ],
      "stateMutability": "view",
      "type": "function"
    },
    {
      "inputs": [
        {
          "internalType": "address",
          "name": "owner",
          "type": "address"
        }
      ],
      "name": "balanceOf",
      "outputs": [
        {
          "internalType": "uint256",
          "name": "",
          "type": "uint256"
        }
      ],
      "stateMutability": "view",
      "type": "function"
    },
    {
      "inputs": [],
      "name": "baseURI",
      "outputs": [
        {
          "internalType": "string",
          "name": "",
          "type": "string"
        }
      ],
      "stateMutability": "view",
      "type": "function"
    },
    {
      "inputs": [
        {
          "internalType": "uint256",
          "name": "tokenId",
          "type": "uint256"
        }
      ],
      "name": "burn",
      "outputs": [],
      "stateMutability": "nonpayable",
      "type": "function"
    },
    {
      "inputs": [],
      "name": "description",
      "outputs": [
        {
          "internalType": "string",
          "name": "",
          "type": "string"
        }
      ],
      "stateMutability": "view",
      "type": "function"
    },
    {
      "inputs": [],
      "name": "getAdditionalPayee",
      "outputs": [
        {
          "internalType": "address payable",
          "name": "",
          "type": "address"
        }
      ],
      "stateMutability": "view",
      "type": "function"
    },
    {
      "inputs": [],
      "name": "getAdditionalPayeePercentage",
      "outputs": [
        {
          "internalType": "uint256",
          "name": "",
          "type": "uint256"
        }
      ],
      "stateMutability": "view",
      "type": "function"
    },
    {
      "inputs": [
        {
          "internalType": "uint256",
          "name": "tokenId",
          "type": "uint256"
        }
      ],
      "name": "getApproved",
      "outputs": [
        {
          "internalType": "address",
          "name": "",
          "type": "address"
        }
      ],
      "stateMutability": "view",
      "type": "function"
    },
    {
      "inputs": [],
      "name": "getArtistAddress",
      "outputs": [
        {
          "internalType": "address payable",
          "name": "",
          "type": "address"
        }
      ],
      "stateMutability": "view",
      "type": "function"
    },
    {
      "inputs": [
        {
          "internalType": "bytes32",
          "name": "role",
          "type": "bytes32"
        }
      ],
      "name": "getRoleAdmin",
      "outputs": [
        {
          "internalType": "bytes32",
          "name": "",
          "type": "bytes32"
        }
      ],
      "stateMutability": "view",
      "type": "function"
    },
    {
      "inputs": [],
      "name": "getTokenLimit",
      "outputs": [
        {
          "internalType": "uint256",
          "name": "",
          "type": "uint256"
        }
      ],
      "stateMutability": "view",
      "type": "function"
    },
    {
      "inputs": [
        {
          "internalType": "bytes32",
          "name": "role",
          "type": "bytes32"
        },
        {
          "internalType": "address",
          "name": "account",
          "type": "address"
        }
      ],
      "name": "grantRole",
      "outputs": [],
      "stateMutability": "nonpayable",
      "type": "function"
    },
    {
      "inputs": [
        {
          "internalType": "bytes32",
          "name": "role",
          "type": "bytes32"
        },
        {
          "internalType": "address",
          "name": "account",
          "type": "address"
        }
      ],
      "name": "hasRole",
      "outputs": [
        {
          "internalType": "bool",
          "name": "",
          "type": "bool"
        }
      ],
      "stateMutability": "view",
      "type": "function"
    },
    {
      "inputs": [
        {
          "internalType": "uint256",
          "name": "start",
          "type": "uint256"
        },
        {
          "internalType": "uint256",
          "name": "end",
          "type": "uint256"
        }
      ],
      "name": "initPool",
      "outputs": [],
      "stateMutability": "nonpayable",
      "type": "function"
    },
    {
      "inputs": [
        {
          "internalType": "address",
          "name": "owner",
          "type": "address"
        },
        {
          "internalType": "address",
          "name": "operator",
          "type": "address"
        }
      ],
      "name": "isApprovedForAll",
      "outputs": [
        {
          "internalType": "bool",
          "name": "",
          "type": "bool"
        }
      ],
      "stateMutability": "view",
      "type": "function"
    },
    {
      "inputs": [],
      "name": "license",
      "outputs": [
        {
          "internalType": "string",
          "name": "",
          "type": "string"
        }
      ],
      "stateMutability": "view",
      "type": "function"
    },
    {
      "inputs": [
        {
          "internalType": "address",
          "name": "to",
          "type": "address"
        }
      ],
      "name": "mint",
      "outputs": [
        {
          "internalType": "uint256",
          "name": "tokenId",
          "type": "uint256"
        }
      ],
      "stateMutability": "nonpayable",
      "type": "function"
    },
    {
      "inputs": [],
      "name": "name",
      "outputs": [
        {
          "internalType": "string",
          "name": "",
          "type": "string"
        }
      ],
      "stateMutability": "view",
      "type": "function"
    },
    {
      "inputs": [
        {
          "internalType": "uint256",
          "name": "tokenId",
          "type": "uint256"
        }
      ],
      "name": "ownerOf",
      "outputs": [
        {
          "internalType": "address",
          "name": "",
          "type": "address"
        }
      ],
      "stateMutability": "view",
      "type": "function"
    },
    {
      "inputs": [],
      "name": "projectId",
      "outputs": [
        {
          "internalType": "uint256",
          "name": "",
          "type": "uint256"
        }
      ],
      "stateMutability": "view",
      "type": "function"
    },
    {
      "inputs": [
        {
          "internalType": "bytes32",
          "name": "role",
          "type": "bytes32"
        },
        {
          "internalType": "address",
          "name": "account",
          "type": "address"
        }
      ],
      "name": "renounceRole",
      "outputs": [],
      "stateMutability": "nonpayable",
      "type": "function"
    },
    {
      "inputs": [
        {
          "internalType": "bytes32",
          "name": "role",
          "type": "bytes32"
        },
        {
          "internalType": "address",
          "name": "account",
          "type": "address"
        }
      ],
      "name": "revokeRole",
      "outputs": [],
      "stateMutability": "nonpayable",
      "type": "function"
    },
    {
      "inputs": [
        {
          "internalType": "uint256",
          "name": "_tokenId",
          "type": "uint256"
        },
        {
          "internalType": "uint256",
          "name": "_salePrice",
          "type": "uint256"
        }
      ],
      "name": "royaltyInfo",
      "outputs": [
        {
          "internalType": "address",
          "name": "",
          "type": "address"
        },
        {
          "internalType": "uint256",
          "name": "",
          "type": "uint256"
        }
      ],
      "stateMutability": "view",
      "type": "function"
    },
    {
      "inputs": [],
      "name": "royaltyPercent",
      "outputs": [
        {
          "internalType": "uint96",
          "name": "",
          "type": "uint96"
        }
      ],
      "stateMutability": "view",
      "type": "function"
    },
    {
      "inputs": [
        {
          "internalType": "address",
          "name": "from",
          "type": "address"
        },
        {
          "internalType": "address",
          "name": "to",
          "type": "address"
        },
        {
          "internalType": "uint256",
          "name": "tokenId",
          "type": "uint256"
        }
      ],
      "name": "safeTransferFrom",
      "outputs": [],
      "stateMutability": "nonpayable",
      "type": "function"
    },
    {
      "inputs": [
        {
          "internalType": "address",
          "name": "from",
          "type": "address"
        },
        {
          "internalType": "address",
          "name": "to",
          "type": "address"
        },
        {
          "internalType": "uint256",
          "name": "tokenId",
          "type": "uint256"
        },
        {
          "internalType": "bytes",
          "name": "_data",
          "type": "bytes"
        }
      ],
      "name": "safeTransferFrom",
      "outputs": [],
      "stateMutability": "nonpayable",
      "type": "function"
    },
    {
      "inputs": [
        {
          "internalType": "uint256",
          "name": "",
          "type": "uint256"
        }
      ],
      "name": "scripts",
      "outputs": [
        {
          "internalType": "string",
          "name": "",
          "type": "string"
        }
      ],
      "stateMutability": "view",
      "type": "function"
    },
    {
      "inputs": [
        {
          "internalType": "address",
          "name": "operator",
          "type": "address"
        },
        {
          "internalType": "bool",
          "name": "approved",
          "type": "bool"
        }
      ],
      "name": "setApprovalForAll",
      "outputs": [],
      "stateMutability": "nonpayable",
      "type": "function"
    },
    {
      "inputs": [
        {
          "internalType": "string",
          "name": "_uri",
          "type": "string"
        }
      ],
      "name": "setBaseURI",
      "outputs": [],
      "stateMutability": "nonpayable",
      "type": "function"
    },
    {
      "inputs": [
        {
          "internalType": "string",
          "name": "_desc",
          "type": "string"
        }
      ],
      "name": "setDescription",
      "outputs": [],
      "stateMutability": "nonpayable",
      "type": "function"
    },
    {
      "inputs": [
        {
          "internalType": "uint256",
          "name": "index",
          "type": "uint256"
        },
        {
          "internalType": "string",
          "name": "script",
          "type": "string"
        }
      ],
      "name": "setScript",
      "outputs": [],
      "stateMutability": "nonpayable",
      "type": "function"
    },
    {
      "inputs": [
        {
          "internalType": "string",
          "name": "_url",
          "type": "string"
        }
      ],
      "name": "setWebsite",
      "outputs": [],
      "stateMutability": "nonpayable",
      "type": "function"
    },
    {
      "inputs": [
        {
          "internalType": "bytes4",
          "name": "interfaceId",
          "type": "bytes4"
        }
      ],
      "name": "supportsInterface",
      "outputs": [
        {
          "internalType": "bool",
          "name": "",
          "type": "bool"
        }
      ],
      "stateMutability": "view",
      "type": "function"
    },
    {
      "inputs": [],
      "name": "symbol",
      "outputs": [
        {
          "internalType": "string",
          "name": "",
          "type": "string"
        }
      ],
      "stateMutability": "view",
      "type": "function"
    },
    {
      "inputs": [
        {
          "internalType": "uint256",
          "name": "index",
          "type": "uint256"
        }
      ],
      "name": "tokenByIndex",
      "outputs": [
        {
          "internalType": "uint256",
          "name": "",
          "type": "uint256"
        }
      ],
      "stateMutability": "view",
      "type": "function"
    },
    {
      "inputs": [
        {
          "internalType": "address",
          "name": "owner",
          "type": "address"
        },
        {
          "internalType": "uint256",
          "name": "index",
          "type": "uint256"
        }
      ],
      "name": "tokenOfOwnerByIndex",
      "outputs": [
        {
          "internalType": "uint256",
          "name": "",
          "type": "uint256"
        }
      ],
      "stateMutability": "view",
      "type": "function"
    },
    {
      "inputs": [
        {
          "internalType": "uint256",
          "name": "tokenId",
          "type": "uint256"
        }
      ],
      "name": "tokenURI",
      "outputs": [
        {
          "internalType": "string",
          "name": "",
          "type": "string"
        }
      ],
      "stateMutability": "view",
      "type": "function"
    },
    {
      "inputs": [],
      "name": "totalSupply",
      "outputs": [
        {
          "internalType": "uint256",
          "name": "",
          "type": "uint256"
        }
      ],
      "stateMutability": "view",
      "type": "function"
    },
    {
      "inputs": [
        {
          "internalType": "address",
          "name": "from",
          "type": "address"
        },
        {
          "internalType": "address",
          "name": "to",
          "type": "address"
        },
        {
          "internalType": "uint256",
          "name": "tokenId",
          "type": "uint256"
        }
      ],
      "name": "transferFrom",
      "outputs": [],
      "stateMutability": "nonpayable",
      "type": "function"
    },
    {
      "inputs": [],
      "name": "website",
      "outputs": [
        {
          "internalType": "string",
          "name": "",
          "type": "string"
        }
      ],
      "stateMutability": "view",
      "type": "function"
    },
    {
      "inputs": [],
      "name": "withdraw",
      "outputs": [],
      "stateMutability": "nonpayable",
      "type": "function"
    },
    {
      "stateMutability": "payable",
      "type": "receive"
    }
  ],
  "bytecode": "0x60806040526103e8600d55737a832c86002323a5de3a317b3281eb88ec3b2c00601460006101000a81548173ffffffffffffffffffffffffffffffffffffffff021916908373ffffffffffffffffffffffffffffffffffffffff1602179055506000601560006101000a81548173ffffffffffffffffffffffffffffffffffffffff021916908373ffffffffffffffffffffffffffffffffffffffff16021790555060006016556102ee601760006101000a8154816bffffffffffffffffffffffff02191690836bffffffffffffffffffffffff1602179055506040518060400160405280600e81526020017f4950465320484153482048455245000000000000000000000000000000000000815250601890805190602001906200012692919062000732565b506040518060400160405280600481526020017f66696e6500000000000000000000000000000000000000000000000000000000815250601990805190602001906200017492919062000732565b506040518060400160405280601581526020017f612073616d706c65204e465420666f722046494e450000000000000000000000815250601a9080519060200190620001c292919062000732565b506040518060400160405280601881526020017f68747470733a2f2f6170692e66696e652e6469676974616c0000000000000000815250601b90805190602001906200021092919062000732565b506040518060400160405280600381526020017f4d49540000000000000000000000000000000000000000000000000000000000815250601c90805190602001906200025e92919062000732565b503480156200026c57600080fd5b5060405162005fc338038062005fc38339818101604052810190620002929190620007f9565b6040518060400160405280600c81526020017f46494e45204469676974616c00000000000000000000000000000000000000008152506040518060400160405280600481526020017f46494e450000000000000000000000000000000000000000000000000000000081525081600290805190602001906200031692919062000732565b5080600390805190602001906200032f92919062000732565b505050620003476000801b336200042060201b60201c565b620003797f9f2df0fed2c77648de5860a4cc508cd0818c85b8b8a1ab4ceeef8d981c8956a6336200042060201b60201c565b620003ab7f9f2df0fed2c77648de5860a4cc508cd0818c85b8b8a1ab4ceeef8d981c8956a6826200042060201b60201c565b81600e60006101000a81548173ffffffffffffffffffffffffffffffffffffffff021916908373ffffffffffffffffffffffffffffffffffffffff1602179055506200041830601760009054906101000a90046bffffffffffffffffffffffff166200051260201b60201c565b505062000a08565b620004328282620006b560201b60201c565b6200050e576001600c600084815260200190815260200160002060000160008373ffffffffffffffffffffffffffffffffffffffff1673ffffffffffffffffffffffffffffffffffffffff16815260200190815260200160002060006101000a81548160ff021916908315150217905550620004b36200072060201b60201c565b73ffffffffffffffffffffffffffffffffffffffff168173ffffffffffffffffffffffffffffffffffffffff16837f2f8788117e7eff1d82e926ec794901d17c78024a50270940304540a733656f0d60405160405180910390a45b5050565b620005226200072860201b60201c565b6bffffffffffffffffffffffff16816bffffffffffffffffffffffff16111562000583576040517f08c379a00000000000000000000000000000000000000000000000000000000081526004016200057a9062000888565b60405180910390fd5b600073ffffffffffffffffffffffffffffffffffffffff168273ffffffffffffffffffffffffffffffffffffffff161415620005f6576040517f08c379a0000000000000000000000000000000000000000000000000000000008152600401620005ed90620008aa565b60405180910390fd5b60405180604001604052808373ffffffffffffffffffffffffffffffffffffffff168152602001826bffffffffffffffffffffffff168152506000808201518160000160006101000a81548173ffffffffffffffffffffffffffffffffffffffff021916908373ffffffffffffffffffffffffffffffffffffffff16021790555060208201518160000160146101000a8154816bffffffffffffffffffffffff02191690836bffffffffffffffffffffffff1602179055509050505050565b6000600c600084815260200190815260200160002060000160008373ffffffffffffffffffffffffffffffffffffffff1673ffffffffffffffffffffffffffffffffffffffff16815260200190815260200160002060009054906101000a900460ff16905092915050565b600033905090565b6000612710905090565b828054620007409062000911565b90600052602060002090601f016020900481019282620007645760008555620007b0565b82601f106200077f57805160ff1916838001178555620007b0565b82800160010185558215620007b0579182015b82811115620007af57825182559160200191906001019062000792565b5b509050620007bf9190620007c3565b5090565b5b80821115620007de576000816000905550600101620007c4565b5090565b600081519050620007f381620009ee565b92915050565b600080604083850312156200080d57600080fd5b60006200081d85828601620007e2565b92505060206200083085828601620007e2565b9150509250929050565b600062000849602a83620008cc565b9150620008568262000976565b604082019050919050565b600062000870601983620008cc565b91506200087d82620009c5565b602082019050919050565b60006020820190508181036000830152620008a3816200083a565b9050919050565b60006020820190508181036000830152620008c58162000861565b9050919050565b600082825260208201905092915050565b6000620008ea82620008f1565b9050919050565b600073ffffffffffffffffffffffffffffffffffffffff82169050919050565b600060028204905060018216806200092a57607f821691505b6020821081141562000941576200094062000947565b5b50919050565b7f4e487b7100000000000000000000000000000000000000000000000000000000600052602260045260246000fd5b7f455243323938313a20726f79616c7479206665652077696c6c2065786365656460008201527f2073616c65507269636500000000000000000000000000000000000000000000602082015250565b7f455243323938313a20696e76616c696420726563656976657200000000000000600082015250565b620009f981620008dd565b811462000a0557600080fd5b50565b6155ab8062000a186000396000f3fe6080604052600436106102b25760003560e01c806359748cb21161017557806395d89b41116100dc578063beb0a41611610095578063d547741f1161006f578063d547741f14610b0c578063d7eb3f3a14610b35578063e985e9c514610b60578063f87f44b914610b9d576102b9565b8063beb0a41614610a79578063c87b56dd14610aa4578063d539139314610ae1576102b9565b806395d89b411461097d5780639e1b0045146109a85780639f67756d146109d1578063a217fddf146109fc578063a22cb46514610a27578063b88d4fde14610a50576102b9565b806370a082311161012e57806370a082311461085b57806371199d30146108985780637284e416146108c15780638cbe8d80146108ec57806390c3f38f1461091757806391d1485414610940576102b9565b806359748cb2146107355780636352211e146107605780636a6278421461079d5780636b87d24c146107da5780636c0360eb146108055780636ff314c714610830576102b9565b80632cc889741161021957806340138ff1116101d257806340138ff11461062757806342842e0e1461065257806342966c681461067b57806343bc1612146106a45780634f6ccce7146106cf57806355f804b31461070c576102b9565b80632cc889741461052b5780632f2ff15d146105565780632f745c591461057f57806336568abe146105bc5780633ccfd60b146105e55780633fafa127146105fc576102b9565b8063176f5b091161026b578063176f5b09146103f457806318160ddd1461043157806323b872dd1461045c578063248a9ca31461048557806328485586146104c25780632a55205a146104ed576102b9565b806301ffc9a7146102be578063031bd4c4146102fb57806306fdde0314610326578063081812fc1461035157806308ff7f611461038e578063095ea7b3146103cb576102b9565b366102b957005b600080fd5b3480156102ca57600080fd5b506102e560048036038101906102e091906140dc565b610bc6565b6040516102f291906147d8565b60405180910390f35b34801561030757600080fd5b50610310610bd8565b60405161031d9190614a90565b60405180910390f35b34801561033257600080fd5b5061033b610bde565b604051610348919061480e565b60405180910390f35b34801561035d57600080fd5b5061037860048036038101906103739190614173565b610c70565b604051610385919061472d565b60405180910390f35b34801561039a57600080fd5b506103b560048036038101906103b09190614173565b610cf5565b6040516103c2919061480e565b60405180910390f35b3480156103d757600080fd5b506103f260048036038101906103ed919061403b565b610d95565b005b34801561040057600080fd5b5061041b60048036038101906104169190614173565b610ead565b6040516104289190614a90565b60405180910390f35b34801561043d57600080fd5b50610446610ec5565b6040516104539190614a90565b60405180910390f35b34801561046857600080fd5b50610483600480360381019061047e9190613f35565b610ed2565b005b34801561049157600080fd5b506104ac60048036038101906104a79190614077565b610f32565b6040516104b991906147f3565b60405180910390f35b3480156104ce57600080fd5b506104d7610f52565b6040516104e49190614a90565b60405180910390f35b3480156104f957600080fd5b50610514600480360381019061050f919061421d565b610f5c565b6040516105229291906147af565b60405180910390f35b34801561053757600080fd5b50610540611147565b60405161054d9190614a90565b60405180910390f35b34801561056257600080fd5b5061057d600480360381019061057891906140a0565b611151565b005b34801561058b57600080fd5b506105a660048036038101906105a1919061403b565b61117a565b6040516105b39190614a90565b60405180910390f35b3480156105c857600080fd5b506105e360048036038101906105de91906140a0565b61121f565b005b3480156105f157600080fd5b506105fa6112a2565b005b34801561060857600080fd5b506106116112c3565b60405161061e9190614a90565b60405180910390f35b34801561063357600080fd5b5061063c611375565b6040516106499190614a90565b60405180910390f35b34801561065e57600080fd5b5061067960048036038101906106749190613f35565b61137b565b005b34801561068757600080fd5b506106a2600480360381019061069d9190614173565b61139b565b005b3480156106b057600080fd5b506106b96113f7565b6040516106c6919061480e565b60405180910390f35b3480156106db57600080fd5b506106f660048036038101906106f19190614173565b611485565b6040516107039190614a90565b60405180910390f35b34801561071857600080fd5b50610733600480360381019061072e919061412e565b61151c565b005b34801561074157600080fd5b5061074a611548565b6040516107579190614748565b60405180910390f35b34801561076c57600080fd5b5061078760048036038101906107829190614173565b61156e565b604051610794919061472d565b60405180910390f35b3480156107a957600080fd5b506107c460048036038101906107bf9190613ea7565b611620565b6040516107d19190614a90565b60405180910390f35b3480156107e657600080fd5b506107ef6117d0565b6040516107fc919061480e565b60405180910390f35b34801561081157600080fd5b5061081a61185e565b604051610827919061480e565b60405180910390f35b34801561083c57600080fd5b506108456118ec565b6040516108529190614748565b60405180910390f35b34801561086757600080fd5b50610882600480360381019061087d9190613ea7565b611916565b60405161088f9190614a90565b60405180910390f35b3480156108a457600080fd5b506108bf60048036038101906108ba91906141c5565b6119ce565b005b3480156108cd57600080fd5b506108d6611a0c565b6040516108e3919061480e565b60405180910390f35b3480156108f857600080fd5b50610901611a9a565b60405161090e9190614748565b60405180910390f35b34801561092357600080fd5b5061093e6004803603810190610939919061412e565b611ac4565b005b34801561094c57600080fd5b50610967600480360381019061096291906140a0565b611af0565b60405161097491906147d8565b60405180910390f35b34801561098957600080fd5b50610992611b5b565b60405161099f919061480e565b60405180910390f35b3480156109b457600080fd5b506109cf60048036038101906109ca919061421d565b611bed565b005b3480156109dd57600080fd5b506109e6611c28565b6040516109f39190614ad4565b60405180910390f35b348015610a0857600080fd5b50610a11611c46565b604051610a1e91906147f3565b60405180910390f35b348015610a3357600080fd5b50610a4e6004803603810190610a499190613fff565b611c4d565b005b348015610a5c57600080fd5b50610a776004803603810190610a729190613f84565b611c63565b005b348015610a8557600080fd5b50610a8e611cc5565b604051610a9b919061480e565b60405180910390f35b348015610ab057600080fd5b50610acb6004803603810190610ac69190614173565b611d53565b604051610ad8919061480e565b60405180910390f35b348015610aed57600080fd5b50610af6611d92565b604051610b0391906147f3565b60405180910390f35b348015610b1857600080fd5b50610b336004803603810190610b2e91906140a0565b611db6565b005b348015610b4157600080fd5b50610b4a611ddf565b604051610b579190614748565b60405180910390f35b348015610b6c57600080fd5b50610b876004803603810190610b829190613ef9565b611e05565b604051610b9491906147d8565b60405180910390f35b348015610ba957600080fd5b50610bc46004803603810190610bbf919061412e565b611e99565b005b6000610bd182611ec5565b9050919050565b600d5481565b606060028054610bed90614dc6565b80601f0160208091040260200160405190810160405280929190818152602001828054610c1990614dc6565b8015610c665780601f10610c3b57610100808354040283529160200191610c66565b820191906000526020600020905b815481529060010190602001808311610c4957829003601f168201915b5050505050905090565b6000610c7b82611f3f565b610cba576040517f08c379a0000000000000000000000000000000000000000000000000000000008152600401610cb1906149b0565b60405180910390fd5b6006600083815260200190815260200160002060009054906101000a900473ffffffffffffffffffffffffffffffffffffffff169050919050565b60116020528060005260406000206000915090508054610d1490614dc6565b80601f0160208091040260200160405190810160405280929190818152602001828054610d4090614dc6565b8015610d8d5780601f10610d6257610100808354040283529160200191610d8d565b820191906000526020600020905b815481529060010190602001808311610d7057829003601f168201915b505050505081565b6000610da08261156e565b90508073ffffffffffffffffffffffffffffffffffffffff168373ffffffffffffffffffffffffffffffffffffffff161415610e11576040517f08c379a0000000000000000000000000000000000000000000000000000000008152600401610e08906149d0565b60405180910390fd5b8073ffffffffffffffffffffffffffffffffffffffff16610e30611fab565b73ffffffffffffffffffffffffffffffffffffffff161480610e5f5750610e5e81610e59611fab565b611e05565b5b610e9e576040517f08c379a0000000000000000000000000000000000000000000000000000000008152600401610e9590614930565b60405180910390fd5b610ea88383611fb3565b505050565b60106020528060005260406000206000915090505481565b6000600a80549050905090565b610ee3610edd611fab565b8261206c565b610f22576040517f08c379a0000000000000000000000000000000000000000000000000000000008152600401610f19906149f0565b60405180910390fd5b610f2d83838361214a565b505050565b6000600c6000838152602001908152602001600020600101549050919050565b6000600d54905090565b6000806000600160008681526020019081526020016000206040518060400160405290816000820160009054906101000a900473ffffffffffffffffffffffffffffffffffffffff1673ffffffffffffffffffffffffffffffffffffffff1673ffffffffffffffffffffffffffffffffffffffff1681526020016000820160149054906101000a90046bffffffffffffffffffffffff166bffffffffffffffffffffffff166bffffffffffffffffffffffff16815250509050600073ffffffffffffffffffffffffffffffffffffffff16816000015173ffffffffffffffffffffffffffffffffffffffff1614156110f25760006040518060400160405290816000820160009054906101000a900473ffffffffffffffffffffffffffffffffffffffff1673ffffffffffffffffffffffffffffffffffffffff1673ffffffffffffffffffffffffffffffffffffffff1681526020016000820160149054906101000a90046bffffffffffffffffffffffff166bffffffffffffffffffffffff166bffffffffffffffffffffffff168152505090505b60006110fc6123b1565b6bffffffffffffffffffffffff1682602001516bffffffffffffffffffffffff16866111289190614c24565b6111329190614bf3565b90508160000151819350935050509250929050565b6000601654905090565b61115a82610f32565b61116b81611166611fab565b6123bb565b6111758383612458565b505050565b600061118583611916565b82106111c6576040517f08c379a00000000000000000000000000000000000000000000000000000000081526004016111bd90614850565b60405180910390fd5b600860008473ffffffffffffffffffffffffffffffffffffffff1673ffffffffffffffffffffffffffffffffffffffff168152602001908152602001600020600083815260200190815260200160002054905092915050565b611227611fab565b73ffffffffffffffffffffffffffffffffffffffff168173ffffffffffffffffffffffffffffffffffffffff1614611294576040517f08c379a000000000000000000000000000000000000000000000000000000000815260040161128b90614a70565b60405180910390fd5b61129e8282612539565b5050565b6000801b6112b7816112b2611fab565b6123bb565b6112c04761261b565b50565b6000600e60009054906101000a900473ffffffffffffffffffffffffffffffffffffffff1673ffffffffffffffffffffffffffffffffffffffff1663aee233b3306040518263ffffffff1660e01b8152600401611320919061472d565b60206040518083038186803b15801561133857600080fd5b505afa15801561134c573d6000803e3d6000fd5b505050506040513d601f19601f82011682018060405250810190611370919061419c565b905090565b60165481565b61139683838360405180602001604052806000815250611c63565b505050565b6113ac6113a6611fab565b8261206c565b6113eb576040517f08c379a00000000000000000000000000000000000000000000000000000000081526004016113e290614a50565b60405180910390fd5b6113f481612843565b50565b6019805461140490614dc6565b80601f016020809104026020016040519081016040528092919081815260200182805461143090614dc6565b801561147d5780601f106114525761010080835404028352916020019161147d565b820191906000526020600020905b81548152906001019060200180831161146057829003601f168201915b505050505081565b600061148f610ec5565b82106114d0576040517f08c379a00000000000000000000000000000000000000000000000000000000081526004016114c790614a10565b60405180910390fd5b600a828154811061150a577f4e487b7100000000000000000000000000000000000000000000000000000000600052603260045260246000fd5b90600052602060002001549050919050565b6000801b6115318161152c611fab565b6123bb565b828260189190611542929190613caa565b50505050565b601560009054906101000a900473ffffffffffffffffffffffffffffffffffffffff1681565b6000806004600084815260200190815260200160002060009054906101000a900473ffffffffffffffffffffffffffffffffffffffff169050600073ffffffffffffffffffffffffffffffffffffffff168173ffffffffffffffffffffffffffffffffffffffff161415611617576040517f08c379a000000000000000000000000000000000000000000000000000000000815260040161160e90614970565b60405180910390fd5b80915050919050565b60007f9f2df0fed2c77648de5860a4cc508cd0818c85b8b8a1ab4ceeef8d981c8956a66116548161164f611fab565b6123bb565b61165e600f61284f565b9150600d5482106116a4576040517f08c379a000000000000000000000000000000000000000000000000000000000815260040161169b90614a30565b60405180910390fd5b6116ae600f61285d565b6116b88383612873565b6000600e60009054906101000a900473ffffffffffffffffffffffffffffffffffffffff1673ffffffffffffffffffffffffffffffffffffffff166329e5d83184426040518363ffffffff1660e01b8152600401611717929190614aab565b60206040518083038186803b15801561172f57600080fd5b505afa158015611743573d6000803e3d6000fd5b505050506040513d601f19601f82011682018060405250810190611767919061419c565b905060006117756012612891565b826117809190614e7c565b905060006117988260126128a690919063ffffffff16565b90508060106000878152602001908152602001600020819055506117c68160126128c090919063ffffffff16565b5050505050919050565b601c80546117dd90614dc6565b80601f016020809104026020016040519081016040528092919081815260200182805461180990614dc6565b80156118565780601f1061182b57610100808354040283529160200191611856565b820191906000526020600020905b81548152906001019060200180831161183957829003601f168201915b505050505081565b6018805461186b90614dc6565b80601f016020809104026020016040519081016040528092919081815260200182805461189790614dc6565b80156118e45780601f106118b9576101008083540402835291602001916118e4565b820191906000526020600020905b8154815290600101906020018083116118c757829003601f168201915b505050505081565b6000601560009054906101000a900473ffffffffffffffffffffffffffffffffffffffff16905090565b60008073ffffffffffffffffffffffffffffffffffffffff168273ffffffffffffffffffffffffffffffffffffffff161415611987576040517f08c379a000000000000000000000000000000000000000000000000000000000815260040161197e90614950565b60405180910390fd5b600560008373ffffffffffffffffffffffffffffffffffffffff1673ffffffffffffffffffffffffffffffffffffffff168152602001908152602001600020549050919050565b6000801b6119e3816119de611fab565b6123bb565b8282601160008781526020019081526020016000209190611a05929190613caa565b5050505050565b601a8054611a1990614dc6565b80601f0160208091040260200160405190810160405280929190818152602001828054611a4590614dc6565b8015611a925780601f10611a6757610100808354040283529160200191611a92565b820191906000526020600020905b815481529060010190602001808311611a7557829003601f168201915b505050505081565b6000601460009054906101000a900473ffffffffffffffffffffffffffffffffffffffff16905090565b6000801b611ad981611ad4611fab565b6123bb565b8282601a9190611aea929190613caa565b50505050565b6000600c600084815260200190815260200160002060000160008373ffffffffffffffffffffffffffffffffffffffff1673ffffffffffffffffffffffffffffffffffffffff16815260200190815260200160002060009054906101000a900460ff16905092915050565b606060038054611b6a90614dc6565b80601f0160208091040260200160405190810160405280929190818152602001828054611b9690614dc6565b8015611be35780601f10611bb857610100808354040283529160200191611be3565b820191906000526020600020905b815481529060010190602001808311611bc657829003601f168201915b5050505050905090565b60008290505b81811015611c2357611c0f8160126128da90919063ffffffff16565b508080611c1b90614e29565b915050611bf3565b505050565b601760009054906101000a90046bffffffffffffffffffffffff1681565b6000801b81565b611c5f611c58611fab565b83836128f4565b5050565b611c74611c6e611fab565b8361206c565b611cb3576040517f08c379a0000000000000000000000000000000000000000000000000000000008152600401611caa906149f0565b60405180910390fd5b611cbf84848484612a61565b50505050565b601b8054611cd290614dc6565b80601f0160208091040260200160405190810160405280929190818152602001828054611cfe90614dc6565b8015611d4b5780601f10611d2057610100808354040283529160200191611d4b565b820191906000526020600020905b815481529060010190602001808311611d2e57829003601f168201915b505050505081565b606060186010600084815260200190815260200160002054604051602001611d7c9291906146cb565b6040516020818303038152906040529050919050565b7f9f2df0fed2c77648de5860a4cc508cd0818c85b8b8a1ab4ceeef8d981c8956a681565b611dbf82610f32565b611dd081611dcb611fab565b6123bb565b611dda8383612539565b505050565b601460009054906101000a900473ffffffffffffffffffffffffffffffffffffffff1681565b6000600760008473ffffffffffffffffffffffffffffffffffffffff1673ffffffffffffffffffffffffffffffffffffffff16815260200190815260200160002060008373ffffffffffffffffffffffffffffffffffffffff1673ffffffffffffffffffffffffffffffffffffffff16815260200190815260200160002060009054906101000a900460ff16905092915050565b6000801b611eae81611ea9611fab565b6123bb565b8282601b9190611ebf929190613caa565b50505050565b60007f7965db0b000000000000000000000000000000000000000000000000000000007bffffffffffffffffffffffffffffffffffffffffffffffffffffffff1916827bffffffffffffffffffffffffffffffffffffffffffffffffffffffff19161480611f385750611f3782612abd565b5b9050919050565b60008073ffffffffffffffffffffffffffffffffffffffff166004600084815260200190815260200160002060009054906101000a900473ffffffffffffffffffffffffffffffffffffffff1673ffffffffffffffffffffffffffffffffffffffff1614159050919050565b600033905090565b816006600083815260200190815260200160002060006101000a81548173ffffffffffffffffffffffffffffffffffffffff021916908373ffffffffffffffffffffffffffffffffffffffff160217905550808273ffffffffffffffffffffffffffffffffffffffff166120268361156e565b73ffffffffffffffffffffffffffffffffffffffff167f8c5be1e5ebec7d5bd14f71427d1e84f3dd0314c0f7b2291e5b200ac8c7c3b92560405160405180910390a45050565b600061207782611f3f565b6120b6576040517f08c379a00000000000000000000000000000000000000000000000000000000081526004016120ad90614910565b60405180910390fd5b60006120c18361156e565b90508073ffffffffffffffffffffffffffffffffffffffff168473ffffffffffffffffffffffffffffffffffffffff16148061213057508373ffffffffffffffffffffffffffffffffffffffff1661211884610c70565b73ffffffffffffffffffffffffffffffffffffffff16145b8061214157506121408185611e05565b5b91505092915050565b8273ffffffffffffffffffffffffffffffffffffffff1661216a8261156e565b73ffffffffffffffffffffffffffffffffffffffff16146121c0576040517f08c379a00000000000000000000000000000000000000000000000000000000081526004016121b790614890565b60405180910390fd5b600073ffffffffffffffffffffffffffffffffffffffff168273ffffffffffffffffffffffffffffffffffffffff161415612230576040517f08c379a0000000000000000000000000000000000000000000000000000000008152600401612227906148d0565b60405180910390fd5b61223b838383612acf565b612246600082611fb3565b6001600560008573ffffffffffffffffffffffffffffffffffffffff1673ffffffffffffffffffffffffffffffffffffffff16815260200190815260200160002060008282546122969190614c7e565b925050819055506001600560008473ffffffffffffffffffffffffffffffffffffffff1673ffffffffffffffffffffffffffffffffffffffff16815260200190815260200160002060008282546122ed9190614b9d565b92505081905550816004600083815260200190815260200160002060006101000a81548173ffffffffffffffffffffffffffffffffffffffff021916908373ffffffffffffffffffffffffffffffffffffffff160217905550808273ffffffffffffffffffffffffffffffffffffffff168473ffffffffffffffffffffffffffffffffffffffff167fddf252ad1be2c89b69c2b068fc378daa952ba7f163c4a11628f55a4df523b3ef60405160405180910390a46123ac838383612adf565b505050565b6000612710905090565b6123c58282611af0565b612454576123ea8173ffffffffffffffffffffffffffffffffffffffff166014612ae4565b6123f88360001c6020612ae4565b6040516020016124099291906146f3565b6040516020818303038152906040526040517f08c379a000000000000000000000000000000000000000000000000000000000815260040161244b919061480e565b60405180910390fd5b5050565b6124628282611af0565b612535576001600c600084815260200190815260200160002060000160008373ffffffffffffffffffffffffffffffffffffffff1673ffffffffffffffffffffffffffffffffffffffff16815260200190815260200160002060006101000a81548160ff0219169083151502179055506124da611fab565b73ffffffffffffffffffffffffffffffffffffffff168173ffffffffffffffffffffffffffffffffffffffff16837f2f8788117e7eff1d82e926ec794901d17c78024a50270940304540a733656f0d60405160405180910390a45b5050565b6125438282611af0565b15612617576000600c600084815260200190815260200160002060000160008373ffffffffffffffffffffffffffffffffffffffff1673ffffffffffffffffffffffffffffffffffffffff16815260200190815260200160002060006101000a81548160ff0219169083151502179055506125bc611fab565b73ffffffffffffffffffffffffffffffffffffffff168173ffffffffffffffffffffffffffffffffffffffff16837ff6391f5c32d9c69d2a47ea670b442974b53935d1edc7fd64eb21e047a839171b60405160405180910390a45b5050565b6000811115612840576000612710600e60009054906101000a900473ffffffffffffffffffffffffffffffffffffffff1673ffffffffffffffffffffffffffffffffffffffff1663d672131b6040518163ffffffff1660e01b8152600401602060405180830381600087803b15801561269357600080fd5b505af11580156126a7573d6000803e3d6000fd5b505050506040513d601f19601f820116820180604052508101906126cb919061419c565b836126d69190614c24565b6126e09190614bf3565b9050600e60009054906101000a900473ffffffffffffffffffffffffffffffffffffffff1673ffffffffffffffffffffffffffffffffffffffff16637dafc0d36040518163ffffffff1660e01b8152600401602060405180830381600087803b15801561274c57600080fd5b505af1158015612760573d6000803e3d6000fd5b505050506040513d601f19601f820116820180604052508101906127849190613ed0565b73ffffffffffffffffffffffffffffffffffffffff166108fc829081150290604051600060405180830381858888f193505050501580156127c9573d6000803e3d6000fd5b50601460009054906101000a900473ffffffffffffffffffffffffffffffffffffffff1673ffffffffffffffffffffffffffffffffffffffff166108fc82846128129190614c7e565b9081150290604051600060405180830381858888f1935050505015801561283d573d6000803e3d6000fd5b50505b50565b61284c81612dde565b50565b600081600001549050919050565b6001816000016000828254019250508190555050565b61288d828260405180602001604052806000815250612df3565b5050565b600061289f82600001612e4e565b9050919050565b60006128b58360000183612e5f565b60001c905092915050565b60006128d2836000018360001b612eb0565b905092915050565b60006128ec836000018360001b613036565b905092915050565b8173ffffffffffffffffffffffffffffffffffffffff168373ffffffffffffffffffffffffffffffffffffffff161415612963576040517f08c379a000000000000000000000000000000000000000000000000000000000815260040161295a906148f0565b60405180910390fd5b80600760008573ffffffffffffffffffffffffffffffffffffffff1673ffffffffffffffffffffffffffffffffffffffff16815260200190815260200160002060008473ffffffffffffffffffffffffffffffffffffffff1673ffffffffffffffffffffffffffffffffffffffff16815260200190815260200160002060006101000a81548160ff0219169083151502179055508173ffffffffffffffffffffffffffffffffffffffff168373ffffffffffffffffffffffffffffffffffffffff167f17307eab39ab6107e8899845ad3d59bd9653f200f220920489ca2b5937696c3183604051612a5491906147d8565b60405180910390a3505050565b612a6c84848461214a565b612a78848484846130a6565b612ab7576040517f08c379a0000000000000000000000000000000000000000000000000000000008152600401612aae90614870565b60405180910390fd5b50505050565b6000612ac88261323d565b9050919050565b612ada8383836132b7565b505050565b505050565b606060006002836002612af79190614c24565b612b019190614b9d565b67ffffffffffffffff811115612b40577f4e487b7100000000000000000000000000000000000000000000000000000000600052604160045260246000fd5b6040519080825280601f01601f191660200182016040528015612b725781602001600182028036833780820191505090505b5090507f300000000000000000000000000000000000000000000000000000000000000081600081518110612bd0577f4e487b7100000000000000000000000000000000000000000000000000000000600052603260045260246000fd5b60200101907effffffffffffffffffffffffffffffffffffffffffffffffffffffffffffff1916908160001a9053507f780000000000000000000000000000000000000000000000000000000000000081600181518110612c5a577f4e487b7100000000000000000000000000000000000000000000000000000000600052603260045260246000fd5b60200101907effffffffffffffffffffffffffffffffffffffffffffffffffffffffffffff1916908160001a90535060006001846002612c9a9190614c24565b612ca49190614b9d565b90505b6001811115612d90577f3031323334353637383961626364656600000000000000000000000000000000600f861660108110612d0c577f4e487b7100000000000000000000000000000000000000000000000000000000600052603260045260246000fd5b1a60f81b828281518110612d49577f4e487b7100000000000000000000000000000000000000000000000000000000600052603260045260246000fd5b60200101907effffffffffffffffffffffffffffffffffffffffffffffffffffffffffffff1916908160001a905350600485901c945080612d8990614d9c565b9050612ca7565b5060008414612dd4576040517f08c379a0000000000000000000000000000000000000000000000000000000008152600401612dcb90614830565b60405180910390fd5b8091505092915050565b612de7816133cb565b612df0816134e8565b50565b612dfd8383613547565b612e0a60008484846130a6565b612e49576040517f08c379a0000000000000000000000000000000000000000000000000000000008152600401612e4090614870565b60405180910390fd5b505050565b600081600001805490509050919050565b6000826000018281548110612e9d577f4e487b7100000000000000000000000000000000000000000000000000000000600052603260045260246000fd5b9060005260206000200154905092915050565b6000808360010160008481526020019081526020016000205490506000811461302a576000600182612ee29190614c7e565b9050600060018660000180549050612efa9190614c7e565b9050818114612fb5576000866000018281548110612f41577f4e487b7100000000000000000000000000000000000000000000000000000000600052603260045260246000fd5b9060005260206000200154905080876000018481548110612f8b577f4e487b7100000000000000000000000000000000000000000000000000000000600052603260045260246000fd5b90600052602060002001819055508387600101600083815260200190815260200160002081905550505b85600001805480612fef577f4e487b7100000000000000000000000000000000000000000000000000000000600052603160045260246000fd5b600190038181906000526020600020016000905590558560010160008681526020019081526020016000206000905560019350505050613030565b60009150505b92915050565b60006130428383613721565b61309b5782600001829080600181540180825580915050600190039060005260206000200160009091909190915055826000018054905083600101600084815260200190815260200160002081905550600190506130a0565b600090505b92915050565b60006130c78473ffffffffffffffffffffffffffffffffffffffff16613744565b15613230578373ffffffffffffffffffffffffffffffffffffffff1663150b7a026130f0611fab565b8786866040518563ffffffff1660e01b81526004016131129493929190614763565b602060405180830381600087803b15801561312c57600080fd5b505af192505050801561315d57506040513d601f19601f8201168201806040525081019061315a9190614105565b60015b6131e0573d806000811461318d576040519150601f19603f3d011682016040523d82523d6000602084013e613192565b606091505b506000815114156131d8576040517f08c379a00000000000000000000000000000000000000000000000000000000081526004016131cf90614870565b60405180910390fd5b805181602001fd5b63150b7a0260e01b7bffffffffffffffffffffffffffffffffffffffffffffffffffffffff1916817bffffffffffffffffffffffffffffffffffffffffffffffffffffffff191614915050613235565b600190505b949350505050565b60007f780e9d63000000000000000000000000000000000000000000000000000000007bffffffffffffffffffffffffffffffffffffffffffffffffffffffff1916827bffffffffffffffffffffffffffffffffffffffffffffffffffffffff191614806132b057506132af82613767565b5b9050919050565b6132c2838383613849565b600073ffffffffffffffffffffffffffffffffffffffff168373ffffffffffffffffffffffffffffffffffffffff161415613305576133008161384e565b613344565b8173ffffffffffffffffffffffffffffffffffffffff168373ffffffffffffffffffffffffffffffffffffffff1614613343576133428382613897565b5b5b600073ffffffffffffffffffffffffffffffffffffffff168273ffffffffffffffffffffffffffffffffffffffff1614156133875761338281613a04565b6133c6565b8273ffffffffffffffffffffffffffffffffffffffff168273ffffffffffffffffffffffffffffffffffffffff16146133c5576133c48282613b47565b5b5b505050565b60006133d68261156e565b90506133e481600084612acf565b6133ef600083611fb3565b6001600560008373ffffffffffffffffffffffffffffffffffffffff1673ffffffffffffffffffffffffffffffffffffffff168152602001908152602001600020600082825461343f9190614c7e565b925050819055506004600083815260200190815260200160002060006101000a81549073ffffffffffffffffffffffffffffffffffffffff021916905581600073ffffffffffffffffffffffffffffffffffffffff168273ffffffffffffffffffffffffffffffffffffffff167fddf252ad1be2c89b69c2b068fc378daa952ba7f163c4a11628f55a4df523b3ef60405160405180910390a46134e481600084612adf565b5050565b60016000828152602001908152602001600020600080820160006101000a81549073ffffffffffffffffffffffffffffffffffffffff02191690556000820160146101000a8154906bffffffffffffffffffffffff0219169055505050565b600073ffffffffffffffffffffffffffffffffffffffff168273ffffffffffffffffffffffffffffffffffffffff1614156135b7576040517f08c379a00000000000000000000000000000000000000000000000000000000081526004016135ae90614990565b60405180910390fd5b6135c081611f3f565b15613600576040517f08c379a00000000000000000000000000000000000000000000000000000000081526004016135f7906148b0565b60405180910390fd5b61360c60008383612acf565b6001600560008473ffffffffffffffffffffffffffffffffffffffff1673ffffffffffffffffffffffffffffffffffffffff168152602001908152602001600020600082825461365c9190614b9d565b92505081905550816004600083815260200190815260200160002060006101000a81548173ffffffffffffffffffffffffffffffffffffffff021916908373ffffffffffffffffffffffffffffffffffffffff160217905550808273ffffffffffffffffffffffffffffffffffffffff16600073ffffffffffffffffffffffffffffffffffffffff167fddf252ad1be2c89b69c2b068fc378daa952ba7f163c4a11628f55a4df523b3ef60405160405180910390a461371d60008383612adf565b5050565b600080836001016000848152602001908152602001600020541415905092915050565b6000808273ffffffffffffffffffffffffffffffffffffffff163b119050919050565b60007f80ac58cd000000000000000000000000000000000000000000000000000000007bffffffffffffffffffffffffffffffffffffffffffffffffffffffff1916827bffffffffffffffffffffffffffffffffffffffffffffffffffffffff1916148061383257507f5b5e139f000000000000000000000000000000000000000000000000000000007bffffffffffffffffffffffffffffffffffffffffffffffffffffffff1916827bffffffffffffffffffffffffffffffffffffffffffffffffffffffff1916145b80613842575061384182613bc6565b5b9050919050565b505050565b600a80549050600b600083815260200190815260200160002081905550600a81908060018154018082558091505060019003906000526020600020016000909190919091505550565b600060016138a484611916565b6138ae9190614c7e565b9050600060096000848152602001908152602001600020549050818114613993576000600860008673ffffffffffffffffffffffffffffffffffffffff1673ffffffffffffffffffffffffffffffffffffffff168152602001908152602001600020600084815260200190815260200160002054905080600860008773ffffffffffffffffffffffffffffffffffffffff1673ffffffffffffffffffffffffffffffffffffffff168152602001908152602001600020600084815260200190815260200160002081905550816009600083815260200190815260200160002081905550505b6009600084815260200190815260200160002060009055600860008573ffffffffffffffffffffffffffffffffffffffff1673ffffffffffffffffffffffffffffffffffffffff16815260200190815260200160002060008381526020019081526020016000206000905550505050565b60006001600a80549050613a189190614c7e565b90506000600b60008481526020019081526020016000205490506000600a8381548110613a6e577f4e487b7100000000000000000000000000000000000000000000000000000000600052603260045260246000fd5b9060005260206000200154905080600a8381548110613ab6577f4e487b7100000000000000000000000000000000000000000000000000000000600052603260045260246000fd5b906000526020600020018190555081600b600083815260200190815260200160002081905550600b600085815260200190815260200160002060009055600a805480613b2b577f4e487b7100000000000000000000000000000000000000000000000000000000600052603160045260246000fd5b6001900381819060005260206000200160009055905550505050565b6000613b5283611916565b905081600860008573ffffffffffffffffffffffffffffffffffffffff1673ffffffffffffffffffffffffffffffffffffffff168152602001908152602001600020600083815260200190815260200160002081905550806009600084815260200190815260200160002081905550505050565b60007f2a55205a000000000000000000000000000000000000000000000000000000007bffffffffffffffffffffffffffffffffffffffffffffffffffffffff1916827bffffffffffffffffffffffffffffffffffffffffffffffffffffffff19161480613c395750613c3882613c40565b5b9050919050565b60007f01ffc9a7000000000000000000000000000000000000000000000000000000007bffffffffffffffffffffffffffffffffffffffffffffffffffffffff1916827bffffffffffffffffffffffffffffffffffffffffffffffffffffffff1916149050919050565b828054613cb690614dc6565b90600052602060002090601f016020900481019282613cd85760008555613d1f565b82601f10613cf157803560ff1916838001178555613d1f565b82800160010185558215613d1f579182015b82811115613d1e578235825591602001919060010190613d03565b5b509050613d2c9190613d30565b5090565b5b80821115613d49576000816000905550600101613d31565b5090565b6000613d60613d5b84614b14565b614aef565b905082815260208101848484011115613d7857600080fd5b613d83848285614d5a565b509392505050565b600081359050613d9a816154eb565b92915050565b600081519050613daf81615502565b92915050565b600081359050613dc481615519565b92915050565b600081359050613dd981615530565b92915050565b600081359050613dee81615547565b92915050565b600081519050613e0381615547565b92915050565b600082601f830112613e1a57600080fd5b8135613e2a848260208601613d4d565b91505092915050565b60008083601f840112613e4557600080fd5b8235905067ffffffffffffffff811115613e5e57600080fd5b602083019150836001820283011115613e7657600080fd5b9250929050565b600081359050613e8c8161555e565b92915050565b600081519050613ea18161555e565b92915050565b600060208284031215613eb957600080fd5b6000613ec784828501613d8b565b91505092915050565b600060208284031215613ee257600080fd5b6000613ef084828501613da0565b91505092915050565b60008060408385031215613f0c57600080fd5b6000613f1a85828601613d8b565b9250506020613f2b85828601613d8b565b9150509250929050565b600080600060608486031215613f4a57600080fd5b6000613f5886828701613d8b565b9350506020613f6986828701613d8b565b9250506040613f7a86828701613e7d565b9150509250925092565b60008060008060808587031215613f9a57600080fd5b6000613fa887828801613d8b565b9450506020613fb987828801613d8b565b9350506040613fca87828801613e7d565b925050606085013567ffffffffffffffff811115613fe757600080fd5b613ff387828801613e09565b91505092959194509250565b6000806040838503121561401257600080fd5b600061402085828601613d8b565b925050602061403185828601613db5565b9150509250929050565b6000806040838503121561404e57600080fd5b600061405c85828601613d8b565b925050602061406d85828601613e7d565b9150509250929050565b60006020828403121561408957600080fd5b600061409784828501613dca565b91505092915050565b600080604083850312156140b357600080fd5b60006140c185828601613dca565b92505060206140d285828601613d8b565b9150509250929050565b6000602082840312156140ee57600080fd5b60006140fc84828501613ddf565b91505092915050565b60006020828403121561411757600080fd5b600061412584828501613df4565b91505092915050565b6000806020838503121561414157600080fd5b600083013567ffffffffffffffff81111561415b57600080fd5b61416785828601613e33565b92509250509250929050565b60006020828403121561418557600080fd5b600061419384828501613e7d565b91505092915050565b6000602082840312156141ae57600080fd5b60006141bc84828501613e92565b91505092915050565b6000806000604084860312156141da57600080fd5b60006141e886828701613e7d565b935050602084013567ffffffffffffffff81111561420557600080fd5b61421186828701613e33565b92509250509250925092565b6000806040838503121561423057600080fd5b600061423e85828601613e7d565b925050602061424f85828601613e7d565b9150509250929050565b61426281614cc4565b82525050565b61427181614cb2565b82525050565b61428081614cd6565b82525050565b61428f81614ce2565b82525050565b60006142a082614b5a565b6142aa8185614b70565b93506142ba818560208601614d69565b6142c381614f69565b840191505092915050565b60006142d982614b65565b6142e38185614b81565b93506142f3818560208601614d69565b6142fc81614f69565b840191505092915050565b600061431282614b65565b61431c8185614b92565b935061432c818560208601614d69565b80840191505092915050565b6000815461434581614dc6565b61434f8186614b92565b9450600182166000811461436a576001811461437b576143ae565b60ff198316865281860193506143ae565b61438485614b45565b60005b838110156143a657815481890152600182019150602081019050614387565b838801955050505b50505092915050565b60006143c4602083614b81565b91506143cf82614f7a565b602082019050919050565b60006143e7602b83614b81565b91506143f282614fa3565b604082019050919050565b600061440a603283614b81565b915061441582614ff2565b604082019050919050565b600061442d602583614b81565b915061443882615041565b604082019050919050565b6000614450601c83614b81565b915061445b82615090565b602082019050919050565b6000614473602483614b81565b915061447e826150b9565b604082019050919050565b6000614496601983614b81565b91506144a182615108565b602082019050919050565b60006144b9602c83614b81565b91506144c482615131565b604082019050919050565b60006144dc603883614b81565b91506144e782615180565b604082019050919050565b60006144ff602a83614b81565b915061450a826151cf565b604082019050919050565b6000614522602983614b81565b915061452d8261521e565b604082019050919050565b6000614545602083614b81565b91506145508261526d565b602082019050919050565b6000614568602c83614b81565b915061457382615296565b604082019050919050565b600061458b602183614b81565b9150614596826152e5565b604082019050919050565b60006145ae603183614b81565b91506145b982615334565b604082019050919050565b60006145d1602c83614b81565b91506145dc82615383565b604082019050919050565b60006145f4601783614b92565b91506145ff826153d2565b601782019050919050565b6000614617601283614b81565b9150614622826153fb565b602082019050919050565b600061463a603083614b81565b915061464582615424565b604082019050919050565b600061465d601183614b92565b915061466882615473565b601182019050919050565b6000614680602f83614b81565b915061468b8261549c565b604082019050919050565b61469f81614d38565b82525050565b6146b66146b182614d38565b614e72565b82525050565b6146c581614d42565b82525050565b60006146d78285614338565b91506146e382846146a5565b6020820191508190509392505050565b60006146fe826145e7565b915061470a8285614307565b915061471582614650565b91506147218284614307565b91508190509392505050565b60006020820190506147426000830184614268565b92915050565b600060208201905061475d6000830184614259565b92915050565b60006080820190506147786000830187614268565b6147856020830186614268565b6147926040830185614696565b81810360608301526147a48184614295565b905095945050505050565b60006040820190506147c46000830185614268565b6147d16020830184614696565b9392505050565b60006020820190506147ed6000830184614277565b92915050565b60006020820190506148086000830184614286565b92915050565b6000602082019050818103600083015261482881846142ce565b905092915050565b60006020820190508181036000830152614849816143b7565b9050919050565b60006020820190508181036000830152614869816143da565b9050919050565b60006020820190508181036000830152614889816143fd565b9050919050565b600060208201905081810360008301526148a981614420565b9050919050565b600060208201905081810360008301526148c981614443565b9050919050565b600060208201905081810360008301526148e981614466565b9050919050565b6000602082019050818103600083015261490981614489565b9050919050565b60006020820190508181036000830152614929816144ac565b9050919050565b60006020820190508181036000830152614949816144cf565b9050919050565b60006020820190508181036000830152614969816144f2565b9050919050565b6000602082019050818103600083015261498981614515565b9050919050565b600060208201905081810360008301526149a981614538565b9050919050565b600060208201905081810360008301526149c98161455b565b9050919050565b600060208201905081810360008301526149e98161457e565b9050919050565b60006020820190508181036000830152614a09816145a1565b9050919050565b60006020820190508181036000830152614a29816145c4565b9050919050565b60006020820190508181036000830152614a498161460a565b9050919050565b60006020820190508181036000830152614a698161462d565b9050919050565b60006020820190508181036000830152614a8981614673565b9050919050565b6000602082019050614aa56000830184614696565b92915050565b6000604082019050614ac06000830185614696565b614acd6020830184614696565b9392505050565b6000602082019050614ae960008301846146bc565b92915050565b6000614af9614b0a565b9050614b058282614df8565b919050565b6000604051905090565b600067ffffffffffffffff821115614b2f57614b2e614f3a565b5b614b3882614f69565b9050602081019050919050565b60008190508160005260206000209050919050565b600081519050919050565b600081519050919050565b600082825260208201905092915050565b600082825260208201905092915050565b600081905092915050565b6000614ba882614d38565b9150614bb383614d38565b9250827fffffffffffffffffffffffffffffffffffffffffffffffffffffffffffffffff03821115614be857614be7614ead565b5b828201905092915050565b6000614bfe82614d38565b9150614c0983614d38565b925082614c1957614c18614edc565b5b828204905092915050565b6000614c2f82614d38565b9150614c3a83614d38565b9250817fffffffffffffffffffffffffffffffffffffffffffffffffffffffffffffffff0483118215151615614c7357614c72614ead565b5b828202905092915050565b6000614c8982614d38565b9150614c9483614d38565b925082821015614ca757614ca6614ead565b5b828203905092915050565b6000614cbd82614d18565b9050919050565b6000614ccf82614d18565b9050919050565b60008115159050919050565b6000819050919050565b60007fffffffff0000000000000000000000000000000000000000000000000000000082169050919050565b600073ffffffffffffffffffffffffffffffffffffffff82169050919050565b6000819050919050565b60006bffffffffffffffffffffffff82169050919050565b82818337600083830152505050565b60005b83811015614d87578082015181840152602081019050614d6c565b83811115614d96576000848401525b50505050565b6000614da782614d38565b91506000821415614dbb57614dba614ead565b5b600182039050919050565b60006002820490506001821680614dde57607f821691505b60208210811415614df257614df1614f0b565b5b50919050565b614e0182614f69565b810181811067ffffffffffffffff82111715614e2057614e1f614f3a565b5b80604052505050565b6000614e3482614d38565b91507fffffffffffffffffffffffffffffffffffffffffffffffffffffffffffffffff821415614e6757614e66614ead565b5b600182019050919050565b6000819050919050565b6000614e8782614d38565b9150614e9283614d38565b925082614ea257614ea1614edc565b5b828206905092915050565b7f4e487b7100000000000000000000000000000000000000000000000000000000600052601160045260246000fd5b7f4e487b7100000000000000000000000000000000000000000000000000000000600052601260045260246000fd5b7f4e487b7100000000000000000000000000000000000000000000000000000000600052602260045260246000fd5b7f4e487b7100000000000000000000000000000000000000000000000000000000600052604160045260246000fd5b6000601f19601f8301169050919050565b7f537472696e67733a20686578206c656e67746820696e73756666696369656e74600082015250565b7f455243373231456e756d657261626c653a206f776e657220696e646578206f7560008201527f74206f6620626f756e6473000000000000000000000000000000000000000000602082015250565b7f4552433732313a207472616e7366657220746f206e6f6e20455243373231526560008201527f63656976657220696d706c656d656e7465720000000000000000000000000000602082015250565b7f4552433732313a207472616e736665722066726f6d20696e636f72726563742060008201527f6f776e6572000000000000000000000000000000000000000000000000000000602082015250565b7f4552433732313a20746f6b656e20616c7265616479206d696e74656400000000600082015250565b7f4552433732313a207472616e7366657220746f20746865207a65726f2061646460008201527f7265737300000000000000000000000000000000000000000000000000000000602082015250565b7f4552433732313a20617070726f766520746f2063616c6c657200000000000000600082015250565b7f4552433732313a206f70657261746f7220717565727920666f72206e6f6e657860008201527f697374656e7420746f6b656e0000000000000000000000000000000000000000602082015250565b7f4552433732313a20617070726f76652063616c6c6572206973206e6f74206f7760008201527f6e6572206e6f7220617070726f76656420666f7220616c6c0000000000000000602082015250565b7f4552433732313a2062616c616e636520717565727920666f7220746865207a6560008201527f726f206164647265737300000000000000000000000000000000000000000000602082015250565b7f4552433732313a206f776e657220717565727920666f72206e6f6e657869737460008201527f656e7420746f6b656e0000000000000000000000000000000000000000000000602082015250565b7f4552433732313a206d696e7420746f20746865207a65726f2061646472657373600082015250565b7f4552433732313a20617070726f76656420717565727920666f72206e6f6e657860008201527f697374656e7420746f6b656e0000000000000000000000000000000000000000602082015250565b7f4552433732313a20617070726f76616c20746f2063757272656e74206f776e6560008201527f7200000000000000000000000000000000000000000000000000000000000000602082015250565b7f4552433732313a207472616e736665722063616c6c6572206973206e6f74206f60008201527f776e6572206e6f7220617070726f766564000000000000000000000000000000602082015250565b7f455243373231456e756d657261626c653a20676c6f62616c20696e646578206f60008201527f7574206f6620626f756e64730000000000000000000000000000000000000000602082015250565b7f416363657373436f6e74726f6c3a206163636f756e7420000000000000000000600082015250565b7f737570706c792063617020726561636865640000000000000000000000000000600082015250565b7f4552433732314275726e61626c653a2063616c6c6572206973206e6f74206f7760008201527f6e6572206e6f7220617070726f76656400000000000000000000000000000000602082015250565b7f206973206d697373696e6720726f6c6520000000000000000000000000000000600082015250565b7f416363657373436f6e74726f6c3a2063616e206f6e6c792072656e6f756e636560008201527f20726f6c657320666f722073656c660000000000000000000000000000000000602082015250565b6154f481614cb2565b81146154ff57600080fd5b50565b61550b81614cc4565b811461551657600080fd5b50565b61552281614cd6565b811461552d57600080fd5b50565b61553981614ce2565b811461554457600080fd5b50565b61555081614cec565b811461555b57600080fd5b50565b61556781614d38565b811461557257600080fd5b5056fea2646970667358221220c7fba184ad20a7d509865b556eb2859c9922bd1a8a06d525b1fea95af4d1d4d064736f6c63430008020033",
  "linkReferences": {},
  "deployedLinkReferences": {}
}