{
  "_format": "hh-sol-artifact-1",
  "contractName": "FineNFT",
  "sourceName": "contracts/FineNFT.sol",
  "abi": [
    {
      "inputs": [
        {
          "internalType": "address",
          "name": "coreAddress",
          "type": "address"
        },
        {
          "internalType": "address",
          "name": "shopAddress",
          "type": "address"
        }
      ],
      "stateMutability": "nonpayable",
      "type": "constructor"
    },
    {
      "anonymous": false,
      "inputs": [
        {
          "indexed": true,
          "internalType": "address",
          "name": "owner",
          "type": "address"
        },
        {
          "indexed": true,
          "internalType": "address",
          "name": "approved",
          "type": "address"
        },
        {
          "indexed": true,
          "internalType": "uint256",
          "name": "tokenId",
          "type": "uint256"
        }
      ],
      "name": "Approval",
      "type": "event"
    },
    {
      "anonymous": false,
      "inputs": [
        {
          "indexed": true,
          "internalType": "address",
          "name": "owner",
          "type": "address"
        },
        {
          "indexed": true,
          "internalType": "address",
          "name": "operator",
          "type": "address"
        },
        {
          "indexed": false,
          "internalType": "bool",
          "name": "approved",
          "type": "bool"
        }
      ],
      "name": "ApprovalForAll",
      "type": "event"
    },
    {
      "anonymous": false,
      "inputs": [
        {
          "indexed": true,
          "internalType": "bytes32",
          "name": "role",
          "type": "bytes32"
        },
        {
          "indexed": true,
          "internalType": "bytes32",
          "name": "previousAdminRole",
          "type": "bytes32"
        },
        {
          "indexed": true,
          "internalType": "bytes32",
          "name": "newAdminRole",
          "type": "bytes32"
        }
      ],
      "name": "RoleAdminChanged",
      "type": "event"
    },
    {
      "anonymous": false,
      "inputs": [
        {
          "indexed": true,
          "internalType": "bytes32",
          "name": "role",
          "type": "bytes32"
        },
        {
          "indexed": true,
          "internalType": "address",
          "name": "account",
          "type": "address"
        },
        {
          "indexed": true,
          "internalType": "address",
          "name": "sender",
          "type": "address"
        }
      ],
      "name": "RoleGranted",
      "type": "event"
    },
    {
      "anonymous": false,
      "inputs": [
        {
          "indexed": true,
          "internalType": "bytes32",
          "name": "role",
          "type": "bytes32"
        },
        {
          "indexed": true,
          "internalType": "address",
          "name": "account",
          "type": "address"
        },
        {
          "indexed": true,
          "internalType": "address",
          "name": "sender",
          "type": "address"
        }
      ],
      "name": "RoleRevoked",
      "type": "event"
    },
    {
      "anonymous": false,
      "inputs": [
        {
          "indexed": true,
          "internalType": "address",
          "name": "from",
          "type": "address"
        },
        {
          "indexed": true,
          "internalType": "address",
          "name": "to",
          "type": "address"
        },
        {
          "indexed": true,
          "internalType": "uint256",
          "name": "tokenId",
          "type": "uint256"
        }
      ],
      "name": "Transfer",
      "type": "event"
    },
    {
      "inputs": [],
      "name": "DEFAULT_ADMIN_ROLE",
      "outputs": [
        {
          "internalType": "bytes32",
          "name": "",
          "type": "bytes32"
        }
      ],
      "stateMutability": "view",
      "type": "function"
    },
    {
      "inputs": [],
      "name": "MINTER_ROLE",
      "outputs": [
        {
          "internalType": "bytes32",
          "name": "",
          "type": "bytes32"
        }
      ],
      "stateMutability": "view",
      "type": "function"
    },
    {
      "inputs": [],
      "name": "TOKEN_LIMIT",
      "outputs": [
        {
          "internalType": "uint256",
          "name": "",
          "type": "uint256"
        }
      ],
      "stateMutability": "view",
      "type": "function"
    },
    {
      "inputs": [],
      "name": "additionalPayee",
      "outputs": [
        {
          "internalType": "address payable",
          "name": "",
          "type": "address"
        }
      ],
      "stateMutability": "view",
      "type": "function"
    },
    {
      "inputs": [],
      "name": "additionalPayeePercentage",
      "outputs": [
        {
          "internalType": "uint256",
          "name": "",
          "type": "uint256"
        }
      ],
      "stateMutability": "view",
      "type": "function"
    },
    {
      "inputs": [
        {
          "internalType": "address",
          "name": "to",
          "type": "address"
        },
        {
          "internalType": "uint256",
          "name": "tokenId",
          "type": "uint256"
        }
      ],
      "name": "approve",
      "outputs": [],
      "stateMutability": "nonpayable",
      "type": "function"
    },
    {
      "inputs": [],
      "name": "artist",
      "outputs": [
        {
          "internalType": "string",
          "name": "",
          "type": "string"
        }
      ],
      "stateMutability": "view",
      "type": "function"
    },
    {
      "inputs": [],
      "name": "artistAddress",
      "outputs": [
        {
          "internalType": "address payable",
          "name": "",
          "type": "address"
        }
      ],
      "stateMutability": "view",
      "type": "function"
    },
    {
      "inputs": [
        {
          "internalType": "uint256",
          "name": "",
          "type": "uint256"
        }
      ],
      "name": "artworkId",
      "outputs": [
        {
          "internalType": "uint256",
          "name": "",
          "type": "uint256"
        }
      ],
      "stateMutability": "view",
      "type": "function"
    },
    {
      "inputs": [
        {
          "internalType": "address",
          "name": "owner",
          "type": "address"
        }
      ],
      "name": "balanceOf",
      "outputs": [
        {
          "internalType": "uint256",
          "name": "",
          "type": "uint256"
        }
      ],
      "stateMutability": "view",
      "type": "function"
    },
    {
      "inputs": [],
      "name": "baseURI",
      "outputs": [
        {
          "internalType": "string",
          "name": "",
          "type": "string"
        }
      ],
      "stateMutability": "view",
      "type": "function"
    },
    {
      "inputs": [
        {
          "internalType": "uint256",
          "name": "tokenId",
          "type": "uint256"
        }
      ],
      "name": "burn",
      "outputs": [],
      "stateMutability": "nonpayable",
      "type": "function"
    },
    {
      "inputs": [],
      "name": "description",
      "outputs": [
        {
          "internalType": "string",
          "name": "",
          "type": "string"
        }
      ],
      "stateMutability": "view",
      "type": "function"
    },
    {
      "inputs": [],
      "name": "getAdditionalPayee",
      "outputs": [
        {
          "internalType": "address payable",
          "name": "",
          "type": "address"
        }
      ],
      "stateMutability": "view",
      "type": "function"
    },
    {
      "inputs": [],
      "name": "getAdditionalPayeePercentage",
      "outputs": [
        {
          "internalType": "uint256",
          "name": "",
          "type": "uint256"
        }
      ],
      "stateMutability": "view",
      "type": "function"
    },
    {
      "inputs": [
        {
          "internalType": "uint256",
          "name": "tokenId",
          "type": "uint256"
        }
      ],
      "name": "getApproved",
      "outputs": [
        {
          "internalType": "address",
          "name": "",
          "type": "address"
        }
      ],
      "stateMutability": "view",
      "type": "function"
    },
    {
      "inputs": [],
      "name": "getArtistAddress",
      "outputs": [
        {
          "internalType": "address payable",
          "name": "",
          "type": "address"
        }
      ],
      "stateMutability": "view",
      "type": "function"
    },
    {
      "inputs": [
        {
          "internalType": "bytes32",
          "name": "role",
          "type": "bytes32"
        }
      ],
      "name": "getRoleAdmin",
      "outputs": [
        {
          "internalType": "bytes32",
          "name": "",
          "type": "bytes32"
        }
      ],
      "stateMutability": "view",
      "type": "function"
    },
    {
      "inputs": [],
      "name": "getTokenLimit",
      "outputs": [
        {
          "internalType": "uint256",
          "name": "",
          "type": "uint256"
        }
      ],
      "stateMutability": "view",
      "type": "function"
    },
    {
      "inputs": [
        {
          "internalType": "bytes32",
          "name": "role",
          "type": "bytes32"
        },
        {
          "internalType": "address",
          "name": "account",
          "type": "address"
        }
      ],
      "name": "grantRole",
      "outputs": [],
      "stateMutability": "nonpayable",
      "type": "function"
    },
    {
      "inputs": [
        {
          "internalType": "bytes32",
          "name": "role",
          "type": "bytes32"
        },
        {
          "internalType": "address",
          "name": "account",
          "type": "address"
        }
      ],
      "name": "hasRole",
      "outputs": [
        {
          "internalType": "bool",
          "name": "",
          "type": "bool"
        }
      ],
      "stateMutability": "view",
      "type": "function"
    },
    {
      "inputs": [
        {
          "internalType": "address",
          "name": "owner",
          "type": "address"
        },
        {
          "internalType": "address",
          "name": "operator",
          "type": "address"
        }
      ],
      "name": "isApprovedForAll",
      "outputs": [
        {
          "internalType": "bool",
          "name": "",
          "type": "bool"
        }
      ],
      "stateMutability": "view",
      "type": "function"
    },
    {
      "inputs": [],
      "name": "license",
      "outputs": [
        {
          "internalType": "string",
          "name": "",
          "type": "string"
        }
      ],
      "stateMutability": "view",
      "type": "function"
    },
    {
      "inputs": [
        {
          "internalType": "address",
          "name": "to",
          "type": "address"
        }
      ],
      "name": "mint",
      "outputs": [
        {
          "internalType": "uint256",
          "name": "tokenId",
          "type": "uint256"
        }
      ],
      "stateMutability": "nonpayable",
      "type": "function"
    },
    {
      "inputs": [],
      "name": "name",
      "outputs": [
        {
          "internalType": "string",
          "name": "",
          "type": "string"
        }
      ],
      "stateMutability": "view",
      "type": "function"
    },
    {
      "inputs": [
        {
          "internalType": "uint256",
          "name": "tokenId",
          "type": "uint256"
        }
      ],
      "name": "ownerOf",
      "outputs": [
        {
          "internalType": "address",
          "name": "",
          "type": "address"
        }
      ],
      "stateMutability": "view",
      "type": "function"
    },
    {
      "inputs": [],
      "name": "projectId",
      "outputs": [
        {
          "internalType": "uint256",
          "name": "",
          "type": "uint256"
        }
      ],
      "stateMutability": "view",
      "type": "function"
    },
    {
      "inputs": [
        {
          "internalType": "bytes32",
          "name": "role",
          "type": "bytes32"
        },
        {
          "internalType": "address",
          "name": "account",
          "type": "address"
        }
      ],
      "name": "renounceRole",
      "outputs": [],
      "stateMutability": "nonpayable",
      "type": "function"
    },
    {
      "inputs": [
        {
          "internalType": "bytes32",
          "name": "role",
          "type": "bytes32"
        },
        {
          "internalType": "address",
          "name": "account",
          "type": "address"
        }
      ],
      "name": "revokeRole",
      "outputs": [],
      "stateMutability": "nonpayable",
      "type": "function"
    },
    {
      "inputs": [
        {
          "internalType": "uint256",
          "name": "_tokenId",
          "type": "uint256"
        },
        {
          "internalType": "uint256",
          "name": "_salePrice",
          "type": "uint256"
        }
      ],
      "name": "royaltyInfo",
      "outputs": [
        {
          "internalType": "address",
          "name": "",
          "type": "address"
        },
        {
          "internalType": "uint256",
          "name": "",
          "type": "uint256"
        }
      ],
      "stateMutability": "view",
      "type": "function"
    },
    {
      "inputs": [],
      "name": "royaltyPercent",
      "outputs": [
        {
          "internalType": "uint96",
          "name": "",
          "type": "uint96"
        }
      ],
      "stateMutability": "view",
      "type": "function"
    },
    {
      "inputs": [
        {
          "internalType": "address",
          "name": "from",
          "type": "address"
        },
        {
          "internalType": "address",
          "name": "to",
          "type": "address"
        },
        {
          "internalType": "uint256",
          "name": "tokenId",
          "type": "uint256"
        }
      ],
      "name": "safeTransferFrom",
      "outputs": [],
      "stateMutability": "nonpayable",
      "type": "function"
    },
    {
      "inputs": [
        {
          "internalType": "address",
          "name": "from",
          "type": "address"
        },
        {
          "internalType": "address",
          "name": "to",
          "type": "address"
        },
        {
          "internalType": "uint256",
          "name": "tokenId",
          "type": "uint256"
        },
        {
          "internalType": "bytes",
          "name": "_data",
          "type": "bytes"
        }
      ],
      "name": "safeTransferFrom",
      "outputs": [],
      "stateMutability": "nonpayable",
      "type": "function"
    },
    {
      "inputs": [
        {
          "internalType": "uint256",
          "name": "",
          "type": "uint256"
        }
      ],
      "name": "scripts",
      "outputs": [
        {
          "internalType": "string",
          "name": "",
          "type": "string"
        }
      ],
      "stateMutability": "view",
      "type": "function"
    },
    {
      "inputs": [
        {
          "internalType": "address",
          "name": "operator",
          "type": "address"
        },
        {
          "internalType": "bool",
          "name": "approved",
          "type": "bool"
        }
      ],
      "name": "setApprovalForAll",
      "outputs": [],
      "stateMutability": "nonpayable",
      "type": "function"
    },
    {
      "inputs": [
        {
          "internalType": "string",
          "name": "_uri",
          "type": "string"
        }
      ],
      "name": "setBaseURI",
      "outputs": [],
      "stateMutability": "nonpayable",
      "type": "function"
    },
    {
      "inputs": [
        {
          "internalType": "string",
          "name": "_desc",
          "type": "string"
        }
      ],
      "name": "setDescription",
      "outputs": [],
      "stateMutability": "nonpayable",
      "type": "function"
    },
    {
      "inputs": [
        {
          "internalType": "uint256",
          "name": "index",
          "type": "uint256"
        },
        {
          "internalType": "string",
          "name": "script",
          "type": "string"
        }
      ],
      "name": "setScript",
      "outputs": [],
      "stateMutability": "nonpayable",
      "type": "function"
    },
    {
      "inputs": [
        {
          "internalType": "string",
          "name": "_url",
          "type": "string"
        }
      ],
      "name": "setWebsite",
      "outputs": [],
      "stateMutability": "nonpayable",
      "type": "function"
    },
    {
      "inputs": [
        {
          "internalType": "bytes4",
          "name": "interfaceId",
          "type": "bytes4"
        }
      ],
      "name": "supportsInterface",
      "outputs": [
        {
          "internalType": "bool",
          "name": "",
          "type": "bool"
        }
      ],
      "stateMutability": "view",
      "type": "function"
    },
    {
      "inputs": [],
      "name": "symbol",
      "outputs": [
        {
          "internalType": "string",
          "name": "",
          "type": "string"
        }
      ],
      "stateMutability": "view",
      "type": "function"
    },
    {
      "inputs": [
        {
          "internalType": "uint256",
          "name": "index",
          "type": "uint256"
        }
      ],
      "name": "tokenByIndex",
      "outputs": [
        {
          "internalType": "uint256",
          "name": "",
          "type": "uint256"
        }
      ],
      "stateMutability": "view",
      "type": "function"
    },
    {
      "inputs": [
        {
          "internalType": "address",
          "name": "owner",
          "type": "address"
        },
        {
          "internalType": "uint256",
          "name": "index",
          "type": "uint256"
        }
      ],
      "name": "tokenOfOwnerByIndex",
      "outputs": [
        {
          "internalType": "uint256",
          "name": "",
          "type": "uint256"
        }
      ],
      "stateMutability": "view",
      "type": "function"
    },
    {
      "inputs": [
        {
          "internalType": "uint256",
          "name": "tokenId",
          "type": "uint256"
        }
      ],
      "name": "tokenURI",
      "outputs": [
        {
          "internalType": "string",
          "name": "",
          "type": "string"
        }
      ],
      "stateMutability": "view",
      "type": "function"
    },
    {
      "inputs": [],
      "name": "totalSupply",
      "outputs": [
        {
          "internalType": "uint256",
          "name": "",
          "type": "uint256"
        }
      ],
      "stateMutability": "view",
      "type": "function"
    },
    {
      "inputs": [
        {
          "internalType": "address",
          "name": "from",
          "type": "address"
        },
        {
          "internalType": "address",
          "name": "to",
          "type": "address"
        },
        {
          "internalType": "uint256",
          "name": "tokenId",
          "type": "uint256"
        }
      ],
      "name": "transferFrom",
      "outputs": [],
      "stateMutability": "nonpayable",
      "type": "function"
    },
    {
      "inputs": [],
      "name": "website",
      "outputs": [
        {
          "internalType": "string",
          "name": "",
          "type": "string"
        }
      ],
      "stateMutability": "view",
      "type": "function"
    },
    {
      "inputs": [],
      "name": "withdraw",
      "outputs": [],
      "stateMutability": "nonpayable",
      "type": "function"
    },
    {
      "stateMutability": "payable",
      "type": "receive"
    }
  ],
  "bytecode": "0x60806040526103e8600d55737a832c86002323a5de3a317b3281eb88ec3b2c00601460006101000a81548173ffffffffffffffffffffffffffffffffffffffff021916908373ffffffffffffffffffffffffffffffffffffffff1602179055506000601560006101000a81548173ffffffffffffffffffffffffffffffffffffffff021916908373ffffffffffffffffffffffffffffffffffffffff16021790555060006016556102ee601760006101000a8154816bffffffffffffffffffffffff02191690836bffffffffffffffffffffffff1602179055506040518060400160405280600e81526020017f4950465320484153482048455245000000000000000000000000000000000000815250601890805190602001906200012692919062000832565b506040518060400160405280600481526020017f66696e6500000000000000000000000000000000000000000000000000000000815250601990805190602001906200017492919062000832565b506040518060400160405280601581526020017f612073616d706c65204e465420666f722046494e450000000000000000000000815250601a9080519060200190620001c292919062000832565b506040518060400160405280601881526020017f68747470733a2f2f6170692e66696e652e6469676974616c0000000000000000815250601b90805190602001906200021092919062000832565b506040518060400160405280600381526020017f4d49540000000000000000000000000000000000000000000000000000000000815250601c90805190602001906200025e92919062000832565b503480156200026c57600080fd5b5060405162005e4938038062005e498339818101604052810190620002929190620008f9565b6040518060400160405280600c81526020017f46494e45204469676974616c00000000000000000000000000000000000000008152506040518060400160405280600481526020017f46494e450000000000000000000000000000000000000000000000000000000081525081600290805190602001906200031692919062000832565b5080600390805190602001906200032f92919062000832565b505050620003476000801b336200046160201b60201c565b620003797f9f2df0fed2c77648de5860a4cc508cd0818c85b8b8a1ab4ceeef8d981c8956a6336200046160201b60201c565b620003ab7f9f2df0fed2c77648de5860a4cc508cd0818c85b8b8a1ab4ceeef8d981c8956a6826200046160201b60201c565b81600e60006101000a81548173ffffffffffffffffffffffffffffffffffffffff021916908373ffffffffffffffffffffffffffffffffffffffff1602179055506200041830601760009054906101000a90046bffffffffffffffffffffffff166200055360201b60201c565b60005b600d54811015620004585762000441816012620006f660201b62001e8a1790919060201c565b5080806200044f9062000a51565b9150506200041b565b50505062000b8f565b6200047382826200071860201b60201c565b6200054f576001600c600084815260200190815260200160002060000160008373ffffffffffffffffffffffffffffffffffffffff1673ffffffffffffffffffffffffffffffffffffffff16815260200190815260200160002060006101000a81548160ff021916908315150217905550620004f46200078360201b60201c565b73ffffffffffffffffffffffffffffffffffffffff168173ffffffffffffffffffffffffffffffffffffffff16837f2f8788117e7eff1d82e926ec794901d17c78024a50270940304540a733656f0d60405160405180910390a45b5050565b620005636200078b60201b60201c565b6bffffffffffffffffffffffff16816bffffffffffffffffffffffff161115620005c4576040517f08c379a0000000000000000000000000000000000000000000000000000000008152600401620005bb9062000988565b60405180910390fd5b600073ffffffffffffffffffffffffffffffffffffffff168273ffffffffffffffffffffffffffffffffffffffff16141562000637576040517f08c379a00000000000000000000000000000000000000000000000000000000081526004016200062e90620009aa565b60405180910390fd5b60405180604001604052808373ffffffffffffffffffffffffffffffffffffffff168152602001826bffffffffffffffffffffffff168152506000808201518160000160006101000a81548173ffffffffffffffffffffffffffffffffffffffff021916908373ffffffffffffffffffffffffffffffffffffffff16021790555060208201518160000160146101000a8154816bffffffffffffffffffffffff02191690836bffffffffffffffffffffffff1602179055509050505050565b600062000710836000018360001b6200079560201b60201c565b905092915050565b6000600c600084815260200190815260200160002060000160008373ffffffffffffffffffffffffffffffffffffffff1673ffffffffffffffffffffffffffffffffffffffff16815260200190815260200160002060009054906101000a900460ff16905092915050565b600033905090565b6000612710905090565b6000620007a983836200080f60201b60201c565b6200080457826000018290806001815401808255809150506001900390600052602060002001600090919091909150558260000180549050836001016000848152602001908152602001600020819055506001905062000809565b600090505b92915050565b600080836001016000848152602001908152602001600020541415905092915050565b828054620008409062000a1b565b90600052602060002090601f016020900481019282620008645760008555620008b0565b82601f106200087f57805160ff1916838001178555620008b0565b82800160010185558215620008b0579182015b82811115620008af57825182559160200191906001019062000892565b5b509050620008bf9190620008c3565b5090565b5b80821115620008de576000816000905550600101620008c4565b5090565b600081519050620008f38162000b75565b92915050565b600080604083850312156200090d57600080fd5b60006200091d85828601620008e2565b92505060206200093085828601620008e2565b9150509250929050565b600062000949602a83620009cc565b9150620009568262000afd565b604082019050919050565b600062000970601983620009cc565b91506200097d8262000b4c565b602082019050919050565b60006020820190508181036000830152620009a3816200093a565b9050919050565b60006020820190508181036000830152620009c58162000961565b9050919050565b600082825260208201905092915050565b6000620009ea82620009f1565b9050919050565b600073ffffffffffffffffffffffffffffffffffffffff82169050919050565b6000819050919050565b6000600282049050600182168062000a3457607f821691505b6020821081141562000a4b5762000a4a62000ace565b5b50919050565b600062000a5e8262000a11565b91507fffffffffffffffffffffffffffffffffffffffffffffffffffffffffffffffff82141562000a945762000a9362000a9f565b5b600182019050919050565b7f4e487b7100000000000000000000000000000000000000000000000000000000600052601160045260246000fd5b7f4e487b7100000000000000000000000000000000000000000000000000000000600052602260045260246000fd5b7f455243323938313a20726f79616c7479206665652077696c6c2065786365656460008201527f2073616c65507269636500000000000000000000000000000000000000000000602082015250565b7f455243323938313a20696e76616c696420726563656976657200000000000000600082015250565b62000b8081620009dd565b811462000b8c57600080fd5b50565b6152aa8062000b9f6000396000f3fe6080604052600436106102975760003560e01c806359748cb21161015a57806395d89b41116100c1578063c87b56dd1161007a578063c87b56dd14610a60578063d539139314610a9d578063d547741f14610ac8578063d7eb3f3a14610af1578063e985e9c514610b1c578063f87f44b914610b595761029e565b806395d89b41146109625780639f67756d1461098d578063a217fddf146109b8578063a22cb465146109e3578063b88d4fde14610a0c578063beb0a41614610a355761029e565b806370a082311161011357806370a082311461084057806371199d301461087d5780637284e416146108a65780638cbe8d80146108d157806390c3f38f146108fc57806391d14854146109255761029e565b806359748cb21461071a5780636352211e146107455780636a627842146107825780636b87d24c146107bf5780636c0360eb146107ea5780636ff314c7146108155761029e565b80632cc88974116101fe57806340138ff1116101b757806340138ff11461060c57806342842e0e1461063757806342966c681461066057806343bc1612146106895780634f6ccce7146106b457806355f804b3146106f15761029e565b80632cc88974146105105780632f2ff15d1461053b5780632f745c591461056457806336568abe146105a15780633ccfd60b146105ca5780633fafa127146105e15761029e565b8063176f5b0911610250578063176f5b09146103d957806318160ddd1461041657806323b872dd14610441578063248a9ca31461046a57806328485586146104a75780632a55205a146104d25761029e565b806301ffc9a7146102a3578063031bd4c4146102e057806306fdde031461030b578063081812fc1461033657806308ff7f6114610373578063095ea7b3146103b05761029e565b3661029e57005b600080fd5b3480156102af57600080fd5b506102ca60048036038101906102c59190613e3b565b610b82565b6040516102d79190614537565b60405180910390f35b3480156102ec57600080fd5b506102f5610b94565b60405161030291906147ef565b60405180910390f35b34801561031757600080fd5b50610320610b9a565b60405161032d919061456d565b60405180910390f35b34801561034257600080fd5b5061035d60048036038101906103589190613ed2565b610c2c565b60405161036a919061448c565b60405180910390f35b34801561037f57600080fd5b5061039a60048036038101906103959190613ed2565b610cb1565b6040516103a7919061456d565b60405180910390f35b3480156103bc57600080fd5b506103d760048036038101906103d29190613d9a565b610d51565b005b3480156103e557600080fd5b5061040060048036038101906103fb9190613ed2565b610e69565b60405161040d91906147ef565b60405180910390f35b34801561042257600080fd5b5061042b610e81565b60405161043891906147ef565b60405180910390f35b34801561044d57600080fd5b5061046860048036038101906104639190613c94565b610e8e565b005b34801561047657600080fd5b50610491600480360381019061048c9190613dd6565b610eee565b60405161049e9190614552565b60405180910390f35b3480156104b357600080fd5b506104bc610f0e565b6040516104c991906147ef565b60405180910390f35b3480156104de57600080fd5b506104f960048036038101906104f49190613f7c565b610f18565b60405161050792919061450e565b60405180910390f35b34801561051c57600080fd5b50610525611103565b60405161053291906147ef565b60405180910390f35b34801561054757600080fd5b50610562600480360381019061055d9190613dff565b61110d565b005b34801561057057600080fd5b5061058b60048036038101906105869190613d9a565b611136565b60405161059891906147ef565b60405180910390f35b3480156105ad57600080fd5b506105c860048036038101906105c39190613dff565b6111db565b005b3480156105d657600080fd5b506105df61125e565b005b3480156105ed57600080fd5b506105f66112c3565b60405161060391906147ef565b60405180910390f35b34801561061857600080fd5b50610621611375565b60405161062e91906147ef565b60405180910390f35b34801561064357600080fd5b5061065e60048036038101906106599190613c94565b61137b565b005b34801561066c57600080fd5b5061068760048036038101906106829190613ed2565b61139b565b005b34801561069557600080fd5b5061069e6113f7565b6040516106ab919061456d565b60405180910390f35b3480156106c057600080fd5b506106db60048036038101906106d69190613ed2565b611485565b6040516106e891906147ef565b60405180910390f35b3480156106fd57600080fd5b5061071860048036038101906107139190613e8d565b61151c565b005b34801561072657600080fd5b5061072f611548565b60405161073c91906144a7565b60405180910390f35b34801561075157600080fd5b5061076c60048036038101906107679190613ed2565b61156e565b604051610779919061448c565b60405180910390f35b34801561078e57600080fd5b506107a960048036038101906107a49190613c2f565b611620565b6040516107b691906147ef565b60405180910390f35b3480156107cb57600080fd5b506107d46117d0565b6040516107e1919061456d565b60405180910390f35b3480156107f657600080fd5b506107ff61185e565b60405161080c919061456d565b60405180910390f35b34801561082157600080fd5b5061082a6118ec565b60405161083791906144a7565b60405180910390f35b34801561084c57600080fd5b5061086760048036038101906108629190613c2f565b611916565b60405161087491906147ef565b60405180910390f35b34801561088957600080fd5b506108a4600480360381019061089f9190613f24565b6119ce565b005b3480156108b257600080fd5b506108bb611a0c565b6040516108c8919061456d565b60405180910390f35b3480156108dd57600080fd5b506108e6611a9a565b6040516108f391906144a7565b60405180910390f35b34801561090857600080fd5b50610923600480360381019061091e9190613e8d565b611ac4565b005b34801561093157600080fd5b5061094c60048036038101906109479190613dff565b611af0565b6040516109599190614537565b60405180910390f35b34801561096e57600080fd5b50610977611b5b565b604051610984919061456d565b60405180910390f35b34801561099957600080fd5b506109a2611bed565b6040516109af9190614833565b60405180910390f35b3480156109c457600080fd5b506109cd611c0b565b6040516109da9190614552565b60405180910390f35b3480156109ef57600080fd5b50610a0a6004803603810190610a059190613d5e565b611c12565b005b348015610a1857600080fd5b50610a336004803603810190610a2e9190613ce3565b611c28565b005b348015610a4157600080fd5b50610a4a611c8a565b604051610a57919061456d565b60405180910390f35b348015610a6c57600080fd5b50610a876004803603810190610a829190613ed2565b611d18565b604051610a94919061456d565b60405180910390f35b348015610aa957600080fd5b50610ab2611d57565b604051610abf9190614552565b60405180910390f35b348015610ad457600080fd5b50610aef6004803603810190610aea9190613dff565b611d7b565b005b348015610afd57600080fd5b50610b06611da4565b604051610b1391906144a7565b60405180910390f35b348015610b2857600080fd5b50610b436004803603810190610b3e9190613c58565b611dca565b604051610b509190614537565b60405180910390f35b348015610b6557600080fd5b50610b806004803603810190610b7b9190613e8d565b611e5e565b005b6000610b8d82611ea4565b9050919050565b600d5481565b606060028054610ba990614b25565b80601f0160208091040260200160405190810160405280929190818152602001828054610bd590614b25565b8015610c225780601f10610bf757610100808354040283529160200191610c22565b820191906000526020600020905b815481529060010190602001808311610c0557829003601f168201915b5050505050905090565b6000610c3782611f1e565b610c76576040517f08c379a0000000000000000000000000000000000000000000000000000000008152600401610c6d9061470f565b60405180910390fd5b6006600083815260200190815260200160002060009054906101000a900473ffffffffffffffffffffffffffffffffffffffff169050919050565b60116020528060005260406000206000915090508054610cd090614b25565b80601f0160208091040260200160405190810160405280929190818152602001828054610cfc90614b25565b8015610d495780601f10610d1e57610100808354040283529160200191610d49565b820191906000526020600020905b815481529060010190602001808311610d2c57829003601f168201915b505050505081565b6000610d5c8261156e565b90508073ffffffffffffffffffffffffffffffffffffffff168373ffffffffffffffffffffffffffffffffffffffff161415610dcd576040517f08c379a0000000000000000000000000000000000000000000000000000000008152600401610dc49061472f565b60405180910390fd5b8073ffffffffffffffffffffffffffffffffffffffff16610dec611f8a565b73ffffffffffffffffffffffffffffffffffffffff161480610e1b5750610e1a81610e15611f8a565b611dca565b5b610e5a576040517f08c379a0000000000000000000000000000000000000000000000000000000008152600401610e519061468f565b60405180910390fd5b610e648383611f92565b505050565b60106020528060005260406000206000915090505481565b6000600a80549050905090565b610e9f610e99611f8a565b8261204b565b610ede576040517f08c379a0000000000000000000000000000000000000000000000000000000008152600401610ed59061474f565b60405180910390fd5b610ee9838383612129565b505050565b6000600c6000838152602001908152602001600020600101549050919050565b6000600d54905090565b6000806000600160008681526020019081526020016000206040518060400160405290816000820160009054906101000a900473ffffffffffffffffffffffffffffffffffffffff1673ffffffffffffffffffffffffffffffffffffffff1673ffffffffffffffffffffffffffffffffffffffff1681526020016000820160149054906101000a90046bffffffffffffffffffffffff166bffffffffffffffffffffffff166bffffffffffffffffffffffff16815250509050600073ffffffffffffffffffffffffffffffffffffffff16816000015173ffffffffffffffffffffffffffffffffffffffff1614156110ae5760006040518060400160405290816000820160009054906101000a900473ffffffffffffffffffffffffffffffffffffffff1673ffffffffffffffffffffffffffffffffffffffff1673ffffffffffffffffffffffffffffffffffffffff1681526020016000820160149054906101000a90046bffffffffffffffffffffffff166bffffffffffffffffffffffff166bffffffffffffffffffffffff168152505090505b60006110b8612390565b6bffffffffffffffffffffffff1682602001516bffffffffffffffffffffffff16866110e49190614983565b6110ee9190614952565b90508160000151819350935050509250929050565b6000601654905090565b61111682610eee565b61112781611122611f8a565b61239a565b6111318383612437565b505050565b600061114183611916565b8210611182576040517f08c379a0000000000000000000000000000000000000000000000000000000008152600401611179906145af565b60405180910390fd5b600860008473ffffffffffffffffffffffffffffffffffffffff1673ffffffffffffffffffffffffffffffffffffffff168152602001908152602001600020600083815260200190815260200160002054905092915050565b6111e3611f8a565b73ffffffffffffffffffffffffffffffffffffffff168173ffffffffffffffffffffffffffffffffffffffff1614611250576040517f08c379a0000000000000000000000000000000000000000000000000000000008152600401611247906147cf565b60405180910390fd5b61125a8282612518565b5050565b6000801b6112738161126e611f8a565b61239a565b60003390508073ffffffffffffffffffffffffffffffffffffffff166108fc479081150290604051600060405180830381858888f193505050501580156112be573d6000803e3d6000fd5b505050565b6000600e60009054906101000a900473ffffffffffffffffffffffffffffffffffffffff1673ffffffffffffffffffffffffffffffffffffffff1663aee233b3306040518263ffffffff1660e01b8152600401611320919061448c565b60206040518083038186803b15801561133857600080fd5b505afa15801561134c573d6000803e3d6000fd5b505050506040513d601f19601f820116820180604052508101906113709190613efb565b905090565b60165481565b61139683838360405180602001604052806000815250611c28565b505050565b6113ac6113a6611f8a565b8261204b565b6113eb576040517f08c379a00000000000000000000000000000000000000000000000000000000081526004016113e2906147af565b60405180910390fd5b6113f4816125fa565b50565b6019805461140490614b25565b80601f016020809104026020016040519081016040528092919081815260200182805461143090614b25565b801561147d5780601f106114525761010080835404028352916020019161147d565b820191906000526020600020905b81548152906001019060200180831161146057829003601f168201915b505050505081565b600061148f610e81565b82106114d0576040517f08c379a00000000000000000000000000000000000000000000000000000000081526004016114c79061476f565b60405180910390fd5b600a828154811061150a577f4e487b7100000000000000000000000000000000000000000000000000000000600052603260045260246000fd5b90600052602060002001549050919050565b6000801b6115318161152c611f8a565b61239a565b828260189190611542929190613a47565b50505050565b601560009054906101000a900473ffffffffffffffffffffffffffffffffffffffff1681565b6000806004600084815260200190815260200160002060009054906101000a900473ffffffffffffffffffffffffffffffffffffffff169050600073ffffffffffffffffffffffffffffffffffffffff168173ffffffffffffffffffffffffffffffffffffffff161415611617576040517f08c379a000000000000000000000000000000000000000000000000000000000815260040161160e906146cf565b60405180910390fd5b80915050919050565b60007f9f2df0fed2c77648de5860a4cc508cd0818c85b8b8a1ab4ceeef8d981c8956a66116548161164f611f8a565b61239a565b61165e600f612606565b9150600d5482106116a4576040517f08c379a000000000000000000000000000000000000000000000000000000000815260040161169b9061478f565b60405180910390fd5b6116ae600f612614565b6116b8838361262a565b6000600e60009054906101000a900473ffffffffffffffffffffffffffffffffffffffff1673ffffffffffffffffffffffffffffffffffffffff166329e5d83184426040518363ffffffff1660e01b815260040161171792919061480a565b60206040518083038186803b15801561172f57600080fd5b505afa158015611743573d6000803e3d6000fd5b505050506040513d601f19601f820116820180604052508101906117679190613efb565b905060006117756012612648565b826117809190614b92565b9050600061179882601261265d90919063ffffffff16565b90508060106000878152602001908152602001600020819055506117c681601261267790919063ffffffff16565b5050505050919050565b601c80546117dd90614b25565b80601f016020809104026020016040519081016040528092919081815260200182805461180990614b25565b80156118565780601f1061182b57610100808354040283529160200191611856565b820191906000526020600020905b81548152906001019060200180831161183957829003601f168201915b505050505081565b6018805461186b90614b25565b80601f016020809104026020016040519081016040528092919081815260200182805461189790614b25565b80156118e45780601f106118b9576101008083540402835291602001916118e4565b820191906000526020600020905b8154815290600101906020018083116118c757829003601f168201915b505050505081565b6000601560009054906101000a900473ffffffffffffffffffffffffffffffffffffffff16905090565b60008073ffffffffffffffffffffffffffffffffffffffff168273ffffffffffffffffffffffffffffffffffffffff161415611987576040517f08c379a000000000000000000000000000000000000000000000000000000000815260040161197e906146af565b60405180910390fd5b600560008373ffffffffffffffffffffffffffffffffffffffff1673ffffffffffffffffffffffffffffffffffffffff168152602001908152602001600020549050919050565b6000801b6119e3816119de611f8a565b61239a565b8282601160008781526020019081526020016000209190611a05929190613a47565b5050505050565b601a8054611a1990614b25565b80601f0160208091040260200160405190810160405280929190818152602001828054611a4590614b25565b8015611a925780601f10611a6757610100808354040283529160200191611a92565b820191906000526020600020905b815481529060010190602001808311611a7557829003601f168201915b505050505081565b6000601460009054906101000a900473ffffffffffffffffffffffffffffffffffffffff16905090565b6000801b611ad981611ad4611f8a565b61239a565b8282601a9190611aea929190613a47565b50505050565b6000600c600084815260200190815260200160002060000160008373ffffffffffffffffffffffffffffffffffffffff1673ffffffffffffffffffffffffffffffffffffffff16815260200190815260200160002060009054906101000a900460ff16905092915050565b606060038054611b6a90614b25565b80601f0160208091040260200160405190810160405280929190818152602001828054611b9690614b25565b8015611be35780601f10611bb857610100808354040283529160200191611be3565b820191906000526020600020905b815481529060010190602001808311611bc657829003601f168201915b5050505050905090565b601760009054906101000a90046bffffffffffffffffffffffff1681565b6000801b81565b611c24611c1d611f8a565b8383612691565b5050565b611c39611c33611f8a565b8361204b565b611c78576040517f08c379a0000000000000000000000000000000000000000000000000000000008152600401611c6f9061474f565b60405180910390fd5b611c84848484846127fe565b50505050565b601b8054611c9790614b25565b80601f0160208091040260200160405190810160405280929190818152602001828054611cc390614b25565b8015611d105780601f10611ce557610100808354040283529160200191611d10565b820191906000526020600020905b815481529060010190602001808311611cf357829003601f168201915b505050505081565b606060186010600084815260200190815260200160002054604051602001611d4192919061442a565b6040516020818303038152906040529050919050565b7f9f2df0fed2c77648de5860a4cc508cd0818c85b8b8a1ab4ceeef8d981c8956a681565b611d8482610eee565b611d9581611d90611f8a565b61239a565b611d9f8383612518565b505050565b601460009054906101000a900473ffffffffffffffffffffffffffffffffffffffff1681565b6000600760008473ffffffffffffffffffffffffffffffffffffffff1673ffffffffffffffffffffffffffffffffffffffff16815260200190815260200160002060008373ffffffffffffffffffffffffffffffffffffffff1673ffffffffffffffffffffffffffffffffffffffff16815260200190815260200160002060009054906101000a900460ff16905092915050565b6000801b611e7381611e6e611f8a565b61239a565b8282601b9190611e84929190613a47565b50505050565b6000611e9c836000018360001b61285a565b905092915050565b60007f7965db0b000000000000000000000000000000000000000000000000000000007bffffffffffffffffffffffffffffffffffffffffffffffffffffffff1916827bffffffffffffffffffffffffffffffffffffffffffffffffffffffff19161480611f175750611f16826128ca565b5b9050919050565b60008073ffffffffffffffffffffffffffffffffffffffff166004600084815260200190815260200160002060009054906101000a900473ffffffffffffffffffffffffffffffffffffffff1673ffffffffffffffffffffffffffffffffffffffff1614159050919050565b600033905090565b816006600083815260200190815260200160002060006101000a81548173ffffffffffffffffffffffffffffffffffffffff021916908373ffffffffffffffffffffffffffffffffffffffff160217905550808273ffffffffffffffffffffffffffffffffffffffff166120058361156e565b73ffffffffffffffffffffffffffffffffffffffff167f8c5be1e5ebec7d5bd14f71427d1e84f3dd0314c0f7b2291e5b200ac8c7c3b92560405160405180910390a45050565b600061205682611f1e565b612095576040517f08c379a000000000000000000000000000000000000000000000000000000000815260040161208c9061466f565b60405180910390fd5b60006120a08361156e565b90508073ffffffffffffffffffffffffffffffffffffffff168473ffffffffffffffffffffffffffffffffffffffff16148061210f57508373ffffffffffffffffffffffffffffffffffffffff166120f784610c2c565b73ffffffffffffffffffffffffffffffffffffffff16145b80612120575061211f8185611dca565b5b91505092915050565b8273ffffffffffffffffffffffffffffffffffffffff166121498261156e565b73ffffffffffffffffffffffffffffffffffffffff161461219f576040517f08c379a0000000000000000000000000000000000000000000000000000000008152600401612196906145ef565b60405180910390fd5b600073ffffffffffffffffffffffffffffffffffffffff168273ffffffffffffffffffffffffffffffffffffffff16141561220f576040517f08c379a00000000000000000000000000000000000000000000000000000000081526004016122069061462f565b60405180910390fd5b61221a8383836128dc565b612225600082611f92565b6001600560008573ffffffffffffffffffffffffffffffffffffffff1673ffffffffffffffffffffffffffffffffffffffff168152602001908152602001600020600082825461227591906149dd565b925050819055506001600560008473ffffffffffffffffffffffffffffffffffffffff1673ffffffffffffffffffffffffffffffffffffffff16815260200190815260200160002060008282546122cc91906148fc565b92505081905550816004600083815260200190815260200160002060006101000a81548173ffffffffffffffffffffffffffffffffffffffff021916908373ffffffffffffffffffffffffffffffffffffffff160217905550808273ffffffffffffffffffffffffffffffffffffffff168473ffffffffffffffffffffffffffffffffffffffff167fddf252ad1be2c89b69c2b068fc378daa952ba7f163c4a11628f55a4df523b3ef60405160405180910390a461238b8383836128ec565b505050565b6000612710905090565b6123a48282611af0565b612433576123c98173ffffffffffffffffffffffffffffffffffffffff1660146128f1565b6123d78360001c60206128f1565b6040516020016123e8929190614452565b6040516020818303038152906040526040517f08c379a000000000000000000000000000000000000000000000000000000000815260040161242a919061456d565b60405180910390fd5b5050565b6124418282611af0565b612514576001600c600084815260200190815260200160002060000160008373ffffffffffffffffffffffffffffffffffffffff1673ffffffffffffffffffffffffffffffffffffffff16815260200190815260200160002060006101000a81548160ff0219169083151502179055506124b9611f8a565b73ffffffffffffffffffffffffffffffffffffffff168173ffffffffffffffffffffffffffffffffffffffff16837f2f8788117e7eff1d82e926ec794901d17c78024a50270940304540a733656f0d60405160405180910390a45b5050565b6125228282611af0565b156125f6576000600c600084815260200190815260200160002060000160008373ffffffffffffffffffffffffffffffffffffffff1673ffffffffffffffffffffffffffffffffffffffff16815260200190815260200160002060006101000a81548160ff02191690831515021790555061259b611f8a565b73ffffffffffffffffffffffffffffffffffffffff168173ffffffffffffffffffffffffffffffffffffffff16837ff6391f5c32d9c69d2a47ea670b442974b53935d1edc7fd64eb21e047a839171b60405160405180910390a45b5050565b61260381612beb565b50565b600081600001549050919050565b6001816000016000828254019250508190555050565b612644828260405180602001604052806000815250612c00565b5050565b600061265682600001612c5b565b9050919050565b600061266c8360000183612c6c565b60001c905092915050565b6000612689836000018360001b612cbd565b905092915050565b8173ffffffffffffffffffffffffffffffffffffffff168373ffffffffffffffffffffffffffffffffffffffff161415612700576040517f08c379a00000000000000000000000000000000000000000000000000000000081526004016126f79061464f565b60405180910390fd5b80600760008573ffffffffffffffffffffffffffffffffffffffff1673ffffffffffffffffffffffffffffffffffffffff16815260200190815260200160002060008473ffffffffffffffffffffffffffffffffffffffff1673ffffffffffffffffffffffffffffffffffffffff16815260200190815260200160002060006101000a81548160ff0219169083151502179055508173ffffffffffffffffffffffffffffffffffffffff168373ffffffffffffffffffffffffffffffffffffffff167f17307eab39ab6107e8899845ad3d59bd9653f200f220920489ca2b5937696c31836040516127f19190614537565b60405180910390a3505050565b612809848484612129565b61281584848484612e43565b612854576040517f08c379a000000000000000000000000000000000000000000000000000000000815260040161284b906145cf565b60405180910390fd5b50505050565b60006128668383612fda565b6128bf5782600001829080600181540180825580915050600190039060005260206000200160009091909190915055826000018054905083600101600084815260200190815260200160002081905550600190506128c4565b600090505b92915050565b60006128d582612ffd565b9050919050565b6128e7838383613077565b505050565b505050565b6060600060028360026129049190614983565b61290e91906148fc565b67ffffffffffffffff81111561294d577f4e487b7100000000000000000000000000000000000000000000000000000000600052604160045260246000fd5b6040519080825280601f01601f19166020018201604052801561297f5781602001600182028036833780820191505090505b5090507f3000000000000000000000000000000000000000000000000000000000000000816000815181106129dd577f4e487b7100000000000000000000000000000000000000000000000000000000600052603260045260246000fd5b60200101907effffffffffffffffffffffffffffffffffffffffffffffffffffffffffffff1916908160001a9053507f780000000000000000000000000000000000000000000000000000000000000081600181518110612a67577f4e487b7100000000000000000000000000000000000000000000000000000000600052603260045260246000fd5b60200101907effffffffffffffffffffffffffffffffffffffffffffffffffffffffffffff1916908160001a90535060006001846002612aa79190614983565b612ab191906148fc565b90505b6001811115612b9d577f3031323334353637383961626364656600000000000000000000000000000000600f861660108110612b19577f4e487b7100000000000000000000000000000000000000000000000000000000600052603260045260246000fd5b1a60f81b828281518110612b56577f4e487b7100000000000000000000000000000000000000000000000000000000600052603260045260246000fd5b60200101907effffffffffffffffffffffffffffffffffffffffffffffffffffffffffffff1916908160001a905350600485901c945080612b9690614afb565b9050612ab4565b5060008414612be1576040517f08c379a0000000000000000000000000000000000000000000000000000000008152600401612bd89061458f565b60405180910390fd5b8091505092915050565b612bf48161318b565b612bfd816132a8565b50565b612c0a8383613307565b612c176000848484612e43565b612c56576040517f08c379a0000000000000000000000000000000000000000000000000000000008152600401612c4d906145cf565b60405180910390fd5b505050565b600081600001805490509050919050565b6000826000018281548110612caa577f4e487b7100000000000000000000000000000000000000000000000000000000600052603260045260246000fd5b9060005260206000200154905092915050565b60008083600101600084815260200190815260200160002054905060008114612e37576000600182612cef91906149dd565b9050600060018660000180549050612d0791906149dd565b9050818114612dc2576000866000018281548110612d4e577f4e487b7100000000000000000000000000000000000000000000000000000000600052603260045260246000fd5b9060005260206000200154905080876000018481548110612d98577f4e487b7100000000000000000000000000000000000000000000000000000000600052603260045260246000fd5b90600052602060002001819055508387600101600083815260200190815260200160002081905550505b85600001805480612dfc577f4e487b7100000000000000000000000000000000000000000000000000000000600052603160045260246000fd5b600190038181906000526020600020016000905590558560010160008681526020019081526020016000206000905560019350505050612e3d565b60009150505b92915050565b6000612e648473ffffffffffffffffffffffffffffffffffffffff166134e1565b15612fcd578373ffffffffffffffffffffffffffffffffffffffff1663150b7a02612e8d611f8a565b8786866040518563ffffffff1660e01b8152600401612eaf94939291906144c2565b602060405180830381600087803b158015612ec957600080fd5b505af1925050508015612efa57506040513d601f19601f82011682018060405250810190612ef79190613e64565b60015b612f7d573d8060008114612f2a576040519150601f19603f3d011682016040523d82523d6000602084013e612f2f565b606091505b50600081511415612f75576040517f08c379a0000000000000000000000000000000000000000000000000000000008152600401612f6c906145cf565b60405180910390fd5b805181602001fd5b63150b7a0260e01b7bffffffffffffffffffffffffffffffffffffffffffffffffffffffff1916817bffffffffffffffffffffffffffffffffffffffffffffffffffffffff191614915050612fd2565b600190505b949350505050565b600080836001016000848152602001908152602001600020541415905092915050565b60007f780e9d63000000000000000000000000000000000000000000000000000000007bffffffffffffffffffffffffffffffffffffffffffffffffffffffff1916827bffffffffffffffffffffffffffffffffffffffffffffffffffffffff19161480613070575061306f82613504565b5b9050919050565b6130828383836135e6565b600073ffffffffffffffffffffffffffffffffffffffff168373ffffffffffffffffffffffffffffffffffffffff1614156130c5576130c0816135eb565b613104565b8173ffffffffffffffffffffffffffffffffffffffff168373ffffffffffffffffffffffffffffffffffffffff1614613103576131028382613634565b5b5b600073ffffffffffffffffffffffffffffffffffffffff168273ffffffffffffffffffffffffffffffffffffffff16141561314757613142816137a1565b613186565b8273ffffffffffffffffffffffffffffffffffffffff168273ffffffffffffffffffffffffffffffffffffffff16146131855761318482826138e4565b5b5b505050565b60006131968261156e565b90506131a4816000846128dc565b6131af600083611f92565b6001600560008373ffffffffffffffffffffffffffffffffffffffff1673ffffffffffffffffffffffffffffffffffffffff16815260200190815260200160002060008282546131ff91906149dd565b925050819055506004600083815260200190815260200160002060006101000a81549073ffffffffffffffffffffffffffffffffffffffff021916905581600073ffffffffffffffffffffffffffffffffffffffff168273ffffffffffffffffffffffffffffffffffffffff167fddf252ad1be2c89b69c2b068fc378daa952ba7f163c4a11628f55a4df523b3ef60405160405180910390a46132a4816000846128ec565b5050565b60016000828152602001908152602001600020600080820160006101000a81549073ffffffffffffffffffffffffffffffffffffffff02191690556000820160146101000a8154906bffffffffffffffffffffffff0219169055505050565b600073ffffffffffffffffffffffffffffffffffffffff168273ffffffffffffffffffffffffffffffffffffffff161415613377576040517f08c379a000000000000000000000000000000000000000000000000000000000815260040161336e906146ef565b60405180910390fd5b61338081611f1e565b156133c0576040517f08c379a00000000000000000000000000000000000000000000000000000000081526004016133b79061460f565b60405180910390fd5b6133cc600083836128dc565b6001600560008473ffffffffffffffffffffffffffffffffffffffff1673ffffffffffffffffffffffffffffffffffffffff168152602001908152602001600020600082825461341c91906148fc565b92505081905550816004600083815260200190815260200160002060006101000a81548173ffffffffffffffffffffffffffffffffffffffff021916908373ffffffffffffffffffffffffffffffffffffffff160217905550808273ffffffffffffffffffffffffffffffffffffffff16600073ffffffffffffffffffffffffffffffffffffffff167fddf252ad1be2c89b69c2b068fc378daa952ba7f163c4a11628f55a4df523b3ef60405160405180910390a46134dd600083836128ec565b5050565b6000808273ffffffffffffffffffffffffffffffffffffffff163b119050919050565b60007f80ac58cd000000000000000000000000000000000000000000000000000000007bffffffffffffffffffffffffffffffffffffffffffffffffffffffff1916827bffffffffffffffffffffffffffffffffffffffffffffffffffffffff191614806135cf57507f5b5e139f000000000000000000000000000000000000000000000000000000007bffffffffffffffffffffffffffffffffffffffffffffffffffffffff1916827bffffffffffffffffffffffffffffffffffffffffffffffffffffffff1916145b806135df57506135de82613963565b5b9050919050565b505050565b600a80549050600b600083815260200190815260200160002081905550600a81908060018154018082558091505060019003906000526020600020016000909190919091505550565b6000600161364184611916565b61364b91906149dd565b9050600060096000848152602001908152602001600020549050818114613730576000600860008673ffffffffffffffffffffffffffffffffffffffff1673ffffffffffffffffffffffffffffffffffffffff168152602001908152602001600020600084815260200190815260200160002054905080600860008773ffffffffffffffffffffffffffffffffffffffff1673ffffffffffffffffffffffffffffffffffffffff168152602001908152602001600020600084815260200190815260200160002081905550816009600083815260200190815260200160002081905550505b6009600084815260200190815260200160002060009055600860008573ffffffffffffffffffffffffffffffffffffffff1673ffffffffffffffffffffffffffffffffffffffff16815260200190815260200160002060008381526020019081526020016000206000905550505050565b60006001600a805490506137b591906149dd565b90506000600b60008481526020019081526020016000205490506000600a838154811061380b577f4e487b7100000000000000000000000000000000000000000000000000000000600052603260045260246000fd5b9060005260206000200154905080600a8381548110613853577f4e487b7100000000000000000000000000000000000000000000000000000000600052603260045260246000fd5b906000526020600020018190555081600b600083815260200190815260200160002081905550600b600085815260200190815260200160002060009055600a8054806138c8577f4e487b7100000000000000000000000000000000000000000000000000000000600052603160045260246000fd5b6001900381819060005260206000200160009055905550505050565b60006138ef83611916565b905081600860008573ffffffffffffffffffffffffffffffffffffffff1673ffffffffffffffffffffffffffffffffffffffff168152602001908152602001600020600083815260200190815260200160002081905550806009600084815260200190815260200160002081905550505050565b60007f2a55205a000000000000000000000000000000000000000000000000000000007bffffffffffffffffffffffffffffffffffffffffffffffffffffffff1916827bffffffffffffffffffffffffffffffffffffffffffffffffffffffff191614806139d657506139d5826139dd565b5b9050919050565b60007f01ffc9a7000000000000000000000000000000000000000000000000000000007bffffffffffffffffffffffffffffffffffffffffffffffffffffffff1916827bffffffffffffffffffffffffffffffffffffffffffffffffffffffff1916149050919050565b828054613a5390614b25565b90600052602060002090601f016020900481019282613a755760008555613abc565b82601f10613a8e57803560ff1916838001178555613abc565b82800160010185558215613abc579182015b82811115613abb578235825591602001919060010190613aa0565b5b509050613ac99190613acd565b5090565b5b80821115613ae6576000816000905550600101613ace565b5090565b6000613afd613af884614873565b61484e565b905082815260208101848484011115613b1557600080fd5b613b20848285614ab9565b509392505050565b600081359050613b3781615201565b92915050565b600081359050613b4c81615218565b92915050565b600081359050613b618161522f565b92915050565b600081359050613b7681615246565b92915050565b600081519050613b8b81615246565b92915050565b600082601f830112613ba257600080fd5b8135613bb2848260208601613aea565b91505092915050565b60008083601f840112613bcd57600080fd5b8235905067ffffffffffffffff811115613be657600080fd5b602083019150836001820283011115613bfe57600080fd5b9250929050565b600081359050613c148161525d565b92915050565b600081519050613c298161525d565b92915050565b600060208284031215613c4157600080fd5b6000613c4f84828501613b28565b91505092915050565b60008060408385031215613c6b57600080fd5b6000613c7985828601613b28565b9250506020613c8a85828601613b28565b9150509250929050565b600080600060608486031215613ca957600080fd5b6000613cb786828701613b28565b9350506020613cc886828701613b28565b9250506040613cd986828701613c05565b9150509250925092565b60008060008060808587031215613cf957600080fd5b6000613d0787828801613b28565b9450506020613d1887828801613b28565b9350506040613d2987828801613c05565b925050606085013567ffffffffffffffff811115613d4657600080fd5b613d5287828801613b91565b91505092959194509250565b60008060408385031215613d7157600080fd5b6000613d7f85828601613b28565b9250506020613d9085828601613b3d565b9150509250929050565b60008060408385031215613dad57600080fd5b6000613dbb85828601613b28565b9250506020613dcc85828601613c05565b9150509250929050565b600060208284031215613de857600080fd5b6000613df684828501613b52565b91505092915050565b60008060408385031215613e1257600080fd5b6000613e2085828601613b52565b9250506020613e3185828601613b28565b9150509250929050565b600060208284031215613e4d57600080fd5b6000613e5b84828501613b67565b91505092915050565b600060208284031215613e7657600080fd5b6000613e8484828501613b7c565b91505092915050565b60008060208385031215613ea057600080fd5b600083013567ffffffffffffffff811115613eba57600080fd5b613ec685828601613bbb565b92509250509250929050565b600060208284031215613ee457600080fd5b6000613ef284828501613c05565b91505092915050565b600060208284031215613f0d57600080fd5b6000613f1b84828501613c1a565b91505092915050565b600080600060408486031215613f3957600080fd5b6000613f4786828701613c05565b935050602084013567ffffffffffffffff811115613f6457600080fd5b613f7086828701613bbb565b92509250509250925092565b60008060408385031215613f8f57600080fd5b6000613f9d85828601613c05565b9250506020613fae85828601613c05565b9150509250929050565b613fc181614a23565b82525050565b613fd081614a11565b82525050565b613fdf81614a35565b82525050565b613fee81614a41565b82525050565b6000613fff826148b9565b61400981856148cf565b9350614019818560208601614ac8565b61402281614c7f565b840191505092915050565b6000614038826148c4565b61404281856148e0565b9350614052818560208601614ac8565b61405b81614c7f565b840191505092915050565b6000614071826148c4565b61407b81856148f1565b935061408b818560208601614ac8565b80840191505092915050565b600081546140a481614b25565b6140ae81866148f1565b945060018216600081146140c957600181146140da5761410d565b60ff1983168652818601935061410d565b6140e3856148a4565b60005b83811015614105578154818901526001820191506020810190506140e6565b838801955050505b50505092915050565b60006141236020836148e0565b915061412e82614c90565b602082019050919050565b6000614146602b836148e0565b915061415182614cb9565b604082019050919050565b60006141696032836148e0565b915061417482614d08565b604082019050919050565b600061418c6025836148e0565b915061419782614d57565b604082019050919050565b60006141af601c836148e0565b91506141ba82614da6565b602082019050919050565b60006141d26024836148e0565b91506141dd82614dcf565b604082019050919050565b60006141f56019836148e0565b915061420082614e1e565b602082019050919050565b6000614218602c836148e0565b915061422382614e47565b604082019050919050565b600061423b6038836148e0565b915061424682614e96565b604082019050919050565b600061425e602a836148e0565b915061426982614ee5565b604082019050919050565b60006142816029836148e0565b915061428c82614f34565b604082019050919050565b60006142a46020836148e0565b91506142af82614f83565b602082019050919050565b60006142c7602c836148e0565b91506142d282614fac565b604082019050919050565b60006142ea6021836148e0565b91506142f582614ffb565b604082019050919050565b600061430d6031836148e0565b91506143188261504a565b604082019050919050565b6000614330602c836148e0565b915061433b82615099565b604082019050919050565b60006143536017836148f1565b915061435e826150e8565b601782019050919050565b60006143766012836148e0565b915061438182615111565b602082019050919050565b60006143996030836148e0565b91506143a48261513a565b604082019050919050565b60006143bc6011836148f1565b91506143c782615189565b601182019050919050565b60006143df602f836148e0565b91506143ea826151b2565b604082019050919050565b6143fe81614a97565b82525050565b61441561441082614a97565b614b88565b82525050565b61442481614aa1565b82525050565b60006144368285614097565b91506144428284614404565b6020820191508190509392505050565b600061445d82614346565b91506144698285614066565b9150614474826143af565b91506144808284614066565b91508190509392505050565b60006020820190506144a16000830184613fc7565b92915050565b60006020820190506144bc6000830184613fb8565b92915050565b60006080820190506144d76000830187613fc7565b6144e46020830186613fc7565b6144f160408301856143f5565b81810360608301526145038184613ff4565b905095945050505050565b60006040820190506145236000830185613fc7565b61453060208301846143f5565b9392505050565b600060208201905061454c6000830184613fd6565b92915050565b60006020820190506145676000830184613fe5565b92915050565b60006020820190508181036000830152614587818461402d565b905092915050565b600060208201905081810360008301526145a881614116565b9050919050565b600060208201905081810360008301526145c881614139565b9050919050565b600060208201905081810360008301526145e88161415c565b9050919050565b600060208201905081810360008301526146088161417f565b9050919050565b60006020820190508181036000830152614628816141a2565b9050919050565b60006020820190508181036000830152614648816141c5565b9050919050565b60006020820190508181036000830152614668816141e8565b9050919050565b600060208201905081810360008301526146888161420b565b9050919050565b600060208201905081810360008301526146a88161422e565b9050919050565b600060208201905081810360008301526146c881614251565b9050919050565b600060208201905081810360008301526146e881614274565b9050919050565b6000602082019050818103600083015261470881614297565b9050919050565b60006020820190508181036000830152614728816142ba565b9050919050565b60006020820190508181036000830152614748816142dd565b9050919050565b6000602082019050818103600083015261476881614300565b9050919050565b6000602082019050818103600083015261478881614323565b9050919050565b600060208201905081810360008301526147a881614369565b9050919050565b600060208201905081810360008301526147c88161438c565b9050919050565b600060208201905081810360008301526147e8816143d2565b9050919050565b600060208201905061480460008301846143f5565b92915050565b600060408201905061481f60008301856143f5565b61482c60208301846143f5565b9392505050565b6000602082019050614848600083018461441b565b92915050565b6000614858614869565b90506148648282614b57565b919050565b6000604051905090565b600067ffffffffffffffff82111561488e5761488d614c50565b5b61489782614c7f565b9050602081019050919050565b60008190508160005260206000209050919050565b600081519050919050565b600081519050919050565b600082825260208201905092915050565b600082825260208201905092915050565b600081905092915050565b600061490782614a97565b915061491283614a97565b9250827fffffffffffffffffffffffffffffffffffffffffffffffffffffffffffffffff0382111561494757614946614bc3565b5b828201905092915050565b600061495d82614a97565b915061496883614a97565b92508261497857614977614bf2565b5b828204905092915050565b600061498e82614a97565b915061499983614a97565b9250817fffffffffffffffffffffffffffffffffffffffffffffffffffffffffffffffff04831182151516156149d2576149d1614bc3565b5b828202905092915050565b60006149e882614a97565b91506149f383614a97565b925082821015614a0657614a05614bc3565b5b828203905092915050565b6000614a1c82614a77565b9050919050565b6000614a2e82614a77565b9050919050565b60008115159050919050565b6000819050919050565b60007fffffffff0000000000000000000000000000000000000000000000000000000082169050919050565b600073ffffffffffffffffffffffffffffffffffffffff82169050919050565b6000819050919050565b60006bffffffffffffffffffffffff82169050919050565b82818337600083830152505050565b60005b83811015614ae6578082015181840152602081019050614acb565b83811115614af5576000848401525b50505050565b6000614b0682614a97565b91506000821415614b1a57614b19614bc3565b5b600182039050919050565b60006002820490506001821680614b3d57607f821691505b60208210811415614b5157614b50614c21565b5b50919050565b614b6082614c7f565b810181811067ffffffffffffffff82111715614b7f57614b7e614c50565b5b80604052505050565b6000819050919050565b6000614b9d82614a97565b9150614ba883614a97565b925082614bb857614bb7614bf2565b5b828206905092915050565b7f4e487b7100000000000000000000000000000000000000000000000000000000600052601160045260246000fd5b7f4e487b7100000000000000000000000000000000000000000000000000000000600052601260045260246000fd5b7f4e487b7100000000000000000000000000000000000000000000000000000000600052602260045260246000fd5b7f4e487b7100000000000000000000000000000000000000000000000000000000600052604160045260246000fd5b6000601f19601f8301169050919050565b7f537472696e67733a20686578206c656e67746820696e73756666696369656e74600082015250565b7f455243373231456e756d657261626c653a206f776e657220696e646578206f7560008201527f74206f6620626f756e6473000000000000000000000000000000000000000000602082015250565b7f4552433732313a207472616e7366657220746f206e6f6e20455243373231526560008201527f63656976657220696d706c656d656e7465720000000000000000000000000000602082015250565b7f4552433732313a207472616e736665722066726f6d20696e636f72726563742060008201527f6f776e6572000000000000000000000000000000000000000000000000000000602082015250565b7f4552433732313a20746f6b656e20616c7265616479206d696e74656400000000600082015250565b7f4552433732313a207472616e7366657220746f20746865207a65726f2061646460008201527f7265737300000000000000000000000000000000000000000000000000000000602082015250565b7f4552433732313a20617070726f766520746f2063616c6c657200000000000000600082015250565b7f4552433732313a206f70657261746f7220717565727920666f72206e6f6e657860008201527f697374656e7420746f6b656e0000000000000000000000000000000000000000602082015250565b7f4552433732313a20617070726f76652063616c6c6572206973206e6f74206f7760008201527f6e6572206e6f7220617070726f76656420666f7220616c6c0000000000000000602082015250565b7f4552433732313a2062616c616e636520717565727920666f7220746865207a6560008201527f726f206164647265737300000000000000000000000000000000000000000000602082015250565b7f4552433732313a206f776e657220717565727920666f72206e6f6e657869737460008201527f656e7420746f6b656e0000000000000000000000000000000000000000000000602082015250565b7f4552433732313a206d696e7420746f20746865207a65726f2061646472657373600082015250565b7f4552433732313a20617070726f76656420717565727920666f72206e6f6e657860008201527f697374656e7420746f6b656e0000000000000000000000000000000000000000602082015250565b7f4552433732313a20617070726f76616c20746f2063757272656e74206f776e6560008201527f7200000000000000000000000000000000000000000000000000000000000000602082015250565b7f4552433732313a207472616e736665722063616c6c6572206973206e6f74206f60008201527f776e6572206e6f7220617070726f766564000000000000000000000000000000602082015250565b7f455243373231456e756d657261626c653a20676c6f62616c20696e646578206f60008201527f7574206f6620626f756e64730000000000000000000000000000000000000000602082015250565b7f416363657373436f6e74726f6c3a206163636f756e7420000000000000000000600082015250565b7f737570706c792063617020726561636865640000000000000000000000000000600082015250565b7f4552433732314275726e61626c653a2063616c6c6572206973206e6f74206f7760008201527f6e6572206e6f7220617070726f76656400000000000000000000000000000000602082015250565b7f206973206d697373696e6720726f6c6520000000000000000000000000000000600082015250565b7f416363657373436f6e74726f6c3a2063616e206f6e6c792072656e6f756e636560008201527f20726f6c657320666f722073656c660000000000000000000000000000000000602082015250565b61520a81614a11565b811461521557600080fd5b50565b61522181614a35565b811461522c57600080fd5b50565b61523881614a41565b811461524357600080fd5b50565b61524f81614a4b565b811461525a57600080fd5b50565b61526681614a97565b811461527157600080fd5b5056fea2646970667358221220d967107168b192dbf5d046cd2265119e3b00c0e2d6b85a00cb806ac9fbef68a064736f6c63430008020033",
  "linkReferences": {},
  "deployedLinkReferences": {}
}