{
  "_format": "hh-sol-artifact-1",
  "contractName": "FineNFT",
  "sourceName": "contracts/FineNFT.sol",
  "abi": [
    {
      "inputs": [
        {
          "internalType": "address",
          "name": "coreAddress",
          "type": "address"
        },
        {
          "internalType": "address",
          "name": "shopAddress",
          "type": "address"
        }
      ],
      "stateMutability": "nonpayable",
      "type": "constructor"
    },
    {
      "anonymous": false,
      "inputs": [
        {
          "indexed": true,
          "internalType": "address",
          "name": "owner",
          "type": "address"
        },
        {
          "indexed": true,
          "internalType": "address",
          "name": "approved",
          "type": "address"
        },
        {
          "indexed": true,
          "internalType": "uint256",
          "name": "tokenId",
          "type": "uint256"
        }
      ],
      "name": "Approval",
      "type": "event"
    },
    {
      "anonymous": false,
      "inputs": [
        {
          "indexed": true,
          "internalType": "address",
          "name": "owner",
          "type": "address"
        },
        {
          "indexed": true,
          "internalType": "address",
          "name": "operator",
          "type": "address"
        },
        {
          "indexed": false,
          "internalType": "bool",
          "name": "approved",
          "type": "bool"
        }
      ],
      "name": "ApprovalForAll",
      "type": "event"
    },
    {
      "anonymous": false,
      "inputs": [
        {
          "indexed": true,
          "internalType": "bytes32",
          "name": "role",
          "type": "bytes32"
        },
        {
          "indexed": true,
          "internalType": "bytes32",
          "name": "previousAdminRole",
          "type": "bytes32"
        },
        {
          "indexed": true,
          "internalType": "bytes32",
          "name": "newAdminRole",
          "type": "bytes32"
        }
      ],
      "name": "RoleAdminChanged",
      "type": "event"
    },
    {
      "anonymous": false,
      "inputs": [
        {
          "indexed": true,
          "internalType": "bytes32",
          "name": "role",
          "type": "bytes32"
        },
        {
          "indexed": true,
          "internalType": "address",
          "name": "account",
          "type": "address"
        },
        {
          "indexed": true,
          "internalType": "address",
          "name": "sender",
          "type": "address"
        }
      ],
      "name": "RoleGranted",
      "type": "event"
    },
    {
      "anonymous": false,
      "inputs": [
        {
          "indexed": true,
          "internalType": "bytes32",
          "name": "role",
          "type": "bytes32"
        },
        {
          "indexed": true,
          "internalType": "address",
          "name": "account",
          "type": "address"
        },
        {
          "indexed": true,
          "internalType": "address",
          "name": "sender",
          "type": "address"
        }
      ],
      "name": "RoleRevoked",
      "type": "event"
    },
    {
      "anonymous": false,
      "inputs": [
        {
          "indexed": true,
          "internalType": "address",
          "name": "from",
          "type": "address"
        },
        {
          "indexed": true,
          "internalType": "address",
          "name": "to",
          "type": "address"
        },
        {
          "indexed": true,
          "internalType": "uint256",
          "name": "tokenId",
          "type": "uint256"
        }
      ],
      "name": "Transfer",
      "type": "event"
    },
    {
      "inputs": [],
      "name": "DEFAULT_ADMIN_ROLE",
      "outputs": [
        {
          "internalType": "bytes32",
          "name": "",
          "type": "bytes32"
        }
      ],
      "stateMutability": "view",
      "type": "function"
    },
    {
      "inputs": [],
      "name": "MINTER_ROLE",
      "outputs": [
        {
          "internalType": "bytes32",
          "name": "",
          "type": "bytes32"
        }
      ],
      "stateMutability": "view",
      "type": "function"
    },
    {
      "inputs": [],
      "name": "TOKEN_LIMIT",
      "outputs": [
        {
          "internalType": "uint256",
          "name": "",
          "type": "uint256"
        }
      ],
      "stateMutability": "view",
      "type": "function"
    },
    {
      "inputs": [],
      "name": "additionalPayee",
      "outputs": [
        {
          "internalType": "address payable",
          "name": "",
          "type": "address"
        }
      ],
      "stateMutability": "view",
      "type": "function"
    },
    {
      "inputs": [],
      "name": "additionalPayeePercentage",
      "outputs": [
        {
          "internalType": "uint256",
          "name": "",
          "type": "uint256"
        }
      ],
      "stateMutability": "view",
      "type": "function"
    },
    {
      "inputs": [],
      "name": "additionalPayeeRoyaltyPercentage",
      "outputs": [
        {
          "internalType": "uint256",
          "name": "",
          "type": "uint256"
        }
      ],
      "stateMutability": "view",
      "type": "function"
    },
    {
      "inputs": [
        {
          "internalType": "address",
          "name": "to",
          "type": "address"
        },
        {
          "internalType": "uint256",
          "name": "tokenId",
          "type": "uint256"
        }
      ],
      "name": "approve",
      "outputs": [],
      "stateMutability": "nonpayable",
      "type": "function"
    },
    {
      "inputs": [],
      "name": "artist",
      "outputs": [
        {
          "internalType": "string",
          "name": "",
          "type": "string"
        }
      ],
      "stateMutability": "view",
      "type": "function"
    },
    {
      "inputs": [],
      "name": "artistAddress",
      "outputs": [
        {
          "internalType": "address payable",
          "name": "",
          "type": "address"
        }
      ],
      "stateMutability": "view",
      "type": "function"
    },
    {
      "inputs": [
        {
          "internalType": "uint256",
          "name": "",
          "type": "uint256"
        }
      ],
      "name": "artworkId",
      "outputs": [
        {
          "internalType": "uint256",
          "name": "",
          "type": "uint256"
        }
      ],
      "stateMutability": "view",
      "type": "function"
    },
    {
      "inputs": [
        {
          "internalType": "address",
          "name": "owner",
          "type": "address"
        }
      ],
      "name": "balanceOf",
      "outputs": [
        {
          "internalType": "uint256",
          "name": "",
          "type": "uint256"
        }
      ],
      "stateMutability": "view",
      "type": "function"
    },
    {
      "inputs": [],
      "name": "baseURI",
      "outputs": [
        {
          "internalType": "string",
          "name": "",
          "type": "string"
        }
      ],
      "stateMutability": "view",
      "type": "function"
    },
    {
      "inputs": [
        {
          "internalType": "uint256",
          "name": "tokenId",
          "type": "uint256"
        }
      ],
      "name": "burn",
      "outputs": [],
      "stateMutability": "nonpayable",
      "type": "function"
    },
    {
      "inputs": [],
      "name": "checkPool",
      "outputs": [
        {
          "internalType": "uint256",
          "name": "",
          "type": "uint256"
        }
      ],
      "stateMutability": "view",
      "type": "function"
    },
    {
      "inputs": [],
      "name": "description",
      "outputs": [
        {
          "internalType": "string",
          "name": "",
          "type": "string"
        }
      ],
      "stateMutability": "view",
      "type": "function"
    },
    {
      "inputs": [],
      "name": "getAdditionalPayee",
      "outputs": [
        {
          "internalType": "address payable",
          "name": "",
          "type": "address"
        }
      ],
      "stateMutability": "view",
      "type": "function"
    },
    {
      "inputs": [],
      "name": "getAdditionalPayeePercentage",
      "outputs": [
        {
          "internalType": "uint256",
          "name": "",
          "type": "uint256"
        }
      ],
      "stateMutability": "view",
      "type": "function"
    },
    {
      "inputs": [
        {
          "internalType": "uint256",
          "name": "tokenId",
          "type": "uint256"
        }
      ],
      "name": "getApproved",
      "outputs": [
        {
          "internalType": "address",
          "name": "",
          "type": "address"
        }
      ],
      "stateMutability": "view",
      "type": "function"
    },
    {
      "inputs": [],
      "name": "getArtistAddress",
      "outputs": [
        {
          "internalType": "address payable",
          "name": "",
          "type": "address"
        }
      ],
      "stateMutability": "view",
      "type": "function"
    },
    {
      "inputs": [
        {
          "internalType": "bytes32",
          "name": "role",
          "type": "bytes32"
        }
      ],
      "name": "getRoleAdmin",
      "outputs": [
        {
          "internalType": "bytes32",
          "name": "",
          "type": "bytes32"
        }
      ],
      "stateMutability": "view",
      "type": "function"
    },
    {
      "inputs": [],
      "name": "getTokenLimit",
      "outputs": [
        {
          "internalType": "uint256",
          "name": "",
          "type": "uint256"
        }
      ],
      "stateMutability": "view",
      "type": "function"
    },
    {
      "inputs": [
        {
          "internalType": "bytes32",
          "name": "role",
          "type": "bytes32"
        },
        {
          "internalType": "address",
          "name": "account",
          "type": "address"
        }
      ],
      "name": "grantRole",
      "outputs": [],
      "stateMutability": "nonpayable",
      "type": "function"
    },
    {
      "inputs": [
        {
          "internalType": "bytes32",
          "name": "role",
          "type": "bytes32"
        },
        {
          "internalType": "address",
          "name": "account",
          "type": "address"
        }
      ],
      "name": "hasRole",
      "outputs": [
        {
          "internalType": "bool",
          "name": "",
          "type": "bool"
        }
      ],
      "stateMutability": "view",
      "type": "function"
    },
    {
      "inputs": [
        {
          "internalType": "uint256",
          "name": "start",
          "type": "uint256"
        },
        {
          "internalType": "uint256",
          "name": "end",
          "type": "uint256"
        }
      ],
      "name": "initPool",
      "outputs": [],
      "stateMutability": "nonpayable",
      "type": "function"
    },
    {
      "inputs": [
        {
          "internalType": "address",
          "name": "owner",
          "type": "address"
        },
        {
          "internalType": "address",
          "name": "operator",
          "type": "address"
        }
      ],
      "name": "isApprovedForAll",
      "outputs": [
        {
          "internalType": "bool",
          "name": "",
          "type": "bool"
        }
      ],
      "stateMutability": "view",
      "type": "function"
    },
    {
      "inputs": [],
      "name": "license",
      "outputs": [
        {
          "internalType": "string",
          "name": "",
          "type": "string"
        }
      ],
      "stateMutability": "view",
      "type": "function"
    },
    {
      "inputs": [
        {
          "internalType": "address",
          "name": "to",
          "type": "address"
        }
      ],
      "name": "mint",
      "outputs": [
        {
          "internalType": "uint256",
          "name": "tokenId",
          "type": "uint256"
        }
      ],
      "stateMutability": "nonpayable",
      "type": "function"
    },
    {
      "inputs": [],
      "name": "name",
      "outputs": [
        {
          "internalType": "string",
          "name": "",
          "type": "string"
        }
      ],
      "stateMutability": "view",
      "type": "function"
    },
    {
      "inputs": [
        {
          "internalType": "uint256",
          "name": "tokenId",
          "type": "uint256"
        }
      ],
      "name": "ownerOf",
      "outputs": [
        {
          "internalType": "address",
          "name": "",
          "type": "address"
        }
      ],
      "stateMutability": "view",
      "type": "function"
    },
    {
      "inputs": [
        {
          "internalType": "bytes32",
          "name": "role",
          "type": "bytes32"
        },
        {
          "internalType": "address",
          "name": "account",
          "type": "address"
        }
      ],
      "name": "renounceRole",
      "outputs": [],
      "stateMutability": "nonpayable",
      "type": "function"
    },
    {
      "inputs": [
        {
          "internalType": "bytes32",
          "name": "role",
          "type": "bytes32"
        },
        {
          "internalType": "address",
          "name": "account",
          "type": "address"
        }
      ],
      "name": "revokeRole",
      "outputs": [],
      "stateMutability": "nonpayable",
      "type": "function"
    },
    {
      "inputs": [
        {
          "internalType": "uint256",
          "name": "_tokenId",
          "type": "uint256"
        },
        {
          "internalType": "uint256",
          "name": "_salePrice",
          "type": "uint256"
        }
      ],
      "name": "royaltyInfo",
      "outputs": [
        {
          "internalType": "address",
          "name": "",
          "type": "address"
        },
        {
          "internalType": "uint256",
          "name": "",
          "type": "uint256"
        }
      ],
      "stateMutability": "view",
      "type": "function"
    },
    {
      "inputs": [],
      "name": "royaltyPercent",
      "outputs": [
        {
          "internalType": "uint96",
          "name": "",
          "type": "uint96"
        }
      ],
      "stateMutability": "view",
      "type": "function"
    },
    {
      "inputs": [
        {
          "internalType": "address",
          "name": "from",
          "type": "address"
        },
        {
          "internalType": "address",
          "name": "to",
          "type": "address"
        },
        {
          "internalType": "uint256",
          "name": "tokenId",
          "type": "uint256"
        }
      ],
      "name": "safeTransferFrom",
      "outputs": [],
      "stateMutability": "nonpayable",
      "type": "function"
    },
    {
      "inputs": [
        {
          "internalType": "address",
          "name": "from",
          "type": "address"
        },
        {
          "internalType": "address",
          "name": "to",
          "type": "address"
        },
        {
          "internalType": "uint256",
          "name": "tokenId",
          "type": "uint256"
        },
        {
          "internalType": "bytes",
          "name": "_data",
          "type": "bytes"
        }
      ],
      "name": "safeTransferFrom",
      "outputs": [],
      "stateMutability": "nonpayable",
      "type": "function"
    },
    {
      "inputs": [
        {
          "internalType": "uint256",
          "name": "",
          "type": "uint256"
        }
      ],
      "name": "scripts",
      "outputs": [
        {
          "internalType": "string",
          "name": "",
          "type": "string"
        }
      ],
      "stateMutability": "view",
      "type": "function"
    },
    {
      "inputs": [
        {
          "internalType": "address",
          "name": "operator",
          "type": "address"
        },
        {
          "internalType": "bool",
          "name": "approved",
          "type": "bool"
        }
      ],
      "name": "setApprovalForAll",
      "outputs": [],
      "stateMutability": "nonpayable",
      "type": "function"
    },
    {
      "inputs": [
        {
          "internalType": "string",
          "name": "_uri",
          "type": "string"
        }
      ],
      "name": "setBaseURI",
      "outputs": [],
      "stateMutability": "nonpayable",
      "type": "function"
    },
    {
      "inputs": [
        {
          "internalType": "string",
          "name": "_desc",
          "type": "string"
        }
      ],
      "name": "setDescription",
      "outputs": [],
      "stateMutability": "nonpayable",
      "type": "function"
    },
    {
      "inputs": [
        {
          "internalType": "uint256",
          "name": "index",
          "type": "uint256"
        },
        {
          "internalType": "string",
          "name": "script",
          "type": "string"
        }
      ],
      "name": "setScript",
      "outputs": [],
      "stateMutability": "nonpayable",
      "type": "function"
    },
    {
      "inputs": [
        {
          "internalType": "string",
          "name": "_url",
          "type": "string"
        }
      ],
      "name": "setWebsite",
      "outputs": [],
      "stateMutability": "nonpayable",
      "type": "function"
    },
    {
      "inputs": [
        {
          "internalType": "bytes4",
          "name": "interfaceId",
          "type": "bytes4"
        }
      ],
      "name": "supportsInterface",
      "outputs": [
        {
          "internalType": "bool",
          "name": "",
          "type": "bool"
        }
      ],
      "stateMutability": "view",
      "type": "function"
    },
    {
      "inputs": [],
      "name": "symbol",
      "outputs": [
        {
          "internalType": "string",
          "name": "",
          "type": "string"
        }
      ],
      "stateMutability": "view",
      "type": "function"
    },
    {
      "inputs": [
        {
          "internalType": "uint256",
          "name": "index",
          "type": "uint256"
        }
      ],
      "name": "tokenByIndex",
      "outputs": [
        {
          "internalType": "uint256",
          "name": "",
          "type": "uint256"
        }
      ],
      "stateMutability": "view",
      "type": "function"
    },
    {
      "inputs": [
        {
          "internalType": "address",
          "name": "owner",
          "type": "address"
        },
        {
          "internalType": "uint256",
          "name": "index",
          "type": "uint256"
        }
      ],
      "name": "tokenOfOwnerByIndex",
      "outputs": [
        {
          "internalType": "uint256",
          "name": "",
          "type": "uint256"
        }
      ],
      "stateMutability": "view",
      "type": "function"
    },
    {
      "inputs": [
        {
          "internalType": "uint256",
          "name": "tokenId",
          "type": "uint256"
        }
      ],
      "name": "tokenURI",
      "outputs": [
        {
          "internalType": "string",
          "name": "",
          "type": "string"
        }
      ],
      "stateMutability": "view",
      "type": "function"
    },
    {
      "inputs": [],
      "name": "totalSupply",
      "outputs": [
        {
          "internalType": "uint256",
          "name": "",
          "type": "uint256"
        }
      ],
      "stateMutability": "view",
      "type": "function"
    },
    {
      "inputs": [
        {
          "internalType": "address",
          "name": "from",
          "type": "address"
        },
        {
          "internalType": "address",
          "name": "to",
          "type": "address"
        },
        {
          "internalType": "uint256",
          "name": "tokenId",
          "type": "uint256"
        }
      ],
      "name": "transferFrom",
      "outputs": [],
      "stateMutability": "nonpayable",
      "type": "function"
    },
    {
      "inputs": [],
      "name": "website",
      "outputs": [
        {
          "internalType": "string",
          "name": "",
          "type": "string"
        }
      ],
      "stateMutability": "view",
      "type": "function"
    },
    {
      "inputs": [],
      "name": "withdraw",
      "outputs": [],
      "stateMutability": "nonpayable",
      "type": "function"
    },
    {
      "stateMutability": "payable",
      "type": "receive"
    }
  ],
  "bytecode": "0x60806040526103e8600d5573e31a7d022e545eced32d276ca880649852c91353601460006101000a81548173ffffffffffffffffffffffffffffffffffffffff021916908373ffffffffffffffffffffffffffffffffffffffff1602179055506000601560006101000a81548173ffffffffffffffffffffffffffffffffffffffff021916908373ffffffffffffffffffffffffffffffffffffffff160217905550600060165560006017556102ee601860006101000a8154816bffffffffffffffffffffffff02191690836bffffffffffffffffffffffff1602179055506040518060400160405280600e81526020017f4950465320484153482048455245000000000000000000000000000000000000815250601990805190602001906200012b92919062000705565b506040518060400160405280600481526020017f66696e6500000000000000000000000000000000000000000000000000000000815250601a90805190602001906200017992919062000705565b506040518060400160405280601581526020017f612073616d706c65204e465420666f722046494e450000000000000000000000815250601b9080519060200190620001c792919062000705565b506040518060400160405280601481526020017f68747470733a2f2f66696e652e6469676974616c000000000000000000000000815250601c90805190602001906200021592919062000705565b506040518060400160405280600381526020017f4d49540000000000000000000000000000000000000000000000000000000000815250601d90805190602001906200026392919062000705565b503480156200027157600080fd5b506040516200617a3803806200617a8339818101604052810190620002979190620007cc565b6040518060400160405280600c81526020017f46494e45204469676974616c00000000000000000000000000000000000000008152506040518060400160405280600481526020017f46494e450000000000000000000000000000000000000000000000000000000081525081600290805190602001906200031b92919062000705565b5080600390805190602001906200033492919062000705565b5050506200034c6000801b33620003f360201b60201c565b6200037e7f9f2df0fed2c77648de5860a4cc508cd0818c85b8b8a1ab4ceeef8d981c8956a682620003f360201b60201c565b81600e60006101000a81548173ffffffffffffffffffffffffffffffffffffffff021916908373ffffffffffffffffffffffffffffffffffffffff160217905550620003eb30601860009054906101000a90046bffffffffffffffffffffffff16620004e560201b60201c565b5050620009db565b6200040582826200068860201b60201c565b620004e1576001600c600084815260200190815260200160002060000160008373ffffffffffffffffffffffffffffffffffffffff1673ffffffffffffffffffffffffffffffffffffffff16815260200190815260200160002060006101000a81548160ff02191690831515021790555062000486620006f360201b60201c565b73ffffffffffffffffffffffffffffffffffffffff168173ffffffffffffffffffffffffffffffffffffffff16837f2f8788117e7eff1d82e926ec794901d17c78024a50270940304540a733656f0d60405160405180910390a45b5050565b620004f5620006fb60201b60201c565b6bffffffffffffffffffffffff16816bffffffffffffffffffffffff16111562000556576040517f08c379a00000000000000000000000000000000000000000000000000000000081526004016200054d906200085b565b60405180910390fd5b600073ffffffffffffffffffffffffffffffffffffffff168273ffffffffffffffffffffffffffffffffffffffff161415620005c9576040517f08c379a0000000000000000000000000000000000000000000000000000000008152600401620005c0906200087d565b60405180910390fd5b60405180604001604052808373ffffffffffffffffffffffffffffffffffffffff168152602001826bffffffffffffffffffffffff168152506000808201518160000160006101000a81548173ffffffffffffffffffffffffffffffffffffffff021916908373ffffffffffffffffffffffffffffffffffffffff16021790555060208201518160000160146101000a8154816bffffffffffffffffffffffff02191690836bffffffffffffffffffffffff1602179055509050505050565b6000600c600084815260200190815260200160002060000160008373ffffffffffffffffffffffffffffffffffffffff1673ffffffffffffffffffffffffffffffffffffffff16815260200190815260200160002060009054906101000a900460ff16905092915050565b600033905090565b6000612710905090565b8280546200071390620008e4565b90600052602060002090601f01602090048101928262000737576000855562000783565b82601f106200075257805160ff191683800117855562000783565b8280016001018555821562000783579182015b828111156200078257825182559160200191906001019062000765565b5b50905062000792919062000796565b5090565b5b80821115620007b157600081600090555060010162000797565b5090565b600081519050620007c681620009c1565b92915050565b60008060408385031215620007e057600080fd5b6000620007f085828601620007b5565b92505060206200080385828601620007b5565b9150509250929050565b60006200081c602a836200089f565b9150620008298262000949565b604082019050919050565b6000620008436019836200089f565b9150620008508262000998565b602082019050919050565b6000602082019050818103600083015262000876816200080d565b9050919050565b60006020820190508181036000830152620008988162000834565b9050919050565b600082825260208201905092915050565b6000620008bd82620008c4565b9050919050565b600073ffffffffffffffffffffffffffffffffffffffff82169050919050565b60006002820490506001821680620008fd57607f821691505b602082108114156200091457620009136200091a565b5b50919050565b7f4e487b7100000000000000000000000000000000000000000000000000000000600052602260045260246000fd5b7f455243323938313a20726f79616c7479206665652077696c6c2065786365656460008201527f2073616c65507269636500000000000000000000000000000000000000000000602082015250565b7f455243323938313a20696e76616c696420726563656976657200000000000000600082015250565b620009cc81620008b0565b8114620009d857600080fd5b50565b61578f80620009eb6000396000f3fe6080604052600436106102cd5760003560e01c80636352211e116101755780639e1b0045116100dc578063c87b56dd11610095578063d7eb3f3a1161006f578063d7eb3f3a14610b50578063e985e9c514610b7b578063ea099ad914610bb8578063f87f44b914610be3576102d4565b8063c87b56dd14610abf578063d539139314610afc578063d547741f14610b27576102d4565b80639e1b0045146109c35780639f67756d146109ec578063a217fddf14610a17578063a22cb46514610a42578063b88d4fde14610a6b578063beb0a41614610a94576102d4565b806371199d301161012e57806371199d30146108b35780637284e416146108dc5780638cbe8d801461090757806390c3f38f1461093257806391d148541461095b57806395d89b4114610998576102d4565b80636352211e1461077b5780636a627842146107b85780636b87d24c146107f55780636c0360eb146108205780636ff314c71461084b57806370a0823114610876576102d4565b80632cc889741161023457806342842e0e116101ed5780634771218a116101c75780634771218a146106bf5780634f6ccce7146106ea57806355f804b31461072757806359748cb214610750576102d4565b806342842e0e1461064257806342966c681461066b57806343bc161214610694576102d4565b80632cc88974146105465780632f2ff15d146105715780632f745c591461059a57806336568abe146105d75780633ccfd60b1461060057806340138ff114610617576102d4565b8063176f5b0911610286578063176f5b091461040f57806318160ddd1461044c57806323b872dd14610477578063248a9ca3146104a057806328485586146104dd5780632a55205a14610508576102d4565b806301ffc9a7146102d9578063031bd4c41461031657806306fdde0314610341578063081812fc1461036c57806308ff7f61146103a9578063095ea7b3146103e6576102d4565b366102d457005b600080fd5b3480156102e557600080fd5b5061030060048036038101906102fb91906142e5565b610c0c565b60405161030d91906149c6565b60405180910390f35b34801561032257600080fd5b5061032b610c1e565b6040516103389190614c7e565b60405180910390f35b34801561034d57600080fd5b50610356610c24565b60405161036391906149fc565b60405180910390f35b34801561037857600080fd5b50610393600480360381019061038e919061437c565b610cb6565b6040516103a0919061491b565b60405180910390f35b3480156103b557600080fd5b506103d060048036038101906103cb919061437c565b610d3b565b6040516103dd91906149fc565b60405180910390f35b3480156103f257600080fd5b5061040d60048036038101906104089190614244565b610ddb565b005b34801561041b57600080fd5b506104366004803603810190610431919061437c565b610ef3565b6040516104439190614c7e565b60405180910390f35b34801561045857600080fd5b50610461610f0b565b60405161046e9190614c7e565b60405180910390f35b34801561048357600080fd5b5061049e6004803603810190610499919061413e565b610f18565b005b3480156104ac57600080fd5b506104c760048036038101906104c29190614280565b610f78565b6040516104d491906149e1565b60405180910390f35b3480156104e957600080fd5b506104f2610f98565b6040516104ff9190614c7e565b60405180910390f35b34801561051457600080fd5b5061052f600480360381019061052a9190614426565b610fa2565b60405161053d92919061499d565b60405180910390f35b34801561055257600080fd5b5061055b61118d565b6040516105689190614c7e565b60405180910390f35b34801561057d57600080fd5b50610598600480360381019061059391906142a9565b611197565b005b3480156105a657600080fd5b506105c160048036038101906105bc9190614244565b6111c0565b6040516105ce9190614c7e565b60405180910390f35b3480156105e357600080fd5b506105fe60048036038101906105f991906142a9565b611265565b005b34801561060c57600080fd5b506106156112e8565b005b34801561062357600080fd5b5061062c611309565b6040516106399190614c7e565b60405180910390f35b34801561064e57600080fd5b506106696004803603810190610664919061413e565b61130f565b005b34801561067757600080fd5b50610692600480360381019061068d919061437c565b61132f565b005b3480156106a057600080fd5b506106a961138b565b6040516106b691906149fc565b60405180910390f35b3480156106cb57600080fd5b506106d4611419565b6040516106e19190614c7e565b60405180910390f35b3480156106f657600080fd5b50610711600480360381019061070c919061437c565b61142a565b60405161071e9190614c7e565b60405180910390f35b34801561073357600080fd5b5061074e60048036038101906107499190614337565b6114c1565b005b34801561075c57600080fd5b506107656114ed565b6040516107729190614936565b60405180910390f35b34801561078757600080fd5b506107a2600480360381019061079d919061437c565b611513565b6040516107af919061491b565b60405180910390f35b3480156107c457600080fd5b506107df60048036038101906107da91906140b0565b6115c5565b6040516107ec9190614c7e565b60405180910390f35b34801561080157600080fd5b5061080a611775565b60405161081791906149fc565b60405180910390f35b34801561082c57600080fd5b50610835611803565b60405161084291906149fc565b60405180910390f35b34801561085757600080fd5b50610860611891565b60405161086d9190614936565b60405180910390f35b34801561088257600080fd5b5061089d600480360381019061089891906140b0565b6118bb565b6040516108aa9190614c7e565b60405180910390f35b3480156108bf57600080fd5b506108da60048036038101906108d591906143ce565b611973565b005b3480156108e857600080fd5b506108f16119b1565b6040516108fe91906149fc565b60405180910390f35b34801561091357600080fd5b5061091c611a3f565b6040516109299190614936565b60405180910390f35b34801561093e57600080fd5b5061095960048036038101906109549190614337565b611a69565b005b34801561096757600080fd5b50610982600480360381019061097d91906142a9565b611a95565b60405161098f91906149c6565b60405180910390f35b3480156109a457600080fd5b506109ad611b00565b6040516109ba91906149fc565b60405180910390f35b3480156109cf57600080fd5b506109ea60048036038101906109e59190614426565b611b92565b005b3480156109f857600080fd5b50610a01611bcd565b604051610a0e9190614cc2565b60405180910390f35b348015610a2357600080fd5b50610a2c611beb565b604051610a3991906149e1565b60405180910390f35b348015610a4e57600080fd5b50610a696004803603810190610a649190614208565b611bf2565b005b348015610a7757600080fd5b50610a926004803603810190610a8d919061418d565b611c08565b005b348015610aa057600080fd5b50610aa9611c6a565b604051610ab691906149fc565b60405180910390f35b348015610acb57600080fd5b50610ae66004803603810190610ae1919061437c565b611cf8565b604051610af391906149fc565b60405180910390f35b348015610b0857600080fd5b50610b11611d3f565b604051610b1e91906149e1565b60405180910390f35b348015610b3357600080fd5b50610b4e6004803603810190610b4991906142a9565b611d63565b005b348015610b5c57600080fd5b50610b65611d8c565b604051610b729190614936565b60405180910390f35b348015610b8757600080fd5b50610ba26004803603810190610b9d9190614102565b611db2565b604051610baf91906149c6565b60405180910390f35b348015610bc457600080fd5b50610bcd611e46565b604051610bda9190614c7e565b60405180910390f35b348015610bef57600080fd5b50610c0a6004803603810190610c059190614337565b611e4c565b005b6000610c1782611e78565b9050919050565b600d5481565b606060028054610c3390614fb4565b80601f0160208091040260200160405190810160405280929190818152602001828054610c5f90614fb4565b8015610cac5780601f10610c8157610100808354040283529160200191610cac565b820191906000526020600020905b815481529060010190602001808311610c8f57829003601f168201915b5050505050905090565b6000610cc182611ef2565b610d00576040517f08c379a0000000000000000000000000000000000000000000000000000000008152600401610cf790614b9e565b60405180910390fd5b6006600083815260200190815260200160002060009054906101000a900473ffffffffffffffffffffffffffffffffffffffff169050919050565b60116020528060005260406000206000915090508054610d5a90614fb4565b80601f0160208091040260200160405190810160405280929190818152602001828054610d8690614fb4565b8015610dd35780601f10610da857610100808354040283529160200191610dd3565b820191906000526020600020905b815481529060010190602001808311610db657829003601f168201915b505050505081565b6000610de682611513565b90508073ffffffffffffffffffffffffffffffffffffffff168373ffffffffffffffffffffffffffffffffffffffff161415610e57576040517f08c379a0000000000000000000000000000000000000000000000000000000008152600401610e4e90614bbe565b60405180910390fd5b8073ffffffffffffffffffffffffffffffffffffffff16610e76611f5e565b73ffffffffffffffffffffffffffffffffffffffff161480610ea55750610ea481610e9f611f5e565b611db2565b5b610ee4576040517f08c379a0000000000000000000000000000000000000000000000000000000008152600401610edb90614b1e565b60405180910390fd5b610eee8383611f66565b505050565b60106020528060005260406000206000915090505481565b6000600a80549050905090565b610f29610f23611f5e565b8261201f565b610f68576040517f08c379a0000000000000000000000000000000000000000000000000000000008152600401610f5f90614bde565b60405180910390fd5b610f738383836120fd565b505050565b6000600c6000838152602001908152602001600020600101549050919050565b6000600d54905090565b6000806000600160008681526020019081526020016000206040518060400160405290816000820160009054906101000a900473ffffffffffffffffffffffffffffffffffffffff1673ffffffffffffffffffffffffffffffffffffffff1673ffffffffffffffffffffffffffffffffffffffff1681526020016000820160149054906101000a90046bffffffffffffffffffffffff166bffffffffffffffffffffffff166bffffffffffffffffffffffff16815250509050600073ffffffffffffffffffffffffffffffffffffffff16816000015173ffffffffffffffffffffffffffffffffffffffff1614156111385760006040518060400160405290816000820160009054906101000a900473ffffffffffffffffffffffffffffffffffffffff1673ffffffffffffffffffffffffffffffffffffffff1673ffffffffffffffffffffffffffffffffffffffff1681526020016000820160149054906101000a90046bffffffffffffffffffffffff166bffffffffffffffffffffffff166bffffffffffffffffffffffff168152505090505b6000611142612364565b6bffffffffffffffffffffffff1682602001516bffffffffffffffffffffffff168661116e9190614e12565b6111789190614de1565b90508160000151819350935050509250929050565b6000601654905090565b6111a082610f78565b6111b1816111ac611f5e565b61236e565b6111bb838361240b565b505050565b60006111cb836118bb565b821061120c576040517f08c379a000000000000000000000000000000000000000000000000000000000815260040161120390614a3e565b60405180910390fd5b600860008473ffffffffffffffffffffffffffffffffffffffff1673ffffffffffffffffffffffffffffffffffffffff168152602001908152602001600020600083815260200190815260200160002054905092915050565b61126d611f5e565b73ffffffffffffffffffffffffffffffffffffffff168173ffffffffffffffffffffffffffffffffffffffff16146112da576040517f08c379a00000000000000000000000000000000000000000000000000000000081526004016112d190614c5e565b60405180910390fd5b6112e482826124ec565b5050565b6000801b6112fd816112f8611f5e565b61236e565b611306476125ce565b50565b60165481565b61132a83838360405180602001604052806000815250611c08565b505050565b61134061133a611f5e565b8261201f565b61137f576040517f08c379a000000000000000000000000000000000000000000000000000000000815260040161137690614c3e565b60405180910390fd5b6113888161289f565b50565b601a805461139890614fb4565b80601f01602080910402602001604051908101604052809291908181526020018280546113c490614fb4565b80156114115780601f106113e657610100808354040283529160200191611411565b820191906000526020600020905b8154815290600101906020018083116113f457829003601f168201915b505050505081565b600061142560126128ab565b905090565b6000611434610f0b565b8210611475576040517f08c379a000000000000000000000000000000000000000000000000000000000815260040161146c90614bfe565b60405180910390fd5b600a82815481106114af577f4e487b7100000000000000000000000000000000000000000000000000000000600052603260045260246000fd5b90600052602060002001549050919050565b6000801b6114d6816114d1611f5e565b61236e565b8282601991906114e7929190613eb3565b50505050565b601560009054906101000a900473ffffffffffffffffffffffffffffffffffffffff1681565b6000806004600084815260200190815260200160002060009054906101000a900473ffffffffffffffffffffffffffffffffffffffff169050600073ffffffffffffffffffffffffffffffffffffffff168173ffffffffffffffffffffffffffffffffffffffff1614156115bc576040517f08c379a00000000000000000000000000000000000000000000000000000000081526004016115b390614b5e565b60405180910390fd5b80915050919050565b60007f9f2df0fed2c77648de5860a4cc508cd0818c85b8b8a1ab4ceeef8d981c8956a66115f9816115f4611f5e565b61236e565b611603600f6128c0565b9150600d548210611649576040517f08c379a000000000000000000000000000000000000000000000000000000000815260040161164090614c1e565b60405180910390fd5b611653600f6128ce565b61165d83836128e4565b6000600e60009054906101000a900473ffffffffffffffffffffffffffffffffffffffff1673ffffffffffffffffffffffffffffffffffffffff166329e5d83184426040518363ffffffff1660e01b81526004016116bc929190614c99565b60206040518083038186803b1580156116d457600080fd5b505afa1580156116e8573d6000803e3d6000fd5b505050506040513d601f19601f8201168201806040525081019061170c91906143a5565b9050600061171a60126128ab565b826117259190615060565b9050600061173d82601261290290919063ffffffff16565b905080601060008781526020019081526020016000208190555061176b81601261291c90919063ffffffff16565b5050505050919050565b601d805461178290614fb4565b80601f01602080910402602001604051908101604052809291908181526020018280546117ae90614fb4565b80156117fb5780601f106117d0576101008083540402835291602001916117fb565b820191906000526020600020905b8154815290600101906020018083116117de57829003601f168201915b505050505081565b6019805461181090614fb4565b80601f016020809104026020016040519081016040528092919081815260200182805461183c90614fb4565b80156118895780601f1061185e57610100808354040283529160200191611889565b820191906000526020600020905b81548152906001019060200180831161186c57829003601f168201915b505050505081565b6000601560009054906101000a900473ffffffffffffffffffffffffffffffffffffffff16905090565b60008073ffffffffffffffffffffffffffffffffffffffff168273ffffffffffffffffffffffffffffffffffffffff16141561192c576040517f08c379a000000000000000000000000000000000000000000000000000000000815260040161192390614b3e565b60405180910390fd5b600560008373ffffffffffffffffffffffffffffffffffffffff1673ffffffffffffffffffffffffffffffffffffffff168152602001908152602001600020549050919050565b6000801b61198881611983611f5e565b61236e565b82826011600087815260200190815260200160002091906119aa929190613eb3565b5050505050565b601b80546119be90614fb4565b80601f01602080910402602001604051908101604052809291908181526020018280546119ea90614fb4565b8015611a375780601f10611a0c57610100808354040283529160200191611a37565b820191906000526020600020905b815481529060010190602001808311611a1a57829003601f168201915b505050505081565b6000601460009054906101000a900473ffffffffffffffffffffffffffffffffffffffff16905090565b6000801b611a7e81611a79611f5e565b61236e565b8282601b9190611a8f929190613eb3565b50505050565b6000600c600084815260200190815260200160002060000160008373ffffffffffffffffffffffffffffffffffffffff1673ffffffffffffffffffffffffffffffffffffffff16815260200190815260200160002060009054906101000a900460ff16905092915050565b606060038054611b0f90614fb4565b80601f0160208091040260200160405190810160405280929190818152602001828054611b3b90614fb4565b8015611b885780601f10611b5d57610100808354040283529160200191611b88565b820191906000526020600020905b815481529060010190602001808311611b6b57829003601f168201915b5050505050905090565b60008290505b81811015611bc857611bb481601261293690919063ffffffff16565b508080611bc090615017565b915050611b98565b505050565b601860009054906101000a90046bffffffffffffffffffffffff1681565b6000801b81565b611c04611bfd611f5e565b8383612950565b5050565b611c19611c13611f5e565b8361201f565b611c58576040517f08c379a0000000000000000000000000000000000000000000000000000000008152600401611c4f90614bde565b60405180910390fd5b611c6484848484612abd565b50505050565b601c8054611c7790614fb4565b80601f0160208091040260200160405190810160405280929190818152602001828054611ca390614fb4565b8015611cf05780601f10611cc557610100808354040283529160200191611cf0565b820191906000526020600020905b815481529060010190602001808311611cd357829003601f168201915b505050505081565b60606019611d186010600085815260200190815260200160002054612b19565b604051602001611d299291906148bd565b6040516020818303038152906040529050919050565b7f9f2df0fed2c77648de5860a4cc508cd0818c85b8b8a1ab4ceeef8d981c8956a681565b611d6c82610f78565b611d7d81611d78611f5e565b61236e565b611d8783836124ec565b505050565b601460009054906101000a900473ffffffffffffffffffffffffffffffffffffffff1681565b6000600760008473ffffffffffffffffffffffffffffffffffffffff1673ffffffffffffffffffffffffffffffffffffffff16815260200190815260200160002060008373ffffffffffffffffffffffffffffffffffffffff1673ffffffffffffffffffffffffffffffffffffffff16815260200190815260200160002060009054906101000a900460ff16905092915050565b60175481565b6000801b611e6181611e5c611f5e565b61236e565b8282601c9190611e72929190613eb3565b50505050565b60007f7965db0b000000000000000000000000000000000000000000000000000000007bffffffffffffffffffffffffffffffffffffffffffffffffffffffff1916827bffffffffffffffffffffffffffffffffffffffffffffffffffffffff19161480611eeb5750611eea82612cc6565b5b9050919050565b60008073ffffffffffffffffffffffffffffffffffffffff166004600084815260200190815260200160002060009054906101000a900473ffffffffffffffffffffffffffffffffffffffff1673ffffffffffffffffffffffffffffffffffffffff1614159050919050565b600033905090565b816006600083815260200190815260200160002060006101000a81548173ffffffffffffffffffffffffffffffffffffffff021916908373ffffffffffffffffffffffffffffffffffffffff160217905550808273ffffffffffffffffffffffffffffffffffffffff16611fd983611513565b73ffffffffffffffffffffffffffffffffffffffff167f8c5be1e5ebec7d5bd14f71427d1e84f3dd0314c0f7b2291e5b200ac8c7c3b92560405160405180910390a45050565b600061202a82611ef2565b612069576040517f08c379a000000000000000000000000000000000000000000000000000000000815260040161206090614afe565b60405180910390fd5b600061207483611513565b90508073ffffffffffffffffffffffffffffffffffffffff168473ffffffffffffffffffffffffffffffffffffffff1614806120e357508373ffffffffffffffffffffffffffffffffffffffff166120cb84610cb6565b73ffffffffffffffffffffffffffffffffffffffff16145b806120f457506120f38185611db2565b5b91505092915050565b8273ffffffffffffffffffffffffffffffffffffffff1661211d82611513565b73ffffffffffffffffffffffffffffffffffffffff1614612173576040517f08c379a000000000000000000000000000000000000000000000000000000000815260040161216a90614a7e565b60405180910390fd5b600073ffffffffffffffffffffffffffffffffffffffff168273ffffffffffffffffffffffffffffffffffffffff1614156121e3576040517f08c379a00000000000000000000000000000000000000000000000000000000081526004016121da90614abe565b60405180910390fd5b6121ee838383612cd8565b6121f9600082611f66565b6001600560008573ffffffffffffffffffffffffffffffffffffffff1673ffffffffffffffffffffffffffffffffffffffff16815260200190815260200160002060008282546122499190614e6c565b925050819055506001600560008473ffffffffffffffffffffffffffffffffffffffff1673ffffffffffffffffffffffffffffffffffffffff16815260200190815260200160002060008282546122a09190614d8b565b92505081905550816004600083815260200190815260200160002060006101000a81548173ffffffffffffffffffffffffffffffffffffffff021916908373ffffffffffffffffffffffffffffffffffffffff160217905550808273ffffffffffffffffffffffffffffffffffffffff168473ffffffffffffffffffffffffffffffffffffffff167fddf252ad1be2c89b69c2b068fc378daa952ba7f163c4a11628f55a4df523b3ef60405160405180910390a461235f838383612ce8565b505050565b6000612710905090565b6123788282611a95565b6124075761239d8173ffffffffffffffffffffffffffffffffffffffff166014612ced565b6123ab8360001c6020612ced565b6040516020016123bc9291906148e1565b6040516020818303038152906040526040517f08c379a00000000000000000000000000000000000000000000000000000000081526004016123fe91906149fc565b60405180910390fd5b5050565b6124158282611a95565b6124e8576001600c600084815260200190815260200160002060000160008373ffffffffffffffffffffffffffffffffffffffff1673ffffffffffffffffffffffffffffffffffffffff16815260200190815260200160002060006101000a81548160ff02191690831515021790555061248d611f5e565b73ffffffffffffffffffffffffffffffffffffffff168173ffffffffffffffffffffffffffffffffffffffff16837f2f8788117e7eff1d82e926ec794901d17c78024a50270940304540a733656f0d60405160405180910390a45b5050565b6124f68282611a95565b156125ca576000600c600084815260200190815260200160002060000160008373ffffffffffffffffffffffffffffffffffffffff1673ffffffffffffffffffffffffffffffffffffffff16815260200190815260200160002060006101000a81548160ff02191690831515021790555061256f611f5e565b73ffffffffffffffffffffffffffffffffffffffff168173ffffffffffffffffffffffffffffffffffffffff16837ff6391f5c32d9c69d2a47ea670b442974b53935d1edc7fd64eb21e047a839171b60405160405180910390a45b5050565b600081111561289c576000612710600e60009054906101000a900473ffffffffffffffffffffffffffffffffffffffff1673ffffffffffffffffffffffffffffffffffffffff1663d672131b6040518163ffffffff1660e01b8152600401602060405180830381600087803b15801561264657600080fd5b505af115801561265a573d6000803e3d6000fd5b505050506040513d601f19601f8201168201806040525081019061267e91906143a5565b836126899190614e12565b6126939190614de1565b9050600e60009054906101000a900473ffffffffffffffffffffffffffffffffffffffff1673ffffffffffffffffffffffffffffffffffffffff16637dafc0d36040518163ffffffff1660e01b8152600401602060405180830381600087803b1580156126ff57600080fd5b505af1158015612713573d6000803e3d6000fd5b505050506040513d601f19601f8201168201806040525081019061273791906140d9565b73ffffffffffffffffffffffffffffffffffffffff166108fc829081150290604051600060405180830381858888f1935050505015801561277c573d6000803e3d6000fd5b506000612710601754846127909190614e12565b61279a9190614de1565b9050600081111561281a57601560009054906101000a900473ffffffffffffffffffffffffffffffffffffffff1673ffffffffffffffffffffffffffffffffffffffff166108fc83856127ed9190614e6c565b9081150290604051600060405180830381858888f19350505050158015612818573d6000803e3d6000fd5b505b601460009054906101000a900473ffffffffffffffffffffffffffffffffffffffff1673ffffffffffffffffffffffffffffffffffffffff166108fc82846128629190614d8b565b8561286d9190614e6c565b9081150290604051600060405180830381858888f19350505050158015612898573d6000803e3d6000fd5b5050505b50565b6128a881612fe7565b50565b60006128b982600001612ffc565b9050919050565b600081600001549050919050565b6001816000016000828254019250508190555050565b6128fe82826040518060200160405280600081525061300d565b5050565b60006129118360000183613068565b60001c905092915050565b600061292e836000018360001b6130b9565b905092915050565b6000612948836000018360001b61323f565b905092915050565b8173ffffffffffffffffffffffffffffffffffffffff168373ffffffffffffffffffffffffffffffffffffffff1614156129bf576040517f08c379a00000000000000000000000000000000000000000000000000000000081526004016129b690614ade565b60405180910390fd5b80600760008573ffffffffffffffffffffffffffffffffffffffff1673ffffffffffffffffffffffffffffffffffffffff16815260200190815260200160002060008473ffffffffffffffffffffffffffffffffffffffff1673ffffffffffffffffffffffffffffffffffffffff16815260200190815260200160002060006101000a81548160ff0219169083151502179055508173ffffffffffffffffffffffffffffffffffffffff168373ffffffffffffffffffffffffffffffffffffffff167f17307eab39ab6107e8899845ad3d59bd9653f200f220920489ca2b5937696c3183604051612ab091906149c6565b60405180910390a3505050565b612ac88484846120fd565b612ad4848484846132af565b612b13576040517f08c379a0000000000000000000000000000000000000000000000000000000008152600401612b0a90614a5e565b60405180910390fd5b50505050565b60606000821415612b61576040518060400160405280600181526020017f30000000000000000000000000000000000000000000000000000000000000008152509050612cc1565b600082905060005b60008214612b93578080612b7c90615017565b915050600a82612b8c9190614de1565b9150612b69565b60008167ffffffffffffffff811115612bd5577f4e487b7100000000000000000000000000000000000000000000000000000000600052604160045260246000fd5b6040519080825280601f01601f191660200182016040528015612c075781602001600182028036833780820191505090505b5090505b60008514612cba57600182612c209190614e6c565b9150600a85612c2f9190615060565b6030612c3b9190614d8b565b60f81b818381518110612c77577f4e487b7100000000000000000000000000000000000000000000000000000000600052603260045260246000fd5b60200101907effffffffffffffffffffffffffffffffffffffffffffffffffffffffffffff1916908160001a905350600a85612cb39190614de1565b9450612c0b565b8093505050505b919050565b6000612cd182613446565b9050919050565b612ce38383836134c0565b505050565b505050565b606060006002836002612d009190614e12565b612d0a9190614d8b565b67ffffffffffffffff811115612d49577f4e487b7100000000000000000000000000000000000000000000000000000000600052604160045260246000fd5b6040519080825280601f01601f191660200182016040528015612d7b5781602001600182028036833780820191505090505b5090507f300000000000000000000000000000000000000000000000000000000000000081600081518110612dd9577f4e487b7100000000000000000000000000000000000000000000000000000000600052603260045260246000fd5b60200101907effffffffffffffffffffffffffffffffffffffffffffffffffffffffffffff1916908160001a9053507f780000000000000000000000000000000000000000000000000000000000000081600181518110612e63577f4e487b7100000000000000000000000000000000000000000000000000000000600052603260045260246000fd5b60200101907effffffffffffffffffffffffffffffffffffffffffffffffffffffffffffff1916908160001a90535060006001846002612ea39190614e12565b612ead9190614d8b565b90505b6001811115612f99577f3031323334353637383961626364656600000000000000000000000000000000600f861660108110612f15577f4e487b7100000000000000000000000000000000000000000000000000000000600052603260045260246000fd5b1a60f81b828281518110612f52577f4e487b7100000000000000000000000000000000000000000000000000000000600052603260045260246000fd5b60200101907effffffffffffffffffffffffffffffffffffffffffffffffffffffffffffff1916908160001a905350600485901c945080612f9290614f8a565b9050612eb0565b5060008414612fdd576040517f08c379a0000000000000000000000000000000000000000000000000000000008152600401612fd490614a1e565b60405180910390fd5b8091505092915050565b612ff0816135d4565b612ff9816136f1565b50565b600081600001805490509050919050565b6130178383613750565b61302460008484846132af565b613063576040517f08c379a000000000000000000000000000000000000000000000000000000000815260040161305a90614a5e565b60405180910390fd5b505050565b60008260000182815481106130a6577f4e487b7100000000000000000000000000000000000000000000000000000000600052603260045260246000fd5b9060005260206000200154905092915050565b600080836001016000848152602001908152602001600020549050600081146132335760006001826130eb9190614e6c565b90506000600186600001805490506131039190614e6c565b90508181146131be57600086600001828154811061314a577f4e487b7100000000000000000000000000000000000000000000000000000000600052603260045260246000fd5b9060005260206000200154905080876000018481548110613194577f4e487b7100000000000000000000000000000000000000000000000000000000600052603260045260246000fd5b90600052602060002001819055508387600101600083815260200190815260200160002081905550505b856000018054806131f8577f4e487b7100000000000000000000000000000000000000000000000000000000600052603160045260246000fd5b600190038181906000526020600020016000905590558560010160008681526020019081526020016000206000905560019350505050613239565b60009150505b92915050565b600061324b838361392a565b6132a45782600001829080600181540180825580915050600190039060005260206000200160009091909190915055826000018054905083600101600084815260200190815260200160002081905550600190506132a9565b600090505b92915050565b60006132d08473ffffffffffffffffffffffffffffffffffffffff1661394d565b15613439578373ffffffffffffffffffffffffffffffffffffffff1663150b7a026132f9611f5e565b8786866040518563ffffffff1660e01b815260040161331b9493929190614951565b602060405180830381600087803b15801561333557600080fd5b505af192505050801561336657506040513d601f19601f82011682018060405250810190613363919061430e565b60015b6133e9573d8060008114613396576040519150601f19603f3d011682016040523d82523d6000602084013e61339b565b606091505b506000815114156133e1576040517f08c379a00000000000000000000000000000000000000000000000000000000081526004016133d890614a5e565b60405180910390fd5b805181602001fd5b63150b7a0260e01b7bffffffffffffffffffffffffffffffffffffffffffffffffffffffff1916817bffffffffffffffffffffffffffffffffffffffffffffffffffffffff19161491505061343e565b600190505b949350505050565b60007f780e9d63000000000000000000000000000000000000000000000000000000007bffffffffffffffffffffffffffffffffffffffffffffffffffffffff1916827bffffffffffffffffffffffffffffffffffffffffffffffffffffffff191614806134b957506134b882613970565b5b9050919050565b6134cb838383613a52565b600073ffffffffffffffffffffffffffffffffffffffff168373ffffffffffffffffffffffffffffffffffffffff16141561350e5761350981613a57565b61354d565b8173ffffffffffffffffffffffffffffffffffffffff168373ffffffffffffffffffffffffffffffffffffffff161461354c5761354b8382613aa0565b5b5b600073ffffffffffffffffffffffffffffffffffffffff168273ffffffffffffffffffffffffffffffffffffffff1614156135905761358b81613c0d565b6135cf565b8273ffffffffffffffffffffffffffffffffffffffff168273ffffffffffffffffffffffffffffffffffffffff16146135ce576135cd8282613d50565b5b5b505050565b60006135df82611513565b90506135ed81600084612cd8565b6135f8600083611f66565b6001600560008373ffffffffffffffffffffffffffffffffffffffff1673ffffffffffffffffffffffffffffffffffffffff16815260200190815260200160002060008282546136489190614e6c565b925050819055506004600083815260200190815260200160002060006101000a81549073ffffffffffffffffffffffffffffffffffffffff021916905581600073ffffffffffffffffffffffffffffffffffffffff168273ffffffffffffffffffffffffffffffffffffffff167fddf252ad1be2c89b69c2b068fc378daa952ba7f163c4a11628f55a4df523b3ef60405160405180910390a46136ed81600084612ce8565b5050565b60016000828152602001908152602001600020600080820160006101000a81549073ffffffffffffffffffffffffffffffffffffffff02191690556000820160146101000a8154906bffffffffffffffffffffffff0219169055505050565b600073ffffffffffffffffffffffffffffffffffffffff168273ffffffffffffffffffffffffffffffffffffffff1614156137c0576040517f08c379a00000000000000000000000000000000000000000000000000000000081526004016137b790614b7e565b60405180910390fd5b6137c981611ef2565b15613809576040517f08c379a000000000000000000000000000000000000000000000000000000000815260040161380090614a9e565b60405180910390fd5b61381560008383612cd8565b6001600560008473ffffffffffffffffffffffffffffffffffffffff1673ffffffffffffffffffffffffffffffffffffffff16815260200190815260200160002060008282546138659190614d8b565b92505081905550816004600083815260200190815260200160002060006101000a81548173ffffffffffffffffffffffffffffffffffffffff021916908373ffffffffffffffffffffffffffffffffffffffff160217905550808273ffffffffffffffffffffffffffffffffffffffff16600073ffffffffffffffffffffffffffffffffffffffff167fddf252ad1be2c89b69c2b068fc378daa952ba7f163c4a11628f55a4df523b3ef60405160405180910390a461392660008383612ce8565b5050565b600080836001016000848152602001908152602001600020541415905092915050565b6000808273ffffffffffffffffffffffffffffffffffffffff163b119050919050565b60007f80ac58cd000000000000000000000000000000000000000000000000000000007bffffffffffffffffffffffffffffffffffffffffffffffffffffffff1916827bffffffffffffffffffffffffffffffffffffffffffffffffffffffff19161480613a3b57507f5b5e139f000000000000000000000000000000000000000000000000000000007bffffffffffffffffffffffffffffffffffffffffffffffffffffffff1916827bffffffffffffffffffffffffffffffffffffffffffffffffffffffff1916145b80613a4b5750613a4a82613dcf565b5b9050919050565b505050565b600a80549050600b600083815260200190815260200160002081905550600a81908060018154018082558091505060019003906000526020600020016000909190919091505550565b60006001613aad846118bb565b613ab79190614e6c565b9050600060096000848152602001908152602001600020549050818114613b9c576000600860008673ffffffffffffffffffffffffffffffffffffffff1673ffffffffffffffffffffffffffffffffffffffff168152602001908152602001600020600084815260200190815260200160002054905080600860008773ffffffffffffffffffffffffffffffffffffffff1673ffffffffffffffffffffffffffffffffffffffff168152602001908152602001600020600084815260200190815260200160002081905550816009600083815260200190815260200160002081905550505b6009600084815260200190815260200160002060009055600860008573ffffffffffffffffffffffffffffffffffffffff1673ffffffffffffffffffffffffffffffffffffffff16815260200190815260200160002060008381526020019081526020016000206000905550505050565b60006001600a80549050613c219190614e6c565b90506000600b60008481526020019081526020016000205490506000600a8381548110613c77577f4e487b7100000000000000000000000000000000000000000000000000000000600052603260045260246000fd5b9060005260206000200154905080600a8381548110613cbf577f4e487b7100000000000000000000000000000000000000000000000000000000600052603260045260246000fd5b906000526020600020018190555081600b600083815260200190815260200160002081905550600b600085815260200190815260200160002060009055600a805480613d34577f4e487b7100000000000000000000000000000000000000000000000000000000600052603160045260246000fd5b6001900381819060005260206000200160009055905550505050565b6000613d5b836118bb565b905081600860008573ffffffffffffffffffffffffffffffffffffffff1673ffffffffffffffffffffffffffffffffffffffff168152602001908152602001600020600083815260200190815260200160002081905550806009600084815260200190815260200160002081905550505050565b60007f2a55205a000000000000000000000000000000000000000000000000000000007bffffffffffffffffffffffffffffffffffffffffffffffffffffffff1916827bffffffffffffffffffffffffffffffffffffffffffffffffffffffff19161480613e425750613e4182613e49565b5b9050919050565b60007f01ffc9a7000000000000000000000000000000000000000000000000000000007bffffffffffffffffffffffffffffffffffffffffffffffffffffffff1916827bffffffffffffffffffffffffffffffffffffffffffffffffffffffff1916149050919050565b828054613ebf90614fb4565b90600052602060002090601f016020900481019282613ee15760008555613f28565b82601f10613efa57803560ff1916838001178555613f28565b82800160010185558215613f28579182015b82811115613f27578235825591602001919060010190613f0c565b5b509050613f359190613f39565b5090565b5b80821115613f52576000816000905550600101613f3a565b5090565b6000613f69613f6484614d02565b614cdd565b905082815260208101848484011115613f8157600080fd5b613f8c848285614f48565b509392505050565b600081359050613fa3816156cf565b92915050565b600081519050613fb8816156e6565b92915050565b600081359050613fcd816156fd565b92915050565b600081359050613fe281615714565b92915050565b600081359050613ff78161572b565b92915050565b60008151905061400c8161572b565b92915050565b600082601f83011261402357600080fd5b8135614033848260208601613f56565b91505092915050565b60008083601f84011261404e57600080fd5b8235905067ffffffffffffffff81111561406757600080fd5b60208301915083600182028301111561407f57600080fd5b9250929050565b60008135905061409581615742565b92915050565b6000815190506140aa81615742565b92915050565b6000602082840312156140c257600080fd5b60006140d084828501613f94565b91505092915050565b6000602082840312156140eb57600080fd5b60006140f984828501613fa9565b91505092915050565b6000806040838503121561411557600080fd5b600061412385828601613f94565b925050602061413485828601613f94565b9150509250929050565b60008060006060848603121561415357600080fd5b600061416186828701613f94565b935050602061417286828701613f94565b925050604061418386828701614086565b9150509250925092565b600080600080608085870312156141a357600080fd5b60006141b187828801613f94565b94505060206141c287828801613f94565b93505060406141d387828801614086565b925050606085013567ffffffffffffffff8111156141f057600080fd5b6141fc87828801614012565b91505092959194509250565b6000806040838503121561421b57600080fd5b600061422985828601613f94565b925050602061423a85828601613fbe565b9150509250929050565b6000806040838503121561425757600080fd5b600061426585828601613f94565b925050602061427685828601614086565b9150509250929050565b60006020828403121561429257600080fd5b60006142a084828501613fd3565b91505092915050565b600080604083850312156142bc57600080fd5b60006142ca85828601613fd3565b92505060206142db85828601613f94565b9150509250929050565b6000602082840312156142f757600080fd5b600061430584828501613fe8565b91505092915050565b60006020828403121561432057600080fd5b600061432e84828501613ffd565b91505092915050565b6000806020838503121561434a57600080fd5b600083013567ffffffffffffffff81111561436457600080fd5b6143708582860161403c565b92509250509250929050565b60006020828403121561438e57600080fd5b600061439c84828501614086565b91505092915050565b6000602082840312156143b757600080fd5b60006143c58482850161409b565b91505092915050565b6000806000604084860312156143e357600080fd5b60006143f186828701614086565b935050602084013567ffffffffffffffff81111561440e57600080fd5b61441a8682870161403c565b92509250509250925092565b6000806040838503121561443957600080fd5b600061444785828601614086565b925050602061445885828601614086565b9150509250929050565b61446b81614eb2565b82525050565b61447a81614ea0565b82525050565b61448981614ec4565b82525050565b61449881614ed0565b82525050565b60006144a982614d48565b6144b38185614d5e565b93506144c3818560208601614f57565b6144cc8161514d565b840191505092915050565b60006144e282614d53565b6144ec8185614d6f565b93506144fc818560208601614f57565b6145058161514d565b840191505092915050565b600061451b82614d53565b6145258185614d80565b9350614535818560208601614f57565b80840191505092915050565b6000815461454e81614fb4565b6145588186614d80565b945060018216600081146145735760018114614584576145b7565b60ff198316865281860193506145b7565b61458d85614d33565b60005b838110156145af57815481890152600182019150602081019050614590565b838801955050505b50505092915050565b60006145cd602083614d6f565b91506145d88261515e565b602082019050919050565b60006145f0602b83614d6f565b91506145fb82615187565b604082019050919050565b6000614613603283614d6f565b915061461e826151d6565b604082019050919050565b6000614636602583614d6f565b915061464182615225565b604082019050919050565b6000614659601c83614d6f565b915061466482615274565b602082019050919050565b600061467c602483614d6f565b91506146878261529d565b604082019050919050565b600061469f601983614d6f565b91506146aa826152ec565b602082019050919050565b60006146c2602c83614d6f565b91506146cd82615315565b604082019050919050565b60006146e5603883614d6f565b91506146f082615364565b604082019050919050565b6000614708602a83614d6f565b9150614713826153b3565b604082019050919050565b600061472b602983614d6f565b915061473682615402565b604082019050919050565b600061474e602083614d6f565b915061475982615451565b602082019050919050565b6000614771602c83614d6f565b915061477c8261547a565b604082019050919050565b6000614794602183614d6f565b915061479f826154c9565b604082019050919050565b60006147b7603183614d6f565b91506147c282615518565b604082019050919050565b60006147da602c83614d6f565b91506147e582615567565b604082019050919050565b60006147fd601783614d80565b9150614808826155b6565b601782019050919050565b6000614820601283614d6f565b915061482b826155df565b602082019050919050565b6000614843603083614d6f565b915061484e82615608565b604082019050919050565b6000614866601183614d80565b915061487182615657565b601182019050919050565b6000614889602f83614d6f565b915061489482615680565b604082019050919050565b6148a881614f26565b82525050565b6148b781614f30565b82525050565b60006148c98285614541565b91506148d58284614510565b91508190509392505050565b60006148ec826147f0565b91506148f88285614510565b915061490382614859565b915061490f8284614510565b91508190509392505050565b60006020820190506149306000830184614471565b92915050565b600060208201905061494b6000830184614462565b92915050565b60006080820190506149666000830187614471565b6149736020830186614471565b614980604083018561489f565b8181036060830152614992818461449e565b905095945050505050565b60006040820190506149b26000830185614471565b6149bf602083018461489f565b9392505050565b60006020820190506149db6000830184614480565b92915050565b60006020820190506149f6600083018461448f565b92915050565b60006020820190508181036000830152614a1681846144d7565b905092915050565b60006020820190508181036000830152614a37816145c0565b9050919050565b60006020820190508181036000830152614a57816145e3565b9050919050565b60006020820190508181036000830152614a7781614606565b9050919050565b60006020820190508181036000830152614a9781614629565b9050919050565b60006020820190508181036000830152614ab78161464c565b9050919050565b60006020820190508181036000830152614ad78161466f565b9050919050565b60006020820190508181036000830152614af781614692565b9050919050565b60006020820190508181036000830152614b17816146b5565b9050919050565b60006020820190508181036000830152614b37816146d8565b9050919050565b60006020820190508181036000830152614b57816146fb565b9050919050565b60006020820190508181036000830152614b778161471e565b9050919050565b60006020820190508181036000830152614b9781614741565b9050919050565b60006020820190508181036000830152614bb781614764565b9050919050565b60006020820190508181036000830152614bd781614787565b9050919050565b60006020820190508181036000830152614bf7816147aa565b9050919050565b60006020820190508181036000830152614c17816147cd565b9050919050565b60006020820190508181036000830152614c3781614813565b9050919050565b60006020820190508181036000830152614c5781614836565b9050919050565b60006020820190508181036000830152614c778161487c565b9050919050565b6000602082019050614c93600083018461489f565b92915050565b6000604082019050614cae600083018561489f565b614cbb602083018461489f565b9392505050565b6000602082019050614cd760008301846148ae565b92915050565b6000614ce7614cf8565b9050614cf38282614fe6565b919050565b6000604051905090565b600067ffffffffffffffff821115614d1d57614d1c61511e565b5b614d268261514d565b9050602081019050919050565b60008190508160005260206000209050919050565b600081519050919050565b600081519050919050565b600082825260208201905092915050565b600082825260208201905092915050565b600081905092915050565b6000614d9682614f26565b9150614da183614f26565b9250827fffffffffffffffffffffffffffffffffffffffffffffffffffffffffffffffff03821115614dd657614dd5615091565b5b828201905092915050565b6000614dec82614f26565b9150614df783614f26565b925082614e0757614e066150c0565b5b828204905092915050565b6000614e1d82614f26565b9150614e2883614f26565b9250817fffffffffffffffffffffffffffffffffffffffffffffffffffffffffffffffff0483118215151615614e6157614e60615091565b5b828202905092915050565b6000614e7782614f26565b9150614e8283614f26565b925082821015614e9557614e94615091565b5b828203905092915050565b6000614eab82614f06565b9050919050565b6000614ebd82614f06565b9050919050565b60008115159050919050565b6000819050919050565b60007fffffffff0000000000000000000000000000000000000000000000000000000082169050919050565b600073ffffffffffffffffffffffffffffffffffffffff82169050919050565b6000819050919050565b60006bffffffffffffffffffffffff82169050919050565b82818337600083830152505050565b60005b83811015614f75578082015181840152602081019050614f5a565b83811115614f84576000848401525b50505050565b6000614f9582614f26565b91506000821415614fa957614fa8615091565b5b600182039050919050565b60006002820490506001821680614fcc57607f821691505b60208210811415614fe057614fdf6150ef565b5b50919050565b614fef8261514d565b810181811067ffffffffffffffff8211171561500e5761500d61511e565b5b80604052505050565b600061502282614f26565b91507fffffffffffffffffffffffffffffffffffffffffffffffffffffffffffffffff82141561505557615054615091565b5b600182019050919050565b600061506b82614f26565b915061507683614f26565b925082615086576150856150c0565b5b828206905092915050565b7f4e487b7100000000000000000000000000000000000000000000000000000000600052601160045260246000fd5b7f4e487b7100000000000000000000000000000000000000000000000000000000600052601260045260246000fd5b7f4e487b7100000000000000000000000000000000000000000000000000000000600052602260045260246000fd5b7f4e487b7100000000000000000000000000000000000000000000000000000000600052604160045260246000fd5b6000601f19601f8301169050919050565b7f537472696e67733a20686578206c656e67746820696e73756666696369656e74600082015250565b7f455243373231456e756d657261626c653a206f776e657220696e646578206f7560008201527f74206f6620626f756e6473000000000000000000000000000000000000000000602082015250565b7f4552433732313a207472616e7366657220746f206e6f6e20455243373231526560008201527f63656976657220696d706c656d656e7465720000000000000000000000000000602082015250565b7f4552433732313a207472616e736665722066726f6d20696e636f72726563742060008201527f6f776e6572000000000000000000000000000000000000000000000000000000602082015250565b7f4552433732313a20746f6b656e20616c7265616479206d696e74656400000000600082015250565b7f4552433732313a207472616e7366657220746f20746865207a65726f2061646460008201527f7265737300000000000000000000000000000000000000000000000000000000602082015250565b7f4552433732313a20617070726f766520746f2063616c6c657200000000000000600082015250565b7f4552433732313a206f70657261746f7220717565727920666f72206e6f6e657860008201527f697374656e7420746f6b656e0000000000000000000000000000000000000000602082015250565b7f4552433732313a20617070726f76652063616c6c6572206973206e6f74206f7760008201527f6e6572206e6f7220617070726f76656420666f7220616c6c0000000000000000602082015250565b7f4552433732313a2062616c616e636520717565727920666f7220746865207a6560008201527f726f206164647265737300000000000000000000000000000000000000000000602082015250565b7f4552433732313a206f776e657220717565727920666f72206e6f6e657869737460008201527f656e7420746f6b656e0000000000000000000000000000000000000000000000602082015250565b7f4552433732313a206d696e7420746f20746865207a65726f2061646472657373600082015250565b7f4552433732313a20617070726f76656420717565727920666f72206e6f6e657860008201527f697374656e7420746f6b656e0000000000000000000000000000000000000000602082015250565b7f4552433732313a20617070726f76616c20746f2063757272656e74206f776e6560008201527f7200000000000000000000000000000000000000000000000000000000000000602082015250565b7f4552433732313a207472616e736665722063616c6c6572206973206e6f74206f60008201527f776e6572206e6f7220617070726f766564000000000000000000000000000000602082015250565b7f455243373231456e756d657261626c653a20676c6f62616c20696e646578206f60008201527f7574206f6620626f756e64730000000000000000000000000000000000000000602082015250565b7f416363657373436f6e74726f6c3a206163636f756e7420000000000000000000600082015250565b7f737570706c792063617020726561636865640000000000000000000000000000600082015250565b7f4552433732314275726e61626c653a2063616c6c6572206973206e6f74206f7760008201527f6e6572206e6f7220617070726f76656400000000000000000000000000000000602082015250565b7f206973206d697373696e6720726f6c6520000000000000000000000000000000600082015250565b7f416363657373436f6e74726f6c3a2063616e206f6e6c792072656e6f756e636560008201527f20726f6c657320666f722073656c660000000000000000000000000000000000602082015250565b6156d881614ea0565b81146156e357600080fd5b50565b6156ef81614eb2565b81146156fa57600080fd5b50565b61570681614ec4565b811461571157600080fd5b50565b61571d81614ed0565b811461572857600080fd5b50565b61573481614eda565b811461573f57600080fd5b50565b61574b81614f26565b811461575657600080fd5b5056fea26469706673582212201b0ed7b220b610aa7c3eb24e68202ce629243a8370034d773879a33fa34f15ee64736f6c63430008020033",
  "linkReferences": {},
  "deployedLinkReferences": {}
}