{
  "_format": "hh-sol-artifact-1",
  "contractName": "FineNFT",
  "sourceName": "contracts/FineNFT.sol",
  "abi": [
    {
      "inputs": [
        {
          "internalType": "address",
          "name": "coreAddress",
          "type": "address"
        },
        {
          "internalType": "address",
          "name": "shopAddress",
          "type": "address"
        }
      ],
      "stateMutability": "nonpayable",
      "type": "constructor"
    },
    {
      "anonymous": false,
      "inputs": [
        {
          "indexed": true,
          "internalType": "address",
          "name": "owner",
          "type": "address"
        },
        {
          "indexed": true,
          "internalType": "address",
          "name": "approved",
          "type": "address"
        },
        {
          "indexed": true,
          "internalType": "uint256",
          "name": "tokenId",
          "type": "uint256"
        }
      ],
      "name": "Approval",
      "type": "event"
    },
    {
      "anonymous": false,
      "inputs": [
        {
          "indexed": true,
          "internalType": "address",
          "name": "owner",
          "type": "address"
        },
        {
          "indexed": true,
          "internalType": "address",
          "name": "operator",
          "type": "address"
        },
        {
          "indexed": false,
          "internalType": "bool",
          "name": "approved",
          "type": "bool"
        }
      ],
      "name": "ApprovalForAll",
      "type": "event"
    },
    {
      "anonymous": false,
      "inputs": [
        {
          "indexed": true,
          "internalType": "bytes32",
          "name": "role",
          "type": "bytes32"
        },
        {
          "indexed": true,
          "internalType": "bytes32",
          "name": "previousAdminRole",
          "type": "bytes32"
        },
        {
          "indexed": true,
          "internalType": "bytes32",
          "name": "newAdminRole",
          "type": "bytes32"
        }
      ],
      "name": "RoleAdminChanged",
      "type": "event"
    },
    {
      "anonymous": false,
      "inputs": [
        {
          "indexed": true,
          "internalType": "bytes32",
          "name": "role",
          "type": "bytes32"
        },
        {
          "indexed": true,
          "internalType": "address",
          "name": "account",
          "type": "address"
        },
        {
          "indexed": true,
          "internalType": "address",
          "name": "sender",
          "type": "address"
        }
      ],
      "name": "RoleGranted",
      "type": "event"
    },
    {
      "anonymous": false,
      "inputs": [
        {
          "indexed": true,
          "internalType": "bytes32",
          "name": "role",
          "type": "bytes32"
        },
        {
          "indexed": true,
          "internalType": "address",
          "name": "account",
          "type": "address"
        },
        {
          "indexed": true,
          "internalType": "address",
          "name": "sender",
          "type": "address"
        }
      ],
      "name": "RoleRevoked",
      "type": "event"
    },
    {
      "anonymous": false,
      "inputs": [
        {
          "indexed": true,
          "internalType": "address",
          "name": "from",
          "type": "address"
        },
        {
          "indexed": true,
          "internalType": "address",
          "name": "to",
          "type": "address"
        },
        {
          "indexed": true,
          "internalType": "uint256",
          "name": "tokenId",
          "type": "uint256"
        }
      ],
      "name": "Transfer",
      "type": "event"
    },
    {
      "inputs": [],
      "name": "DEFAULT_ADMIN_ROLE",
      "outputs": [
        {
          "internalType": "bytes32",
          "name": "",
          "type": "bytes32"
        }
      ],
      "stateMutability": "view",
      "type": "function"
    },
    {
      "inputs": [],
      "name": "MINTER_ROLE",
      "outputs": [
        {
          "internalType": "bytes32",
          "name": "",
          "type": "bytes32"
        }
      ],
      "stateMutability": "view",
      "type": "function"
    },
    {
      "inputs": [],
      "name": "TOKEN_LIMIT",
      "outputs": [
        {
          "internalType": "uint256",
          "name": "",
          "type": "uint256"
        }
      ],
      "stateMutability": "view",
      "type": "function"
    },
    {
      "inputs": [],
      "name": "additionalPayee",
      "outputs": [
        {
          "internalType": "address payable",
          "name": "",
          "type": "address"
        }
      ],
      "stateMutability": "view",
      "type": "function"
    },
    {
      "inputs": [],
      "name": "additionalPayeePercentage",
      "outputs": [
        {
          "internalType": "uint256",
          "name": "",
          "type": "uint256"
        }
      ],
      "stateMutability": "view",
      "type": "function"
    },
    {
      "inputs": [
        {
          "internalType": "address",
          "name": "to",
          "type": "address"
        },
        {
          "internalType": "uint256",
          "name": "tokenId",
          "type": "uint256"
        }
      ],
      "name": "approve",
      "outputs": [],
      "stateMutability": "nonpayable",
      "type": "function"
    },
    {
      "inputs": [],
      "name": "artist",
      "outputs": [
        {
          "internalType": "string",
          "name": "",
          "type": "string"
        }
      ],
      "stateMutability": "view",
      "type": "function"
    },
    {
      "inputs": [],
      "name": "artistAddress",
      "outputs": [
        {
          "internalType": "address payable",
          "name": "",
          "type": "address"
        }
      ],
      "stateMutability": "view",
      "type": "function"
    },
    {
      "inputs": [
        {
          "internalType": "uint256",
          "name": "",
          "type": "uint256"
        }
      ],
      "name": "artworkId",
      "outputs": [
        {
          "internalType": "uint256",
          "name": "",
          "type": "uint256"
        }
      ],
      "stateMutability": "view",
      "type": "function"
    },
    {
      "inputs": [
        {
          "internalType": "address",
          "name": "owner",
          "type": "address"
        }
      ],
      "name": "balanceOf",
      "outputs": [
        {
          "internalType": "uint256",
          "name": "",
          "type": "uint256"
        }
      ],
      "stateMutability": "view",
      "type": "function"
    },
    {
      "inputs": [],
      "name": "baseURI",
      "outputs": [
        {
          "internalType": "string",
          "name": "",
          "type": "string"
        }
      ],
      "stateMutability": "view",
      "type": "function"
    },
    {
      "inputs": [
        {
          "internalType": "uint256",
          "name": "tokenId",
          "type": "uint256"
        }
      ],
      "name": "burn",
      "outputs": [],
      "stateMutability": "nonpayable",
      "type": "function"
    },
    {
      "inputs": [],
      "name": "checkPool",
      "outputs": [
        {
          "internalType": "uint256",
          "name": "",
          "type": "uint256"
        }
      ],
      "stateMutability": "view",
      "type": "function"
    },
    {
      "inputs": [],
      "name": "description",
      "outputs": [
        {
          "internalType": "string",
          "name": "",
          "type": "string"
        }
      ],
      "stateMutability": "view",
      "type": "function"
    },
    {
      "inputs": [],
      "name": "getAdditionalPayee",
      "outputs": [
        {
          "internalType": "address payable",
          "name": "",
          "type": "address"
        }
      ],
      "stateMutability": "view",
      "type": "function"
    },
    {
      "inputs": [],
      "name": "getAdditionalPayeePercentage",
      "outputs": [
        {
          "internalType": "uint256",
          "name": "",
          "type": "uint256"
        }
      ],
      "stateMutability": "view",
      "type": "function"
    },
    {
      "inputs": [
        {
          "internalType": "uint256",
          "name": "tokenId",
          "type": "uint256"
        }
      ],
      "name": "getApproved",
      "outputs": [
        {
          "internalType": "address",
          "name": "",
          "type": "address"
        }
      ],
      "stateMutability": "view",
      "type": "function"
    },
    {
      "inputs": [],
      "name": "getArtistAddress",
      "outputs": [
        {
          "internalType": "address payable",
          "name": "",
          "type": "address"
        }
      ],
      "stateMutability": "view",
      "type": "function"
    },
    {
      "inputs": [
        {
          "internalType": "bytes32",
          "name": "role",
          "type": "bytes32"
        }
      ],
      "name": "getRoleAdmin",
      "outputs": [
        {
          "internalType": "bytes32",
          "name": "",
          "type": "bytes32"
        }
      ],
      "stateMutability": "view",
      "type": "function"
    },
    {
      "inputs": [],
      "name": "getTokenLimit",
      "outputs": [
        {
          "internalType": "uint256",
          "name": "",
          "type": "uint256"
        }
      ],
      "stateMutability": "view",
      "type": "function"
    },
    {
      "inputs": [
        {
          "internalType": "bytes32",
          "name": "role",
          "type": "bytes32"
        },
        {
          "internalType": "address",
          "name": "account",
          "type": "address"
        }
      ],
      "name": "grantRole",
      "outputs": [],
      "stateMutability": "nonpayable",
      "type": "function"
    },
    {
      "inputs": [
        {
          "internalType": "bytes32",
          "name": "role",
          "type": "bytes32"
        },
        {
          "internalType": "address",
          "name": "account",
          "type": "address"
        }
      ],
      "name": "hasRole",
      "outputs": [
        {
          "internalType": "bool",
          "name": "",
          "type": "bool"
        }
      ],
      "stateMutability": "view",
      "type": "function"
    },
    {
      "inputs": [
        {
          "internalType": "uint256",
          "name": "start",
          "type": "uint256"
        },
        {
          "internalType": "uint256",
          "name": "end",
          "type": "uint256"
        }
      ],
      "name": "initPool",
      "outputs": [],
      "stateMutability": "nonpayable",
      "type": "function"
    },
    {
      "inputs": [
        {
          "internalType": "address",
          "name": "owner",
          "type": "address"
        },
        {
          "internalType": "address",
          "name": "operator",
          "type": "address"
        }
      ],
      "name": "isApprovedForAll",
      "outputs": [
        {
          "internalType": "bool",
          "name": "",
          "type": "bool"
        }
      ],
      "stateMutability": "view",
      "type": "function"
    },
    {
      "inputs": [],
      "name": "license",
      "outputs": [
        {
          "internalType": "string",
          "name": "",
          "type": "string"
        }
      ],
      "stateMutability": "view",
      "type": "function"
    },
    {
      "inputs": [
        {
          "internalType": "address",
          "name": "to",
          "type": "address"
        }
      ],
      "name": "mint",
      "outputs": [
        {
          "internalType": "uint256",
          "name": "tokenId",
          "type": "uint256"
        }
      ],
      "stateMutability": "nonpayable",
      "type": "function"
    },
    {
      "inputs": [],
      "name": "name",
      "outputs": [
        {
          "internalType": "string",
          "name": "",
          "type": "string"
        }
      ],
      "stateMutability": "view",
      "type": "function"
    },
    {
      "inputs": [
        {
          "internalType": "uint256",
          "name": "tokenId",
          "type": "uint256"
        }
      ],
      "name": "ownerOf",
      "outputs": [
        {
          "internalType": "address",
          "name": "",
          "type": "address"
        }
      ],
      "stateMutability": "view",
      "type": "function"
    },
    {
      "inputs": [
        {
          "internalType": "bytes32",
          "name": "role",
          "type": "bytes32"
        },
        {
          "internalType": "address",
          "name": "account",
          "type": "address"
        }
      ],
      "name": "renounceRole",
      "outputs": [],
      "stateMutability": "nonpayable",
      "type": "function"
    },
    {
      "inputs": [
        {
          "internalType": "bytes32",
          "name": "role",
          "type": "bytes32"
        },
        {
          "internalType": "address",
          "name": "account",
          "type": "address"
        }
      ],
      "name": "revokeRole",
      "outputs": [],
      "stateMutability": "nonpayable",
      "type": "function"
    },
    {
      "inputs": [
        {
          "internalType": "uint256",
          "name": "_tokenId",
          "type": "uint256"
        },
        {
          "internalType": "uint256",
          "name": "_salePrice",
          "type": "uint256"
        }
      ],
      "name": "royaltyInfo",
      "outputs": [
        {
          "internalType": "address",
          "name": "",
          "type": "address"
        },
        {
          "internalType": "uint256",
          "name": "",
          "type": "uint256"
        }
      ],
      "stateMutability": "view",
      "type": "function"
    },
    {
      "inputs": [],
      "name": "royaltyPercent",
      "outputs": [
        {
          "internalType": "uint96",
          "name": "",
          "type": "uint96"
        }
      ],
      "stateMutability": "view",
      "type": "function"
    },
    {
      "inputs": [
        {
          "internalType": "address",
          "name": "from",
          "type": "address"
        },
        {
          "internalType": "address",
          "name": "to",
          "type": "address"
        },
        {
          "internalType": "uint256",
          "name": "tokenId",
          "type": "uint256"
        }
      ],
      "name": "safeTransferFrom",
      "outputs": [],
      "stateMutability": "nonpayable",
      "type": "function"
    },
    {
      "inputs": [
        {
          "internalType": "address",
          "name": "from",
          "type": "address"
        },
        {
          "internalType": "address",
          "name": "to",
          "type": "address"
        },
        {
          "internalType": "uint256",
          "name": "tokenId",
          "type": "uint256"
        },
        {
          "internalType": "bytes",
          "name": "_data",
          "type": "bytes"
        }
      ],
      "name": "safeTransferFrom",
      "outputs": [],
      "stateMutability": "nonpayable",
      "type": "function"
    },
    {
      "inputs": [
        {
          "internalType": "uint256",
          "name": "",
          "type": "uint256"
        }
      ],
      "name": "scripts",
      "outputs": [
        {
          "internalType": "string",
          "name": "",
          "type": "string"
        }
      ],
      "stateMutability": "view",
      "type": "function"
    },
    {
      "inputs": [
        {
          "internalType": "address",
          "name": "operator",
          "type": "address"
        },
        {
          "internalType": "bool",
          "name": "approved",
          "type": "bool"
        }
      ],
      "name": "setApprovalForAll",
      "outputs": [],
      "stateMutability": "nonpayable",
      "type": "function"
    },
    {
      "inputs": [
        {
          "internalType": "string",
          "name": "_uri",
          "type": "string"
        }
      ],
      "name": "setBaseURI",
      "outputs": [],
      "stateMutability": "nonpayable",
      "type": "function"
    },
    {
      "inputs": [
        {
          "internalType": "string",
          "name": "_desc",
          "type": "string"
        }
      ],
      "name": "setDescription",
      "outputs": [],
      "stateMutability": "nonpayable",
      "type": "function"
    },
    {
      "inputs": [
        {
          "internalType": "uint256",
          "name": "index",
          "type": "uint256"
        },
        {
          "internalType": "string",
          "name": "script",
          "type": "string"
        }
      ],
      "name": "setScript",
      "outputs": [],
      "stateMutability": "nonpayable",
      "type": "function"
    },
    {
      "inputs": [
        {
          "internalType": "string",
          "name": "_url",
          "type": "string"
        }
      ],
      "name": "setWebsite",
      "outputs": [],
      "stateMutability": "nonpayable",
      "type": "function"
    },
    {
      "inputs": [
        {
          "internalType": "bytes4",
          "name": "interfaceId",
          "type": "bytes4"
        }
      ],
      "name": "supportsInterface",
      "outputs": [
        {
          "internalType": "bool",
          "name": "",
          "type": "bool"
        }
      ],
      "stateMutability": "view",
      "type": "function"
    },
    {
      "inputs": [],
      "name": "symbol",
      "outputs": [
        {
          "internalType": "string",
          "name": "",
          "type": "string"
        }
      ],
      "stateMutability": "view",
      "type": "function"
    },
    {
      "inputs": [
        {
          "internalType": "uint256",
          "name": "index",
          "type": "uint256"
        }
      ],
      "name": "tokenByIndex",
      "outputs": [
        {
          "internalType": "uint256",
          "name": "",
          "type": "uint256"
        }
      ],
      "stateMutability": "view",
      "type": "function"
    },
    {
      "inputs": [
        {
          "internalType": "address",
          "name": "owner",
          "type": "address"
        },
        {
          "internalType": "uint256",
          "name": "index",
          "type": "uint256"
        }
      ],
      "name": "tokenOfOwnerByIndex",
      "outputs": [
        {
          "internalType": "uint256",
          "name": "",
          "type": "uint256"
        }
      ],
      "stateMutability": "view",
      "type": "function"
    },
    {
      "inputs": [
        {
          "internalType": "uint256",
          "name": "tokenId",
          "type": "uint256"
        }
      ],
      "name": "tokenURI",
      "outputs": [
        {
          "internalType": "string",
          "name": "",
          "type": "string"
        }
      ],
      "stateMutability": "view",
      "type": "function"
    },
    {
      "inputs": [],
      "name": "totalSupply",
      "outputs": [
        {
          "internalType": "uint256",
          "name": "",
          "type": "uint256"
        }
      ],
      "stateMutability": "view",
      "type": "function"
    },
    {
      "inputs": [
        {
          "internalType": "address",
          "name": "from",
          "type": "address"
        },
        {
          "internalType": "address",
          "name": "to",
          "type": "address"
        },
        {
          "internalType": "uint256",
          "name": "tokenId",
          "type": "uint256"
        }
      ],
      "name": "transferFrom",
      "outputs": [],
      "stateMutability": "nonpayable",
      "type": "function"
    },
    {
      "inputs": [],
      "name": "website",
      "outputs": [
        {
          "internalType": "string",
          "name": "",
          "type": "string"
        }
      ],
      "stateMutability": "view",
      "type": "function"
    },
    {
      "inputs": [],
      "name": "withdraw",
      "outputs": [],
      "stateMutability": "nonpayable",
      "type": "function"
    },
    {
      "stateMutability": "payable",
      "type": "receive"
    }
  ],
  "bytecode": "0x60806040526103e8600d55737a832c86002323a5de3a317b3281eb88ec3b2c00601460006101000a81548173ffffffffffffffffffffffffffffffffffffffff021916908373ffffffffffffffffffffffffffffffffffffffff1602179055506000601560006101000a81548173ffffffffffffffffffffffffffffffffffffffff021916908373ffffffffffffffffffffffffffffffffffffffff16021790555060006016556102ee601760006101000a8154816bffffffffffffffffffffffff02191690836bffffffffffffffffffffffff1602179055506040518060400160405280600e81526020017f4950465320484153482048455245000000000000000000000000000000000000815250601890805190602001906200012692919062000700565b506040518060400160405280600481526020017f66696e6500000000000000000000000000000000000000000000000000000000815250601990805190602001906200017492919062000700565b506040518060400160405280601581526020017f612073616d706c65204e465420666f722046494e450000000000000000000000815250601a9080519060200190620001c292919062000700565b506040518060400160405280601481526020017f68747470733a2f2f66696e652e6469676974616c000000000000000000000000815250601b90805190602001906200021092919062000700565b506040518060400160405280600381526020017f4d49540000000000000000000000000000000000000000000000000000000000815250601c90805190602001906200025e92919062000700565b503480156200026c57600080fd5b5060405162005ef038038062005ef08339818101604052810190620002929190620007c7565b6040518060400160405280600c81526020017f46494e45204469676974616c00000000000000000000000000000000000000008152506040518060400160405280600481526020017f46494e450000000000000000000000000000000000000000000000000000000081525081600290805190602001906200031692919062000700565b5080600390805190602001906200032f92919062000700565b505050620003476000801b33620003ee60201b60201c565b620003797f9f2df0fed2c77648de5860a4cc508cd0818c85b8b8a1ab4ceeef8d981c8956a682620003ee60201b60201c565b81600e60006101000a81548173ffffffffffffffffffffffffffffffffffffffff021916908373ffffffffffffffffffffffffffffffffffffffff160217905550620003e630601760009054906101000a90046bffffffffffffffffffffffff16620004e060201b60201c565b5050620009d6565b6200040082826200068360201b60201c565b620004dc576001600c600084815260200190815260200160002060000160008373ffffffffffffffffffffffffffffffffffffffff1673ffffffffffffffffffffffffffffffffffffffff16815260200190815260200160002060006101000a81548160ff02191690831515021790555062000481620006ee60201b60201c565b73ffffffffffffffffffffffffffffffffffffffff168173ffffffffffffffffffffffffffffffffffffffff16837f2f8788117e7eff1d82e926ec794901d17c78024a50270940304540a733656f0d60405160405180910390a45b5050565b620004f0620006f660201b60201c565b6bffffffffffffffffffffffff16816bffffffffffffffffffffffff16111562000551576040517f08c379a0000000000000000000000000000000000000000000000000000000008152600401620005489062000856565b60405180910390fd5b600073ffffffffffffffffffffffffffffffffffffffff168273ffffffffffffffffffffffffffffffffffffffff161415620005c4576040517f08c379a0000000000000000000000000000000000000000000000000000000008152600401620005bb9062000878565b60405180910390fd5b60405180604001604052808373ffffffffffffffffffffffffffffffffffffffff168152602001826bffffffffffffffffffffffff168152506000808201518160000160006101000a81548173ffffffffffffffffffffffffffffffffffffffff021916908373ffffffffffffffffffffffffffffffffffffffff16021790555060208201518160000160146101000a8154816bffffffffffffffffffffffff02191690836bffffffffffffffffffffffff1602179055509050505050565b6000600c600084815260200190815260200160002060000160008373ffffffffffffffffffffffffffffffffffffffff1673ffffffffffffffffffffffffffffffffffffffff16815260200190815260200160002060009054906101000a900460ff16905092915050565b600033905090565b6000612710905090565b8280546200070e90620008df565b90600052602060002090601f0160209004810192826200073257600085556200077e565b82601f106200074d57805160ff19168380011785556200077e565b828001600101855582156200077e579182015b828111156200077d57825182559160200191906001019062000760565b5b5090506200078d919062000791565b5090565b5b80821115620007ac57600081600090555060010162000792565b5090565b600081519050620007c181620009bc565b92915050565b60008060408385031215620007db57600080fd5b6000620007eb85828601620007b0565b9250506020620007fe85828601620007b0565b9150509250929050565b600062000817602a836200089a565b9150620008248262000944565b604082019050919050565b60006200083e6019836200089a565b91506200084b8262000993565b602082019050919050565b60006020820190508181036000830152620008718162000808565b9050919050565b6000602082019050818103600083015262000893816200082f565b9050919050565b600082825260208201905092915050565b6000620008b882620008bf565b9050919050565b600073ffffffffffffffffffffffffffffffffffffffff82169050919050565b60006002820490506001821680620008f857607f821691505b602082108114156200090f576200090e62000915565b5b50919050565b7f4e487b7100000000000000000000000000000000000000000000000000000000600052602260045260246000fd5b7f455243323938313a20726f79616c7479206665652077696c6c2065786365656460008201527f2073616c65507269636500000000000000000000000000000000000000000000602082015250565b7f455243323938313a20696e76616c696420726563656976657200000000000000600082015250565b620009c781620008ab565b8114620009d357600080fd5b50565b61550a80620009e66000396000f3fe6080604052600436106102b25760003560e01c806359748cb21161017557806395d89b41116100dc578063beb0a41611610095578063d547741f1161006f578063d547741f14610b0c578063d7eb3f3a14610b35578063e985e9c514610b60578063f87f44b914610b9d576102b9565b8063beb0a41614610a79578063c87b56dd14610aa4578063d539139314610ae1576102b9565b806395d89b411461097d5780639e1b0045146109a85780639f67756d146109d1578063a217fddf146109fc578063a22cb46514610a27578063b88d4fde14610a50576102b9565b806370a082311161012e57806370a082311461085b57806371199d30146108985780637284e416146108c15780638cbe8d80146108ec57806390c3f38f1461091757806391d1485414610940576102b9565b806359748cb2146107355780636352211e146107605780636a6278421461079d5780636b87d24c146107da5780636c0360eb146108055780636ff314c714610830576102b9565b80632cc889741161021957806342842e0e116101d257806342842e0e1461062757806342966c681461065057806343bc1612146106795780634771218a146106a45780634f6ccce7146106cf57806355f804b31461070c576102b9565b80632cc889741461052b5780632f2ff15d146105565780632f745c591461057f57806336568abe146105bc5780633ccfd60b146105e557806340138ff1146105fc576102b9565b8063176f5b091161026b578063176f5b09146103f457806318160ddd1461043157806323b872dd1461045c578063248a9ca31461048557806328485586146104c25780632a55205a146104ed576102b9565b806301ffc9a7146102be578063031bd4c4146102fb57806306fdde0314610326578063081812fc1461035157806308ff7f611461038e578063095ea7b3146103cb576102b9565b366102b957005b600080fd5b3480156102ca57600080fd5b506102e560048036038101906102e0919061403b565b610bc6565b6040516102f29190614737565b60405180910390f35b34801561030757600080fd5b50610310610bd8565b60405161031d91906149ef565b60405180910390f35b34801561033257600080fd5b5061033b610bde565b604051610348919061476d565b60405180910390f35b34801561035d57600080fd5b50610378600480360381019061037391906140d2565b610c70565b604051610385919061468c565b60405180910390f35b34801561039a57600080fd5b506103b560048036038101906103b091906140d2565b610cf5565b6040516103c2919061476d565b60405180910390f35b3480156103d757600080fd5b506103f260048036038101906103ed9190613f9a565b610d95565b005b34801561040057600080fd5b5061041b600480360381019061041691906140d2565b610ead565b60405161042891906149ef565b60405180910390f35b34801561043d57600080fd5b50610446610ec5565b60405161045391906149ef565b60405180910390f35b34801561046857600080fd5b50610483600480360381019061047e9190613e94565b610ed2565b005b34801561049157600080fd5b506104ac60048036038101906104a79190613fd6565b610f32565b6040516104b99190614752565b60405180910390f35b3480156104ce57600080fd5b506104d7610f52565b6040516104e491906149ef565b60405180910390f35b3480156104f957600080fd5b50610514600480360381019061050f919061417c565b610f5c565b60405161052292919061470e565b60405180910390f35b34801561053757600080fd5b50610540611147565b60405161054d91906149ef565b60405180910390f35b34801561056257600080fd5b5061057d60048036038101906105789190613fff565b611151565b005b34801561058b57600080fd5b506105a660048036038101906105a19190613f9a565b61117a565b6040516105b391906149ef565b60405180910390f35b3480156105c857600080fd5b506105e360048036038101906105de9190613fff565b61121f565b005b3480156105f157600080fd5b506105fa6112a2565b005b34801561060857600080fd5b506106116112c3565b60405161061e91906149ef565b60405180910390f35b34801561063357600080fd5b5061064e60048036038101906106499190613e94565b6112c9565b005b34801561065c57600080fd5b50610677600480360381019061067291906140d2565b6112e9565b005b34801561068557600080fd5b5061068e611345565b60405161069b919061476d565b60405180910390f35b3480156106b057600080fd5b506106b96113d3565b6040516106c691906149ef565b60405180910390f35b3480156106db57600080fd5b506106f660048036038101906106f191906140d2565b6113e4565b60405161070391906149ef565b60405180910390f35b34801561071857600080fd5b50610733600480360381019061072e919061408d565b61147b565b005b34801561074157600080fd5b5061074a6114a7565b60405161075791906146a7565b60405180910390f35b34801561076c57600080fd5b50610787600480360381019061078291906140d2565b6114cd565b604051610794919061468c565b60405180910390f35b3480156107a957600080fd5b506107c460048036038101906107bf9190613e06565b61157f565b6040516107d191906149ef565b60405180910390f35b3480156107e657600080fd5b506107ef61172f565b6040516107fc919061476d565b60405180910390f35b34801561081157600080fd5b5061081a6117bd565b604051610827919061476d565b60405180910390f35b34801561083c57600080fd5b5061084561184b565b60405161085291906146a7565b60405180910390f35b34801561086757600080fd5b50610882600480360381019061087d9190613e06565b611875565b60405161088f91906149ef565b60405180910390f35b3480156108a457600080fd5b506108bf60048036038101906108ba9190614124565b61192d565b005b3480156108cd57600080fd5b506108d661196b565b6040516108e3919061476d565b60405180910390f35b3480156108f857600080fd5b506109016119f9565b60405161090e91906146a7565b60405180910390f35b34801561092357600080fd5b5061093e6004803603810190610939919061408d565b611a23565b005b34801561094c57600080fd5b5061096760048036038101906109629190613fff565b611a4f565b6040516109749190614737565b60405180910390f35b34801561098957600080fd5b50610992611aba565b60405161099f919061476d565b60405180910390f35b3480156109b457600080fd5b506109cf60048036038101906109ca919061417c565b611b4c565b005b3480156109dd57600080fd5b506109e6611b87565b6040516109f39190614a33565b60405180910390f35b348015610a0857600080fd5b50610a11611ba5565b604051610a1e9190614752565b60405180910390f35b348015610a3357600080fd5b50610a4e6004803603810190610a499190613f5e565b611bac565b005b348015610a5c57600080fd5b50610a776004803603810190610a729190613ee3565b611bc2565b005b348015610a8557600080fd5b50610a8e611c24565b604051610a9b919061476d565b60405180910390f35b348015610ab057600080fd5b50610acb6004803603810190610ac691906140d2565b611cb2565b604051610ad8919061476d565b60405180910390f35b348015610aed57600080fd5b50610af6611cf1565b604051610b039190614752565b60405180910390f35b348015610b1857600080fd5b50610b336004803603810190610b2e9190613fff565b611d15565b005b348015610b4157600080fd5b50610b4a611d3e565b604051610b5791906146a7565b60405180910390f35b348015610b6c57600080fd5b50610b876004803603810190610b829190613e58565b611d64565b604051610b949190614737565b60405180910390f35b348015610ba957600080fd5b50610bc46004803603810190610bbf919061408d565b611df8565b005b6000610bd182611e24565b9050919050565b600d5481565b606060028054610bed90614d25565b80601f0160208091040260200160405190810160405280929190818152602001828054610c1990614d25565b8015610c665780601f10610c3b57610100808354040283529160200191610c66565b820191906000526020600020905b815481529060010190602001808311610c4957829003601f168201915b5050505050905090565b6000610c7b82611e9e565b610cba576040517f08c379a0000000000000000000000000000000000000000000000000000000008152600401610cb19061490f565b60405180910390fd5b6006600083815260200190815260200160002060009054906101000a900473ffffffffffffffffffffffffffffffffffffffff169050919050565b60116020528060005260406000206000915090508054610d1490614d25565b80601f0160208091040260200160405190810160405280929190818152602001828054610d4090614d25565b8015610d8d5780601f10610d6257610100808354040283529160200191610d8d565b820191906000526020600020905b815481529060010190602001808311610d7057829003601f168201915b505050505081565b6000610da0826114cd565b90508073ffffffffffffffffffffffffffffffffffffffff168373ffffffffffffffffffffffffffffffffffffffff161415610e11576040517f08c379a0000000000000000000000000000000000000000000000000000000008152600401610e089061492f565b60405180910390fd5b8073ffffffffffffffffffffffffffffffffffffffff16610e30611f0a565b73ffffffffffffffffffffffffffffffffffffffff161480610e5f5750610e5e81610e59611f0a565b611d64565b5b610e9e576040517f08c379a0000000000000000000000000000000000000000000000000000000008152600401610e959061488f565b60405180910390fd5b610ea88383611f12565b505050565b60106020528060005260406000206000915090505481565b6000600a80549050905090565b610ee3610edd611f0a565b82611fcb565b610f22576040517f08c379a0000000000000000000000000000000000000000000000000000000008152600401610f199061494f565b60405180910390fd5b610f2d8383836120a9565b505050565b6000600c6000838152602001908152602001600020600101549050919050565b6000600d54905090565b6000806000600160008681526020019081526020016000206040518060400160405290816000820160009054906101000a900473ffffffffffffffffffffffffffffffffffffffff1673ffffffffffffffffffffffffffffffffffffffff1673ffffffffffffffffffffffffffffffffffffffff1681526020016000820160149054906101000a90046bffffffffffffffffffffffff166bffffffffffffffffffffffff166bffffffffffffffffffffffff16815250509050600073ffffffffffffffffffffffffffffffffffffffff16816000015173ffffffffffffffffffffffffffffffffffffffff1614156110f25760006040518060400160405290816000820160009054906101000a900473ffffffffffffffffffffffffffffffffffffffff1673ffffffffffffffffffffffffffffffffffffffff1673ffffffffffffffffffffffffffffffffffffffff1681526020016000820160149054906101000a90046bffffffffffffffffffffffff166bffffffffffffffffffffffff166bffffffffffffffffffffffff168152505090505b60006110fc612310565b6bffffffffffffffffffffffff1682602001516bffffffffffffffffffffffff16866111289190614b83565b6111329190614b52565b90508160000151819350935050509250929050565b6000601654905090565b61115a82610f32565b61116b81611166611f0a565b61231a565b61117583836123b7565b505050565b600061118583611875565b82106111c6576040517f08c379a00000000000000000000000000000000000000000000000000000000081526004016111bd906147af565b60405180910390fd5b600860008473ffffffffffffffffffffffffffffffffffffffff1673ffffffffffffffffffffffffffffffffffffffff168152602001908152602001600020600083815260200190815260200160002054905092915050565b611227611f0a565b73ffffffffffffffffffffffffffffffffffffffff168173ffffffffffffffffffffffffffffffffffffffff1614611294576040517f08c379a000000000000000000000000000000000000000000000000000000000815260040161128b906149cf565b60405180910390fd5b61129e8282612498565b5050565b6000801b6112b7816112b2611f0a565b61231a565b6112c04761257a565b50565b60165481565b6112e483838360405180602001604052806000815250611bc2565b505050565b6112fa6112f4611f0a565b82611fcb565b611339576040517f08c379a0000000000000000000000000000000000000000000000000000000008152600401611330906149af565b60405180910390fd5b611342816127a2565b50565b6019805461135290614d25565b80601f016020809104026020016040519081016040528092919081815260200182805461137e90614d25565b80156113cb5780601f106113a0576101008083540402835291602001916113cb565b820191906000526020600020905b8154815290600101906020018083116113ae57829003601f168201915b505050505081565b60006113df60126127ae565b905090565b60006113ee610ec5565b821061142f576040517f08c379a00000000000000000000000000000000000000000000000000000000081526004016114269061496f565b60405180910390fd5b600a8281548110611469577f4e487b7100000000000000000000000000000000000000000000000000000000600052603260045260246000fd5b90600052602060002001549050919050565b6000801b6114908161148b611f0a565b61231a565b8282601891906114a1929190613c09565b50505050565b601560009054906101000a900473ffffffffffffffffffffffffffffffffffffffff1681565b6000806004600084815260200190815260200160002060009054906101000a900473ffffffffffffffffffffffffffffffffffffffff169050600073ffffffffffffffffffffffffffffffffffffffff168173ffffffffffffffffffffffffffffffffffffffff161415611576576040517f08c379a000000000000000000000000000000000000000000000000000000000815260040161156d906148cf565b60405180910390fd5b80915050919050565b60007f9f2df0fed2c77648de5860a4cc508cd0818c85b8b8a1ab4ceeef8d981c8956a66115b3816115ae611f0a565b61231a565b6115bd600f6127c3565b9150600d548210611603576040517f08c379a00000000000000000000000000000000000000000000000000000000081526004016115fa9061498f565b60405180910390fd5b61160d600f6127d1565b61161783836127e7565b6000600e60009054906101000a900473ffffffffffffffffffffffffffffffffffffffff1673ffffffffffffffffffffffffffffffffffffffff166329e5d83184426040518363ffffffff1660e01b8152600401611676929190614a0a565b60206040518083038186803b15801561168e57600080fd5b505afa1580156116a2573d6000803e3d6000fd5b505050506040513d601f19601f820116820180604052508101906116c691906140fb565b905060006116d460126127ae565b826116df9190614ddb565b905060006116f782601261280590919063ffffffff16565b905080601060008781526020019081526020016000208190555061172581601261281f90919063ffffffff16565b5050505050919050565b601c805461173c90614d25565b80601f016020809104026020016040519081016040528092919081815260200182805461176890614d25565b80156117b55780601f1061178a576101008083540402835291602001916117b5565b820191906000526020600020905b81548152906001019060200180831161179857829003601f168201915b505050505081565b601880546117ca90614d25565b80601f01602080910402602001604051908101604052809291908181526020018280546117f690614d25565b80156118435780601f1061181857610100808354040283529160200191611843565b820191906000526020600020905b81548152906001019060200180831161182657829003601f168201915b505050505081565b6000601560009054906101000a900473ffffffffffffffffffffffffffffffffffffffff16905090565b60008073ffffffffffffffffffffffffffffffffffffffff168273ffffffffffffffffffffffffffffffffffffffff1614156118e6576040517f08c379a00000000000000000000000000000000000000000000000000000000081526004016118dd906148af565b60405180910390fd5b600560008373ffffffffffffffffffffffffffffffffffffffff1673ffffffffffffffffffffffffffffffffffffffff168152602001908152602001600020549050919050565b6000801b6119428161193d611f0a565b61231a565b8282601160008781526020019081526020016000209190611964929190613c09565b5050505050565b601a805461197890614d25565b80601f01602080910402602001604051908101604052809291908181526020018280546119a490614d25565b80156119f15780601f106119c6576101008083540402835291602001916119f1565b820191906000526020600020905b8154815290600101906020018083116119d457829003601f168201915b505050505081565b6000601460009054906101000a900473ffffffffffffffffffffffffffffffffffffffff16905090565b6000801b611a3881611a33611f0a565b61231a565b8282601a9190611a49929190613c09565b50505050565b6000600c600084815260200190815260200160002060000160008373ffffffffffffffffffffffffffffffffffffffff1673ffffffffffffffffffffffffffffffffffffffff16815260200190815260200160002060009054906101000a900460ff16905092915050565b606060038054611ac990614d25565b80601f0160208091040260200160405190810160405280929190818152602001828054611af590614d25565b8015611b425780601f10611b1757610100808354040283529160200191611b42565b820191906000526020600020905b815481529060010190602001808311611b2557829003601f168201915b5050505050905090565b60008290505b81811015611b8257611b6e81601261283990919063ffffffff16565b508080611b7a90614d88565b915050611b52565b505050565b601760009054906101000a90046bffffffffffffffffffffffff1681565b6000801b81565b611bbe611bb7611f0a565b8383612853565b5050565b611bd3611bcd611f0a565b83611fcb565b611c12576040517f08c379a0000000000000000000000000000000000000000000000000000000008152600401611c099061494f565b60405180910390fd5b611c1e848484846129c0565b50505050565b601b8054611c3190614d25565b80601f0160208091040260200160405190810160405280929190818152602001828054611c5d90614d25565b8015611caa5780601f10611c7f57610100808354040283529160200191611caa565b820191906000526020600020905b815481529060010190602001808311611c8d57829003601f168201915b505050505081565b606060186010600084815260200190815260200160002054604051602001611cdb92919061462a565b6040516020818303038152906040529050919050565b7f9f2df0fed2c77648de5860a4cc508cd0818c85b8b8a1ab4ceeef8d981c8956a681565b611d1e82610f32565b611d2f81611d2a611f0a565b61231a565b611d398383612498565b505050565b601460009054906101000a900473ffffffffffffffffffffffffffffffffffffffff1681565b6000600760008473ffffffffffffffffffffffffffffffffffffffff1673ffffffffffffffffffffffffffffffffffffffff16815260200190815260200160002060008373ffffffffffffffffffffffffffffffffffffffff1673ffffffffffffffffffffffffffffffffffffffff16815260200190815260200160002060009054906101000a900460ff16905092915050565b6000801b611e0d81611e08611f0a565b61231a565b8282601b9190611e1e929190613c09565b50505050565b60007f7965db0b000000000000000000000000000000000000000000000000000000007bffffffffffffffffffffffffffffffffffffffffffffffffffffffff1916827bffffffffffffffffffffffffffffffffffffffffffffffffffffffff19161480611e975750611e9682612a1c565b5b9050919050565b60008073ffffffffffffffffffffffffffffffffffffffff166004600084815260200190815260200160002060009054906101000a900473ffffffffffffffffffffffffffffffffffffffff1673ffffffffffffffffffffffffffffffffffffffff1614159050919050565b600033905090565b816006600083815260200190815260200160002060006101000a81548173ffffffffffffffffffffffffffffffffffffffff021916908373ffffffffffffffffffffffffffffffffffffffff160217905550808273ffffffffffffffffffffffffffffffffffffffff16611f85836114cd565b73ffffffffffffffffffffffffffffffffffffffff167f8c5be1e5ebec7d5bd14f71427d1e84f3dd0314c0f7b2291e5b200ac8c7c3b92560405160405180910390a45050565b6000611fd682611e9e565b612015576040517f08c379a000000000000000000000000000000000000000000000000000000000815260040161200c9061486f565b60405180910390fd5b6000612020836114cd565b90508073ffffffffffffffffffffffffffffffffffffffff168473ffffffffffffffffffffffffffffffffffffffff16148061208f57508373ffffffffffffffffffffffffffffffffffffffff1661207784610c70565b73ffffffffffffffffffffffffffffffffffffffff16145b806120a0575061209f8185611d64565b5b91505092915050565b8273ffffffffffffffffffffffffffffffffffffffff166120c9826114cd565b73ffffffffffffffffffffffffffffffffffffffff161461211f576040517f08c379a0000000000000000000000000000000000000000000000000000000008152600401612116906147ef565b60405180910390fd5b600073ffffffffffffffffffffffffffffffffffffffff168273ffffffffffffffffffffffffffffffffffffffff16141561218f576040517f08c379a00000000000000000000000000000000000000000000000000000000081526004016121869061482f565b60405180910390fd5b61219a838383612a2e565b6121a5600082611f12565b6001600560008573ffffffffffffffffffffffffffffffffffffffff1673ffffffffffffffffffffffffffffffffffffffff16815260200190815260200160002060008282546121f59190614bdd565b925050819055506001600560008473ffffffffffffffffffffffffffffffffffffffff1673ffffffffffffffffffffffffffffffffffffffff168152602001908152602001600020600082825461224c9190614afc565b92505081905550816004600083815260200190815260200160002060006101000a81548173ffffffffffffffffffffffffffffffffffffffff021916908373ffffffffffffffffffffffffffffffffffffffff160217905550808273ffffffffffffffffffffffffffffffffffffffff168473ffffffffffffffffffffffffffffffffffffffff167fddf252ad1be2c89b69c2b068fc378daa952ba7f163c4a11628f55a4df523b3ef60405160405180910390a461230b838383612a3e565b505050565b6000612710905090565b6123248282611a4f565b6123b3576123498173ffffffffffffffffffffffffffffffffffffffff166014612a43565b6123578360001c6020612a43565b604051602001612368929190614652565b6040516020818303038152906040526040517f08c379a00000000000000000000000000000000000000000000000000000000081526004016123aa919061476d565b60405180910390fd5b5050565b6123c18282611a4f565b612494576001600c600084815260200190815260200160002060000160008373ffffffffffffffffffffffffffffffffffffffff1673ffffffffffffffffffffffffffffffffffffffff16815260200190815260200160002060006101000a81548160ff021916908315150217905550612439611f0a565b73ffffffffffffffffffffffffffffffffffffffff168173ffffffffffffffffffffffffffffffffffffffff16837f2f8788117e7eff1d82e926ec794901d17c78024a50270940304540a733656f0d60405160405180910390a45b5050565b6124a28282611a4f565b15612576576000600c600084815260200190815260200160002060000160008373ffffffffffffffffffffffffffffffffffffffff1673ffffffffffffffffffffffffffffffffffffffff16815260200190815260200160002060006101000a81548160ff02191690831515021790555061251b611f0a565b73ffffffffffffffffffffffffffffffffffffffff168173ffffffffffffffffffffffffffffffffffffffff16837ff6391f5c32d9c69d2a47ea670b442974b53935d1edc7fd64eb21e047a839171b60405160405180910390a45b5050565b600081111561279f576000612710600e60009054906101000a900473ffffffffffffffffffffffffffffffffffffffff1673ffffffffffffffffffffffffffffffffffffffff1663d672131b6040518163ffffffff1660e01b8152600401602060405180830381600087803b1580156125f257600080fd5b505af1158015612606573d6000803e3d6000fd5b505050506040513d601f19601f8201168201806040525081019061262a91906140fb565b836126359190614b83565b61263f9190614b52565b9050600e60009054906101000a900473ffffffffffffffffffffffffffffffffffffffff1673ffffffffffffffffffffffffffffffffffffffff16637dafc0d36040518163ffffffff1660e01b8152600401602060405180830381600087803b1580156126ab57600080fd5b505af11580156126bf573d6000803e3d6000fd5b505050506040513d601f19601f820116820180604052508101906126e39190613e2f565b73ffffffffffffffffffffffffffffffffffffffff166108fc829081150290604051600060405180830381858888f19350505050158015612728573d6000803e3d6000fd5b50601460009054906101000a900473ffffffffffffffffffffffffffffffffffffffff1673ffffffffffffffffffffffffffffffffffffffff166108fc82846127719190614bdd565b9081150290604051600060405180830381858888f1935050505015801561279c573d6000803e3d6000fd5b50505b50565b6127ab81612d3d565b50565b60006127bc82600001612d52565b9050919050565b600081600001549050919050565b6001816000016000828254019250508190555050565b612801828260405180602001604052806000815250612d63565b5050565b60006128148360000183612dbe565b60001c905092915050565b6000612831836000018360001b612e0f565b905092915050565b600061284b836000018360001b612f95565b905092915050565b8173ffffffffffffffffffffffffffffffffffffffff168373ffffffffffffffffffffffffffffffffffffffff1614156128c2576040517f08c379a00000000000000000000000000000000000000000000000000000000081526004016128b99061484f565b60405180910390fd5b80600760008573ffffffffffffffffffffffffffffffffffffffff1673ffffffffffffffffffffffffffffffffffffffff16815260200190815260200160002060008473ffffffffffffffffffffffffffffffffffffffff1673ffffffffffffffffffffffffffffffffffffffff16815260200190815260200160002060006101000a81548160ff0219169083151502179055508173ffffffffffffffffffffffffffffffffffffffff168373ffffffffffffffffffffffffffffffffffffffff167f17307eab39ab6107e8899845ad3d59bd9653f200f220920489ca2b5937696c31836040516129b39190614737565b60405180910390a3505050565b6129cb8484846120a9565b6129d784848484613005565b612a16576040517f08c379a0000000000000000000000000000000000000000000000000000000008152600401612a0d906147cf565b60405180910390fd5b50505050565b6000612a278261319c565b9050919050565b612a39838383613216565b505050565b505050565b606060006002836002612a569190614b83565b612a609190614afc565b67ffffffffffffffff811115612a9f577f4e487b7100000000000000000000000000000000000000000000000000000000600052604160045260246000fd5b6040519080825280601f01601f191660200182016040528015612ad15781602001600182028036833780820191505090505b5090507f300000000000000000000000000000000000000000000000000000000000000081600081518110612b2f577f4e487b7100000000000000000000000000000000000000000000000000000000600052603260045260246000fd5b60200101907effffffffffffffffffffffffffffffffffffffffffffffffffffffffffffff1916908160001a9053507f780000000000000000000000000000000000000000000000000000000000000081600181518110612bb9577f4e487b7100000000000000000000000000000000000000000000000000000000600052603260045260246000fd5b60200101907effffffffffffffffffffffffffffffffffffffffffffffffffffffffffffff1916908160001a90535060006001846002612bf99190614b83565b612c039190614afc565b90505b6001811115612cef577f3031323334353637383961626364656600000000000000000000000000000000600f861660108110612c6b577f4e487b7100000000000000000000000000000000000000000000000000000000600052603260045260246000fd5b1a60f81b828281518110612ca8577f4e487b7100000000000000000000000000000000000000000000000000000000600052603260045260246000fd5b60200101907effffffffffffffffffffffffffffffffffffffffffffffffffffffffffffff1916908160001a905350600485901c945080612ce890614cfb565b9050612c06565b5060008414612d33576040517f08c379a0000000000000000000000000000000000000000000000000000000008152600401612d2a9061478f565b60405180910390fd5b8091505092915050565b612d468161332a565b612d4f81613447565b50565b600081600001805490509050919050565b612d6d83836134a6565b612d7a6000848484613005565b612db9576040517f08c379a0000000000000000000000000000000000000000000000000000000008152600401612db0906147cf565b60405180910390fd5b505050565b6000826000018281548110612dfc577f4e487b7100000000000000000000000000000000000000000000000000000000600052603260045260246000fd5b9060005260206000200154905092915050565b60008083600101600084815260200190815260200160002054905060008114612f89576000600182612e419190614bdd565b9050600060018660000180549050612e599190614bdd565b9050818114612f14576000866000018281548110612ea0577f4e487b7100000000000000000000000000000000000000000000000000000000600052603260045260246000fd5b9060005260206000200154905080876000018481548110612eea577f4e487b7100000000000000000000000000000000000000000000000000000000600052603260045260246000fd5b90600052602060002001819055508387600101600083815260200190815260200160002081905550505b85600001805480612f4e577f4e487b7100000000000000000000000000000000000000000000000000000000600052603160045260246000fd5b600190038181906000526020600020016000905590558560010160008681526020019081526020016000206000905560019350505050612f8f565b60009150505b92915050565b6000612fa18383613680565b612ffa578260000182908060018154018082558091505060019003906000526020600020016000909190919091505582600001805490508360010160008481526020019081526020016000208190555060019050612fff565b600090505b92915050565b60006130268473ffffffffffffffffffffffffffffffffffffffff166136a3565b1561318f578373ffffffffffffffffffffffffffffffffffffffff1663150b7a0261304f611f0a565b8786866040518563ffffffff1660e01b815260040161307194939291906146c2565b602060405180830381600087803b15801561308b57600080fd5b505af19250505080156130bc57506040513d601f19601f820116820180604052508101906130b99190614064565b60015b61313f573d80600081146130ec576040519150601f19603f3d011682016040523d82523d6000602084013e6130f1565b606091505b50600081511415613137576040517f08c379a000000000000000000000000000000000000000000000000000000000815260040161312e906147cf565b60405180910390fd5b805181602001fd5b63150b7a0260e01b7bffffffffffffffffffffffffffffffffffffffffffffffffffffffff1916817bffffffffffffffffffffffffffffffffffffffffffffffffffffffff191614915050613194565b600190505b949350505050565b60007f780e9d63000000000000000000000000000000000000000000000000000000007bffffffffffffffffffffffffffffffffffffffffffffffffffffffff1916827bffffffffffffffffffffffffffffffffffffffffffffffffffffffff1916148061320f575061320e826136c6565b5b9050919050565b6132218383836137a8565b600073ffffffffffffffffffffffffffffffffffffffff168373ffffffffffffffffffffffffffffffffffffffff1614156132645761325f816137ad565b6132a3565b8173ffffffffffffffffffffffffffffffffffffffff168373ffffffffffffffffffffffffffffffffffffffff16146132a2576132a183826137f6565b5b5b600073ffffffffffffffffffffffffffffffffffffffff168273ffffffffffffffffffffffffffffffffffffffff1614156132e6576132e181613963565b613325565b8273ffffffffffffffffffffffffffffffffffffffff168273ffffffffffffffffffffffffffffffffffffffff1614613324576133238282613aa6565b5b5b505050565b6000613335826114cd565b905061334381600084612a2e565b61334e600083611f12565b6001600560008373ffffffffffffffffffffffffffffffffffffffff1673ffffffffffffffffffffffffffffffffffffffff168152602001908152602001600020600082825461339e9190614bdd565b925050819055506004600083815260200190815260200160002060006101000a81549073ffffffffffffffffffffffffffffffffffffffff021916905581600073ffffffffffffffffffffffffffffffffffffffff168273ffffffffffffffffffffffffffffffffffffffff167fddf252ad1be2c89b69c2b068fc378daa952ba7f163c4a11628f55a4df523b3ef60405160405180910390a461344381600084612a3e565b5050565b60016000828152602001908152602001600020600080820160006101000a81549073ffffffffffffffffffffffffffffffffffffffff02191690556000820160146101000a8154906bffffffffffffffffffffffff0219169055505050565b600073ffffffffffffffffffffffffffffffffffffffff168273ffffffffffffffffffffffffffffffffffffffff161415613516576040517f08c379a000000000000000000000000000000000000000000000000000000000815260040161350d906148ef565b60405180910390fd5b61351f81611e9e565b1561355f576040517f08c379a00000000000000000000000000000000000000000000000000000000081526004016135569061480f565b60405180910390fd5b61356b60008383612a2e565b6001600560008473ffffffffffffffffffffffffffffffffffffffff1673ffffffffffffffffffffffffffffffffffffffff16815260200190815260200160002060008282546135bb9190614afc565b92505081905550816004600083815260200190815260200160002060006101000a81548173ffffffffffffffffffffffffffffffffffffffff021916908373ffffffffffffffffffffffffffffffffffffffff160217905550808273ffffffffffffffffffffffffffffffffffffffff16600073ffffffffffffffffffffffffffffffffffffffff167fddf252ad1be2c89b69c2b068fc378daa952ba7f163c4a11628f55a4df523b3ef60405160405180910390a461367c60008383612a3e565b5050565b600080836001016000848152602001908152602001600020541415905092915050565b6000808273ffffffffffffffffffffffffffffffffffffffff163b119050919050565b60007f80ac58cd000000000000000000000000000000000000000000000000000000007bffffffffffffffffffffffffffffffffffffffffffffffffffffffff1916827bffffffffffffffffffffffffffffffffffffffffffffffffffffffff1916148061379157507f5b5e139f000000000000000000000000000000000000000000000000000000007bffffffffffffffffffffffffffffffffffffffffffffffffffffffff1916827bffffffffffffffffffffffffffffffffffffffffffffffffffffffff1916145b806137a157506137a082613b25565b5b9050919050565b505050565b600a80549050600b600083815260200190815260200160002081905550600a81908060018154018082558091505060019003906000526020600020016000909190919091505550565b6000600161380384611875565b61380d9190614bdd565b90506000600960008481526020019081526020016000205490508181146138f2576000600860008673ffffffffffffffffffffffffffffffffffffffff1673ffffffffffffffffffffffffffffffffffffffff168152602001908152602001600020600084815260200190815260200160002054905080600860008773ffffffffffffffffffffffffffffffffffffffff1673ffffffffffffffffffffffffffffffffffffffff168152602001908152602001600020600084815260200190815260200160002081905550816009600083815260200190815260200160002081905550505b6009600084815260200190815260200160002060009055600860008573ffffffffffffffffffffffffffffffffffffffff1673ffffffffffffffffffffffffffffffffffffffff16815260200190815260200160002060008381526020019081526020016000206000905550505050565b60006001600a805490506139779190614bdd565b90506000600b60008481526020019081526020016000205490506000600a83815481106139cd577f4e487b7100000000000000000000000000000000000000000000000000000000600052603260045260246000fd5b9060005260206000200154905080600a8381548110613a15577f4e487b7100000000000000000000000000000000000000000000000000000000600052603260045260246000fd5b906000526020600020018190555081600b600083815260200190815260200160002081905550600b600085815260200190815260200160002060009055600a805480613a8a577f4e487b7100000000000000000000000000000000000000000000000000000000600052603160045260246000fd5b6001900381819060005260206000200160009055905550505050565b6000613ab183611875565b905081600860008573ffffffffffffffffffffffffffffffffffffffff1673ffffffffffffffffffffffffffffffffffffffff168152602001908152602001600020600083815260200190815260200160002081905550806009600084815260200190815260200160002081905550505050565b60007f2a55205a000000000000000000000000000000000000000000000000000000007bffffffffffffffffffffffffffffffffffffffffffffffffffffffff1916827bffffffffffffffffffffffffffffffffffffffffffffffffffffffff19161480613b985750613b9782613b9f565b5b9050919050565b60007f01ffc9a7000000000000000000000000000000000000000000000000000000007bffffffffffffffffffffffffffffffffffffffffffffffffffffffff1916827bffffffffffffffffffffffffffffffffffffffffffffffffffffffff1916149050919050565b828054613c1590614d25565b90600052602060002090601f016020900481019282613c375760008555613c7e565b82601f10613c5057803560ff1916838001178555613c7e565b82800160010185558215613c7e579182015b82811115613c7d578235825591602001919060010190613c62565b5b509050613c8b9190613c8f565b5090565b5b80821115613ca8576000816000905550600101613c90565b5090565b6000613cbf613cba84614a73565b614a4e565b905082815260208101848484011115613cd757600080fd5b613ce2848285614cb9565b509392505050565b600081359050613cf98161544a565b92915050565b600081519050613d0e81615461565b92915050565b600081359050613d2381615478565b92915050565b600081359050613d388161548f565b92915050565b600081359050613d4d816154a6565b92915050565b600081519050613d62816154a6565b92915050565b600082601f830112613d7957600080fd5b8135613d89848260208601613cac565b91505092915050565b60008083601f840112613da457600080fd5b8235905067ffffffffffffffff811115613dbd57600080fd5b602083019150836001820283011115613dd557600080fd5b9250929050565b600081359050613deb816154bd565b92915050565b600081519050613e00816154bd565b92915050565b600060208284031215613e1857600080fd5b6000613e2684828501613cea565b91505092915050565b600060208284031215613e4157600080fd5b6000613e4f84828501613cff565b91505092915050565b60008060408385031215613e6b57600080fd5b6000613e7985828601613cea565b9250506020613e8a85828601613cea565b9150509250929050565b600080600060608486031215613ea957600080fd5b6000613eb786828701613cea565b9350506020613ec886828701613cea565b9250506040613ed986828701613ddc565b9150509250925092565b60008060008060808587031215613ef957600080fd5b6000613f0787828801613cea565b9450506020613f1887828801613cea565b9350506040613f2987828801613ddc565b925050606085013567ffffffffffffffff811115613f4657600080fd5b613f5287828801613d68565b91505092959194509250565b60008060408385031215613f7157600080fd5b6000613f7f85828601613cea565b9250506020613f9085828601613d14565b9150509250929050565b60008060408385031215613fad57600080fd5b6000613fbb85828601613cea565b9250506020613fcc85828601613ddc565b9150509250929050565b600060208284031215613fe857600080fd5b6000613ff684828501613d29565b91505092915050565b6000806040838503121561401257600080fd5b600061402085828601613d29565b925050602061403185828601613cea565b9150509250929050565b60006020828403121561404d57600080fd5b600061405b84828501613d3e565b91505092915050565b60006020828403121561407657600080fd5b600061408484828501613d53565b91505092915050565b600080602083850312156140a057600080fd5b600083013567ffffffffffffffff8111156140ba57600080fd5b6140c685828601613d92565b92509250509250929050565b6000602082840312156140e457600080fd5b60006140f284828501613ddc565b91505092915050565b60006020828403121561410d57600080fd5b600061411b84828501613df1565b91505092915050565b60008060006040848603121561413957600080fd5b600061414786828701613ddc565b935050602084013567ffffffffffffffff81111561416457600080fd5b61417086828701613d92565b92509250509250925092565b6000806040838503121561418f57600080fd5b600061419d85828601613ddc565b92505060206141ae85828601613ddc565b9150509250929050565b6141c181614c23565b82525050565b6141d081614c11565b82525050565b6141df81614c35565b82525050565b6141ee81614c41565b82525050565b60006141ff82614ab9565b6142098185614acf565b9350614219818560208601614cc8565b61422281614ec8565b840191505092915050565b600061423882614ac4565b6142428185614ae0565b9350614252818560208601614cc8565b61425b81614ec8565b840191505092915050565b600061427182614ac4565b61427b8185614af1565b935061428b818560208601614cc8565b80840191505092915050565b600081546142a481614d25565b6142ae8186614af1565b945060018216600081146142c957600181146142da5761430d565b60ff1983168652818601935061430d565b6142e385614aa4565b60005b83811015614305578154818901526001820191506020810190506142e6565b838801955050505b50505092915050565b6000614323602083614ae0565b915061432e82614ed9565b602082019050919050565b6000614346602b83614ae0565b915061435182614f02565b604082019050919050565b6000614369603283614ae0565b915061437482614f51565b604082019050919050565b600061438c602583614ae0565b915061439782614fa0565b604082019050919050565b60006143af601c83614ae0565b91506143ba82614fef565b602082019050919050565b60006143d2602483614ae0565b91506143dd82615018565b604082019050919050565b60006143f5601983614ae0565b915061440082615067565b602082019050919050565b6000614418602c83614ae0565b915061442382615090565b604082019050919050565b600061443b603883614ae0565b9150614446826150df565b604082019050919050565b600061445e602a83614ae0565b91506144698261512e565b604082019050919050565b6000614481602983614ae0565b915061448c8261517d565b604082019050919050565b60006144a4602083614ae0565b91506144af826151cc565b602082019050919050565b60006144c7602c83614ae0565b91506144d2826151f5565b604082019050919050565b60006144ea602183614ae0565b91506144f582615244565b604082019050919050565b600061450d603183614ae0565b915061451882615293565b604082019050919050565b6000614530602c83614ae0565b915061453b826152e2565b604082019050919050565b6000614553601783614af1565b915061455e82615331565b601782019050919050565b6000614576601283614ae0565b91506145818261535a565b602082019050919050565b6000614599603083614ae0565b91506145a482615383565b604082019050919050565b60006145bc601183614af1565b91506145c7826153d2565b601182019050919050565b60006145df602f83614ae0565b91506145ea826153fb565b604082019050919050565b6145fe81614c97565b82525050565b61461561461082614c97565b614dd1565b82525050565b61462481614ca1565b82525050565b60006146368285614297565b91506146428284614604565b6020820191508190509392505050565b600061465d82614546565b91506146698285614266565b9150614674826145af565b91506146808284614266565b91508190509392505050565b60006020820190506146a160008301846141c7565b92915050565b60006020820190506146bc60008301846141b8565b92915050565b60006080820190506146d760008301876141c7565b6146e460208301866141c7565b6146f160408301856145f5565b818103606083015261470381846141f4565b905095945050505050565b600060408201905061472360008301856141c7565b61473060208301846145f5565b9392505050565b600060208201905061474c60008301846141d6565b92915050565b600060208201905061476760008301846141e5565b92915050565b60006020820190508181036000830152614787818461422d565b905092915050565b600060208201905081810360008301526147a881614316565b9050919050565b600060208201905081810360008301526147c881614339565b9050919050565b600060208201905081810360008301526147e88161435c565b9050919050565b600060208201905081810360008301526148088161437f565b9050919050565b60006020820190508181036000830152614828816143a2565b9050919050565b60006020820190508181036000830152614848816143c5565b9050919050565b60006020820190508181036000830152614868816143e8565b9050919050565b600060208201905081810360008301526148888161440b565b9050919050565b600060208201905081810360008301526148a88161442e565b9050919050565b600060208201905081810360008301526148c881614451565b9050919050565b600060208201905081810360008301526148e881614474565b9050919050565b6000602082019050818103600083015261490881614497565b9050919050565b60006020820190508181036000830152614928816144ba565b9050919050565b60006020820190508181036000830152614948816144dd565b9050919050565b6000602082019050818103600083015261496881614500565b9050919050565b6000602082019050818103600083015261498881614523565b9050919050565b600060208201905081810360008301526149a881614569565b9050919050565b600060208201905081810360008301526149c88161458c565b9050919050565b600060208201905081810360008301526149e8816145d2565b9050919050565b6000602082019050614a0460008301846145f5565b92915050565b6000604082019050614a1f60008301856145f5565b614a2c60208301846145f5565b9392505050565b6000602082019050614a48600083018461461b565b92915050565b6000614a58614a69565b9050614a648282614d57565b919050565b6000604051905090565b600067ffffffffffffffff821115614a8e57614a8d614e99565b5b614a9782614ec8565b9050602081019050919050565b60008190508160005260206000209050919050565b600081519050919050565b600081519050919050565b600082825260208201905092915050565b600082825260208201905092915050565b600081905092915050565b6000614b0782614c97565b9150614b1283614c97565b9250827fffffffffffffffffffffffffffffffffffffffffffffffffffffffffffffffff03821115614b4757614b46614e0c565b5b828201905092915050565b6000614b5d82614c97565b9150614b6883614c97565b925082614b7857614b77614e3b565b5b828204905092915050565b6000614b8e82614c97565b9150614b9983614c97565b9250817fffffffffffffffffffffffffffffffffffffffffffffffffffffffffffffffff0483118215151615614bd257614bd1614e0c565b5b828202905092915050565b6000614be882614c97565b9150614bf383614c97565b925082821015614c0657614c05614e0c565b5b828203905092915050565b6000614c1c82614c77565b9050919050565b6000614c2e82614c77565b9050919050565b60008115159050919050565b6000819050919050565b60007fffffffff0000000000000000000000000000000000000000000000000000000082169050919050565b600073ffffffffffffffffffffffffffffffffffffffff82169050919050565b6000819050919050565b60006bffffffffffffffffffffffff82169050919050565b82818337600083830152505050565b60005b83811015614ce6578082015181840152602081019050614ccb565b83811115614cf5576000848401525b50505050565b6000614d0682614c97565b91506000821415614d1a57614d19614e0c565b5b600182039050919050565b60006002820490506001821680614d3d57607f821691505b60208210811415614d5157614d50614e6a565b5b50919050565b614d6082614ec8565b810181811067ffffffffffffffff82111715614d7f57614d7e614e99565b5b80604052505050565b6000614d9382614c97565b91507fffffffffffffffffffffffffffffffffffffffffffffffffffffffffffffffff821415614dc657614dc5614e0c565b5b600182019050919050565b6000819050919050565b6000614de682614c97565b9150614df183614c97565b925082614e0157614e00614e3b565b5b828206905092915050565b7f4e487b7100000000000000000000000000000000000000000000000000000000600052601160045260246000fd5b7f4e487b7100000000000000000000000000000000000000000000000000000000600052601260045260246000fd5b7f4e487b7100000000000000000000000000000000000000000000000000000000600052602260045260246000fd5b7f4e487b7100000000000000000000000000000000000000000000000000000000600052604160045260246000fd5b6000601f19601f8301169050919050565b7f537472696e67733a20686578206c656e67746820696e73756666696369656e74600082015250565b7f455243373231456e756d657261626c653a206f776e657220696e646578206f7560008201527f74206f6620626f756e6473000000000000000000000000000000000000000000602082015250565b7f4552433732313a207472616e7366657220746f206e6f6e20455243373231526560008201527f63656976657220696d706c656d656e7465720000000000000000000000000000602082015250565b7f4552433732313a207472616e736665722066726f6d20696e636f72726563742060008201527f6f776e6572000000000000000000000000000000000000000000000000000000602082015250565b7f4552433732313a20746f6b656e20616c7265616479206d696e74656400000000600082015250565b7f4552433732313a207472616e7366657220746f20746865207a65726f2061646460008201527f7265737300000000000000000000000000000000000000000000000000000000602082015250565b7f4552433732313a20617070726f766520746f2063616c6c657200000000000000600082015250565b7f4552433732313a206f70657261746f7220717565727920666f72206e6f6e657860008201527f697374656e7420746f6b656e0000000000000000000000000000000000000000602082015250565b7f4552433732313a20617070726f76652063616c6c6572206973206e6f74206f7760008201527f6e6572206e6f7220617070726f76656420666f7220616c6c0000000000000000602082015250565b7f4552433732313a2062616c616e636520717565727920666f7220746865207a6560008201527f726f206164647265737300000000000000000000000000000000000000000000602082015250565b7f4552433732313a206f776e657220717565727920666f72206e6f6e657869737460008201527f656e7420746f6b656e0000000000000000000000000000000000000000000000602082015250565b7f4552433732313a206d696e7420746f20746865207a65726f2061646472657373600082015250565b7f4552433732313a20617070726f76656420717565727920666f72206e6f6e657860008201527f697374656e7420746f6b656e0000000000000000000000000000000000000000602082015250565b7f4552433732313a20617070726f76616c20746f2063757272656e74206f776e6560008201527f7200000000000000000000000000000000000000000000000000000000000000602082015250565b7f4552433732313a207472616e736665722063616c6c6572206973206e6f74206f60008201527f776e6572206e6f7220617070726f766564000000000000000000000000000000602082015250565b7f455243373231456e756d657261626c653a20676c6f62616c20696e646578206f60008201527f7574206f6620626f756e64730000000000000000000000000000000000000000602082015250565b7f416363657373436f6e74726f6c3a206163636f756e7420000000000000000000600082015250565b7f737570706c792063617020726561636865640000000000000000000000000000600082015250565b7f4552433732314275726e61626c653a2063616c6c6572206973206e6f74206f7760008201527f6e6572206e6f7220617070726f76656400000000000000000000000000000000602082015250565b7f206973206d697373696e6720726f6c6520000000000000000000000000000000600082015250565b7f416363657373436f6e74726f6c3a2063616e206f6e6c792072656e6f756e636560008201527f20726f6c657320666f722073656c660000000000000000000000000000000000602082015250565b61545381614c11565b811461545e57600080fd5b50565b61546a81614c23565b811461547557600080fd5b50565b61548181614c35565b811461548c57600080fd5b50565b61549881614c41565b81146154a357600080fd5b50565b6154af81614c4b565b81146154ba57600080fd5b50565b6154c681614c97565b81146154d157600080fd5b5056fea2646970667358221220103d96806f28d068fffa95217f20f70e6a9715212779aff88a101206408e864664736f6c63430008020033",
  "linkReferences": {},
  "deployedLinkReferences": {}
}