{
  "_format": "hh-sol-artifact-1",
  "contractName": "FineNFT",
  "sourceName": "contracts/FineNFT.sol",
  "abi": [
    {
      "inputs": [
        {
          "internalType": "address",
          "name": "coreAddress",
          "type": "address"
        },
        {
          "internalType": "address",
          "name": "shopAddress",
          "type": "address"
        }
      ],
      "stateMutability": "nonpayable",
      "type": "constructor"
    },
    {
      "anonymous": false,
      "inputs": [
        {
          "indexed": true,
          "internalType": "address",
          "name": "owner",
          "type": "address"
        },
        {
          "indexed": true,
          "internalType": "address",
          "name": "approved",
          "type": "address"
        },
        {
          "indexed": true,
          "internalType": "uint256",
          "name": "tokenId",
          "type": "uint256"
        }
      ],
      "name": "Approval",
      "type": "event"
    },
    {
      "anonymous": false,
      "inputs": [
        {
          "indexed": true,
          "internalType": "address",
          "name": "owner",
          "type": "address"
        },
        {
          "indexed": true,
          "internalType": "address",
          "name": "operator",
          "type": "address"
        },
        {
          "indexed": false,
          "internalType": "bool",
          "name": "approved",
          "type": "bool"
        }
      ],
      "name": "ApprovalForAll",
      "type": "event"
    },
    {
      "anonymous": false,
      "inputs": [
        {
          "indexed": true,
          "internalType": "bytes32",
          "name": "role",
          "type": "bytes32"
        },
        {
          "indexed": true,
          "internalType": "bytes32",
          "name": "previousAdminRole",
          "type": "bytes32"
        },
        {
          "indexed": true,
          "internalType": "bytes32",
          "name": "newAdminRole",
          "type": "bytes32"
        }
      ],
      "name": "RoleAdminChanged",
      "type": "event"
    },
    {
      "anonymous": false,
      "inputs": [
        {
          "indexed": true,
          "internalType": "bytes32",
          "name": "role",
          "type": "bytes32"
        },
        {
          "indexed": true,
          "internalType": "address",
          "name": "account",
          "type": "address"
        },
        {
          "indexed": true,
          "internalType": "address",
          "name": "sender",
          "type": "address"
        }
      ],
      "name": "RoleGranted",
      "type": "event"
    },
    {
      "anonymous": false,
      "inputs": [
        {
          "indexed": true,
          "internalType": "bytes32",
          "name": "role",
          "type": "bytes32"
        },
        {
          "indexed": true,
          "internalType": "address",
          "name": "account",
          "type": "address"
        },
        {
          "indexed": true,
          "internalType": "address",
          "name": "sender",
          "type": "address"
        }
      ],
      "name": "RoleRevoked",
      "type": "event"
    },
    {
      "anonymous": false,
      "inputs": [
        {
          "indexed": true,
          "internalType": "address",
          "name": "from",
          "type": "address"
        },
        {
          "indexed": true,
          "internalType": "address",
          "name": "to",
          "type": "address"
        },
        {
          "indexed": true,
          "internalType": "uint256",
          "name": "tokenId",
          "type": "uint256"
        }
      ],
      "name": "Transfer",
      "type": "event"
    },
    {
      "anonymous": false,
      "inputs": [
        {
          "indexed": false,
          "internalType": "address",
          "name": "_from",
          "type": "address"
        },
        {
          "indexed": false,
          "internalType": "uint256",
          "name": "_amount",
          "type": "uint256"
        }
      ],
      "name": "recievedFunds",
      "type": "event"
    },
    {
      "inputs": [],
      "name": "DEFAULT_ADMIN_ROLE",
      "outputs": [
        {
          "internalType": "bytes32",
          "name": "",
          "type": "bytes32"
        }
      ],
      "stateMutability": "view",
      "type": "function"
    },
    {
      "inputs": [],
      "name": "MINTER_ROLE",
      "outputs": [
        {
          "internalType": "bytes32",
          "name": "",
          "type": "bytes32"
        }
      ],
      "stateMutability": "view",
      "type": "function"
    },
    {
      "inputs": [],
      "name": "TOKEN_LIMIT",
      "outputs": [
        {
          "internalType": "uint256",
          "name": "",
          "type": "uint256"
        }
      ],
      "stateMutability": "view",
      "type": "function"
    },
    {
      "inputs": [],
      "name": "_contractURI",
      "outputs": [
        {
          "internalType": "string",
          "name": "",
          "type": "string"
        }
      ],
      "stateMutability": "view",
      "type": "function"
    },
    {
      "inputs": [],
      "name": "additionalPayee",
      "outputs": [
        {
          "internalType": "address payable",
          "name": "",
          "type": "address"
        }
      ],
      "stateMutability": "view",
      "type": "function"
    },
    {
      "inputs": [
        {
          "internalType": "uint96",
          "name": "_percentage",
          "type": "uint96"
        }
      ],
      "name": "additionalPayeePercent",
      "outputs": [],
      "stateMutability": "nonpayable",
      "type": "function"
    },
    {
      "inputs": [],
      "name": "additionalPayeePercentage",
      "outputs": [
        {
          "internalType": "uint256",
          "name": "",
          "type": "uint256"
        }
      ],
      "stateMutability": "view",
      "type": "function"
    },
    {
      "inputs": [
        {
          "internalType": "uint96",
          "name": "_percentage",
          "type": "uint96"
        }
      ],
      "name": "additionalPayeeRoyaltyPercent",
      "outputs": [],
      "stateMutability": "nonpayable",
      "type": "function"
    },
    {
      "inputs": [],
      "name": "additionalPayeeRoyaltyPercentage",
      "outputs": [
        {
          "internalType": "uint256",
          "name": "",
          "type": "uint256"
        }
      ],
      "stateMutability": "view",
      "type": "function"
    },
    {
      "inputs": [
        {
          "internalType": "address",
          "name": "to",
          "type": "address"
        },
        {
          "internalType": "uint256",
          "name": "tokenId",
          "type": "uint256"
        }
      ],
      "name": "approve",
      "outputs": [],
      "stateMutability": "nonpayable",
      "type": "function"
    },
    {
      "inputs": [],
      "name": "artist",
      "outputs": [
        {
          "internalType": "string",
          "name": "",
          "type": "string"
        }
      ],
      "stateMutability": "view",
      "type": "function"
    },
    {
      "inputs": [],
      "name": "artistAddress",
      "outputs": [
        {
          "internalType": "address payable",
          "name": "",
          "type": "address"
        }
      ],
      "stateMutability": "view",
      "type": "function"
    },
    {
      "inputs": [
        {
          "internalType": "uint256",
          "name": "",
          "type": "uint256"
        }
      ],
      "name": "artworkId",
      "outputs": [
        {
          "internalType": "uint256",
          "name": "",
          "type": "uint256"
        }
      ],
      "stateMutability": "view",
      "type": "function"
    },
    {
      "inputs": [
        {
          "internalType": "address",
          "name": "owner",
          "type": "address"
        }
      ],
      "name": "balanceOf",
      "outputs": [
        {
          "internalType": "uint256",
          "name": "",
          "type": "uint256"
        }
      ],
      "stateMutability": "view",
      "type": "function"
    },
    {
      "inputs": [],
      "name": "baseURI",
      "outputs": [
        {
          "internalType": "string",
          "name": "",
          "type": "string"
        }
      ],
      "stateMutability": "view",
      "type": "function"
    },
    {
      "inputs": [
        {
          "internalType": "uint256",
          "name": "tokenId",
          "type": "uint256"
        }
      ],
      "name": "burn",
      "outputs": [],
      "stateMutability": "nonpayable",
      "type": "function"
    },
    {
      "inputs": [],
      "name": "checkPool",
      "outputs": [
        {
          "internalType": "uint256",
          "name": "",
          "type": "uint256"
        }
      ],
      "stateMutability": "view",
      "type": "function"
    },
    {
      "inputs": [],
      "name": "contractURI",
      "outputs": [
        {
          "internalType": "string",
          "name": "",
          "type": "string"
        }
      ],
      "stateMutability": "view",
      "type": "function"
    },
    {
      "inputs": [],
      "name": "description",
      "outputs": [
        {
          "internalType": "string",
          "name": "",
          "type": "string"
        }
      ],
      "stateMutability": "view",
      "type": "function"
    },
    {
      "inputs": [],
      "name": "getAdditionalPayee",
      "outputs": [
        {
          "internalType": "address payable",
          "name": "",
          "type": "address"
        }
      ],
      "stateMutability": "view",
      "type": "function"
    },
    {
      "inputs": [],
      "name": "getAdditionalPayeePercentage",
      "outputs": [
        {
          "internalType": "uint256",
          "name": "",
          "type": "uint256"
        }
      ],
      "stateMutability": "view",
      "type": "function"
    },
    {
      "inputs": [
        {
          "internalType": "uint256",
          "name": "tokenId",
          "type": "uint256"
        }
      ],
      "name": "getApproved",
      "outputs": [
        {
          "internalType": "address",
          "name": "",
          "type": "address"
        }
      ],
      "stateMutability": "view",
      "type": "function"
    },
    {
      "inputs": [],
      "name": "getArtistAddress",
      "outputs": [
        {
          "internalType": "address payable",
          "name": "",
          "type": "address"
        }
      ],
      "stateMutability": "view",
      "type": "function"
    },
    {
      "inputs": [
        {
          "internalType": "bytes32",
          "name": "role",
          "type": "bytes32"
        }
      ],
      "name": "getRoleAdmin",
      "outputs": [
        {
          "internalType": "bytes32",
          "name": "",
          "type": "bytes32"
        }
      ],
      "stateMutability": "view",
      "type": "function"
    },
    {
      "inputs": [],
      "name": "getTokenLimit",
      "outputs": [
        {
          "internalType": "uint256",
          "name": "",
          "type": "uint256"
        }
      ],
      "stateMutability": "view",
      "type": "function"
    },
    {
      "inputs": [
        {
          "internalType": "bytes32",
          "name": "role",
          "type": "bytes32"
        },
        {
          "internalType": "address",
          "name": "account",
          "type": "address"
        }
      ],
      "name": "grantRole",
      "outputs": [],
      "stateMutability": "nonpayable",
      "type": "function"
    },
    {
      "inputs": [
        {
          "internalType": "bytes32",
          "name": "role",
          "type": "bytes32"
        },
        {
          "internalType": "address",
          "name": "account",
          "type": "address"
        }
      ],
      "name": "hasRole",
      "outputs": [
        {
          "internalType": "bool",
          "name": "",
          "type": "bool"
        }
      ],
      "stateMutability": "view",
      "type": "function"
    },
    {
      "inputs": [
        {
          "internalType": "uint256",
          "name": "start",
          "type": "uint256"
        },
        {
          "internalType": "uint256",
          "name": "end",
          "type": "uint256"
        }
      ],
      "name": "initPool",
      "outputs": [],
      "stateMutability": "nonpayable",
      "type": "function"
    },
    {
      "inputs": [
        {
          "internalType": "address",
          "name": "owner",
          "type": "address"
        },
        {
          "internalType": "address",
          "name": "operator",
          "type": "address"
        }
      ],
      "name": "isApprovedForAll",
      "outputs": [
        {
          "internalType": "bool",
          "name": "",
          "type": "bool"
        }
      ],
      "stateMutability": "view",
      "type": "function"
    },
    {
      "inputs": [],
      "name": "license",
      "outputs": [
        {
          "internalType": "string",
          "name": "",
          "type": "string"
        }
      ],
      "stateMutability": "view",
      "type": "function"
    },
    {
      "inputs": [],
      "name": "lock",
      "outputs": [],
      "stateMutability": "nonpayable",
      "type": "function"
    },
    {
      "inputs": [],
      "name": "locked",
      "outputs": [
        {
          "internalType": "bool",
          "name": "",
          "type": "bool"
        }
      ],
      "stateMutability": "view",
      "type": "function"
    },
    {
      "inputs": [
        {
          "internalType": "address",
          "name": "to",
          "type": "address"
        }
      ],
      "name": "mint",
      "outputs": [
        {
          "internalType": "uint256",
          "name": "tokenId",
          "type": "uint256"
        }
      ],
      "stateMutability": "nonpayable",
      "type": "function"
    },
    {
      "inputs": [],
      "name": "name",
      "outputs": [
        {
          "internalType": "string",
          "name": "",
          "type": "string"
        }
      ],
      "stateMutability": "view",
      "type": "function"
    },
    {
      "inputs": [
        {
          "internalType": "uint256",
          "name": "tokenId",
          "type": "uint256"
        }
      ],
      "name": "ownerOf",
      "outputs": [
        {
          "internalType": "address",
          "name": "",
          "type": "address"
        }
      ],
      "stateMutability": "view",
      "type": "function"
    },
    {
      "inputs": [
        {
          "internalType": "bytes32",
          "name": "role",
          "type": "bytes32"
        },
        {
          "internalType": "address",
          "name": "account",
          "type": "address"
        }
      ],
      "name": "renounceRole",
      "outputs": [],
      "stateMutability": "nonpayable",
      "type": "function"
    },
    {
      "inputs": [
        {
          "internalType": "bytes32",
          "name": "role",
          "type": "bytes32"
        },
        {
          "internalType": "address",
          "name": "account",
          "type": "address"
        }
      ],
      "name": "revokeRole",
      "outputs": [],
      "stateMutability": "nonpayable",
      "type": "function"
    },
    {
      "inputs": [
        {
          "internalType": "uint256",
          "name": "_tokenId",
          "type": "uint256"
        },
        {
          "internalType": "uint256",
          "name": "_salePrice",
          "type": "uint256"
        }
      ],
      "name": "royaltyInfo",
      "outputs": [
        {
          "internalType": "address",
          "name": "",
          "type": "address"
        },
        {
          "internalType": "uint256",
          "name": "",
          "type": "uint256"
        }
      ],
      "stateMutability": "view",
      "type": "function"
    },
    {
      "inputs": [],
      "name": "royaltyPercent",
      "outputs": [
        {
          "internalType": "uint96",
          "name": "",
          "type": "uint96"
        }
      ],
      "stateMutability": "view",
      "type": "function"
    },
    {
      "inputs": [
        {
          "internalType": "address",
          "name": "from",
          "type": "address"
        },
        {
          "internalType": "address",
          "name": "to",
          "type": "address"
        },
        {
          "internalType": "uint256",
          "name": "tokenId",
          "type": "uint256"
        }
      ],
      "name": "safeTransferFrom",
      "outputs": [],
      "stateMutability": "nonpayable",
      "type": "function"
    },
    {
      "inputs": [
        {
          "internalType": "address",
          "name": "from",
          "type": "address"
        },
        {
          "internalType": "address",
          "name": "to",
          "type": "address"
        },
        {
          "internalType": "uint256",
          "name": "tokenId",
          "type": "uint256"
        },
        {
          "internalType": "bytes",
          "name": "_data",
          "type": "bytes"
        }
      ],
      "name": "safeTransferFrom",
      "outputs": [],
      "stateMutability": "nonpayable",
      "type": "function"
    },
    {
      "inputs": [
        {
          "internalType": "uint256",
          "name": "",
          "type": "uint256"
        }
      ],
      "name": "scripts",
      "outputs": [
        {
          "internalType": "string",
          "name": "",
          "type": "string"
        }
      ],
      "stateMutability": "view",
      "type": "function"
    },
    {
      "inputs": [
        {
          "internalType": "address",
          "name": "operator",
          "type": "address"
        },
        {
          "internalType": "bool",
          "name": "approved",
          "type": "bool"
        }
      ],
      "name": "setApprovalForAll",
      "outputs": [],
      "stateMutability": "nonpayable",
      "type": "function"
    },
    {
      "inputs": [
        {
          "internalType": "string",
          "name": "_uri",
          "type": "string"
        }
      ],
      "name": "setBaseURI",
      "outputs": [],
      "stateMutability": "nonpayable",
      "type": "function"
    },
    {
      "inputs": [
        {
          "internalType": "string",
          "name": "_uri",
          "type": "string"
        }
      ],
      "name": "setContractURI",
      "outputs": [],
      "stateMutability": "nonpayable",
      "type": "function"
    },
    {
      "inputs": [
        {
          "internalType": "string",
          "name": "_desc",
          "type": "string"
        }
      ],
      "name": "setDescription",
      "outputs": [],
      "stateMutability": "nonpayable",
      "type": "function"
    },
    {
      "inputs": [
        {
          "internalType": "uint96",
          "name": "_percentage",
          "type": "uint96"
        }
      ],
      "name": "setRoyaltyPercent",
      "outputs": [],
      "stateMutability": "nonpayable",
      "type": "function"
    },
    {
      "inputs": [
        {
          "internalType": "uint256",
          "name": "index",
          "type": "uint256"
        },
        {
          "internalType": "string",
          "name": "script",
          "type": "string"
        }
      ],
      "name": "setScript",
      "outputs": [],
      "stateMutability": "nonpayable",
      "type": "function"
    },
    {
      "inputs": [
        {
          "internalType": "string",
          "name": "_url",
          "type": "string"
        }
      ],
      "name": "setWebsite",
      "outputs": [],
      "stateMutability": "nonpayable",
      "type": "function"
    },
    {
      "inputs": [
        {
          "internalType": "bytes4",
          "name": "interfaceId",
          "type": "bytes4"
        }
      ],
      "name": "supportsInterface",
      "outputs": [
        {
          "internalType": "bool",
          "name": "",
          "type": "bool"
        }
      ],
      "stateMutability": "view",
      "type": "function"
    },
    {
      "inputs": [],
      "name": "symbol",
      "outputs": [
        {
          "internalType": "string",
          "name": "",
          "type": "string"
        }
      ],
      "stateMutability": "view",
      "type": "function"
    },
    {
      "inputs": [
        {
          "internalType": "uint256",
          "name": "index",
          "type": "uint256"
        }
      ],
      "name": "tokenByIndex",
      "outputs": [
        {
          "internalType": "uint256",
          "name": "",
          "type": "uint256"
        }
      ],
      "stateMutability": "view",
      "type": "function"
    },
    {
      "inputs": [
        {
          "internalType": "address",
          "name": "owner",
          "type": "address"
        },
        {
          "internalType": "uint256",
          "name": "index",
          "type": "uint256"
        }
      ],
      "name": "tokenOfOwnerByIndex",
      "outputs": [
        {
          "internalType": "uint256",
          "name": "",
          "type": "uint256"
        }
      ],
      "stateMutability": "view",
      "type": "function"
    },
    {
      "inputs": [
        {
          "internalType": "uint256",
          "name": "tokenId",
          "type": "uint256"
        }
      ],
      "name": "tokenURI",
      "outputs": [
        {
          "internalType": "string",
          "name": "",
          "type": "string"
        }
      ],
      "stateMutability": "view",
      "type": "function"
    },
    {
      "inputs": [],
      "name": "totalSupply",
      "outputs": [
        {
          "internalType": "uint256",
          "name": "",
          "type": "uint256"
        }
      ],
      "stateMutability": "view",
      "type": "function"
    },
    {
      "inputs": [
        {
          "internalType": "address",
          "name": "from",
          "type": "address"
        },
        {
          "internalType": "address",
          "name": "to",
          "type": "address"
        },
        {
          "internalType": "uint256",
          "name": "tokenId",
          "type": "uint256"
        }
      ],
      "name": "transferFrom",
      "outputs": [],
      "stateMutability": "nonpayable",
      "type": "function"
    },
    {
      "inputs": [],
      "name": "website",
      "outputs": [
        {
          "internalType": "string",
          "name": "",
          "type": "string"
        }
      ],
      "stateMutability": "view",
      "type": "function"
    },
    {
      "inputs": [],
      "name": "withdraw",
      "outputs": [],
      "stateMutability": "nonpayable",
      "type": "function"
    },
    {
      "stateMutability": "payable",
      "type": "receive"
    }
  ],
  "bytecode": "0x6103e8600d556014805474e31a7d022e545eced32d276ca880649852c91353006001600160a81b0319909116179055601580546001600160a01b03191673268b87e4f6b7e7beb58e3128138d4f6b768e1b1717905560646016819055601755601880546001600160601b031916611d4c17905560c0604052600e60808190526d495046532048415348204845524560901b60a0908152620000a4916019919062000480565b5060408051808201909152600e8082526d495046532048415348204845524560901b6020909201918252620000dc91601a9162000480565b506040805180820190915260048082526366696e6560e01b60209092019182526200010a91601b9162000480565b506040805180820190915260158082527f612073616d706c65204e465420666f722046494e45000000000000000000000060209092019182526200015191601c9162000480565b506040805180820190915260148082527f68747470733a2f2f66696e652e6469676974616c00000000000000000000000060209092019182526200019891601d9162000480565b506040805180820190915260038082526213525560ea1b6020909201918252620001c591601e9162000480565b50348015620001d357600080fd5b506040516200375e3803806200375e833981016040819052620001f69162000543565b604080518082018252600c81526b1192539148111a59da5d185b60a21b60208083019182528351808501909452600484526346494e4560e01b908401528151919291620002469160029162000480565b5080516200025c90600390602084019062000480565b506200026e91506000905033620002d6565b6200029a7f9f2df0fed2c77648de5860a4cc508cd0818c85b8b8a1ab4ceeef8d981c8956a682620002d6565b600e80546001600160a01b0319166001600160a01b038416179055601854620002ce9030906001600160601b03166200037b565b5050620005b8565b6000828152600c602090815260408083206001600160a01b038516845290915290205460ff1662000377576000828152600c602090815260408083206001600160a01b03851684529091529020805460ff19166001179055620003363390565b6001600160a01b0316816001600160a01b0316837f2f8788117e7eff1d82e926ec794901d17c78024a50270940304540a733656f0d60405160405180910390a45b5050565b6127106001600160601b0382161115620003ef5760405162461bcd60e51b815260206004820152602a60248201527f455243323938313a20726f79616c7479206665652077696c6c206578636565646044820152692073616c65507269636560b01b60648201526084015b60405180910390fd5b6001600160a01b038216620004475760405162461bcd60e51b815260206004820152601960248201527f455243323938313a20696e76616c6964207265636569766572000000000000006044820152606401620003e6565b604080518082019091526001600160a01b039092168083526001600160601b039091166020909201829052600160a01b90910217600055565b8280546200048e906200057b565b90600052602060002090601f016020900481019282620004b25760008555620004fd565b82601f10620004cd57805160ff1916838001178555620004fd565b82800160010185558215620004fd579182015b82811115620004fd578251825591602001919060010190620004e0565b506200050b9291506200050f565b5090565b5b808211156200050b576000815560010162000510565b80516001600160a01b03811681146200053e57600080fd5b919050565b600080604083850312156200055757600080fd5b620005628362000526565b9150620005726020840162000526565b90509250929050565b600181811c908216806200059057607f821691505b60208210811415620005b257634e487b7160e01b600052602260045260246000fd5b50919050565b61319680620005c86000396000f3fe6080604052600436106103855760003560e01c80636c0360eb116101d1578063a22cb46511610102578063d547741f116100a0578063ea099ad91161006f578063ea099ad914610aab578063f83d08ba14610ac1578063f87f44b914610ad6578063f9f3bfd814610af657600080fd5b8063d547741f14610a08578063d7eb3f3a14610a28578063e8a3d48514610a4d578063e985e9c514610a6257600080fd5b8063c0e72740116100dc578063c0e7274014610985578063c87b56dd1461099a578063cf309012146109ba578063d5391393146109d457600080fd5b8063a22cb46514610930578063b88d4fde14610950578063beb0a4161461097057600080fd5b806390c3f38f1161016f57806395d89b411161014957806395d89b41146108ae5780639e1b0045146108c35780639f67756d146108e3578063a217fddf1461091b57600080fd5b806390c3f38f1461084e57806391d148541461086e578063938e3d7b1461088e57600080fd5b806371199d30116101ab57806371199d30146107d65780637284e416146107f6578063867644d91461080b5780638cbe8d801461082b57600080fd5b80636c0360eb146107835780636ff314c71461079857806370a08231146107b657600080fd5b80632f745c59116102b65780634771218a1161025457806359748cb21161022357806359748cb21461070e5780636352211e1461072e5780636a6278421461074e5780636b87d24c1461076e57600080fd5b80634771218a146106995780634bc46a82146106ae5780634f6ccce7146106ce57806355f804b3146106ee57600080fd5b806340138ff11161029057806340138ff11461062e57806342842e0e1461064457806342966c681461066457806343bc16121461068457600080fd5b80632f745c59146105d957806336568abe146105f95780633ccfd60b1461061957600080fd5b806318160ddd1161032357806328485586116102fd57806328485586146105505780632a55205a146105655780632cc88974146105a45780632f2ff15d146105b957600080fd5b806318160ddd146104eb57806323b872dd14610500578063248a9ca31461052057600080fd5b8063081812fc1161035f578063081812fc1461044457806308ff7f611461047c578063095ea7b31461049c578063176f5b09146104be57600080fd5b806301ffc9a7146103c9578063031bd4c4146103fe57806306fdde031461042257600080fd5b366103c457604080513381523460208201527ffb5cb5fc5900f14be0f619816129d1490c275a13734b28ae77072a2f5d676f57910160405180910390a1005b600080fd5b3480156103d557600080fd5b506103e96103e43660046129d8565b610b16565b60405190151581526020015b60405180910390f35b34801561040a57600080fd5b50610414600d5481565b6040519081526020016103f5565b34801561042e57600080fd5b50610437610b27565b6040516103f59190612a4d565b34801561045057600080fd5b5061046461045f366004612a60565b610bb9565b6040516001600160a01b0390911681526020016103f5565b34801561048857600080fd5b50610437610497366004612a60565b610c53565b3480156104a857600080fd5b506104bc6104b7366004612a8e565b610ced565b005b3480156104ca57600080fd5b506104146104d9366004612a60565b60106020526000908152604090205481565b3480156104f757600080fd5b50600a54610414565b34801561050c57600080fd5b506104bc61051b366004612aba565b610e03565b34801561052c57600080fd5b5061041461053b366004612a60565b6000908152600c602052604090206001015490565b34801561055c57600080fd5b50600d54610414565b34801561057157600080fd5b50610585610580366004612afb565b610e35565b604080516001600160a01b0390931683526020830191909152016103f5565b3480156105b057600080fd5b50601654610414565b3480156105c557600080fd5b506104bc6105d4366004612b1d565b610ee3565b3480156105e557600080fd5b506104146105f4366004612a8e565b610f09565b34801561060557600080fd5b506104bc610614366004612b1d565b610f9f565b34801561062557600080fd5b506104bc61101d565b34801561063a57600080fd5b5061041460165481565b34801561065057600080fd5b506104bc61065f366004612aba565b611035565b34801561067057600080fd5b506104bc61067f366004612a60565b611050565b34801561069057600080fd5b506104376110c7565b3480156106a557600080fd5b506104146110d4565b3480156106ba57600080fd5b506104bc6106c9366004612b4d565b6110e5565b3480156106da57600080fd5b506104146106e9366004612a60565b611119565b3480156106fa57600080fd5b506104bc610709366004612bb8565b6111ac565b34801561071a57600080fd5b50601554610464906001600160a01b031681565b34801561073a57600080fd5b50610464610749366004612a60565b6111ca565b34801561075a57600080fd5b50610414610769366004612bfa565b611241565b34801561077a57600080fd5b506104376113d0565b34801561078f57600080fd5b506104376113dd565b3480156107a457600080fd5b506015546001600160a01b0316610464565b3480156107c257600080fd5b506104146107d1366004612bfa565b6113ea565b3480156107e257600080fd5b506104bc6107f1366004612c17565b611471565b34801561080257600080fd5b5061043761149d565b34801561081757600080fd5b506104bc610826366004612b4d565b6114aa565b34801561083757600080fd5b5060145461010090046001600160a01b0316610464565b34801561085a57600080fd5b506104bc610869366004612bb8565b6114c5565b34801561087a57600080fd5b506103e9610889366004612b1d565b6114dd565b34801561089a57600080fd5b506104bc6108a9366004612bb8565b611508565b3480156108ba57600080fd5b50610437611520565b3480156108cf57600080fd5b506104bc6108de366004612afb565b61152f565b3480156108ef57600080fd5b50601854610903906001600160601b031681565b6040516001600160601b0390911681526020016103f5565b34801561092757600080fd5b50610414600081565b34801561093c57600080fd5b506104bc61094b366004612c63565b6115a4565b34801561095c57600080fd5b506104bc61096b366004612cac565b6115af565b34801561097c57600080fd5b506104376115e1565b34801561099157600080fd5b506104376115ee565b3480156109a657600080fd5b506104376109b5366004612a60565b6115fb565b3480156109c657600080fd5b506014546103e99060ff1681565b3480156109e057600080fd5b506104147f9f2df0fed2c77648de5860a4cc508cd0818c85b8b8a1ab4ceeef8d981c8956a681565b348015610a1457600080fd5b506104bc610a23366004612b1d565b611640565b348015610a3457600080fd5b506014546104649061010090046001600160a01b031681565b348015610a5957600080fd5b50610437611666565b348015610a6e57600080fd5b506103e9610a7d366004612d8c565b6001600160a01b03918216600090815260076020908152604080832093909416825291909152205460ff1690565b348015610ab757600080fd5b5061041460175481565b348015610acd57600080fd5b506104bc611675565b348015610ae257600080fd5b506104bc610af1366004612bb8565b6116de565b348015610b0257600080fd5b506104bc610b11366004612b4d565b6116f6565b6000610b2182611711565b92915050565b606060028054610b3690612dba565b80601f0160208091040260200160405190810160405280929190818152602001828054610b6290612dba565b8015610baf5780601f10610b8457610100808354040283529160200191610baf565b820191906000526020600020905b815481529060010190602001808311610b9257829003601f168201915b5050505050905090565b6000818152600460205260408120546001600160a01b0316610c375760405162461bcd60e51b815260206004820152602c60248201527f4552433732313a20617070726f76656420717565727920666f72206e6f6e657860448201526b34b9ba32b73a103a37b5b2b760a11b60648201526084015b60405180910390fd5b506000908152600660205260409020546001600160a01b031690565b60116020526000908152604090208054610c6c90612dba565b80601f0160208091040260200160405190810160405280929190818152602001828054610c9890612dba565b8015610ce55780601f10610cba57610100808354040283529160200191610ce5565b820191906000526020600020905b815481529060010190602001808311610cc857829003601f168201915b505050505081565b6000610cf8826111ca565b9050806001600160a01b0316836001600160a01b03161415610d665760405162461bcd60e51b815260206004820152602160248201527f4552433732313a20617070726f76616c20746f2063757272656e74206f776e656044820152603960f91b6064820152608401610c2e565b336001600160a01b0382161480610d825750610d828133610a7d565b610df45760405162461bcd60e51b815260206004820152603860248201527f4552433732313a20617070726f76652063616c6c6572206973206e6f74206f7760448201527f6e6572206e6f7220617070726f76656420666f7220616c6c00000000000000006064820152608401610c2e565b610dfe8383611736565b505050565b610e0e335b826117a4565b610e2a5760405162461bcd60e51b8152600401610c2e90612df5565b610dfe83838361189b565b60008281526001602090815260408083208151808301909252546001600160a01b038116808352600160a01b9091046001600160601b0316928201929092528291610eaa5750604080518082019091526000546001600160a01b0381168252600160a01b90046001600160601b031660208201525b602081015160009061271090610ec9906001600160601b031687612e5c565b610ed39190612e91565b91519350909150505b9250929050565b6000828152600c6020526040902060010154610eff8133611a42565b610dfe8383611aa6565b6000610f14836113ea565b8210610f765760405162461bcd60e51b815260206004820152602b60248201527f455243373231456e756d657261626c653a206f776e657220696e646578206f7560448201526a74206f6620626f756e647360a81b6064820152608401610c2e565b506001600160a01b03919091166000908152600860209081526040808320938352929052205490565b6001600160a01b038116331461100f5760405162461bcd60e51b815260206004820152602f60248201527f416363657373436f6e74726f6c3a2063616e206f6e6c792072656e6f756e636560448201526e103937b632b9903337b91039b2b63360891b6064820152608401610c2e565b6110198282611b2c565b5050565b60006110298133611a42565b61103247611b93565b50565b610dfe838383604051806020016040528060008152506115af565b61105933610e08565b6110be5760405162461bcd60e51b815260206004820152603060248201527f4552433732314275726e61626c653a2063616c6c6572206973206e6f74206f7760448201526f1b995c881b9bdc88185c1c1c9bdd995960821b6064820152608401610c2e565b61103281611d91565b601b8054610c6c90612dba565b60006110e06012611d9a565b905090565b60006110f18133611a42565b50601880546bffffffffffffffffffffffff19166001600160601b0392909216919091179055565b6000611124600a5490565b82106111875760405162461bcd60e51b815260206004820152602c60248201527f455243373231456e756d657261626c653a20676c6f62616c20696e646578206f60448201526b7574206f6620626f756e647360a01b6064820152608401610c2e565b600a828154811061119a5761119a612ea5565b90600052602060002001549050919050565b60006111b88133611a42565b6111c4601a8484612929565b50505050565b6000818152600460205260408120546001600160a01b031680610b215760405162461bcd60e51b815260206004820152602960248201527f4552433732313a206f776e657220717565727920666f72206e6f6e657869737460448201526832b73a103a37b5b2b760b91b6064820152608401610c2e565b60007f9f2df0fed2c77648de5860a4cc508cd0818c85b8b8a1ab4ceeef8d981c8956a661126e8133611a42565b60145460ff166112b65760405162461bcd60e51b81526020600482015260136024820152721cd95d1d1a5b99dcc81b9bdd081b1bd8dad959606a1b6044820152606401610c2e565b60006112c26012611d9a565b116113035760405162461bcd60e51b8152602060048201526011602482015270185b1b081d1bdad95b9cc81b5a5b9d1959607a1b6044820152606401610c2e565b600e546040516329e5d83160e01b8152600481018490524260248201526000916001600160a01b0316906329e5d83190604401602060405180830381865afa158015611353573d6000803e3d6000fd5b505050506040513d601f19601f820116820180604052508101906113779190612ebb565b905060006113856012611d9a565b61138f9083612ed4565b9050600061139e601283611da4565b600086815260106020526040902081905590506113bc601282611db7565b506113c78682611dc3565b50505050919050565b601e8054610c6c90612dba565b601a8054610c6c90612dba565b60006001600160a01b0382166114555760405162461bcd60e51b815260206004820152602a60248201527f4552433732313a2062616c616e636520717565727920666f7220746865207a65604482015269726f206164647265737360b01b6064820152608401610c2e565b506001600160a01b031660009081526005602052604090205490565b600061147d8133611a42565b6000848152601160205260409020611496908484612929565b5050505050565b601c8054610c6c90612dba565b60006114b68133611a42565b506001600160601b0316601755565b60006114d18133611a42565b6111c4601c8484612929565b6000918252600c602090815260408084206001600160a01b0393909316845291905290205460ff1690565b60006115148133611a42565b6111c460198484612929565b606060038054610b3690612dba565b60145460ff161561157c5760405162461bcd60e51b81526020600482015260176024820152761cd95d1d1a5b99dcc8185b1c9958591e481b1bd8dad959604a1b6044820152606401610c2e565b815b81811015610dfe57611591601282611ddd565b508061159c81612ee8565b91505061157e565b611019338383611de9565b6115b933836117a4565b6115d55760405162461bcd60e51b8152600401610c2e90612df5565b6111c484848484611eb8565b601d8054610c6c90612dba565b60198054610c6c90612dba565b600081815260106020526040902054606090601a9061161990611eeb565b60405160200161162a929190612f1f565b6040516020818303038152906040529050919050565b6000828152600c602052604090206001015461165c8133611a42565b610dfe8383611b2c565b606060198054610b3690612dba565b60006116818133611a42565b60145460ff16156116ce5760405162461bcd60e51b81526020600482015260176024820152761cd95d1d1a5b99dcc8185b1c9958591e481b1bd8dad959604a1b6044820152606401610c2e565b506014805460ff19166001179055565b60006116ea8133611a42565b6111c4601d8484612929565b60006117028133611a42565b506001600160601b0316601655565b60006001600160e01b03198216637965db0b60e01b1480610b215750610b2182611fe9565b600081815260066020526040902080546001600160a01b0319166001600160a01b038416908117909155819061176b826111ca565b6001600160a01b03167f8c5be1e5ebec7d5bd14f71427d1e84f3dd0314c0f7b2291e5b200ac8c7c3b92560405160405180910390a45050565b6000818152600460205260408120546001600160a01b031661181d5760405162461bcd60e51b815260206004820152602c60248201527f4552433732313a206f70657261746f7220717565727920666f72206e6f6e657860448201526b34b9ba32b73a103a37b5b2b760a11b6064820152608401610c2e565b6000611828836111ca565b9050806001600160a01b0316846001600160a01b031614806118635750836001600160a01b031661185884610bb9565b6001600160a01b0316145b8061189357506001600160a01b0380821660009081526007602090815260408083209388168352929052205460ff165b949350505050565b826001600160a01b03166118ae826111ca565b6001600160a01b0316146119125760405162461bcd60e51b815260206004820152602560248201527f4552433732313a207472616e736665722066726f6d20696e636f72726563742060448201526437bbb732b960d91b6064820152608401610c2e565b6001600160a01b0382166119745760405162461bcd60e51b8152602060048201526024808201527f4552433732313a207472616e7366657220746f20746865207a65726f206164646044820152637265737360e01b6064820152608401610c2e565b61197f838383611ff4565b61198a600082611736565b6001600160a01b03831660009081526005602052604081208054600192906119b3908490612fc6565b90915550506001600160a01b03821660009081526005602052604081208054600192906119e1908490612fdd565b909155505060008181526004602052604080822080546001600160a01b0319166001600160a01b0386811691821790925591518493918716917fddf252ad1be2c89b69c2b068fc378daa952ba7f163c4a11628f55a4df523b3ef91a4505050565b611a4c82826114dd565b61101957611a64816001600160a01b03166014611fff565b611a6f836020611fff565b604051602001611a80929190612ff5565b60408051601f198184030181529082905262461bcd60e51b8252610c2e91600401612a4d565b611ab082826114dd565b611019576000828152600c602090815260408083206001600160a01b03851684529091529020805460ff19166001179055611ae83390565b6001600160a01b0316816001600160a01b0316837f2f8788117e7eff1d82e926ec794901d17c78024a50270940304540a733656f0d60405160405180910390a45050565b611b3682826114dd565b15611019576000828152600c602090815260408083206001600160a01b0385168085529252808320805460ff1916905551339285917ff6391f5c32d9c69d2a47ea670b442974b53935d1edc7fd64eb21e047a839171b9190a45050565b8015611032576000612710600e60009054906101000a90046001600160a01b03166001600160a01b031663d672131b6040518163ffffffff1660e01b81526004016020604051808303816000875af1158015611bf3573d6000803e3d6000fd5b505050506040513d601f19601f82011682018060405250810190611c179190612ebb565b611c219084612e5c565b611c2b9190612e91565b9050600e60009054906101000a90046001600160a01b03166001600160a01b0316637dafc0d36040518163ffffffff1660e01b81526004016020604051808303816000875af1158015611c82573d6000803e3d6000fd5b505050506040513d601f19601f82011682018060405250810190611ca6919061306a565b6001600160a01b03166108fc829081150290604051600060405180830381858888f19350505050158015611cde573d6000803e3d6000fd5b50600061271060175484611cf29190612e5c565b611cfc9190612e91565b90508015611d40576015546040516001600160a01b039091169082156108fc029083906000818181858888f19350505050158015611d3e573d6000803e3d6000fd5b505b60145461010090046001600160a01b03166108fc82611d5f8587612fc6565b611d699190612fc6565b6040518115909202916000818181858888f193505050501580156111c4573d6000803e3d6000fd5b6110328161219b565b6000610b21825490565b6000611db083836121b5565b9392505050565b6000611db083836121df565b6110198282604051806020016040528060008152506122d2565b6000611db08383612305565b816001600160a01b0316836001600160a01b03161415611e4b5760405162461bcd60e51b815260206004820152601960248201527f4552433732313a20617070726f766520746f2063616c6c6572000000000000006044820152606401610c2e565b6001600160a01b03838116600081815260076020908152604080832094871680845294825291829020805460ff191686151590811790915591519182527f17307eab39ab6107e8899845ad3d59bd9653f200f220920489ca2b5937696c31910160405180910390a3505050565b611ec384848461189b565b611ecf84848484612354565b6111c45760405162461bcd60e51b8152600401610c2e90613087565b606081611f0f5750506040805180820190915260018152600360fc1b602082015290565b8160005b8115611f395780611f2381612ee8565b9150611f329050600a83612e91565b9150611f13565b60008167ffffffffffffffff811115611f5457611f54612c96565b6040519080825280601f01601f191660200182016040528015611f7e576020820181803683370190505b5090505b841561189357611f93600183612fc6565b9150611fa0600a86612ed4565b611fab906030612fdd565b60f81b818381518110611fc057611fc0612ea5565b60200101906001600160f81b031916908160001a905350611fe2600a86612e91565b9450611f82565b6000610b2182612452565b610dfe838383612477565b6060600061200e836002612e5c565b612019906002612fdd565b67ffffffffffffffff81111561203157612031612c96565b6040519080825280601f01601f19166020018201604052801561205b576020820181803683370190505b509050600360fc1b8160008151811061207657612076612ea5565b60200101906001600160f81b031916908160001a905350600f60fb1b816001815181106120a5576120a5612ea5565b60200101906001600160f81b031916908160001a90535060006120c9846002612e5c565b6120d4906001612fdd565b90505b600181111561214c576f181899199a1a9b1b9c1cb0b131b232b360811b85600f166010811061210857612108612ea5565b1a60f81b82828151811061211e5761211e612ea5565b60200101906001600160f81b031916908160001a90535060049490941c93612145816130d9565b90506120d7565b508315611db05760405162461bcd60e51b815260206004820181905260248201527f537472696e67733a20686578206c656e67746820696e73756666696369656e746044820152606401610c2e565b6121a48161252f565b600090815260016020526040812055565b60008260000182815481106121cc576121cc612ea5565b9060005260206000200154905092915050565b600081815260018301602052604081205480156122c8576000612203600183612fc6565b855490915060009061221790600190612fc6565b905081811461227c57600086600001828154811061223757612237612ea5565b906000526020600020015490508087600001848154811061225a5761225a612ea5565b6000918252602080832090910192909255918252600188019052604090208390555b855486908061228d5761228d6130f0565b600190038181906000526020600020016000905590558560010160008681526020019081526020016000206000905560019350505050610b21565b6000915050610b21565b6122dc83836125d6565b6122e96000848484612354565b610dfe5760405162461bcd60e51b8152600401610c2e90613087565b600081815260018301602052604081205461234c57508154600181810184556000848152602080822090930184905584548482528286019093526040902091909155610b21565b506000610b21565b60006001600160a01b0384163b1561244757604051630a85bd0160e11b81526001600160a01b0385169063150b7a0290612398903390899088908890600401613106565b6020604051808303816000875af19250505080156123d3575060408051601f3d908101601f191682019092526123d091810190613143565b60015b61242d573d808015612401576040519150601f19603f3d011682016040523d82523d6000602084013e612406565b606091505b5080516124255760405162461bcd60e51b8152600401610c2e90613087565b805181602001fd5b6001600160e01b031916630a85bd0160e11b149050611893565b506001949350505050565b60006001600160e01b0319821663780e9d6360e01b1480610b215750610b2182612724565b6001600160a01b0383166124d2576124cd81600a80546000838152600b60205260408120829055600182018355919091527fc65a7bb8d6351c1cf70c95a316cc6a92839c986682d98bc35f958f4883f9d2a80155565b6124f5565b816001600160a01b0316836001600160a01b0316146124f5576124f58382612764565b6001600160a01b03821661250c57610dfe81612801565b826001600160a01b0316826001600160a01b031614610dfe57610dfe82826128b0565b600061253a826111ca565b905061254881600084611ff4565b612553600083611736565b6001600160a01b038116600090815260056020526040812080546001929061257c908490612fc6565b909155505060008281526004602052604080822080546001600160a01b0319169055518391906001600160a01b038416907fddf252ad1be2c89b69c2b068fc378daa952ba7f163c4a11628f55a4df523b3ef908390a45050565b6001600160a01b03821661262c5760405162461bcd60e51b815260206004820181905260248201527f4552433732313a206d696e7420746f20746865207a65726f20616464726573736044820152606401610c2e565b6000818152600460205260409020546001600160a01b0316156126915760405162461bcd60e51b815260206004820152601c60248201527f4552433732313a20746f6b656e20616c7265616479206d696e746564000000006044820152606401610c2e565b61269d60008383611ff4565b6001600160a01b03821660009081526005602052604081208054600192906126c6908490612fdd565b909155505060008181526004602052604080822080546001600160a01b0319166001600160a01b03861690811790915590518392907fddf252ad1be2c89b69c2b068fc378daa952ba7f163c4a11628f55a4df523b3ef908290a45050565b60006001600160e01b031982166380ac58cd60e01b148061275557506001600160e01b03198216635b5e139f60e01b145b80610b215750610b21826128f4565b60006001612771846113ea565b61277b9190612fc6565b6000838152600960205260409020549091508082146127ce576001600160a01b03841660009081526008602090815260408083208584528252808320548484528184208190558352600990915290208190555b5060009182526009602090815260408084208490556001600160a01b039094168352600881528383209183525290812055565b600a5460009061281390600190612fc6565b6000838152600b6020526040812054600a805493945090928490811061283b5761283b612ea5565b9060005260206000200154905080600a838154811061285c5761285c612ea5565b6000918252602080832090910192909255828152600b9091526040808220849055858252812055600a805480612894576128946130f0565b6001900381819060005260206000200160009055905550505050565b60006128bb836113ea565b6001600160a01b039093166000908152600860209081526040808320868452825280832085905593825260099052919091209190915550565b60006001600160e01b0319821663152a902d60e11b1480610b2157506301ffc9a760e01b6001600160e01b0319831614610b21565b82805461293590612dba565b90600052602060002090601f016020900481019282612957576000855561299d565b82601f106129705782800160ff1982351617855561299d565b8280016001018555821561299d579182015b8281111561299d578235825591602001919060010190612982565b506129a99291506129ad565b5090565b5b808211156129a957600081556001016129ae565b6001600160e01b03198116811461103257600080fd5b6000602082840312156129ea57600080fd5b8135611db0816129c2565b60005b83811015612a105781810151838201526020016129f8565b838111156111c45750506000910152565b60008151808452612a398160208601602086016129f5565b601f01601f19169290920160200192915050565b602081526000611db06020830184612a21565b600060208284031215612a7257600080fd5b5035919050565b6001600160a01b038116811461103257600080fd5b60008060408385031215612aa157600080fd5b8235612aac81612a79565b946020939093013593505050565b600080600060608486031215612acf57600080fd5b8335612ada81612a79565b92506020840135612aea81612a79565b929592945050506040919091013590565b60008060408385031215612b0e57600080fd5b50508035926020909101359150565b60008060408385031215612b3057600080fd5b823591506020830135612b4281612a79565b809150509250929050565b600060208284031215612b5f57600080fd5b81356001600160601b0381168114611db057600080fd5b60008083601f840112612b8857600080fd5b50813567ffffffffffffffff811115612ba057600080fd5b602083019150836020828501011115610edc57600080fd5b60008060208385031215612bcb57600080fd5b823567ffffffffffffffff811115612be257600080fd5b612bee85828601612b76565b90969095509350505050565b600060208284031215612c0c57600080fd5b8135611db081612a79565b600080600060408486031215612c2c57600080fd5b83359250602084013567ffffffffffffffff811115612c4a57600080fd5b612c5686828701612b76565b9497909650939450505050565b60008060408385031215612c7657600080fd5b8235612c8181612a79565b915060208301358015158114612b4257600080fd5b634e487b7160e01b600052604160045260246000fd5b60008060008060808587031215612cc257600080fd5b8435612ccd81612a79565b93506020850135612cdd81612a79565b925060408501359150606085013567ffffffffffffffff80821115612d0157600080fd5b818701915087601f830112612d1557600080fd5b813581811115612d2757612d27612c96565b604051601f8201601f19908116603f01168101908382118183101715612d4f57612d4f612c96565b816040528281528a6020848701011115612d6857600080fd5b82602086016020830137600060208483010152809550505050505092959194509250565b60008060408385031215612d9f57600080fd5b8235612daa81612a79565b91506020830135612b4281612a79565b600181811c90821680612dce57607f821691505b60208210811415612def57634e487b7160e01b600052602260045260246000fd5b50919050565b60208082526031908201527f4552433732313a207472616e736665722063616c6c6572206973206e6f74206f6040820152701ddb995c881b9bdc88185c1c1c9bdd9959607a1b606082015260800190565b634e487b7160e01b600052601160045260246000fd5b6000816000190483118215151615612e7657612e76612e46565b500290565b634e487b7160e01b600052601260045260246000fd5b600082612ea057612ea0612e7b565b500490565b634e487b7160e01b600052603260045260246000fd5b600060208284031215612ecd57600080fd5b5051919050565b600082612ee357612ee3612e7b565b500690565b6000600019821415612efc57612efc612e46565b5060010190565b60008151612f158185602086016129f5565b9290920192915050565b600080845481600182811c915080831680612f3b57607f831692505b6020808410821415612f5b57634e487b7160e01b86526022600452602486fd5b818015612f6f5760018114612f8057612fad565b60ff19861689528489019650612fad565b60008b81526020902060005b86811015612fa55781548b820152908501908301612f8c565b505084890196505b505050505050612fbd8185612f03565b95945050505050565b600082821015612fd857612fd8612e46565b500390565b60008219821115612ff057612ff0612e46565b500190565b7f416363657373436f6e74726f6c3a206163636f756e742000000000000000000081526000835161302d8160178501602088016129f5565b7001034b99036b4b9b9b4b733903937b6329607d1b601791840191820152835161305e8160288401602088016129f5565b01602801949350505050565b60006020828403121561307c57600080fd5b8151611db081612a79565b60208082526032908201527f4552433732313a207472616e7366657220746f206e6f6e20455243373231526560408201527131b2b4bb32b91034b6b83632b6b2b73a32b960711b606082015260800190565b6000816130e8576130e8612e46565b506000190190565b634e487b7160e01b600052603160045260246000fd5b6001600160a01b038581168252841660208201526040810183905260806060820181905260009061313990830184612a21565b9695505050505050565b60006020828403121561315557600080fd5b8151611db0816129c256fea2646970667358221220ac0584b6d2d628a53eb4296768aac215fc4d9395e7ba5451527d9b6b97ffae9c64736f6c634300080c0033",
  "linkReferences": {},
  "deployedLinkReferences": {}
}