{
  "_format": "hh-sol-artifact-1",
  "contractName": "FineNFT",
  "sourceName": "contracts/FineNFT.sol",
  "abi": [
    {
      "inputs": [
        {
          "internalType": "address",
          "name": "coreAddress",
          "type": "address"
        }
      ],
      "stateMutability": "nonpayable",
      "type": "constructor"
    },
    {
      "anonymous": false,
      "inputs": [
        {
          "indexed": true,
          "internalType": "address",
          "name": "owner",
          "type": "address"
        },
        {
          "indexed": true,
          "internalType": "address",
          "name": "approved",
          "type": "address"
        },
        {
          "indexed": true,
          "internalType": "uint256",
          "name": "tokenId",
          "type": "uint256"
        }
      ],
      "name": "Approval",
      "type": "event"
    },
    {
      "anonymous": false,
      "inputs": [
        {
          "indexed": true,
          "internalType": "address",
          "name": "owner",
          "type": "address"
        },
        {
          "indexed": true,
          "internalType": "address",
          "name": "operator",
          "type": "address"
        },
        {
          "indexed": false,
          "internalType": "bool",
          "name": "approved",
          "type": "bool"
        }
      ],
      "name": "ApprovalForAll",
      "type": "event"
    },
    {
      "anonymous": false,
      "inputs": [
        {
          "indexed": true,
          "internalType": "bytes32",
          "name": "role",
          "type": "bytes32"
        },
        {
          "indexed": true,
          "internalType": "bytes32",
          "name": "previousAdminRole",
          "type": "bytes32"
        },
        {
          "indexed": true,
          "internalType": "bytes32",
          "name": "newAdminRole",
          "type": "bytes32"
        }
      ],
      "name": "RoleAdminChanged",
      "type": "event"
    },
    {
      "anonymous": false,
      "inputs": [
        {
          "indexed": true,
          "internalType": "bytes32",
          "name": "role",
          "type": "bytes32"
        },
        {
          "indexed": true,
          "internalType": "address",
          "name": "account",
          "type": "address"
        },
        {
          "indexed": true,
          "internalType": "address",
          "name": "sender",
          "type": "address"
        }
      ],
      "name": "RoleGranted",
      "type": "event"
    },
    {
      "anonymous": false,
      "inputs": [
        {
          "indexed": true,
          "internalType": "bytes32",
          "name": "role",
          "type": "bytes32"
        },
        {
          "indexed": true,
          "internalType": "address",
          "name": "account",
          "type": "address"
        },
        {
          "indexed": true,
          "internalType": "address",
          "name": "sender",
          "type": "address"
        }
      ],
      "name": "RoleRevoked",
      "type": "event"
    },
    {
      "anonymous": false,
      "inputs": [
        {
          "indexed": true,
          "internalType": "address",
          "name": "from",
          "type": "address"
        },
        {
          "indexed": true,
          "internalType": "address",
          "name": "to",
          "type": "address"
        },
        {
          "indexed": true,
          "internalType": "uint256",
          "name": "tokenId",
          "type": "uint256"
        }
      ],
      "name": "Transfer",
      "type": "event"
    },
    {
      "inputs": [],
      "name": "DEFAULT_ADMIN_ROLE",
      "outputs": [
        {
          "internalType": "bytes32",
          "name": "",
          "type": "bytes32"
        }
      ],
      "stateMutability": "view",
      "type": "function"
    },
    {
      "inputs": [],
      "name": "MINTER_ROLE",
      "outputs": [
        {
          "internalType": "bytes32",
          "name": "",
          "type": "bytes32"
        }
      ],
      "stateMutability": "view",
      "type": "function"
    },
    {
      "inputs": [],
      "name": "TOKEN_LIMIT",
      "outputs": [
        {
          "internalType": "uint256",
          "name": "",
          "type": "uint256"
        }
      ],
      "stateMutability": "view",
      "type": "function"
    },
    {
      "inputs": [],
      "name": "additionalPayee",
      "outputs": [
        {
          "internalType": "address payable",
          "name": "",
          "type": "address"
        }
      ],
      "stateMutability": "view",
      "type": "function"
    },
    {
      "inputs": [],
      "name": "additionalPayeePercentage",
      "outputs": [
        {
          "internalType": "uint256",
          "name": "",
          "type": "uint256"
        }
      ],
      "stateMutability": "view",
      "type": "function"
    },
    {
      "inputs": [
        {
          "internalType": "address",
          "name": "to",
          "type": "address"
        },
        {
          "internalType": "uint256",
          "name": "tokenId",
          "type": "uint256"
        }
      ],
      "name": "approve",
      "outputs": [],
      "stateMutability": "nonpayable",
      "type": "function"
    },
    {
      "inputs": [],
      "name": "artist",
      "outputs": [
        {
          "internalType": "string",
          "name": "",
          "type": "string"
        }
      ],
      "stateMutability": "view",
      "type": "function"
    },
    {
      "inputs": [],
      "name": "artistAddress",
      "outputs": [
        {
          "internalType": "address payable",
          "name": "",
          "type": "address"
        }
      ],
      "stateMutability": "view",
      "type": "function"
    },
    {
      "inputs": [
        {
          "internalType": "address",
          "name": "owner",
          "type": "address"
        }
      ],
      "name": "balanceOf",
      "outputs": [
        {
          "internalType": "uint256",
          "name": "",
          "type": "uint256"
        }
      ],
      "stateMutability": "view",
      "type": "function"
    },
    {
      "inputs": [
        {
          "internalType": "uint256",
          "name": "tokenId",
          "type": "uint256"
        }
      ],
      "name": "burn",
      "outputs": [],
      "stateMutability": "nonpayable",
      "type": "function"
    },
    {
      "inputs": [],
      "name": "description",
      "outputs": [
        {
          "internalType": "string",
          "name": "",
          "type": "string"
        }
      ],
      "stateMutability": "view",
      "type": "function"
    },
    {
      "inputs": [],
      "name": "getAdditionalPayee",
      "outputs": [
        {
          "internalType": "address payable",
          "name": "",
          "type": "address"
        }
      ],
      "stateMutability": "view",
      "type": "function"
    },
    {
      "inputs": [],
      "name": "getAdditionalPayeePercentage",
      "outputs": [
        {
          "internalType": "uint256",
          "name": "",
          "type": "uint256"
        }
      ],
      "stateMutability": "view",
      "type": "function"
    },
    {
      "inputs": [
        {
          "internalType": "uint256",
          "name": "tokenId",
          "type": "uint256"
        }
      ],
      "name": "getApproved",
      "outputs": [
        {
          "internalType": "address",
          "name": "",
          "type": "address"
        }
      ],
      "stateMutability": "view",
      "type": "function"
    },
    {
      "inputs": [],
      "name": "getArtistAddress",
      "outputs": [
        {
          "internalType": "address payable",
          "name": "",
          "type": "address"
        }
      ],
      "stateMutability": "view",
      "type": "function"
    },
    {
      "inputs": [
        {
          "internalType": "bytes32",
          "name": "role",
          "type": "bytes32"
        }
      ],
      "name": "getRoleAdmin",
      "outputs": [
        {
          "internalType": "bytes32",
          "name": "",
          "type": "bytes32"
        }
      ],
      "stateMutability": "view",
      "type": "function"
    },
    {
      "inputs": [],
      "name": "getTokenLimit",
      "outputs": [
        {
          "internalType": "uint256",
          "name": "",
          "type": "uint256"
        }
      ],
      "stateMutability": "view",
      "type": "function"
    },
    {
      "inputs": [
        {
          "internalType": "bytes32",
          "name": "role",
          "type": "bytes32"
        },
        {
          "internalType": "address",
          "name": "account",
          "type": "address"
        }
      ],
      "name": "grantRole",
      "outputs": [],
      "stateMutability": "nonpayable",
      "type": "function"
    },
    {
      "inputs": [
        {
          "internalType": "bytes32",
          "name": "role",
          "type": "bytes32"
        },
        {
          "internalType": "address",
          "name": "account",
          "type": "address"
        }
      ],
      "name": "hasRole",
      "outputs": [
        {
          "internalType": "bool",
          "name": "",
          "type": "bool"
        }
      ],
      "stateMutability": "view",
      "type": "function"
    },
    {
      "inputs": [
        {
          "internalType": "uint256",
          "name": "",
          "type": "uint256"
        }
      ],
      "name": "hashes",
      "outputs": [
        {
          "internalType": "uint256",
          "name": "",
          "type": "uint256"
        }
      ],
      "stateMutability": "view",
      "type": "function"
    },
    {
      "inputs": [
        {
          "internalType": "address",
          "name": "owner",
          "type": "address"
        },
        {
          "internalType": "address",
          "name": "operator",
          "type": "address"
        }
      ],
      "name": "isApprovedForAll",
      "outputs": [
        {
          "internalType": "bool",
          "name": "",
          "type": "bool"
        }
      ],
      "stateMutability": "view",
      "type": "function"
    },
    {
      "inputs": [],
      "name": "license",
      "outputs": [
        {
          "internalType": "string",
          "name": "",
          "type": "string"
        }
      ],
      "stateMutability": "view",
      "type": "function"
    },
    {
      "inputs": [
        {
          "internalType": "address",
          "name": "to",
          "type": "address"
        }
      ],
      "name": "mint",
      "outputs": [
        {
          "internalType": "uint256",
          "name": "tokenId",
          "type": "uint256"
        }
      ],
      "stateMutability": "nonpayable",
      "type": "function"
    },
    {
      "inputs": [],
      "name": "name",
      "outputs": [
        {
          "internalType": "string",
          "name": "",
          "type": "string"
        }
      ],
      "stateMutability": "view",
      "type": "function"
    },
    {
      "inputs": [
        {
          "internalType": "uint256",
          "name": "tokenId",
          "type": "uint256"
        }
      ],
      "name": "ownerOf",
      "outputs": [
        {
          "internalType": "address",
          "name": "",
          "type": "address"
        }
      ],
      "stateMutability": "view",
      "type": "function"
    },
    {
      "inputs": [],
      "name": "projectId",
      "outputs": [
        {
          "internalType": "uint256",
          "name": "",
          "type": "uint256"
        }
      ],
      "stateMutability": "view",
      "type": "function"
    },
    {
      "inputs": [
        {
          "internalType": "bytes32",
          "name": "role",
          "type": "bytes32"
        },
        {
          "internalType": "address",
          "name": "account",
          "type": "address"
        }
      ],
      "name": "renounceRole",
      "outputs": [],
      "stateMutability": "nonpayable",
      "type": "function"
    },
    {
      "inputs": [
        {
          "internalType": "bytes32",
          "name": "role",
          "type": "bytes32"
        },
        {
          "internalType": "address",
          "name": "account",
          "type": "address"
        }
      ],
      "name": "revokeRole",
      "outputs": [],
      "stateMutability": "nonpayable",
      "type": "function"
    },
    {
      "inputs": [
        {
          "internalType": "uint256",
          "name": "_tokenId",
          "type": "uint256"
        },
        {
          "internalType": "uint256",
          "name": "_salePrice",
          "type": "uint256"
        }
      ],
      "name": "royaltyInfo",
      "outputs": [
        {
          "internalType": "address",
          "name": "",
          "type": "address"
        },
        {
          "internalType": "uint256",
          "name": "",
          "type": "uint256"
        }
      ],
      "stateMutability": "view",
      "type": "function"
    },
    {
      "inputs": [
        {
          "internalType": "address",
          "name": "from",
          "type": "address"
        },
        {
          "internalType": "address",
          "name": "to",
          "type": "address"
        },
        {
          "internalType": "uint256",
          "name": "tokenId",
          "type": "uint256"
        }
      ],
      "name": "safeTransferFrom",
      "outputs": [],
      "stateMutability": "nonpayable",
      "type": "function"
    },
    {
      "inputs": [
        {
          "internalType": "address",
          "name": "from",
          "type": "address"
        },
        {
          "internalType": "address",
          "name": "to",
          "type": "address"
        },
        {
          "internalType": "uint256",
          "name": "tokenId",
          "type": "uint256"
        },
        {
          "internalType": "bytes",
          "name": "_data",
          "type": "bytes"
        }
      ],
      "name": "safeTransferFrom",
      "outputs": [],
      "stateMutability": "nonpayable",
      "type": "function"
    },
    {
      "inputs": [
        {
          "internalType": "uint256",
          "name": "",
          "type": "uint256"
        }
      ],
      "name": "scripts",
      "outputs": [
        {
          "internalType": "string",
          "name": "",
          "type": "string"
        }
      ],
      "stateMutability": "view",
      "type": "function"
    },
    {
      "inputs": [
        {
          "internalType": "address",
          "name": "operator",
          "type": "address"
        },
        {
          "internalType": "bool",
          "name": "approved",
          "type": "bool"
        }
      ],
      "name": "setApprovalForAll",
      "outputs": [],
      "stateMutability": "nonpayable",
      "type": "function"
    },
    {
      "inputs": [
        {
          "internalType": "string",
          "name": "_uri",
          "type": "string"
        }
      ],
      "name": "setBaseURI",
      "outputs": [],
      "stateMutability": "nonpayable",
      "type": "function"
    },
    {
      "inputs": [
        {
          "internalType": "string",
          "name": "_desc",
          "type": "string"
        }
      ],
      "name": "setDescription",
      "outputs": [],
      "stateMutability": "nonpayable",
      "type": "function"
    },
    {
      "inputs": [
        {
          "internalType": "uint256",
          "name": "index",
          "type": "uint256"
        },
        {
          "internalType": "string",
          "name": "script",
          "type": "string"
        }
      ],
      "name": "setScript",
      "outputs": [],
      "stateMutability": "nonpayable",
      "type": "function"
    },
    {
      "inputs": [
        {
          "internalType": "string",
          "name": "_url",
          "type": "string"
        }
      ],
      "name": "setWebsite",
      "outputs": [],
      "stateMutability": "nonpayable",
      "type": "function"
    },
    {
      "inputs": [
        {
          "internalType": "bytes4",
          "name": "interfaceId",
          "type": "bytes4"
        }
      ],
      "name": "supportsInterface",
      "outputs": [
        {
          "internalType": "bool",
          "name": "",
          "type": "bool"
        }
      ],
      "stateMutability": "view",
      "type": "function"
    },
    {
      "inputs": [],
      "name": "symbol",
      "outputs": [
        {
          "internalType": "string",
          "name": "",
          "type": "string"
        }
      ],
      "stateMutability": "view",
      "type": "function"
    },
    {
      "inputs": [
        {
          "internalType": "uint256",
          "name": "index",
          "type": "uint256"
        }
      ],
      "name": "tokenByIndex",
      "outputs": [
        {
          "internalType": "uint256",
          "name": "",
          "type": "uint256"
        }
      ],
      "stateMutability": "view",
      "type": "function"
    },
    {
      "inputs": [
        {
          "internalType": "address",
          "name": "owner",
          "type": "address"
        },
        {
          "internalType": "uint256",
          "name": "index",
          "type": "uint256"
        }
      ],
      "name": "tokenOfOwnerByIndex",
      "outputs": [
        {
          "internalType": "uint256",
          "name": "",
          "type": "uint256"
        }
      ],
      "stateMutability": "view",
      "type": "function"
    },
    {
      "inputs": [
        {
          "internalType": "uint256",
          "name": "tokenId",
          "type": "uint256"
        }
      ],
      "name": "tokenURI",
      "outputs": [
        {
          "internalType": "string",
          "name": "",
          "type": "string"
        }
      ],
      "stateMutability": "view",
      "type": "function"
    },
    {
      "inputs": [],
      "name": "totalSupply",
      "outputs": [
        {
          "internalType": "uint256",
          "name": "",
          "type": "uint256"
        }
      ],
      "stateMutability": "view",
      "type": "function"
    },
    {
      "inputs": [
        {
          "internalType": "address",
          "name": "from",
          "type": "address"
        },
        {
          "internalType": "address",
          "name": "to",
          "type": "address"
        },
        {
          "internalType": "uint256",
          "name": "tokenId",
          "type": "uint256"
        }
      ],
      "name": "transferFrom",
      "outputs": [],
      "stateMutability": "nonpayable",
      "type": "function"
    },
    {
      "inputs": [],
      "name": "website",
      "outputs": [
        {
          "internalType": "string",
          "name": "",
          "type": "string"
        }
      ],
      "stateMutability": "view",
      "type": "function"
    },
    {
      "inputs": [],
      "name": "withdraw",
      "outputs": [],
      "stateMutability": "nonpayable",
      "type": "function"
    }
  ],
  "bytecode": "0x60806040526103e8600d556040518060600160405280602281526020016200580860229139601290805190602001906200003b9291906200069e565b50737a832c86002323a5de3a317b3281eb88ec3b2c00601360006101000a81548173ffffffffffffffffffffffffffffffffffffffff021916908373ffffffffffffffffffffffffffffffffffffffff1602179055506000601460006101000a81548173ffffffffffffffffffffffffffffffffffffffff021916908373ffffffffffffffffffffffffffffffffffffffff16021790555060006015556040518060400160405280600481526020017f66696e650000000000000000000000000000000000000000000000000000000081525060169080519060200190620001259291906200069e565b506040518060400160405280601581526020017f612073616d706c65204e465420666f722046494e45000000000000000000000081525060179080519060200190620001739291906200069e565b506040518060400160405280601881526020017f68747470733a2f2f6170692e66696e652e6469676974616c000000000000000081525060189080519060200190620001c19291906200069e565b506040518060400160405280600381526020017f4d49540000000000000000000000000000000000000000000000000000000000815250601990805190602001906200020f9291906200069e565b503480156200021d57600080fd5b506040516200582a3803806200582a833981810160405281019062000243919062000765565b6040518060400160405280600c81526020017f46494e45204469676974616c00000000000000000000000000000000000000008152506040518060400160405280600481526020017f46494e45000000000000000000000000000000000000000000000000000000008152508160029080519060200190620002c79291906200069e565b508060039080519060200190620002e09291906200069e565b505050620002f86000801b336200038c60201b60201c565b6200032a7f9f2df0fed2c77648de5860a4cc508cd0818c85b8b8a1ab4ceeef8d981c8956a6336200038c60201b60201c565b80600e60006101000a81548173ffffffffffffffffffffffffffffffffffffffff021916908373ffffffffffffffffffffffffffffffffffffffff16021790555060006102ee90506200038430826200047e60201b60201c565b50506200095f565b6200039e82826200062160201b60201c565b6200047a576001600c600084815260200190815260200160002060000160008373ffffffffffffffffffffffffffffffffffffffff1673ffffffffffffffffffffffffffffffffffffffff16815260200190815260200160002060006101000a81548160ff0219169083151502179055506200041f6200068c60201b60201c565b73ffffffffffffffffffffffffffffffffffffffff168173ffffffffffffffffffffffffffffffffffffffff16837f2f8788117e7eff1d82e926ec794901d17c78024a50270940304540a733656f0d60405160405180910390a45b5050565b6200048e6200069460201b60201c565b6bffffffffffffffffffffffff16816bffffffffffffffffffffffff161115620004ef576040517f08c379a0000000000000000000000000000000000000000000000000000000008152600401620004e690620007df565b60405180910390fd5b600073ffffffffffffffffffffffffffffffffffffffff168273ffffffffffffffffffffffffffffffffffffffff16141562000562576040517f08c379a0000000000000000000000000000000000000000000000000000000008152600401620005599062000801565b60405180910390fd5b60405180604001604052808373ffffffffffffffffffffffffffffffffffffffff168152602001826bffffffffffffffffffffffff168152506000808201518160000160006101000a81548173ffffffffffffffffffffffffffffffffffffffff021916908373ffffffffffffffffffffffffffffffffffffffff16021790555060208201518160000160146101000a8154816bffffffffffffffffffffffff02191690836bffffffffffffffffffffffff1602179055509050505050565b6000600c600084815260200190815260200160002060000160008373ffffffffffffffffffffffffffffffffffffffff1673ffffffffffffffffffffffffffffffffffffffff16815260200190815260200160002060009054906101000a900460ff16905092915050565b600033905090565b6000612710905090565b828054620006ac9062000868565b90600052602060002090601f016020900481019282620006d057600085556200071c565b82601f10620006eb57805160ff19168380011785556200071c565b828001600101855582156200071c579182015b828111156200071b578251825591602001919060010190620006fe565b5b5090506200072b91906200072f565b5090565b5b808211156200074a57600081600090555060010162000730565b5090565b6000815190506200075f8162000945565b92915050565b6000602082840312156200077857600080fd5b600062000788848285016200074e565b91505092915050565b6000620007a0602a8362000823565b9150620007ad82620008cd565b604082019050919050565b6000620007c760198362000823565b9150620007d4826200091c565b602082019050919050565b60006020820190508181036000830152620007fa8162000791565b9050919050565b600060208201905081810360008301526200081c81620007b8565b9050919050565b600082825260208201905092915050565b6000620008418262000848565b9050919050565b600073ffffffffffffffffffffffffffffffffffffffff82169050919050565b600060028204905060018216806200088157607f821691505b602082108114156200089857620008976200089e565b5b50919050565b7f4e487b7100000000000000000000000000000000000000000000000000000000600052602260045260246000fd5b7f455243323938313a20726f79616c7479206665652077696c6c2065786365656460008201527f2073616c65507269636500000000000000000000000000000000000000000000602082015250565b7f455243323938313a20696e76616c696420726563656976657200000000000000600082015250565b620009508162000834565b81146200095c57600080fd5b50565b614e99806200096f6000396000f3fe608060405234801561001057600080fd5b506004361061028a5760003560e01c806355f804b31161015c57806391d14854116100ce578063c87b56dd11610087578063c87b56dd146107ee578063d53913931461081e578063d547741f1461083c578063d7eb3f3a14610858578063e985e9c514610876578063f87f44b9146108a65761028a565b806391d148541461072c57806395d89b411461075c578063a217fddf1461077a578063a22cb46514610798578063b88d4fde146107b4578063beb0a416146107d05761028a565b80636ff314c7116101205780636ff314c71461066a57806370a082311461068857806371199d30146106b85780637284e416146106d45780638cbe8d80146106f257806390c3f38f146107105761028a565b806355f804b3146105b257806359748cb2146105ce5780636352211e146105ec5780636a6278421461061c5780636b87d24c1461064c5761028a565b80632cc889741161020057806340138ff1116101b957806340138ff1146104de57806342842e0e146104fc57806342966c681461051857806343bc1612146105345780634f6ccce714610552578063501895ae146105825761028a565b80632cc88974146104305780632f2ff15d1461044e5780632f745c591461046a57806336568abe1461049a5780633ccfd60b146104b65780633fafa127146104c05761028a565b8063095ea7b311610252578063095ea7b31461035b57806318160ddd1461037757806323b872dd14610395578063248a9ca3146103b157806328485586146103e15780632a55205a146103ff5761028a565b806301ffc9a71461028f578063031bd4c4146102bf57806306fdde03146102dd578063081812fc146102fb57806308ff7f611461032b575b600080fd5b6102a960048036038101906102a49190613a4a565b6108c2565b6040516102b691906140c0565b60405180910390f35b6102c76108d4565b6040516102d49190614398565b60405180910390f35b6102e56108da565b6040516102f291906140f6565b60405180910390f35b61031560048036038101906103109190613ae1565b61096c565b6040516103229190614015565b60405180910390f35b61034560048036038101906103409190613ae1565b6109f1565b60405161035291906140f6565b60405180910390f35b610375600480360381019061037091906139a9565b610a91565b005b61037f610ba9565b60405161038c9190614398565b60405180910390f35b6103af60048036038101906103aa91906138a3565b610bb6565b005b6103cb60048036038101906103c691906139e5565b610c16565b6040516103d891906140db565b60405180910390f35b6103e9610c36565b6040516103f69190614398565b60405180910390f35b61041960048036038101906104149190613b8b565b610c40565b604051610427929190614097565b60405180910390f35b610438610e2b565b6040516104459190614398565b60405180910390f35b61046860048036038101906104639190613a0e565b610e35565b005b610484600480360381019061047f91906139a9565b610e5e565b6040516104919190614398565b60405180910390f35b6104b460048036038101906104af9190613a0e565b610f03565b005b6104be610f86565b005b6104c8610feb565b6040516104d59190614398565b60405180910390f35b6104e661109d565b6040516104f39190614398565b60405180910390f35b610516600480360381019061051191906138a3565b6110a3565b005b610532600480360381019061052d9190613ae1565b6110c3565b005b61053c61111f565b60405161054991906140f6565b60405180910390f35b61056c60048036038101906105679190613ae1565b6111ad565b6040516105799190614398565b60405180910390f35b61059c60048036038101906105979190613ae1565b611244565b6040516105a99190614398565b60405180910390f35b6105cc60048036038101906105c79190613a9c565b61125c565b005b6105d6611288565b6040516105e39190614030565b60405180910390f35b61060660048036038101906106019190613ae1565b6112ae565b6040516106139190614015565b60405180910390f35b6106366004803603810190610631919061383e565b611360565b6040516106439190614398565b60405180910390f35b6106546114c2565b60405161066191906140f6565b60405180910390f35b610672611550565b60405161067f9190614030565b60405180910390f35b6106a2600480360381019061069d919061383e565b61157a565b6040516106af9190614398565b60405180910390f35b6106d260048036038101906106cd9190613b33565b611632565b005b6106dc611670565b6040516106e991906140f6565b60405180910390f35b6106fa6116fe565b6040516107079190614030565b60405180910390f35b61072a60048036038101906107259190613a9c565b611728565b005b61074660048036038101906107419190613a0e565b611754565b60405161075391906140c0565b60405180910390f35b6107646117bf565b60405161077191906140f6565b60405180910390f35b610782611851565b60405161078f91906140db565b60405180910390f35b6107b260048036038101906107ad919061396d565b611858565b005b6107ce60048036038101906107c991906138f2565b61186e565b005b6107d86118d0565b6040516107e591906140f6565b60405180910390f35b61080860048036038101906108039190613ae1565b61195e565b60405161081591906140f6565b60405180910390f35b610826611a05565b60405161083391906140db565b60405180910390f35b61085660048036038101906108519190613a0e565b611a29565b005b610860611a52565b60405161086d9190614030565b60405180910390f35b610890600480360381019061088b9190613867565b611a78565b60405161089d91906140c0565b60405180910390f35b6108c060048036038101906108bb9190613a9c565b611b0c565b005b60006108cd82611b38565b9050919050565b600d5481565b6060600280546108e990614686565b80601f016020809104026020016040519081016040528092919081815260200182805461091590614686565b80156109625780601f1061093757610100808354040283529160200191610962565b820191906000526020600020905b81548152906001019060200180831161094557829003601f168201915b5050505050905090565b600061097782611bb2565b6109b6576040517f08c379a00000000000000000000000000000000000000000000000000000000081526004016109ad90614298565b60405180910390fd5b6006600083815260200190815260200160002060009054906101000a900473ffffffffffffffffffffffffffffffffffffffff169050919050565b60116020528060005260406000206000915090508054610a1090614686565b80601f0160208091040260200160405190810160405280929190818152602001828054610a3c90614686565b8015610a895780601f10610a5e57610100808354040283529160200191610a89565b820191906000526020600020905b815481529060010190602001808311610a6c57829003601f168201915b505050505081565b6000610a9c826112ae565b90508073ffffffffffffffffffffffffffffffffffffffff168373ffffffffffffffffffffffffffffffffffffffff161415610b0d576040517f08c379a0000000000000000000000000000000000000000000000000000000008152600401610b04906142d8565b60405180910390fd5b8073ffffffffffffffffffffffffffffffffffffffff16610b2c611c1e565b73ffffffffffffffffffffffffffffffffffffffff161480610b5b5750610b5a81610b55611c1e565b611a78565b5b610b9a576040517f08c379a0000000000000000000000000000000000000000000000000000000008152600401610b9190614218565b60405180910390fd5b610ba48383611c26565b505050565b6000600a80549050905090565b610bc7610bc1611c1e565b82611cdf565b610c06576040517f08c379a0000000000000000000000000000000000000000000000000000000008152600401610bfd906142f8565b60405180910390fd5b610c11838383611dbd565b505050565b6000600c6000838152602001908152602001600020600101549050919050565b6000600d54905090565b6000806000600160008681526020019081526020016000206040518060400160405290816000820160009054906101000a900473ffffffffffffffffffffffffffffffffffffffff1673ffffffffffffffffffffffffffffffffffffffff1673ffffffffffffffffffffffffffffffffffffffff1681526020016000820160149054906101000a90046bffffffffffffffffffffffff166bffffffffffffffffffffffff166bffffffffffffffffffffffff16815250509050600073ffffffffffffffffffffffffffffffffffffffff16816000015173ffffffffffffffffffffffffffffffffffffffff161415610dd65760006040518060400160405290816000820160009054906101000a900473ffffffffffffffffffffffffffffffffffffffff1673ffffffffffffffffffffffffffffffffffffffff1673ffffffffffffffffffffffffffffffffffffffff1681526020016000820160149054906101000a90046bffffffffffffffffffffffff166bffffffffffffffffffffffff166bffffffffffffffffffffffff168152505090505b6000610de0612024565b6bffffffffffffffffffffffff1682602001516bffffffffffffffffffffffff1686610e0c91906144fc565b610e1691906144cb565b90508160000151819350935050509250929050565b6000601554905090565b610e3e82610c16565b610e4f81610e4a611c1e565b61202e565b610e5983836120cb565b505050565b6000610e698361157a565b8210610eaa576040517f08c379a0000000000000000000000000000000000000000000000000000000008152600401610ea190614138565b60405180910390fd5b600860008473ffffffffffffffffffffffffffffffffffffffff1673ffffffffffffffffffffffffffffffffffffffff168152602001908152602001600020600083815260200190815260200160002054905092915050565b610f0b611c1e565b73ffffffffffffffffffffffffffffffffffffffff168173ffffffffffffffffffffffffffffffffffffffff1614610f78576040517f08c379a0000000000000000000000000000000000000000000000000000000008152600401610f6f90614378565b60405180910390fd5b610f8282826121ac565b5050565b6000801b610f9b81610f96611c1e565b61202e565b60003390508073ffffffffffffffffffffffffffffffffffffffff166108fc479081150290604051600060405180830381858888f19350505050158015610fe6573d6000803e3d6000fd5b505050565b6000600e60009054906101000a900473ffffffffffffffffffffffffffffffffffffffff1673ffffffffffffffffffffffffffffffffffffffff1663aee233b3306040518263ffffffff1660e01b81526004016110489190614015565b60206040518083038186803b15801561106057600080fd5b505afa158015611074573d6000803e3d6000fd5b505050506040513d601f19601f820116820180604052508101906110989190613b0a565b905090565b60155481565b6110be8383836040518060200160405280600081525061186e565b505050565b6110d46110ce611c1e565b82611cdf565b611113576040517f08c379a000000000000000000000000000000000000000000000000000000000815260040161110a90614358565b60405180910390fd5b61111c8161228e565b50565b6016805461112c90614686565b80601f016020809104026020016040519081016040528092919081815260200182805461115890614686565b80156111a55780601f1061117a576101008083540402835291602001916111a5565b820191906000526020600020905b81548152906001019060200180831161118857829003601f168201915b505050505081565b60006111b7610ba9565b82106111f8576040517f08c379a00000000000000000000000000000000000000000000000000000000081526004016111ef90614318565b60405180910390fd5b600a8281548110611232577f4e487b7100000000000000000000000000000000000000000000000000000000600052603260045260246000fd5b90600052602060002001549050919050565b60106020528060005260406000206000915090505481565b6000801b6112718161126c611c1e565b61202e565b828260129190611282929190613656565b50505050565b601460009054906101000a900473ffffffffffffffffffffffffffffffffffffffff1681565b6000806004600084815260200190815260200160002060009054906101000a900473ffffffffffffffffffffffffffffffffffffffff169050600073ffffffffffffffffffffffffffffffffffffffff168173ffffffffffffffffffffffffffffffffffffffff161415611357576040517f08c379a000000000000000000000000000000000000000000000000000000000815260040161134e90614258565b60405180910390fd5b80915050919050565b60007f9f2df0fed2c77648de5860a4cc508cd0818c85b8b8a1ab4ceeef8d981c8956a66113948161138f611c1e565b61202e565b61139e600f61229a565b9150600d5482106113e4576040517f08c379a00000000000000000000000000000000000000000000000000000000081526004016113db90614338565b60405180910390fd5b6113ee600f6122a8565b6113f883836122be565b600e60009054906101000a900473ffffffffffffffffffffffffffffffffffffffff1673ffffffffffffffffffffffffffffffffffffffff166329e5d83183426040518363ffffffff1660e01b81526004016114559291906143b3565b60206040518083038186803b15801561146d57600080fd5b505afa158015611481573d6000803e3d6000fd5b505050506040513d601f19601f820116820180604052508101906114a59190613b0a565b601060008481526020019081526020016000208190555050919050565b601980546114cf90614686565b80601f01602080910402602001604051908101604052809291908181526020018280546114fb90614686565b80156115485780601f1061151d57610100808354040283529160200191611548565b820191906000526020600020905b81548152906001019060200180831161152b57829003601f168201915b505050505081565b6000601460009054906101000a900473ffffffffffffffffffffffffffffffffffffffff16905090565b60008073ffffffffffffffffffffffffffffffffffffffff168273ffffffffffffffffffffffffffffffffffffffff1614156115eb576040517f08c379a00000000000000000000000000000000000000000000000000000000081526004016115e290614238565b60405180910390fd5b600560008373ffffffffffffffffffffffffffffffffffffffff1673ffffffffffffffffffffffffffffffffffffffff168152602001908152602001600020549050919050565b6000801b61164781611642611c1e565b61202e565b8282601160008781526020019081526020016000209190611669929190613656565b5050505050565b6017805461167d90614686565b80601f01602080910402602001604051908101604052809291908181526020018280546116a990614686565b80156116f65780601f106116cb576101008083540402835291602001916116f6565b820191906000526020600020905b8154815290600101906020018083116116d957829003601f168201915b505050505081565b6000601360009054906101000a900473ffffffffffffffffffffffffffffffffffffffff16905090565b6000801b61173d81611738611c1e565b61202e565b82826017919061174e929190613656565b50505050565b6000600c600084815260200190815260200160002060000160008373ffffffffffffffffffffffffffffffffffffffff1673ffffffffffffffffffffffffffffffffffffffff16815260200190815260200160002060009054906101000a900460ff16905092915050565b6060600380546117ce90614686565b80601f01602080910402602001604051908101604052809291908181526020018280546117fa90614686565b80156118475780601f1061181c57610100808354040283529160200191611847565b820191906000526020600020905b81548152906001019060200180831161182a57829003601f168201915b5050505050905090565b6000801b81565b61186a611863611c1e565b83836122dc565b5050565b61187f611879611c1e565b83611cdf565b6118be576040517f08c379a00000000000000000000000000000000000000000000000000000000081526004016118b5906142f8565b60405180910390fd5b6118ca84848484612449565b50505050565b601880546118dd90614686565b80601f016020809104026020016040519081016040528092919081815260200182805461190990614686565b80156119565780601f1061192b57610100808354040283529160200191611956565b820191906000526020600020905b81548152906001019060200180831161193957829003601f168201915b505050505081565b606061196982611bb2565b6119a8576040517f08c379a000000000000000000000000000000000000000000000000000000000815260040161199f906142b8565b60405180910390fd5b60006119b26124a5565b905060008151116119d257604051806020016040528060008152506119fd565b806119dc84612537565b6040516020016119ed929190613fb7565b6040516020818303038152906040525b915050919050565b7f9f2df0fed2c77648de5860a4cc508cd0818c85b8b8a1ab4ceeef8d981c8956a681565b611a3282610c16565b611a4381611a3e611c1e565b61202e565b611a4d83836121ac565b505050565b601360009054906101000a900473ffffffffffffffffffffffffffffffffffffffff1681565b6000600760008473ffffffffffffffffffffffffffffffffffffffff1673ffffffffffffffffffffffffffffffffffffffff16815260200190815260200160002060008373ffffffffffffffffffffffffffffffffffffffff1673ffffffffffffffffffffffffffffffffffffffff16815260200190815260200160002060009054906101000a900460ff16905092915050565b6000801b611b2181611b1c611c1e565b61202e565b828260189190611b32929190613656565b50505050565b60007f7965db0b000000000000000000000000000000000000000000000000000000007bffffffffffffffffffffffffffffffffffffffffffffffffffffffff1916827bffffffffffffffffffffffffffffffffffffffffffffffffffffffff19161480611bab5750611baa826126e4565b5b9050919050565b60008073ffffffffffffffffffffffffffffffffffffffff166004600084815260200190815260200160002060009054906101000a900473ffffffffffffffffffffffffffffffffffffffff1673ffffffffffffffffffffffffffffffffffffffff1614159050919050565b600033905090565b816006600083815260200190815260200160002060006101000a81548173ffffffffffffffffffffffffffffffffffffffff021916908373ffffffffffffffffffffffffffffffffffffffff160217905550808273ffffffffffffffffffffffffffffffffffffffff16611c99836112ae565b73ffffffffffffffffffffffffffffffffffffffff167f8c5be1e5ebec7d5bd14f71427d1e84f3dd0314c0f7b2291e5b200ac8c7c3b92560405160405180910390a45050565b6000611cea82611bb2565b611d29576040517f08c379a0000000000000000000000000000000000000000000000000000000008152600401611d20906141f8565b60405180910390fd5b6000611d34836112ae565b90508073ffffffffffffffffffffffffffffffffffffffff168473ffffffffffffffffffffffffffffffffffffffff161480611da357508373ffffffffffffffffffffffffffffffffffffffff16611d8b8461096c565b73ffffffffffffffffffffffffffffffffffffffff16145b80611db45750611db38185611a78565b5b91505092915050565b8273ffffffffffffffffffffffffffffffffffffffff16611ddd826112ae565b73ffffffffffffffffffffffffffffffffffffffff1614611e33576040517f08c379a0000000000000000000000000000000000000000000000000000000008152600401611e2a90614178565b60405180910390fd5b600073ffffffffffffffffffffffffffffffffffffffff168273ffffffffffffffffffffffffffffffffffffffff161415611ea3576040517f08c379a0000000000000000000000000000000000000000000000000000000008152600401611e9a906141b8565b60405180910390fd5b611eae8383836126f6565b611eb9600082611c26565b6001600560008573ffffffffffffffffffffffffffffffffffffffff1673ffffffffffffffffffffffffffffffffffffffff1681526020019081526020016000206000828254611f099190614556565b925050819055506001600560008473ffffffffffffffffffffffffffffffffffffffff1673ffffffffffffffffffffffffffffffffffffffff1681526020019081526020016000206000828254611f609190614475565b92505081905550816004600083815260200190815260200160002060006101000a81548173ffffffffffffffffffffffffffffffffffffffff021916908373ffffffffffffffffffffffffffffffffffffffff160217905550808273ffffffffffffffffffffffffffffffffffffffff168473ffffffffffffffffffffffffffffffffffffffff167fddf252ad1be2c89b69c2b068fc378daa952ba7f163c4a11628f55a4df523b3ef60405160405180910390a461201f838383612706565b505050565b6000612710905090565b6120388282611754565b6120c75761205d8173ffffffffffffffffffffffffffffffffffffffff16601461270b565b61206b8360001c602061270b565b60405160200161207c929190613fdb565b6040516020818303038152906040526040517f08c379a00000000000000000000000000000000000000000000000000000000081526004016120be91906140f6565b60405180910390fd5b5050565b6120d58282611754565b6121a8576001600c600084815260200190815260200160002060000160008373ffffffffffffffffffffffffffffffffffffffff1673ffffffffffffffffffffffffffffffffffffffff16815260200190815260200160002060006101000a81548160ff02191690831515021790555061214d611c1e565b73ffffffffffffffffffffffffffffffffffffffff168173ffffffffffffffffffffffffffffffffffffffff16837f2f8788117e7eff1d82e926ec794901d17c78024a50270940304540a733656f0d60405160405180910390a45b5050565b6121b68282611754565b1561228a576000600c600084815260200190815260200160002060000160008373ffffffffffffffffffffffffffffffffffffffff1673ffffffffffffffffffffffffffffffffffffffff16815260200190815260200160002060006101000a81548160ff02191690831515021790555061222f611c1e565b73ffffffffffffffffffffffffffffffffffffffff168173ffffffffffffffffffffffffffffffffffffffff16837ff6391f5c32d9c69d2a47ea670b442974b53935d1edc7fd64eb21e047a839171b60405160405180910390a45b5050565b61229781612a05565b50565b600081600001549050919050565b6001816000016000828254019250508190555050565b6122d8828260405180602001604052806000815250612a1a565b5050565b8173ffffffffffffffffffffffffffffffffffffffff168373ffffffffffffffffffffffffffffffffffffffff16141561234b576040517f08c379a0000000000000000000000000000000000000000000000000000000008152600401612342906141d8565b60405180910390fd5b80600760008573ffffffffffffffffffffffffffffffffffffffff1673ffffffffffffffffffffffffffffffffffffffff16815260200190815260200160002060008473ffffffffffffffffffffffffffffffffffffffff1673ffffffffffffffffffffffffffffffffffffffff16815260200190815260200160002060006101000a81548160ff0219169083151502179055508173ffffffffffffffffffffffffffffffffffffffff168373ffffffffffffffffffffffffffffffffffffffff167f17307eab39ab6107e8899845ad3d59bd9653f200f220920489ca2b5937696c318360405161243c91906140c0565b60405180910390a3505050565b612454848484611dbd565b61246084848484612a75565b61249f576040517f08c379a000000000000000000000000000000000000000000000000000000000815260040161249690614158565b60405180910390fd5b50505050565b6060601280546124b490614686565b80601f01602080910402602001604051908101604052809291908181526020018280546124e090614686565b801561252d5780601f106125025761010080835404028352916020019161252d565b820191906000526020600020905b81548152906001019060200180831161251057829003601f168201915b5050505050905090565b6060600082141561257f576040518060400160405280600181526020017f300000000000000000000000000000000000000000000000000000000000000081525090506126df565b600082905060005b600082146125b157808061259a906146e9565b915050600a826125aa91906144cb565b9150612587565b60008167ffffffffffffffff8111156125f3577f4e487b7100000000000000000000000000000000000000000000000000000000600052604160045260246000fd5b6040519080825280601f01601f1916602001820160405280156126255781602001600182028036833780820191505090505b5090505b600085146126d85760018261263e9190614556565b9150600a8561264d9190614732565b60306126599190614475565b60f81b818381518110612695577f4e487b7100000000000000000000000000000000000000000000000000000000600052603260045260246000fd5b60200101907effffffffffffffffffffffffffffffffffffffffffffffffffffffffffffff1916908160001a905350600a856126d191906144cb565b9450612629565b8093505050505b919050565b60006126ef82612c0c565b9050919050565b612701838383612c86565b505050565b505050565b60606000600283600261271e91906144fc565b6127289190614475565b67ffffffffffffffff811115612767577f4e487b7100000000000000000000000000000000000000000000000000000000600052604160045260246000fd5b6040519080825280601f01601f1916602001820160405280156127995781602001600182028036833780820191505090505b5090507f3000000000000000000000000000000000000000000000000000000000000000816000815181106127f7577f4e487b7100000000000000000000000000000000000000000000000000000000600052603260045260246000fd5b60200101907effffffffffffffffffffffffffffffffffffffffffffffffffffffffffffff1916908160001a9053507f780000000000000000000000000000000000000000000000000000000000000081600181518110612881577f4e487b7100000000000000000000000000000000000000000000000000000000600052603260045260246000fd5b60200101907effffffffffffffffffffffffffffffffffffffffffffffffffffffffffffff1916908160001a905350600060018460026128c191906144fc565b6128cb9190614475565b90505b60018111156129b7577f3031323334353637383961626364656600000000000000000000000000000000600f861660108110612933577f4e487b7100000000000000000000000000000000000000000000000000000000600052603260045260246000fd5b1a60f81b828281518110612970577f4e487b7100000000000000000000000000000000000000000000000000000000600052603260045260246000fd5b60200101907effffffffffffffffffffffffffffffffffffffffffffffffffffffffffffff1916908160001a905350600485901c9450806129b09061465c565b90506128ce565b50600084146129fb576040517f08c379a00000000000000000000000000000000000000000000000000000000081526004016129f290614118565b60405180910390fd5b8091505092915050565b612a0e81612d9a565b612a1781612eb7565b50565b612a248383612f16565b612a316000848484612a75565b612a70576040517f08c379a0000000000000000000000000000000000000000000000000000000008152600401612a6790614158565b60405180910390fd5b505050565b6000612a968473ffffffffffffffffffffffffffffffffffffffff166130f0565b15612bff578373ffffffffffffffffffffffffffffffffffffffff1663150b7a02612abf611c1e565b8786866040518563ffffffff1660e01b8152600401612ae1949392919061404b565b602060405180830381600087803b158015612afb57600080fd5b505af1925050508015612b2c57506040513d601f19601f82011682018060405250810190612b299190613a73565b60015b612baf573d8060008114612b5c576040519150601f19603f3d011682016040523d82523d6000602084013e612b61565b606091505b50600081511415612ba7576040517f08c379a0000000000000000000000000000000000000000000000000000000008152600401612b9e90614158565b60405180910390fd5b805181602001fd5b63150b7a0260e01b7bffffffffffffffffffffffffffffffffffffffffffffffffffffffff1916817bffffffffffffffffffffffffffffffffffffffffffffffffffffffff191614915050612c04565b600190505b949350505050565b60007f780e9d63000000000000000000000000000000000000000000000000000000007bffffffffffffffffffffffffffffffffffffffffffffffffffffffff1916827bffffffffffffffffffffffffffffffffffffffffffffffffffffffff19161480612c7f5750612c7e82613113565b5b9050919050565b612c918383836131f5565b600073ffffffffffffffffffffffffffffffffffffffff168373ffffffffffffffffffffffffffffffffffffffff161415612cd457612ccf816131fa565b612d13565b8173ffffffffffffffffffffffffffffffffffffffff168373ffffffffffffffffffffffffffffffffffffffff1614612d1257612d118382613243565b5b5b600073ffffffffffffffffffffffffffffffffffffffff168273ffffffffffffffffffffffffffffffffffffffff161415612d5657612d51816133b0565b612d95565b8273ffffffffffffffffffffffffffffffffffffffff168273ffffffffffffffffffffffffffffffffffffffff1614612d9457612d9382826134f3565b5b5b505050565b6000612da5826112ae565b9050612db3816000846126f6565b612dbe600083611c26565b6001600560008373ffffffffffffffffffffffffffffffffffffffff1673ffffffffffffffffffffffffffffffffffffffff1681526020019081526020016000206000828254612e0e9190614556565b925050819055506004600083815260200190815260200160002060006101000a81549073ffffffffffffffffffffffffffffffffffffffff021916905581600073ffffffffffffffffffffffffffffffffffffffff168273ffffffffffffffffffffffffffffffffffffffff167fddf252ad1be2c89b69c2b068fc378daa952ba7f163c4a11628f55a4df523b3ef60405160405180910390a4612eb381600084612706565b5050565b60016000828152602001908152602001600020600080820160006101000a81549073ffffffffffffffffffffffffffffffffffffffff02191690556000820160146101000a8154906bffffffffffffffffffffffff0219169055505050565b600073ffffffffffffffffffffffffffffffffffffffff168273ffffffffffffffffffffffffffffffffffffffff161415612f86576040517f08c379a0000000000000000000000000000000000000000000000000000000008152600401612f7d90614278565b60405180910390fd5b612f8f81611bb2565b15612fcf576040517f08c379a0000000000000000000000000000000000000000000000000000000008152600401612fc690614198565b60405180910390fd5b612fdb600083836126f6565b6001600560008473ffffffffffffffffffffffffffffffffffffffff1673ffffffffffffffffffffffffffffffffffffffff168152602001908152602001600020600082825461302b9190614475565b92505081905550816004600083815260200190815260200160002060006101000a81548173ffffffffffffffffffffffffffffffffffffffff021916908373ffffffffffffffffffffffffffffffffffffffff160217905550808273ffffffffffffffffffffffffffffffffffffffff16600073ffffffffffffffffffffffffffffffffffffffff167fddf252ad1be2c89b69c2b068fc378daa952ba7f163c4a11628f55a4df523b3ef60405160405180910390a46130ec60008383612706565b5050565b6000808273ffffffffffffffffffffffffffffffffffffffff163b119050919050565b60007f80ac58cd000000000000000000000000000000000000000000000000000000007bffffffffffffffffffffffffffffffffffffffffffffffffffffffff1916827bffffffffffffffffffffffffffffffffffffffffffffffffffffffff191614806131de57507f5b5e139f000000000000000000000000000000000000000000000000000000007bffffffffffffffffffffffffffffffffffffffffffffffffffffffff1916827bffffffffffffffffffffffffffffffffffffffffffffffffffffffff1916145b806131ee57506131ed82613572565b5b9050919050565b505050565b600a80549050600b600083815260200190815260200160002081905550600a81908060018154018082558091505060019003906000526020600020016000909190919091505550565b600060016132508461157a565b61325a9190614556565b905060006009600084815260200190815260200160002054905081811461333f576000600860008673ffffffffffffffffffffffffffffffffffffffff1673ffffffffffffffffffffffffffffffffffffffff168152602001908152602001600020600084815260200190815260200160002054905080600860008773ffffffffffffffffffffffffffffffffffffffff1673ffffffffffffffffffffffffffffffffffffffff168152602001908152602001600020600084815260200190815260200160002081905550816009600083815260200190815260200160002081905550505b6009600084815260200190815260200160002060009055600860008573ffffffffffffffffffffffffffffffffffffffff1673ffffffffffffffffffffffffffffffffffffffff16815260200190815260200160002060008381526020019081526020016000206000905550505050565b60006001600a805490506133c49190614556565b90506000600b60008481526020019081526020016000205490506000600a838154811061341a577f4e487b7100000000000000000000000000000000000000000000000000000000600052603260045260246000fd5b9060005260206000200154905080600a8381548110613462577f4e487b7100000000000000000000000000000000000000000000000000000000600052603260045260246000fd5b906000526020600020018190555081600b600083815260200190815260200160002081905550600b600085815260200190815260200160002060009055600a8054806134d7577f4e487b7100000000000000000000000000000000000000000000000000000000600052603160045260246000fd5b6001900381819060005260206000200160009055905550505050565b60006134fe8361157a565b905081600860008573ffffffffffffffffffffffffffffffffffffffff1673ffffffffffffffffffffffffffffffffffffffff168152602001908152602001600020600083815260200190815260200160002081905550806009600084815260200190815260200160002081905550505050565b60007f2a55205a000000000000000000000000000000000000000000000000000000007bffffffffffffffffffffffffffffffffffffffffffffffffffffffff1916827bffffffffffffffffffffffffffffffffffffffffffffffffffffffff191614806135e557506135e4826135ec565b5b9050919050565b60007f01ffc9a7000000000000000000000000000000000000000000000000000000007bffffffffffffffffffffffffffffffffffffffffffffffffffffffff1916827bffffffffffffffffffffffffffffffffffffffffffffffffffffffff1916149050919050565b82805461366290614686565b90600052602060002090601f01602090048101928261368457600085556136cb565b82601f1061369d57803560ff19168380011785556136cb565b828001600101855582156136cb579182015b828111156136ca5782358255916020019190600101906136af565b5b5090506136d891906136dc565b5090565b5b808211156136f55760008160009055506001016136dd565b5090565b600061370c61370784614401565b6143dc565b90508281526020810184848401111561372457600080fd5b61372f84828561461a565b509392505050565b60008135905061374681614df0565b92915050565b60008135905061375b81614e07565b92915050565b60008135905061377081614e1e565b92915050565b60008135905061378581614e35565b92915050565b60008151905061379a81614e35565b92915050565b600082601f8301126137b157600080fd5b81356137c18482602086016136f9565b91505092915050565b60008083601f8401126137dc57600080fd5b8235905067ffffffffffffffff8111156137f557600080fd5b60208301915083600182028301111561380d57600080fd5b9250929050565b60008135905061382381614e4c565b92915050565b60008151905061383881614e4c565b92915050565b60006020828403121561385057600080fd5b600061385e84828501613737565b91505092915050565b6000806040838503121561387a57600080fd5b600061388885828601613737565b925050602061389985828601613737565b9150509250929050565b6000806000606084860312156138b857600080fd5b60006138c686828701613737565b93505060206138d786828701613737565b92505060406138e886828701613814565b9150509250925092565b6000806000806080858703121561390857600080fd5b600061391687828801613737565b945050602061392787828801613737565b935050604061393887828801613814565b925050606085013567ffffffffffffffff81111561395557600080fd5b613961878288016137a0565b91505092959194509250565b6000806040838503121561398057600080fd5b600061398e85828601613737565b925050602061399f8582860161374c565b9150509250929050565b600080604083850312156139bc57600080fd5b60006139ca85828601613737565b92505060206139db85828601613814565b9150509250929050565b6000602082840312156139f757600080fd5b6000613a0584828501613761565b91505092915050565b60008060408385031215613a2157600080fd5b6000613a2f85828601613761565b9250506020613a4085828601613737565b9150509250929050565b600060208284031215613a5c57600080fd5b6000613a6a84828501613776565b91505092915050565b600060208284031215613a8557600080fd5b6000613a938482850161378b565b91505092915050565b60008060208385031215613aaf57600080fd5b600083013567ffffffffffffffff811115613ac957600080fd5b613ad5858286016137ca565b92509250509250929050565b600060208284031215613af357600080fd5b6000613b0184828501613814565b91505092915050565b600060208284031215613b1c57600080fd5b6000613b2a84828501613829565b91505092915050565b600080600060408486031215613b4857600080fd5b6000613b5686828701613814565b935050602084013567ffffffffffffffff811115613b7357600080fd5b613b7f868287016137ca565b92509250509250925092565b60008060408385031215613b9e57600080fd5b6000613bac85828601613814565b9250506020613bbd85828601613814565b9150509250929050565b613bd08161459c565b82525050565b613bdf8161458a565b82525050565b613bee816145ae565b82525050565b613bfd816145ba565b82525050565b6000613c0e82614432565b613c188185614448565b9350613c28818560208601614629565b613c318161481f565b840191505092915050565b6000613c478261443d565b613c518185614459565b9350613c61818560208601614629565b613c6a8161481f565b840191505092915050565b6000613c808261443d565b613c8a818561446a565b9350613c9a818560208601614629565b80840191505092915050565b6000613cb3602083614459565b9150613cbe82614830565b602082019050919050565b6000613cd6602b83614459565b9150613ce182614859565b604082019050919050565b6000613cf9603283614459565b9150613d04826148a8565b604082019050919050565b6000613d1c602583614459565b9150613d27826148f7565b604082019050919050565b6000613d3f601c83614459565b9150613d4a82614946565b602082019050919050565b6000613d62602483614459565b9150613d6d8261496f565b604082019050919050565b6000613d85601983614459565b9150613d90826149be565b602082019050919050565b6000613da8602c83614459565b9150613db3826149e7565b604082019050919050565b6000613dcb603883614459565b9150613dd682614a36565b604082019050919050565b6000613dee602a83614459565b9150613df982614a85565b604082019050919050565b6000613e11602983614459565b9150613e1c82614ad4565b604082019050919050565b6000613e34602083614459565b9150613e3f82614b23565b602082019050919050565b6000613e57602c83614459565b9150613e6282614b4c565b604082019050919050565b6000613e7a602f83614459565b9150613e8582614b9b565b604082019050919050565b6000613e9d602183614459565b9150613ea882614bea565b604082019050919050565b6000613ec0603183614459565b9150613ecb82614c39565b604082019050919050565b6000613ee3602c83614459565b9150613eee82614c88565b604082019050919050565b6000613f0660178361446a565b9150613f1182614cd7565b601782019050919050565b6000613f29601283614459565b9150613f3482614d00565b602082019050919050565b6000613f4c603083614459565b9150613f5782614d29565b604082019050919050565b6000613f6f60118361446a565b9150613f7a82614d78565b601182019050919050565b6000613f92602f83614459565b9150613f9d82614da1565b604082019050919050565b613fb181614610565b82525050565b6000613fc38285613c75565b9150613fcf8284613c75565b91508190509392505050565b6000613fe682613ef9565b9150613ff28285613c75565b9150613ffd82613f62565b91506140098284613c75565b91508190509392505050565b600060208201905061402a6000830184613bd6565b92915050565b60006020820190506140456000830184613bc7565b92915050565b60006080820190506140606000830187613bd6565b61406d6020830186613bd6565b61407a6040830185613fa8565b818103606083015261408c8184613c03565b905095945050505050565b60006040820190506140ac6000830185613bd6565b6140b96020830184613fa8565b9392505050565b60006020820190506140d56000830184613be5565b92915050565b60006020820190506140f06000830184613bf4565b92915050565b600060208201905081810360008301526141108184613c3c565b905092915050565b6000602082019050818103600083015261413181613ca6565b9050919050565b6000602082019050818103600083015261415181613cc9565b9050919050565b6000602082019050818103600083015261417181613cec565b9050919050565b6000602082019050818103600083015261419181613d0f565b9050919050565b600060208201905081810360008301526141b181613d32565b9050919050565b600060208201905081810360008301526141d181613d55565b9050919050565b600060208201905081810360008301526141f181613d78565b9050919050565b6000602082019050818103600083015261421181613d9b565b9050919050565b6000602082019050818103600083015261423181613dbe565b9050919050565b6000602082019050818103600083015261425181613de1565b9050919050565b6000602082019050818103600083015261427181613e04565b9050919050565b6000602082019050818103600083015261429181613e27565b9050919050565b600060208201905081810360008301526142b181613e4a565b9050919050565b600060208201905081810360008301526142d181613e6d565b9050919050565b600060208201905081810360008301526142f181613e90565b9050919050565b6000602082019050818103600083015261431181613eb3565b9050919050565b6000602082019050818103600083015261433181613ed6565b9050919050565b6000602082019050818103600083015261435181613f1c565b9050919050565b6000602082019050818103600083015261437181613f3f565b9050919050565b6000602082019050818103600083015261439181613f85565b9050919050565b60006020820190506143ad6000830184613fa8565b92915050565b60006040820190506143c86000830185613fa8565b6143d56020830184613fa8565b9392505050565b60006143e66143f7565b90506143f282826146b8565b919050565b6000604051905090565b600067ffffffffffffffff82111561441c5761441b6147f0565b5b6144258261481f565b9050602081019050919050565b600081519050919050565b600081519050919050565b600082825260208201905092915050565b600082825260208201905092915050565b600081905092915050565b600061448082614610565b915061448b83614610565b9250827fffffffffffffffffffffffffffffffffffffffffffffffffffffffffffffffff038211156144c0576144bf614763565b5b828201905092915050565b60006144d682614610565b91506144e183614610565b9250826144f1576144f0614792565b5b828204905092915050565b600061450782614610565b915061451283614610565b9250817fffffffffffffffffffffffffffffffffffffffffffffffffffffffffffffffff048311821515161561454b5761454a614763565b5b828202905092915050565b600061456182614610565b915061456c83614610565b92508282101561457f5761457e614763565b5b828203905092915050565b6000614595826145f0565b9050919050565b60006145a7826145f0565b9050919050565b60008115159050919050565b6000819050919050565b60007fffffffff0000000000000000000000000000000000000000000000000000000082169050919050565b600073ffffffffffffffffffffffffffffffffffffffff82169050919050565b6000819050919050565b82818337600083830152505050565b60005b8381101561464757808201518184015260208101905061462c565b83811115614656576000848401525b50505050565b600061466782614610565b9150600082141561467b5761467a614763565b5b600182039050919050565b6000600282049050600182168061469e57607f821691505b602082108114156146b2576146b16147c1565b5b50919050565b6146c18261481f565b810181811067ffffffffffffffff821117156146e0576146df6147f0565b5b80604052505050565b60006146f482614610565b91507fffffffffffffffffffffffffffffffffffffffffffffffffffffffffffffffff82141561472757614726614763565b5b600182019050919050565b600061473d82614610565b915061474883614610565b92508261475857614757614792565b5b828206905092915050565b7f4e487b7100000000000000000000000000000000000000000000000000000000600052601160045260246000fd5b7f4e487b7100000000000000000000000000000000000000000000000000000000600052601260045260246000fd5b7f4e487b7100000000000000000000000000000000000000000000000000000000600052602260045260246000fd5b7f4e487b7100000000000000000000000000000000000000000000000000000000600052604160045260246000fd5b6000601f19601f8301169050919050565b7f537472696e67733a20686578206c656e67746820696e73756666696369656e74600082015250565b7f455243373231456e756d657261626c653a206f776e657220696e646578206f7560008201527f74206f6620626f756e6473000000000000000000000000000000000000000000602082015250565b7f4552433732313a207472616e7366657220746f206e6f6e20455243373231526560008201527f63656976657220696d706c656d656e7465720000000000000000000000000000602082015250565b7f4552433732313a207472616e736665722066726f6d20696e636f72726563742060008201527f6f776e6572000000000000000000000000000000000000000000000000000000602082015250565b7f4552433732313a20746f6b656e20616c7265616479206d696e74656400000000600082015250565b7f4552433732313a207472616e7366657220746f20746865207a65726f2061646460008201527f7265737300000000000000000000000000000000000000000000000000000000602082015250565b7f4552433732313a20617070726f766520746f2063616c6c657200000000000000600082015250565b7f4552433732313a206f70657261746f7220717565727920666f72206e6f6e657860008201527f697374656e7420746f6b656e0000000000000000000000000000000000000000602082015250565b7f4552433732313a20617070726f76652063616c6c6572206973206e6f74206f7760008201527f6e6572206e6f7220617070726f76656420666f7220616c6c0000000000000000602082015250565b7f4552433732313a2062616c616e636520717565727920666f7220746865207a6560008201527f726f206164647265737300000000000000000000000000000000000000000000602082015250565b7f4552433732313a206f776e657220717565727920666f72206e6f6e657869737460008201527f656e7420746f6b656e0000000000000000000000000000000000000000000000602082015250565b7f4552433732313a206d696e7420746f20746865207a65726f2061646472657373600082015250565b7f4552433732313a20617070726f76656420717565727920666f72206e6f6e657860008201527f697374656e7420746f6b656e0000000000000000000000000000000000000000602082015250565b7f4552433732314d657461646174613a2055524920717565727920666f72206e6f60008201527f6e6578697374656e7420746f6b656e0000000000000000000000000000000000602082015250565b7f4552433732313a20617070726f76616c20746f2063757272656e74206f776e6560008201527f7200000000000000000000000000000000000000000000000000000000000000602082015250565b7f4552433732313a207472616e736665722063616c6c6572206973206e6f74206f60008201527f776e6572206e6f7220617070726f766564000000000000000000000000000000602082015250565b7f455243373231456e756d657261626c653a20676c6f62616c20696e646578206f60008201527f7574206f6620626f756e64730000000000000000000000000000000000000000602082015250565b7f416363657373436f6e74726f6c3a206163636f756e7420000000000000000000600082015250565b7f737570706c792063617020726561636865640000000000000000000000000000600082015250565b7f4552433732314275726e61626c653a2063616c6c6572206973206e6f74206f7760008201527f6e6572206e6f7220617070726f76656400000000000000000000000000000000602082015250565b7f206973206d697373696e6720726f6c6520000000000000000000000000000000600082015250565b7f416363657373436f6e74726f6c3a2063616e206f6e6c792072656e6f756e636560008201527f20726f6c657320666f722073656c660000000000000000000000000000000000602082015250565b614df98161458a565b8114614e0457600080fd5b50565b614e10816145ae565b8114614e1b57600080fd5b50565b614e27816145ba565b8114614e3257600080fd5b50565b614e3e816145c4565b8114614e4957600080fd5b50565b614e5581614610565b8114614e6057600080fd5b5056fea2646970667358221220fb7728277794336dfde381f3c5cdc0c2adb2a638999a66d75a978980dd89dea764736f6c6343000802003368747470733a2f2f6170692e66696e652e6469676974616c2f6d657461646174612f",
  "linkReferences": {},
  "deployedLinkReferences": {}
}