{
  "_format": "hh-sol-artifact-1",
  "contractName": "FineNFT",
  "sourceName": "contracts/FineNFT.sol",
  "abi": [
    {
      "inputs": [
        {
          "internalType": "address",
          "name": "coreAddress",
          "type": "address"
        },
        {
          "internalType": "address",
          "name": "shopAddress",
          "type": "address"
        }
      ],
      "stateMutability": "nonpayable",
      "type": "constructor"
    },
    {
      "anonymous": false,
      "inputs": [
        {
          "indexed": true,
          "internalType": "address",
          "name": "owner",
          "type": "address"
        },
        {
          "indexed": true,
          "internalType": "address",
          "name": "approved",
          "type": "address"
        },
        {
          "indexed": true,
          "internalType": "uint256",
          "name": "tokenId",
          "type": "uint256"
        }
      ],
      "name": "Approval",
      "type": "event"
    },
    {
      "anonymous": false,
      "inputs": [
        {
          "indexed": true,
          "internalType": "address",
          "name": "owner",
          "type": "address"
        },
        {
          "indexed": true,
          "internalType": "address",
          "name": "operator",
          "type": "address"
        },
        {
          "indexed": false,
          "internalType": "bool",
          "name": "approved",
          "type": "bool"
        }
      ],
      "name": "ApprovalForAll",
      "type": "event"
    },
    {
      "anonymous": false,
      "inputs": [
        {
          "indexed": true,
          "internalType": "bytes32",
          "name": "role",
          "type": "bytes32"
        },
        {
          "indexed": true,
          "internalType": "bytes32",
          "name": "previousAdminRole",
          "type": "bytes32"
        },
        {
          "indexed": true,
          "internalType": "bytes32",
          "name": "newAdminRole",
          "type": "bytes32"
        }
      ],
      "name": "RoleAdminChanged",
      "type": "event"
    },
    {
      "anonymous": false,
      "inputs": [
        {
          "indexed": true,
          "internalType": "bytes32",
          "name": "role",
          "type": "bytes32"
        },
        {
          "indexed": true,
          "internalType": "address",
          "name": "account",
          "type": "address"
        },
        {
          "indexed": true,
          "internalType": "address",
          "name": "sender",
          "type": "address"
        }
      ],
      "name": "RoleGranted",
      "type": "event"
    },
    {
      "anonymous": false,
      "inputs": [
        {
          "indexed": true,
          "internalType": "bytes32",
          "name": "role",
          "type": "bytes32"
        },
        {
          "indexed": true,
          "internalType": "address",
          "name": "account",
          "type": "address"
        },
        {
          "indexed": true,
          "internalType": "address",
          "name": "sender",
          "type": "address"
        }
      ],
      "name": "RoleRevoked",
      "type": "event"
    },
    {
      "anonymous": false,
      "inputs": [
        {
          "indexed": true,
          "internalType": "address",
          "name": "from",
          "type": "address"
        },
        {
          "indexed": true,
          "internalType": "address",
          "name": "to",
          "type": "address"
        },
        {
          "indexed": true,
          "internalType": "uint256",
          "name": "tokenId",
          "type": "uint256"
        }
      ],
      "name": "Transfer",
      "type": "event"
    },
    {
      "inputs": [],
      "name": "DEFAULT_ADMIN_ROLE",
      "outputs": [
        {
          "internalType": "bytes32",
          "name": "",
          "type": "bytes32"
        }
      ],
      "stateMutability": "view",
      "type": "function"
    },
    {
      "inputs": [],
      "name": "MINTER_ROLE",
      "outputs": [
        {
          "internalType": "bytes32",
          "name": "",
          "type": "bytes32"
        }
      ],
      "stateMutability": "view",
      "type": "function"
    },
    {
      "inputs": [],
      "name": "TOKEN_LIMIT",
      "outputs": [
        {
          "internalType": "uint256",
          "name": "",
          "type": "uint256"
        }
      ],
      "stateMutability": "view",
      "type": "function"
    },
    {
      "inputs": [],
      "name": "additionalPayee",
      "outputs": [
        {
          "internalType": "address payable",
          "name": "",
          "type": "address"
        }
      ],
      "stateMutability": "view",
      "type": "function"
    },
    {
      "inputs": [],
      "name": "additionalPayeePercentage",
      "outputs": [
        {
          "internalType": "uint256",
          "name": "",
          "type": "uint256"
        }
      ],
      "stateMutability": "view",
      "type": "function"
    },
    {
      "inputs": [
        {
          "internalType": "address",
          "name": "to",
          "type": "address"
        },
        {
          "internalType": "uint256",
          "name": "tokenId",
          "type": "uint256"
        }
      ],
      "name": "approve",
      "outputs": [],
      "stateMutability": "nonpayable",
      "type": "function"
    },
    {
      "inputs": [],
      "name": "artist",
      "outputs": [
        {
          "internalType": "string",
          "name": "",
          "type": "string"
        }
      ],
      "stateMutability": "view",
      "type": "function"
    },
    {
      "inputs": [],
      "name": "artistAddress",
      "outputs": [
        {
          "internalType": "address payable",
          "name": "",
          "type": "address"
        }
      ],
      "stateMutability": "view",
      "type": "function"
    },
    {
      "inputs": [
        {
          "internalType": "uint256",
          "name": "",
          "type": "uint256"
        }
      ],
      "name": "artworkId",
      "outputs": [
        {
          "internalType": "uint256",
          "name": "",
          "type": "uint256"
        }
      ],
      "stateMutability": "view",
      "type": "function"
    },
    {
      "inputs": [
        {
          "internalType": "address",
          "name": "owner",
          "type": "address"
        }
      ],
      "name": "balanceOf",
      "outputs": [
        {
          "internalType": "uint256",
          "name": "",
          "type": "uint256"
        }
      ],
      "stateMutability": "view",
      "type": "function"
    },
    {
      "inputs": [],
      "name": "baseURI",
      "outputs": [
        {
          "internalType": "string",
          "name": "",
          "type": "string"
        }
      ],
      "stateMutability": "view",
      "type": "function"
    },
    {
      "inputs": [
        {
          "internalType": "uint256",
          "name": "tokenId",
          "type": "uint256"
        }
      ],
      "name": "burn",
      "outputs": [],
      "stateMutability": "nonpayable",
      "type": "function"
    },
    {
      "inputs": [],
      "name": "description",
      "outputs": [
        {
          "internalType": "string",
          "name": "",
          "type": "string"
        }
      ],
      "stateMutability": "view",
      "type": "function"
    },
    {
      "inputs": [],
      "name": "getAdditionalPayee",
      "outputs": [
        {
          "internalType": "address payable",
          "name": "",
          "type": "address"
        }
      ],
      "stateMutability": "view",
      "type": "function"
    },
    {
      "inputs": [],
      "name": "getAdditionalPayeePercentage",
      "outputs": [
        {
          "internalType": "uint256",
          "name": "",
          "type": "uint256"
        }
      ],
      "stateMutability": "view",
      "type": "function"
    },
    {
      "inputs": [
        {
          "internalType": "uint256",
          "name": "tokenId",
          "type": "uint256"
        }
      ],
      "name": "getApproved",
      "outputs": [
        {
          "internalType": "address",
          "name": "",
          "type": "address"
        }
      ],
      "stateMutability": "view",
      "type": "function"
    },
    {
      "inputs": [],
      "name": "getArtistAddress",
      "outputs": [
        {
          "internalType": "address payable",
          "name": "",
          "type": "address"
        }
      ],
      "stateMutability": "view",
      "type": "function"
    },
    {
      "inputs": [
        {
          "internalType": "bytes32",
          "name": "role",
          "type": "bytes32"
        }
      ],
      "name": "getRoleAdmin",
      "outputs": [
        {
          "internalType": "bytes32",
          "name": "",
          "type": "bytes32"
        }
      ],
      "stateMutability": "view",
      "type": "function"
    },
    {
      "inputs": [],
      "name": "getTokenLimit",
      "outputs": [
        {
          "internalType": "uint256",
          "name": "",
          "type": "uint256"
        }
      ],
      "stateMutability": "view",
      "type": "function"
    },
    {
      "inputs": [
        {
          "internalType": "bytes32",
          "name": "role",
          "type": "bytes32"
        },
        {
          "internalType": "address",
          "name": "account",
          "type": "address"
        }
      ],
      "name": "grantRole",
      "outputs": [],
      "stateMutability": "nonpayable",
      "type": "function"
    },
    {
      "inputs": [
        {
          "internalType": "bytes32",
          "name": "role",
          "type": "bytes32"
        },
        {
          "internalType": "address",
          "name": "account",
          "type": "address"
        }
      ],
      "name": "hasRole",
      "outputs": [
        {
          "internalType": "bool",
          "name": "",
          "type": "bool"
        }
      ],
      "stateMutability": "view",
      "type": "function"
    },
    {
      "inputs": [
        {
          "internalType": "address",
          "name": "owner",
          "type": "address"
        },
        {
          "internalType": "address",
          "name": "operator",
          "type": "address"
        }
      ],
      "name": "isApprovedForAll",
      "outputs": [
        {
          "internalType": "bool",
          "name": "",
          "type": "bool"
        }
      ],
      "stateMutability": "view",
      "type": "function"
    },
    {
      "inputs": [],
      "name": "license",
      "outputs": [
        {
          "internalType": "string",
          "name": "",
          "type": "string"
        }
      ],
      "stateMutability": "view",
      "type": "function"
    },
    {
      "inputs": [
        {
          "internalType": "address",
          "name": "to",
          "type": "address"
        }
      ],
      "name": "mint",
      "outputs": [
        {
          "internalType": "uint256",
          "name": "tokenId",
          "type": "uint256"
        }
      ],
      "stateMutability": "nonpayable",
      "type": "function"
    },
    {
      "inputs": [],
      "name": "name",
      "outputs": [
        {
          "internalType": "string",
          "name": "",
          "type": "string"
        }
      ],
      "stateMutability": "view",
      "type": "function"
    },
    {
      "inputs": [
        {
          "internalType": "uint256",
          "name": "tokenId",
          "type": "uint256"
        }
      ],
      "name": "ownerOf",
      "outputs": [
        {
          "internalType": "address",
          "name": "",
          "type": "address"
        }
      ],
      "stateMutability": "view",
      "type": "function"
    },
    {
      "inputs": [],
      "name": "projectId",
      "outputs": [
        {
          "internalType": "uint256",
          "name": "",
          "type": "uint256"
        }
      ],
      "stateMutability": "view",
      "type": "function"
    },
    {
      "inputs": [
        {
          "internalType": "bytes32",
          "name": "role",
          "type": "bytes32"
        },
        {
          "internalType": "address",
          "name": "account",
          "type": "address"
        }
      ],
      "name": "renounceRole",
      "outputs": [],
      "stateMutability": "nonpayable",
      "type": "function"
    },
    {
      "inputs": [
        {
          "internalType": "bytes32",
          "name": "role",
          "type": "bytes32"
        },
        {
          "internalType": "address",
          "name": "account",
          "type": "address"
        }
      ],
      "name": "revokeRole",
      "outputs": [],
      "stateMutability": "nonpayable",
      "type": "function"
    },
    {
      "inputs": [
        {
          "internalType": "uint256",
          "name": "_tokenId",
          "type": "uint256"
        },
        {
          "internalType": "uint256",
          "name": "_salePrice",
          "type": "uint256"
        }
      ],
      "name": "royaltyInfo",
      "outputs": [
        {
          "internalType": "address",
          "name": "",
          "type": "address"
        },
        {
          "internalType": "uint256",
          "name": "",
          "type": "uint256"
        }
      ],
      "stateMutability": "view",
      "type": "function"
    },
    {
      "inputs": [],
      "name": "royaltyPercent",
      "outputs": [
        {
          "internalType": "uint96",
          "name": "",
          "type": "uint96"
        }
      ],
      "stateMutability": "view",
      "type": "function"
    },
    {
      "inputs": [
        {
          "internalType": "address",
          "name": "from",
          "type": "address"
        },
        {
          "internalType": "address",
          "name": "to",
          "type": "address"
        },
        {
          "internalType": "uint256",
          "name": "tokenId",
          "type": "uint256"
        }
      ],
      "name": "safeTransferFrom",
      "outputs": [],
      "stateMutability": "nonpayable",
      "type": "function"
    },
    {
      "inputs": [
        {
          "internalType": "address",
          "name": "from",
          "type": "address"
        },
        {
          "internalType": "address",
          "name": "to",
          "type": "address"
        },
        {
          "internalType": "uint256",
          "name": "tokenId",
          "type": "uint256"
        },
        {
          "internalType": "bytes",
          "name": "_data",
          "type": "bytes"
        }
      ],
      "name": "safeTransferFrom",
      "outputs": [],
      "stateMutability": "nonpayable",
      "type": "function"
    },
    {
      "inputs": [
        {
          "internalType": "uint256",
          "name": "",
          "type": "uint256"
        }
      ],
      "name": "scripts",
      "outputs": [
        {
          "internalType": "string",
          "name": "",
          "type": "string"
        }
      ],
      "stateMutability": "view",
      "type": "function"
    },
    {
      "inputs": [
        {
          "internalType": "address",
          "name": "operator",
          "type": "address"
        },
        {
          "internalType": "bool",
          "name": "approved",
          "type": "bool"
        }
      ],
      "name": "setApprovalForAll",
      "outputs": [],
      "stateMutability": "nonpayable",
      "type": "function"
    },
    {
      "inputs": [
        {
          "internalType": "string",
          "name": "_uri",
          "type": "string"
        }
      ],
      "name": "setBaseURI",
      "outputs": [],
      "stateMutability": "nonpayable",
      "type": "function"
    },
    {
      "inputs": [
        {
          "internalType": "string",
          "name": "_desc",
          "type": "string"
        }
      ],
      "name": "setDescription",
      "outputs": [],
      "stateMutability": "nonpayable",
      "type": "function"
    },
    {
      "inputs": [
        {
          "internalType": "uint256",
          "name": "index",
          "type": "uint256"
        },
        {
          "internalType": "string",
          "name": "script",
          "type": "string"
        }
      ],
      "name": "setScript",
      "outputs": [],
      "stateMutability": "nonpayable",
      "type": "function"
    },
    {
      "inputs": [
        {
          "internalType": "string",
          "name": "_url",
          "type": "string"
        }
      ],
      "name": "setWebsite",
      "outputs": [],
      "stateMutability": "nonpayable",
      "type": "function"
    },
    {
      "inputs": [
        {
          "internalType": "bytes4",
          "name": "interfaceId",
          "type": "bytes4"
        }
      ],
      "name": "supportsInterface",
      "outputs": [
        {
          "internalType": "bool",
          "name": "",
          "type": "bool"
        }
      ],
      "stateMutability": "view",
      "type": "function"
    },
    {
      "inputs": [],
      "name": "symbol",
      "outputs": [
        {
          "internalType": "string",
          "name": "",
          "type": "string"
        }
      ],
      "stateMutability": "view",
      "type": "function"
    },
    {
      "inputs": [
        {
          "internalType": "uint256",
          "name": "index",
          "type": "uint256"
        }
      ],
      "name": "tokenByIndex",
      "outputs": [
        {
          "internalType": "uint256",
          "name": "",
          "type": "uint256"
        }
      ],
      "stateMutability": "view",
      "type": "function"
    },
    {
      "inputs": [
        {
          "internalType": "address",
          "name": "owner",
          "type": "address"
        },
        {
          "internalType": "uint256",
          "name": "index",
          "type": "uint256"
        }
      ],
      "name": "tokenOfOwnerByIndex",
      "outputs": [
        {
          "internalType": "uint256",
          "name": "",
          "type": "uint256"
        }
      ],
      "stateMutability": "view",
      "type": "function"
    },
    {
      "inputs": [
        {
          "internalType": "uint256",
          "name": "tokenId",
          "type": "uint256"
        }
      ],
      "name": "tokenURI",
      "outputs": [
        {
          "internalType": "string",
          "name": "",
          "type": "string"
        }
      ],
      "stateMutability": "view",
      "type": "function"
    },
    {
      "inputs": [],
      "name": "totalSupply",
      "outputs": [
        {
          "internalType": "uint256",
          "name": "",
          "type": "uint256"
        }
      ],
      "stateMutability": "view",
      "type": "function"
    },
    {
      "inputs": [
        {
          "internalType": "address",
          "name": "from",
          "type": "address"
        },
        {
          "internalType": "address",
          "name": "to",
          "type": "address"
        },
        {
          "internalType": "uint256",
          "name": "tokenId",
          "type": "uint256"
        }
      ],
      "name": "transferFrom",
      "outputs": [],
      "stateMutability": "nonpayable",
      "type": "function"
    },
    {
      "inputs": [],
      "name": "website",
      "outputs": [
        {
          "internalType": "string",
          "name": "",
          "type": "string"
        }
      ],
      "stateMutability": "view",
      "type": "function"
    },
    {
      "inputs": [],
      "name": "withdraw",
      "outputs": [],
      "stateMutability": "nonpayable",
      "type": "function"
    }
  ],
  "bytecode": "0x60806040526103e8600d55737a832c86002323a5de3a317b3281eb88ec3b2c00601460006101000a81548173ffffffffffffffffffffffffffffffffffffffff021916908373ffffffffffffffffffffffffffffffffffffffff1602179055506000601560006101000a81548173ffffffffffffffffffffffffffffffffffffffff021916908373ffffffffffffffffffffffffffffffffffffffff16021790555060006016556102ee601760006101000a8154816bffffffffffffffffffffffff02191690836bffffffffffffffffffffffff1602179055506040518060400160405280600e81526020017f4950465320484153482048455245000000000000000000000000000000000000815250601890805190602001906200012692919062000832565b506040518060400160405280600481526020017f66696e6500000000000000000000000000000000000000000000000000000000815250601990805190602001906200017492919062000832565b506040518060400160405280601581526020017f612073616d706c65204e465420666f722046494e450000000000000000000000815250601a9080519060200190620001c292919062000832565b506040518060400160405280601881526020017f68747470733a2f2f6170692e66696e652e6469676974616c0000000000000000815250601b90805190602001906200021092919062000832565b506040518060400160405280600381526020017f4d49540000000000000000000000000000000000000000000000000000000000815250601c90805190602001906200025e92919062000832565b503480156200026c57600080fd5b5060405162005bdb38038062005bdb8339818101604052810190620002929190620008f9565b6040518060400160405280600c81526020017f46494e45204469676974616c00000000000000000000000000000000000000008152506040518060400160405280600481526020017f46494e450000000000000000000000000000000000000000000000000000000081525081600290805190602001906200031692919062000832565b5080600390805190602001906200032f92919062000832565b505050620003476000801b336200046160201b60201c565b620003797f9f2df0fed2c77648de5860a4cc508cd0818c85b8b8a1ab4ceeef8d981c8956a6336200046160201b60201c565b620003ab7f9f2df0fed2c77648de5860a4cc508cd0818c85b8b8a1ab4ceeef8d981c8956a6826200046160201b60201c565b81600e60006101000a81548173ffffffffffffffffffffffffffffffffffffffff021916908373ffffffffffffffffffffffffffffffffffffffff1602179055506200041830601760009054906101000a90046bffffffffffffffffffffffff166200055360201b60201c565b60005b600d54811015620004585762000441816012620006f660201b62001c1c1790919060201c565b5080806200044f9062000a51565b9150506200041b565b50505062000b8f565b6200047382826200071860201b60201c565b6200054f576001600c600084815260200190815260200160002060000160008373ffffffffffffffffffffffffffffffffffffffff1673ffffffffffffffffffffffffffffffffffffffff16815260200190815260200160002060006101000a81548160ff021916908315150217905550620004f46200078360201b60201c565b73ffffffffffffffffffffffffffffffffffffffff168173ffffffffffffffffffffffffffffffffffffffff16837f2f8788117e7eff1d82e926ec794901d17c78024a50270940304540a733656f0d60405160405180910390a45b5050565b620005636200078b60201b60201c565b6bffffffffffffffffffffffff16816bffffffffffffffffffffffff161115620005c4576040517f08c379a0000000000000000000000000000000000000000000000000000000008152600401620005bb9062000988565b60405180910390fd5b600073ffffffffffffffffffffffffffffffffffffffff168273ffffffffffffffffffffffffffffffffffffffff16141562000637576040517f08c379a00000000000000000000000000000000000000000000000000000000081526004016200062e90620009aa565b60405180910390fd5b60405180604001604052808373ffffffffffffffffffffffffffffffffffffffff168152602001826bffffffffffffffffffffffff168152506000808201518160000160006101000a81548173ffffffffffffffffffffffffffffffffffffffff021916908373ffffffffffffffffffffffffffffffffffffffff16021790555060208201518160000160146101000a8154816bffffffffffffffffffffffff02191690836bffffffffffffffffffffffff1602179055509050505050565b600062000710836000018360001b6200079560201b60201c565b905092915050565b6000600c600084815260200190815260200160002060000160008373ffffffffffffffffffffffffffffffffffffffff1673ffffffffffffffffffffffffffffffffffffffff16815260200190815260200160002060009054906101000a900460ff16905092915050565b600033905090565b6000612710905090565b6000620007a983836200080f60201b60201c565b6200080457826000018290806001815401808255809150506001900390600052602060002001600090919091909150558260000180549050836001016000848152602001908152602001600020819055506001905062000809565b600090505b92915050565b600080836001016000848152602001908152602001600020541415905092915050565b828054620008409062000a1b565b90600052602060002090601f016020900481019282620008645760008555620008b0565b82601f106200087f57805160ff1916838001178555620008b0565b82800160010185558215620008b0579182015b82811115620008af57825182559160200191906001019062000892565b5b509050620008bf9190620008c3565b5090565b5b80821115620008de576000816000905550600101620008c4565b5090565b600081519050620008f38162000b75565b92915050565b600080604083850312156200090d57600080fd5b60006200091d85828601620008e2565b92505060206200093085828601620008e2565b9150509250929050565b600062000949602a83620009cc565b9150620009568262000afd565b604082019050919050565b600062000970601983620009cc565b91506200097d8262000b4c565b602082019050919050565b60006020820190508181036000830152620009a3816200093a565b9050919050565b60006020820190508181036000830152620009c58162000961565b9050919050565b600082825260208201905092915050565b6000620009ea82620009f1565b9050919050565b600073ffffffffffffffffffffffffffffffffffffffff82169050919050565b6000819050919050565b6000600282049050600182168062000a3457607f821691505b6020821081141562000a4b5762000a4a62000ace565b5b50919050565b600062000a5e8262000a11565b91507fffffffffffffffffffffffffffffffffffffffffffffffffffffffffffffffff82141562000a945762000a9362000a9f565b5b600182019050919050565b7f4e487b7100000000000000000000000000000000000000000000000000000000600052601160045260246000fd5b7f4e487b7100000000000000000000000000000000000000000000000000000000600052602260045260246000fd5b7f455243323938313a20726f79616c7479206665652077696c6c2065786365656460008201527f2073616c65507269636500000000000000000000000000000000000000000000602082015250565b7f455243323938313a20696e76616c696420726563656976657200000000000000600082015250565b62000b8081620009dd565b811462000b8c57600080fd5b50565b61503c8062000b9f6000396000f3fe608060405234801561001057600080fd5b50600436106102a05760003560e01c806359748cb21161016757806395d89b41116100ce578063c87b56dd11610087578063c87b56dd14610840578063d539139314610870578063d547741f1461088e578063d7eb3f3a146108aa578063e985e9c5146108c8578063f87f44b9146108f8576102a0565b806395d89b41146107905780639f67756d146107ae578063a217fddf146107cc578063a22cb465146107ea578063b88d4fde14610806578063beb0a41614610822576102a0565b806370a082311161012057806370a08231146106bc57806371199d30146106ec5780637284e416146107085780638cbe8d801461072657806390c3f38f1461074457806391d1485414610760576102a0565b806359748cb2146105e45780636352211e146106025780636a627842146106325780636b87d24c146106625780636c0360eb146106805780636ff314c71461069e576102a0565b80632cc889741161020b57806340138ff1116101c457806340138ff11461052457806342842e0e1461054257806342966c681461055e57806343bc16121461057a5780634f6ccce71461059857806355f804b3146105c8576102a0565b80632cc88974146104765780632f2ff15d146104945780632f745c59146104b057806336568abe146104e05780633ccfd60b146104fc5780633fafa12714610506576102a0565b8063176f5b091161025d578063176f5b091461038d57806318160ddd146103bd57806323b872dd146103db578063248a9ca3146103f757806328485586146104275780632a55205a14610445576102a0565b806301ffc9a7146102a5578063031bd4c4146102d557806306fdde03146102f3578063081812fc1461031157806308ff7f6114610341578063095ea7b314610371575b600080fd5b6102bf60048036038101906102ba9190613bcd565b610914565b6040516102cc91906142c9565b60405180910390f35b6102dd610926565b6040516102ea9190614581565b60405180910390f35b6102fb61092c565b60405161030891906142ff565b60405180910390f35b61032b60048036038101906103269190613c64565b6109be565b604051610338919061421e565b60405180910390f35b61035b60048036038101906103569190613c64565b610a43565b60405161036891906142ff565b60405180910390f35b61038b60048036038101906103869190613b2c565b610ae3565b005b6103a760048036038101906103a29190613c64565b610bfb565b6040516103b49190614581565b60405180910390f35b6103c5610c13565b6040516103d29190614581565b60405180910390f35b6103f560048036038101906103f09190613a26565b610c20565b005b610411600480360381019061040c9190613b68565b610c80565b60405161041e91906142e4565b60405180910390f35b61042f610ca0565b60405161043c9190614581565b60405180910390f35b61045f600480360381019061045a9190613d0e565b610caa565b60405161046d9291906142a0565b60405180910390f35b61047e610e95565b60405161048b9190614581565b60405180910390f35b6104ae60048036038101906104a99190613b91565b610e9f565b005b6104ca60048036038101906104c59190613b2c565b610ec8565b6040516104d79190614581565b60405180910390f35b6104fa60048036038101906104f59190613b91565b610f6d565b005b610504610ff0565b005b61050e611055565b60405161051b9190614581565b60405180910390f35b61052c611107565b6040516105399190614581565b60405180910390f35b61055c60048036038101906105579190613a26565b61110d565b005b61057860048036038101906105739190613c64565b61112d565b005b610582611189565b60405161058f91906142ff565b60405180910390f35b6105b260048036038101906105ad9190613c64565b611217565b6040516105bf9190614581565b60405180910390f35b6105e260048036038101906105dd9190613c1f565b6112ae565b005b6105ec6112da565b6040516105f99190614239565b60405180910390f35b61061c60048036038101906106179190613c64565b611300565b604051610629919061421e565b60405180910390f35b61064c600480360381019061064791906139c1565b6113b2565b6040516106599190614581565b60405180910390f35b61066a611562565b60405161067791906142ff565b60405180910390f35b6106886115f0565b60405161069591906142ff565b60405180910390f35b6106a661167e565b6040516106b39190614239565b60405180910390f35b6106d660048036038101906106d191906139c1565b6116a8565b6040516106e39190614581565b60405180910390f35b61070660048036038101906107019190613cb6565b611760565b005b61071061179e565b60405161071d91906142ff565b60405180910390f35b61072e61182c565b60405161073b9190614239565b60405180910390f35b61075e60048036038101906107599190613c1f565b611856565b005b61077a60048036038101906107759190613b91565b611882565b60405161078791906142c9565b60405180910390f35b6107986118ed565b6040516107a591906142ff565b60405180910390f35b6107b661197f565b6040516107c391906145c5565b60405180910390f35b6107d461199d565b6040516107e191906142e4565b60405180910390f35b61080460048036038101906107ff9190613af0565b6119a4565b005b610820600480360381019061081b9190613a75565b6119ba565b005b61082a611a1c565b60405161083791906142ff565b60405180910390f35b61085a60048036038101906108559190613c64565b611aaa565b60405161086791906142ff565b60405180910390f35b610878611ae9565b60405161088591906142e4565b60405180910390f35b6108a860048036038101906108a39190613b91565b611b0d565b005b6108b2611b36565b6040516108bf9190614239565b60405180910390f35b6108e260048036038101906108dd91906139ea565b611b5c565b6040516108ef91906142c9565b60405180910390f35b610912600480360381019061090d9190613c1f565b611bf0565b005b600061091f82611c36565b9050919050565b600d5481565b60606002805461093b906148b7565b80601f0160208091040260200160405190810160405280929190818152602001828054610967906148b7565b80156109b45780601f10610989576101008083540402835291602001916109b4565b820191906000526020600020905b81548152906001019060200180831161099757829003601f168201915b5050505050905090565b60006109c982611cb0565b610a08576040517f08c379a00000000000000000000000000000000000000000000000000000000081526004016109ff906144a1565b60405180910390fd5b6006600083815260200190815260200160002060009054906101000a900473ffffffffffffffffffffffffffffffffffffffff169050919050565b60116020528060005260406000206000915090508054610a62906148b7565b80601f0160208091040260200160405190810160405280929190818152602001828054610a8e906148b7565b8015610adb5780601f10610ab057610100808354040283529160200191610adb565b820191906000526020600020905b815481529060010190602001808311610abe57829003601f168201915b505050505081565b6000610aee82611300565b90508073ffffffffffffffffffffffffffffffffffffffff168373ffffffffffffffffffffffffffffffffffffffff161415610b5f576040517f08c379a0000000000000000000000000000000000000000000000000000000008152600401610b56906144c1565b60405180910390fd5b8073ffffffffffffffffffffffffffffffffffffffff16610b7e611d1c565b73ffffffffffffffffffffffffffffffffffffffff161480610bad5750610bac81610ba7611d1c565b611b5c565b5b610bec576040517f08c379a0000000000000000000000000000000000000000000000000000000008152600401610be390614421565b60405180910390fd5b610bf68383611d24565b505050565b60106020528060005260406000206000915090505481565b6000600a80549050905090565b610c31610c2b611d1c565b82611ddd565b610c70576040517f08c379a0000000000000000000000000000000000000000000000000000000008152600401610c67906144e1565b60405180910390fd5b610c7b838383611ebb565b505050565b6000600c6000838152602001908152602001600020600101549050919050565b6000600d54905090565b6000806000600160008681526020019081526020016000206040518060400160405290816000820160009054906101000a900473ffffffffffffffffffffffffffffffffffffffff1673ffffffffffffffffffffffffffffffffffffffff1673ffffffffffffffffffffffffffffffffffffffff1681526020016000820160149054906101000a90046bffffffffffffffffffffffff166bffffffffffffffffffffffff166bffffffffffffffffffffffff16815250509050600073ffffffffffffffffffffffffffffffffffffffff16816000015173ffffffffffffffffffffffffffffffffffffffff161415610e405760006040518060400160405290816000820160009054906101000a900473ffffffffffffffffffffffffffffffffffffffff1673ffffffffffffffffffffffffffffffffffffffff1673ffffffffffffffffffffffffffffffffffffffff1681526020016000820160149054906101000a90046bffffffffffffffffffffffff166bffffffffffffffffffffffff166bffffffffffffffffffffffff168152505090505b6000610e4a612122565b6bffffffffffffffffffffffff1682602001516bffffffffffffffffffffffff1686610e769190614715565b610e8091906146e4565b90508160000151819350935050509250929050565b6000601654905090565b610ea882610c80565b610eb981610eb4611d1c565b61212c565b610ec383836121c9565b505050565b6000610ed3836116a8565b8210610f14576040517f08c379a0000000000000000000000000000000000000000000000000000000008152600401610f0b90614341565b60405180910390fd5b600860008473ffffffffffffffffffffffffffffffffffffffff1673ffffffffffffffffffffffffffffffffffffffff168152602001908152602001600020600083815260200190815260200160002054905092915050565b610f75611d1c565b73ffffffffffffffffffffffffffffffffffffffff168173ffffffffffffffffffffffffffffffffffffffff1614610fe2576040517f08c379a0000000000000000000000000000000000000000000000000000000008152600401610fd990614561565b60405180910390fd5b610fec82826122aa565b5050565b6000801b61100581611000611d1c565b61212c565b60003390508073ffffffffffffffffffffffffffffffffffffffff166108fc479081150290604051600060405180830381858888f19350505050158015611050573d6000803e3d6000fd5b505050565b6000600e60009054906101000a900473ffffffffffffffffffffffffffffffffffffffff1673ffffffffffffffffffffffffffffffffffffffff1663aee233b3306040518263ffffffff1660e01b81526004016110b2919061421e565b60206040518083038186803b1580156110ca57600080fd5b505afa1580156110de573d6000803e3d6000fd5b505050506040513d601f19601f820116820180604052508101906111029190613c8d565b905090565b60165481565b611128838383604051806020016040528060008152506119ba565b505050565b61113e611138611d1c565b82611ddd565b61117d576040517f08c379a000000000000000000000000000000000000000000000000000000000815260040161117490614541565b60405180910390fd5b6111868161238c565b50565b60198054611196906148b7565b80601f01602080910402602001604051908101604052809291908181526020018280546111c2906148b7565b801561120f5780601f106111e45761010080835404028352916020019161120f565b820191906000526020600020905b8154815290600101906020018083116111f257829003601f168201915b505050505081565b6000611221610c13565b8210611262576040517f08c379a000000000000000000000000000000000000000000000000000000000815260040161125990614501565b60405180910390fd5b600a828154811061129c577f4e487b7100000000000000000000000000000000000000000000000000000000600052603260045260246000fd5b90600052602060002001549050919050565b6000801b6112c3816112be611d1c565b61212c565b8282601891906112d49291906137d9565b50505050565b601560009054906101000a900473ffffffffffffffffffffffffffffffffffffffff1681565b6000806004600084815260200190815260200160002060009054906101000a900473ffffffffffffffffffffffffffffffffffffffff169050600073ffffffffffffffffffffffffffffffffffffffff168173ffffffffffffffffffffffffffffffffffffffff1614156113a9576040517f08c379a00000000000000000000000000000000000000000000000000000000081526004016113a090614461565b60405180910390fd5b80915050919050565b60007f9f2df0fed2c77648de5860a4cc508cd0818c85b8b8a1ab4ceeef8d981c8956a66113e6816113e1611d1c565b61212c565b6113f0600f612398565b9150600d548210611436576040517f08c379a000000000000000000000000000000000000000000000000000000000815260040161142d90614521565b60405180910390fd5b611440600f6123a6565b61144a83836123bc565b6000600e60009054906101000a900473ffffffffffffffffffffffffffffffffffffffff1673ffffffffffffffffffffffffffffffffffffffff166329e5d83184426040518363ffffffff1660e01b81526004016114a992919061459c565b60206040518083038186803b1580156114c157600080fd5b505afa1580156114d5573d6000803e3d6000fd5b505050506040513d601f19601f820116820180604052508101906114f99190613c8d565b9050600061150760126123da565b826115129190614924565b9050600061152a8260126123ef90919063ffffffff16565b905080601060008781526020019081526020016000208190555061155881601261240990919063ffffffff16565b5050505050919050565b601c805461156f906148b7565b80601f016020809104026020016040519081016040528092919081815260200182805461159b906148b7565b80156115e85780601f106115bd576101008083540402835291602001916115e8565b820191906000526020600020905b8154815290600101906020018083116115cb57829003601f168201915b505050505081565b601880546115fd906148b7565b80601f0160208091040260200160405190810160405280929190818152602001828054611629906148b7565b80156116765780601f1061164b57610100808354040283529160200191611676565b820191906000526020600020905b81548152906001019060200180831161165957829003601f168201915b505050505081565b6000601560009054906101000a900473ffffffffffffffffffffffffffffffffffffffff16905090565b60008073ffffffffffffffffffffffffffffffffffffffff168273ffffffffffffffffffffffffffffffffffffffff161415611719576040517f08c379a000000000000000000000000000000000000000000000000000000000815260040161171090614441565b60405180910390fd5b600560008373ffffffffffffffffffffffffffffffffffffffff1673ffffffffffffffffffffffffffffffffffffffff168152602001908152602001600020549050919050565b6000801b61177581611770611d1c565b61212c565b82826011600087815260200190815260200160002091906117979291906137d9565b5050505050565b601a80546117ab906148b7565b80601f01602080910402602001604051908101604052809291908181526020018280546117d7906148b7565b80156118245780601f106117f957610100808354040283529160200191611824565b820191906000526020600020905b81548152906001019060200180831161180757829003601f168201915b505050505081565b6000601460009054906101000a900473ffffffffffffffffffffffffffffffffffffffff16905090565b6000801b61186b81611866611d1c565b61212c565b8282601a919061187c9291906137d9565b50505050565b6000600c600084815260200190815260200160002060000160008373ffffffffffffffffffffffffffffffffffffffff1673ffffffffffffffffffffffffffffffffffffffff16815260200190815260200160002060009054906101000a900460ff16905092915050565b6060600380546118fc906148b7565b80601f0160208091040260200160405190810160405280929190818152602001828054611928906148b7565b80156119755780601f1061194a57610100808354040283529160200191611975565b820191906000526020600020905b81548152906001019060200180831161195857829003601f168201915b5050505050905090565b601760009054906101000a90046bffffffffffffffffffffffff1681565b6000801b81565b6119b66119af611d1c565b8383612423565b5050565b6119cb6119c5611d1c565b83611ddd565b611a0a576040517f08c379a0000000000000000000000000000000000000000000000000000000008152600401611a01906144e1565b60405180910390fd5b611a1684848484612590565b50505050565b601b8054611a29906148b7565b80601f0160208091040260200160405190810160405280929190818152602001828054611a55906148b7565b8015611aa25780601f10611a7757610100808354040283529160200191611aa2565b820191906000526020600020905b815481529060010190602001808311611a8557829003601f168201915b505050505081565b606060186010600084815260200190815260200160002054604051602001611ad39291906141bc565b6040516020818303038152906040529050919050565b7f9f2df0fed2c77648de5860a4cc508cd0818c85b8b8a1ab4ceeef8d981c8956a681565b611b1682610c80565b611b2781611b22611d1c565b61212c565b611b3183836122aa565b505050565b601460009054906101000a900473ffffffffffffffffffffffffffffffffffffffff1681565b6000600760008473ffffffffffffffffffffffffffffffffffffffff1673ffffffffffffffffffffffffffffffffffffffff16815260200190815260200160002060008373ffffffffffffffffffffffffffffffffffffffff1673ffffffffffffffffffffffffffffffffffffffff16815260200190815260200160002060009054906101000a900460ff16905092915050565b6000801b611c0581611c00611d1c565b61212c565b8282601b9190611c169291906137d9565b50505050565b6000611c2e836000018360001b6125ec565b905092915050565b60007f7965db0b000000000000000000000000000000000000000000000000000000007bffffffffffffffffffffffffffffffffffffffffffffffffffffffff1916827bffffffffffffffffffffffffffffffffffffffffffffffffffffffff19161480611ca95750611ca88261265c565b5b9050919050565b60008073ffffffffffffffffffffffffffffffffffffffff166004600084815260200190815260200160002060009054906101000a900473ffffffffffffffffffffffffffffffffffffffff1673ffffffffffffffffffffffffffffffffffffffff1614159050919050565b600033905090565b816006600083815260200190815260200160002060006101000a81548173ffffffffffffffffffffffffffffffffffffffff021916908373ffffffffffffffffffffffffffffffffffffffff160217905550808273ffffffffffffffffffffffffffffffffffffffff16611d9783611300565b73ffffffffffffffffffffffffffffffffffffffff167f8c5be1e5ebec7d5bd14f71427d1e84f3dd0314c0f7b2291e5b200ac8c7c3b92560405160405180910390a45050565b6000611de882611cb0565b611e27576040517f08c379a0000000000000000000000000000000000000000000000000000000008152600401611e1e90614401565b60405180910390fd5b6000611e3283611300565b90508073ffffffffffffffffffffffffffffffffffffffff168473ffffffffffffffffffffffffffffffffffffffff161480611ea157508373ffffffffffffffffffffffffffffffffffffffff16611e89846109be565b73ffffffffffffffffffffffffffffffffffffffff16145b80611eb25750611eb18185611b5c565b5b91505092915050565b8273ffffffffffffffffffffffffffffffffffffffff16611edb82611300565b73ffffffffffffffffffffffffffffffffffffffff1614611f31576040517f08c379a0000000000000000000000000000000000000000000000000000000008152600401611f2890614381565b60405180910390fd5b600073ffffffffffffffffffffffffffffffffffffffff168273ffffffffffffffffffffffffffffffffffffffff161415611fa1576040517f08c379a0000000000000000000000000000000000000000000000000000000008152600401611f98906143c1565b60405180910390fd5b611fac83838361266e565b611fb7600082611d24565b6001600560008573ffffffffffffffffffffffffffffffffffffffff1673ffffffffffffffffffffffffffffffffffffffff1681526020019081526020016000206000828254612007919061476f565b925050819055506001600560008473ffffffffffffffffffffffffffffffffffffffff1673ffffffffffffffffffffffffffffffffffffffff168152602001908152602001600020600082825461205e919061468e565b92505081905550816004600083815260200190815260200160002060006101000a81548173ffffffffffffffffffffffffffffffffffffffff021916908373ffffffffffffffffffffffffffffffffffffffff160217905550808273ffffffffffffffffffffffffffffffffffffffff168473ffffffffffffffffffffffffffffffffffffffff167fddf252ad1be2c89b69c2b068fc378daa952ba7f163c4a11628f55a4df523b3ef60405160405180910390a461211d83838361267e565b505050565b6000612710905090565b6121368282611882565b6121c55761215b8173ffffffffffffffffffffffffffffffffffffffff166014612683565b6121698360001c6020612683565b60405160200161217a9291906141e4565b6040516020818303038152906040526040517f08c379a00000000000000000000000000000000000000000000000000000000081526004016121bc91906142ff565b60405180910390fd5b5050565b6121d38282611882565b6122a6576001600c600084815260200190815260200160002060000160008373ffffffffffffffffffffffffffffffffffffffff1673ffffffffffffffffffffffffffffffffffffffff16815260200190815260200160002060006101000a81548160ff02191690831515021790555061224b611d1c565b73ffffffffffffffffffffffffffffffffffffffff168173ffffffffffffffffffffffffffffffffffffffff16837f2f8788117e7eff1d82e926ec794901d17c78024a50270940304540a733656f0d60405160405180910390a45b5050565b6122b48282611882565b15612388576000600c600084815260200190815260200160002060000160008373ffffffffffffffffffffffffffffffffffffffff1673ffffffffffffffffffffffffffffffffffffffff16815260200190815260200160002060006101000a81548160ff02191690831515021790555061232d611d1c565b73ffffffffffffffffffffffffffffffffffffffff168173ffffffffffffffffffffffffffffffffffffffff16837ff6391f5c32d9c69d2a47ea670b442974b53935d1edc7fd64eb21e047a839171b60405160405180910390a45b5050565b6123958161297d565b50565b600081600001549050919050565b6001816000016000828254019250508190555050565b6123d6828260405180602001604052806000815250612992565b5050565b60006123e8826000016129ed565b9050919050565b60006123fe83600001836129fe565b60001c905092915050565b600061241b836000018360001b612a4f565b905092915050565b8173ffffffffffffffffffffffffffffffffffffffff168373ffffffffffffffffffffffffffffffffffffffff161415612492576040517f08c379a0000000000000000000000000000000000000000000000000000000008152600401612489906143e1565b60405180910390fd5b80600760008573ffffffffffffffffffffffffffffffffffffffff1673ffffffffffffffffffffffffffffffffffffffff16815260200190815260200160002060008473ffffffffffffffffffffffffffffffffffffffff1673ffffffffffffffffffffffffffffffffffffffff16815260200190815260200160002060006101000a81548160ff0219169083151502179055508173ffffffffffffffffffffffffffffffffffffffff168373ffffffffffffffffffffffffffffffffffffffff167f17307eab39ab6107e8899845ad3d59bd9653f200f220920489ca2b5937696c318360405161258391906142c9565b60405180910390a3505050565b61259b848484611ebb565b6125a784848484612bd5565b6125e6576040517f08c379a00000000000000000000000000000000000000000000000000000000081526004016125dd90614361565b60405180910390fd5b50505050565b60006125f88383612d6c565b612651578260000182908060018154018082558091505060019003906000526020600020016000909190919091505582600001805490508360010160008481526020019081526020016000208190555060019050612656565b600090505b92915050565b600061266782612d8f565b9050919050565b612679838383612e09565b505050565b505050565b6060600060028360026126969190614715565b6126a0919061468e565b67ffffffffffffffff8111156126df577f4e487b7100000000000000000000000000000000000000000000000000000000600052604160045260246000fd5b6040519080825280601f01601f1916602001820160405280156127115781602001600182028036833780820191505090505b5090507f30000000000000000000000000000000000000000000000000000000000000008160008151811061276f577f4e487b7100000000000000000000000000000000000000000000000000000000600052603260045260246000fd5b60200101907effffffffffffffffffffffffffffffffffffffffffffffffffffffffffffff1916908160001a9053507f7800000000000000000000000000000000000000000000000000000000000000816001815181106127f9577f4e487b7100000000000000000000000000000000000000000000000000000000600052603260045260246000fd5b60200101907effffffffffffffffffffffffffffffffffffffffffffffffffffffffffffff1916908160001a905350600060018460026128399190614715565b612843919061468e565b90505b600181111561292f577f3031323334353637383961626364656600000000000000000000000000000000600f8616601081106128ab577f4e487b7100000000000000000000000000000000000000000000000000000000600052603260045260246000fd5b1a60f81b8282815181106128e8577f4e487b7100000000000000000000000000000000000000000000000000000000600052603260045260246000fd5b60200101907effffffffffffffffffffffffffffffffffffffffffffffffffffffffffffff1916908160001a905350600485901c9450806129289061488d565b9050612846565b5060008414612973576040517f08c379a000000000000000000000000000000000000000000000000000000000815260040161296a90614321565b60405180910390fd5b8091505092915050565b61298681612f1d565b61298f8161303a565b50565b61299c8383613099565b6129a96000848484612bd5565b6129e8576040517f08c379a00000000000000000000000000000000000000000000000000000000081526004016129df90614361565b60405180910390fd5b505050565b600081600001805490509050919050565b6000826000018281548110612a3c577f4e487b7100000000000000000000000000000000000000000000000000000000600052603260045260246000fd5b9060005260206000200154905092915050565b60008083600101600084815260200190815260200160002054905060008114612bc9576000600182612a81919061476f565b9050600060018660000180549050612a99919061476f565b9050818114612b54576000866000018281548110612ae0577f4e487b7100000000000000000000000000000000000000000000000000000000600052603260045260246000fd5b9060005260206000200154905080876000018481548110612b2a577f4e487b7100000000000000000000000000000000000000000000000000000000600052603260045260246000fd5b90600052602060002001819055508387600101600083815260200190815260200160002081905550505b85600001805480612b8e577f4e487b7100000000000000000000000000000000000000000000000000000000600052603160045260246000fd5b600190038181906000526020600020016000905590558560010160008681526020019081526020016000206000905560019350505050612bcf565b60009150505b92915050565b6000612bf68473ffffffffffffffffffffffffffffffffffffffff16613273565b15612d5f578373ffffffffffffffffffffffffffffffffffffffff1663150b7a02612c1f611d1c565b8786866040518563ffffffff1660e01b8152600401612c419493929190614254565b602060405180830381600087803b158015612c5b57600080fd5b505af1925050508015612c8c57506040513d601f19601f82011682018060405250810190612c899190613bf6565b60015b612d0f573d8060008114612cbc576040519150601f19603f3d011682016040523d82523d6000602084013e612cc1565b606091505b50600081511415612d07576040517f08c379a0000000000000000000000000000000000000000000000000000000008152600401612cfe90614361565b60405180910390fd5b805181602001fd5b63150b7a0260e01b7bffffffffffffffffffffffffffffffffffffffffffffffffffffffff1916817bffffffffffffffffffffffffffffffffffffffffffffffffffffffff191614915050612d64565b600190505b949350505050565b600080836001016000848152602001908152602001600020541415905092915050565b60007f780e9d63000000000000000000000000000000000000000000000000000000007bffffffffffffffffffffffffffffffffffffffffffffffffffffffff1916827bffffffffffffffffffffffffffffffffffffffffffffffffffffffff19161480612e025750612e0182613296565b5b9050919050565b612e14838383613378565b600073ffffffffffffffffffffffffffffffffffffffff168373ffffffffffffffffffffffffffffffffffffffff161415612e5757612e528161337d565b612e96565b8173ffffffffffffffffffffffffffffffffffffffff168373ffffffffffffffffffffffffffffffffffffffff1614612e9557612e9483826133c6565b5b5b600073ffffffffffffffffffffffffffffffffffffffff168273ffffffffffffffffffffffffffffffffffffffff161415612ed957612ed481613533565b612f18565b8273ffffffffffffffffffffffffffffffffffffffff168273ffffffffffffffffffffffffffffffffffffffff1614612f1757612f168282613676565b5b5b505050565b6000612f2882611300565b9050612f368160008461266e565b612f41600083611d24565b6001600560008373ffffffffffffffffffffffffffffffffffffffff1673ffffffffffffffffffffffffffffffffffffffff1681526020019081526020016000206000828254612f91919061476f565b925050819055506004600083815260200190815260200160002060006101000a81549073ffffffffffffffffffffffffffffffffffffffff021916905581600073ffffffffffffffffffffffffffffffffffffffff168273ffffffffffffffffffffffffffffffffffffffff167fddf252ad1be2c89b69c2b068fc378daa952ba7f163c4a11628f55a4df523b3ef60405160405180910390a46130368160008461267e565b5050565b60016000828152602001908152602001600020600080820160006101000a81549073ffffffffffffffffffffffffffffffffffffffff02191690556000820160146101000a8154906bffffffffffffffffffffffff0219169055505050565b600073ffffffffffffffffffffffffffffffffffffffff168273ffffffffffffffffffffffffffffffffffffffff161415613109576040517f08c379a000000000000000000000000000000000000000000000000000000000815260040161310090614481565b60405180910390fd5b61311281611cb0565b15613152576040517f08c379a0000000000000000000000000000000000000000000000000000000008152600401613149906143a1565b60405180910390fd5b61315e6000838361266e565b6001600560008473ffffffffffffffffffffffffffffffffffffffff1673ffffffffffffffffffffffffffffffffffffffff16815260200190815260200160002060008282546131ae919061468e565b92505081905550816004600083815260200190815260200160002060006101000a81548173ffffffffffffffffffffffffffffffffffffffff021916908373ffffffffffffffffffffffffffffffffffffffff160217905550808273ffffffffffffffffffffffffffffffffffffffff16600073ffffffffffffffffffffffffffffffffffffffff167fddf252ad1be2c89b69c2b068fc378daa952ba7f163c4a11628f55a4df523b3ef60405160405180910390a461326f6000838361267e565b5050565b6000808273ffffffffffffffffffffffffffffffffffffffff163b119050919050565b60007f80ac58cd000000000000000000000000000000000000000000000000000000007bffffffffffffffffffffffffffffffffffffffffffffffffffffffff1916827bffffffffffffffffffffffffffffffffffffffffffffffffffffffff1916148061336157507f5b5e139f000000000000000000000000000000000000000000000000000000007bffffffffffffffffffffffffffffffffffffffffffffffffffffffff1916827bffffffffffffffffffffffffffffffffffffffffffffffffffffffff1916145b806133715750613370826136f5565b5b9050919050565b505050565b600a80549050600b600083815260200190815260200160002081905550600a81908060018154018082558091505060019003906000526020600020016000909190919091505550565b600060016133d3846116a8565b6133dd919061476f565b90506000600960008481526020019081526020016000205490508181146134c2576000600860008673ffffffffffffffffffffffffffffffffffffffff1673ffffffffffffffffffffffffffffffffffffffff168152602001908152602001600020600084815260200190815260200160002054905080600860008773ffffffffffffffffffffffffffffffffffffffff1673ffffffffffffffffffffffffffffffffffffffff168152602001908152602001600020600084815260200190815260200160002081905550816009600083815260200190815260200160002081905550505b6009600084815260200190815260200160002060009055600860008573ffffffffffffffffffffffffffffffffffffffff1673ffffffffffffffffffffffffffffffffffffffff16815260200190815260200160002060008381526020019081526020016000206000905550505050565b60006001600a80549050613547919061476f565b90506000600b60008481526020019081526020016000205490506000600a838154811061359d577f4e487b7100000000000000000000000000000000000000000000000000000000600052603260045260246000fd5b9060005260206000200154905080600a83815481106135e5577f4e487b7100000000000000000000000000000000000000000000000000000000600052603260045260246000fd5b906000526020600020018190555081600b600083815260200190815260200160002081905550600b600085815260200190815260200160002060009055600a80548061365a577f4e487b7100000000000000000000000000000000000000000000000000000000600052603160045260246000fd5b6001900381819060005260206000200160009055905550505050565b6000613681836116a8565b905081600860008573ffffffffffffffffffffffffffffffffffffffff1673ffffffffffffffffffffffffffffffffffffffff168152602001908152602001600020600083815260200190815260200160002081905550806009600084815260200190815260200160002081905550505050565b60007f2a55205a000000000000000000000000000000000000000000000000000000007bffffffffffffffffffffffffffffffffffffffffffffffffffffffff1916827bffffffffffffffffffffffffffffffffffffffffffffffffffffffff1916148061376857506137678261376f565b5b9050919050565b60007f01ffc9a7000000000000000000000000000000000000000000000000000000007bffffffffffffffffffffffffffffffffffffffffffffffffffffffff1916827bffffffffffffffffffffffffffffffffffffffffffffffffffffffff1916149050919050565b8280546137e5906148b7565b90600052602060002090601f016020900481019282613807576000855561384e565b82601f1061382057803560ff191683800117855561384e565b8280016001018555821561384e579182015b8281111561384d578235825591602001919060010190613832565b5b50905061385b919061385f565b5090565b5b80821115613878576000816000905550600101613860565b5090565b600061388f61388a84614605565b6145e0565b9050828152602081018484840111156138a757600080fd5b6138b284828561484b565b509392505050565b6000813590506138c981614f93565b92915050565b6000813590506138de81614faa565b92915050565b6000813590506138f381614fc1565b92915050565b60008135905061390881614fd8565b92915050565b60008151905061391d81614fd8565b92915050565b600082601f83011261393457600080fd5b813561394484826020860161387c565b91505092915050565b60008083601f84011261395f57600080fd5b8235905067ffffffffffffffff81111561397857600080fd5b60208301915083600182028301111561399057600080fd5b9250929050565b6000813590506139a681614fef565b92915050565b6000815190506139bb81614fef565b92915050565b6000602082840312156139d357600080fd5b60006139e1848285016138ba565b91505092915050565b600080604083850312156139fd57600080fd5b6000613a0b858286016138ba565b9250506020613a1c858286016138ba565b9150509250929050565b600080600060608486031215613a3b57600080fd5b6000613a49868287016138ba565b9350506020613a5a868287016138ba565b9250506040613a6b86828701613997565b9150509250925092565b60008060008060808587031215613a8b57600080fd5b6000613a99878288016138ba565b9450506020613aaa878288016138ba565b9350506040613abb87828801613997565b925050606085013567ffffffffffffffff811115613ad857600080fd5b613ae487828801613923565b91505092959194509250565b60008060408385031215613b0357600080fd5b6000613b11858286016138ba565b9250506020613b22858286016138cf565b9150509250929050565b60008060408385031215613b3f57600080fd5b6000613b4d858286016138ba565b9250506020613b5e85828601613997565b9150509250929050565b600060208284031215613b7a57600080fd5b6000613b88848285016138e4565b91505092915050565b60008060408385031215613ba457600080fd5b6000613bb2858286016138e4565b9250506020613bc3858286016138ba565b9150509250929050565b600060208284031215613bdf57600080fd5b6000613bed848285016138f9565b91505092915050565b600060208284031215613c0857600080fd5b6000613c168482850161390e565b91505092915050565b60008060208385031215613c3257600080fd5b600083013567ffffffffffffffff811115613c4c57600080fd5b613c588582860161394d565b92509250509250929050565b600060208284031215613c7657600080fd5b6000613c8484828501613997565b91505092915050565b600060208284031215613c9f57600080fd5b6000613cad848285016139ac565b91505092915050565b600080600060408486031215613ccb57600080fd5b6000613cd986828701613997565b935050602084013567ffffffffffffffff811115613cf657600080fd5b613d028682870161394d565b92509250509250925092565b60008060408385031215613d2157600080fd5b6000613d2f85828601613997565b9250506020613d4085828601613997565b9150509250929050565b613d53816147b5565b82525050565b613d62816147a3565b82525050565b613d71816147c7565b82525050565b613d80816147d3565b82525050565b6000613d918261464b565b613d9b8185614661565b9350613dab81856020860161485a565b613db481614a11565b840191505092915050565b6000613dca82614656565b613dd48185614672565b9350613de481856020860161485a565b613ded81614a11565b840191505092915050565b6000613e0382614656565b613e0d8185614683565b9350613e1d81856020860161485a565b80840191505092915050565b60008154613e36816148b7565b613e408186614683565b94506001821660008114613e5b5760018114613e6c57613e9f565b60ff19831686528186019350613e9f565b613e7585614636565b60005b83811015613e9757815481890152600182019150602081019050613e78565b838801955050505b50505092915050565b6000613eb5602083614672565b9150613ec082614a22565b602082019050919050565b6000613ed8602b83614672565b9150613ee382614a4b565b604082019050919050565b6000613efb603283614672565b9150613f0682614a9a565b604082019050919050565b6000613f1e602583614672565b9150613f2982614ae9565b604082019050919050565b6000613f41601c83614672565b9150613f4c82614b38565b602082019050919050565b6000613f64602483614672565b9150613f6f82614b61565b604082019050919050565b6000613f87601983614672565b9150613f9282614bb0565b602082019050919050565b6000613faa602c83614672565b9150613fb582614bd9565b604082019050919050565b6000613fcd603883614672565b9150613fd882614c28565b604082019050919050565b6000613ff0602a83614672565b9150613ffb82614c77565b604082019050919050565b6000614013602983614672565b915061401e82614cc6565b604082019050919050565b6000614036602083614672565b915061404182614d15565b602082019050919050565b6000614059602c83614672565b915061406482614d3e565b604082019050919050565b600061407c602183614672565b915061408782614d8d565b604082019050919050565b600061409f603183614672565b91506140aa82614ddc565b604082019050919050565b60006140c2602c83614672565b91506140cd82614e2b565b604082019050919050565b60006140e5601783614683565b91506140f082614e7a565b601782019050919050565b6000614108601283614672565b915061411382614ea3565b602082019050919050565b600061412b603083614672565b915061413682614ecc565b604082019050919050565b600061414e601183614683565b915061415982614f1b565b601182019050919050565b6000614171602f83614672565b915061417c82614f44565b604082019050919050565b61419081614829565b82525050565b6141a76141a282614829565b61491a565b82525050565b6141b681614833565b82525050565b60006141c88285613e29565b91506141d48284614196565b6020820191508190509392505050565b60006141ef826140d8565b91506141fb8285613df8565b915061420682614141565b91506142128284613df8565b91508190509392505050565b60006020820190506142336000830184613d59565b92915050565b600060208201905061424e6000830184613d4a565b92915050565b60006080820190506142696000830187613d59565b6142766020830186613d59565b6142836040830185614187565b81810360608301526142958184613d86565b905095945050505050565b60006040820190506142b56000830185613d59565b6142c26020830184614187565b9392505050565b60006020820190506142de6000830184613d68565b92915050565b60006020820190506142f96000830184613d77565b92915050565b600060208201905081810360008301526143198184613dbf565b905092915050565b6000602082019050818103600083015261433a81613ea8565b9050919050565b6000602082019050818103600083015261435a81613ecb565b9050919050565b6000602082019050818103600083015261437a81613eee565b9050919050565b6000602082019050818103600083015261439a81613f11565b9050919050565b600060208201905081810360008301526143ba81613f34565b9050919050565b600060208201905081810360008301526143da81613f57565b9050919050565b600060208201905081810360008301526143fa81613f7a565b9050919050565b6000602082019050818103600083015261441a81613f9d565b9050919050565b6000602082019050818103600083015261443a81613fc0565b9050919050565b6000602082019050818103600083015261445a81613fe3565b9050919050565b6000602082019050818103600083015261447a81614006565b9050919050565b6000602082019050818103600083015261449a81614029565b9050919050565b600060208201905081810360008301526144ba8161404c565b9050919050565b600060208201905081810360008301526144da8161406f565b9050919050565b600060208201905081810360008301526144fa81614092565b9050919050565b6000602082019050818103600083015261451a816140b5565b9050919050565b6000602082019050818103600083015261453a816140fb565b9050919050565b6000602082019050818103600083015261455a8161411e565b9050919050565b6000602082019050818103600083015261457a81614164565b9050919050565b60006020820190506145966000830184614187565b92915050565b60006040820190506145b16000830185614187565b6145be6020830184614187565b9392505050565b60006020820190506145da60008301846141ad565b92915050565b60006145ea6145fb565b90506145f682826148e9565b919050565b6000604051905090565b600067ffffffffffffffff8211156146205761461f6149e2565b5b61462982614a11565b9050602081019050919050565b60008190508160005260206000209050919050565b600081519050919050565b600081519050919050565b600082825260208201905092915050565b600082825260208201905092915050565b600081905092915050565b600061469982614829565b91506146a483614829565b9250827fffffffffffffffffffffffffffffffffffffffffffffffffffffffffffffffff038211156146d9576146d8614955565b5b828201905092915050565b60006146ef82614829565b91506146fa83614829565b92508261470a57614709614984565b5b828204905092915050565b600061472082614829565b915061472b83614829565b9250817fffffffffffffffffffffffffffffffffffffffffffffffffffffffffffffffff048311821515161561476457614763614955565b5b828202905092915050565b600061477a82614829565b915061478583614829565b92508282101561479857614797614955565b5b828203905092915050565b60006147ae82614809565b9050919050565b60006147c082614809565b9050919050565b60008115159050919050565b6000819050919050565b60007fffffffff0000000000000000000000000000000000000000000000000000000082169050919050565b600073ffffffffffffffffffffffffffffffffffffffff82169050919050565b6000819050919050565b60006bffffffffffffffffffffffff82169050919050565b82818337600083830152505050565b60005b8381101561487857808201518184015260208101905061485d565b83811115614887576000848401525b50505050565b600061489882614829565b915060008214156148ac576148ab614955565b5b600182039050919050565b600060028204905060018216806148cf57607f821691505b602082108114156148e3576148e26149b3565b5b50919050565b6148f282614a11565b810181811067ffffffffffffffff82111715614911576149106149e2565b5b80604052505050565b6000819050919050565b600061492f82614829565b915061493a83614829565b92508261494a57614949614984565b5b828206905092915050565b7f4e487b7100000000000000000000000000000000000000000000000000000000600052601160045260246000fd5b7f4e487b7100000000000000000000000000000000000000000000000000000000600052601260045260246000fd5b7f4e487b7100000000000000000000000000000000000000000000000000000000600052602260045260246000fd5b7f4e487b7100000000000000000000000000000000000000000000000000000000600052604160045260246000fd5b6000601f19601f8301169050919050565b7f537472696e67733a20686578206c656e67746820696e73756666696369656e74600082015250565b7f455243373231456e756d657261626c653a206f776e657220696e646578206f7560008201527f74206f6620626f756e6473000000000000000000000000000000000000000000602082015250565b7f4552433732313a207472616e7366657220746f206e6f6e20455243373231526560008201527f63656976657220696d706c656d656e7465720000000000000000000000000000602082015250565b7f4552433732313a207472616e736665722066726f6d20696e636f72726563742060008201527f6f776e6572000000000000000000000000000000000000000000000000000000602082015250565b7f4552433732313a20746f6b656e20616c7265616479206d696e74656400000000600082015250565b7f4552433732313a207472616e7366657220746f20746865207a65726f2061646460008201527f7265737300000000000000000000000000000000000000000000000000000000602082015250565b7f4552433732313a20617070726f766520746f2063616c6c657200000000000000600082015250565b7f4552433732313a206f70657261746f7220717565727920666f72206e6f6e657860008201527f697374656e7420746f6b656e0000000000000000000000000000000000000000602082015250565b7f4552433732313a20617070726f76652063616c6c6572206973206e6f74206f7760008201527f6e6572206e6f7220617070726f76656420666f7220616c6c0000000000000000602082015250565b7f4552433732313a2062616c616e636520717565727920666f7220746865207a6560008201527f726f206164647265737300000000000000000000000000000000000000000000602082015250565b7f4552433732313a206f776e657220717565727920666f72206e6f6e657869737460008201527f656e7420746f6b656e0000000000000000000000000000000000000000000000602082015250565b7f4552433732313a206d696e7420746f20746865207a65726f2061646472657373600082015250565b7f4552433732313a20617070726f76656420717565727920666f72206e6f6e657860008201527f697374656e7420746f6b656e0000000000000000000000000000000000000000602082015250565b7f4552433732313a20617070726f76616c20746f2063757272656e74206f776e6560008201527f7200000000000000000000000000000000000000000000000000000000000000602082015250565b7f4552433732313a207472616e736665722063616c6c6572206973206e6f74206f60008201527f776e6572206e6f7220617070726f766564000000000000000000000000000000602082015250565b7f455243373231456e756d657261626c653a20676c6f62616c20696e646578206f60008201527f7574206f6620626f756e64730000000000000000000000000000000000000000602082015250565b7f416363657373436f6e74726f6c3a206163636f756e7420000000000000000000600082015250565b7f737570706c792063617020726561636865640000000000000000000000000000600082015250565b7f4552433732314275726e61626c653a2063616c6c6572206973206e6f74206f7760008201527f6e6572206e6f7220617070726f76656400000000000000000000000000000000602082015250565b7f206973206d697373696e6720726f6c6520000000000000000000000000000000600082015250565b7f416363657373436f6e74726f6c3a2063616e206f6e6c792072656e6f756e636560008201527f20726f6c657320666f722073656c660000000000000000000000000000000000602082015250565b614f9c816147a3565b8114614fa757600080fd5b50565b614fb3816147c7565b8114614fbe57600080fd5b50565b614fca816147d3565b8114614fd557600080fd5b50565b614fe1816147dd565b8114614fec57600080fd5b50565b614ff881614829565b811461500357600080fd5b5056fea2646970667358221220a3c5d2dd3d7a0d82d85094fb8ee677c2f39f437ee4d056e9087206cc4509fe0064736f6c63430008020033",
  "linkReferences": {},
  "deployedLinkReferences": {}
}