{
  "_format": "hh-sol-artifact-1",
  "contractName": "FineNFT",
  "sourceName": "contracts/FineNFT.sol",
  "abi": [
    {
      "inputs": [
        {
          "internalType": "address",
          "name": "coreAddress",
          "type": "address"
        },
        {
          "internalType": "address",
          "name": "shopAddress",
          "type": "address"
        }
      ],
      "stateMutability": "nonpayable",
      "type": "constructor"
    },
    {
      "anonymous": false,
      "inputs": [
        {
          "indexed": true,
          "internalType": "address",
          "name": "owner",
          "type": "address"
        },
        {
          "indexed": true,
          "internalType": "address",
          "name": "approved",
          "type": "address"
        },
        {
          "indexed": true,
          "internalType": "uint256",
          "name": "tokenId",
          "type": "uint256"
        }
      ],
      "name": "Approval",
      "type": "event"
    },
    {
      "anonymous": false,
      "inputs": [
        {
          "indexed": true,
          "internalType": "address",
          "name": "owner",
          "type": "address"
        },
        {
          "indexed": true,
          "internalType": "address",
          "name": "operator",
          "type": "address"
        },
        {
          "indexed": false,
          "internalType": "bool",
          "name": "approved",
          "type": "bool"
        }
      ],
      "name": "ApprovalForAll",
      "type": "event"
    },
    {
      "anonymous": false,
      "inputs": [
        {
          "indexed": true,
          "internalType": "bytes32",
          "name": "role",
          "type": "bytes32"
        },
        {
          "indexed": true,
          "internalType": "bytes32",
          "name": "previousAdminRole",
          "type": "bytes32"
        },
        {
          "indexed": true,
          "internalType": "bytes32",
          "name": "newAdminRole",
          "type": "bytes32"
        }
      ],
      "name": "RoleAdminChanged",
      "type": "event"
    },
    {
      "anonymous": false,
      "inputs": [
        {
          "indexed": true,
          "internalType": "bytes32",
          "name": "role",
          "type": "bytes32"
        },
        {
          "indexed": true,
          "internalType": "address",
          "name": "account",
          "type": "address"
        },
        {
          "indexed": true,
          "internalType": "address",
          "name": "sender",
          "type": "address"
        }
      ],
      "name": "RoleGranted",
      "type": "event"
    },
    {
      "anonymous": false,
      "inputs": [
        {
          "indexed": true,
          "internalType": "bytes32",
          "name": "role",
          "type": "bytes32"
        },
        {
          "indexed": true,
          "internalType": "address",
          "name": "account",
          "type": "address"
        },
        {
          "indexed": true,
          "internalType": "address",
          "name": "sender",
          "type": "address"
        }
      ],
      "name": "RoleRevoked",
      "type": "event"
    },
    {
      "anonymous": false,
      "inputs": [
        {
          "indexed": true,
          "internalType": "address",
          "name": "from",
          "type": "address"
        },
        {
          "indexed": true,
          "internalType": "address",
          "name": "to",
          "type": "address"
        },
        {
          "indexed": true,
          "internalType": "uint256",
          "name": "tokenId",
          "type": "uint256"
        }
      ],
      "name": "Transfer",
      "type": "event"
    },
    {
      "anonymous": false,
      "inputs": [
        {
          "indexed": false,
          "internalType": "address",
          "name": "_from",
          "type": "address"
        },
        {
          "indexed": false,
          "internalType": "uint256",
          "name": "_amount",
          "type": "uint256"
        }
      ],
      "name": "recievedFunds",
      "type": "event"
    },
    {
      "inputs": [],
      "name": "DEFAULT_ADMIN_ROLE",
      "outputs": [
        {
          "internalType": "bytes32",
          "name": "",
          "type": "bytes32"
        }
      ],
      "stateMutability": "view",
      "type": "function"
    },
    {
      "inputs": [],
      "name": "MINTER_ROLE",
      "outputs": [
        {
          "internalType": "bytes32",
          "name": "",
          "type": "bytes32"
        }
      ],
      "stateMutability": "view",
      "type": "function"
    },
    {
      "inputs": [],
      "name": "TOKEN_LIMIT",
      "outputs": [
        {
          "internalType": "uint256",
          "name": "",
          "type": "uint256"
        }
      ],
      "stateMutability": "view",
      "type": "function"
    },
    {
      "inputs": [],
      "name": "additionalPayee",
      "outputs": [
        {
          "internalType": "address payable",
          "name": "",
          "type": "address"
        }
      ],
      "stateMutability": "view",
      "type": "function"
    },
    {
      "inputs": [],
      "name": "additionalPayeePercentage",
      "outputs": [
        {
          "internalType": "uint256",
          "name": "",
          "type": "uint256"
        }
      ],
      "stateMutability": "view",
      "type": "function"
    },
    {
      "inputs": [],
      "name": "additionalPayeeRoyaltyPercentage",
      "outputs": [
        {
          "internalType": "uint256",
          "name": "",
          "type": "uint256"
        }
      ],
      "stateMutability": "view",
      "type": "function"
    },
    {
      "inputs": [
        {
          "internalType": "address",
          "name": "to",
          "type": "address"
        },
        {
          "internalType": "uint256",
          "name": "tokenId",
          "type": "uint256"
        }
      ],
      "name": "approve",
      "outputs": [],
      "stateMutability": "nonpayable",
      "type": "function"
    },
    {
      "inputs": [],
      "name": "artist",
      "outputs": [
        {
          "internalType": "string",
          "name": "",
          "type": "string"
        }
      ],
      "stateMutability": "view",
      "type": "function"
    },
    {
      "inputs": [],
      "name": "artistAddress",
      "outputs": [
        {
          "internalType": "address payable",
          "name": "",
          "type": "address"
        }
      ],
      "stateMutability": "view",
      "type": "function"
    },
    {
      "inputs": [
        {
          "internalType": "uint256",
          "name": "",
          "type": "uint256"
        }
      ],
      "name": "artworkId",
      "outputs": [
        {
          "internalType": "uint256",
          "name": "",
          "type": "uint256"
        }
      ],
      "stateMutability": "view",
      "type": "function"
    },
    {
      "inputs": [
        {
          "internalType": "address",
          "name": "owner",
          "type": "address"
        }
      ],
      "name": "balanceOf",
      "outputs": [
        {
          "internalType": "uint256",
          "name": "",
          "type": "uint256"
        }
      ],
      "stateMutability": "view",
      "type": "function"
    },
    {
      "inputs": [],
      "name": "baseURI",
      "outputs": [
        {
          "internalType": "string",
          "name": "",
          "type": "string"
        }
      ],
      "stateMutability": "view",
      "type": "function"
    },
    {
      "inputs": [
        {
          "internalType": "uint256",
          "name": "tokenId",
          "type": "uint256"
        }
      ],
      "name": "burn",
      "outputs": [],
      "stateMutability": "nonpayable",
      "type": "function"
    },
    {
      "inputs": [],
      "name": "checkPool",
      "outputs": [
        {
          "internalType": "uint256",
          "name": "",
          "type": "uint256"
        }
      ],
      "stateMutability": "view",
      "type": "function"
    },
    {
      "inputs": [],
      "name": "description",
      "outputs": [
        {
          "internalType": "string",
          "name": "",
          "type": "string"
        }
      ],
      "stateMutability": "view",
      "type": "function"
    },
    {
      "inputs": [],
      "name": "getAdditionalPayee",
      "outputs": [
        {
          "internalType": "address payable",
          "name": "",
          "type": "address"
        }
      ],
      "stateMutability": "view",
      "type": "function"
    },
    {
      "inputs": [],
      "name": "getAdditionalPayeePercentage",
      "outputs": [
        {
          "internalType": "uint256",
          "name": "",
          "type": "uint256"
        }
      ],
      "stateMutability": "view",
      "type": "function"
    },
    {
      "inputs": [
        {
          "internalType": "uint256",
          "name": "tokenId",
          "type": "uint256"
        }
      ],
      "name": "getApproved",
      "outputs": [
        {
          "internalType": "address",
          "name": "",
          "type": "address"
        }
      ],
      "stateMutability": "view",
      "type": "function"
    },
    {
      "inputs": [],
      "name": "getArtistAddress",
      "outputs": [
        {
          "internalType": "address payable",
          "name": "",
          "type": "address"
        }
      ],
      "stateMutability": "view",
      "type": "function"
    },
    {
      "inputs": [
        {
          "internalType": "bytes32",
          "name": "role",
          "type": "bytes32"
        }
      ],
      "name": "getRoleAdmin",
      "outputs": [
        {
          "internalType": "bytes32",
          "name": "",
          "type": "bytes32"
        }
      ],
      "stateMutability": "view",
      "type": "function"
    },
    {
      "inputs": [],
      "name": "getTokenLimit",
      "outputs": [
        {
          "internalType": "uint256",
          "name": "",
          "type": "uint256"
        }
      ],
      "stateMutability": "view",
      "type": "function"
    },
    {
      "inputs": [
        {
          "internalType": "bytes32",
          "name": "role",
          "type": "bytes32"
        },
        {
          "internalType": "address",
          "name": "account",
          "type": "address"
        }
      ],
      "name": "grantRole",
      "outputs": [],
      "stateMutability": "nonpayable",
      "type": "function"
    },
    {
      "inputs": [
        {
          "internalType": "bytes32",
          "name": "role",
          "type": "bytes32"
        },
        {
          "internalType": "address",
          "name": "account",
          "type": "address"
        }
      ],
      "name": "hasRole",
      "outputs": [
        {
          "internalType": "bool",
          "name": "",
          "type": "bool"
        }
      ],
      "stateMutability": "view",
      "type": "function"
    },
    {
      "inputs": [
        {
          "internalType": "uint256",
          "name": "start",
          "type": "uint256"
        },
        {
          "internalType": "uint256",
          "name": "end",
          "type": "uint256"
        }
      ],
      "name": "initPool",
      "outputs": [],
      "stateMutability": "nonpayable",
      "type": "function"
    },
    {
      "inputs": [
        {
          "internalType": "address",
          "name": "owner",
          "type": "address"
        },
        {
          "internalType": "address",
          "name": "operator",
          "type": "address"
        }
      ],
      "name": "isApprovedForAll",
      "outputs": [
        {
          "internalType": "bool",
          "name": "",
          "type": "bool"
        }
      ],
      "stateMutability": "view",
      "type": "function"
    },
    {
      "inputs": [],
      "name": "license",
      "outputs": [
        {
          "internalType": "string",
          "name": "",
          "type": "string"
        }
      ],
      "stateMutability": "view",
      "type": "function"
    },
    {
      "inputs": [],
      "name": "lock",
      "outputs": [],
      "stateMutability": "nonpayable",
      "type": "function"
    },
    {
      "inputs": [],
      "name": "locked",
      "outputs": [
        {
          "internalType": "bool",
          "name": "",
          "type": "bool"
        }
      ],
      "stateMutability": "view",
      "type": "function"
    },
    {
      "inputs": [
        {
          "internalType": "address",
          "name": "to",
          "type": "address"
        }
      ],
      "name": "mint",
      "outputs": [
        {
          "internalType": "uint256",
          "name": "tokenId",
          "type": "uint256"
        }
      ],
      "stateMutability": "nonpayable",
      "type": "function"
    },
    {
      "inputs": [],
      "name": "name",
      "outputs": [
        {
          "internalType": "string",
          "name": "",
          "type": "string"
        }
      ],
      "stateMutability": "view",
      "type": "function"
    },
    {
      "inputs": [
        {
          "internalType": "uint256",
          "name": "tokenId",
          "type": "uint256"
        }
      ],
      "name": "ownerOf",
      "outputs": [
        {
          "internalType": "address",
          "name": "",
          "type": "address"
        }
      ],
      "stateMutability": "view",
      "type": "function"
    },
    {
      "inputs": [
        {
          "internalType": "bytes32",
          "name": "role",
          "type": "bytes32"
        },
        {
          "internalType": "address",
          "name": "account",
          "type": "address"
        }
      ],
      "name": "renounceRole",
      "outputs": [],
      "stateMutability": "nonpayable",
      "type": "function"
    },
    {
      "inputs": [
        {
          "internalType": "bytes32",
          "name": "role",
          "type": "bytes32"
        },
        {
          "internalType": "address",
          "name": "account",
          "type": "address"
        }
      ],
      "name": "revokeRole",
      "outputs": [],
      "stateMutability": "nonpayable",
      "type": "function"
    },
    {
      "inputs": [
        {
          "internalType": "uint256",
          "name": "_tokenId",
          "type": "uint256"
        },
        {
          "internalType": "uint256",
          "name": "_salePrice",
          "type": "uint256"
        }
      ],
      "name": "royaltyInfo",
      "outputs": [
        {
          "internalType": "address",
          "name": "",
          "type": "address"
        },
        {
          "internalType": "uint256",
          "name": "",
          "type": "uint256"
        }
      ],
      "stateMutability": "view",
      "type": "function"
    },
    {
      "inputs": [],
      "name": "royaltyPercent",
      "outputs": [
        {
          "internalType": "uint96",
          "name": "",
          "type": "uint96"
        }
      ],
      "stateMutability": "view",
      "type": "function"
    },
    {
      "inputs": [
        {
          "internalType": "address",
          "name": "from",
          "type": "address"
        },
        {
          "internalType": "address",
          "name": "to",
          "type": "address"
        },
        {
          "internalType": "uint256",
          "name": "tokenId",
          "type": "uint256"
        }
      ],
      "name": "safeTransferFrom",
      "outputs": [],
      "stateMutability": "nonpayable",
      "type": "function"
    },
    {
      "inputs": [
        {
          "internalType": "address",
          "name": "from",
          "type": "address"
        },
        {
          "internalType": "address",
          "name": "to",
          "type": "address"
        },
        {
          "internalType": "uint256",
          "name": "tokenId",
          "type": "uint256"
        },
        {
          "internalType": "bytes",
          "name": "_data",
          "type": "bytes"
        }
      ],
      "name": "safeTransferFrom",
      "outputs": [],
      "stateMutability": "nonpayable",
      "type": "function"
    },
    {
      "inputs": [
        {
          "internalType": "uint256",
          "name": "",
          "type": "uint256"
        }
      ],
      "name": "scripts",
      "outputs": [
        {
          "internalType": "string",
          "name": "",
          "type": "string"
        }
      ],
      "stateMutability": "view",
      "type": "function"
    },
    {
      "inputs": [
        {
          "internalType": "address",
          "name": "operator",
          "type": "address"
        },
        {
          "internalType": "bool",
          "name": "approved",
          "type": "bool"
        }
      ],
      "name": "setApprovalForAll",
      "outputs": [],
      "stateMutability": "nonpayable",
      "type": "function"
    },
    {
      "inputs": [
        {
          "internalType": "string",
          "name": "_uri",
          "type": "string"
        }
      ],
      "name": "setBaseURI",
      "outputs": [],
      "stateMutability": "nonpayable",
      "type": "function"
    },
    {
      "inputs": [
        {
          "internalType": "string",
          "name": "_desc",
          "type": "string"
        }
      ],
      "name": "setDescription",
      "outputs": [],
      "stateMutability": "nonpayable",
      "type": "function"
    },
    {
      "inputs": [
        {
          "internalType": "uint256",
          "name": "index",
          "type": "uint256"
        },
        {
          "internalType": "string",
          "name": "script",
          "type": "string"
        }
      ],
      "name": "setScript",
      "outputs": [],
      "stateMutability": "nonpayable",
      "type": "function"
    },
    {
      "inputs": [
        {
          "internalType": "string",
          "name": "_url",
          "type": "string"
        }
      ],
      "name": "setWebsite",
      "outputs": [],
      "stateMutability": "nonpayable",
      "type": "function"
    },
    {
      "inputs": [
        {
          "internalType": "bytes4",
          "name": "interfaceId",
          "type": "bytes4"
        }
      ],
      "name": "supportsInterface",
      "outputs": [
        {
          "internalType": "bool",
          "name": "",
          "type": "bool"
        }
      ],
      "stateMutability": "view",
      "type": "function"
    },
    {
      "inputs": [],
      "name": "symbol",
      "outputs": [
        {
          "internalType": "string",
          "name": "",
          "type": "string"
        }
      ],
      "stateMutability": "view",
      "type": "function"
    },
    {
      "inputs": [
        {
          "internalType": "uint256",
          "name": "index",
          "type": "uint256"
        }
      ],
      "name": "tokenByIndex",
      "outputs": [
        {
          "internalType": "uint256",
          "name": "",
          "type": "uint256"
        }
      ],
      "stateMutability": "view",
      "type": "function"
    },
    {
      "inputs": [
        {
          "internalType": "address",
          "name": "owner",
          "type": "address"
        },
        {
          "internalType": "uint256",
          "name": "index",
          "type": "uint256"
        }
      ],
      "name": "tokenOfOwnerByIndex",
      "outputs": [
        {
          "internalType": "uint256",
          "name": "",
          "type": "uint256"
        }
      ],
      "stateMutability": "view",
      "type": "function"
    },
    {
      "inputs": [
        {
          "internalType": "uint256",
          "name": "tokenId",
          "type": "uint256"
        }
      ],
      "name": "tokenURI",
      "outputs": [
        {
          "internalType": "string",
          "name": "",
          "type": "string"
        }
      ],
      "stateMutability": "view",
      "type": "function"
    },
    {
      "inputs": [],
      "name": "totalSupply",
      "outputs": [
        {
          "internalType": "uint256",
          "name": "",
          "type": "uint256"
        }
      ],
      "stateMutability": "view",
      "type": "function"
    },
    {
      "inputs": [
        {
          "internalType": "address",
          "name": "from",
          "type": "address"
        },
        {
          "internalType": "address",
          "name": "to",
          "type": "address"
        },
        {
          "internalType": "uint256",
          "name": "tokenId",
          "type": "uint256"
        }
      ],
      "name": "transferFrom",
      "outputs": [],
      "stateMutability": "nonpayable",
      "type": "function"
    },
    {
      "inputs": [],
      "name": "website",
      "outputs": [
        {
          "internalType": "string",
          "name": "",
          "type": "string"
        }
      ],
      "stateMutability": "view",
      "type": "function"
    },
    {
      "inputs": [],
      "name": "withdraw",
      "outputs": [],
      "stateMutability": "nonpayable",
      "type": "function"
    },
    {
      "stateMutability": "payable",
      "type": "receive"
    }
  ],
  "bytecode": "0x60806040526103e8600d556000601460006101000a81548160ff02191690831515021790555073e31a7d022e545eced32d276ca880649852c91353601460016101000a81548173ffffffffffffffffffffffffffffffffffffffff021916908373ffffffffffffffffffffffffffffffffffffffff1602179055506000601560006101000a81548173ffffffffffffffffffffffffffffffffffffffff021916908373ffffffffffffffffffffffffffffffffffffffff160217905550600060165560006017556102ee601860006101000a8154816bffffffffffffffffffffffff02191690836bffffffffffffffffffffffff1602179055506040518060400160405280600e81526020017f4950465320484153482048455245000000000000000000000000000000000000815250601990805190602001906200014692919062000720565b506040518060400160405280600481526020017f66696e6500000000000000000000000000000000000000000000000000000000815250601a90805190602001906200019492919062000720565b506040518060400160405280601581526020017f612073616d706c65204e465420666f722046494e450000000000000000000000815250601b9080519060200190620001e292919062000720565b506040518060400160405280601481526020017f68747470733a2f2f66696e652e6469676974616c000000000000000000000000815250601c90805190602001906200023092919062000720565b506040518060400160405280600381526020017f4d49540000000000000000000000000000000000000000000000000000000000815250601d90805190602001906200027e92919062000720565b503480156200028c57600080fd5b5060405162006453380380620064538339818101604052810190620002b29190620007e7565b6040518060400160405280600c81526020017f46494e45204469676974616c00000000000000000000000000000000000000008152506040518060400160405280600481526020017f46494e450000000000000000000000000000000000000000000000000000000081525081600290805190602001906200033692919062000720565b5080600390805190602001906200034f92919062000720565b505050620003676000801b336200040e60201b60201c565b620003997f9f2df0fed2c77648de5860a4cc508cd0818c85b8b8a1ab4ceeef8d981c8956a6826200040e60201b60201c565b81600e60006101000a81548173ffffffffffffffffffffffffffffffffffffffff021916908373ffffffffffffffffffffffffffffffffffffffff1602179055506200040630601860009054906101000a90046bffffffffffffffffffffffff166200050060201b60201c565b5050620009f6565b620004208282620006a360201b60201c565b620004fc576001600c600084815260200190815260200160002060000160008373ffffffffffffffffffffffffffffffffffffffff1673ffffffffffffffffffffffffffffffffffffffff16815260200190815260200160002060006101000a81548160ff021916908315150217905550620004a16200070e60201b60201c565b73ffffffffffffffffffffffffffffffffffffffff168173ffffffffffffffffffffffffffffffffffffffff16837f2f8788117e7eff1d82e926ec794901d17c78024a50270940304540a733656f0d60405160405180910390a45b5050565b620005106200071660201b60201c565b6bffffffffffffffffffffffff16816bffffffffffffffffffffffff16111562000571576040517f08c379a0000000000000000000000000000000000000000000000000000000008152600401620005689062000876565b60405180910390fd5b600073ffffffffffffffffffffffffffffffffffffffff168273ffffffffffffffffffffffffffffffffffffffff161415620005e4576040517f08c379a0000000000000000000000000000000000000000000000000000000008152600401620005db9062000898565b60405180910390fd5b60405180604001604052808373ffffffffffffffffffffffffffffffffffffffff168152602001826bffffffffffffffffffffffff168152506000808201518160000160006101000a81548173ffffffffffffffffffffffffffffffffffffffff021916908373ffffffffffffffffffffffffffffffffffffffff16021790555060208201518160000160146101000a8154816bffffffffffffffffffffffff02191690836bffffffffffffffffffffffff1602179055509050505050565b6000600c600084815260200190815260200160002060000160008373ffffffffffffffffffffffffffffffffffffffff1673ffffffffffffffffffffffffffffffffffffffff16815260200190815260200160002060009054906101000a900460ff16905092915050565b600033905090565b6000612710905090565b8280546200072e90620008ff565b90600052602060002090601f0160209004810192826200075257600085556200079e565b82601f106200076d57805160ff19168380011785556200079e565b828001600101855582156200079e579182015b828111156200079d57825182559160200191906001019062000780565b5b509050620007ad9190620007b1565b5090565b5b80821115620007cc576000816000905550600101620007b2565b5090565b600081519050620007e181620009dc565b92915050565b60008060408385031215620007fb57600080fd5b60006200080b85828601620007d0565b92505060206200081e85828601620007d0565b9150509250929050565b600062000837602a83620008ba565b9150620008448262000964565b604082019050919050565b60006200085e601983620008ba565b91506200086b82620009b3565b602082019050919050565b60006020820190508181036000830152620008918162000828565b9050919050565b60006020820190508181036000830152620008b3816200084f565b9050919050565b600082825260208201905092915050565b6000620008d882620008df565b9050919050565b600073ffffffffffffffffffffffffffffffffffffffff82169050919050565b600060028204905060018216806200091857607f821691505b602082108114156200092f576200092e62000935565b5b50919050565b7f4e487b7100000000000000000000000000000000000000000000000000000000600052602260045260246000fd5b7f455243323938313a20726f79616c7479206665652077696c6c2065786365656460008201527f2073616c65507269636500000000000000000000000000000000000000000000602082015250565b7f455243323938313a20696e76616c696420726563656976657200000000000000600082015250565b620009e781620008cb565b8114620009f357600080fd5b50565b615a4d8062000a066000396000f3fe6080604052600436106103035760003560e01c80636a62784211610190578063a217fddf116100dc578063d539139311610095578063e985e9c51161006f578063e985e9c514610c15578063ea099ad914610c52578063f83d08ba14610c7d578063f87f44b914610c9457610343565b8063d539139314610b96578063d547741f14610bc1578063d7eb3f3a14610bea57610343565b8063a217fddf14610a86578063a22cb46514610ab1578063b88d4fde14610ada578063beb0a41614610b03578063c87b56dd14610b2e578063cf30901214610b6b57610343565b80637284e4161161014957806391d148541161012357806391d14854146109ca57806395d89b4114610a075780639e1b004514610a325780639f67756d14610a5b57610343565b80637284e4161461094b5780638cbe8d801461097657806390c3f38f146109a157610343565b80636a627842146108275780636b87d24c146108645780636c0360eb1461088f5780636ff314c7146108ba57806370a08231146108e557806371199d301461092257610343565b80632f2ff15d1161024f57806342966c68116102085780634f6ccce7116101e25780634f6ccce71461075957806355f804b31461079657806359748cb2146107bf5780636352211e146107ea57610343565b806342966c68146106da57806343bc1612146107035780634771218a1461072e57610343565b80632f2ff15d146105e05780632f745c591461060957806336568abe146106465780633ccfd60b1461066f57806340138ff11461068657806342842e0e146106b157610343565b8063176f5b09116102bc578063248a9ca311610296578063248a9ca31461050f578063284855861461054c5780632a55205a146105775780632cc88974146105b557610343565b8063176f5b091461047e57806318160ddd146104bb57806323b872dd146104e657610343565b806301ffc9a714610348578063031bd4c41461038557806306fdde03146103b0578063081812fc146103db57806308ff7f6114610418578063095ea7b31461045557610343565b36610343577ffb5cb5fc5900f14be0f619816129d1490c275a13734b28ae77072a2f5d676f573334604051610339929190614bc9565b60405180910390a1005b600080fd5b34801561035457600080fd5b5061036f600480360381019061036a91906144cb565b610cbd565b60405161037c9190614bf2565b60405180910390f35b34801561039157600080fd5b5061039a610ccf565b6040516103a79190614eea565b60405180910390f35b3480156103bc57600080fd5b506103c5610cd5565b6040516103d29190614c28565b60405180910390f35b3480156103e757600080fd5b5061040260048036038101906103fd9190614562565b610d67565b60405161040f9190614b47565b60405180910390f35b34801561042457600080fd5b5061043f600480360381019061043a9190614562565b610dec565b60405161044c9190614c28565b60405180910390f35b34801561046157600080fd5b5061047c6004803603810190610477919061442a565b610e8c565b005b34801561048a57600080fd5b506104a560048036038101906104a09190614562565b610fa4565b6040516104b29190614eea565b60405180910390f35b3480156104c757600080fd5b506104d0610fbc565b6040516104dd9190614eea565b60405180910390f35b3480156104f257600080fd5b5061050d60048036038101906105089190614324565b610fc9565b005b34801561051b57600080fd5b5061053660048036038101906105319190614466565b611029565b6040516105439190614c0d565b60405180910390f35b34801561055857600080fd5b50610561611049565b60405161056e9190614eea565b60405180910390f35b34801561058357600080fd5b5061059e6004803603810190610599919061460c565b611053565b6040516105ac929190614bc9565b60405180910390f35b3480156105c157600080fd5b506105ca61123e565b6040516105d79190614eea565b60405180910390f35b3480156105ec57600080fd5b506106076004803603810190610602919061448f565b611248565b005b34801561061557600080fd5b50610630600480360381019061062b919061442a565b611271565b60405161063d9190614eea565b60405180910390f35b34801561065257600080fd5b5061066d6004803603810190610668919061448f565b611316565b005b34801561067b57600080fd5b50610684611399565b005b34801561069257600080fd5b5061069b6113ba565b6040516106a89190614eea565b60405180910390f35b3480156106bd57600080fd5b506106d860048036038101906106d39190614324565b6113c0565b005b3480156106e657600080fd5b5061070160048036038101906106fc9190614562565b6113e0565b005b34801561070f57600080fd5b5061071861143c565b6040516107259190614c28565b60405180910390f35b34801561073a57600080fd5b506107436114ca565b6040516107509190614eea565b60405180910390f35b34801561076557600080fd5b50610780600480360381019061077b9190614562565b6114db565b60405161078d9190614eea565b60405180910390f35b3480156107a257600080fd5b506107bd60048036038101906107b8919061451d565b611572565b005b3480156107cb57600080fd5b506107d461159e565b6040516107e19190614b62565b60405180910390f35b3480156107f657600080fd5b50610811600480360381019061080c9190614562565b6115c4565b60405161081e9190614b47565b60405180910390f35b34801561083357600080fd5b5061084e60048036038101906108499190614296565b611676565b60405161085b9190614eea565b60405180910390f35b34801561087057600080fd5b50610879611875565b6040516108869190614c28565b60405180910390f35b34801561089b57600080fd5b506108a4611903565b6040516108b19190614c28565b60405180910390f35b3480156108c657600080fd5b506108cf611991565b6040516108dc9190614b62565b60405180910390f35b3480156108f157600080fd5b5061090c60048036038101906109079190614296565b6119bb565b6040516109199190614eea565b60405180910390f35b34801561092e57600080fd5b50610949600480360381019061094491906145b4565b611a73565b005b34801561095757600080fd5b50610960611ab1565b60405161096d9190614c28565b60405180910390f35b34801561098257600080fd5b5061098b611b3f565b6040516109989190614b62565b60405180910390f35b3480156109ad57600080fd5b506109c860048036038101906109c3919061451d565b611b69565b005b3480156109d657600080fd5b506109f160048036038101906109ec919061448f565b611b95565b6040516109fe9190614bf2565b60405180910390f35b348015610a1357600080fd5b50610a1c611c00565b604051610a299190614c28565b60405180910390f35b348015610a3e57600080fd5b50610a596004803603810190610a54919061460c565b611c92565b005b348015610a6757600080fd5b50610a70611d1d565b604051610a7d9190614f2e565b60405180910390f35b348015610a9257600080fd5b50610a9b611d3b565b604051610aa89190614c0d565b60405180910390f35b348015610abd57600080fd5b50610ad86004803603810190610ad391906143ee565b611d42565b005b348015610ae657600080fd5b50610b016004803603810190610afc9190614373565b611d58565b005b348015610b0f57600080fd5b50610b18611dba565b604051610b259190614c28565b60405180910390f35b348015610b3a57600080fd5b50610b556004803603810190610b509190614562565b611e48565b604051610b629190614c28565b60405180910390f35b348015610b7757600080fd5b50610b80611e8f565b604051610b8d9190614bf2565b60405180910390f35b348015610ba257600080fd5b50610bab611ea2565b604051610bb89190614c0d565b60405180910390f35b348015610bcd57600080fd5b50610be86004803603810190610be3919061448f565b611ec6565b005b348015610bf657600080fd5b50610bff611eef565b604051610c0c9190614b62565b60405180910390f35b348015610c2157600080fd5b50610c3c6004803603810190610c3791906142e8565b611f15565b604051610c499190614bf2565b60405180910390f35b348015610c5e57600080fd5b50610c67611fa9565b604051610c749190614eea565b60405180910390f35b348015610c8957600080fd5b50610c92611faf565b005b348015610ca057600080fd5b50610cbb6004803603810190610cb6919061451d565b612032565b005b6000610cc88261205e565b9050919050565b600d5481565b606060028054610ce490615220565b80601f0160208091040260200160405190810160405280929190818152602001828054610d1090615220565b8015610d5d5780601f10610d3257610100808354040283529160200191610d5d565b820191906000526020600020905b815481529060010190602001808311610d4057829003601f168201915b5050505050905090565b6000610d72826120d8565b610db1576040517f08c379a0000000000000000000000000000000000000000000000000000000008152600401610da890614dea565b60405180910390fd5b6006600083815260200190815260200160002060009054906101000a900473ffffffffffffffffffffffffffffffffffffffff169050919050565b60116020528060005260406000206000915090508054610e0b90615220565b80601f0160208091040260200160405190810160405280929190818152602001828054610e3790615220565b8015610e845780601f10610e5957610100808354040283529160200191610e84565b820191906000526020600020905b815481529060010190602001808311610e6757829003601f168201915b505050505081565b6000610e97826115c4565b90508073ffffffffffffffffffffffffffffffffffffffff168373ffffffffffffffffffffffffffffffffffffffff161415610f08576040517f08c379a0000000000000000000000000000000000000000000000000000000008152600401610eff90614e2a565b60405180910390fd5b8073ffffffffffffffffffffffffffffffffffffffff16610f27612144565b73ffffffffffffffffffffffffffffffffffffffff161480610f565750610f5581610f50612144565b611f15565b5b610f95576040517f08c379a0000000000000000000000000000000000000000000000000000000008152600401610f8c90614d6a565b60405180910390fd5b610f9f838361214c565b505050565b60106020528060005260406000206000915090505481565b6000600a80549050905090565b610fda610fd4612144565b82612205565b611019576040517f08c379a000000000000000000000000000000000000000000000000000000000815260040161101090614e4a565b60405180910390fd5b6110248383836122e3565b505050565b6000600c6000838152602001908152602001600020600101549050919050565b6000600d54905090565b6000806000600160008681526020019081526020016000206040518060400160405290816000820160009054906101000a900473ffffffffffffffffffffffffffffffffffffffff1673ffffffffffffffffffffffffffffffffffffffff1673ffffffffffffffffffffffffffffffffffffffff1681526020016000820160149054906101000a90046bffffffffffffffffffffffff166bffffffffffffffffffffffff166bffffffffffffffffffffffff16815250509050600073ffffffffffffffffffffffffffffffffffffffff16816000015173ffffffffffffffffffffffffffffffffffffffff1614156111e95760006040518060400160405290816000820160009054906101000a900473ffffffffffffffffffffffffffffffffffffffff1673ffffffffffffffffffffffffffffffffffffffff1673ffffffffffffffffffffffffffffffffffffffff1681526020016000820160149054906101000a90046bffffffffffffffffffffffff166bffffffffffffffffffffffff166bffffffffffffffffffffffff168152505090505b60006111f361254a565b6bffffffffffffffffffffffff1682602001516bffffffffffffffffffffffff168661121f919061507e565b611229919061504d565b90508160000151819350935050509250929050565b6000601654905090565b61125182611029565b6112628161125d612144565b612554565b61126c83836125f1565b505050565b600061127c836119bb565b82106112bd576040517f08c379a00000000000000000000000000000000000000000000000000000000081526004016112b490614c6a565b60405180910390fd5b600860008473ffffffffffffffffffffffffffffffffffffffff1673ffffffffffffffffffffffffffffffffffffffff168152602001908152602001600020600083815260200190815260200160002054905092915050565b61131e612144565b73ffffffffffffffffffffffffffffffffffffffff168173ffffffffffffffffffffffffffffffffffffffff161461138b576040517f08c379a000000000000000000000000000000000000000000000000000000000815260040161138290614eca565b60405180910390fd5b61139582826126d2565b5050565b6000801b6113ae816113a9612144565b612554565b6113b7476127b4565b50565b60165481565b6113db83838360405180602001604052806000815250611d58565b505050565b6113f16113eb612144565b82612205565b611430576040517f08c379a000000000000000000000000000000000000000000000000000000000815260040161142790614eaa565b60405180910390fd5b61143981612a85565b50565b601a805461144990615220565b80601f016020809104026020016040519081016040528092919081815260200182805461147590615220565b80156114c25780601f10611497576101008083540402835291602001916114c2565b820191906000526020600020905b8154815290600101906020018083116114a557829003601f168201915b505050505081565b60006114d66012612a91565b905090565b60006114e5610fbc565b8210611526576040517f08c379a000000000000000000000000000000000000000000000000000000000815260040161151d90614e6a565b60405180910390fd5b600a8281548110611560577f4e487b7100000000000000000000000000000000000000000000000000000000600052603260045260246000fd5b90600052602060002001549050919050565b6000801b61158781611582612144565b612554565b828260199190611598929190614099565b50505050565b601560009054906101000a900473ffffffffffffffffffffffffffffffffffffffff1681565b6000806004600084815260200190815260200160002060009054906101000a900473ffffffffffffffffffffffffffffffffffffffff169050600073ffffffffffffffffffffffffffffffffffffffff168173ffffffffffffffffffffffffffffffffffffffff16141561166d576040517f08c379a000000000000000000000000000000000000000000000000000000000815260040161166490614daa565b60405180910390fd5b80915050919050565b60007f9f2df0fed2c77648de5860a4cc508cd0818c85b8b8a1ab4ceeef8d981c8956a66116aa816116a5612144565b612554565b601460009054906101000a900460ff166116f9576040517f08c379a00000000000000000000000000000000000000000000000000000000081526004016116f090614d4a565b60405180910390fd5b611703600f612aa6565b9150600d548210611749576040517f08c379a000000000000000000000000000000000000000000000000000000000815260040161174090614e8a565b60405180910390fd5b611753600f612ab4565b61175d8383612aca565b6000600e60009054906101000a900473ffffffffffffffffffffffffffffffffffffffff1673ffffffffffffffffffffffffffffffffffffffff166329e5d83184426040518363ffffffff1660e01b81526004016117bc929190614f05565b60206040518083038186803b1580156117d457600080fd5b505afa1580156117e8573d6000803e3d6000fd5b505050506040513d601f19601f8201168201806040525081019061180c919061458b565b9050600061181a6012612a91565b8261182591906152cc565b9050600061183d826012612ae890919063ffffffff16565b905080601060008781526020019081526020016000208190555061186b816012612b0290919063ffffffff16565b5050505050919050565b601d805461188290615220565b80601f01602080910402602001604051908101604052809291908181526020018280546118ae90615220565b80156118fb5780601f106118d0576101008083540402835291602001916118fb565b820191906000526020600020905b8154815290600101906020018083116118de57829003601f168201915b505050505081565b6019805461191090615220565b80601f016020809104026020016040519081016040528092919081815260200182805461193c90615220565b80156119895780601f1061195e57610100808354040283529160200191611989565b820191906000526020600020905b81548152906001019060200180831161196c57829003601f168201915b505050505081565b6000601560009054906101000a900473ffffffffffffffffffffffffffffffffffffffff16905090565b60008073ffffffffffffffffffffffffffffffffffffffff168273ffffffffffffffffffffffffffffffffffffffff161415611a2c576040517f08c379a0000000000000000000000000000000000000000000000000000000008152600401611a2390614d8a565b60405180910390fd5b600560008373ffffffffffffffffffffffffffffffffffffffff1673ffffffffffffffffffffffffffffffffffffffff168152602001908152602001600020549050919050565b6000801b611a8881611a83612144565b612554565b8282601160008781526020019081526020016000209190611aaa929190614099565b5050505050565b601b8054611abe90615220565b80601f0160208091040260200160405190810160405280929190818152602001828054611aea90615220565b8015611b375780601f10611b0c57610100808354040283529160200191611b37565b820191906000526020600020905b815481529060010190602001808311611b1a57829003601f168201915b505050505081565b6000601460019054906101000a900473ffffffffffffffffffffffffffffffffffffffff16905090565b6000801b611b7e81611b79612144565b612554565b8282601b9190611b8f929190614099565b50505050565b6000600c600084815260200190815260200160002060000160008373ffffffffffffffffffffffffffffffffffffffff1673ffffffffffffffffffffffffffffffffffffffff16815260200190815260200160002060009054906101000a900460ff16905092915050565b606060038054611c0f90615220565b80601f0160208091040260200160405190810160405280929190818152602001828054611c3b90615220565b8015611c885780601f10611c5d57610100808354040283529160200191611c88565b820191906000526020600020905b815481529060010190602001808311611c6b57829003601f168201915b5050505050905090565b601460009054906101000a900460ff1615611ce2576040517f08c379a0000000000000000000000000000000000000000000000000000000008152600401611cd990614e0a565b60405180910390fd5b60008290505b81811015611d1857611d04816012612b1c90919063ffffffff16565b508080611d1090615283565b915050611ce8565b505050565b601860009054906101000a90046bffffffffffffffffffffffff1681565b6000801b81565b611d54611d4d612144565b8383612b36565b5050565b611d69611d63612144565b83612205565b611da8576040517f08c379a0000000000000000000000000000000000000000000000000000000008152600401611d9f90614e4a565b60405180910390fd5b611db484848484612ca3565b50505050565b601c8054611dc790615220565b80601f0160208091040260200160405190810160405280929190818152602001828054611df390615220565b8015611e405780601f10611e1557610100808354040283529160200191611e40565b820191906000526020600020905b815481529060010190602001808311611e2357829003601f168201915b505050505081565b60606019611e686010600085815260200190815260200160002054612cff565b604051602001611e79929190614ae9565b6040516020818303038152906040529050919050565b601460009054906101000a900460ff1681565b7f9f2df0fed2c77648de5860a4cc508cd0818c85b8b8a1ab4ceeef8d981c8956a681565b611ecf82611029565b611ee081611edb612144565b612554565b611eea83836126d2565b505050565b601460019054906101000a900473ffffffffffffffffffffffffffffffffffffffff1681565b6000600760008473ffffffffffffffffffffffffffffffffffffffff1673ffffffffffffffffffffffffffffffffffffffff16815260200190815260200160002060008373ffffffffffffffffffffffffffffffffffffffff1673ffffffffffffffffffffffffffffffffffffffff16815260200190815260200160002060009054906101000a900460ff16905092915050565b60175481565b6000801b611fc481611fbf612144565b612554565b601460009054906101000a900460ff1615612014576040517f08c379a000000000000000000000000000000000000000000000000000000000815260040161200b90614e0a565b60405180910390fd5b6001601460006101000a81548160ff02191690831515021790555050565b6000801b61204781612042612144565b612554565b8282601c9190612058929190614099565b50505050565b60007f7965db0b000000000000000000000000000000000000000000000000000000007bffffffffffffffffffffffffffffffffffffffffffffffffffffffff1916827bffffffffffffffffffffffffffffffffffffffffffffffffffffffff191614806120d157506120d082612eac565b5b9050919050565b60008073ffffffffffffffffffffffffffffffffffffffff166004600084815260200190815260200160002060009054906101000a900473ffffffffffffffffffffffffffffffffffffffff1673ffffffffffffffffffffffffffffffffffffffff1614159050919050565b600033905090565b816006600083815260200190815260200160002060006101000a81548173ffffffffffffffffffffffffffffffffffffffff021916908373ffffffffffffffffffffffffffffffffffffffff160217905550808273ffffffffffffffffffffffffffffffffffffffff166121bf836115c4565b73ffffffffffffffffffffffffffffffffffffffff167f8c5be1e5ebec7d5bd14f71427d1e84f3dd0314c0f7b2291e5b200ac8c7c3b92560405160405180910390a45050565b6000612210826120d8565b61224f576040517f08c379a000000000000000000000000000000000000000000000000000000000815260040161224690614d2a565b60405180910390fd5b600061225a836115c4565b90508073ffffffffffffffffffffffffffffffffffffffff168473ffffffffffffffffffffffffffffffffffffffff1614806122c957508373ffffffffffffffffffffffffffffffffffffffff166122b184610d67565b73ffffffffffffffffffffffffffffffffffffffff16145b806122da57506122d98185611f15565b5b91505092915050565b8273ffffffffffffffffffffffffffffffffffffffff16612303826115c4565b73ffffffffffffffffffffffffffffffffffffffff1614612359576040517f08c379a000000000000000000000000000000000000000000000000000000000815260040161235090614caa565b60405180910390fd5b600073ffffffffffffffffffffffffffffffffffffffff168273ffffffffffffffffffffffffffffffffffffffff1614156123c9576040517f08c379a00000000000000000000000000000000000000000000000000000000081526004016123c090614cea565b60405180910390fd5b6123d4838383612ebe565b6123df60008261214c565b6001600560008573ffffffffffffffffffffffffffffffffffffffff1673ffffffffffffffffffffffffffffffffffffffff168152602001908152602001600020600082825461242f91906150d8565b925050819055506001600560008473ffffffffffffffffffffffffffffffffffffffff1673ffffffffffffffffffffffffffffffffffffffff16815260200190815260200160002060008282546124869190614ff7565b92505081905550816004600083815260200190815260200160002060006101000a81548173ffffffffffffffffffffffffffffffffffffffff021916908373ffffffffffffffffffffffffffffffffffffffff160217905550808273ffffffffffffffffffffffffffffffffffffffff168473ffffffffffffffffffffffffffffffffffffffff167fddf252ad1be2c89b69c2b068fc378daa952ba7f163c4a11628f55a4df523b3ef60405160405180910390a4612545838383612ece565b505050565b6000612710905090565b61255e8282611b95565b6125ed576125838173ffffffffffffffffffffffffffffffffffffffff166014612ed3565b6125918360001c6020612ed3565b6040516020016125a2929190614b0d565b6040516020818303038152906040526040517f08c379a00000000000000000000000000000000000000000000000000000000081526004016125e49190614c28565b60405180910390fd5b5050565b6125fb8282611b95565b6126ce576001600c600084815260200190815260200160002060000160008373ffffffffffffffffffffffffffffffffffffffff1673ffffffffffffffffffffffffffffffffffffffff16815260200190815260200160002060006101000a81548160ff021916908315150217905550612673612144565b73ffffffffffffffffffffffffffffffffffffffff168173ffffffffffffffffffffffffffffffffffffffff16837f2f8788117e7eff1d82e926ec794901d17c78024a50270940304540a733656f0d60405160405180910390a45b5050565b6126dc8282611b95565b156127b0576000600c600084815260200190815260200160002060000160008373ffffffffffffffffffffffffffffffffffffffff1673ffffffffffffffffffffffffffffffffffffffff16815260200190815260200160002060006101000a81548160ff021916908315150217905550612755612144565b73ffffffffffffffffffffffffffffffffffffffff168173ffffffffffffffffffffffffffffffffffffffff16837ff6391f5c32d9c69d2a47ea670b442974b53935d1edc7fd64eb21e047a839171b60405160405180910390a45b5050565b6000811115612a82576000612710600e60009054906101000a900473ffffffffffffffffffffffffffffffffffffffff1673ffffffffffffffffffffffffffffffffffffffff1663d672131b6040518163ffffffff1660e01b8152600401602060405180830381600087803b15801561282c57600080fd5b505af1158015612840573d6000803e3d6000fd5b505050506040513d601f19601f82011682018060405250810190612864919061458b565b8361286f919061507e565b612879919061504d565b9050600e60009054906101000a900473ffffffffffffffffffffffffffffffffffffffff1673ffffffffffffffffffffffffffffffffffffffff16637dafc0d36040518163ffffffff1660e01b8152600401602060405180830381600087803b1580156128e557600080fd5b505af11580156128f9573d6000803e3d6000fd5b505050506040513d601f19601f8201168201806040525081019061291d91906142bf565b73ffffffffffffffffffffffffffffffffffffffff166108fc829081150290604051600060405180830381858888f19350505050158015612962573d6000803e3d6000fd5b50600061271060175484612976919061507e565b612980919061504d565b90506000811115612a0057601560009054906101000a900473ffffffffffffffffffffffffffffffffffffffff1673ffffffffffffffffffffffffffffffffffffffff166108fc83856129d391906150d8565b9081150290604051600060405180830381858888f193505050501580156129fe573d6000803e3d6000fd5b505b601460019054906101000a900473ffffffffffffffffffffffffffffffffffffffff1673ffffffffffffffffffffffffffffffffffffffff166108fc8284612a489190614ff7565b85612a5391906150d8565b9081150290604051600060405180830381858888f19350505050158015612a7e573d6000803e3d6000fd5b5050505b50565b612a8e816131cd565b50565b6000612a9f826000016131e2565b9050919050565b600081600001549050919050565b6001816000016000828254019250508190555050565b612ae48282604051806020016040528060008152506131f3565b5050565b6000612af7836000018361324e565b60001c905092915050565b6000612b14836000018360001b61329f565b905092915050565b6000612b2e836000018360001b613425565b905092915050565b8173ffffffffffffffffffffffffffffffffffffffff168373ffffffffffffffffffffffffffffffffffffffff161415612ba5576040517f08c379a0000000000000000000000000000000000000000000000000000000008152600401612b9c90614d0a565b60405180910390fd5b80600760008573ffffffffffffffffffffffffffffffffffffffff1673ffffffffffffffffffffffffffffffffffffffff16815260200190815260200160002060008473ffffffffffffffffffffffffffffffffffffffff1673ffffffffffffffffffffffffffffffffffffffff16815260200190815260200160002060006101000a81548160ff0219169083151502179055508173ffffffffffffffffffffffffffffffffffffffff168373ffffffffffffffffffffffffffffffffffffffff167f17307eab39ab6107e8899845ad3d59bd9653f200f220920489ca2b5937696c3183604051612c969190614bf2565b60405180910390a3505050565b612cae8484846122e3565b612cba84848484613495565b612cf9576040517f08c379a0000000000000000000000000000000000000000000000000000000008152600401612cf090614c8a565b60405180910390fd5b50505050565b60606000821415612d47576040518060400160405280600181526020017f30000000000000000000000000000000000000000000000000000000000000008152509050612ea7565b600082905060005b60008214612d79578080612d6290615283565b915050600a82612d72919061504d565b9150612d4f565b60008167ffffffffffffffff811115612dbb577f4e487b7100000000000000000000000000000000000000000000000000000000600052604160045260246000fd5b6040519080825280601f01601f191660200182016040528015612ded5781602001600182028036833780820191505090505b5090505b60008514612ea057600182612e0691906150d8565b9150600a85612e1591906152cc565b6030612e219190614ff7565b60f81b818381518110612e5d577f4e487b7100000000000000000000000000000000000000000000000000000000600052603260045260246000fd5b60200101907effffffffffffffffffffffffffffffffffffffffffffffffffffffffffffff1916908160001a905350600a85612e99919061504d565b9450612df1565b8093505050505b919050565b6000612eb78261362c565b9050919050565b612ec98383836136a6565b505050565b505050565b606060006002836002612ee6919061507e565b612ef09190614ff7565b67ffffffffffffffff811115612f2f577f4e487b7100000000000000000000000000000000000000000000000000000000600052604160045260246000fd5b6040519080825280601f01601f191660200182016040528015612f615781602001600182028036833780820191505090505b5090507f300000000000000000000000000000000000000000000000000000000000000081600081518110612fbf577f4e487b7100000000000000000000000000000000000000000000000000000000600052603260045260246000fd5b60200101907effffffffffffffffffffffffffffffffffffffffffffffffffffffffffffff1916908160001a9053507f780000000000000000000000000000000000000000000000000000000000000081600181518110613049577f4e487b7100000000000000000000000000000000000000000000000000000000600052603260045260246000fd5b60200101907effffffffffffffffffffffffffffffffffffffffffffffffffffffffffffff1916908160001a90535060006001846002613089919061507e565b6130939190614ff7565b90505b600181111561317f577f3031323334353637383961626364656600000000000000000000000000000000600f8616601081106130fb577f4e487b7100000000000000000000000000000000000000000000000000000000600052603260045260246000fd5b1a60f81b828281518110613138577f4e487b7100000000000000000000000000000000000000000000000000000000600052603260045260246000fd5b60200101907effffffffffffffffffffffffffffffffffffffffffffffffffffffffffffff1916908160001a905350600485901c945080613178906151f6565b9050613096565b50600084146131c3576040517f08c379a00000000000000000000000000000000000000000000000000000000081526004016131ba90614c4a565b60405180910390fd5b8091505092915050565b6131d6816137ba565b6131df816138d7565b50565b600081600001805490509050919050565b6131fd8383613936565b61320a6000848484613495565b613249576040517f08c379a000000000000000000000000000000000000000000000000000000000815260040161324090614c8a565b60405180910390fd5b505050565b600082600001828154811061328c577f4e487b7100000000000000000000000000000000000000000000000000000000600052603260045260246000fd5b9060005260206000200154905092915050565b600080836001016000848152602001908152602001600020549050600081146134195760006001826132d191906150d8565b90506000600186600001805490506132e991906150d8565b90508181146133a4576000866000018281548110613330577f4e487b7100000000000000000000000000000000000000000000000000000000600052603260045260246000fd5b906000526020600020015490508087600001848154811061337a577f4e487b7100000000000000000000000000000000000000000000000000000000600052603260045260246000fd5b90600052602060002001819055508387600101600083815260200190815260200160002081905550505b856000018054806133de577f4e487b7100000000000000000000000000000000000000000000000000000000600052603160045260246000fd5b60019003818190600052602060002001600090559055856001016000868152602001908152602001600020600090556001935050505061341f565b60009150505b92915050565b60006134318383613b10565b61348a57826000018290806001815401808255809150506001900390600052602060002001600090919091909150558260000180549050836001016000848152602001908152602001600020819055506001905061348f565b600090505b92915050565b60006134b68473ffffffffffffffffffffffffffffffffffffffff16613b33565b1561361f578373ffffffffffffffffffffffffffffffffffffffff1663150b7a026134df612144565b8786866040518563ffffffff1660e01b81526004016135019493929190614b7d565b602060405180830381600087803b15801561351b57600080fd5b505af192505050801561354c57506040513d601f19601f8201168201806040525081019061354991906144f4565b60015b6135cf573d806000811461357c576040519150601f19603f3d011682016040523d82523d6000602084013e613581565b606091505b506000815114156135c7576040517f08c379a00000000000000000000000000000000000000000000000000000000081526004016135be90614c8a565b60405180910390fd5b805181602001fd5b63150b7a0260e01b7bffffffffffffffffffffffffffffffffffffffffffffffffffffffff1916817bffffffffffffffffffffffffffffffffffffffffffffffffffffffff191614915050613624565b600190505b949350505050565b60007f780e9d63000000000000000000000000000000000000000000000000000000007bffffffffffffffffffffffffffffffffffffffffffffffffffffffff1916827bffffffffffffffffffffffffffffffffffffffffffffffffffffffff1916148061369f575061369e82613b56565b5b9050919050565b6136b1838383613c38565b600073ffffffffffffffffffffffffffffffffffffffff168373ffffffffffffffffffffffffffffffffffffffff1614156136f4576136ef81613c3d565b613733565b8173ffffffffffffffffffffffffffffffffffffffff168373ffffffffffffffffffffffffffffffffffffffff1614613732576137318382613c86565b5b5b600073ffffffffffffffffffffffffffffffffffffffff168273ffffffffffffffffffffffffffffffffffffffff1614156137765761377181613df3565b6137b5565b8273ffffffffffffffffffffffffffffffffffffffff168273ffffffffffffffffffffffffffffffffffffffff16146137b4576137b38282613f36565b5b5b505050565b60006137c5826115c4565b90506137d381600084612ebe565b6137de60008361214c565b6001600560008373ffffffffffffffffffffffffffffffffffffffff1673ffffffffffffffffffffffffffffffffffffffff168152602001908152602001600020600082825461382e91906150d8565b925050819055506004600083815260200190815260200160002060006101000a81549073ffffffffffffffffffffffffffffffffffffffff021916905581600073ffffffffffffffffffffffffffffffffffffffff168273ffffffffffffffffffffffffffffffffffffffff167fddf252ad1be2c89b69c2b068fc378daa952ba7f163c4a11628f55a4df523b3ef60405160405180910390a46138d381600084612ece565b5050565b60016000828152602001908152602001600020600080820160006101000a81549073ffffffffffffffffffffffffffffffffffffffff02191690556000820160146101000a8154906bffffffffffffffffffffffff0219169055505050565b600073ffffffffffffffffffffffffffffffffffffffff168273ffffffffffffffffffffffffffffffffffffffff1614156139a6576040517f08c379a000000000000000000000000000000000000000000000000000000000815260040161399d90614dca565b60405180910390fd5b6139af816120d8565b156139ef576040517f08c379a00000000000000000000000000000000000000000000000000000000081526004016139e690614cca565b60405180910390fd5b6139fb60008383612ebe565b6001600560008473ffffffffffffffffffffffffffffffffffffffff1673ffffffffffffffffffffffffffffffffffffffff1681526020019081526020016000206000828254613a4b9190614ff7565b92505081905550816004600083815260200190815260200160002060006101000a81548173ffffffffffffffffffffffffffffffffffffffff021916908373ffffffffffffffffffffffffffffffffffffffff160217905550808273ffffffffffffffffffffffffffffffffffffffff16600073ffffffffffffffffffffffffffffffffffffffff167fddf252ad1be2c89b69c2b068fc378daa952ba7f163c4a11628f55a4df523b3ef60405160405180910390a4613b0c60008383612ece565b5050565b600080836001016000848152602001908152602001600020541415905092915050565b6000808273ffffffffffffffffffffffffffffffffffffffff163b119050919050565b60007f80ac58cd000000000000000000000000000000000000000000000000000000007bffffffffffffffffffffffffffffffffffffffffffffffffffffffff1916827bffffffffffffffffffffffffffffffffffffffffffffffffffffffff19161480613c2157507f5b5e139f000000000000000000000000000000000000000000000000000000007bffffffffffffffffffffffffffffffffffffffffffffffffffffffff1916827bffffffffffffffffffffffffffffffffffffffffffffffffffffffff1916145b80613c315750613c3082613fb5565b5b9050919050565b505050565b600a80549050600b600083815260200190815260200160002081905550600a81908060018154018082558091505060019003906000526020600020016000909190919091505550565b60006001613c93846119bb565b613c9d91906150d8565b9050600060096000848152602001908152602001600020549050818114613d82576000600860008673ffffffffffffffffffffffffffffffffffffffff1673ffffffffffffffffffffffffffffffffffffffff168152602001908152602001600020600084815260200190815260200160002054905080600860008773ffffffffffffffffffffffffffffffffffffffff1673ffffffffffffffffffffffffffffffffffffffff168152602001908152602001600020600084815260200190815260200160002081905550816009600083815260200190815260200160002081905550505b6009600084815260200190815260200160002060009055600860008573ffffffffffffffffffffffffffffffffffffffff1673ffffffffffffffffffffffffffffffffffffffff16815260200190815260200160002060008381526020019081526020016000206000905550505050565b60006001600a80549050613e0791906150d8565b90506000600b60008481526020019081526020016000205490506000600a8381548110613e5d577f4e487b7100000000000000000000000000000000000000000000000000000000600052603260045260246000fd5b9060005260206000200154905080600a8381548110613ea5577f4e487b7100000000000000000000000000000000000000000000000000000000600052603260045260246000fd5b906000526020600020018190555081600b600083815260200190815260200160002081905550600b600085815260200190815260200160002060009055600a805480613f1a577f4e487b7100000000000000000000000000000000000000000000000000000000600052603160045260246000fd5b6001900381819060005260206000200160009055905550505050565b6000613f41836119bb565b905081600860008573ffffffffffffffffffffffffffffffffffffffff1673ffffffffffffffffffffffffffffffffffffffff168152602001908152602001600020600083815260200190815260200160002081905550806009600084815260200190815260200160002081905550505050565b60007f2a55205a000000000000000000000000000000000000000000000000000000007bffffffffffffffffffffffffffffffffffffffffffffffffffffffff1916827bffffffffffffffffffffffffffffffffffffffffffffffffffffffff1916148061402857506140278261402f565b5b9050919050565b60007f01ffc9a7000000000000000000000000000000000000000000000000000000007bffffffffffffffffffffffffffffffffffffffffffffffffffffffff1916827bffffffffffffffffffffffffffffffffffffffffffffffffffffffff1916149050919050565b8280546140a590615220565b90600052602060002090601f0160209004810192826140c7576000855561410e565b82601f106140e057803560ff191683800117855561410e565b8280016001018555821561410e579182015b8281111561410d5782358255916020019190600101906140f2565b5b50905061411b919061411f565b5090565b5b80821115614138576000816000905550600101614120565b5090565b600061414f61414a84614f6e565b614f49565b90508281526020810184848401111561416757600080fd5b6141728482856151b4565b509392505050565b6000813590506141898161598d565b92915050565b60008151905061419e816159a4565b92915050565b6000813590506141b3816159bb565b92915050565b6000813590506141c8816159d2565b92915050565b6000813590506141dd816159e9565b92915050565b6000815190506141f2816159e9565b92915050565b600082601f83011261420957600080fd5b813561421984826020860161413c565b91505092915050565b60008083601f84011261423457600080fd5b8235905067ffffffffffffffff81111561424d57600080fd5b60208301915083600182028301111561426557600080fd5b9250929050565b60008135905061427b81615a00565b92915050565b60008151905061429081615a00565b92915050565b6000602082840312156142a857600080fd5b60006142b68482850161417a565b91505092915050565b6000602082840312156142d157600080fd5b60006142df8482850161418f565b91505092915050565b600080604083850312156142fb57600080fd5b60006143098582860161417a565b925050602061431a8582860161417a565b9150509250929050565b60008060006060848603121561433957600080fd5b60006143478682870161417a565b93505060206143588682870161417a565b92505060406143698682870161426c565b9150509250925092565b6000806000806080858703121561438957600080fd5b60006143978782880161417a565b94505060206143a88782880161417a565b93505060406143b98782880161426c565b925050606085013567ffffffffffffffff8111156143d657600080fd5b6143e2878288016141f8565b91505092959194509250565b6000806040838503121561440157600080fd5b600061440f8582860161417a565b9250506020614420858286016141a4565b9150509250929050565b6000806040838503121561443d57600080fd5b600061444b8582860161417a565b925050602061445c8582860161426c565b9150509250929050565b60006020828403121561447857600080fd5b6000614486848285016141b9565b91505092915050565b600080604083850312156144a257600080fd5b60006144b0858286016141b9565b92505060206144c18582860161417a565b9150509250929050565b6000602082840312156144dd57600080fd5b60006144eb848285016141ce565b91505092915050565b60006020828403121561450657600080fd5b6000614514848285016141e3565b91505092915050565b6000806020838503121561453057600080fd5b600083013567ffffffffffffffff81111561454a57600080fd5b61455685828601614222565b92509250509250929050565b60006020828403121561457457600080fd5b60006145828482850161426c565b91505092915050565b60006020828403121561459d57600080fd5b60006145ab84828501614281565b91505092915050565b6000806000604084860312156145c957600080fd5b60006145d78682870161426c565b935050602084013567ffffffffffffffff8111156145f457600080fd5b61460086828701614222565b92509250509250925092565b6000806040838503121561461f57600080fd5b600061462d8582860161426c565b925050602061463e8582860161426c565b9150509250929050565b6146518161511e565b82525050565b6146608161510c565b82525050565b61466f81615130565b82525050565b61467e8161513c565b82525050565b600061468f82614fb4565b6146998185614fca565b93506146a98185602086016151c3565b6146b2816153b9565b840191505092915050565b60006146c882614fbf565b6146d28185614fdb565b93506146e28185602086016151c3565b6146eb816153b9565b840191505092915050565b600061470182614fbf565b61470b8185614fec565b935061471b8185602086016151c3565b80840191505092915050565b6000815461473481615220565b61473e8186614fec565b94506001821660008114614759576001811461476a5761479d565b60ff1983168652818601935061479d565b61477385614f9f565b60005b8381101561479557815481890152600182019150602081019050614776565b838801955050505b50505092915050565b60006147b3602083614fdb565b91506147be826153ca565b602082019050919050565b60006147d6602b83614fdb565b91506147e1826153f3565b604082019050919050565b60006147f9603283614fdb565b915061480482615442565b604082019050919050565b600061481c602583614fdb565b915061482782615491565b604082019050919050565b600061483f601c83614fdb565b915061484a826154e0565b602082019050919050565b6000614862602483614fdb565b915061486d82615509565b604082019050919050565b6000614885601983614fdb565b915061489082615558565b602082019050919050565b60006148a8602c83614fdb565b91506148b382615581565b604082019050919050565b60006148cb601383614fdb565b91506148d6826155d0565b602082019050919050565b60006148ee603883614fdb565b91506148f9826155f9565b604082019050919050565b6000614911602a83614fdb565b915061491c82615648565b604082019050919050565b6000614934602983614fdb565b915061493f82615697565b604082019050919050565b6000614957602083614fdb565b9150614962826156e6565b602082019050919050565b600061497a602c83614fdb565b91506149858261570f565b604082019050919050565b600061499d601783614fdb565b91506149a88261575e565b602082019050919050565b60006149c0602183614fdb565b91506149cb82615787565b604082019050919050565b60006149e3603183614fdb565b91506149ee826157d6565b604082019050919050565b6000614a06602c83614fdb565b9150614a1182615825565b604082019050919050565b6000614a29601783614fec565b9150614a3482615874565b601782019050919050565b6000614a4c601283614fdb565b9150614a578261589d565b602082019050919050565b6000614a6f603083614fdb565b9150614a7a826158c6565b604082019050919050565b6000614a92601183614fec565b9150614a9d82615915565b601182019050919050565b6000614ab5602f83614fdb565b9150614ac08261593e565b604082019050919050565b614ad481615192565b82525050565b614ae38161519c565b82525050565b6000614af58285614727565b9150614b0182846146f6565b91508190509392505050565b6000614b1882614a1c565b9150614b2482856146f6565b9150614b2f82614a85565b9150614b3b82846146f6565b91508190509392505050565b6000602082019050614b5c6000830184614657565b92915050565b6000602082019050614b776000830184614648565b92915050565b6000608082019050614b926000830187614657565b614b9f6020830186614657565b614bac6040830185614acb565b8181036060830152614bbe8184614684565b905095945050505050565b6000604082019050614bde6000830185614657565b614beb6020830184614acb565b9392505050565b6000602082019050614c076000830184614666565b92915050565b6000602082019050614c226000830184614675565b92915050565b60006020820190508181036000830152614c4281846146bd565b905092915050565b60006020820190508181036000830152614c63816147a6565b9050919050565b60006020820190508181036000830152614c83816147c9565b9050919050565b60006020820190508181036000830152614ca3816147ec565b9050919050565b60006020820190508181036000830152614cc38161480f565b9050919050565b60006020820190508181036000830152614ce381614832565b9050919050565b60006020820190508181036000830152614d0381614855565b9050919050565b60006020820190508181036000830152614d2381614878565b9050919050565b60006020820190508181036000830152614d438161489b565b9050919050565b60006020820190508181036000830152614d63816148be565b9050919050565b60006020820190508181036000830152614d83816148e1565b9050919050565b60006020820190508181036000830152614da381614904565b9050919050565b60006020820190508181036000830152614dc381614927565b9050919050565b60006020820190508181036000830152614de38161494a565b9050919050565b60006020820190508181036000830152614e038161496d565b9050919050565b60006020820190508181036000830152614e2381614990565b9050919050565b60006020820190508181036000830152614e43816149b3565b9050919050565b60006020820190508181036000830152614e63816149d6565b9050919050565b60006020820190508181036000830152614e83816149f9565b9050919050565b60006020820190508181036000830152614ea381614a3f565b9050919050565b60006020820190508181036000830152614ec381614a62565b9050919050565b60006020820190508181036000830152614ee381614aa8565b9050919050565b6000602082019050614eff6000830184614acb565b92915050565b6000604082019050614f1a6000830185614acb565b614f276020830184614acb565b9392505050565b6000602082019050614f436000830184614ada565b92915050565b6000614f53614f64565b9050614f5f8282615252565b919050565b6000604051905090565b600067ffffffffffffffff821115614f8957614f8861538a565b5b614f92826153b9565b9050602081019050919050565b60008190508160005260206000209050919050565b600081519050919050565b600081519050919050565b600082825260208201905092915050565b600082825260208201905092915050565b600081905092915050565b600061500282615192565b915061500d83615192565b9250827fffffffffffffffffffffffffffffffffffffffffffffffffffffffffffffffff03821115615042576150416152fd565b5b828201905092915050565b600061505882615192565b915061506383615192565b9250826150735761507261532c565b5b828204905092915050565b600061508982615192565b915061509483615192565b9250817fffffffffffffffffffffffffffffffffffffffffffffffffffffffffffffffff04831182151516156150cd576150cc6152fd565b5b828202905092915050565b60006150e382615192565b91506150ee83615192565b925082821015615101576151006152fd565b5b828203905092915050565b600061511782615172565b9050919050565b600061512982615172565b9050919050565b60008115159050919050565b6000819050919050565b60007fffffffff0000000000000000000000000000000000000000000000000000000082169050919050565b600073ffffffffffffffffffffffffffffffffffffffff82169050919050565b6000819050919050565b60006bffffffffffffffffffffffff82169050919050565b82818337600083830152505050565b60005b838110156151e15780820151818401526020810190506151c6565b838111156151f0576000848401525b50505050565b600061520182615192565b91506000821415615215576152146152fd565b5b600182039050919050565b6000600282049050600182168061523857607f821691505b6020821081141561524c5761524b61535b565b5b50919050565b61525b826153b9565b810181811067ffffffffffffffff8211171561527a5761527961538a565b5b80604052505050565b600061528e82615192565b91507fffffffffffffffffffffffffffffffffffffffffffffffffffffffffffffffff8214156152c1576152c06152fd565b5b600182019050919050565b60006152d782615192565b91506152e283615192565b9250826152f2576152f161532c565b5b828206905092915050565b7f4e487b7100000000000000000000000000000000000000000000000000000000600052601160045260246000fd5b7f4e487b7100000000000000000000000000000000000000000000000000000000600052601260045260246000fd5b7f4e487b7100000000000000000000000000000000000000000000000000000000600052602260045260246000fd5b7f4e487b7100000000000000000000000000000000000000000000000000000000600052604160045260246000fd5b6000601f19601f8301169050919050565b7f537472696e67733a20686578206c656e67746820696e73756666696369656e74600082015250565b7f455243373231456e756d657261626c653a206f776e657220696e646578206f7560008201527f74206f6620626f756e6473000000000000000000000000000000000000000000602082015250565b7f4552433732313a207472616e7366657220746f206e6f6e20455243373231526560008201527f63656976657220696d706c656d656e7465720000000000000000000000000000602082015250565b7f4552433732313a207472616e736665722066726f6d20696e636f72726563742060008201527f6f776e6572000000000000000000000000000000000000000000000000000000602082015250565b7f4552433732313a20746f6b656e20616c7265616479206d696e74656400000000600082015250565b7f4552433732313a207472616e7366657220746f20746865207a65726f2061646460008201527f7265737300000000000000000000000000000000000000000000000000000000602082015250565b7f4552433732313a20617070726f766520746f2063616c6c657200000000000000600082015250565b7f4552433732313a206f70657261746f7220717565727920666f72206e6f6e657860008201527f697374656e7420746f6b656e0000000000000000000000000000000000000000602082015250565b7f73657474696e6773206e6f74206c6f636b656400000000000000000000000000600082015250565b7f4552433732313a20617070726f76652063616c6c6572206973206e6f74206f7760008201527f6e6572206e6f7220617070726f76656420666f7220616c6c0000000000000000602082015250565b7f4552433732313a2062616c616e636520717565727920666f7220746865207a6560008201527f726f206164647265737300000000000000000000000000000000000000000000602082015250565b7f4552433732313a206f776e657220717565727920666f72206e6f6e657869737460008201527f656e7420746f6b656e0000000000000000000000000000000000000000000000602082015250565b7f4552433732313a206d696e7420746f20746865207a65726f2061646472657373600082015250565b7f4552433732313a20617070726f76656420717565727920666f72206e6f6e657860008201527f697374656e7420746f6b656e0000000000000000000000000000000000000000602082015250565b7f73657474696e677320616c7265616479206c6f636b6564000000000000000000600082015250565b7f4552433732313a20617070726f76616c20746f2063757272656e74206f776e6560008201527f7200000000000000000000000000000000000000000000000000000000000000602082015250565b7f4552433732313a207472616e736665722063616c6c6572206973206e6f74206f60008201527f776e6572206e6f7220617070726f766564000000000000000000000000000000602082015250565b7f455243373231456e756d657261626c653a20676c6f62616c20696e646578206f60008201527f7574206f6620626f756e64730000000000000000000000000000000000000000602082015250565b7f416363657373436f6e74726f6c3a206163636f756e7420000000000000000000600082015250565b7f737570706c792063617020726561636865640000000000000000000000000000600082015250565b7f4552433732314275726e61626c653a2063616c6c6572206973206e6f74206f7760008201527f6e6572206e6f7220617070726f76656400000000000000000000000000000000602082015250565b7f206973206d697373696e6720726f6c6520000000000000000000000000000000600082015250565b7f416363657373436f6e74726f6c3a2063616e206f6e6c792072656e6f756e636560008201527f20726f6c657320666f722073656c660000000000000000000000000000000000602082015250565b6159968161510c565b81146159a157600080fd5b50565b6159ad8161511e565b81146159b857600080fd5b50565b6159c481615130565b81146159cf57600080fd5b50565b6159db8161513c565b81146159e657600080fd5b50565b6159f281615146565b81146159fd57600080fd5b50565b615a0981615192565b8114615a1457600080fd5b5056fea26469706673582212204f9b6d3a83d37dca168928cbcb6a6b83a2c6e7315aab925d67c107fdc50dfedb64736f6c63430008020033",
  "linkReferences": {},
  "deployedLinkReferences": {}
}