{
  "_format": "hh-sol-artifact-1",
  "contractName": "FineNFT",
  "sourceName": "contracts/FineNFT.sol",
  "abi": [
    {
      "inputs": [
        {
          "internalType": "address",
          "name": "coreAddress",
          "type": "address"
        }
      ],
      "stateMutability": "nonpayable",
      "type": "constructor"
    },
    {
      "anonymous": false,
      "inputs": [
        {
          "indexed": true,
          "internalType": "address",
          "name": "owner",
          "type": "address"
        },
        {
          "indexed": true,
          "internalType": "address",
          "name": "approved",
          "type": "address"
        },
        {
          "indexed": true,
          "internalType": "uint256",
          "name": "tokenId",
          "type": "uint256"
        }
      ],
      "name": "Approval",
      "type": "event"
    },
    {
      "anonymous": false,
      "inputs": [
        {
          "indexed": true,
          "internalType": "address",
          "name": "owner",
          "type": "address"
        },
        {
          "indexed": true,
          "internalType": "address",
          "name": "operator",
          "type": "address"
        },
        {
          "indexed": false,
          "internalType": "bool",
          "name": "approved",
          "type": "bool"
        }
      ],
      "name": "ApprovalForAll",
      "type": "event"
    },
    {
      "anonymous": false,
      "inputs": [
        {
          "indexed": true,
          "internalType": "bytes32",
          "name": "role",
          "type": "bytes32"
        },
        {
          "indexed": true,
          "internalType": "bytes32",
          "name": "previousAdminRole",
          "type": "bytes32"
        },
        {
          "indexed": true,
          "internalType": "bytes32",
          "name": "newAdminRole",
          "type": "bytes32"
        }
      ],
      "name": "RoleAdminChanged",
      "type": "event"
    },
    {
      "anonymous": false,
      "inputs": [
        {
          "indexed": true,
          "internalType": "bytes32",
          "name": "role",
          "type": "bytes32"
        },
        {
          "indexed": true,
          "internalType": "address",
          "name": "account",
          "type": "address"
        },
        {
          "indexed": true,
          "internalType": "address",
          "name": "sender",
          "type": "address"
        }
      ],
      "name": "RoleGranted",
      "type": "event"
    },
    {
      "anonymous": false,
      "inputs": [
        {
          "indexed": true,
          "internalType": "bytes32",
          "name": "role",
          "type": "bytes32"
        },
        {
          "indexed": true,
          "internalType": "address",
          "name": "account",
          "type": "address"
        },
        {
          "indexed": true,
          "internalType": "address",
          "name": "sender",
          "type": "address"
        }
      ],
      "name": "RoleRevoked",
      "type": "event"
    },
    {
      "anonymous": false,
      "inputs": [
        {
          "indexed": true,
          "internalType": "address",
          "name": "from",
          "type": "address"
        },
        {
          "indexed": true,
          "internalType": "address",
          "name": "to",
          "type": "address"
        },
        {
          "indexed": true,
          "internalType": "uint256",
          "name": "tokenId",
          "type": "uint256"
        }
      ],
      "name": "Transfer",
      "type": "event"
    },
    {
      "inputs": [],
      "name": "DEFAULT_ADMIN_ROLE",
      "outputs": [
        {
          "internalType": "bytes32",
          "name": "",
          "type": "bytes32"
        }
      ],
      "stateMutability": "view",
      "type": "function"
    },
    {
      "inputs": [],
      "name": "MINTER_ROLE",
      "outputs": [
        {
          "internalType": "bytes32",
          "name": "",
          "type": "bytes32"
        }
      ],
      "stateMutability": "view",
      "type": "function"
    },
    {
      "inputs": [],
      "name": "TOTAL_SUPPLY",
      "outputs": [
        {
          "internalType": "uint256",
          "name": "",
          "type": "uint256"
        }
      ],
      "stateMutability": "view",
      "type": "function"
    },
    {
      "inputs": [],
      "name": "additionalPayee",
      "outputs": [
        {
          "internalType": "address payable",
          "name": "",
          "type": "address"
        }
      ],
      "stateMutability": "view",
      "type": "function"
    },
    {
      "inputs": [],
      "name": "additionalPayeePercentage",
      "outputs": [
        {
          "internalType": "uint256",
          "name": "",
          "type": "uint256"
        }
      ],
      "stateMutability": "view",
      "type": "function"
    },
    {
      "inputs": [
        {
          "internalType": "address",
          "name": "to",
          "type": "address"
        },
        {
          "internalType": "uint256",
          "name": "tokenId",
          "type": "uint256"
        }
      ],
      "name": "approve",
      "outputs": [],
      "stateMutability": "nonpayable",
      "type": "function"
    },
    {
      "inputs": [],
      "name": "artist",
      "outputs": [
        {
          "internalType": "string",
          "name": "",
          "type": "string"
        }
      ],
      "stateMutability": "view",
      "type": "function"
    },
    {
      "inputs": [],
      "name": "artistAddress",
      "outputs": [
        {
          "internalType": "address payable",
          "name": "",
          "type": "address"
        }
      ],
      "stateMutability": "view",
      "type": "function"
    },
    {
      "inputs": [
        {
          "internalType": "address",
          "name": "owner",
          "type": "address"
        }
      ],
      "name": "balanceOf",
      "outputs": [
        {
          "internalType": "uint256",
          "name": "",
          "type": "uint256"
        }
      ],
      "stateMutability": "view",
      "type": "function"
    },
    {
      "inputs": [
        {
          "internalType": "uint256",
          "name": "tokenId",
          "type": "uint256"
        }
      ],
      "name": "burn",
      "outputs": [],
      "stateMutability": "nonpayable",
      "type": "function"
    },
    {
      "inputs": [],
      "name": "description",
      "outputs": [
        {
          "internalType": "string",
          "name": "",
          "type": "string"
        }
      ],
      "stateMutability": "view",
      "type": "function"
    },
    {
      "inputs": [],
      "name": "getAdditionalPayee",
      "outputs": [
        {
          "internalType": "address payable",
          "name": "",
          "type": "address"
        }
      ],
      "stateMutability": "view",
      "type": "function"
    },
    {
      "inputs": [],
      "name": "getAdditionalPayeePercentage",
      "outputs": [
        {
          "internalType": "uint256",
          "name": "",
          "type": "uint256"
        }
      ],
      "stateMutability": "view",
      "type": "function"
    },
    {
      "inputs": [
        {
          "internalType": "uint256",
          "name": "tokenId",
          "type": "uint256"
        }
      ],
      "name": "getApproved",
      "outputs": [
        {
          "internalType": "address",
          "name": "",
          "type": "address"
        }
      ],
      "stateMutability": "view",
      "type": "function"
    },
    {
      "inputs": [],
      "name": "getArtistAddress",
      "outputs": [
        {
          "internalType": "address payable",
          "name": "",
          "type": "address"
        }
      ],
      "stateMutability": "view",
      "type": "function"
    },
    {
      "inputs": [
        {
          "internalType": "bytes32",
          "name": "role",
          "type": "bytes32"
        }
      ],
      "name": "getRoleAdmin",
      "outputs": [
        {
          "internalType": "bytes32",
          "name": "",
          "type": "bytes32"
        }
      ],
      "stateMutability": "view",
      "type": "function"
    },
    {
      "inputs": [
        {
          "internalType": "bytes32",
          "name": "role",
          "type": "bytes32"
        },
        {
          "internalType": "address",
          "name": "account",
          "type": "address"
        }
      ],
      "name": "grantRole",
      "outputs": [],
      "stateMutability": "nonpayable",
      "type": "function"
    },
    {
      "inputs": [
        {
          "internalType": "bytes32",
          "name": "role",
          "type": "bytes32"
        },
        {
          "internalType": "address",
          "name": "account",
          "type": "address"
        }
      ],
      "name": "hasRole",
      "outputs": [
        {
          "internalType": "bool",
          "name": "",
          "type": "bool"
        }
      ],
      "stateMutability": "view",
      "type": "function"
    },
    {
      "inputs": [
        {
          "internalType": "uint256",
          "name": "",
          "type": "uint256"
        }
      ],
      "name": "hashes",
      "outputs": [
        {
          "internalType": "uint256",
          "name": "",
          "type": "uint256"
        }
      ],
      "stateMutability": "view",
      "type": "function"
    },
    {
      "inputs": [
        {
          "internalType": "address",
          "name": "owner",
          "type": "address"
        },
        {
          "internalType": "address",
          "name": "operator",
          "type": "address"
        }
      ],
      "name": "isApprovedForAll",
      "outputs": [
        {
          "internalType": "bool",
          "name": "",
          "type": "bool"
        }
      ],
      "stateMutability": "view",
      "type": "function"
    },
    {
      "inputs": [],
      "name": "license",
      "outputs": [
        {
          "internalType": "string",
          "name": "",
          "type": "string"
        }
      ],
      "stateMutability": "view",
      "type": "function"
    },
    {
      "inputs": [
        {
          "internalType": "address",
          "name": "to",
          "type": "address"
        }
      ],
      "name": "mint",
      "outputs": [
        {
          "internalType": "uint256",
          "name": "tokenId",
          "type": "uint256"
        }
      ],
      "stateMutability": "nonpayable",
      "type": "function"
    },
    {
      "inputs": [],
      "name": "name",
      "outputs": [
        {
          "internalType": "string",
          "name": "",
          "type": "string"
        }
      ],
      "stateMutability": "view",
      "type": "function"
    },
    {
      "inputs": [
        {
          "internalType": "uint256",
          "name": "tokenId",
          "type": "uint256"
        }
      ],
      "name": "ownerOf",
      "outputs": [
        {
          "internalType": "address",
          "name": "",
          "type": "address"
        }
      ],
      "stateMutability": "view",
      "type": "function"
    },
    {
      "inputs": [],
      "name": "projectId",
      "outputs": [
        {
          "internalType": "uint256",
          "name": "",
          "type": "uint256"
        }
      ],
      "stateMutability": "view",
      "type": "function"
    },
    {
      "inputs": [
        {
          "internalType": "bytes32",
          "name": "role",
          "type": "bytes32"
        },
        {
          "internalType": "address",
          "name": "account",
          "type": "address"
        }
      ],
      "name": "renounceRole",
      "outputs": [],
      "stateMutability": "nonpayable",
      "type": "function"
    },
    {
      "inputs": [
        {
          "internalType": "bytes32",
          "name": "role",
          "type": "bytes32"
        },
        {
          "internalType": "address",
          "name": "account",
          "type": "address"
        }
      ],
      "name": "revokeRole",
      "outputs": [],
      "stateMutability": "nonpayable",
      "type": "function"
    },
    {
      "inputs": [
        {
          "internalType": "uint256",
          "name": "_tokenId",
          "type": "uint256"
        },
        {
          "internalType": "uint256",
          "name": "_salePrice",
          "type": "uint256"
        }
      ],
      "name": "royaltyInfo",
      "outputs": [
        {
          "internalType": "address",
          "name": "",
          "type": "address"
        },
        {
          "internalType": "uint256",
          "name": "",
          "type": "uint256"
        }
      ],
      "stateMutability": "view",
      "type": "function"
    },
    {
      "inputs": [
        {
          "internalType": "address",
          "name": "from",
          "type": "address"
        },
        {
          "internalType": "address",
          "name": "to",
          "type": "address"
        },
        {
          "internalType": "uint256",
          "name": "tokenId",
          "type": "uint256"
        }
      ],
      "name": "safeTransferFrom",
      "outputs": [],
      "stateMutability": "nonpayable",
      "type": "function"
    },
    {
      "inputs": [
        {
          "internalType": "address",
          "name": "from",
          "type": "address"
        },
        {
          "internalType": "address",
          "name": "to",
          "type": "address"
        },
        {
          "internalType": "uint256",
          "name": "tokenId",
          "type": "uint256"
        },
        {
          "internalType": "bytes",
          "name": "_data",
          "type": "bytes"
        }
      ],
      "name": "safeTransferFrom",
      "outputs": [],
      "stateMutability": "nonpayable",
      "type": "function"
    },
    {
      "inputs": [
        {
          "internalType": "uint256",
          "name": "",
          "type": "uint256"
        }
      ],
      "name": "scripts",
      "outputs": [
        {
          "internalType": "string",
          "name": "",
          "type": "string"
        }
      ],
      "stateMutability": "view",
      "type": "function"
    },
    {
      "inputs": [
        {
          "internalType": "address",
          "name": "operator",
          "type": "address"
        },
        {
          "internalType": "bool",
          "name": "approved",
          "type": "bool"
        }
      ],
      "name": "setApprovalForAll",
      "outputs": [],
      "stateMutability": "nonpayable",
      "type": "function"
    },
    {
      "inputs": [
        {
          "internalType": "string",
          "name": "_uri",
          "type": "string"
        }
      ],
      "name": "setBaseURI",
      "outputs": [],
      "stateMutability": "nonpayable",
      "type": "function"
    },
    {
      "inputs": [
        {
          "internalType": "string",
          "name": "_desc",
          "type": "string"
        }
      ],
      "name": "setDescription",
      "outputs": [],
      "stateMutability": "nonpayable",
      "type": "function"
    },
    {
      "inputs": [
        {
          "internalType": "uint256",
          "name": "index",
          "type": "uint256"
        },
        {
          "internalType": "string",
          "name": "script",
          "type": "string"
        }
      ],
      "name": "setScript",
      "outputs": [],
      "stateMutability": "nonpayable",
      "type": "function"
    },
    {
      "inputs": [
        {
          "internalType": "string",
          "name": "_url",
          "type": "string"
        }
      ],
      "name": "setWebsite",
      "outputs": [],
      "stateMutability": "nonpayable",
      "type": "function"
    },
    {
      "inputs": [
        {
          "internalType": "bytes4",
          "name": "interfaceId",
          "type": "bytes4"
        }
      ],
      "name": "supportsInterface",
      "outputs": [
        {
          "internalType": "bool",
          "name": "",
          "type": "bool"
        }
      ],
      "stateMutability": "view",
      "type": "function"
    },
    {
      "inputs": [],
      "name": "symbol",
      "outputs": [
        {
          "internalType": "string",
          "name": "",
          "type": "string"
        }
      ],
      "stateMutability": "view",
      "type": "function"
    },
    {
      "inputs": [
        {
          "internalType": "uint256",
          "name": "index",
          "type": "uint256"
        }
      ],
      "name": "tokenByIndex",
      "outputs": [
        {
          "internalType": "uint256",
          "name": "",
          "type": "uint256"
        }
      ],
      "stateMutability": "view",
      "type": "function"
    },
    {
      "inputs": [
        {
          "internalType": "address",
          "name": "owner",
          "type": "address"
        },
        {
          "internalType": "uint256",
          "name": "index",
          "type": "uint256"
        }
      ],
      "name": "tokenOfOwnerByIndex",
      "outputs": [
        {
          "internalType": "uint256",
          "name": "",
          "type": "uint256"
        }
      ],
      "stateMutability": "view",
      "type": "function"
    },
    {
      "inputs": [
        {
          "internalType": "uint256",
          "name": "tokenId",
          "type": "uint256"
        }
      ],
      "name": "tokenURI",
      "outputs": [
        {
          "internalType": "string",
          "name": "",
          "type": "string"
        }
      ],
      "stateMutability": "view",
      "type": "function"
    },
    {
      "inputs": [],
      "name": "totalSupply",
      "outputs": [
        {
          "internalType": "uint256",
          "name": "",
          "type": "uint256"
        }
      ],
      "stateMutability": "view",
      "type": "function"
    },
    {
      "inputs": [
        {
          "internalType": "address",
          "name": "from",
          "type": "address"
        },
        {
          "internalType": "address",
          "name": "to",
          "type": "address"
        },
        {
          "internalType": "uint256",
          "name": "tokenId",
          "type": "uint256"
        }
      ],
      "name": "transferFrom",
      "outputs": [],
      "stateMutability": "nonpayable",
      "type": "function"
    },
    {
      "inputs": [],
      "name": "website",
      "outputs": [
        {
          "internalType": "string",
          "name": "",
          "type": "string"
        }
      ],
      "stateMutability": "view",
      "type": "function"
    },
    {
      "inputs": [],
      "name": "withdraw",
      "outputs": [],
      "stateMutability": "nonpayable",
      "type": "function"
    }
  ],
  "bytecode": "0x60806040526103e8600d55604051806060016040528060228152602001620057d560229139601290805190602001906200003b9291906200069e565b50737a832c86002323a5de3a317b3281eb88ec3b2c00601360006101000a81548173ffffffffffffffffffffffffffffffffffffffff021916908373ffffffffffffffffffffffffffffffffffffffff1602179055506000601460006101000a81548173ffffffffffffffffffffffffffffffffffffffff021916908373ffffffffffffffffffffffffffffffffffffffff16021790555060006015556040518060400160405280600481526020017f66696e650000000000000000000000000000000000000000000000000000000081525060169080519060200190620001259291906200069e565b506040518060400160405280601581526020017f612073616d706c65204e465420666f722046494e45000000000000000000000081525060179080519060200190620001739291906200069e565b506040518060400160405280601881526020017f68747470733a2f2f6170692e66696e652e6469676974616c000000000000000081525060189080519060200190620001c19291906200069e565b506040518060400160405280600381526020017f4d49540000000000000000000000000000000000000000000000000000000000815250601990805190602001906200020f9291906200069e565b503480156200021d57600080fd5b50604051620057f7380380620057f7833981810160405281019062000243919062000765565b6040518060400160405280600c81526020017f46494e45204469676974616c00000000000000000000000000000000000000008152506040518060400160405280600481526020017f46494e45000000000000000000000000000000000000000000000000000000008152508160029080519060200190620002c79291906200069e565b508060039080519060200190620002e09291906200069e565b505050620002f86000801b336200038c60201b60201c565b6200032a7f9f2df0fed2c77648de5860a4cc508cd0818c85b8b8a1ab4ceeef8d981c8956a6336200038c60201b60201c565b80600e60006101000a81548173ffffffffffffffffffffffffffffffffffffffff021916908373ffffffffffffffffffffffffffffffffffffffff16021790555060006102ee90506200038430826200047e60201b60201c565b50506200095f565b6200039e82826200062160201b60201c565b6200047a576001600c600084815260200190815260200160002060000160008373ffffffffffffffffffffffffffffffffffffffff1673ffffffffffffffffffffffffffffffffffffffff16815260200190815260200160002060006101000a81548160ff0219169083151502179055506200041f6200068c60201b60201c565b73ffffffffffffffffffffffffffffffffffffffff168173ffffffffffffffffffffffffffffffffffffffff16837f2f8788117e7eff1d82e926ec794901d17c78024a50270940304540a733656f0d60405160405180910390a45b5050565b6200048e6200069460201b60201c565b6bffffffffffffffffffffffff16816bffffffffffffffffffffffff161115620004ef576040517f08c379a0000000000000000000000000000000000000000000000000000000008152600401620004e690620007df565b60405180910390fd5b600073ffffffffffffffffffffffffffffffffffffffff168273ffffffffffffffffffffffffffffffffffffffff16141562000562576040517f08c379a0000000000000000000000000000000000000000000000000000000008152600401620005599062000801565b60405180910390fd5b60405180604001604052808373ffffffffffffffffffffffffffffffffffffffff168152602001826bffffffffffffffffffffffff168152506000808201518160000160006101000a81548173ffffffffffffffffffffffffffffffffffffffff021916908373ffffffffffffffffffffffffffffffffffffffff16021790555060208201518160000160146101000a8154816bffffffffffffffffffffffff02191690836bffffffffffffffffffffffff1602179055509050505050565b6000600c600084815260200190815260200160002060000160008373ffffffffffffffffffffffffffffffffffffffff1673ffffffffffffffffffffffffffffffffffffffff16815260200190815260200160002060009054906101000a900460ff16905092915050565b600033905090565b6000612710905090565b828054620006ac9062000868565b90600052602060002090601f016020900481019282620006d057600085556200071c565b82601f10620006eb57805160ff19168380011785556200071c565b828001600101855582156200071c579182015b828111156200071b578251825591602001919060010190620006fe565b5b5090506200072b91906200072f565b5090565b5b808211156200074a57600081600090555060010162000730565b5090565b6000815190506200075f8162000945565b92915050565b6000602082840312156200077857600080fd5b600062000788848285016200074e565b91505092915050565b6000620007a0602a8362000823565b9150620007ad82620008cd565b604082019050919050565b6000620007c760198362000823565b9150620007d4826200091c565b602082019050919050565b60006020820190508181036000830152620007fa8162000791565b9050919050565b600060208201905081810360008301526200081c81620007b8565b9050919050565b600082825260208201905092915050565b6000620008418262000848565b9050919050565b600073ffffffffffffffffffffffffffffffffffffffff82169050919050565b600060028204905060018216806200088157607f821691505b602082108114156200089857620008976200089e565b5b50919050565b7f4e487b7100000000000000000000000000000000000000000000000000000000600052602260045260246000fd5b7f455243323938313a20726f79616c7479206665652077696c6c2065786365656460008201527f2073616c65507269636500000000000000000000000000000000000000000000602082015250565b7f455243323938313a20696e76616c696420726563656976657200000000000000600082015250565b620009508162000834565b81146200095c57600080fd5b50565b614e66806200096f6000396000f3fe608060405234801561001057600080fd5b506004361061027f5760003560e01c806359748cb21161015c57806391d14854116100ce578063c87b56dd11610087578063c87b56dd146107c5578063d5391393146107f5578063d547741f14610813578063d7eb3f3a1461082f578063e985e9c51461084d578063f87f44b91461087d5761027f565b806391d148541461070357806395d89b4114610733578063a217fddf14610751578063a22cb4651461076f578063b88d4fde1461078b578063beb0a416146107a75761027f565b806370a082311161012057806370a082311461064157806371199d30146106715780637284e4161461068d5780638cbe8d80146106ab578063902d55a5146106c957806390c3f38f146106e75761027f565b806359748cb2146105875780636352211e146105a55780636a627842146105d55780636b87d24c146106055780636ff314c7146106235761027f565b80632f745c59116101f557806342842e0e116101b957806342842e0e146104b557806342966c68146104d157806343bc1612146104ed5780634f6ccce71461050b578063501895ae1461053b57806355f804b31461056b5761027f565b80632f745c591461042357806336568abe146104535780633ccfd60b1461046f5780633fafa1271461047957806340138ff1146104975761027f565b806318160ddd1161024757806318160ddd1461034e57806323b872dd1461036c578063248a9ca3146103885780632a55205a146103b85780632cc88974146103e95780632f2ff15d146104075761027f565b806301ffc9a71461028457806306fdde03146102b4578063081812fc146102d257806308ff7f6114610302578063095ea7b314610332575b600080fd5b61029e60048036038101906102999190613a17565b610899565b6040516102ab919061408d565b60405180910390f35b6102bc6108ab565b6040516102c991906140c3565b60405180910390f35b6102ec60048036038101906102e79190613aae565b61093d565b6040516102f99190613fe2565b60405180910390f35b61031c60048036038101906103179190613aae565b6109c2565b60405161032991906140c3565b60405180910390f35b61034c60048036038101906103479190613976565b610a62565b005b610356610b7a565b6040516103639190614365565b60405180910390f35b61038660048036038101906103819190613870565b610b87565b005b6103a2600480360381019061039d91906139b2565b610be7565b6040516103af91906140a8565b60405180910390f35b6103d260048036038101906103cd9190613b58565b610c07565b6040516103e0929190614064565b60405180910390f35b6103f1610df2565b6040516103fe9190614365565b60405180910390f35b610421600480360381019061041c91906139db565b610dfc565b005b61043d60048036038101906104389190613976565b610e25565b60405161044a9190614365565b60405180910390f35b61046d600480360381019061046891906139db565b610eca565b005b610477610f4d565b005b610481610fb2565b60405161048e9190614365565b60405180910390f35b61049f611064565b6040516104ac9190614365565b60405180910390f35b6104cf60048036038101906104ca9190613870565b61106a565b005b6104eb60048036038101906104e69190613aae565b61108a565b005b6104f56110e6565b60405161050291906140c3565b60405180910390f35b61052560048036038101906105209190613aae565b611174565b6040516105329190614365565b60405180910390f35b61055560048036038101906105509190613aae565b61120b565b6040516105629190614365565b60405180910390f35b61058560048036038101906105809190613a69565b611223565b005b61058f61124f565b60405161059c9190613ffd565b60405180910390f35b6105bf60048036038101906105ba9190613aae565b611275565b6040516105cc9190613fe2565b60405180910390f35b6105ef60048036038101906105ea919061380b565b611327565b6040516105fc9190614365565b60405180910390f35b61060d611489565b60405161061a91906140c3565b60405180910390f35b61062b611517565b6040516106389190613ffd565b60405180910390f35b61065b6004803603810190610656919061380b565b611541565b6040516106689190614365565b60405180910390f35b61068b60048036038101906106869190613b00565b6115f9565b005b610695611637565b6040516106a291906140c3565b60405180910390f35b6106b36116c5565b6040516106c09190613ffd565b60405180910390f35b6106d16116ef565b6040516106de9190614365565b60405180910390f35b61070160048036038101906106fc9190613a69565b6116f5565b005b61071d600480360381019061071891906139db565b611721565b60405161072a919061408d565b60405180910390f35b61073b61178c565b60405161074891906140c3565b60405180910390f35b61075961181e565b60405161076691906140a8565b60405180910390f35b6107896004803603810190610784919061393a565b611825565b005b6107a560048036038101906107a091906138bf565b61183b565b005b6107af61189d565b6040516107bc91906140c3565b60405180910390f35b6107df60048036038101906107da9190613aae565b61192b565b6040516107ec91906140c3565b60405180910390f35b6107fd6119d2565b60405161080a91906140a8565b60405180910390f35b61082d600480360381019061082891906139db565b6119f6565b005b610837611a1f565b6040516108449190613ffd565b60405180910390f35b61086760048036038101906108629190613834565b611a45565b604051610874919061408d565b60405180910390f35b61089760048036038101906108929190613a69565b611ad9565b005b60006108a482611b05565b9050919050565b6060600280546108ba90614653565b80601f01602080910402602001604051908101604052809291908181526020018280546108e690614653565b80156109335780601f1061090857610100808354040283529160200191610933565b820191906000526020600020905b81548152906001019060200180831161091657829003601f168201915b5050505050905090565b600061094882611b7f565b610987576040517f08c379a000000000000000000000000000000000000000000000000000000000815260040161097e90614265565b60405180910390fd5b6006600083815260200190815260200160002060009054906101000a900473ffffffffffffffffffffffffffffffffffffffff169050919050565b601160205280600052604060002060009150905080546109e190614653565b80601f0160208091040260200160405190810160405280929190818152602001828054610a0d90614653565b8015610a5a5780601f10610a2f57610100808354040283529160200191610a5a565b820191906000526020600020905b815481529060010190602001808311610a3d57829003601f168201915b505050505081565b6000610a6d82611275565b90508073ffffffffffffffffffffffffffffffffffffffff168373ffffffffffffffffffffffffffffffffffffffff161415610ade576040517f08c379a0000000000000000000000000000000000000000000000000000000008152600401610ad5906142a5565b60405180910390fd5b8073ffffffffffffffffffffffffffffffffffffffff16610afd611beb565b73ffffffffffffffffffffffffffffffffffffffff161480610b2c5750610b2b81610b26611beb565b611a45565b5b610b6b576040517f08c379a0000000000000000000000000000000000000000000000000000000008152600401610b62906141e5565b60405180910390fd5b610b758383611bf3565b505050565b6000600a80549050905090565b610b98610b92611beb565b82611cac565b610bd7576040517f08c379a0000000000000000000000000000000000000000000000000000000008152600401610bce906142c5565b60405180910390fd5b610be2838383611d8a565b505050565b6000600c6000838152602001908152602001600020600101549050919050565b6000806000600160008681526020019081526020016000206040518060400160405290816000820160009054906101000a900473ffffffffffffffffffffffffffffffffffffffff1673ffffffffffffffffffffffffffffffffffffffff1673ffffffffffffffffffffffffffffffffffffffff1681526020016000820160149054906101000a90046bffffffffffffffffffffffff166bffffffffffffffffffffffff166bffffffffffffffffffffffff16815250509050600073ffffffffffffffffffffffffffffffffffffffff16816000015173ffffffffffffffffffffffffffffffffffffffff161415610d9d5760006040518060400160405290816000820160009054906101000a900473ffffffffffffffffffffffffffffffffffffffff1673ffffffffffffffffffffffffffffffffffffffff1673ffffffffffffffffffffffffffffffffffffffff1681526020016000820160149054906101000a90046bffffffffffffffffffffffff166bffffffffffffffffffffffff166bffffffffffffffffffffffff168152505090505b6000610da7611ff1565b6bffffffffffffffffffffffff1682602001516bffffffffffffffffffffffff1686610dd391906144c9565b610ddd9190614498565b90508160000151819350935050509250929050565b6000601554905090565b610e0582610be7565b610e1681610e11611beb565b611ffb565b610e208383612098565b505050565b6000610e3083611541565b8210610e71576040517f08c379a0000000000000000000000000000000000000000000000000000000008152600401610e6890614105565b60405180910390fd5b600860008473ffffffffffffffffffffffffffffffffffffffff1673ffffffffffffffffffffffffffffffffffffffff168152602001908152602001600020600083815260200190815260200160002054905092915050565b610ed2611beb565b73ffffffffffffffffffffffffffffffffffffffff168173ffffffffffffffffffffffffffffffffffffffff1614610f3f576040517f08c379a0000000000000000000000000000000000000000000000000000000008152600401610f3690614345565b60405180910390fd5b610f498282612179565b5050565b6000801b610f6281610f5d611beb565b611ffb565b60003390508073ffffffffffffffffffffffffffffffffffffffff166108fc479081150290604051600060405180830381858888f19350505050158015610fad573d6000803e3d6000fd5b505050565b6000600e60009054906101000a900473ffffffffffffffffffffffffffffffffffffffff1673ffffffffffffffffffffffffffffffffffffffff1663aee233b3306040518263ffffffff1660e01b815260040161100f9190613fe2565b60206040518083038186803b15801561102757600080fd5b505afa15801561103b573d6000803e3d6000fd5b505050506040513d601f19601f8201168201806040525081019061105f9190613ad7565b905090565b60155481565b6110858383836040518060200160405280600081525061183b565b505050565b61109b611095611beb565b82611cac565b6110da576040517f08c379a00000000000000000000000000000000000000000000000000000000081526004016110d190614325565b60405180910390fd5b6110e38161225b565b50565b601680546110f390614653565b80601f016020809104026020016040519081016040528092919081815260200182805461111f90614653565b801561116c5780601f106111415761010080835404028352916020019161116c565b820191906000526020600020905b81548152906001019060200180831161114f57829003601f168201915b505050505081565b600061117e610b7a565b82106111bf576040517f08c379a00000000000000000000000000000000000000000000000000000000081526004016111b6906142e5565b60405180910390fd5b600a82815481106111f9577f4e487b7100000000000000000000000000000000000000000000000000000000600052603260045260246000fd5b90600052602060002001549050919050565b60106020528060005260406000206000915090505481565b6000801b61123881611233611beb565b611ffb565b828260129190611249929190613623565b50505050565b601460009054906101000a900473ffffffffffffffffffffffffffffffffffffffff1681565b6000806004600084815260200190815260200160002060009054906101000a900473ffffffffffffffffffffffffffffffffffffffff169050600073ffffffffffffffffffffffffffffffffffffffff168173ffffffffffffffffffffffffffffffffffffffff16141561131e576040517f08c379a000000000000000000000000000000000000000000000000000000000815260040161131590614225565b60405180910390fd5b80915050919050565b60007f9f2df0fed2c77648de5860a4cc508cd0818c85b8b8a1ab4ceeef8d981c8956a661135b81611356611beb565b611ffb565b611365600f612267565b9150600d5482106113ab576040517f08c379a00000000000000000000000000000000000000000000000000000000081526004016113a290614305565b60405180910390fd5b6113b5600f612275565b6113bf838361228b565b600e60009054906101000a900473ffffffffffffffffffffffffffffffffffffffff1673ffffffffffffffffffffffffffffffffffffffff166329e5d83183426040518363ffffffff1660e01b815260040161141c929190614380565b60206040518083038186803b15801561143457600080fd5b505afa158015611448573d6000803e3d6000fd5b505050506040513d601f19601f8201168201806040525081019061146c9190613ad7565b601060008481526020019081526020016000208190555050919050565b6019805461149690614653565b80601f01602080910402602001604051908101604052809291908181526020018280546114c290614653565b801561150f5780601f106114e45761010080835404028352916020019161150f565b820191906000526020600020905b8154815290600101906020018083116114f257829003601f168201915b505050505081565b6000601460009054906101000a900473ffffffffffffffffffffffffffffffffffffffff16905090565b60008073ffffffffffffffffffffffffffffffffffffffff168273ffffffffffffffffffffffffffffffffffffffff1614156115b2576040517f08c379a00000000000000000000000000000000000000000000000000000000081526004016115a990614205565b60405180910390fd5b600560008373ffffffffffffffffffffffffffffffffffffffff1673ffffffffffffffffffffffffffffffffffffffff168152602001908152602001600020549050919050565b6000801b61160e81611609611beb565b611ffb565b8282601160008781526020019081526020016000209190611630929190613623565b5050505050565b6017805461164490614653565b80601f016020809104026020016040519081016040528092919081815260200182805461167090614653565b80156116bd5780601f10611692576101008083540402835291602001916116bd565b820191906000526020600020905b8154815290600101906020018083116116a057829003601f168201915b505050505081565b6000601360009054906101000a900473ffffffffffffffffffffffffffffffffffffffff16905090565b600d5481565b6000801b61170a81611705611beb565b611ffb565b82826017919061171b929190613623565b50505050565b6000600c600084815260200190815260200160002060000160008373ffffffffffffffffffffffffffffffffffffffff1673ffffffffffffffffffffffffffffffffffffffff16815260200190815260200160002060009054906101000a900460ff16905092915050565b60606003805461179b90614653565b80601f01602080910402602001604051908101604052809291908181526020018280546117c790614653565b80156118145780601f106117e957610100808354040283529160200191611814565b820191906000526020600020905b8154815290600101906020018083116117f757829003601f168201915b5050505050905090565b6000801b81565b611837611830611beb565b83836122a9565b5050565b61184c611846611beb565b83611cac565b61188b576040517f08c379a0000000000000000000000000000000000000000000000000000000008152600401611882906142c5565b60405180910390fd5b61189784848484612416565b50505050565b601880546118aa90614653565b80601f01602080910402602001604051908101604052809291908181526020018280546118d690614653565b80156119235780601f106118f857610100808354040283529160200191611923565b820191906000526020600020905b81548152906001019060200180831161190657829003601f168201915b505050505081565b606061193682611b7f565b611975576040517f08c379a000000000000000000000000000000000000000000000000000000000815260040161196c90614285565b60405180910390fd5b600061197f612472565b9050600081511161199f57604051806020016040528060008152506119ca565b806119a984612504565b6040516020016119ba929190613f84565b6040516020818303038152906040525b915050919050565b7f9f2df0fed2c77648de5860a4cc508cd0818c85b8b8a1ab4ceeef8d981c8956a681565b6119ff82610be7565b611a1081611a0b611beb565b611ffb565b611a1a8383612179565b505050565b601360009054906101000a900473ffffffffffffffffffffffffffffffffffffffff1681565b6000600760008473ffffffffffffffffffffffffffffffffffffffff1673ffffffffffffffffffffffffffffffffffffffff16815260200190815260200160002060008373ffffffffffffffffffffffffffffffffffffffff1673ffffffffffffffffffffffffffffffffffffffff16815260200190815260200160002060009054906101000a900460ff16905092915050565b6000801b611aee81611ae9611beb565b611ffb565b828260189190611aff929190613623565b50505050565b60007f7965db0b000000000000000000000000000000000000000000000000000000007bffffffffffffffffffffffffffffffffffffffffffffffffffffffff1916827bffffffffffffffffffffffffffffffffffffffffffffffffffffffff19161480611b785750611b77826126b1565b5b9050919050565b60008073ffffffffffffffffffffffffffffffffffffffff166004600084815260200190815260200160002060009054906101000a900473ffffffffffffffffffffffffffffffffffffffff1673ffffffffffffffffffffffffffffffffffffffff1614159050919050565b600033905090565b816006600083815260200190815260200160002060006101000a81548173ffffffffffffffffffffffffffffffffffffffff021916908373ffffffffffffffffffffffffffffffffffffffff160217905550808273ffffffffffffffffffffffffffffffffffffffff16611c6683611275565b73ffffffffffffffffffffffffffffffffffffffff167f8c5be1e5ebec7d5bd14f71427d1e84f3dd0314c0f7b2291e5b200ac8c7c3b92560405160405180910390a45050565b6000611cb782611b7f565b611cf6576040517f08c379a0000000000000000000000000000000000000000000000000000000008152600401611ced906141c5565b60405180910390fd5b6000611d0183611275565b90508073ffffffffffffffffffffffffffffffffffffffff168473ffffffffffffffffffffffffffffffffffffffff161480611d7057508373ffffffffffffffffffffffffffffffffffffffff16611d588461093d565b73ffffffffffffffffffffffffffffffffffffffff16145b80611d815750611d808185611a45565b5b91505092915050565b8273ffffffffffffffffffffffffffffffffffffffff16611daa82611275565b73ffffffffffffffffffffffffffffffffffffffff1614611e00576040517f08c379a0000000000000000000000000000000000000000000000000000000008152600401611df790614145565b60405180910390fd5b600073ffffffffffffffffffffffffffffffffffffffff168273ffffffffffffffffffffffffffffffffffffffff161415611e70576040517f08c379a0000000000000000000000000000000000000000000000000000000008152600401611e6790614185565b60405180910390fd5b611e7b8383836126c3565b611e86600082611bf3565b6001600560008573ffffffffffffffffffffffffffffffffffffffff1673ffffffffffffffffffffffffffffffffffffffff1681526020019081526020016000206000828254611ed69190614523565b925050819055506001600560008473ffffffffffffffffffffffffffffffffffffffff1673ffffffffffffffffffffffffffffffffffffffff1681526020019081526020016000206000828254611f2d9190614442565b92505081905550816004600083815260200190815260200160002060006101000a81548173ffffffffffffffffffffffffffffffffffffffff021916908373ffffffffffffffffffffffffffffffffffffffff160217905550808273ffffffffffffffffffffffffffffffffffffffff168473ffffffffffffffffffffffffffffffffffffffff167fddf252ad1be2c89b69c2b068fc378daa952ba7f163c4a11628f55a4df523b3ef60405160405180910390a4611fec8383836126d3565b505050565b6000612710905090565b6120058282611721565b6120945761202a8173ffffffffffffffffffffffffffffffffffffffff1660146126d8565b6120388360001c60206126d8565b604051602001612049929190613fa8565b6040516020818303038152906040526040517f08c379a000000000000000000000000000000000000000000000000000000000815260040161208b91906140c3565b60405180910390fd5b5050565b6120a28282611721565b612175576001600c600084815260200190815260200160002060000160008373ffffffffffffffffffffffffffffffffffffffff1673ffffffffffffffffffffffffffffffffffffffff16815260200190815260200160002060006101000a81548160ff02191690831515021790555061211a611beb565b73ffffffffffffffffffffffffffffffffffffffff168173ffffffffffffffffffffffffffffffffffffffff16837f2f8788117e7eff1d82e926ec794901d17c78024a50270940304540a733656f0d60405160405180910390a45b5050565b6121838282611721565b15612257576000600c600084815260200190815260200160002060000160008373ffffffffffffffffffffffffffffffffffffffff1673ffffffffffffffffffffffffffffffffffffffff16815260200190815260200160002060006101000a81548160ff0219169083151502179055506121fc611beb565b73ffffffffffffffffffffffffffffffffffffffff168173ffffffffffffffffffffffffffffffffffffffff16837ff6391f5c32d9c69d2a47ea670b442974b53935d1edc7fd64eb21e047a839171b60405160405180910390a45b5050565b612264816129d2565b50565b600081600001549050919050565b6001816000016000828254019250508190555050565b6122a58282604051806020016040528060008152506129e7565b5050565b8173ffffffffffffffffffffffffffffffffffffffff168373ffffffffffffffffffffffffffffffffffffffff161415612318576040517f08c379a000000000000000000000000000000000000000000000000000000000815260040161230f906141a5565b60405180910390fd5b80600760008573ffffffffffffffffffffffffffffffffffffffff1673ffffffffffffffffffffffffffffffffffffffff16815260200190815260200160002060008473ffffffffffffffffffffffffffffffffffffffff1673ffffffffffffffffffffffffffffffffffffffff16815260200190815260200160002060006101000a81548160ff0219169083151502179055508173ffffffffffffffffffffffffffffffffffffffff168373ffffffffffffffffffffffffffffffffffffffff167f17307eab39ab6107e8899845ad3d59bd9653f200f220920489ca2b5937696c3183604051612409919061408d565b60405180910390a3505050565b612421848484611d8a565b61242d84848484612a42565b61246c576040517f08c379a000000000000000000000000000000000000000000000000000000000815260040161246390614125565b60405180910390fd5b50505050565b60606012805461248190614653565b80601f01602080910402602001604051908101604052809291908181526020018280546124ad90614653565b80156124fa5780601f106124cf576101008083540402835291602001916124fa565b820191906000526020600020905b8154815290600101906020018083116124dd57829003601f168201915b5050505050905090565b6060600082141561254c576040518060400160405280600181526020017f300000000000000000000000000000000000000000000000000000000000000081525090506126ac565b600082905060005b6000821461257e578080612567906146b6565b915050600a826125779190614498565b9150612554565b60008167ffffffffffffffff8111156125c0577f4e487b7100000000000000000000000000000000000000000000000000000000600052604160045260246000fd5b6040519080825280601f01601f1916602001820160405280156125f25781602001600182028036833780820191505090505b5090505b600085146126a55760018261260b9190614523565b9150600a8561261a91906146ff565b60306126269190614442565b60f81b818381518110612662577f4e487b7100000000000000000000000000000000000000000000000000000000600052603260045260246000fd5b60200101907effffffffffffffffffffffffffffffffffffffffffffffffffffffffffffff1916908160001a905350600a8561269e9190614498565b94506125f6565b8093505050505b919050565b60006126bc82612bd9565b9050919050565b6126ce838383612c53565b505050565b505050565b6060600060028360026126eb91906144c9565b6126f59190614442565b67ffffffffffffffff811115612734577f4e487b7100000000000000000000000000000000000000000000000000000000600052604160045260246000fd5b6040519080825280601f01601f1916602001820160405280156127665781602001600182028036833780820191505090505b5090507f3000000000000000000000000000000000000000000000000000000000000000816000815181106127c4577f4e487b7100000000000000000000000000000000000000000000000000000000600052603260045260246000fd5b60200101907effffffffffffffffffffffffffffffffffffffffffffffffffffffffffffff1916908160001a9053507f78000000000000000000000000000000000000000000000000000000000000008160018151811061284e577f4e487b7100000000000000000000000000000000000000000000000000000000600052603260045260246000fd5b60200101907effffffffffffffffffffffffffffffffffffffffffffffffffffffffffffff1916908160001a9053506000600184600261288e91906144c9565b6128989190614442565b90505b6001811115612984577f3031323334353637383961626364656600000000000000000000000000000000600f861660108110612900577f4e487b7100000000000000000000000000000000000000000000000000000000600052603260045260246000fd5b1a60f81b82828151811061293d577f4e487b7100000000000000000000000000000000000000000000000000000000600052603260045260246000fd5b60200101907effffffffffffffffffffffffffffffffffffffffffffffffffffffffffffff1916908160001a905350600485901c94508061297d90614629565b905061289b565b50600084146129c8576040517f08c379a00000000000000000000000000000000000000000000000000000000081526004016129bf906140e5565b60405180910390fd5b8091505092915050565b6129db81612d67565b6129e481612e84565b50565b6129f18383612ee3565b6129fe6000848484612a42565b612a3d576040517f08c379a0000000000000000000000000000000000000000000000000000000008152600401612a3490614125565b60405180910390fd5b505050565b6000612a638473ffffffffffffffffffffffffffffffffffffffff166130bd565b15612bcc578373ffffffffffffffffffffffffffffffffffffffff1663150b7a02612a8c611beb565b8786866040518563ffffffff1660e01b8152600401612aae9493929190614018565b602060405180830381600087803b158015612ac857600080fd5b505af1925050508015612af957506040513d601f19601f82011682018060405250810190612af69190613a40565b60015b612b7c573d8060008114612b29576040519150601f19603f3d011682016040523d82523d6000602084013e612b2e565b606091505b50600081511415612b74576040517f08c379a0000000000000000000000000000000000000000000000000000000008152600401612b6b90614125565b60405180910390fd5b805181602001fd5b63150b7a0260e01b7bffffffffffffffffffffffffffffffffffffffffffffffffffffffff1916817bffffffffffffffffffffffffffffffffffffffffffffffffffffffff191614915050612bd1565b600190505b949350505050565b60007f780e9d63000000000000000000000000000000000000000000000000000000007bffffffffffffffffffffffffffffffffffffffffffffffffffffffff1916827bffffffffffffffffffffffffffffffffffffffffffffffffffffffff19161480612c4c5750612c4b826130e0565b5b9050919050565b612c5e8383836131c2565b600073ffffffffffffffffffffffffffffffffffffffff168373ffffffffffffffffffffffffffffffffffffffff161415612ca157612c9c816131c7565b612ce0565b8173ffffffffffffffffffffffffffffffffffffffff168373ffffffffffffffffffffffffffffffffffffffff1614612cdf57612cde8382613210565b5b5b600073ffffffffffffffffffffffffffffffffffffffff168273ffffffffffffffffffffffffffffffffffffffff161415612d2357612d1e8161337d565b612d62565b8273ffffffffffffffffffffffffffffffffffffffff168273ffffffffffffffffffffffffffffffffffffffff1614612d6157612d6082826134c0565b5b5b505050565b6000612d7282611275565b9050612d80816000846126c3565b612d8b600083611bf3565b6001600560008373ffffffffffffffffffffffffffffffffffffffff1673ffffffffffffffffffffffffffffffffffffffff1681526020019081526020016000206000828254612ddb9190614523565b925050819055506004600083815260200190815260200160002060006101000a81549073ffffffffffffffffffffffffffffffffffffffff021916905581600073ffffffffffffffffffffffffffffffffffffffff168273ffffffffffffffffffffffffffffffffffffffff167fddf252ad1be2c89b69c2b068fc378daa952ba7f163c4a11628f55a4df523b3ef60405160405180910390a4612e80816000846126d3565b5050565b60016000828152602001908152602001600020600080820160006101000a81549073ffffffffffffffffffffffffffffffffffffffff02191690556000820160146101000a8154906bffffffffffffffffffffffff0219169055505050565b600073ffffffffffffffffffffffffffffffffffffffff168273ffffffffffffffffffffffffffffffffffffffff161415612f53576040517f08c379a0000000000000000000000000000000000000000000000000000000008152600401612f4a90614245565b60405180910390fd5b612f5c81611b7f565b15612f9c576040517f08c379a0000000000000000000000000000000000000000000000000000000008152600401612f9390614165565b60405180910390fd5b612fa8600083836126c3565b6001600560008473ffffffffffffffffffffffffffffffffffffffff1673ffffffffffffffffffffffffffffffffffffffff1681526020019081526020016000206000828254612ff89190614442565b92505081905550816004600083815260200190815260200160002060006101000a81548173ffffffffffffffffffffffffffffffffffffffff021916908373ffffffffffffffffffffffffffffffffffffffff160217905550808273ffffffffffffffffffffffffffffffffffffffff16600073ffffffffffffffffffffffffffffffffffffffff167fddf252ad1be2c89b69c2b068fc378daa952ba7f163c4a11628f55a4df523b3ef60405160405180910390a46130b9600083836126d3565b5050565b6000808273ffffffffffffffffffffffffffffffffffffffff163b119050919050565b60007f80ac58cd000000000000000000000000000000000000000000000000000000007bffffffffffffffffffffffffffffffffffffffffffffffffffffffff1916827bffffffffffffffffffffffffffffffffffffffffffffffffffffffff191614806131ab57507f5b5e139f000000000000000000000000000000000000000000000000000000007bffffffffffffffffffffffffffffffffffffffffffffffffffffffff1916827bffffffffffffffffffffffffffffffffffffffffffffffffffffffff1916145b806131bb57506131ba8261353f565b5b9050919050565b505050565b600a80549050600b600083815260200190815260200160002081905550600a81908060018154018082558091505060019003906000526020600020016000909190919091505550565b6000600161321d84611541565b6132279190614523565b905060006009600084815260200190815260200160002054905081811461330c576000600860008673ffffffffffffffffffffffffffffffffffffffff1673ffffffffffffffffffffffffffffffffffffffff168152602001908152602001600020600084815260200190815260200160002054905080600860008773ffffffffffffffffffffffffffffffffffffffff1673ffffffffffffffffffffffffffffffffffffffff168152602001908152602001600020600084815260200190815260200160002081905550816009600083815260200190815260200160002081905550505b6009600084815260200190815260200160002060009055600860008573ffffffffffffffffffffffffffffffffffffffff1673ffffffffffffffffffffffffffffffffffffffff16815260200190815260200160002060008381526020019081526020016000206000905550505050565b60006001600a805490506133919190614523565b90506000600b60008481526020019081526020016000205490506000600a83815481106133e7577f4e487b7100000000000000000000000000000000000000000000000000000000600052603260045260246000fd5b9060005260206000200154905080600a838154811061342f577f4e487b7100000000000000000000000000000000000000000000000000000000600052603260045260246000fd5b906000526020600020018190555081600b600083815260200190815260200160002081905550600b600085815260200190815260200160002060009055600a8054806134a4577f4e487b7100000000000000000000000000000000000000000000000000000000600052603160045260246000fd5b6001900381819060005260206000200160009055905550505050565b60006134cb83611541565b905081600860008573ffffffffffffffffffffffffffffffffffffffff1673ffffffffffffffffffffffffffffffffffffffff168152602001908152602001600020600083815260200190815260200160002081905550806009600084815260200190815260200160002081905550505050565b60007f2a55205a000000000000000000000000000000000000000000000000000000007bffffffffffffffffffffffffffffffffffffffffffffffffffffffff1916827bffffffffffffffffffffffffffffffffffffffffffffffffffffffff191614806135b257506135b1826135b9565b5b9050919050565b60007f01ffc9a7000000000000000000000000000000000000000000000000000000007bffffffffffffffffffffffffffffffffffffffffffffffffffffffff1916827bffffffffffffffffffffffffffffffffffffffffffffffffffffffff1916149050919050565b82805461362f90614653565b90600052602060002090601f0160209004810192826136515760008555613698565b82601f1061366a57803560ff1916838001178555613698565b82800160010185558215613698579182015b8281111561369757823582559160200191906001019061367c565b5b5090506136a591906136a9565b5090565b5b808211156136c25760008160009055506001016136aa565b5090565b60006136d96136d4846143ce565b6143a9565b9050828152602081018484840111156136f157600080fd5b6136fc8482856145e7565b509392505050565b60008135905061371381614dbd565b92915050565b60008135905061372881614dd4565b92915050565b60008135905061373d81614deb565b92915050565b60008135905061375281614e02565b92915050565b60008151905061376781614e02565b92915050565b600082601f83011261377e57600080fd5b813561378e8482602086016136c6565b91505092915050565b60008083601f8401126137a957600080fd5b8235905067ffffffffffffffff8111156137c257600080fd5b6020830191508360018202830111156137da57600080fd5b9250929050565b6000813590506137f081614e19565b92915050565b60008151905061380581614e19565b92915050565b60006020828403121561381d57600080fd5b600061382b84828501613704565b91505092915050565b6000806040838503121561384757600080fd5b600061385585828601613704565b925050602061386685828601613704565b9150509250929050565b60008060006060848603121561388557600080fd5b600061389386828701613704565b93505060206138a486828701613704565b92505060406138b5868287016137e1565b9150509250925092565b600080600080608085870312156138d557600080fd5b60006138e387828801613704565b94505060206138f487828801613704565b9350506040613905878288016137e1565b925050606085013567ffffffffffffffff81111561392257600080fd5b61392e8782880161376d565b91505092959194509250565b6000806040838503121561394d57600080fd5b600061395b85828601613704565b925050602061396c85828601613719565b9150509250929050565b6000806040838503121561398957600080fd5b600061399785828601613704565b92505060206139a8858286016137e1565b9150509250929050565b6000602082840312156139c457600080fd5b60006139d28482850161372e565b91505092915050565b600080604083850312156139ee57600080fd5b60006139fc8582860161372e565b9250506020613a0d85828601613704565b9150509250929050565b600060208284031215613a2957600080fd5b6000613a3784828501613743565b91505092915050565b600060208284031215613a5257600080fd5b6000613a6084828501613758565b91505092915050565b60008060208385031215613a7c57600080fd5b600083013567ffffffffffffffff811115613a9657600080fd5b613aa285828601613797565b92509250509250929050565b600060208284031215613ac057600080fd5b6000613ace848285016137e1565b91505092915050565b600060208284031215613ae957600080fd5b6000613af7848285016137f6565b91505092915050565b600080600060408486031215613b1557600080fd5b6000613b23868287016137e1565b935050602084013567ffffffffffffffff811115613b4057600080fd5b613b4c86828701613797565b92509250509250925092565b60008060408385031215613b6b57600080fd5b6000613b79858286016137e1565b9250506020613b8a858286016137e1565b9150509250929050565b613b9d81614569565b82525050565b613bac81614557565b82525050565b613bbb8161457b565b82525050565b613bca81614587565b82525050565b6000613bdb826143ff565b613be58185614415565b9350613bf58185602086016145f6565b613bfe816147ec565b840191505092915050565b6000613c148261440a565b613c1e8185614426565b9350613c2e8185602086016145f6565b613c37816147ec565b840191505092915050565b6000613c4d8261440a565b613c578185614437565b9350613c678185602086016145f6565b80840191505092915050565b6000613c80602083614426565b9150613c8b826147fd565b602082019050919050565b6000613ca3602b83614426565b9150613cae82614826565b604082019050919050565b6000613cc6603283614426565b9150613cd182614875565b604082019050919050565b6000613ce9602583614426565b9150613cf4826148c4565b604082019050919050565b6000613d0c601c83614426565b9150613d1782614913565b602082019050919050565b6000613d2f602483614426565b9150613d3a8261493c565b604082019050919050565b6000613d52601983614426565b9150613d5d8261498b565b602082019050919050565b6000613d75602c83614426565b9150613d80826149b4565b604082019050919050565b6000613d98603883614426565b9150613da382614a03565b604082019050919050565b6000613dbb602a83614426565b9150613dc682614a52565b604082019050919050565b6000613dde602983614426565b9150613de982614aa1565b604082019050919050565b6000613e01602083614426565b9150613e0c82614af0565b602082019050919050565b6000613e24602c83614426565b9150613e2f82614b19565b604082019050919050565b6000613e47602f83614426565b9150613e5282614b68565b604082019050919050565b6000613e6a602183614426565b9150613e7582614bb7565b604082019050919050565b6000613e8d603183614426565b9150613e9882614c06565b604082019050919050565b6000613eb0602c83614426565b9150613ebb82614c55565b604082019050919050565b6000613ed3601783614437565b9150613ede82614ca4565b601782019050919050565b6000613ef6601283614426565b9150613f0182614ccd565b602082019050919050565b6000613f19603083614426565b9150613f2482614cf6565b604082019050919050565b6000613f3c601183614437565b9150613f4782614d45565b601182019050919050565b6000613f5f602f83614426565b9150613f6a82614d6e565b604082019050919050565b613f7e816145dd565b82525050565b6000613f908285613c42565b9150613f9c8284613c42565b91508190509392505050565b6000613fb382613ec6565b9150613fbf8285613c42565b9150613fca82613f2f565b9150613fd68284613c42565b91508190509392505050565b6000602082019050613ff76000830184613ba3565b92915050565b60006020820190506140126000830184613b94565b92915050565b600060808201905061402d6000830187613ba3565b61403a6020830186613ba3565b6140476040830185613f75565b81810360608301526140598184613bd0565b905095945050505050565b60006040820190506140796000830185613ba3565b6140866020830184613f75565b9392505050565b60006020820190506140a26000830184613bb2565b92915050565b60006020820190506140bd6000830184613bc1565b92915050565b600060208201905081810360008301526140dd8184613c09565b905092915050565b600060208201905081810360008301526140fe81613c73565b9050919050565b6000602082019050818103600083015261411e81613c96565b9050919050565b6000602082019050818103600083015261413e81613cb9565b9050919050565b6000602082019050818103600083015261415e81613cdc565b9050919050565b6000602082019050818103600083015261417e81613cff565b9050919050565b6000602082019050818103600083015261419e81613d22565b9050919050565b600060208201905081810360008301526141be81613d45565b9050919050565b600060208201905081810360008301526141de81613d68565b9050919050565b600060208201905081810360008301526141fe81613d8b565b9050919050565b6000602082019050818103600083015261421e81613dae565b9050919050565b6000602082019050818103600083015261423e81613dd1565b9050919050565b6000602082019050818103600083015261425e81613df4565b9050919050565b6000602082019050818103600083015261427e81613e17565b9050919050565b6000602082019050818103600083015261429e81613e3a565b9050919050565b600060208201905081810360008301526142be81613e5d565b9050919050565b600060208201905081810360008301526142de81613e80565b9050919050565b600060208201905081810360008301526142fe81613ea3565b9050919050565b6000602082019050818103600083015261431e81613ee9565b9050919050565b6000602082019050818103600083015261433e81613f0c565b9050919050565b6000602082019050818103600083015261435e81613f52565b9050919050565b600060208201905061437a6000830184613f75565b92915050565b60006040820190506143956000830185613f75565b6143a26020830184613f75565b9392505050565b60006143b36143c4565b90506143bf8282614685565b919050565b6000604051905090565b600067ffffffffffffffff8211156143e9576143e86147bd565b5b6143f2826147ec565b9050602081019050919050565b600081519050919050565b600081519050919050565b600082825260208201905092915050565b600082825260208201905092915050565b600081905092915050565b600061444d826145dd565b9150614458836145dd565b9250827fffffffffffffffffffffffffffffffffffffffffffffffffffffffffffffffff0382111561448d5761448c614730565b5b828201905092915050565b60006144a3826145dd565b91506144ae836145dd565b9250826144be576144bd61475f565b5b828204905092915050565b60006144d4826145dd565b91506144df836145dd565b9250817fffffffffffffffffffffffffffffffffffffffffffffffffffffffffffffffff048311821515161561451857614517614730565b5b828202905092915050565b600061452e826145dd565b9150614539836145dd565b92508282101561454c5761454b614730565b5b828203905092915050565b6000614562826145bd565b9050919050565b6000614574826145bd565b9050919050565b60008115159050919050565b6000819050919050565b60007fffffffff0000000000000000000000000000000000000000000000000000000082169050919050565b600073ffffffffffffffffffffffffffffffffffffffff82169050919050565b6000819050919050565b82818337600083830152505050565b60005b838110156146145780820151818401526020810190506145f9565b83811115614623576000848401525b50505050565b6000614634826145dd565b9150600082141561464857614647614730565b5b600182039050919050565b6000600282049050600182168061466b57607f821691505b6020821081141561467f5761467e61478e565b5b50919050565b61468e826147ec565b810181811067ffffffffffffffff821117156146ad576146ac6147bd565b5b80604052505050565b60006146c1826145dd565b91507fffffffffffffffffffffffffffffffffffffffffffffffffffffffffffffffff8214156146f4576146f3614730565b5b600182019050919050565b600061470a826145dd565b9150614715836145dd565b9250826147255761472461475f565b5b828206905092915050565b7f4e487b7100000000000000000000000000000000000000000000000000000000600052601160045260246000fd5b7f4e487b7100000000000000000000000000000000000000000000000000000000600052601260045260246000fd5b7f4e487b7100000000000000000000000000000000000000000000000000000000600052602260045260246000fd5b7f4e487b7100000000000000000000000000000000000000000000000000000000600052604160045260246000fd5b6000601f19601f8301169050919050565b7f537472696e67733a20686578206c656e67746820696e73756666696369656e74600082015250565b7f455243373231456e756d657261626c653a206f776e657220696e646578206f7560008201527f74206f6620626f756e6473000000000000000000000000000000000000000000602082015250565b7f4552433732313a207472616e7366657220746f206e6f6e20455243373231526560008201527f63656976657220696d706c656d656e7465720000000000000000000000000000602082015250565b7f4552433732313a207472616e736665722066726f6d20696e636f72726563742060008201527f6f776e6572000000000000000000000000000000000000000000000000000000602082015250565b7f4552433732313a20746f6b656e20616c7265616479206d696e74656400000000600082015250565b7f4552433732313a207472616e7366657220746f20746865207a65726f2061646460008201527f7265737300000000000000000000000000000000000000000000000000000000602082015250565b7f4552433732313a20617070726f766520746f2063616c6c657200000000000000600082015250565b7f4552433732313a206f70657261746f7220717565727920666f72206e6f6e657860008201527f697374656e7420746f6b656e0000000000000000000000000000000000000000602082015250565b7f4552433732313a20617070726f76652063616c6c6572206973206e6f74206f7760008201527f6e6572206e6f7220617070726f76656420666f7220616c6c0000000000000000602082015250565b7f4552433732313a2062616c616e636520717565727920666f7220746865207a6560008201527f726f206164647265737300000000000000000000000000000000000000000000602082015250565b7f4552433732313a206f776e657220717565727920666f72206e6f6e657869737460008201527f656e7420746f6b656e0000000000000000000000000000000000000000000000602082015250565b7f4552433732313a206d696e7420746f20746865207a65726f2061646472657373600082015250565b7f4552433732313a20617070726f76656420717565727920666f72206e6f6e657860008201527f697374656e7420746f6b656e0000000000000000000000000000000000000000602082015250565b7f4552433732314d657461646174613a2055524920717565727920666f72206e6f60008201527f6e6578697374656e7420746f6b656e0000000000000000000000000000000000602082015250565b7f4552433732313a20617070726f76616c20746f2063757272656e74206f776e6560008201527f7200000000000000000000000000000000000000000000000000000000000000602082015250565b7f4552433732313a207472616e736665722063616c6c6572206973206e6f74206f60008201527f776e6572206e6f7220617070726f766564000000000000000000000000000000602082015250565b7f455243373231456e756d657261626c653a20676c6f62616c20696e646578206f60008201527f7574206f6620626f756e64730000000000000000000000000000000000000000602082015250565b7f416363657373436f6e74726f6c3a206163636f756e7420000000000000000000600082015250565b7f737570706c792063617020726561636865640000000000000000000000000000600082015250565b7f4552433732314275726e61626c653a2063616c6c6572206973206e6f74206f7760008201527f6e6572206e6f7220617070726f76656400000000000000000000000000000000602082015250565b7f206973206d697373696e6720726f6c6520000000000000000000000000000000600082015250565b7f416363657373436f6e74726f6c3a2063616e206f6e6c792072656e6f756e636560008201527f20726f6c657320666f722073656c660000000000000000000000000000000000602082015250565b614dc681614557565b8114614dd157600080fd5b50565b614ddd8161457b565b8114614de857600080fd5b50565b614df481614587565b8114614dff57600080fd5b50565b614e0b81614591565b8114614e1657600080fd5b50565b614e22816145dd565b8114614e2d57600080fd5b5056fea2646970667358221220fe4671f92c88fdbc7a70215d22a129fbf59a4825903019c68ff2ebc0aea8de6a64736f6c6343000802003368747470733a2f2f6170692e66696e652e6469676974616c2f6d657461646174612f",
  "linkReferences": {},
  "deployedLinkReferences": {}
}