{
  "_format": "hh-sol-artifact-1",
  "contractName": "FineCore",
  "sourceName": "contracts/FineCore.sol",
  "abi": [
    {
      "inputs": [
        {
          "internalType": "address",
          "name": "entropySourceAddress",
          "type": "address"
        }
      ],
      "stateMutability": "nonpayable",
      "type": "constructor"
    },
    {
      "anonymous": false,
      "inputs": [
        {
          "indexed": true,
          "internalType": "bytes32",
          "name": "role",
          "type": "bytes32"
        },
        {
          "indexed": true,
          "internalType": "bytes32",
          "name": "previousAdminRole",
          "type": "bytes32"
        },
        {
          "indexed": true,
          "internalType": "bytes32",
          "name": "newAdminRole",
          "type": "bytes32"
        }
      ],
      "name": "RoleAdminChanged",
      "type": "event"
    },
    {
      "anonymous": false,
      "inputs": [
        {
          "indexed": true,
          "internalType": "bytes32",
          "name": "role",
          "type": "bytes32"
        },
        {
          "indexed": true,
          "internalType": "address",
          "name": "account",
          "type": "address"
        },
        {
          "indexed": true,
          "internalType": "address",
          "name": "sender",
          "type": "address"
        }
      ],
      "name": "RoleGranted",
      "type": "event"
    },
    {
      "anonymous": false,
      "inputs": [
        {
          "indexed": true,
          "internalType": "bytes32",
          "name": "role",
          "type": "bytes32"
        },
        {
          "indexed": true,
          "internalType": "address",
          "name": "account",
          "type": "address"
        },
        {
          "indexed": true,
          "internalType": "address",
          "name": "sender",
          "type": "address"
        }
      ],
      "name": "RoleRevoked",
      "type": "event"
    },
    {
      "inputs": [],
      "name": "DEFAULT_ADMIN_ROLE",
      "outputs": [
        {
          "internalType": "bytes32",
          "name": "",
          "type": "bytes32"
        }
      ],
      "stateMutability": "view",
      "type": "function"
    },
    {
      "inputs": [],
      "name": "FINE_TREASURY",
      "outputs": [
        {
          "internalType": "address payable",
          "name": "",
          "type": "address"
        }
      ],
      "stateMutability": "view",
      "type": "function"
    },
    {
      "inputs": [
        {
          "internalType": "address",
          "name": "project",
          "type": "address"
        }
      ],
      "name": "addProject",
      "outputs": [],
      "stateMutability": "nonpayable",
      "type": "function"
    },
    {
      "inputs": [
        {
          "internalType": "address",
          "name": "",
          "type": "address"
        }
      ],
      "name": "allowlist",
      "outputs": [
        {
          "internalType": "bool",
          "name": "",
          "type": "bool"
        }
      ],
      "stateMutability": "view",
      "type": "function"
    },
    {
      "inputs": [
        {
          "internalType": "uint256",
          "name": "id",
          "type": "uint256"
        }
      ],
      "name": "getProjectAddress",
      "outputs": [
        {
          "internalType": "address",
          "name": "",
          "type": "address"
        }
      ],
      "stateMutability": "view",
      "type": "function"
    },
    {
      "inputs": [
        {
          "internalType": "uint256",
          "name": "id",
          "type": "uint256"
        },
        {
          "internalType": "uint256",
          "name": "seed",
          "type": "uint256"
        }
      ],
      "name": "getRandomness",
      "outputs": [
        {
          "internalType": "uint256",
          "name": "randomnesss",
          "type": "uint256"
        }
      ],
      "stateMutability": "view",
      "type": "function"
    },
    {
      "inputs": [
        {
          "internalType": "bytes32",
          "name": "role",
          "type": "bytes32"
        }
      ],
      "name": "getRoleAdmin",
      "outputs": [
        {
          "internalType": "bytes32",
          "name": "",
          "type": "bytes32"
        }
      ],
      "stateMutability": "view",
      "type": "function"
    },
    {
      "inputs": [
        {
          "internalType": "bytes32",
          "name": "role",
          "type": "bytes32"
        },
        {
          "internalType": "address",
          "name": "account",
          "type": "address"
        }
      ],
      "name": "grantRole",
      "outputs": [],
      "stateMutability": "nonpayable",
      "type": "function"
    },
    {
      "inputs": [
        {
          "internalType": "bytes32",
          "name": "role",
          "type": "bytes32"
        },
        {
          "internalType": "address",
          "name": "account",
          "type": "address"
        }
      ],
      "name": "hasRole",
      "outputs": [
        {
          "internalType": "bool",
          "name": "",
          "type": "bool"
        }
      ],
      "stateMutability": "view",
      "type": "function"
    },
    {
      "inputs": [],
      "name": "platformRoyalty",
      "outputs": [
        {
          "internalType": "uint256",
          "name": "",
          "type": "uint256"
        }
      ],
      "stateMutability": "view",
      "type": "function"
    },
    {
      "inputs": [
        {
          "internalType": "uint256",
          "name": "",
          "type": "uint256"
        }
      ],
      "name": "projects",
      "outputs": [
        {
          "internalType": "address",
          "name": "",
          "type": "address"
        }
      ],
      "stateMutability": "view",
      "type": "function"
    },
    {
      "inputs": [
        {
          "internalType": "address",
          "name": "project",
          "type": "address"
        }
      ],
      "name": "removeProject",
      "outputs": [],
      "stateMutability": "nonpayable",
      "type": "function"
    },
    {
      "inputs": [
        {
          "internalType": "uint256",
          "name": "id",
          "type": "uint256"
        }
      ],
      "name": "removeProject",
      "outputs": [],
      "stateMutability": "nonpayable",
      "type": "function"
    },
    {
      "inputs": [
        {
          "internalType": "bytes32",
          "name": "role",
          "type": "bytes32"
        },
        {
          "internalType": "address",
          "name": "account",
          "type": "address"
        }
      ],
      "name": "renounceRole",
      "outputs": [],
      "stateMutability": "nonpayable",
      "type": "function"
    },
    {
      "inputs": [
        {
          "internalType": "bytes32",
          "name": "role",
          "type": "bytes32"
        },
        {
          "internalType": "address",
          "name": "account",
          "type": "address"
        }
      ],
      "name": "revokeRole",
      "outputs": [],
      "stateMutability": "nonpayable",
      "type": "function"
    },
    {
      "inputs": [],
      "name": "rollbackLastProject",
      "outputs": [],
      "stateMutability": "nonpayable",
      "type": "function"
    },
    {
      "inputs": [
        {
          "internalType": "address",
          "name": "rand",
          "type": "address"
        }
      ],
      "name": "setRandom",
      "outputs": [],
      "stateMutability": "nonpayable",
      "type": "function"
    },
    {
      "inputs": [
        {
          "internalType": "bytes4",
          "name": "interfaceId",
          "type": "bytes4"
        }
      ],
      "name": "supportsInterface",
      "outputs": [
        {
          "internalType": "bool",
          "name": "",
          "type": "bool"
        }
      ],
      "stateMutability": "view",
      "type": "function"
    },
    {
      "inputs": [],
      "name": "testRandom",
      "outputs": [
        {
          "internalType": "bytes32",
          "name": "",
          "type": "bytes32"
        }
      ],
      "stateMutability": "view",
      "type": "function"
    }
  ],
  "bytecode": "0x6080604052737a832c86002323a5de3a317b3281eb88ec3b2c00600560006101000a81548173ffffffffffffffffffffffffffffffffffffffff021916908373ffffffffffffffffffffffffffffffffffffffff160217905550610d056006553480156200006c57600080fd5b5060405162001ca938038062001ca9833981810160405281019062000092919062000269565b620000a76000801b33620000ef60201b60201c565b80600160006101000a81548173ffffffffffffffffffffffffffffffffffffffff021916908373ffffffffffffffffffffffffffffffffffffffff16021790555050620002e3565b620001018282620001e060201b60201c565b620001dc57600160008084815260200190815260200160002060000160008373ffffffffffffffffffffffffffffffffffffffff1673ffffffffffffffffffffffffffffffffffffffff16815260200190815260200160002060006101000a81548160ff021916908315150217905550620001816200024a60201b60201c565b73ffffffffffffffffffffffffffffffffffffffff168173ffffffffffffffffffffffffffffffffffffffff16837f2f8788117e7eff1d82e926ec794901d17c78024a50270940304540a733656f0d60405160405180910390a45b5050565b600080600084815260200190815260200160002060000160008373ffffffffffffffffffffffffffffffffffffffff1673ffffffffffffffffffffffffffffffffffffffff16815260200190815260200160002060009054906101000a900460ff16905092915050565b600033905090565b6000815190506200026381620002c9565b92915050565b6000602082840312156200027c57600080fd5b60006200028c8482850162000252565b91505092915050565b6000620002a282620002a9565b9050919050565b600073ffffffffffffffffffffffffffffffffffffffff82169050919050565b620002d48162000295565b8114620002e057600080fd5b50565b6119b680620002f36000396000f3fe608060405234801561001057600080fd5b50600436106101215760003560e01c80637a6a8763116100ad578063a7cd52cb11610071578063a7cd52cb14610318578063ca9c0bad14610348578063d547741f14610364578063d672131b14610380578063fbddd14b1461039e57610121565b80637a6a8763146102865780637c56b798146102905780637dafc0d3146102ac57806391d14854146102ca578063a217fddf146102fa57610121565b806329e5d831116100f457806329e5d831146101d25780632f2ff15d1461020257806336568abe1461021e5780634ca3e9b81461023a5780635873f9981461026a57610121565b806301ffc9a7146101265780630c0ad29914610156578063107046bd14610172578063248a9ca3146101a2575b600080fd5b610140600480360381019061013b9190611279565b6103bc565b60405161014d9190611546565b60405180910390f35b610170600480360381019061016b91906111c2565b610436565b005b61018c600480360381019061018791906112a2565b6104a7565b6040516101999190611510565b60405180910390f35b6101bc60048036038101906101b791906111eb565b6104da565b6040516101c99190611561565b60405180910390f35b6101ec60048036038101906101e791906112cb565b6104f9565b6040516101f991906115fe565b60405180910390f35b61021c6004803603810190610217919061123d565b6105e1565b005b6102386004803603810190610233919061123d565b61060a565b005b610254600480360381019061024f91906112a2565b61068d565b6040516102619190611510565b60405180910390f35b610284600480360381019061027f91906112a2565b6106ca565b005b61028e610774565b005b6102aa60048036038101906102a591906111c2565b610836565b005b6102b4610912565b6040516102c1919061152b565b60405180910390f35b6102e460048036038101906102df919061123d565b610938565b6040516102f19190611546565b60405180910390f35b6103026109a2565b60405161030f9190611561565b60405180910390f35b610332600480360381019061032d91906111c2565b6109a9565b60405161033f9190611546565b60405180910390f35b610362600480360381019061035d91906111c2565b6109c9565b005b61037e6004803603810190610379919061123d565b610a23565b005b610388610a4c565b60405161039591906115fe565b60405180910390f35b6103a6610a52565b6040516103b39190611561565b60405180910390f35b60007f7965db0b000000000000000000000000000000000000000000000000000000007bffffffffffffffffffffffffffffffffffffffffffffffffffffffff1916827bffffffffffffffffffffffffffffffffffffffffffffffffffffffff1916148061042f575061042e82610b0f565b5b9050919050565b6000801b61044b81610446610b79565b610b81565b6000600460008473ffffffffffffffffffffffffffffffffffffffff1673ffffffffffffffffffffffffffffffffffffffff16815260200190815260200160002060006101000a81548160ff0219169083151502179055505050565b60036020528060005260406000206000915054906101000a900473ffffffffffffffffffffffffffffffffffffffff1681565b6000806000838152602001908152602001600020600101549050919050565b6000600161050657600080fd5b6000600160009054906101000a900473ffffffffffffffffffffffffffffffffffffffff1673ffffffffffffffffffffffffffffffffffffffff1663990c8f796040518163ffffffff1660e01b815260040160206040518083038186803b15801561057057600080fd5b505afa158015610584573d6000803e3d6000fd5b505050506040513d601f19601f820116820180604052508101906105a89190611214565b84846040516020016105bc93929190611499565b6040516020818303038152906040528051906020012060001c90508091505092915050565b6105ea826104da565b6105fb816105f6610b79565b610b81565b6106058383610c1e565b505050565b610612610b79565b73ffffffffffffffffffffffffffffffffffffffff168173ffffffffffffffffffffffffffffffffffffffff161461067f576040517f08c379a0000000000000000000000000000000000000000000000000000000008152600401610676906115de565b60405180910390fd5b6106898282610cfe565b5050565b60006003600083815260200190815260200160002060009054906101000a900473ffffffffffffffffffffffffffffffffffffffff169050919050565b6000801b6106df816106da610b79565b610b81565b60006003600084815260200190815260200160002060009054906101000a900473ffffffffffffffffffffffffffffffffffffffff1690506000600460008373ffffffffffffffffffffffffffffffffffffffff1673ffffffffffffffffffffffffffffffffffffffff16815260200190815260200160002060006101000a81548160ff021916908315150217905550505050565b6000801b61078981610784610b79565b610b81565b6107936002610ddf565b600061079f6002610e3b565b905060006003600083815260200190815260200160002060009054906101000a900473ffffffffffffffffffffffffffffffffffffffff1690506000600460008373ffffffffffffffffffffffffffffffffffffffff1673ffffffffffffffffffffffffffffffffffffffff16815260200190815260200160002060006101000a81548160ff021916908315150217905550505050565b6000801b61084b81610846610b79565b610b81565b60006108576002610e3b565b90506108636002610e49565b826003600083815260200190815260200160002060006101000a81548173ffffffffffffffffffffffffffffffffffffffff021916908373ffffffffffffffffffffffffffffffffffffffff1602179055506001600460008573ffffffffffffffffffffffffffffffffffffffff1673ffffffffffffffffffffffffffffffffffffffff16815260200190815260200160002060006101000a81548160ff021916908315150217905550505050565b600560009054906101000a900473ffffffffffffffffffffffffffffffffffffffff1681565b600080600084815260200190815260200160002060000160008373ffffffffffffffffffffffffffffffffffffffff1673ffffffffffffffffffffffffffffffffffffffff16815260200190815260200160002060009054906101000a900460ff16905092915050565b6000801b81565b60046020528060005260406000206000915054906101000a900460ff1681565b6000801b6109de816109d9610b79565b610b81565b81600160006101000a81548173ffffffffffffffffffffffffffffffffffffffff021916908373ffffffffffffffffffffffffffffffffffffffff1602179055505050565b610a2c826104da565b610a3d81610a38610b79565b610b81565b610a478383610cfe565b505050565b60065481565b60008060001b610a6981610a64610b79565b610b81565b600160009054906101000a900473ffffffffffffffffffffffffffffffffffffffff1673ffffffffffffffffffffffffffffffffffffffff1663990c8f796040518163ffffffff1660e01b815260040160206040518083038186803b158015610ad157600080fd5b505afa158015610ae5573d6000803e3d6000fd5b505050506040513d601f19601f82011682018060405250810190610b099190611214565b91505090565b60007f01ffc9a7000000000000000000000000000000000000000000000000000000007bffffffffffffffffffffffffffffffffffffffffffffffffffffffff1916827bffffffffffffffffffffffffffffffffffffffffffffffffffffffff1916149050919050565b600033905090565b610b8b8282610938565b610c1a57610bb08173ffffffffffffffffffffffffffffffffffffffff166014610e5f565b610bbe8360001c6020610e5f565b604051602001610bcf9291906114d6565b6040516020818303038152906040526040517f08c379a0000000000000000000000000000000000000000000000000000000008152600401610c11919061157c565b60405180910390fd5b5050565b610c288282610938565b610cfa57600160008084815260200190815260200160002060000160008373ffffffffffffffffffffffffffffffffffffffff1673ffffffffffffffffffffffffffffffffffffffff16815260200190815260200160002060006101000a81548160ff021916908315150217905550610c9f610b79565b73ffffffffffffffffffffffffffffffffffffffff168173ffffffffffffffffffffffffffffffffffffffff16837f2f8788117e7eff1d82e926ec794901d17c78024a50270940304540a733656f0d60405160405180910390a45b5050565b610d088282610938565b15610ddb57600080600084815260200190815260200160002060000160008373ffffffffffffffffffffffffffffffffffffffff1673ffffffffffffffffffffffffffffffffffffffff16815260200190815260200160002060006101000a81548160ff021916908315150217905550610d80610b79565b73ffffffffffffffffffffffffffffffffffffffff168173ffffffffffffffffffffffffffffffffffffffff16837ff6391f5c32d9c69d2a47ea670b442974b53935d1edc7fd64eb21e047a839171b60405160405180910390a45b5050565b60008160000154905060008111610e2b576040517f08c379a0000000000000000000000000000000000000000000000000000000008152600401610e22906115be565b60405180910390fd5b6001810382600001819055505050565b600081600001549050919050565b6001816000016000828254019250508190555050565b606060006002836002610e729190611696565b610e7c9190611640565b67ffffffffffffffff811115610ebb577f4e487b7100000000000000000000000000000000000000000000000000000000600052604160045260246000fd5b6040519080825280601f01601f191660200182016040528015610eed5781602001600182028036833780820191505090505b5090507f300000000000000000000000000000000000000000000000000000000000000081600081518110610f4b577f4e487b7100000000000000000000000000000000000000000000000000000000600052603260045260246000fd5b60200101907effffffffffffffffffffffffffffffffffffffffffffffffffffffffffffff1916908160001a9053507f780000000000000000000000000000000000000000000000000000000000000081600181518110610fd5577f4e487b7100000000000000000000000000000000000000000000000000000000600052603260045260246000fd5b60200101907effffffffffffffffffffffffffffffffffffffffffffffffffffffffffffff1916908160001a905350600060018460026110159190611696565b61101f9190611640565b90505b600181111561110b577f3031323334353637383961626364656600000000000000000000000000000000600f861660108110611087577f4e487b7100000000000000000000000000000000000000000000000000000000600052603260045260246000fd5b1a60f81b8282815181106110c4577f4e487b7100000000000000000000000000000000000000000000000000000000600052603260045260246000fd5b60200101907effffffffffffffffffffffffffffffffffffffffffffffffffffffffffffff1916908160001a905350600485901c945080611104906117b3565b9050611022565b506000841461114f576040517f08c379a00000000000000000000000000000000000000000000000000000000081526004016111469061159e565b60405180910390fd5b8091505092915050565b60008135905061116881611924565b92915050565b60008135905061117d8161193b565b92915050565b6000815190506111928161193b565b92915050565b6000813590506111a781611952565b92915050565b6000813590506111bc81611969565b92915050565b6000602082840312156111d457600080fd5b60006111e284828501611159565b91505092915050565b6000602082840312156111fd57600080fd5b600061120b8482850161116e565b91505092915050565b60006020828403121561122657600080fd5b600061123484828501611183565b91505092915050565b6000806040838503121561125057600080fd5b600061125e8582860161116e565b925050602061126f85828601611159565b9150509250929050565b60006020828403121561128b57600080fd5b600061129984828501611198565b91505092915050565b6000602082840312156112b457600080fd5b60006112c2848285016111ad565b91505092915050565b600080604083850312156112de57600080fd5b60006112ec858286016111ad565b92505060206112fd858286016111ad565b9150509250929050565b61131081611702565b82525050565b61131f816116f0565b82525050565b61132e81611714565b82525050565b61133d81611720565b82525050565b61135461134f82611720565b6117dd565b82525050565b600061136582611619565b61136f8185611624565b935061137f818560208601611780565b61138881611820565b840191505092915050565b600061139e82611619565b6113a88185611635565b93506113b8818560208601611780565b80840191505092915050565b60006113d1602083611624565b91506113dc82611831565b602082019050919050565b60006113f4601b83611624565b91506113ff8261185a565b602082019050919050565b6000611417601783611635565b915061142282611883565b601782019050919050565b600061143a601183611635565b9150611445826118ac565b601182019050919050565b600061145d602f83611624565b9150611468826118d5565b604082019050919050565b61147c81611776565b82525050565b61149361148e82611776565b6117e7565b82525050565b60006114a58286611343565b6020820191506114b58285611482565b6020820191506114c58284611482565b602082019150819050949350505050565b60006114e18261140a565b91506114ed8285611393565b91506114f88261142d565b91506115048284611393565b91508190509392505050565b60006020820190506115256000830184611316565b92915050565b60006020820190506115406000830184611307565b92915050565b600060208201905061155b6000830184611325565b92915050565b60006020820190506115766000830184611334565b92915050565b60006020820190508181036000830152611596818461135a565b905092915050565b600060208201905081810360008301526115b7816113c4565b9050919050565b600060208201905081810360008301526115d7816113e7565b9050919050565b600060208201905081810360008301526115f781611450565b9050919050565b60006020820190506116136000830184611473565b92915050565b600081519050919050565b600082825260208201905092915050565b600081905092915050565b600061164b82611776565b915061165683611776565b9250827fffffffffffffffffffffffffffffffffffffffffffffffffffffffffffffffff0382111561168b5761168a6117f1565b5b828201905092915050565b60006116a182611776565b91506116ac83611776565b9250817fffffffffffffffffffffffffffffffffffffffffffffffffffffffffffffffff04831182151516156116e5576116e46117f1565b5b828202905092915050565b60006116fb82611756565b9050919050565b600061170d82611756565b9050919050565b60008115159050919050565b6000819050919050565b60007fffffffff0000000000000000000000000000000000000000000000000000000082169050919050565b600073ffffffffffffffffffffffffffffffffffffffff82169050919050565b6000819050919050565b60005b8381101561179e578082015181840152602081019050611783565b838111156117ad576000848401525b50505050565b60006117be82611776565b915060008214156117d2576117d16117f1565b5b600182039050919050565b6000819050919050565b6000819050919050565b7f4e487b7100000000000000000000000000000000000000000000000000000000600052601160045260246000fd5b6000601f19601f8301169050919050565b7f537472696e67733a20686578206c656e67746820696e73756666696369656e74600082015250565b7f436f756e7465723a2064656372656d656e74206f766572666c6f770000000000600082015250565b7f416363657373436f6e74726f6c3a206163636f756e7420000000000000000000600082015250565b7f206973206d697373696e6720726f6c6520000000000000000000000000000000600082015250565b7f416363657373436f6e74726f6c3a2063616e206f6e6c792072656e6f756e636560008201527f20726f6c657320666f722073656c660000000000000000000000000000000000602082015250565b61192d816116f0565b811461193857600080fd5b50565b61194481611720565b811461194f57600080fd5b50565b61195b8161172a565b811461196657600080fd5b50565b61197281611776565b811461197d57600080fd5b5056fea26469706673582212206dd96a19bf4093c9b273aa9964309378c13175931c02adeecf1b89275b2ffc9564736f6c63430008020033",
  "linkReferences": {},
  "deployedLinkReferences": {}
}