{
  "_format": "hh-sol-artifact-1",
  "contractName": "FineCore",
  "sourceName": "contracts/FineCore.sol",
  "abi": [
    {
      "inputs": [
        {
          "internalType": "address",
          "name": "entropySourceAddress",
          "type": "address"
        }
      ],
      "stateMutability": "nonpayable",
      "type": "constructor"
    },
    {
      "anonymous": false,
      "inputs": [
        {
          "indexed": true,
          "internalType": "bytes32",
          "name": "role",
          "type": "bytes32"
        },
        {
          "indexed": true,
          "internalType": "bytes32",
          "name": "previousAdminRole",
          "type": "bytes32"
        },
        {
          "indexed": true,
          "internalType": "bytes32",
          "name": "newAdminRole",
          "type": "bytes32"
        }
      ],
      "name": "RoleAdminChanged",
      "type": "event"
    },
    {
      "anonymous": false,
      "inputs": [
        {
          "indexed": true,
          "internalType": "bytes32",
          "name": "role",
          "type": "bytes32"
        },
        {
          "indexed": true,
          "internalType": "address",
          "name": "account",
          "type": "address"
        },
        {
          "indexed": true,
          "internalType": "address",
          "name": "sender",
          "type": "address"
        }
      ],
      "name": "RoleGranted",
      "type": "event"
    },
    {
      "anonymous": false,
      "inputs": [
        {
          "indexed": true,
          "internalType": "bytes32",
          "name": "role",
          "type": "bytes32"
        },
        {
          "indexed": true,
          "internalType": "address",
          "name": "account",
          "type": "address"
        },
        {
          "indexed": true,
          "internalType": "address",
          "name": "sender",
          "type": "address"
        }
      ],
      "name": "RoleRevoked",
      "type": "event"
    },
    {
      "inputs": [],
      "name": "DEFAULT_ADMIN_ROLE",
      "outputs": [
        {
          "internalType": "bytes32",
          "name": "",
          "type": "bytes32"
        }
      ],
      "stateMutability": "view",
      "type": "function"
    },
    {
      "inputs": [],
      "name": "FINE_TREASURY",
      "outputs": [
        {
          "internalType": "address payable",
          "name": "",
          "type": "address"
        }
      ],
      "stateMutability": "view",
      "type": "function"
    },
    {
      "inputs": [
        {
          "internalType": "address",
          "name": "project",
          "type": "address"
        }
      ],
      "name": "addProject",
      "outputs": [],
      "stateMutability": "nonpayable",
      "type": "function"
    },
    {
      "inputs": [
        {
          "internalType": "address",
          "name": "",
          "type": "address"
        }
      ],
      "name": "allowlist",
      "outputs": [
        {
          "internalType": "bool",
          "name": "",
          "type": "bool"
        }
      ],
      "stateMutability": "view",
      "type": "function"
    },
    {
      "inputs": [
        {
          "internalType": "uint256",
          "name": "id",
          "type": "uint256"
        }
      ],
      "name": "getProjectAddress",
      "outputs": [
        {
          "internalType": "address",
          "name": "",
          "type": "address"
        }
      ],
      "stateMutability": "view",
      "type": "function"
    },
    {
      "inputs": [
        {
          "internalType": "uint256",
          "name": "id",
          "type": "uint256"
        },
        {
          "internalType": "uint256",
          "name": "seed",
          "type": "uint256"
        }
      ],
      "name": "getRandomness",
      "outputs": [
        {
          "internalType": "uint256",
          "name": "randomnesss",
          "type": "uint256"
        }
      ],
      "stateMutability": "view",
      "type": "function"
    },
    {
      "inputs": [
        {
          "internalType": "bytes32",
          "name": "role",
          "type": "bytes32"
        }
      ],
      "name": "getRoleAdmin",
      "outputs": [
        {
          "internalType": "bytes32",
          "name": "",
          "type": "bytes32"
        }
      ],
      "stateMutability": "view",
      "type": "function"
    },
    {
      "inputs": [
        {
          "internalType": "bytes32",
          "name": "role",
          "type": "bytes32"
        },
        {
          "internalType": "address",
          "name": "account",
          "type": "address"
        }
      ],
      "name": "grantRole",
      "outputs": [],
      "stateMutability": "nonpayable",
      "type": "function"
    },
    {
      "inputs": [
        {
          "internalType": "bytes32",
          "name": "role",
          "type": "bytes32"
        },
        {
          "internalType": "address",
          "name": "account",
          "type": "address"
        }
      ],
      "name": "hasRole",
      "outputs": [
        {
          "internalType": "bool",
          "name": "",
          "type": "bool"
        }
      ],
      "stateMutability": "view",
      "type": "function"
    },
    {
      "inputs": [],
      "name": "platformPercentage",
      "outputs": [
        {
          "internalType": "uint256",
          "name": "",
          "type": "uint256"
        }
      ],
      "stateMutability": "view",
      "type": "function"
    },
    {
      "inputs": [],
      "name": "platformRoyalty",
      "outputs": [
        {
          "internalType": "uint256",
          "name": "",
          "type": "uint256"
        }
      ],
      "stateMutability": "view",
      "type": "function"
    },
    {
      "inputs": [
        {
          "internalType": "uint256",
          "name": "",
          "type": "uint256"
        }
      ],
      "name": "projects",
      "outputs": [
        {
          "internalType": "address",
          "name": "",
          "type": "address"
        }
      ],
      "stateMutability": "view",
      "type": "function"
    },
    {
      "inputs": [
        {
          "internalType": "bytes32",
          "name": "role",
          "type": "bytes32"
        },
        {
          "internalType": "address",
          "name": "account",
          "type": "address"
        }
      ],
      "name": "renounceRole",
      "outputs": [],
      "stateMutability": "nonpayable",
      "type": "function"
    },
    {
      "inputs": [
        {
          "internalType": "bytes32",
          "name": "role",
          "type": "bytes32"
        },
        {
          "internalType": "address",
          "name": "account",
          "type": "address"
        }
      ],
      "name": "revokeRole",
      "outputs": [],
      "stateMutability": "nonpayable",
      "type": "function"
    },
    {
      "inputs": [],
      "name": "rollbackLastProject",
      "outputs": [],
      "stateMutability": "nonpayable",
      "type": "function"
    },
    {
      "inputs": [
        {
          "internalType": "uint96",
          "name": "_percentage",
          "type": "uint96"
        }
      ],
      "name": "setPlatformPercent",
      "outputs": [],
      "stateMutability": "nonpayable",
      "type": "function"
    },
    {
      "inputs": [
        {
          "internalType": "address",
          "name": "rand",
          "type": "address"
        }
      ],
      "name": "setRandom",
      "outputs": [],
      "stateMutability": "nonpayable",
      "type": "function"
    },
    {
      "inputs": [
        {
          "internalType": "uint96",
          "name": "_percentage",
          "type": "uint96"
        }
      ],
      "name": "setRoyaltyPercent",
      "outputs": [],
      "stateMutability": "nonpayable",
      "type": "function"
    },
    {
      "inputs": [
        {
          "internalType": "address payable",
          "name": "treasury",
          "type": "address"
        }
      ],
      "name": "setTreasury",
      "outputs": [],
      "stateMutability": "nonpayable",
      "type": "function"
    },
    {
      "inputs": [
        {
          "internalType": "bytes4",
          "name": "interfaceId",
          "type": "bytes4"
        }
      ],
      "name": "supportsInterface",
      "outputs": [
        {
          "internalType": "bool",
          "name": "",
          "type": "bool"
        }
      ],
      "stateMutability": "view",
      "type": "function"
    },
    {
      "inputs": [],
      "name": "testRandom",
      "outputs": [
        {
          "internalType": "bytes32",
          "name": "",
          "type": "bytes32"
        }
      ],
      "stateMutability": "view",
      "type": "function"
    }
  ],
  "bytecode": "0x6080604052600580546001600160a01b031916735c0153e663532b19f0344db97c6fefb47a2c1b7f1790556103e8600681905560075534801561004157600080fd5b50604051610e97380380610e978339810160408190526100609161012f565b61006b600033610090565b600180546001600160a01b0319166001600160a01b039290921691909117905561015f565b6000828152602081815260408083206001600160a01b038516845290915290205460ff1661012b576000828152602081815260408083206001600160a01b03851684529091529020805460ff191660011790556100ea3390565b6001600160a01b0316816001600160a01b0316837f2f8788117e7eff1d82e926ec794901d17c78024a50270940304540a733656f0d60405160405180910390a45b5050565b60006020828403121561014157600080fd5b81516001600160a01b038116811461015857600080fd5b9392505050565b610d298061016e6000396000f3fe608060405234801561001057600080fd5b50600436106101375760003560e01c80637c56b798116100b8578063be1706021161007c578063be170602146102c2578063ca9c0bad146102d5578063d547741f146102e8578063d672131b146102fb578063f0f4426014610304578063fbddd14b1461031757600080fd5b80637c56b7981461025e5780637dafc0d31461027157806391d1485414610284578063a217fddf14610297578063a7cd52cb1461029f57600080fd5b80632f2ff15d116100ff5780632f2ff15d146101f257806336568abe146102075780634bc46a821461021a5780634ca3e9b81461022d5780637a6a87631461025657600080fd5b806301ffc9a71461013c578063107046bd146101645780631f741897146101a5578063248a9ca3146101bc57806329e5d831146101df575b600080fd5b61014f61014a366004610a7f565b61031f565b60405190151581526020015b60405180910390f35b61018d610172366004610aa9565b6003602052600090815260409020546001600160a01b031681565b6040516001600160a01b03909116815260200161015b565b6101ae60065481565b60405190815260200161015b565b6101ae6101ca366004610aa9565b60009081526020819052604090206001015490565b6101ae6101ed366004610ac2565b610356565b610205610200366004610afc565b610463565b005b610205610215366004610afc565b61048e565b610205610228366004610b2c565b61050c565b61018d61023b366004610aa9565b6000908152600360205260409020546001600160a01b031690565b610205610527565b61020561026c366004610b55565b610578565b60055461018d906001600160a01b031681565b61014f610292366004610afc565b6105e6565b6101ae600081565b61014f6102ad366004610b55565b60046020526000908152604090205460ff1681565b6102056102d0366004610b2c565b61060f565b6102056102e3366004610b55565b61062a565b6102056102f6366004610afc565b610659565b6101ae60075481565b610205610312366004610b55565b61067f565b6101ae6106ae565b60006001600160e01b03198216637965db0b60e01b148061035057506301ffc9a760e01b6001600160e01b03198316145b92915050565b3360009081526004602052604081205460ff166103ba5760405162461bcd60e51b815260206004820152601b60248201527f726e672063616c6c6572206e6f7420616c6c6f77206c6973746564000000000060448201526064015b60405180910390fd5b6001546040805163990c8f7960e01b815290516000926001600160a01b03169163990c8f799160048083019260209291908290030181865afa158015610404573d6000803e3d6000fd5b505050506040513d601f19601f820116820180604052508101906104289190610b72565b60408051602081019290925281018590526060810184905260800160408051808303601f190181529190528051602090910120949350505050565b60008281526020819052604090206001015461047f8133610738565b610489838361079c565b505050565b6001600160a01b03811633146104fe5760405162461bcd60e51b815260206004820152602f60248201527f416363657373436f6e74726f6c3a2063616e206f6e6c792072656e6f756e636560448201526e103937b632b9903337b91039b2b63360891b60648201526084016103b1565b6105088282610820565b5050565b60006105188133610738565b506001600160601b0316600755565b60006105338133610738565b61053d6002610885565b600061054860025490565b6000908152600360209081526040808320546001600160a01b0316835260049091529020805460ff191690555050565b60006105848133610738565b600061058f60025490565b905061059f600280546001019055565b600090815260036020908152604080832080546001600160a01b039096166001600160a01b0319909616861790559382526004905291909120805460ff1916600117905550565b6000918252602082815260408084206001600160a01b0393909316845291905290205460ff1690565b600061061b8133610738565b506001600160601b0316600655565b60006106368133610738565b50600180546001600160a01b0319166001600160a01b0392909216919091179055565b6000828152602081905260409020600101546106758133610738565b6104898383610820565b600061068b8133610738565b50600580546001600160a01b0319166001600160a01b0392909216919091179055565b6000806106bb8133610738565b600160009054906101000a90046001600160a01b03166001600160a01b031663990c8f796040518163ffffffff1660e01b8152600401602060405180830381865afa15801561070e573d6000803e3d6000fd5b505050506040513d601f19601f820116820180604052508101906107329190610b72565b91505090565b61074282826105e6565b6105085761075a816001600160a01b031660146108dc565b6107658360206108dc565b604051602001610776929190610bbb565b60408051601f198184030181529082905262461bcd60e51b82526103b191600401610c30565b6107a682826105e6565b610508576000828152602081815260408083206001600160a01b03851684529091529020805460ff191660011790556107dc3390565b6001600160a01b0316816001600160a01b0316837f2f8788117e7eff1d82e926ec794901d17c78024a50270940304540a733656f0d60405160405180910390a45050565b61082a82826105e6565b15610508576000828152602081815260408083206001600160a01b0385168085529252808320805460ff1916905551339285917ff6391f5c32d9c69d2a47ea670b442974b53935d1edc7fd64eb21e047a839171b9190a45050565b8054806108d45760405162461bcd60e51b815260206004820152601b60248201527f436f756e7465723a2064656372656d656e74206f766572666c6f77000000000060448201526064016103b1565b600019019055565b606060006108eb836002610c79565b6108f6906002610c98565b67ffffffffffffffff81111561090e5761090e610cb0565b6040519080825280601f01601f191660200182016040528015610938576020820181803683370190505b509050600360fc1b8160008151811061095357610953610cc6565b60200101906001600160f81b031916908160001a905350600f60fb1b8160018151811061098257610982610cc6565b60200101906001600160f81b031916908160001a90535060006109a6846002610c79565b6109b1906001610c98565b90505b6001811115610a29576f181899199a1a9b1b9c1cb0b131b232b360811b85600f16601081106109e5576109e5610cc6565b1a60f81b8282815181106109fb576109fb610cc6565b60200101906001600160f81b031916908160001a90535060049490941c93610a2281610cdc565b90506109b4565b508315610a785760405162461bcd60e51b815260206004820181905260248201527f537472696e67733a20686578206c656e67746820696e73756666696369656e7460448201526064016103b1565b9392505050565b600060208284031215610a9157600080fd5b81356001600160e01b031981168114610a7857600080fd5b600060208284031215610abb57600080fd5b5035919050565b60008060408385031215610ad557600080fd5b50508035926020909101359150565b6001600160a01b0381168114610af957600080fd5b50565b60008060408385031215610b0f57600080fd5b823591506020830135610b2181610ae4565b809150509250929050565b600060208284031215610b3e57600080fd5b81356001600160601b0381168114610a7857600080fd5b600060208284031215610b6757600080fd5b8135610a7881610ae4565b600060208284031215610b8457600080fd5b5051919050565b60005b83811015610ba6578181015183820152602001610b8e565b83811115610bb5576000848401525b50505050565b7f416363657373436f6e74726f6c3a206163636f756e7420000000000000000000815260008351610bf3816017850160208801610b8b565b7001034b99036b4b9b9b4b733903937b6329607d1b6017918401918201528351610c24816028840160208801610b8b565b01602801949350505050565b6020815260008251806020840152610c4f816040850160208701610b8b565b601f01601f19169190910160400192915050565b634e487b7160e01b600052601160045260246000fd5b6000816000190483118215151615610c9357610c93610c63565b500290565b60008219821115610cab57610cab610c63565b500190565b634e487b7160e01b600052604160045260246000fd5b634e487b7160e01b600052603260045260246000fd5b600081610ceb57610ceb610c63565b50600019019056fea26469706673582212209a57e1e3704266cce5e354f3dc8cb080504f23cde4081ce71303d800606521c064736f6c634300080c0033",
  "linkReferences": {},
  "deployedLinkReferences": {}
}