{
  "_format": "hh-sol-artifact-1",
  "contractName": "FineCore",
  "sourceName": "contracts/FineCore.sol",
  "abi": [
    {
      "inputs": [
        {
          "internalType": "address",
          "name": "entropySourceAddress",
          "type": "address"
        }
      ],
      "stateMutability": "nonpayable",
      "type": "constructor"
    },
    {
      "anonymous": false,
      "inputs": [
        {
          "indexed": true,
          "internalType": "bytes32",
          "name": "role",
          "type": "bytes32"
        },
        {
          "indexed": true,
          "internalType": "bytes32",
          "name": "previousAdminRole",
          "type": "bytes32"
        },
        {
          "indexed": true,
          "internalType": "bytes32",
          "name": "newAdminRole",
          "type": "bytes32"
        }
      ],
      "name": "RoleAdminChanged",
      "type": "event"
    },
    {
      "anonymous": false,
      "inputs": [
        {
          "indexed": true,
          "internalType": "bytes32",
          "name": "role",
          "type": "bytes32"
        },
        {
          "indexed": true,
          "internalType": "address",
          "name": "account",
          "type": "address"
        },
        {
          "indexed": true,
          "internalType": "address",
          "name": "sender",
          "type": "address"
        }
      ],
      "name": "RoleGranted",
      "type": "event"
    },
    {
      "anonymous": false,
      "inputs": [
        {
          "indexed": true,
          "internalType": "bytes32",
          "name": "role",
          "type": "bytes32"
        },
        {
          "indexed": true,
          "internalType": "address",
          "name": "account",
          "type": "address"
        },
        {
          "indexed": true,
          "internalType": "address",
          "name": "sender",
          "type": "address"
        }
      ],
      "name": "RoleRevoked",
      "type": "event"
    },
    {
      "inputs": [],
      "name": "DEFAULT_ADMIN_ROLE",
      "outputs": [
        {
          "internalType": "bytes32",
          "name": "",
          "type": "bytes32"
        }
      ],
      "stateMutability": "view",
      "type": "function"
    },
    {
      "inputs": [],
      "name": "FINE_TREASURY",
      "outputs": [
        {
          "internalType": "address payable",
          "name": "",
          "type": "address"
        }
      ],
      "stateMutability": "view",
      "type": "function"
    },
    {
      "inputs": [
        {
          "internalType": "address",
          "name": "project",
          "type": "address"
        }
      ],
      "name": "addProject",
      "outputs": [],
      "stateMutability": "nonpayable",
      "type": "function"
    },
    {
      "inputs": [
        {
          "internalType": "address",
          "name": "project",
          "type": "address"
        }
      ],
      "name": "allowProject",
      "outputs": [],
      "stateMutability": "nonpayable",
      "type": "function"
    },
    {
      "inputs": [
        {
          "internalType": "address",
          "name": "",
          "type": "address"
        }
      ],
      "name": "allowlist",
      "outputs": [
        {
          "internalType": "bool",
          "name": "",
          "type": "bool"
        }
      ],
      "stateMutability": "view",
      "type": "function"
    },
    {
      "inputs": [
        {
          "internalType": "uint256",
          "name": "id",
          "type": "uint256"
        }
      ],
      "name": "getProjectAddress",
      "outputs": [
        {
          "internalType": "address",
          "name": "",
          "type": "address"
        }
      ],
      "stateMutability": "view",
      "type": "function"
    },
    {
      "inputs": [
        {
          "internalType": "uint256",
          "name": "id",
          "type": "uint256"
        },
        {
          "internalType": "uint256",
          "name": "seed",
          "type": "uint256"
        }
      ],
      "name": "getRandomness",
      "outputs": [
        {
          "internalType": "uint256",
          "name": "randomnesss",
          "type": "uint256"
        }
      ],
      "stateMutability": "view",
      "type": "function"
    },
    {
      "inputs": [
        {
          "internalType": "bytes32",
          "name": "role",
          "type": "bytes32"
        }
      ],
      "name": "getRoleAdmin",
      "outputs": [
        {
          "internalType": "bytes32",
          "name": "",
          "type": "bytes32"
        }
      ],
      "stateMutability": "view",
      "type": "function"
    },
    {
      "inputs": [
        {
          "internalType": "bytes32",
          "name": "role",
          "type": "bytes32"
        },
        {
          "internalType": "address",
          "name": "account",
          "type": "address"
        }
      ],
      "name": "grantRole",
      "outputs": [],
      "stateMutability": "nonpayable",
      "type": "function"
    },
    {
      "inputs": [
        {
          "internalType": "bytes32",
          "name": "role",
          "type": "bytes32"
        },
        {
          "internalType": "address",
          "name": "account",
          "type": "address"
        }
      ],
      "name": "hasRole",
      "outputs": [
        {
          "internalType": "bool",
          "name": "",
          "type": "bool"
        }
      ],
      "stateMutability": "view",
      "type": "function"
    },
    {
      "inputs": [],
      "name": "platformRoyalty",
      "outputs": [
        {
          "internalType": "uint256",
          "name": "",
          "type": "uint256"
        }
      ],
      "stateMutability": "view",
      "type": "function"
    },
    {
      "inputs": [
        {
          "internalType": "uint256",
          "name": "",
          "type": "uint256"
        }
      ],
      "name": "projects",
      "outputs": [
        {
          "internalType": "address",
          "name": "",
          "type": "address"
        }
      ],
      "stateMutability": "view",
      "type": "function"
    },
    {
      "inputs": [
        {
          "internalType": "bytes32",
          "name": "role",
          "type": "bytes32"
        },
        {
          "internalType": "address",
          "name": "account",
          "type": "address"
        }
      ],
      "name": "renounceRole",
      "outputs": [],
      "stateMutability": "nonpayable",
      "type": "function"
    },
    {
      "inputs": [
        {
          "internalType": "bytes32",
          "name": "role",
          "type": "bytes32"
        },
        {
          "internalType": "address",
          "name": "account",
          "type": "address"
        }
      ],
      "name": "revokeRole",
      "outputs": [],
      "stateMutability": "nonpayable",
      "type": "function"
    },
    {
      "inputs": [],
      "name": "rollbackLastProject",
      "outputs": [],
      "stateMutability": "nonpayable",
      "type": "function"
    },
    {
      "inputs": [
        {
          "internalType": "address",
          "name": "rand",
          "type": "address"
        }
      ],
      "name": "setRandom",
      "outputs": [],
      "stateMutability": "nonpayable",
      "type": "function"
    },
    {
      "inputs": [
        {
          "internalType": "bytes4",
          "name": "interfaceId",
          "type": "bytes4"
        }
      ],
      "name": "supportsInterface",
      "outputs": [
        {
          "internalType": "bool",
          "name": "",
          "type": "bool"
        }
      ],
      "stateMutability": "view",
      "type": "function"
    },
    {
      "inputs": [],
      "name": "testRandom",
      "outputs": [
        {
          "internalType": "bytes32",
          "name": "",
          "type": "bytes32"
        }
      ],
      "stateMutability": "view",
      "type": "function"
    },
    {
      "inputs": [
        {
          "internalType": "address",
          "name": "project",
          "type": "address"
        }
      ],
      "name": "unallowProject",
      "outputs": [],
      "stateMutability": "nonpayable",
      "type": "function"
    }
  ],
  "bytecode": "0x6080604052737a832c86002323a5de3a317b3281eb88ec3b2c00600560006101000a81548173ffffffffffffffffffffffffffffffffffffffff021916908373ffffffffffffffffffffffffffffffffffffffff160217905550610d056006553480156200006c57600080fd5b5060405162001d5d38038062001d5d833981810160405281019062000092919062000269565b620000a76000801b33620000ef60201b60201c565b80600160006101000a81548173ffffffffffffffffffffffffffffffffffffffff021916908373ffffffffffffffffffffffffffffffffffffffff16021790555050620002e3565b620001018282620001e060201b60201c565b620001dc57600160008084815260200190815260200160002060000160008373ffffffffffffffffffffffffffffffffffffffff1673ffffffffffffffffffffffffffffffffffffffff16815260200190815260200160002060006101000a81548160ff021916908315150217905550620001816200024a60201b60201c565b73ffffffffffffffffffffffffffffffffffffffff168173ffffffffffffffffffffffffffffffffffffffff16837f2f8788117e7eff1d82e926ec794901d17c78024a50270940304540a733656f0d60405160405180910390a45b5050565b600080600084815260200190815260200160002060000160008373ffffffffffffffffffffffffffffffffffffffff1673ffffffffffffffffffffffffffffffffffffffff16815260200190815260200160002060009054906101000a900460ff16905092915050565b600033905090565b6000815190506200026381620002c9565b92915050565b6000602082840312156200027c57600080fd5b60006200028c8482850162000252565b91505092915050565b6000620002a282620002a9565b9050919050565b600073ffffffffffffffffffffffffffffffffffffffff82169050919050565b620002d48162000295565b8114620002e057600080fd5b50565b611a6a80620002f36000396000f3fe608060405234801561001057600080fd5b50600436106101215760003560e01c80637a6a8763116100ad578063a7cd52cb11610071578063a7cd52cb14610318578063ca9c0bad14610348578063d547741f14610364578063d672131b14610380578063fbddd14b1461039e57610121565b80637a6a8763146102865780637c56b798146102905780637dafc0d3146102ac57806391d14854146102ca578063a217fddf146102fa57610121565b806329e5d831116100f457806329e5d831146101d25780632f2ff15d1461020257806336568abe1461021e57806343ba044d1461023a5780634ca3e9b81461025657610121565b806301ffc9a714610126578063107046bd14610156578063211ad0c214610186578063248a9ca3146101a2575b600080fd5b610140600480360381019061013b91906112c1565b6103bc565b60405161014d91906115b1565b60405180910390f35b610170600480360381019061016b91906112ea565b610436565b60405161017d919061157b565b60405180910390f35b6101a0600480360381019061019b919061120a565b610469565b005b6101bc60048036038101906101b79190611233565b6104da565b6040516101c991906115cc565b60405180910390f35b6101ec60048036038101906101e79190611313565b6104f9565b6040516101f99190611689565b60405180910390f35b61021c60048036038101906102179190611285565b610662565b005b61023860048036038101906102339190611285565b61068b565b005b610254600480360381019061024f919061120a565b61070e565b005b610270600480360381019061026b91906112ea565b61077f565b60405161027d919061157b565b60405180910390f35b61028e6107bc565b005b6102aa60048036038101906102a5919061120a565b61087e565b005b6102b461095a565b6040516102c19190611596565b60405180910390f35b6102e460048036038101906102df9190611285565b610980565b6040516102f191906115b1565b60405180910390f35b6103026109ea565b60405161030f91906115cc565b60405180910390f35b610332600480360381019061032d919061120a565b6109f1565b60405161033f91906115b1565b60405180910390f35b610362600480360381019061035d919061120a565b610a11565b005b61037e60048036038101906103799190611285565b610a6b565b005b610388610a94565b6040516103959190611689565b60405180910390f35b6103a6610a9a565b6040516103b391906115cc565b60405180910390f35b60007f7965db0b000000000000000000000000000000000000000000000000000000007bffffffffffffffffffffffffffffffffffffffffffffffffffffffff1916827bffffffffffffffffffffffffffffffffffffffffffffffffffffffff1916148061042f575061042e82610b57565b5b9050919050565b60036020528060005260406000206000915054906101000a900473ffffffffffffffffffffffffffffffffffffffff1681565b6000801b61047e81610479610bc1565b610bc9565b6000600460008473ffffffffffffffffffffffffffffffffffffffff1673ffffffffffffffffffffffffffffffffffffffff16815260200190815260200160002060006101000a81548160ff0219169083151502179055505050565b6000806000838152602001908152602001600020600101549050919050565b6000600460003373ffffffffffffffffffffffffffffffffffffffff1673ffffffffffffffffffffffffffffffffffffffff16815260200190815260200160002060009054906101000a900460ff16610587576040517f08c379a000000000000000000000000000000000000000000000000000000000815260040161057e90611649565b60405180910390fd5b6000600160009054906101000a900473ffffffffffffffffffffffffffffffffffffffff1673ffffffffffffffffffffffffffffffffffffffff1663990c8f796040518163ffffffff1660e01b815260040160206040518083038186803b1580156105f157600080fd5b505afa158015610605573d6000803e3d6000fd5b505050506040513d601f19601f82011682018060405250810190610629919061125c565b848460405160200161063d93929190611504565b6040516020818303038152906040528051906020012060001c90508091505092915050565b61066b826104da565b61067c81610677610bc1565b610bc9565b6106868383610c66565b505050565b610693610bc1565b73ffffffffffffffffffffffffffffffffffffffff168173ffffffffffffffffffffffffffffffffffffffff1614610700576040517f08c379a00000000000000000000000000000000000000000000000000000000081526004016106f790611669565b60405180910390fd5b61070a8282610d46565b5050565b6000801b6107238161071e610bc1565b610bc9565b6001600460008473ffffffffffffffffffffffffffffffffffffffff1673ffffffffffffffffffffffffffffffffffffffff16815260200190815260200160002060006101000a81548160ff0219169083151502179055505050565b60006003600083815260200190815260200160002060009054906101000a900473ffffffffffffffffffffffffffffffffffffffff169050919050565b6000801b6107d1816107cc610bc1565b610bc9565b6107db6002610e27565b60006107e76002610e83565b905060006003600083815260200190815260200160002060009054906101000a900473ffffffffffffffffffffffffffffffffffffffff1690506000600460008373ffffffffffffffffffffffffffffffffffffffff1673ffffffffffffffffffffffffffffffffffffffff16815260200190815260200160002060006101000a81548160ff021916908315150217905550505050565b6000801b6108938161088e610bc1565b610bc9565b600061089f6002610e83565b90506108ab6002610e91565b826003600083815260200190815260200160002060006101000a81548173ffffffffffffffffffffffffffffffffffffffff021916908373ffffffffffffffffffffffffffffffffffffffff1602179055506001600460008573ffffffffffffffffffffffffffffffffffffffff1673ffffffffffffffffffffffffffffffffffffffff16815260200190815260200160002060006101000a81548160ff021916908315150217905550505050565b600560009054906101000a900473ffffffffffffffffffffffffffffffffffffffff1681565b600080600084815260200190815260200160002060000160008373ffffffffffffffffffffffffffffffffffffffff1673ffffffffffffffffffffffffffffffffffffffff16815260200190815260200160002060009054906101000a900460ff16905092915050565b6000801b81565b60046020528060005260406000206000915054906101000a900460ff1681565b6000801b610a2681610a21610bc1565b610bc9565b81600160006101000a81548173ffffffffffffffffffffffffffffffffffffffff021916908373ffffffffffffffffffffffffffffffffffffffff1602179055505050565b610a74826104da565b610a8581610a80610bc1565b610bc9565b610a8f8383610d46565b505050565b60065481565b60008060001b610ab181610aac610bc1565b610bc9565b600160009054906101000a900473ffffffffffffffffffffffffffffffffffffffff1673ffffffffffffffffffffffffffffffffffffffff1663990c8f796040518163ffffffff1660e01b815260040160206040518083038186803b158015610b1957600080fd5b505afa158015610b2d573d6000803e3d6000fd5b505050506040513d601f19601f82011682018060405250810190610b51919061125c565b91505090565b60007f01ffc9a7000000000000000000000000000000000000000000000000000000007bffffffffffffffffffffffffffffffffffffffffffffffffffffffff1916827bffffffffffffffffffffffffffffffffffffffffffffffffffffffff1916149050919050565b600033905090565b610bd38282610980565b610c6257610bf88173ffffffffffffffffffffffffffffffffffffffff166014610ea7565b610c068360001c6020610ea7565b604051602001610c17929190611541565b6040516020818303038152906040526040517f08c379a0000000000000000000000000000000000000000000000000000000008152600401610c5991906115e7565b60405180910390fd5b5050565b610c708282610980565b610d4257600160008084815260200190815260200160002060000160008373ffffffffffffffffffffffffffffffffffffffff1673ffffffffffffffffffffffffffffffffffffffff16815260200190815260200160002060006101000a81548160ff021916908315150217905550610ce7610bc1565b73ffffffffffffffffffffffffffffffffffffffff168173ffffffffffffffffffffffffffffffffffffffff16837f2f8788117e7eff1d82e926ec794901d17c78024a50270940304540a733656f0d60405160405180910390a45b5050565b610d508282610980565b15610e2357600080600084815260200190815260200160002060000160008373ffffffffffffffffffffffffffffffffffffffff1673ffffffffffffffffffffffffffffffffffffffff16815260200190815260200160002060006101000a81548160ff021916908315150217905550610dc8610bc1565b73ffffffffffffffffffffffffffffffffffffffff168173ffffffffffffffffffffffffffffffffffffffff16837ff6391f5c32d9c69d2a47ea670b442974b53935d1edc7fd64eb21e047a839171b60405160405180910390a45b5050565b60008160000154905060008111610e73576040517f08c379a0000000000000000000000000000000000000000000000000000000008152600401610e6a90611629565b60405180910390fd5b6001810382600001819055505050565b600081600001549050919050565b6001816000016000828254019250508190555050565b606060006002836002610eba9190611721565b610ec491906116cb565b67ffffffffffffffff811115610f03577f4e487b7100000000000000000000000000000000000000000000000000000000600052604160045260246000fd5b6040519080825280601f01601f191660200182016040528015610f355781602001600182028036833780820191505090505b5090507f300000000000000000000000000000000000000000000000000000000000000081600081518110610f93577f4e487b7100000000000000000000000000000000000000000000000000000000600052603260045260246000fd5b60200101907effffffffffffffffffffffffffffffffffffffffffffffffffffffffffffff1916908160001a9053507f78000000000000000000000000000000000000000000000000000000000000008160018151811061101d577f4e487b7100000000000000000000000000000000000000000000000000000000600052603260045260246000fd5b60200101907effffffffffffffffffffffffffffffffffffffffffffffffffffffffffffff1916908160001a9053506000600184600261105d9190611721565b61106791906116cb565b90505b6001811115611153577f3031323334353637383961626364656600000000000000000000000000000000600f8616601081106110cf577f4e487b7100000000000000000000000000000000000000000000000000000000600052603260045260246000fd5b1a60f81b82828151811061110c577f4e487b7100000000000000000000000000000000000000000000000000000000600052603260045260246000fd5b60200101907effffffffffffffffffffffffffffffffffffffffffffffffffffffffffffff1916908160001a905350600485901c94508061114c9061183e565b905061106a565b5060008414611197576040517f08c379a000000000000000000000000000000000000000000000000000000000815260040161118e90611609565b60405180910390fd5b8091505092915050565b6000813590506111b0816119d8565b92915050565b6000813590506111c5816119ef565b92915050565b6000815190506111da816119ef565b92915050565b6000813590506111ef81611a06565b92915050565b60008135905061120481611a1d565b92915050565b60006020828403121561121c57600080fd5b600061122a848285016111a1565b91505092915050565b60006020828403121561124557600080fd5b6000611253848285016111b6565b91505092915050565b60006020828403121561126e57600080fd5b600061127c848285016111cb565b91505092915050565b6000806040838503121561129857600080fd5b60006112a6858286016111b6565b92505060206112b7858286016111a1565b9150509250929050565b6000602082840312156112d357600080fd5b60006112e1848285016111e0565b91505092915050565b6000602082840312156112fc57600080fd5b600061130a848285016111f5565b91505092915050565b6000806040838503121561132657600080fd5b6000611334858286016111f5565b9250506020611345858286016111f5565b9150509250929050565b6113588161178d565b82525050565b6113678161177b565b82525050565b6113768161179f565b82525050565b611385816117ab565b82525050565b61139c611397826117ab565b611868565b82525050565b60006113ad826116a4565b6113b781856116af565b93506113c781856020860161180b565b6113d0816118ab565b840191505092915050565b60006113e6826116a4565b6113f081856116c0565b935061140081856020860161180b565b80840191505092915050565b60006114196020836116af565b9150611424826118bc565b602082019050919050565b600061143c601b836116af565b9150611447826118e5565b602082019050919050565b600061145f601b836116af565b915061146a8261190e565b602082019050919050565b60006114826017836116c0565b915061148d82611937565b601782019050919050565b60006114a56011836116c0565b91506114b082611960565b601182019050919050565b60006114c8602f836116af565b91506114d382611989565b604082019050919050565b6114e781611801565b82525050565b6114fe6114f982611801565b611872565b82525050565b6000611510828661138b565b60208201915061152082856114ed565b60208201915061153082846114ed565b602082019150819050949350505050565b600061154c82611475565b915061155882856113db565b915061156382611498565b915061156f82846113db565b91508190509392505050565b6000602082019050611590600083018461135e565b92915050565b60006020820190506115ab600083018461134f565b92915050565b60006020820190506115c6600083018461136d565b92915050565b60006020820190506115e1600083018461137c565b92915050565b6000602082019050818103600083015261160181846113a2565b905092915050565b600060208201905081810360008301526116228161140c565b9050919050565b600060208201905081810360008301526116428161142f565b9050919050565b6000602082019050818103600083015261166281611452565b9050919050565b60006020820190508181036000830152611682816114bb565b9050919050565b600060208201905061169e60008301846114de565b92915050565b600081519050919050565b600082825260208201905092915050565b600081905092915050565b60006116d682611801565b91506116e183611801565b9250827fffffffffffffffffffffffffffffffffffffffffffffffffffffffffffffffff038211156117165761171561187c565b5b828201905092915050565b600061172c82611801565b915061173783611801565b9250817fffffffffffffffffffffffffffffffffffffffffffffffffffffffffffffffff04831182151516156117705761176f61187c565b5b828202905092915050565b6000611786826117e1565b9050919050565b6000611798826117e1565b9050919050565b60008115159050919050565b6000819050919050565b60007fffffffff0000000000000000000000000000000000000000000000000000000082169050919050565b600073ffffffffffffffffffffffffffffffffffffffff82169050919050565b6000819050919050565b60005b8381101561182957808201518184015260208101905061180e565b83811115611838576000848401525b50505050565b600061184982611801565b9150600082141561185d5761185c61187c565b5b600182039050919050565b6000819050919050565b6000819050919050565b7f4e487b7100000000000000000000000000000000000000000000000000000000600052601160045260246000fd5b6000601f19601f8301169050919050565b7f537472696e67733a20686578206c656e67746820696e73756666696369656e74600082015250565b7f436f756e7465723a2064656372656d656e74206f766572666c6f770000000000600082015250565b7f726e672063616c6c6572206e6f7420616c6c6f77206c69737465640000000000600082015250565b7f416363657373436f6e74726f6c3a206163636f756e7420000000000000000000600082015250565b7f206973206d697373696e6720726f6c6520000000000000000000000000000000600082015250565b7f416363657373436f6e74726f6c3a2063616e206f6e6c792072656e6f756e636560008201527f20726f6c657320666f722073656c660000000000000000000000000000000000602082015250565b6119e18161177b565b81146119ec57600080fd5b50565b6119f8816117ab565b8114611a0357600080fd5b50565b611a0f816117b5565b8114611a1a57600080fd5b50565b611a2681611801565b8114611a3157600080fd5b5056fea264697066735822122064936900e3fcfa9e2f7b8a1fb381a40a48b301d1e28780b88c9ba31e8226914f64736f6c63430008020033",
  "linkReferences": {},
  "deployedLinkReferences": {}
}