{
  "_format": "hh-sol-artifact-1",
  "contractName": "FineCore",
  "sourceName": "contracts/FineCore.sol",
  "abi": [
    {
      "inputs": [
        {
          "internalType": "address",
          "name": "entropySourceAddress",
          "type": "address"
        }
      ],
      "stateMutability": "nonpayable",
      "type": "constructor"
    },
    {
      "anonymous": false,
      "inputs": [
        {
          "indexed": true,
          "internalType": "bytes32",
          "name": "role",
          "type": "bytes32"
        },
        {
          "indexed": true,
          "internalType": "bytes32",
          "name": "previousAdminRole",
          "type": "bytes32"
        },
        {
          "indexed": true,
          "internalType": "bytes32",
          "name": "newAdminRole",
          "type": "bytes32"
        }
      ],
      "name": "RoleAdminChanged",
      "type": "event"
    },
    {
      "anonymous": false,
      "inputs": [
        {
          "indexed": true,
          "internalType": "bytes32",
          "name": "role",
          "type": "bytes32"
        },
        {
          "indexed": true,
          "internalType": "address",
          "name": "account",
          "type": "address"
        },
        {
          "indexed": true,
          "internalType": "address",
          "name": "sender",
          "type": "address"
        }
      ],
      "name": "RoleGranted",
      "type": "event"
    },
    {
      "anonymous": false,
      "inputs": [
        {
          "indexed": true,
          "internalType": "bytes32",
          "name": "role",
          "type": "bytes32"
        },
        {
          "indexed": true,
          "internalType": "address",
          "name": "account",
          "type": "address"
        },
        {
          "indexed": true,
          "internalType": "address",
          "name": "sender",
          "type": "address"
        }
      ],
      "name": "RoleRevoked",
      "type": "event"
    },
    {
      "inputs": [],
      "name": "DEFAULT_ADMIN_ROLE",
      "outputs": [
        {
          "internalType": "bytes32",
          "name": "",
          "type": "bytes32"
        }
      ],
      "stateMutability": "view",
      "type": "function"
    },
    {
      "inputs": [],
      "name": "FINE_TREASURY",
      "outputs": [
        {
          "internalType": "address payable",
          "name": "",
          "type": "address"
        }
      ],
      "stateMutability": "view",
      "type": "function"
    },
    {
      "inputs": [
        {
          "internalType": "address",
          "name": "project",
          "type": "address"
        }
      ],
      "name": "addProject",
      "outputs": [],
      "stateMutability": "nonpayable",
      "type": "function"
    },
    {
      "inputs": [
        {
          "internalType": "address",
          "name": "",
          "type": "address"
        }
      ],
      "name": "allowlist",
      "outputs": [
        {
          "internalType": "bool",
          "name": "",
          "type": "bool"
        }
      ],
      "stateMutability": "view",
      "type": "function"
    },
    {
      "inputs": [
        {
          "internalType": "uint256",
          "name": "id",
          "type": "uint256"
        }
      ],
      "name": "getProjectAddress",
      "outputs": [
        {
          "internalType": "address",
          "name": "",
          "type": "address"
        }
      ],
      "stateMutability": "view",
      "type": "function"
    },
    {
      "inputs": [
        {
          "internalType": "uint256",
          "name": "id",
          "type": "uint256"
        },
        {
          "internalType": "uint256",
          "name": "seed",
          "type": "uint256"
        }
      ],
      "name": "getRandomness",
      "outputs": [
        {
          "internalType": "uint256",
          "name": "randomnesss",
          "type": "uint256"
        }
      ],
      "stateMutability": "view",
      "type": "function"
    },
    {
      "inputs": [
        {
          "internalType": "bytes32",
          "name": "role",
          "type": "bytes32"
        }
      ],
      "name": "getRoleAdmin",
      "outputs": [
        {
          "internalType": "bytes32",
          "name": "",
          "type": "bytes32"
        }
      ],
      "stateMutability": "view",
      "type": "function"
    },
    {
      "inputs": [
        {
          "internalType": "bytes32",
          "name": "role",
          "type": "bytes32"
        },
        {
          "internalType": "address",
          "name": "account",
          "type": "address"
        }
      ],
      "name": "grantRole",
      "outputs": [],
      "stateMutability": "nonpayable",
      "type": "function"
    },
    {
      "inputs": [
        {
          "internalType": "bytes32",
          "name": "role",
          "type": "bytes32"
        },
        {
          "internalType": "address",
          "name": "account",
          "type": "address"
        }
      ],
      "name": "hasRole",
      "outputs": [
        {
          "internalType": "bool",
          "name": "",
          "type": "bool"
        }
      ],
      "stateMutability": "view",
      "type": "function"
    },
    {
      "inputs": [],
      "name": "platformPercentage",
      "outputs": [
        {
          "internalType": "uint256",
          "name": "",
          "type": "uint256"
        }
      ],
      "stateMutability": "view",
      "type": "function"
    },
    {
      "inputs": [],
      "name": "platformRoyalty",
      "outputs": [
        {
          "internalType": "uint256",
          "name": "",
          "type": "uint256"
        }
      ],
      "stateMutability": "view",
      "type": "function"
    },
    {
      "inputs": [
        {
          "internalType": "uint256",
          "name": "",
          "type": "uint256"
        }
      ],
      "name": "projects",
      "outputs": [
        {
          "internalType": "address",
          "name": "",
          "type": "address"
        }
      ],
      "stateMutability": "view",
      "type": "function"
    },
    {
      "inputs": [
        {
          "internalType": "bytes32",
          "name": "role",
          "type": "bytes32"
        },
        {
          "internalType": "address",
          "name": "account",
          "type": "address"
        }
      ],
      "name": "renounceRole",
      "outputs": [],
      "stateMutability": "nonpayable",
      "type": "function"
    },
    {
      "inputs": [
        {
          "internalType": "bytes32",
          "name": "role",
          "type": "bytes32"
        },
        {
          "internalType": "address",
          "name": "account",
          "type": "address"
        }
      ],
      "name": "revokeRole",
      "outputs": [],
      "stateMutability": "nonpayable",
      "type": "function"
    },
    {
      "inputs": [],
      "name": "rollbackLastProject",
      "outputs": [],
      "stateMutability": "nonpayable",
      "type": "function"
    },
    {
      "inputs": [
        {
          "internalType": "uint96",
          "name": "_percentage",
          "type": "uint96"
        }
      ],
      "name": "setPlatformPercent",
      "outputs": [],
      "stateMutability": "nonpayable",
      "type": "function"
    },
    {
      "inputs": [
        {
          "internalType": "address",
          "name": "rand",
          "type": "address"
        }
      ],
      "name": "setRandom",
      "outputs": [],
      "stateMutability": "nonpayable",
      "type": "function"
    },
    {
      "inputs": [
        {
          "internalType": "uint96",
          "name": "_percentage",
          "type": "uint96"
        }
      ],
      "name": "setRoyaltyPercent",
      "outputs": [],
      "stateMutability": "nonpayable",
      "type": "function"
    },
    {
      "inputs": [
        {
          "internalType": "bytes4",
          "name": "interfaceId",
          "type": "bytes4"
        }
      ],
      "name": "supportsInterface",
      "outputs": [
        {
          "internalType": "bool",
          "name": "",
          "type": "bool"
        }
      ],
      "stateMutability": "view",
      "type": "function"
    },
    {
      "inputs": [],
      "name": "testRandom",
      "outputs": [
        {
          "internalType": "bytes32",
          "name": "",
          "type": "bytes32"
        }
      ],
      "stateMutability": "view",
      "type": "function"
    }
  ],
  "bytecode": "0x6080604052600580546001600160a01b031916737a832c86002323a5de3a317b3281eb88ec3b2c001790556103e8600681905560075534801561004157600080fd5b50604051610e48380380610e488339810160408190526100609161012f565b61006b600033610090565b600180546001600160a01b0319166001600160a01b039290921691909117905561015f565b6000828152602081815260408083206001600160a01b038516845290915290205460ff1661012b576000828152602081815260408083206001600160a01b03851684529091529020805460ff191660011790556100ea3390565b6001600160a01b0316816001600160a01b0316837f2f8788117e7eff1d82e926ec794901d17c78024a50270940304540a733656f0d60405160405180910390a45b5050565b60006020828403121561014157600080fd5b81516001600160a01b038116811461015857600080fd5b9392505050565b610cda8061016e6000396000f3fe608060405234801561001057600080fd5b506004361061012c5760003560e01c80637c56b798116100ad578063be17060211610071578063be170602146102b7578063ca9c0bad146102ca578063d547741f146102dd578063d672131b146102f0578063fbddd14b146102f957600080fd5b80637c56b798146102535780637dafc0d31461026657806391d1485414610279578063a217fddf1461028c578063a7cd52cb1461029457600080fd5b80632f2ff15d116100f45780632f2ff15d146101e757806336568abe146101fc5780634bc46a821461020f5780634ca3e9b8146102225780637a6a87631461024b57600080fd5b806301ffc9a714610131578063107046bd146101595780631f7418971461019a578063248a9ca3146101b157806329e5d831146101d4575b600080fd5b61014461013f366004610a32565b610301565b60405190151581526020015b60405180910390f35b610182610167366004610a5c565b6003602052600090815260409020546001600160a01b031681565b6040516001600160a01b039091168152602001610150565b6101a360065481565b604051908152602001610150565b6101a36101bf366004610a5c565b60009081526020819052604090206001015490565b6101a36101e2366004610a75565b610338565b6101fa6101f5366004610ab3565b610445565b005b6101fa61020a366004610ab3565b610470565b6101fa61021d366004610adf565b6104ee565b610182610230366004610a5c565b6000908152600360205260409020546001600160a01b031690565b6101fa610509565b6101fa610261366004610b08565b61055a565b600554610182906001600160a01b031681565b610144610287366004610ab3565b6105c8565b6101a3600081565b6101446102a2366004610b08565b60046020526000908152604090205460ff1681565b6101fa6102c5366004610adf565b6105f1565b6101fa6102d8366004610b08565b61060c565b6101fa6102eb366004610ab3565b61063b565b6101a360075481565b6101a3610661565b60006001600160e01b03198216637965db0b60e01b148061033257506301ffc9a760e01b6001600160e01b03198316145b92915050565b3360009081526004602052604081205460ff1661039c5760405162461bcd60e51b815260206004820152601b60248201527f726e672063616c6c6572206e6f7420616c6c6f77206c6973746564000000000060448201526064015b60405180910390fd5b6001546040805163990c8f7960e01b815290516000926001600160a01b03169163990c8f799160048083019260209291908290030181865afa1580156103e6573d6000803e3d6000fd5b505050506040513d601f19601f8201168201806040525081019061040a9190610b23565b60408051602081019290925281018590526060810184905260800160408051808303601f190181529190528051602090910120949350505050565b60008281526020819052604090206001015461046181336106eb565b61046b838361074f565b505050565b6001600160a01b03811633146104e05760405162461bcd60e51b815260206004820152602f60248201527f416363657373436f6e74726f6c3a2063616e206f6e6c792072656e6f756e636560448201526e103937b632b9903337b91039b2b63360891b6064820152608401610393565b6104ea82826107d3565b5050565b60006104fa81336106eb565b506001600160601b0316600755565b600061051581336106eb565b61051f6002610838565b600061052a60025490565b6000908152600360209081526040808320546001600160a01b0316835260049091529020805460ff191690555050565b600061056681336106eb565b600061057160025490565b9050610581600280546001019055565b600090815260036020908152604080832080546001600160a01b039096166001600160a01b0319909616861790559382526004905291909120805460ff1916600117905550565b6000918252602082815260408084206001600160a01b0393909316845291905290205460ff1690565b60006105fd81336106eb565b506001600160601b0316600655565b600061061881336106eb565b50600180546001600160a01b0319166001600160a01b0392909216919091179055565b60008281526020819052604090206001015461065781336106eb565b61046b83836107d3565b60008061066e81336106eb565b600160009054906101000a90046001600160a01b03166001600160a01b031663990c8f796040518163ffffffff1660e01b8152600401602060405180830381865afa1580156106c1573d6000803e3d6000fd5b505050506040513d601f19601f820116820180604052508101906106e59190610b23565b91505090565b6106f582826105c8565b6104ea5761070d816001600160a01b0316601461088f565b61071883602061088f565b604051602001610729929190610b6c565b60408051601f198184030181529082905262461bcd60e51b825261039391600401610be1565b61075982826105c8565b6104ea576000828152602081815260408083206001600160a01b03851684529091529020805460ff1916600117905561078f3390565b6001600160a01b0316816001600160a01b0316837f2f8788117e7eff1d82e926ec794901d17c78024a50270940304540a733656f0d60405160405180910390a45050565b6107dd82826105c8565b156104ea576000828152602081815260408083206001600160a01b0385168085529252808320805460ff1916905551339285917ff6391f5c32d9c69d2a47ea670b442974b53935d1edc7fd64eb21e047a839171b9190a45050565b8054806108875760405162461bcd60e51b815260206004820152601b60248201527f436f756e7465723a2064656372656d656e74206f766572666c6f7700000000006044820152606401610393565b600019019055565b6060600061089e836002610c2a565b6108a9906002610c49565b67ffffffffffffffff8111156108c1576108c1610c61565b6040519080825280601f01601f1916602001820160405280156108eb576020820181803683370190505b509050600360fc1b8160008151811061090657610906610c77565b60200101906001600160f81b031916908160001a905350600f60fb1b8160018151811061093557610935610c77565b60200101906001600160f81b031916908160001a9053506000610959846002610c2a565b610964906001610c49565b90505b60018111156109dc576f181899199a1a9b1b9c1cb0b131b232b360811b85600f166010811061099857610998610c77565b1a60f81b8282815181106109ae576109ae610c77565b60200101906001600160f81b031916908160001a90535060049490941c936109d581610c8d565b9050610967565b508315610a2b5760405162461bcd60e51b815260206004820181905260248201527f537472696e67733a20686578206c656e67746820696e73756666696369656e746044820152606401610393565b9392505050565b600060208284031215610a4457600080fd5b81356001600160e01b031981168114610a2b57600080fd5b600060208284031215610a6e57600080fd5b5035919050565b60008060408385031215610a8857600080fd5b50508035926020909101359150565b80356001600160a01b0381168114610aae57600080fd5b919050565b60008060408385031215610ac657600080fd5b82359150610ad660208401610a97565b90509250929050565b600060208284031215610af157600080fd5b81356001600160601b0381168114610a2b57600080fd5b600060208284031215610b1a57600080fd5b610a2b82610a97565b600060208284031215610b3557600080fd5b5051919050565b60005b83811015610b57578181015183820152602001610b3f565b83811115610b66576000848401525b50505050565b7f416363657373436f6e74726f6c3a206163636f756e7420000000000000000000815260008351610ba4816017850160208801610b3c565b7001034b99036b4b9b9b4b733903937b6329607d1b6017918401918201528351610bd5816028840160208801610b3c565b01602801949350505050565b6020815260008251806020840152610c00816040850160208701610b3c565b601f01601f19169190910160400192915050565b634e487b7160e01b600052601160045260246000fd5b6000816000190483118215151615610c4457610c44610c14565b500290565b60008219821115610c5c57610c5c610c14565b500190565b634e487b7160e01b600052604160045260246000fd5b634e487b7160e01b600052603260045260246000fd5b600081610c9c57610c9c610c14565b50600019019056fea264697066735822122016cce3ab8c558ca95bb108d648095bb7e93be9cfc28561bb752a6a7083401adb64736f6c634300080c0033",
  "linkReferences": {},
  "deployedLinkReferences": {}
}