{
  "_format": "hh-sol-artifact-1",
  "contractName": "FineCore",
  "sourceName": "contracts/FineCore.sol",
  "abi": [
    {
      "inputs": [
        {
          "internalType": "address",
          "name": "entropySourceAddress",
          "type": "address"
        }
      ],
      "stateMutability": "nonpayable",
      "type": "constructor"
    },
    {
      "anonymous": false,
      "inputs": [
        {
          "indexed": true,
          "internalType": "bytes32",
          "name": "role",
          "type": "bytes32"
        },
        {
          "indexed": true,
          "internalType": "bytes32",
          "name": "previousAdminRole",
          "type": "bytes32"
        },
        {
          "indexed": true,
          "internalType": "bytes32",
          "name": "newAdminRole",
          "type": "bytes32"
        }
      ],
      "name": "RoleAdminChanged",
      "type": "event"
    },
    {
      "anonymous": false,
      "inputs": [
        {
          "indexed": true,
          "internalType": "bytes32",
          "name": "role",
          "type": "bytes32"
        },
        {
          "indexed": true,
          "internalType": "address",
          "name": "account",
          "type": "address"
        },
        {
          "indexed": true,
          "internalType": "address",
          "name": "sender",
          "type": "address"
        }
      ],
      "name": "RoleGranted",
      "type": "event"
    },
    {
      "anonymous": false,
      "inputs": [
        {
          "indexed": true,
          "internalType": "bytes32",
          "name": "role",
          "type": "bytes32"
        },
        {
          "indexed": true,
          "internalType": "address",
          "name": "account",
          "type": "address"
        },
        {
          "indexed": true,
          "internalType": "address",
          "name": "sender",
          "type": "address"
        }
      ],
      "name": "RoleRevoked",
      "type": "event"
    },
    {
      "inputs": [],
      "name": "DEFAULT_ADMIN_ROLE",
      "outputs": [
        {
          "internalType": "bytes32",
          "name": "",
          "type": "bytes32"
        }
      ],
      "stateMutability": "view",
      "type": "function"
    },
    {
      "inputs": [],
      "name": "FINE_TREASURY",
      "outputs": [
        {
          "internalType": "address payable",
          "name": "",
          "type": "address"
        }
      ],
      "stateMutability": "view",
      "type": "function"
    },
    {
      "inputs": [
        {
          "internalType": "address",
          "name": "project",
          "type": "address"
        }
      ],
      "name": "addProject",
      "outputs": [],
      "stateMutability": "nonpayable",
      "type": "function"
    },
    {
      "inputs": [
        {
          "internalType": "address",
          "name": "project",
          "type": "address"
        }
      ],
      "name": "allowProject",
      "outputs": [],
      "stateMutability": "nonpayable",
      "type": "function"
    },
    {
      "inputs": [
        {
          "internalType": "address",
          "name": "",
          "type": "address"
        }
      ],
      "name": "allowlist",
      "outputs": [
        {
          "internalType": "bool",
          "name": "",
          "type": "bool"
        }
      ],
      "stateMutability": "view",
      "type": "function"
    },
    {
      "inputs": [
        {
          "internalType": "uint256",
          "name": "id",
          "type": "uint256"
        }
      ],
      "name": "getProjectAddress",
      "outputs": [
        {
          "internalType": "address",
          "name": "",
          "type": "address"
        }
      ],
      "stateMutability": "view",
      "type": "function"
    },
    {
      "inputs": [
        {
          "internalType": "uint256",
          "name": "id",
          "type": "uint256"
        },
        {
          "internalType": "uint256",
          "name": "seed",
          "type": "uint256"
        }
      ],
      "name": "getRandomness",
      "outputs": [
        {
          "internalType": "uint256",
          "name": "randomnesss",
          "type": "uint256"
        }
      ],
      "stateMutability": "view",
      "type": "function"
    },
    {
      "inputs": [
        {
          "internalType": "bytes32",
          "name": "role",
          "type": "bytes32"
        }
      ],
      "name": "getRoleAdmin",
      "outputs": [
        {
          "internalType": "bytes32",
          "name": "",
          "type": "bytes32"
        }
      ],
      "stateMutability": "view",
      "type": "function"
    },
    {
      "inputs": [
        {
          "internalType": "bytes32",
          "name": "role",
          "type": "bytes32"
        },
        {
          "internalType": "address",
          "name": "account",
          "type": "address"
        }
      ],
      "name": "grantRole",
      "outputs": [],
      "stateMutability": "nonpayable",
      "type": "function"
    },
    {
      "inputs": [
        {
          "internalType": "bytes32",
          "name": "role",
          "type": "bytes32"
        },
        {
          "internalType": "address",
          "name": "account",
          "type": "address"
        }
      ],
      "name": "hasRole",
      "outputs": [
        {
          "internalType": "bool",
          "name": "",
          "type": "bool"
        }
      ],
      "stateMutability": "view",
      "type": "function"
    },
    {
      "inputs": [],
      "name": "platformPercentage",
      "outputs": [
        {
          "internalType": "uint256",
          "name": "",
          "type": "uint256"
        }
      ],
      "stateMutability": "view",
      "type": "function"
    },
    {
      "inputs": [],
      "name": "platformRoyalty",
      "outputs": [
        {
          "internalType": "uint256",
          "name": "",
          "type": "uint256"
        }
      ],
      "stateMutability": "view",
      "type": "function"
    },
    {
      "inputs": [
        {
          "internalType": "uint256",
          "name": "",
          "type": "uint256"
        }
      ],
      "name": "projects",
      "outputs": [
        {
          "internalType": "address",
          "name": "",
          "type": "address"
        }
      ],
      "stateMutability": "view",
      "type": "function"
    },
    {
      "inputs": [
        {
          "internalType": "bytes32",
          "name": "role",
          "type": "bytes32"
        },
        {
          "internalType": "address",
          "name": "account",
          "type": "address"
        }
      ],
      "name": "renounceRole",
      "outputs": [],
      "stateMutability": "nonpayable",
      "type": "function"
    },
    {
      "inputs": [
        {
          "internalType": "bytes32",
          "name": "role",
          "type": "bytes32"
        },
        {
          "internalType": "address",
          "name": "account",
          "type": "address"
        }
      ],
      "name": "revokeRole",
      "outputs": [],
      "stateMutability": "nonpayable",
      "type": "function"
    },
    {
      "inputs": [],
      "name": "rollbackLastProject",
      "outputs": [],
      "stateMutability": "nonpayable",
      "type": "function"
    },
    {
      "inputs": [
        {
          "internalType": "uint96",
          "name": "_percentage",
          "type": "uint96"
        }
      ],
      "name": "setPlatformPercent",
      "outputs": [],
      "stateMutability": "nonpayable",
      "type": "function"
    },
    {
      "inputs": [
        {
          "internalType": "address",
          "name": "rand",
          "type": "address"
        }
      ],
      "name": "setRandom",
      "outputs": [],
      "stateMutability": "nonpayable",
      "type": "function"
    },
    {
      "inputs": [
        {
          "internalType": "uint96",
          "name": "_percentage",
          "type": "uint96"
        }
      ],
      "name": "setRoyaltyPercent",
      "outputs": [],
      "stateMutability": "nonpayable",
      "type": "function"
    },
    {
      "inputs": [
        {
          "internalType": "bytes4",
          "name": "interfaceId",
          "type": "bytes4"
        }
      ],
      "name": "supportsInterface",
      "outputs": [
        {
          "internalType": "bool",
          "name": "",
          "type": "bool"
        }
      ],
      "stateMutability": "view",
      "type": "function"
    },
    {
      "inputs": [],
      "name": "testRandom",
      "outputs": [
        {
          "internalType": "bytes32",
          "name": "",
          "type": "bytes32"
        }
      ],
      "stateMutability": "view",
      "type": "function"
    },
    {
      "inputs": [
        {
          "internalType": "address",
          "name": "project",
          "type": "address"
        }
      ],
      "name": "unallowProject",
      "outputs": [],
      "stateMutability": "nonpayable",
      "type": "function"
    }
  ],
  "bytecode": "0x6080604052737a832c86002323a5de3a317b3281eb88ec3b2c00600560006101000a81548173ffffffffffffffffffffffffffffffffffffffff021916908373ffffffffffffffffffffffffffffffffffffffff1602179055506103e86006556103e86007553480156200007257600080fd5b5060405162001ea938038062001ea983398181016040528101906200009891906200026f565b620000ad6000801b33620000f560201b60201c565b80600160006101000a81548173ffffffffffffffffffffffffffffffffffffffff021916908373ffffffffffffffffffffffffffffffffffffffff16021790555050620002e9565b620001078282620001e660201b60201c565b620001e257600160008084815260200190815260200160002060000160008373ffffffffffffffffffffffffffffffffffffffff1673ffffffffffffffffffffffffffffffffffffffff16815260200190815260200160002060006101000a81548160ff021916908315150217905550620001876200025060201b60201c565b73ffffffffffffffffffffffffffffffffffffffff168173ffffffffffffffffffffffffffffffffffffffff16837f2f8788117e7eff1d82e926ec794901d17c78024a50270940304540a733656f0d60405160405180910390a45b5050565b600080600084815260200190815260200160002060000160008373ffffffffffffffffffffffffffffffffffffffff1673ffffffffffffffffffffffffffffffffffffffff16815260200190815260200160002060009054906101000a900460ff16905092915050565b600033905090565b6000815190506200026981620002cf565b92915050565b6000602082840312156200028257600080fd5b6000620002928482850162000258565b91505092915050565b6000620002a882620002af565b9050919050565b600073ffffffffffffffffffffffffffffffffffffffff82169050919050565b620002da816200029b565b8114620002e657600080fd5b50565b611bb080620002f96000396000f3fe608060405234801561001057600080fd5b50600436106101425760003560e01c80637a6a8763116100b8578063a7cd52cb1161007c578063a7cd52cb14610373578063be170602146103a3578063ca9c0bad146103bf578063d547741f146103db578063d672131b146103f7578063fbddd14b1461041557610142565b80637a6a8763146102e15780637c56b798146102eb5780637dafc0d31461030757806391d1485414610325578063a217fddf1461035557610142565b806329e5d8311161010a57806329e5d831146102115780632f2ff15d1461024157806336568abe1461025d57806343ba044d146102795780634bc46a82146102955780634ca3e9b8146102b157610142565b806301ffc9a714610147578063107046bd146101775780631f741897146101a7578063211ad0c2146101c5578063248a9ca3146101e1575b600080fd5b610161600480360381019061015c91906113af565b610433565b60405161016e91906116c8565b60405180910390f35b610191600480360381019061018c91906113d8565b6104ad565b60405161019e9190611692565b60405180910390f35b6101af6104e0565b6040516101bc91906117a0565b60405180910390f35b6101df60048036038101906101da91906112f8565b6104e6565b005b6101fb60048036038101906101f69190611321565b610557565b60405161020891906116e3565b60405180910390f35b61022b60048036038101906102269190611401565b610576565b60405161023891906117a0565b60405180910390f35b61025b60048036038101906102569190611373565b6106df565b005b61027760048036038101906102729190611373565b610708565b005b610293600480360381019061028e91906112f8565b61078b565b005b6102af60048036038101906102aa919061143d565b6107fc565b005b6102cb60048036038101906102c691906113d8565b61082a565b6040516102d89190611692565b60405180910390f35b6102e9610867565b005b610305600480360381019061030091906112f8565b610929565b005b61030f610a05565b60405161031c91906116ad565b60405180910390f35b61033f600480360381019061033a9190611373565b610a2b565b60405161034c91906116c8565b60405180910390f35b61035d610a95565b60405161036a91906116e3565b60405180910390f35b61038d600480360381019061038891906112f8565b610a9c565b60405161039a91906116c8565b60405180910390f35b6103bd60048036038101906103b8919061143d565b610abc565b005b6103d960048036038101906103d491906112f8565b610aea565b005b6103f560048036038101906103f09190611373565b610b44565b005b6103ff610b6d565b60405161040c91906117a0565b60405180910390f35b61041d610b73565b60405161042a91906116e3565b60405180910390f35b60007f7965db0b000000000000000000000000000000000000000000000000000000007bffffffffffffffffffffffffffffffffffffffffffffffffffffffff1916827bffffffffffffffffffffffffffffffffffffffffffffffffffffffff191614806104a657506104a582610c30565b5b9050919050565b60036020528060005260406000206000915054906101000a900473ffffffffffffffffffffffffffffffffffffffff1681565b60065481565b6000801b6104fb816104f6610c9a565b610ca2565b6000600460008473ffffffffffffffffffffffffffffffffffffffff1673ffffffffffffffffffffffffffffffffffffffff16815260200190815260200160002060006101000a81548160ff0219169083151502179055505050565b6000806000838152602001908152602001600020600101549050919050565b6000600460003373ffffffffffffffffffffffffffffffffffffffff1673ffffffffffffffffffffffffffffffffffffffff16815260200190815260200160002060009054906101000a900460ff16610604576040517f08c379a00000000000000000000000000000000000000000000000000000000081526004016105fb90611760565b60405180910390fd5b6000600160009054906101000a900473ffffffffffffffffffffffffffffffffffffffff1673ffffffffffffffffffffffffffffffffffffffff1663990c8f796040518163ffffffff1660e01b815260040160206040518083038186803b15801561066e57600080fd5b505afa158015610682573d6000803e3d6000fd5b505050506040513d601f19601f820116820180604052508101906106a6919061134a565b84846040516020016106ba9392919061161b565b6040516020818303038152906040528051906020012060001c90508091505092915050565b6106e882610557565b6106f9816106f4610c9a565b610ca2565b6107038383610d3f565b505050565b610710610c9a565b73ffffffffffffffffffffffffffffffffffffffff168173ffffffffffffffffffffffffffffffffffffffff161461077d576040517f08c379a000000000000000000000000000000000000000000000000000000000815260040161077490611780565b60405180910390fd5b6107878282610e1f565b5050565b6000801b6107a08161079b610c9a565b610ca2565b6001600460008473ffffffffffffffffffffffffffffffffffffffff1673ffffffffffffffffffffffffffffffffffffffff16815260200190815260200160002060006101000a81548160ff0219169083151502179055505050565b6000801b6108118161080c610c9a565b610ca2565b816bffffffffffffffffffffffff166007819055505050565b60006003600083815260200190815260200160002060009054906101000a900473ffffffffffffffffffffffffffffffffffffffff169050919050565b6000801b61087c81610877610c9a565b610ca2565b6108866002610f00565b60006108926002610f5c565b905060006003600083815260200190815260200160002060009054906101000a900473ffffffffffffffffffffffffffffffffffffffff1690506000600460008373ffffffffffffffffffffffffffffffffffffffff1673ffffffffffffffffffffffffffffffffffffffff16815260200190815260200160002060006101000a81548160ff021916908315150217905550505050565b6000801b61093e81610939610c9a565b610ca2565b600061094a6002610f5c565b90506109566002610f6a565b826003600083815260200190815260200160002060006101000a81548173ffffffffffffffffffffffffffffffffffffffff021916908373ffffffffffffffffffffffffffffffffffffffff1602179055506001600460008573ffffffffffffffffffffffffffffffffffffffff1673ffffffffffffffffffffffffffffffffffffffff16815260200190815260200160002060006101000a81548160ff021916908315150217905550505050565b600560009054906101000a900473ffffffffffffffffffffffffffffffffffffffff1681565b600080600084815260200190815260200160002060000160008373ffffffffffffffffffffffffffffffffffffffff1673ffffffffffffffffffffffffffffffffffffffff16815260200190815260200160002060009054906101000a900460ff16905092915050565b6000801b81565b60046020528060005260406000206000915054906101000a900460ff1681565b6000801b610ad181610acc610c9a565b610ca2565b816bffffffffffffffffffffffff166006819055505050565b6000801b610aff81610afa610c9a565b610ca2565b81600160006101000a81548173ffffffffffffffffffffffffffffffffffffffff021916908373ffffffffffffffffffffffffffffffffffffffff1602179055505050565b610b4d82610557565b610b5e81610b59610c9a565b610ca2565b610b688383610e1f565b505050565b60075481565b60008060001b610b8a81610b85610c9a565b610ca2565b600160009054906101000a900473ffffffffffffffffffffffffffffffffffffffff1673ffffffffffffffffffffffffffffffffffffffff1663990c8f796040518163ffffffff1660e01b815260040160206040518083038186803b158015610bf257600080fd5b505afa158015610c06573d6000803e3d6000fd5b505050506040513d601f19601f82011682018060405250810190610c2a919061134a565b91505090565b60007f01ffc9a7000000000000000000000000000000000000000000000000000000007bffffffffffffffffffffffffffffffffffffffffffffffffffffffff1916827bffffffffffffffffffffffffffffffffffffffffffffffffffffffff1916149050919050565b600033905090565b610cac8282610a2b565b610d3b57610cd18173ffffffffffffffffffffffffffffffffffffffff166014610f80565b610cdf8360001c6020610f80565b604051602001610cf0929190611658565b6040516020818303038152906040526040517f08c379a0000000000000000000000000000000000000000000000000000000008152600401610d3291906116fe565b60405180910390fd5b5050565b610d498282610a2b565b610e1b57600160008084815260200190815260200160002060000160008373ffffffffffffffffffffffffffffffffffffffff1673ffffffffffffffffffffffffffffffffffffffff16815260200190815260200160002060006101000a81548160ff021916908315150217905550610dc0610c9a565b73ffffffffffffffffffffffffffffffffffffffff168173ffffffffffffffffffffffffffffffffffffffff16837f2f8788117e7eff1d82e926ec794901d17c78024a50270940304540a733656f0d60405160405180910390a45b5050565b610e298282610a2b565b15610efc57600080600084815260200190815260200160002060000160008373ffffffffffffffffffffffffffffffffffffffff1673ffffffffffffffffffffffffffffffffffffffff16815260200190815260200160002060006101000a81548160ff021916908315150217905550610ea1610c9a565b73ffffffffffffffffffffffffffffffffffffffff168173ffffffffffffffffffffffffffffffffffffffff16837ff6391f5c32d9c69d2a47ea670b442974b53935d1edc7fd64eb21e047a839171b60405160405180910390a45b5050565b60008160000154905060008111610f4c576040517f08c379a0000000000000000000000000000000000000000000000000000000008152600401610f4390611740565b60405180910390fd5b6001810382600001819055505050565b600081600001549050919050565b6001816000016000828254019250508190555050565b606060006002836002610f939190611838565b610f9d91906117e2565b67ffffffffffffffff811115610fdc577f4e487b7100000000000000000000000000000000000000000000000000000000600052604160045260246000fd5b6040519080825280601f01601f19166020018201604052801561100e5781602001600182028036833780820191505090505b5090507f30000000000000000000000000000000000000000000000000000000000000008160008151811061106c577f4e487b7100000000000000000000000000000000000000000000000000000000600052603260045260246000fd5b60200101907effffffffffffffffffffffffffffffffffffffffffffffffffffffffffffff1916908160001a9053507f7800000000000000000000000000000000000000000000000000000000000000816001815181106110f6577f4e487b7100000000000000000000000000000000000000000000000000000000600052603260045260246000fd5b60200101907effffffffffffffffffffffffffffffffffffffffffffffffffffffffffffff1916908160001a905350600060018460026111369190611838565b61114091906117e2565b90505b600181111561122c577f3031323334353637383961626364656600000000000000000000000000000000600f8616601081106111a8577f4e487b7100000000000000000000000000000000000000000000000000000000600052603260045260246000fd5b1a60f81b8282815181106111e5577f4e487b7100000000000000000000000000000000000000000000000000000000600052603260045260246000fd5b60200101907effffffffffffffffffffffffffffffffffffffffffffffffffffffffffffff1916908160001a905350600485901c9450806112259061196d565b9050611143565b5060008414611270576040517f08c379a000000000000000000000000000000000000000000000000000000000815260040161126790611720565b60405180910390fd5b8091505092915050565b60008135905061128981611b07565b92915050565b60008135905061129e81611b1e565b92915050565b6000815190506112b381611b1e565b92915050565b6000813590506112c881611b35565b92915050565b6000813590506112dd81611b4c565b92915050565b6000813590506112f281611b63565b92915050565b60006020828403121561130a57600080fd5b60006113188482850161127a565b91505092915050565b60006020828403121561133357600080fd5b60006113418482850161128f565b91505092915050565b60006020828403121561135c57600080fd5b600061136a848285016112a4565b91505092915050565b6000806040838503121561138657600080fd5b60006113948582860161128f565b92505060206113a58582860161127a565b9150509250929050565b6000602082840312156113c157600080fd5b60006113cf848285016112b9565b91505092915050565b6000602082840312156113ea57600080fd5b60006113f8848285016112ce565b91505092915050565b6000806040838503121561141457600080fd5b6000611422858286016112ce565b9250506020611433858286016112ce565b9150509250929050565b60006020828403121561144f57600080fd5b600061145d848285016112e3565b91505092915050565b61146f816118a4565b82525050565b61147e81611892565b82525050565b61148d816118b6565b82525050565b61149c816118c2565b82525050565b6114b36114ae826118c2565b611997565b82525050565b60006114c4826117bb565b6114ce81856117c6565b93506114de81856020860161193a565b6114e7816119da565b840191505092915050565b60006114fd826117bb565b61150781856117d7565b935061151781856020860161193a565b80840191505092915050565b60006115306020836117c6565b915061153b826119eb565b602082019050919050565b6000611553601b836117c6565b915061155e82611a14565b602082019050919050565b6000611576601b836117c6565b915061158182611a3d565b602082019050919050565b60006115996017836117d7565b91506115a482611a66565b601782019050919050565b60006115bc6011836117d7565b91506115c782611a8f565b601182019050919050565b60006115df602f836117c6565b91506115ea82611ab8565b604082019050919050565b6115fe81611918565b82525050565b61161561161082611918565b6119a1565b82525050565b600061162782866114a2565b6020820191506116378285611604565b6020820191506116478284611604565b602082019150819050949350505050565b60006116638261158c565b915061166f82856114f2565b915061167a826115af565b915061168682846114f2565b91508190509392505050565b60006020820190506116a76000830184611475565b92915050565b60006020820190506116c26000830184611466565b92915050565b60006020820190506116dd6000830184611484565b92915050565b60006020820190506116f86000830184611493565b92915050565b6000602082019050818103600083015261171881846114b9565b905092915050565b6000602082019050818103600083015261173981611523565b9050919050565b6000602082019050818103600083015261175981611546565b9050919050565b6000602082019050818103600083015261177981611569565b9050919050565b60006020820190508181036000830152611799816115d2565b9050919050565b60006020820190506117b560008301846115f5565b92915050565b600081519050919050565b600082825260208201905092915050565b600081905092915050565b60006117ed82611918565b91506117f883611918565b9250827fffffffffffffffffffffffffffffffffffffffffffffffffffffffffffffffff0382111561182d5761182c6119ab565b5b828201905092915050565b600061184382611918565b915061184e83611918565b9250817fffffffffffffffffffffffffffffffffffffffffffffffffffffffffffffffff0483118215151615611887576118866119ab565b5b828202905092915050565b600061189d826118f8565b9050919050565b60006118af826118f8565b9050919050565b60008115159050919050565b6000819050919050565b60007fffffffff0000000000000000000000000000000000000000000000000000000082169050919050565b600073ffffffffffffffffffffffffffffffffffffffff82169050919050565b6000819050919050565b60006bffffffffffffffffffffffff82169050919050565b60005b8381101561195857808201518184015260208101905061193d565b83811115611967576000848401525b50505050565b600061197882611918565b9150600082141561198c5761198b6119ab565b5b600182039050919050565b6000819050919050565b6000819050919050565b7f4e487b7100000000000000000000000000000000000000000000000000000000600052601160045260246000fd5b6000601f19601f8301169050919050565b7f537472696e67733a20686578206c656e67746820696e73756666696369656e74600082015250565b7f436f756e7465723a2064656372656d656e74206f766572666c6f770000000000600082015250565b7f726e672063616c6c6572206e6f7420616c6c6f77206c69737465640000000000600082015250565b7f416363657373436f6e74726f6c3a206163636f756e7420000000000000000000600082015250565b7f206973206d697373696e6720726f6c6520000000000000000000000000000000600082015250565b7f416363657373436f6e74726f6c3a2063616e206f6e6c792072656e6f756e636560008201527f20726f6c657320666f722073656c660000000000000000000000000000000000602082015250565b611b1081611892565b8114611b1b57600080fd5b50565b611b27816118c2565b8114611b3257600080fd5b50565b611b3e816118cc565b8114611b4957600080fd5b50565b611b5581611918565b8114611b6057600080fd5b50565b611b6c81611922565b8114611b7757600080fd5b5056fea2646970667358221220eb93feb12164c3c4cdaa9fcf6f916ebb587885b7aca63a4d7be458e06a48fccb64736f6c63430008020033",
  "linkReferences": {},
  "deployedLinkReferences": {}
}