{
  "_format": "hh-sol-artifact-1",
  "contractName": "FineCore",
  "sourceName": "contracts/FineCore.sol",
  "abi": [
    {
      "inputs": [
        {
          "internalType": "address",
          "name": "entropySourceAddress",
          "type": "address"
        }
      ],
      "stateMutability": "nonpayable",
      "type": "constructor"
    },
    {
      "anonymous": false,
      "inputs": [
        {
          "indexed": true,
          "internalType": "bytes32",
          "name": "role",
          "type": "bytes32"
        },
        {
          "indexed": true,
          "internalType": "bytes32",
          "name": "previousAdminRole",
          "type": "bytes32"
        },
        {
          "indexed": true,
          "internalType": "bytes32",
          "name": "newAdminRole",
          "type": "bytes32"
        }
      ],
      "name": "RoleAdminChanged",
      "type": "event"
    },
    {
      "anonymous": false,
      "inputs": [
        {
          "indexed": true,
          "internalType": "bytes32",
          "name": "role",
          "type": "bytes32"
        },
        {
          "indexed": true,
          "internalType": "address",
          "name": "account",
          "type": "address"
        },
        {
          "indexed": true,
          "internalType": "address",
          "name": "sender",
          "type": "address"
        }
      ],
      "name": "RoleGranted",
      "type": "event"
    },
    {
      "anonymous": false,
      "inputs": [
        {
          "indexed": true,
          "internalType": "bytes32",
          "name": "role",
          "type": "bytes32"
        },
        {
          "indexed": true,
          "internalType": "address",
          "name": "account",
          "type": "address"
        },
        {
          "indexed": true,
          "internalType": "address",
          "name": "sender",
          "type": "address"
        }
      ],
      "name": "RoleRevoked",
      "type": "event"
    },
    {
      "inputs": [],
      "name": "DEFAULT_ADMIN_ROLE",
      "outputs": [
        {
          "internalType": "bytes32",
          "name": "",
          "type": "bytes32"
        }
      ],
      "stateMutability": "view",
      "type": "function"
    },
    {
      "inputs": [],
      "name": "FINE_TREASURY",
      "outputs": [
        {
          "internalType": "address payable",
          "name": "",
          "type": "address"
        }
      ],
      "stateMutability": "view",
      "type": "function"
    },
    {
      "inputs": [
        {
          "internalType": "address",
          "name": "project",
          "type": "address"
        }
      ],
      "name": "addProject",
      "outputs": [],
      "stateMutability": "nonpayable",
      "type": "function"
    },
    {
      "inputs": [
        {
          "internalType": "address",
          "name": "project",
          "type": "address"
        }
      ],
      "name": "allowProject",
      "outputs": [],
      "stateMutability": "nonpayable",
      "type": "function"
    },
    {
      "inputs": [
        {
          "internalType": "address",
          "name": "",
          "type": "address"
        }
      ],
      "name": "allowlist",
      "outputs": [
        {
          "internalType": "bool",
          "name": "",
          "type": "bool"
        }
      ],
      "stateMutability": "view",
      "type": "function"
    },
    {
      "inputs": [
        {
          "internalType": "uint256",
          "name": "id",
          "type": "uint256"
        }
      ],
      "name": "getProjectAddress",
      "outputs": [
        {
          "internalType": "address",
          "name": "",
          "type": "address"
        }
      ],
      "stateMutability": "view",
      "type": "function"
    },
    {
      "inputs": [
        {
          "internalType": "uint256",
          "name": "id",
          "type": "uint256"
        },
        {
          "internalType": "uint256",
          "name": "seed",
          "type": "uint256"
        }
      ],
      "name": "getRandomness",
      "outputs": [
        {
          "internalType": "uint256",
          "name": "randomnesss",
          "type": "uint256"
        }
      ],
      "stateMutability": "view",
      "type": "function"
    },
    {
      "inputs": [
        {
          "internalType": "bytes32",
          "name": "role",
          "type": "bytes32"
        }
      ],
      "name": "getRoleAdmin",
      "outputs": [
        {
          "internalType": "bytes32",
          "name": "",
          "type": "bytes32"
        }
      ],
      "stateMutability": "view",
      "type": "function"
    },
    {
      "inputs": [
        {
          "internalType": "bytes32",
          "name": "role",
          "type": "bytes32"
        },
        {
          "internalType": "address",
          "name": "account",
          "type": "address"
        }
      ],
      "name": "grantRole",
      "outputs": [],
      "stateMutability": "nonpayable",
      "type": "function"
    },
    {
      "inputs": [
        {
          "internalType": "bytes32",
          "name": "role",
          "type": "bytes32"
        },
        {
          "internalType": "address",
          "name": "account",
          "type": "address"
        }
      ],
      "name": "hasRole",
      "outputs": [
        {
          "internalType": "bool",
          "name": "",
          "type": "bool"
        }
      ],
      "stateMutability": "view",
      "type": "function"
    },
    {
      "inputs": [],
      "name": "platformPercentage",
      "outputs": [
        {
          "internalType": "uint256",
          "name": "",
          "type": "uint256"
        }
      ],
      "stateMutability": "view",
      "type": "function"
    },
    {
      "inputs": [],
      "name": "platformRoyalty",
      "outputs": [
        {
          "internalType": "uint256",
          "name": "",
          "type": "uint256"
        }
      ],
      "stateMutability": "view",
      "type": "function"
    },
    {
      "inputs": [
        {
          "internalType": "uint256",
          "name": "",
          "type": "uint256"
        }
      ],
      "name": "projects",
      "outputs": [
        {
          "internalType": "address",
          "name": "",
          "type": "address"
        }
      ],
      "stateMutability": "view",
      "type": "function"
    },
    {
      "inputs": [
        {
          "internalType": "bytes32",
          "name": "role",
          "type": "bytes32"
        },
        {
          "internalType": "address",
          "name": "account",
          "type": "address"
        }
      ],
      "name": "renounceRole",
      "outputs": [],
      "stateMutability": "nonpayable",
      "type": "function"
    },
    {
      "inputs": [
        {
          "internalType": "bytes32",
          "name": "role",
          "type": "bytes32"
        },
        {
          "internalType": "address",
          "name": "account",
          "type": "address"
        }
      ],
      "name": "revokeRole",
      "outputs": [],
      "stateMutability": "nonpayable",
      "type": "function"
    },
    {
      "inputs": [],
      "name": "rollbackLastProject",
      "outputs": [],
      "stateMutability": "nonpayable",
      "type": "function"
    },
    {
      "inputs": [
        {
          "internalType": "address",
          "name": "rand",
          "type": "address"
        }
      ],
      "name": "setRandom",
      "outputs": [],
      "stateMutability": "nonpayable",
      "type": "function"
    },
    {
      "inputs": [
        {
          "internalType": "bytes4",
          "name": "interfaceId",
          "type": "bytes4"
        }
      ],
      "name": "supportsInterface",
      "outputs": [
        {
          "internalType": "bool",
          "name": "",
          "type": "bool"
        }
      ],
      "stateMutability": "view",
      "type": "function"
    },
    {
      "inputs": [],
      "name": "testRandom",
      "outputs": [
        {
          "internalType": "bytes32",
          "name": "",
          "type": "bytes32"
        }
      ],
      "stateMutability": "view",
      "type": "function"
    },
    {
      "inputs": [
        {
          "internalType": "address",
          "name": "project",
          "type": "address"
        }
      ],
      "name": "unallowProject",
      "outputs": [],
      "stateMutability": "nonpayable",
      "type": "function"
    }
  ],
  "bytecode": "0x6080604052737a832c86002323a5de3a317b3281eb88ec3b2c00600560006101000a81548173ffffffffffffffffffffffffffffffffffffffff021916908373ffffffffffffffffffffffffffffffffffffffff1602179055506103e8600655610d056007553480156200007257600080fd5b5060405162001d9238038062001d9283398181016040528101906200009891906200026f565b620000ad6000801b33620000f560201b60201c565b80600160006101000a81548173ffffffffffffffffffffffffffffffffffffffff021916908373ffffffffffffffffffffffffffffffffffffffff16021790555050620002e9565b620001078282620001e660201b60201c565b620001e257600160008084815260200190815260200160002060000160008373ffffffffffffffffffffffffffffffffffffffff1673ffffffffffffffffffffffffffffffffffffffff16815260200190815260200160002060006101000a81548160ff021916908315150217905550620001876200025060201b60201c565b73ffffffffffffffffffffffffffffffffffffffff168173ffffffffffffffffffffffffffffffffffffffff16837f2f8788117e7eff1d82e926ec794901d17c78024a50270940304540a733656f0d60405160405180910390a45b5050565b600080600084815260200190815260200160002060000160008373ffffffffffffffffffffffffffffffffffffffff1673ffffffffffffffffffffffffffffffffffffffff16815260200190815260200160002060009054906101000a900460ff16905092915050565b600033905090565b6000815190506200026981620002cf565b92915050565b6000602082840312156200028257600080fd5b6000620002928482850162000258565b91505092915050565b6000620002a882620002af565b9050919050565b600073ffffffffffffffffffffffffffffffffffffffff82169050919050565b620002da816200029b565b8114620002e657600080fd5b50565b611a9980620002f96000396000f3fe608060405234801561001057600080fd5b506004361061012c5760003560e01c80637a6a8763116100ad578063a7cd52cb11610071578063a7cd52cb14610341578063ca9c0bad14610371578063d547741f1461038d578063d672131b146103a9578063fbddd14b146103c75761012c565b80637a6a8763146102af5780637c56b798146102b95780637dafc0d3146102d557806391d14854146102f3578063a217fddf146103235761012c565b806329e5d831116100f457806329e5d831146101fb5780632f2ff15d1461022b57806336568abe1461024757806343ba044d146102635780634ca3e9b81461027f5761012c565b806301ffc9a714610131578063107046bd146101615780631f74189714610191578063211ad0c2146101af578063248a9ca3146101cb575b600080fd5b61014b600480360381019061014691906112f0565b6103e5565b60405161015891906115e0565b60405180910390f35b61017b60048036038101906101769190611319565b61045f565b60405161018891906115aa565b60405180910390f35b610199610492565b6040516101a691906116b8565b60405180910390f35b6101c960048036038101906101c49190611239565b610498565b005b6101e560048036038101906101e09190611262565b610509565b6040516101f291906115fb565b60405180910390f35b61021560048036038101906102109190611342565b610528565b60405161022291906116b8565b60405180910390f35b610245600480360381019061024091906112b4565b610691565b005b610261600480360381019061025c91906112b4565b6106ba565b005b61027d60048036038101906102789190611239565b61073d565b005b61029960048036038101906102949190611319565b6107ae565b6040516102a691906115aa565b60405180910390f35b6102b76107eb565b005b6102d360048036038101906102ce9190611239565b6108ad565b005b6102dd610989565b6040516102ea91906115c5565b60405180910390f35b61030d600480360381019061030891906112b4565b6109af565b60405161031a91906115e0565b60405180910390f35b61032b610a19565b60405161033891906115fb565b60405180910390f35b61035b60048036038101906103569190611239565b610a20565b60405161036891906115e0565b60405180910390f35b61038b60048036038101906103869190611239565b610a40565b005b6103a760048036038101906103a291906112b4565b610a9a565b005b6103b1610ac3565b6040516103be91906116b8565b60405180910390f35b6103cf610ac9565b6040516103dc91906115fb565b60405180910390f35b60007f7965db0b000000000000000000000000000000000000000000000000000000007bffffffffffffffffffffffffffffffffffffffffffffffffffffffff1916827bffffffffffffffffffffffffffffffffffffffffffffffffffffffff19161480610458575061045782610b86565b5b9050919050565b60036020528060005260406000206000915054906101000a900473ffffffffffffffffffffffffffffffffffffffff1681565b60065481565b6000801b6104ad816104a8610bf0565b610bf8565b6000600460008473ffffffffffffffffffffffffffffffffffffffff1673ffffffffffffffffffffffffffffffffffffffff16815260200190815260200160002060006101000a81548160ff0219169083151502179055505050565b6000806000838152602001908152602001600020600101549050919050565b6000600460003373ffffffffffffffffffffffffffffffffffffffff1673ffffffffffffffffffffffffffffffffffffffff16815260200190815260200160002060009054906101000a900460ff166105b6576040517f08c379a00000000000000000000000000000000000000000000000000000000081526004016105ad90611678565b60405180910390fd5b6000600160009054906101000a900473ffffffffffffffffffffffffffffffffffffffff1673ffffffffffffffffffffffffffffffffffffffff1663990c8f796040518163ffffffff1660e01b815260040160206040518083038186803b15801561062057600080fd5b505afa158015610634573d6000803e3d6000fd5b505050506040513d601f19601f82011682018060405250810190610658919061128b565b848460405160200161066c93929190611533565b6040516020818303038152906040528051906020012060001c90508091505092915050565b61069a82610509565b6106ab816106a6610bf0565b610bf8565b6106b58383610c95565b505050565b6106c2610bf0565b73ffffffffffffffffffffffffffffffffffffffff168173ffffffffffffffffffffffffffffffffffffffff161461072f576040517f08c379a000000000000000000000000000000000000000000000000000000000815260040161072690611698565b60405180910390fd5b6107398282610d75565b5050565b6000801b6107528161074d610bf0565b610bf8565b6001600460008473ffffffffffffffffffffffffffffffffffffffff1673ffffffffffffffffffffffffffffffffffffffff16815260200190815260200160002060006101000a81548160ff0219169083151502179055505050565b60006003600083815260200190815260200160002060009054906101000a900473ffffffffffffffffffffffffffffffffffffffff169050919050565b6000801b610800816107fb610bf0565b610bf8565b61080a6002610e56565b60006108166002610eb2565b905060006003600083815260200190815260200160002060009054906101000a900473ffffffffffffffffffffffffffffffffffffffff1690506000600460008373ffffffffffffffffffffffffffffffffffffffff1673ffffffffffffffffffffffffffffffffffffffff16815260200190815260200160002060006101000a81548160ff021916908315150217905550505050565b6000801b6108c2816108bd610bf0565b610bf8565b60006108ce6002610eb2565b90506108da6002610ec0565b826003600083815260200190815260200160002060006101000a81548173ffffffffffffffffffffffffffffffffffffffff021916908373ffffffffffffffffffffffffffffffffffffffff1602179055506001600460008573ffffffffffffffffffffffffffffffffffffffff1673ffffffffffffffffffffffffffffffffffffffff16815260200190815260200160002060006101000a81548160ff021916908315150217905550505050565b600560009054906101000a900473ffffffffffffffffffffffffffffffffffffffff1681565b600080600084815260200190815260200160002060000160008373ffffffffffffffffffffffffffffffffffffffff1673ffffffffffffffffffffffffffffffffffffffff16815260200190815260200160002060009054906101000a900460ff16905092915050565b6000801b81565b60046020528060005260406000206000915054906101000a900460ff1681565b6000801b610a5581610a50610bf0565b610bf8565b81600160006101000a81548173ffffffffffffffffffffffffffffffffffffffff021916908373ffffffffffffffffffffffffffffffffffffffff1602179055505050565b610aa382610509565b610ab481610aaf610bf0565b610bf8565b610abe8383610d75565b505050565b60075481565b60008060001b610ae081610adb610bf0565b610bf8565b600160009054906101000a900473ffffffffffffffffffffffffffffffffffffffff1673ffffffffffffffffffffffffffffffffffffffff1663990c8f796040518163ffffffff1660e01b815260040160206040518083038186803b158015610b4857600080fd5b505afa158015610b5c573d6000803e3d6000fd5b505050506040513d601f19601f82011682018060405250810190610b80919061128b565b91505090565b60007f01ffc9a7000000000000000000000000000000000000000000000000000000007bffffffffffffffffffffffffffffffffffffffffffffffffffffffff1916827bffffffffffffffffffffffffffffffffffffffffffffffffffffffff1916149050919050565b600033905090565b610c0282826109af565b610c9157610c278173ffffffffffffffffffffffffffffffffffffffff166014610ed6565b610c358360001c6020610ed6565b604051602001610c46929190611570565b6040516020818303038152906040526040517f08c379a0000000000000000000000000000000000000000000000000000000008152600401610c889190611616565b60405180910390fd5b5050565b610c9f82826109af565b610d7157600160008084815260200190815260200160002060000160008373ffffffffffffffffffffffffffffffffffffffff1673ffffffffffffffffffffffffffffffffffffffff16815260200190815260200160002060006101000a81548160ff021916908315150217905550610d16610bf0565b73ffffffffffffffffffffffffffffffffffffffff168173ffffffffffffffffffffffffffffffffffffffff16837f2f8788117e7eff1d82e926ec794901d17c78024a50270940304540a733656f0d60405160405180910390a45b5050565b610d7f82826109af565b15610e5257600080600084815260200190815260200160002060000160008373ffffffffffffffffffffffffffffffffffffffff1673ffffffffffffffffffffffffffffffffffffffff16815260200190815260200160002060006101000a81548160ff021916908315150217905550610df7610bf0565b73ffffffffffffffffffffffffffffffffffffffff168173ffffffffffffffffffffffffffffffffffffffff16837ff6391f5c32d9c69d2a47ea670b442974b53935d1edc7fd64eb21e047a839171b60405160405180910390a45b5050565b60008160000154905060008111610ea2576040517f08c379a0000000000000000000000000000000000000000000000000000000008152600401610e9990611658565b60405180910390fd5b6001810382600001819055505050565b600081600001549050919050565b6001816000016000828254019250508190555050565b606060006002836002610ee99190611750565b610ef391906116fa565b67ffffffffffffffff811115610f32577f4e487b7100000000000000000000000000000000000000000000000000000000600052604160045260246000fd5b6040519080825280601f01601f191660200182016040528015610f645781602001600182028036833780820191505090505b5090507f300000000000000000000000000000000000000000000000000000000000000081600081518110610fc2577f4e487b7100000000000000000000000000000000000000000000000000000000600052603260045260246000fd5b60200101907effffffffffffffffffffffffffffffffffffffffffffffffffffffffffffff1916908160001a9053507f78000000000000000000000000000000000000000000000000000000000000008160018151811061104c577f4e487b7100000000000000000000000000000000000000000000000000000000600052603260045260246000fd5b60200101907effffffffffffffffffffffffffffffffffffffffffffffffffffffffffffff1916908160001a9053506000600184600261108c9190611750565b61109691906116fa565b90505b6001811115611182577f3031323334353637383961626364656600000000000000000000000000000000600f8616601081106110fe577f4e487b7100000000000000000000000000000000000000000000000000000000600052603260045260246000fd5b1a60f81b82828151811061113b577f4e487b7100000000000000000000000000000000000000000000000000000000600052603260045260246000fd5b60200101907effffffffffffffffffffffffffffffffffffffffffffffffffffffffffffff1916908160001a905350600485901c94508061117b9061186d565b9050611099565b50600084146111c6576040517f08c379a00000000000000000000000000000000000000000000000000000000081526004016111bd90611638565b60405180910390fd5b8091505092915050565b6000813590506111df81611a07565b92915050565b6000813590506111f481611a1e565b92915050565b60008151905061120981611a1e565b92915050565b60008135905061121e81611a35565b92915050565b60008135905061123381611a4c565b92915050565b60006020828403121561124b57600080fd5b6000611259848285016111d0565b91505092915050565b60006020828403121561127457600080fd5b6000611282848285016111e5565b91505092915050565b60006020828403121561129d57600080fd5b60006112ab848285016111fa565b91505092915050565b600080604083850312156112c757600080fd5b60006112d5858286016111e5565b92505060206112e6858286016111d0565b9150509250929050565b60006020828403121561130257600080fd5b60006113108482850161120f565b91505092915050565b60006020828403121561132b57600080fd5b600061133984828501611224565b91505092915050565b6000806040838503121561135557600080fd5b600061136385828601611224565b925050602061137485828601611224565b9150509250929050565b611387816117bc565b82525050565b611396816117aa565b82525050565b6113a5816117ce565b82525050565b6113b4816117da565b82525050565b6113cb6113c6826117da565b611897565b82525050565b60006113dc826116d3565b6113e681856116de565b93506113f681856020860161183a565b6113ff816118da565b840191505092915050565b6000611415826116d3565b61141f81856116ef565b935061142f81856020860161183a565b80840191505092915050565b60006114486020836116de565b9150611453826118eb565b602082019050919050565b600061146b601b836116de565b915061147682611914565b602082019050919050565b600061148e601b836116de565b91506114998261193d565b602082019050919050565b60006114b16017836116ef565b91506114bc82611966565b601782019050919050565b60006114d46011836116ef565b91506114df8261198f565b601182019050919050565b60006114f7602f836116de565b9150611502826119b8565b604082019050919050565b61151681611830565b82525050565b61152d61152882611830565b6118a1565b82525050565b600061153f82866113ba565b60208201915061154f828561151c565b60208201915061155f828461151c565b602082019150819050949350505050565b600061157b826114a4565b9150611587828561140a565b9150611592826114c7565b915061159e828461140a565b91508190509392505050565b60006020820190506115bf600083018461138d565b92915050565b60006020820190506115da600083018461137e565b92915050565b60006020820190506115f5600083018461139c565b92915050565b600060208201905061161060008301846113ab565b92915050565b6000602082019050818103600083015261163081846113d1565b905092915050565b600060208201905081810360008301526116518161143b565b9050919050565b600060208201905081810360008301526116718161145e565b9050919050565b6000602082019050818103600083015261169181611481565b9050919050565b600060208201905081810360008301526116b1816114ea565b9050919050565b60006020820190506116cd600083018461150d565b92915050565b600081519050919050565b600082825260208201905092915050565b600081905092915050565b600061170582611830565b915061171083611830565b9250827fffffffffffffffffffffffffffffffffffffffffffffffffffffffffffffffff03821115611745576117446118ab565b5b828201905092915050565b600061175b82611830565b915061176683611830565b9250817fffffffffffffffffffffffffffffffffffffffffffffffffffffffffffffffff048311821515161561179f5761179e6118ab565b5b828202905092915050565b60006117b582611810565b9050919050565b60006117c782611810565b9050919050565b60008115159050919050565b6000819050919050565b60007fffffffff0000000000000000000000000000000000000000000000000000000082169050919050565b600073ffffffffffffffffffffffffffffffffffffffff82169050919050565b6000819050919050565b60005b8381101561185857808201518184015260208101905061183d565b83811115611867576000848401525b50505050565b600061187882611830565b9150600082141561188c5761188b6118ab565b5b600182039050919050565b6000819050919050565b6000819050919050565b7f4e487b7100000000000000000000000000000000000000000000000000000000600052601160045260246000fd5b6000601f19601f8301169050919050565b7f537472696e67733a20686578206c656e67746820696e73756666696369656e74600082015250565b7f436f756e7465723a2064656372656d656e74206f766572666c6f770000000000600082015250565b7f726e672063616c6c6572206e6f7420616c6c6f77206c69737465640000000000600082015250565b7f416363657373436f6e74726f6c3a206163636f756e7420000000000000000000600082015250565b7f206973206d697373696e6720726f6c6520000000000000000000000000000000600082015250565b7f416363657373436f6e74726f6c3a2063616e206f6e6c792072656e6f756e636560008201527f20726f6c657320666f722073656c660000000000000000000000000000000000602082015250565b611a10816117aa565b8114611a1b57600080fd5b50565b611a27816117da565b8114611a3257600080fd5b50565b611a3e816117e4565b8114611a4957600080fd5b50565b611a5581611830565b8114611a6057600080fd5b5056fea26469706673582212205dcb43e4272ee3baf78d2cef4fffaa8feab907730f2d95974d069e8c5d951e7364736f6c63430008020033",
  "linkReferences": {},
  "deployedLinkReferences": {}
}