{
  "_format": "hh-sol-artifact-1",
  "contractName": "FineCore",
  "sourceName": "contracts/FineCore.sol",
  "abi": [
    {
      "inputs": [
        {
          "internalType": "address",
          "name": "entropySourceAddress",
          "type": "address"
        }
      ],
      "stateMutability": "nonpayable",
      "type": "constructor"
    },
    {
      "anonymous": false,
      "inputs": [
        {
          "indexed": true,
          "internalType": "bytes32",
          "name": "role",
          "type": "bytes32"
        },
        {
          "indexed": true,
          "internalType": "bytes32",
          "name": "previousAdminRole",
          "type": "bytes32"
        },
        {
          "indexed": true,
          "internalType": "bytes32",
          "name": "newAdminRole",
          "type": "bytes32"
        }
      ],
      "name": "RoleAdminChanged",
      "type": "event"
    },
    {
      "anonymous": false,
      "inputs": [
        {
          "indexed": true,
          "internalType": "bytes32",
          "name": "role",
          "type": "bytes32"
        },
        {
          "indexed": true,
          "internalType": "address",
          "name": "account",
          "type": "address"
        },
        {
          "indexed": true,
          "internalType": "address",
          "name": "sender",
          "type": "address"
        }
      ],
      "name": "RoleGranted",
      "type": "event"
    },
    {
      "anonymous": false,
      "inputs": [
        {
          "indexed": true,
          "internalType": "bytes32",
          "name": "role",
          "type": "bytes32"
        },
        {
          "indexed": true,
          "internalType": "address",
          "name": "account",
          "type": "address"
        },
        {
          "indexed": true,
          "internalType": "address",
          "name": "sender",
          "type": "address"
        }
      ],
      "name": "RoleRevoked",
      "type": "event"
    },
    {
      "inputs": [],
      "name": "DEFAULT_ADMIN_ROLE",
      "outputs": [
        {
          "internalType": "bytes32",
          "name": "",
          "type": "bytes32"
        }
      ],
      "stateMutability": "view",
      "type": "function"
    },
    {
      "inputs": [],
      "name": "FINE_TREASURY",
      "outputs": [
        {
          "internalType": "address payable",
          "name": "",
          "type": "address"
        }
      ],
      "stateMutability": "view",
      "type": "function"
    },
    {
      "inputs": [
        {
          "internalType": "address",
          "name": "project",
          "type": "address"
        }
      ],
      "name": "addProject",
      "outputs": [],
      "stateMutability": "nonpayable",
      "type": "function"
    },
    {
      "inputs": [
        {
          "internalType": "address",
          "name": "",
          "type": "address"
        }
      ],
      "name": "allowlist",
      "outputs": [
        {
          "internalType": "bool",
          "name": "",
          "type": "bool"
        }
      ],
      "stateMutability": "view",
      "type": "function"
    },
    {
      "inputs": [
        {
          "internalType": "uint256",
          "name": "id",
          "type": "uint256"
        }
      ],
      "name": "getProjectAddress",
      "outputs": [
        {
          "internalType": "address",
          "name": "",
          "type": "address"
        }
      ],
      "stateMutability": "view",
      "type": "function"
    },
    {
      "inputs": [
        {
          "internalType": "uint256",
          "name": "id",
          "type": "uint256"
        },
        {
          "internalType": "uint256",
          "name": "seed",
          "type": "uint256"
        }
      ],
      "name": "getRandomness",
      "outputs": [
        {
          "internalType": "uint256",
          "name": "randomnesss",
          "type": "uint256"
        }
      ],
      "stateMutability": "view",
      "type": "function"
    },
    {
      "inputs": [
        {
          "internalType": "bytes32",
          "name": "role",
          "type": "bytes32"
        }
      ],
      "name": "getRoleAdmin",
      "outputs": [
        {
          "internalType": "bytes32",
          "name": "",
          "type": "bytes32"
        }
      ],
      "stateMutability": "view",
      "type": "function"
    },
    {
      "inputs": [
        {
          "internalType": "bytes32",
          "name": "role",
          "type": "bytes32"
        },
        {
          "internalType": "address",
          "name": "account",
          "type": "address"
        }
      ],
      "name": "grantRole",
      "outputs": [],
      "stateMutability": "nonpayable",
      "type": "function"
    },
    {
      "inputs": [
        {
          "internalType": "bytes32",
          "name": "role",
          "type": "bytes32"
        },
        {
          "internalType": "address",
          "name": "account",
          "type": "address"
        }
      ],
      "name": "hasRole",
      "outputs": [
        {
          "internalType": "bool",
          "name": "",
          "type": "bool"
        }
      ],
      "stateMutability": "view",
      "type": "function"
    },
    {
      "inputs": [],
      "name": "platformPercentage",
      "outputs": [
        {
          "internalType": "uint256",
          "name": "",
          "type": "uint256"
        }
      ],
      "stateMutability": "view",
      "type": "function"
    },
    {
      "inputs": [],
      "name": "platformRoyalty",
      "outputs": [
        {
          "internalType": "uint256",
          "name": "",
          "type": "uint256"
        }
      ],
      "stateMutability": "view",
      "type": "function"
    },
    {
      "inputs": [
        {
          "internalType": "uint256",
          "name": "",
          "type": "uint256"
        }
      ],
      "name": "projects",
      "outputs": [
        {
          "internalType": "address",
          "name": "",
          "type": "address"
        }
      ],
      "stateMutability": "view",
      "type": "function"
    },
    {
      "inputs": [
        {
          "internalType": "bytes32",
          "name": "role",
          "type": "bytes32"
        },
        {
          "internalType": "address",
          "name": "account",
          "type": "address"
        }
      ],
      "name": "renounceRole",
      "outputs": [],
      "stateMutability": "nonpayable",
      "type": "function"
    },
    {
      "inputs": [
        {
          "internalType": "bytes32",
          "name": "role",
          "type": "bytes32"
        },
        {
          "internalType": "address",
          "name": "account",
          "type": "address"
        }
      ],
      "name": "revokeRole",
      "outputs": [],
      "stateMutability": "nonpayable",
      "type": "function"
    },
    {
      "inputs": [],
      "name": "rollbackLastProject",
      "outputs": [],
      "stateMutability": "nonpayable",
      "type": "function"
    },
    {
      "inputs": [
        {
          "internalType": "uint96",
          "name": "_percentage",
          "type": "uint96"
        }
      ],
      "name": "setPlatformPercent",
      "outputs": [],
      "stateMutability": "nonpayable",
      "type": "function"
    },
    {
      "inputs": [
        {
          "internalType": "address",
          "name": "rand",
          "type": "address"
        }
      ],
      "name": "setRandom",
      "outputs": [],
      "stateMutability": "nonpayable",
      "type": "function"
    },
    {
      "inputs": [
        {
          "internalType": "uint96",
          "name": "_percentage",
          "type": "uint96"
        }
      ],
      "name": "setRoyaltyPercent",
      "outputs": [],
      "stateMutability": "nonpayable",
      "type": "function"
    },
    {
      "inputs": [
        {
          "internalType": "bytes4",
          "name": "interfaceId",
          "type": "bytes4"
        }
      ],
      "name": "supportsInterface",
      "outputs": [
        {
          "internalType": "bool",
          "name": "",
          "type": "bool"
        }
      ],
      "stateMutability": "view",
      "type": "function"
    },
    {
      "inputs": [],
      "name": "testRandom",
      "outputs": [
        {
          "internalType": "bytes32",
          "name": "",
          "type": "bytes32"
        }
      ],
      "stateMutability": "view",
      "type": "function"
    }
  ],
  "bytecode": "0x6080604052737a832c86002323a5de3a317b3281eb88ec3b2c00600560006101000a81548173ffffffffffffffffffffffffffffffffffffffff021916908373ffffffffffffffffffffffffffffffffffffffff1602179055506103e86006556103e86007553480156200007257600080fd5b5060405162001d7938038062001d7983398181016040528101906200009891906200026f565b620000ad6000801b33620000f560201b60201c565b80600160006101000a81548173ffffffffffffffffffffffffffffffffffffffff021916908373ffffffffffffffffffffffffffffffffffffffff16021790555050620002e9565b620001078282620001e660201b60201c565b620001e257600160008084815260200190815260200160002060000160008373ffffffffffffffffffffffffffffffffffffffff1673ffffffffffffffffffffffffffffffffffffffff16815260200190815260200160002060006101000a81548160ff021916908315150217905550620001876200025060201b60201c565b73ffffffffffffffffffffffffffffffffffffffff168173ffffffffffffffffffffffffffffffffffffffff16837f2f8788117e7eff1d82e926ec794901d17c78024a50270940304540a733656f0d60405160405180910390a45b5050565b600080600084815260200190815260200160002060000160008373ffffffffffffffffffffffffffffffffffffffff1673ffffffffffffffffffffffffffffffffffffffff16815260200190815260200160002060009054906101000a900460ff16905092915050565b600033905090565b6000815190506200026981620002cf565b92915050565b6000602082840312156200028257600080fd5b6000620002928482850162000258565b91505092915050565b6000620002a882620002af565b9050919050565b600073ffffffffffffffffffffffffffffffffffffffff82169050919050565b620002da816200029b565b8114620002e657600080fd5b50565b611a8080620002f96000396000f3fe608060405234801561001057600080fd5b506004361061012c5760003560e01c80637c56b798116100ad578063be17060211610071578063be17060214610355578063ca9c0bad14610371578063d547741f1461038d578063d672131b146103a9578063fbddd14b146103c75761012c565b80637c56b7981461029d5780637dafc0d3146102b957806391d14854146102d7578063a217fddf14610307578063a7cd52cb146103255761012c565b80632f2ff15d116100f45780632f2ff15d1461020f57806336568abe1461022b5780634bc46a82146102475780634ca3e9b8146102635780637a6a8763146102935761012c565b806301ffc9a714610131578063107046bd146101615780631f74189714610191578063248a9ca3146101af57806329e5d831146101df575b600080fd5b61014b6004803603810190610146919061127f565b6103e5565b6040516101589190611598565b60405180910390f35b61017b600480360381019061017691906112a8565b61045f565b6040516101889190611562565b60405180910390f35b610199610492565b6040516101a69190611670565b60405180910390f35b6101c960048036038101906101c491906111f1565b610498565b6040516101d691906115b3565b60405180910390f35b6101f960048036038101906101f491906112d1565b6104b7565b6040516102069190611670565b60405180910390f35b61022960048036038101906102249190611243565b610620565b005b61024560048036038101906102409190611243565b610649565b005b610261600480360381019061025c919061130d565b6106cc565b005b61027d600480360381019061027891906112a8565b6106fa565b60405161028a9190611562565b60405180910390f35b61029b610737565b005b6102b760048036038101906102b291906111c8565b6107f9565b005b6102c16108d5565b6040516102ce919061157d565b60405180910390f35b6102f160048036038101906102ec9190611243565b6108fb565b6040516102fe9190611598565b60405180910390f35b61030f610965565b60405161031c91906115b3565b60405180910390f35b61033f600480360381019061033a91906111c8565b61096c565b60405161034c9190611598565b60405180910390f35b61036f600480360381019061036a919061130d565b61098c565b005b61038b600480360381019061038691906111c8565b6109ba565b005b6103a760048036038101906103a29190611243565b610a14565b005b6103b1610a3d565b6040516103be9190611670565b60405180910390f35b6103cf610a43565b6040516103dc91906115b3565b60405180910390f35b60007f7965db0b000000000000000000000000000000000000000000000000000000007bffffffffffffffffffffffffffffffffffffffffffffffffffffffff1916827bffffffffffffffffffffffffffffffffffffffffffffffffffffffff19161480610458575061045782610b00565b5b9050919050565b60036020528060005260406000206000915054906101000a900473ffffffffffffffffffffffffffffffffffffffff1681565b60065481565b6000806000838152602001908152602001600020600101549050919050565b6000600460003373ffffffffffffffffffffffffffffffffffffffff1673ffffffffffffffffffffffffffffffffffffffff16815260200190815260200160002060009054906101000a900460ff16610545576040517f08c379a000000000000000000000000000000000000000000000000000000000815260040161053c90611630565b60405180910390fd5b6000600160009054906101000a900473ffffffffffffffffffffffffffffffffffffffff1673ffffffffffffffffffffffffffffffffffffffff1663990c8f796040518163ffffffff1660e01b815260040160206040518083038186803b1580156105af57600080fd5b505afa1580156105c3573d6000803e3d6000fd5b505050506040513d601f19601f820116820180604052508101906105e7919061121a565b84846040516020016105fb939291906114eb565b6040516020818303038152906040528051906020012060001c90508091505092915050565b61062982610498565b61063a81610635610b6a565b610b72565b6106448383610c0f565b505050565b610651610b6a565b73ffffffffffffffffffffffffffffffffffffffff168173ffffffffffffffffffffffffffffffffffffffff16146106be576040517f08c379a00000000000000000000000000000000000000000000000000000000081526004016106b590611650565b60405180910390fd5b6106c88282610cef565b5050565b6000801b6106e1816106dc610b6a565b610b72565b816bffffffffffffffffffffffff166007819055505050565b60006003600083815260200190815260200160002060009054906101000a900473ffffffffffffffffffffffffffffffffffffffff169050919050565b6000801b61074c81610747610b6a565b610b72565b6107566002610dd0565b60006107626002610e2c565b905060006003600083815260200190815260200160002060009054906101000a900473ffffffffffffffffffffffffffffffffffffffff1690506000600460008373ffffffffffffffffffffffffffffffffffffffff1673ffffffffffffffffffffffffffffffffffffffff16815260200190815260200160002060006101000a81548160ff021916908315150217905550505050565b6000801b61080e81610809610b6a565b610b72565b600061081a6002610e2c565b90506108266002610e3a565b826003600083815260200190815260200160002060006101000a81548173ffffffffffffffffffffffffffffffffffffffff021916908373ffffffffffffffffffffffffffffffffffffffff1602179055506001600460008573ffffffffffffffffffffffffffffffffffffffff1673ffffffffffffffffffffffffffffffffffffffff16815260200190815260200160002060006101000a81548160ff021916908315150217905550505050565b600560009054906101000a900473ffffffffffffffffffffffffffffffffffffffff1681565b600080600084815260200190815260200160002060000160008373ffffffffffffffffffffffffffffffffffffffff1673ffffffffffffffffffffffffffffffffffffffff16815260200190815260200160002060009054906101000a900460ff16905092915050565b6000801b81565b60046020528060005260406000206000915054906101000a900460ff1681565b6000801b6109a18161099c610b6a565b610b72565b816bffffffffffffffffffffffff166006819055505050565b6000801b6109cf816109ca610b6a565b610b72565b81600160006101000a81548173ffffffffffffffffffffffffffffffffffffffff021916908373ffffffffffffffffffffffffffffffffffffffff1602179055505050565b610a1d82610498565b610a2e81610a29610b6a565b610b72565b610a388383610cef565b505050565b60075481565b60008060001b610a5a81610a55610b6a565b610b72565b600160009054906101000a900473ffffffffffffffffffffffffffffffffffffffff1673ffffffffffffffffffffffffffffffffffffffff1663990c8f796040518163ffffffff1660e01b815260040160206040518083038186803b158015610ac257600080fd5b505afa158015610ad6573d6000803e3d6000fd5b505050506040513d601f19601f82011682018060405250810190610afa919061121a565b91505090565b60007f01ffc9a7000000000000000000000000000000000000000000000000000000007bffffffffffffffffffffffffffffffffffffffffffffffffffffffff1916827bffffffffffffffffffffffffffffffffffffffffffffffffffffffff1916149050919050565b600033905090565b610b7c82826108fb565b610c0b57610ba18173ffffffffffffffffffffffffffffffffffffffff166014610e50565b610baf8360001c6020610e50565b604051602001610bc0929190611528565b6040516020818303038152906040526040517f08c379a0000000000000000000000000000000000000000000000000000000008152600401610c0291906115ce565b60405180910390fd5b5050565b610c1982826108fb565b610ceb57600160008084815260200190815260200160002060000160008373ffffffffffffffffffffffffffffffffffffffff1673ffffffffffffffffffffffffffffffffffffffff16815260200190815260200160002060006101000a81548160ff021916908315150217905550610c90610b6a565b73ffffffffffffffffffffffffffffffffffffffff168173ffffffffffffffffffffffffffffffffffffffff16837f2f8788117e7eff1d82e926ec794901d17c78024a50270940304540a733656f0d60405160405180910390a45b5050565b610cf982826108fb565b15610dcc57600080600084815260200190815260200160002060000160008373ffffffffffffffffffffffffffffffffffffffff1673ffffffffffffffffffffffffffffffffffffffff16815260200190815260200160002060006101000a81548160ff021916908315150217905550610d71610b6a565b73ffffffffffffffffffffffffffffffffffffffff168173ffffffffffffffffffffffffffffffffffffffff16837ff6391f5c32d9c69d2a47ea670b442974b53935d1edc7fd64eb21e047a839171b60405160405180910390a45b5050565b60008160000154905060008111610e1c576040517f08c379a0000000000000000000000000000000000000000000000000000000008152600401610e1390611610565b60405180910390fd5b6001810382600001819055505050565b600081600001549050919050565b6001816000016000828254019250508190555050565b606060006002836002610e639190611708565b610e6d91906116b2565b67ffffffffffffffff811115610eac577f4e487b7100000000000000000000000000000000000000000000000000000000600052604160045260246000fd5b6040519080825280601f01601f191660200182016040528015610ede5781602001600182028036833780820191505090505b5090507f300000000000000000000000000000000000000000000000000000000000000081600081518110610f3c577f4e487b7100000000000000000000000000000000000000000000000000000000600052603260045260246000fd5b60200101907effffffffffffffffffffffffffffffffffffffffffffffffffffffffffffff1916908160001a9053507f780000000000000000000000000000000000000000000000000000000000000081600181518110610fc6577f4e487b7100000000000000000000000000000000000000000000000000000000600052603260045260246000fd5b60200101907effffffffffffffffffffffffffffffffffffffffffffffffffffffffffffff1916908160001a905350600060018460026110069190611708565b61101091906116b2565b90505b60018111156110fc577f3031323334353637383961626364656600000000000000000000000000000000600f861660108110611078577f4e487b7100000000000000000000000000000000000000000000000000000000600052603260045260246000fd5b1a60f81b8282815181106110b5577f4e487b7100000000000000000000000000000000000000000000000000000000600052603260045260246000fd5b60200101907effffffffffffffffffffffffffffffffffffffffffffffffffffffffffffff1916908160001a905350600485901c9450806110f59061183d565b9050611013565b5060008414611140576040517f08c379a0000000000000000000000000000000000000000000000000000000008152600401611137906115f0565b60405180910390fd5b8091505092915050565b600081359050611159816119d7565b92915050565b60008135905061116e816119ee565b92915050565b600081519050611183816119ee565b92915050565b60008135905061119881611a05565b92915050565b6000813590506111ad81611a1c565b92915050565b6000813590506111c281611a33565b92915050565b6000602082840312156111da57600080fd5b60006111e88482850161114a565b91505092915050565b60006020828403121561120357600080fd5b60006112118482850161115f565b91505092915050565b60006020828403121561122c57600080fd5b600061123a84828501611174565b91505092915050565b6000806040838503121561125657600080fd5b60006112648582860161115f565b92505060206112758582860161114a565b9150509250929050565b60006020828403121561129157600080fd5b600061129f84828501611189565b91505092915050565b6000602082840312156112ba57600080fd5b60006112c88482850161119e565b91505092915050565b600080604083850312156112e457600080fd5b60006112f28582860161119e565b92505060206113038582860161119e565b9150509250929050565b60006020828403121561131f57600080fd5b600061132d848285016111b3565b91505092915050565b61133f81611774565b82525050565b61134e81611762565b82525050565b61135d81611786565b82525050565b61136c81611792565b82525050565b61138361137e82611792565b611867565b82525050565b60006113948261168b565b61139e8185611696565b93506113ae81856020860161180a565b6113b7816118aa565b840191505092915050565b60006113cd8261168b565b6113d781856116a7565b93506113e781856020860161180a565b80840191505092915050565b6000611400602083611696565b915061140b826118bb565b602082019050919050565b6000611423601b83611696565b915061142e826118e4565b602082019050919050565b6000611446601b83611696565b91506114518261190d565b602082019050919050565b60006114696017836116a7565b915061147482611936565b601782019050919050565b600061148c6011836116a7565b91506114978261195f565b601182019050919050565b60006114af602f83611696565b91506114ba82611988565b604082019050919050565b6114ce816117e8565b82525050565b6114e56114e0826117e8565b611871565b82525050565b60006114f78286611372565b60208201915061150782856114d4565b60208201915061151782846114d4565b602082019150819050949350505050565b60006115338261145c565b915061153f82856113c2565b915061154a8261147f565b915061155682846113c2565b91508190509392505050565b60006020820190506115776000830184611345565b92915050565b60006020820190506115926000830184611336565b92915050565b60006020820190506115ad6000830184611354565b92915050565b60006020820190506115c86000830184611363565b92915050565b600060208201905081810360008301526115e88184611389565b905092915050565b60006020820190508181036000830152611609816113f3565b9050919050565b6000602082019050818103600083015261162981611416565b9050919050565b6000602082019050818103600083015261164981611439565b9050919050565b60006020820190508181036000830152611669816114a2565b9050919050565b600060208201905061168560008301846114c5565b92915050565b600081519050919050565b600082825260208201905092915050565b600081905092915050565b60006116bd826117e8565b91506116c8836117e8565b9250827fffffffffffffffffffffffffffffffffffffffffffffffffffffffffffffffff038211156116fd576116fc61187b565b5b828201905092915050565b6000611713826117e8565b915061171e836117e8565b9250817fffffffffffffffffffffffffffffffffffffffffffffffffffffffffffffffff04831182151516156117575761175661187b565b5b828202905092915050565b600061176d826117c8565b9050919050565b600061177f826117c8565b9050919050565b60008115159050919050565b6000819050919050565b60007fffffffff0000000000000000000000000000000000000000000000000000000082169050919050565b600073ffffffffffffffffffffffffffffffffffffffff82169050919050565b6000819050919050565b60006bffffffffffffffffffffffff82169050919050565b60005b8381101561182857808201518184015260208101905061180d565b83811115611837576000848401525b50505050565b6000611848826117e8565b9150600082141561185c5761185b61187b565b5b600182039050919050565b6000819050919050565b6000819050919050565b7f4e487b7100000000000000000000000000000000000000000000000000000000600052601160045260246000fd5b6000601f19601f8301169050919050565b7f537472696e67733a20686578206c656e67746820696e73756666696369656e74600082015250565b7f436f756e7465723a2064656372656d656e74206f766572666c6f770000000000600082015250565b7f726e672063616c6c6572206e6f7420616c6c6f77206c69737465640000000000600082015250565b7f416363657373436f6e74726f6c3a206163636f756e7420000000000000000000600082015250565b7f206973206d697373696e6720726f6c6520000000000000000000000000000000600082015250565b7f416363657373436f6e74726f6c3a2063616e206f6e6c792072656e6f756e636560008201527f20726f6c657320666f722073656c660000000000000000000000000000000000602082015250565b6119e081611762565b81146119eb57600080fd5b50565b6119f781611792565b8114611a0257600080fd5b50565b611a0e8161179c565b8114611a1957600080fd5b50565b611a25816117e8565b8114611a3057600080fd5b50565b611a3c816117f2565b8114611a4757600080fd5b5056fea2646970667358221220a7f7f103995386f0c4c02e9b9e98db4060e71f8c51b63c26699a5d9853753d9664736f6c63430008020033",
  "linkReferences": {},
  "deployedLinkReferences": {}
}