{
  "_format": "hh-sol-artifact-1",
  "contractName": "FineCore",
  "sourceName": "contracts/FineCore.sol",
  "abi": [
    {
      "inputs": [
        {
          "internalType": "address",
          "name": "entropySourceAddress",
          "type": "address"
        }
      ],
      "stateMutability": "nonpayable",
      "type": "constructor"
    },
    {
      "anonymous": false,
      "inputs": [
        {
          "indexed": true,
          "internalType": "bytes32",
          "name": "role",
          "type": "bytes32"
        },
        {
          "indexed": true,
          "internalType": "bytes32",
          "name": "previousAdminRole",
          "type": "bytes32"
        },
        {
          "indexed": true,
          "internalType": "bytes32",
          "name": "newAdminRole",
          "type": "bytes32"
        }
      ],
      "name": "RoleAdminChanged",
      "type": "event"
    },
    {
      "anonymous": false,
      "inputs": [
        {
          "indexed": true,
          "internalType": "bytes32",
          "name": "role",
          "type": "bytes32"
        },
        {
          "indexed": true,
          "internalType": "address",
          "name": "account",
          "type": "address"
        },
        {
          "indexed": true,
          "internalType": "address",
          "name": "sender",
          "type": "address"
        }
      ],
      "name": "RoleGranted",
      "type": "event"
    },
    {
      "anonymous": false,
      "inputs": [
        {
          "indexed": true,
          "internalType": "bytes32",
          "name": "role",
          "type": "bytes32"
        },
        {
          "indexed": true,
          "internalType": "address",
          "name": "account",
          "type": "address"
        },
        {
          "indexed": true,
          "internalType": "address",
          "name": "sender",
          "type": "address"
        }
      ],
      "name": "RoleRevoked",
      "type": "event"
    },
    {
      "inputs": [],
      "name": "DEFAULT_ADMIN_ROLE",
      "outputs": [
        {
          "internalType": "bytes32",
          "name": "",
          "type": "bytes32"
        }
      ],
      "stateMutability": "view",
      "type": "function"
    },
    {
      "inputs": [],
      "name": "FINE_TREASURY",
      "outputs": [
        {
          "internalType": "address payable",
          "name": "",
          "type": "address"
        }
      ],
      "stateMutability": "view",
      "type": "function"
    },
    {
      "inputs": [
        {
          "internalType": "address",
          "name": "project",
          "type": "address"
        }
      ],
      "name": "addProject",
      "outputs": [],
      "stateMutability": "nonpayable",
      "type": "function"
    },
    {
      "inputs": [
        {
          "internalType": "address",
          "name": "",
          "type": "address"
        }
      ],
      "name": "allowlist",
      "outputs": [
        {
          "internalType": "bool",
          "name": "",
          "type": "bool"
        }
      ],
      "stateMutability": "view",
      "type": "function"
    },
    {
      "inputs": [
        {
          "internalType": "uint256",
          "name": "id",
          "type": "uint256"
        }
      ],
      "name": "getProjectAddress",
      "outputs": [
        {
          "internalType": "address",
          "name": "",
          "type": "address"
        }
      ],
      "stateMutability": "view",
      "type": "function"
    },
    {
      "inputs": [
        {
          "internalType": "uint256",
          "name": "id",
          "type": "uint256"
        },
        {
          "internalType": "uint256",
          "name": "seed",
          "type": "uint256"
        }
      ],
      "name": "getRandomness",
      "outputs": [
        {
          "internalType": "uint256",
          "name": "randomnesss",
          "type": "uint256"
        }
      ],
      "stateMutability": "view",
      "type": "function"
    },
    {
      "inputs": [
        {
          "internalType": "bytes32",
          "name": "role",
          "type": "bytes32"
        }
      ],
      "name": "getRoleAdmin",
      "outputs": [
        {
          "internalType": "bytes32",
          "name": "",
          "type": "bytes32"
        }
      ],
      "stateMutability": "view",
      "type": "function"
    },
    {
      "inputs": [
        {
          "internalType": "bytes32",
          "name": "role",
          "type": "bytes32"
        },
        {
          "internalType": "address",
          "name": "account",
          "type": "address"
        }
      ],
      "name": "grantRole",
      "outputs": [],
      "stateMutability": "nonpayable",
      "type": "function"
    },
    {
      "inputs": [
        {
          "internalType": "bytes32",
          "name": "role",
          "type": "bytes32"
        },
        {
          "internalType": "address",
          "name": "account",
          "type": "address"
        }
      ],
      "name": "hasRole",
      "outputs": [
        {
          "internalType": "bool",
          "name": "",
          "type": "bool"
        }
      ],
      "stateMutability": "view",
      "type": "function"
    },
    {
      "inputs": [],
      "name": "platformRoyalty",
      "outputs": [
        {
          "internalType": "uint256",
          "name": "",
          "type": "uint256"
        }
      ],
      "stateMutability": "view",
      "type": "function"
    },
    {
      "inputs": [
        {
          "internalType": "uint256",
          "name": "",
          "type": "uint256"
        }
      ],
      "name": "projects",
      "outputs": [
        {
          "internalType": "address",
          "name": "",
          "type": "address"
        }
      ],
      "stateMutability": "view",
      "type": "function"
    },
    {
      "inputs": [
        {
          "internalType": "address",
          "name": "project",
          "type": "address"
        }
      ],
      "name": "removeProject",
      "outputs": [],
      "stateMutability": "nonpayable",
      "type": "function"
    },
    {
      "inputs": [
        {
          "internalType": "uint256",
          "name": "id",
          "type": "uint256"
        }
      ],
      "name": "removeProject",
      "outputs": [],
      "stateMutability": "nonpayable",
      "type": "function"
    },
    {
      "inputs": [
        {
          "internalType": "bytes32",
          "name": "role",
          "type": "bytes32"
        },
        {
          "internalType": "address",
          "name": "account",
          "type": "address"
        }
      ],
      "name": "renounceRole",
      "outputs": [],
      "stateMutability": "nonpayable",
      "type": "function"
    },
    {
      "inputs": [
        {
          "internalType": "bytes32",
          "name": "role",
          "type": "bytes32"
        },
        {
          "internalType": "address",
          "name": "account",
          "type": "address"
        }
      ],
      "name": "revokeRole",
      "outputs": [],
      "stateMutability": "nonpayable",
      "type": "function"
    },
    {
      "inputs": [],
      "name": "rollbackLastProject",
      "outputs": [],
      "stateMutability": "nonpayable",
      "type": "function"
    },
    {
      "inputs": [
        {
          "internalType": "address",
          "name": "rand",
          "type": "address"
        }
      ],
      "name": "setRandom",
      "outputs": [],
      "stateMutability": "nonpayable",
      "type": "function"
    },
    {
      "inputs": [
        {
          "internalType": "bytes4",
          "name": "interfaceId",
          "type": "bytes4"
        }
      ],
      "name": "supportsInterface",
      "outputs": [
        {
          "internalType": "bool",
          "name": "",
          "type": "bool"
        }
      ],
      "stateMutability": "view",
      "type": "function"
    },
    {
      "inputs": [],
      "name": "testRandom",
      "outputs": [
        {
          "internalType": "bytes32",
          "name": "",
          "type": "bytes32"
        }
      ],
      "stateMutability": "view",
      "type": "function"
    }
  ],
  "bytecode": "0x6080604052737a832c86002323a5de3a317b3281eb88ec3b2c00600560006101000a81548173ffffffffffffffffffffffffffffffffffffffff021916908373ffffffffffffffffffffffffffffffffffffffff160217905550610d056006553480156200006c57600080fd5b5060405162001d9638038062001d96833981810160405281019062000092919062000269565b620000a76000801b33620000ef60201b60201c565b80600160006101000a81548173ffffffffffffffffffffffffffffffffffffffff021916908373ffffffffffffffffffffffffffffffffffffffff16021790555050620002e3565b620001018282620001e060201b60201c565b620001dc57600160008084815260200190815260200160002060000160008373ffffffffffffffffffffffffffffffffffffffff1673ffffffffffffffffffffffffffffffffffffffff16815260200190815260200160002060006101000a81548160ff021916908315150217905550620001816200024a60201b60201c565b73ffffffffffffffffffffffffffffffffffffffff168173ffffffffffffffffffffffffffffffffffffffff16837f2f8788117e7eff1d82e926ec794901d17c78024a50270940304540a733656f0d60405160405180910390a45b5050565b600080600084815260200190815260200160002060000160008373ffffffffffffffffffffffffffffffffffffffff1673ffffffffffffffffffffffffffffffffffffffff16815260200190815260200160002060009054906101000a900460ff16905092915050565b600033905090565b6000815190506200026381620002c9565b92915050565b6000602082840312156200027c57600080fd5b60006200028c8482850162000252565b91505092915050565b6000620002a282620002a9565b9050919050565b600073ffffffffffffffffffffffffffffffffffffffff82169050919050565b620002d48162000295565b8114620002e057600080fd5b50565b611aa380620002f36000396000f3fe608060405234801561001057600080fd5b50600436106101215760003560e01c80637a6a8763116100ad578063a7cd52cb11610071578063a7cd52cb14610318578063ca9c0bad14610348578063d547741f14610364578063d672131b14610380578063fbddd14b1461039e57610121565b80637a6a8763146102865780637c56b798146102905780637dafc0d3146102ac57806391d14854146102ca578063a217fddf146102fa57610121565b806329e5d831116100f457806329e5d831146101d25780632f2ff15d1461020257806336568abe1461021e5780634ca3e9b81461023a5780635873f9981461026a57610121565b806301ffc9a7146101265780630c0ad29914610156578063107046bd14610172578063248a9ca3146101a2575b600080fd5b610140600480360381019061013b91906112fa565b6103bc565b60405161014d91906115ea565b60405180910390f35b610170600480360381019061016b9190611243565b610436565b005b61018c60048036038101906101879190611323565b6104a7565b60405161019991906115b4565b60405180910390f35b6101bc60048036038101906101b7919061126c565b6104da565b6040516101c99190611605565b60405180910390f35b6101ec60048036038101906101e7919061134c565b6104f9565b6040516101f991906116c2565b60405180910390f35b61021c600480360381019061021791906112be565b610662565b005b610238600480360381019061023391906112be565b61068b565b005b610254600480360381019061024f9190611323565b61070e565b60405161026191906115b4565b60405180910390f35b610284600480360381019061027f9190611323565b61074b565b005b61028e6107f5565b005b6102aa60048036038101906102a59190611243565b6108b7565b005b6102b4610993565b6040516102c191906115cf565b60405180910390f35b6102e460048036038101906102df91906112be565b6109b9565b6040516102f191906115ea565b60405180910390f35b610302610a23565b60405161030f9190611605565b60405180910390f35b610332600480360381019061032d9190611243565b610a2a565b60405161033f91906115ea565b60405180910390f35b610362600480360381019061035d9190611243565b610a4a565b005b61037e600480360381019061037991906112be565b610aa4565b005b610388610acd565b60405161039591906116c2565b60405180910390f35b6103a6610ad3565b6040516103b39190611605565b60405180910390f35b60007f7965db0b000000000000000000000000000000000000000000000000000000007bffffffffffffffffffffffffffffffffffffffffffffffffffffffff1916827bffffffffffffffffffffffffffffffffffffffffffffffffffffffff1916148061042f575061042e82610b90565b5b9050919050565b6000801b61044b81610446610bfa565b610c02565b6000600460008473ffffffffffffffffffffffffffffffffffffffff1673ffffffffffffffffffffffffffffffffffffffff16815260200190815260200160002060006101000a81548160ff0219169083151502179055505050565b60036020528060005260406000206000915054906101000a900473ffffffffffffffffffffffffffffffffffffffff1681565b6000806000838152602001908152602001600020600101549050919050565b6000600460003373ffffffffffffffffffffffffffffffffffffffff1673ffffffffffffffffffffffffffffffffffffffff16815260200190815260200160002060009054906101000a900460ff16610587576040517f08c379a000000000000000000000000000000000000000000000000000000000815260040161057e90611682565b60405180910390fd5b6000600160009054906101000a900473ffffffffffffffffffffffffffffffffffffffff1673ffffffffffffffffffffffffffffffffffffffff1663990c8f796040518163ffffffff1660e01b815260040160206040518083038186803b1580156105f157600080fd5b505afa158015610605573d6000803e3d6000fd5b505050506040513d601f19601f820116820180604052508101906106299190611295565b848460405160200161063d9392919061153d565b6040516020818303038152906040528051906020012060001c90508091505092915050565b61066b826104da565b61067c81610677610bfa565b610c02565b6106868383610c9f565b505050565b610693610bfa565b73ffffffffffffffffffffffffffffffffffffffff168173ffffffffffffffffffffffffffffffffffffffff1614610700576040517f08c379a00000000000000000000000000000000000000000000000000000000081526004016106f7906116a2565b60405180910390fd5b61070a8282610d7f565b5050565b60006003600083815260200190815260200160002060009054906101000a900473ffffffffffffffffffffffffffffffffffffffff169050919050565b6000801b6107608161075b610bfa565b610c02565b60006003600084815260200190815260200160002060009054906101000a900473ffffffffffffffffffffffffffffffffffffffff1690506000600460008373ffffffffffffffffffffffffffffffffffffffff1673ffffffffffffffffffffffffffffffffffffffff16815260200190815260200160002060006101000a81548160ff021916908315150217905550505050565b6000801b61080a81610805610bfa565b610c02565b6108146002610e60565b60006108206002610ebc565b905060006003600083815260200190815260200160002060009054906101000a900473ffffffffffffffffffffffffffffffffffffffff1690506000600460008373ffffffffffffffffffffffffffffffffffffffff1673ffffffffffffffffffffffffffffffffffffffff16815260200190815260200160002060006101000a81548160ff021916908315150217905550505050565b6000801b6108cc816108c7610bfa565b610c02565b60006108d86002610ebc565b90506108e46002610eca565b826003600083815260200190815260200160002060006101000a81548173ffffffffffffffffffffffffffffffffffffffff021916908373ffffffffffffffffffffffffffffffffffffffff1602179055506001600460008573ffffffffffffffffffffffffffffffffffffffff1673ffffffffffffffffffffffffffffffffffffffff16815260200190815260200160002060006101000a81548160ff021916908315150217905550505050565b600560009054906101000a900473ffffffffffffffffffffffffffffffffffffffff1681565b600080600084815260200190815260200160002060000160008373ffffffffffffffffffffffffffffffffffffffff1673ffffffffffffffffffffffffffffffffffffffff16815260200190815260200160002060009054906101000a900460ff16905092915050565b6000801b81565b60046020528060005260406000206000915054906101000a900460ff1681565b6000801b610a5f81610a5a610bfa565b610c02565b81600160006101000a81548173ffffffffffffffffffffffffffffffffffffffff021916908373ffffffffffffffffffffffffffffffffffffffff1602179055505050565b610aad826104da565b610abe81610ab9610bfa565b610c02565b610ac88383610d7f565b505050565b60065481565b60008060001b610aea81610ae5610bfa565b610c02565b600160009054906101000a900473ffffffffffffffffffffffffffffffffffffffff1673ffffffffffffffffffffffffffffffffffffffff1663990c8f796040518163ffffffff1660e01b815260040160206040518083038186803b158015610b5257600080fd5b505afa158015610b66573d6000803e3d6000fd5b505050506040513d601f19601f82011682018060405250810190610b8a9190611295565b91505090565b60007f01ffc9a7000000000000000000000000000000000000000000000000000000007bffffffffffffffffffffffffffffffffffffffffffffffffffffffff1916827bffffffffffffffffffffffffffffffffffffffffffffffffffffffff1916149050919050565b600033905090565b610c0c82826109b9565b610c9b57610c318173ffffffffffffffffffffffffffffffffffffffff166014610ee0565b610c3f8360001c6020610ee0565b604051602001610c5092919061157a565b6040516020818303038152906040526040517f08c379a0000000000000000000000000000000000000000000000000000000008152600401610c929190611620565b60405180910390fd5b5050565b610ca982826109b9565b610d7b57600160008084815260200190815260200160002060000160008373ffffffffffffffffffffffffffffffffffffffff1673ffffffffffffffffffffffffffffffffffffffff16815260200190815260200160002060006101000a81548160ff021916908315150217905550610d20610bfa565b73ffffffffffffffffffffffffffffffffffffffff168173ffffffffffffffffffffffffffffffffffffffff16837f2f8788117e7eff1d82e926ec794901d17c78024a50270940304540a733656f0d60405160405180910390a45b5050565b610d8982826109b9565b15610e5c57600080600084815260200190815260200160002060000160008373ffffffffffffffffffffffffffffffffffffffff1673ffffffffffffffffffffffffffffffffffffffff16815260200190815260200160002060006101000a81548160ff021916908315150217905550610e01610bfa565b73ffffffffffffffffffffffffffffffffffffffff168173ffffffffffffffffffffffffffffffffffffffff16837ff6391f5c32d9c69d2a47ea670b442974b53935d1edc7fd64eb21e047a839171b60405160405180910390a45b5050565b60008160000154905060008111610eac576040517f08c379a0000000000000000000000000000000000000000000000000000000008152600401610ea390611662565b60405180910390fd5b6001810382600001819055505050565b600081600001549050919050565b6001816000016000828254019250508190555050565b606060006002836002610ef3919061175a565b610efd9190611704565b67ffffffffffffffff811115610f3c577f4e487b7100000000000000000000000000000000000000000000000000000000600052604160045260246000fd5b6040519080825280601f01601f191660200182016040528015610f6e5781602001600182028036833780820191505090505b5090507f300000000000000000000000000000000000000000000000000000000000000081600081518110610fcc577f4e487b7100000000000000000000000000000000000000000000000000000000600052603260045260246000fd5b60200101907effffffffffffffffffffffffffffffffffffffffffffffffffffffffffffff1916908160001a9053507f780000000000000000000000000000000000000000000000000000000000000081600181518110611056577f4e487b7100000000000000000000000000000000000000000000000000000000600052603260045260246000fd5b60200101907effffffffffffffffffffffffffffffffffffffffffffffffffffffffffffff1916908160001a90535060006001846002611096919061175a565b6110a09190611704565b90505b600181111561118c577f3031323334353637383961626364656600000000000000000000000000000000600f861660108110611108577f4e487b7100000000000000000000000000000000000000000000000000000000600052603260045260246000fd5b1a60f81b828281518110611145577f4e487b7100000000000000000000000000000000000000000000000000000000600052603260045260246000fd5b60200101907effffffffffffffffffffffffffffffffffffffffffffffffffffffffffffff1916908160001a905350600485901c94508061118590611877565b90506110a3565b50600084146111d0576040517f08c379a00000000000000000000000000000000000000000000000000000000081526004016111c790611642565b60405180910390fd5b8091505092915050565b6000813590506111e981611a11565b92915050565b6000813590506111fe81611a28565b92915050565b60008151905061121381611a28565b92915050565b60008135905061122881611a3f565b92915050565b60008135905061123d81611a56565b92915050565b60006020828403121561125557600080fd5b6000611263848285016111da565b91505092915050565b60006020828403121561127e57600080fd5b600061128c848285016111ef565b91505092915050565b6000602082840312156112a757600080fd5b60006112b584828501611204565b91505092915050565b600080604083850312156112d157600080fd5b60006112df858286016111ef565b92505060206112f0858286016111da565b9150509250929050565b60006020828403121561130c57600080fd5b600061131a84828501611219565b91505092915050565b60006020828403121561133557600080fd5b60006113438482850161122e565b91505092915050565b6000806040838503121561135f57600080fd5b600061136d8582860161122e565b925050602061137e8582860161122e565b9150509250929050565b611391816117c6565b82525050565b6113a0816117b4565b82525050565b6113af816117d8565b82525050565b6113be816117e4565b82525050565b6113d56113d0826117e4565b6118a1565b82525050565b60006113e6826116dd565b6113f081856116e8565b9350611400818560208601611844565b611409816118e4565b840191505092915050565b600061141f826116dd565b61142981856116f9565b9350611439818560208601611844565b80840191505092915050565b60006114526020836116e8565b915061145d826118f5565b602082019050919050565b6000611475601b836116e8565b91506114808261191e565b602082019050919050565b6000611498601b836116e8565b91506114a382611947565b602082019050919050565b60006114bb6017836116f9565b91506114c682611970565b601782019050919050565b60006114de6011836116f9565b91506114e982611999565b601182019050919050565b6000611501602f836116e8565b915061150c826119c2565b604082019050919050565b6115208161183a565b82525050565b6115376115328261183a565b6118ab565b82525050565b600061154982866113c4565b6020820191506115598285611526565b6020820191506115698284611526565b602082019150819050949350505050565b6000611585826114ae565b91506115918285611414565b915061159c826114d1565b91506115a88284611414565b91508190509392505050565b60006020820190506115c96000830184611397565b92915050565b60006020820190506115e46000830184611388565b92915050565b60006020820190506115ff60008301846113a6565b92915050565b600060208201905061161a60008301846113b5565b92915050565b6000602082019050818103600083015261163a81846113db565b905092915050565b6000602082019050818103600083015261165b81611445565b9050919050565b6000602082019050818103600083015261167b81611468565b9050919050565b6000602082019050818103600083015261169b8161148b565b9050919050565b600060208201905081810360008301526116bb816114f4565b9050919050565b60006020820190506116d76000830184611517565b92915050565b600081519050919050565b600082825260208201905092915050565b600081905092915050565b600061170f8261183a565b915061171a8361183a565b9250827fffffffffffffffffffffffffffffffffffffffffffffffffffffffffffffffff0382111561174f5761174e6118b5565b5b828201905092915050565b60006117658261183a565b91506117708361183a565b9250817fffffffffffffffffffffffffffffffffffffffffffffffffffffffffffffffff04831182151516156117a9576117a86118b5565b5b828202905092915050565b60006117bf8261181a565b9050919050565b60006117d18261181a565b9050919050565b60008115159050919050565b6000819050919050565b60007fffffffff0000000000000000000000000000000000000000000000000000000082169050919050565b600073ffffffffffffffffffffffffffffffffffffffff82169050919050565b6000819050919050565b60005b83811015611862578082015181840152602081019050611847565b83811115611871576000848401525b50505050565b60006118828261183a565b91506000821415611896576118956118b5565b5b600182039050919050565b6000819050919050565b6000819050919050565b7f4e487b7100000000000000000000000000000000000000000000000000000000600052601160045260246000fd5b6000601f19601f8301169050919050565b7f537472696e67733a20686578206c656e67746820696e73756666696369656e74600082015250565b7f436f756e7465723a2064656372656d656e74206f766572666c6f770000000000600082015250565b7f726e672063616c6c6572206e6f7420616c6c6f77206c69737465640000000000600082015250565b7f416363657373436f6e74726f6c3a206163636f756e7420000000000000000000600082015250565b7f206973206d697373696e6720726f6c6520000000000000000000000000000000600082015250565b7f416363657373436f6e74726f6c3a2063616e206f6e6c792072656e6f756e636560008201527f20726f6c657320666f722073656c660000000000000000000000000000000000602082015250565b611a1a816117b4565b8114611a2557600080fd5b50565b611a31816117e4565b8114611a3c57600080fd5b50565b611a48816117ee565b8114611a5357600080fd5b50565b611a5f8161183a565b8114611a6a57600080fd5b5056fea26469706673582212200a39829cdbb42475dd9809e4f2b0c23b83eac527b5d31c5335c96b8f999017e764736f6c63430008020033",
  "linkReferences": {},
  "deployedLinkReferences": {}
}