{
  "_format": "hh-sol-artifact-1",
  "contractName": "Solids",
  "sourceName": "contracts/Solids.sol",
  "abi": [
    {
      "inputs": [
        {
          "internalType": "address",
          "name": "coreAddress",
          "type": "address"
        },
        {
          "internalType": "address",
          "name": "shopAddress",
          "type": "address"
        }
      ],
      "stateMutability": "nonpayable",
      "type": "constructor"
    },
    {
      "anonymous": false,
      "inputs": [
        {
          "indexed": true,
          "internalType": "address",
          "name": "owner",
          "type": "address"
        },
        {
          "indexed": true,
          "internalType": "address",
          "name": "approved",
          "type": "address"
        },
        {
          "indexed": true,
          "internalType": "uint256",
          "name": "tokenId",
          "type": "uint256"
        }
      ],
      "name": "Approval",
      "type": "event"
    },
    {
      "anonymous": false,
      "inputs": [
        {
          "indexed": true,
          "internalType": "address",
          "name": "owner",
          "type": "address"
        },
        {
          "indexed": true,
          "internalType": "address",
          "name": "operator",
          "type": "address"
        },
        {
          "indexed": false,
          "internalType": "bool",
          "name": "approved",
          "type": "bool"
        }
      ],
      "name": "ApprovalForAll",
      "type": "event"
    },
    {
      "anonymous": false,
      "inputs": [
        {
          "indexed": true,
          "internalType": "bytes32",
          "name": "role",
          "type": "bytes32"
        },
        {
          "indexed": true,
          "internalType": "bytes32",
          "name": "previousAdminRole",
          "type": "bytes32"
        },
        {
          "indexed": true,
          "internalType": "bytes32",
          "name": "newAdminRole",
          "type": "bytes32"
        }
      ],
      "name": "RoleAdminChanged",
      "type": "event"
    },
    {
      "anonymous": false,
      "inputs": [
        {
          "indexed": true,
          "internalType": "bytes32",
          "name": "role",
          "type": "bytes32"
        },
        {
          "indexed": true,
          "internalType": "address",
          "name": "account",
          "type": "address"
        },
        {
          "indexed": true,
          "internalType": "address",
          "name": "sender",
          "type": "address"
        }
      ],
      "name": "RoleGranted",
      "type": "event"
    },
    {
      "anonymous": false,
      "inputs": [
        {
          "indexed": true,
          "internalType": "bytes32",
          "name": "role",
          "type": "bytes32"
        },
        {
          "indexed": true,
          "internalType": "address",
          "name": "account",
          "type": "address"
        },
        {
          "indexed": true,
          "internalType": "address",
          "name": "sender",
          "type": "address"
        }
      ],
      "name": "RoleRevoked",
      "type": "event"
    },
    {
      "anonymous": false,
      "inputs": [
        {
          "indexed": true,
          "internalType": "address",
          "name": "from",
          "type": "address"
        },
        {
          "indexed": true,
          "internalType": "address",
          "name": "to",
          "type": "address"
        },
        {
          "indexed": true,
          "internalType": "uint256",
          "name": "tokenId",
          "type": "uint256"
        }
      ],
      "name": "Transfer",
      "type": "event"
    },
    {
      "anonymous": false,
      "inputs": [
        {
          "indexed": false,
          "internalType": "address",
          "name": "_from",
          "type": "address"
        },
        {
          "indexed": false,
          "internalType": "uint256",
          "name": "_amount",
          "type": "uint256"
        }
      ],
      "name": "recievedFunds",
      "type": "event"
    },
    {
      "inputs": [],
      "name": "DEFAULT_ADMIN_ROLE",
      "outputs": [
        {
          "internalType": "bytes32",
          "name": "",
          "type": "bytes32"
        }
      ],
      "stateMutability": "view",
      "type": "function"
    },
    {
      "inputs": [],
      "name": "MINTER_ROLE",
      "outputs": [
        {
          "internalType": "bytes32",
          "name": "",
          "type": "bytes32"
        }
      ],
      "stateMutability": "view",
      "type": "function"
    },
    {
      "inputs": [],
      "name": "TOKEN_LIMIT",
      "outputs": [
        {
          "internalType": "uint256",
          "name": "",
          "type": "uint256"
        }
      ],
      "stateMutability": "view",
      "type": "function"
    },
    {
      "inputs": [],
      "name": "_contractURI",
      "outputs": [
        {
          "internalType": "string",
          "name": "",
          "type": "string"
        }
      ],
      "stateMutability": "view",
      "type": "function"
    },
    {
      "inputs": [],
      "name": "additionalPayee",
      "outputs": [
        {
          "internalType": "address payable",
          "name": "",
          "type": "address"
        }
      ],
      "stateMutability": "view",
      "type": "function"
    },
    {
      "inputs": [
        {
          "internalType": "uint96",
          "name": "_percentage",
          "type": "uint96"
        }
      ],
      "name": "additionalPayeePercent",
      "outputs": [],
      "stateMutability": "nonpayable",
      "type": "function"
    },
    {
      "inputs": [],
      "name": "additionalPayeePercentage",
      "outputs": [
        {
          "internalType": "uint256",
          "name": "",
          "type": "uint256"
        }
      ],
      "stateMutability": "view",
      "type": "function"
    },
    {
      "inputs": [
        {
          "internalType": "uint96",
          "name": "_percentage",
          "type": "uint96"
        }
      ],
      "name": "additionalPayeeRoyaltyPercent",
      "outputs": [],
      "stateMutability": "nonpayable",
      "type": "function"
    },
    {
      "inputs": [],
      "name": "additionalPayeeRoyaltyPercentage",
      "outputs": [
        {
          "internalType": "uint256",
          "name": "",
          "type": "uint256"
        }
      ],
      "stateMutability": "view",
      "type": "function"
    },
    {
      "inputs": [
        {
          "internalType": "address",
          "name": "to",
          "type": "address"
        },
        {
          "internalType": "uint256",
          "name": "tokenId",
          "type": "uint256"
        }
      ],
      "name": "approve",
      "outputs": [],
      "stateMutability": "nonpayable",
      "type": "function"
    },
    {
      "inputs": [],
      "name": "artist",
      "outputs": [
        {
          "internalType": "string",
          "name": "",
          "type": "string"
        }
      ],
      "stateMutability": "view",
      "type": "function"
    },
    {
      "inputs": [],
      "name": "artistAddress",
      "outputs": [
        {
          "internalType": "address payable",
          "name": "",
          "type": "address"
        }
      ],
      "stateMutability": "view",
      "type": "function"
    },
    {
      "inputs": [
        {
          "internalType": "address",
          "name": "owner",
          "type": "address"
        }
      ],
      "name": "balanceOf",
      "outputs": [
        {
          "internalType": "uint256",
          "name": "",
          "type": "uint256"
        }
      ],
      "stateMutability": "view",
      "type": "function"
    },
    {
      "inputs": [],
      "name": "baseURI",
      "outputs": [
        {
          "internalType": "string",
          "name": "",
          "type": "string"
        }
      ],
      "stateMutability": "view",
      "type": "function"
    },
    {
      "inputs": [
        {
          "internalType": "uint256",
          "name": "tokenId",
          "type": "uint256"
        }
      ],
      "name": "burn",
      "outputs": [],
      "stateMutability": "nonpayable",
      "type": "function"
    },
    {
      "inputs": [],
      "name": "checkPool",
      "outputs": [
        {
          "internalType": "uint256",
          "name": "",
          "type": "uint256"
        }
      ],
      "stateMutability": "view",
      "type": "function"
    },
    {
      "inputs": [],
      "name": "contractURI",
      "outputs": [
        {
          "internalType": "string",
          "name": "",
          "type": "string"
        }
      ],
      "stateMutability": "view",
      "type": "function"
    },
    {
      "inputs": [],
      "name": "description",
      "outputs": [
        {
          "internalType": "string",
          "name": "",
          "type": "string"
        }
      ],
      "stateMutability": "view",
      "type": "function"
    },
    {
      "inputs": [],
      "name": "getAdditionalPayee",
      "outputs": [
        {
          "internalType": "address payable",
          "name": "",
          "type": "address"
        }
      ],
      "stateMutability": "view",
      "type": "function"
    },
    {
      "inputs": [],
      "name": "getAdditionalPayeePercentage",
      "outputs": [
        {
          "internalType": "uint256",
          "name": "",
          "type": "uint256"
        }
      ],
      "stateMutability": "view",
      "type": "function"
    },
    {
      "inputs": [
        {
          "internalType": "uint256",
          "name": "tokenId",
          "type": "uint256"
        }
      ],
      "name": "getApproved",
      "outputs": [
        {
          "internalType": "address",
          "name": "",
          "type": "address"
        }
      ],
      "stateMutability": "view",
      "type": "function"
    },
    {
      "inputs": [],
      "name": "getArtistAddress",
      "outputs": [
        {
          "internalType": "address payable",
          "name": "",
          "type": "address"
        }
      ],
      "stateMutability": "view",
      "type": "function"
    },
    {
      "inputs": [
        {
          "internalType": "bytes32",
          "name": "role",
          "type": "bytes32"
        }
      ],
      "name": "getRoleAdmin",
      "outputs": [
        {
          "internalType": "bytes32",
          "name": "",
          "type": "bytes32"
        }
      ],
      "stateMutability": "view",
      "type": "function"
    },
    {
      "inputs": [],
      "name": "getTokenLimit",
      "outputs": [
        {
          "internalType": "uint256",
          "name": "",
          "type": "uint256"
        }
      ],
      "stateMutability": "view",
      "type": "function"
    },
    {
      "inputs": [
        {
          "internalType": "bytes32",
          "name": "role",
          "type": "bytes32"
        },
        {
          "internalType": "address",
          "name": "account",
          "type": "address"
        }
      ],
      "name": "grantRole",
      "outputs": [],
      "stateMutability": "nonpayable",
      "type": "function"
    },
    {
      "inputs": [
        {
          "internalType": "bytes32",
          "name": "role",
          "type": "bytes32"
        },
        {
          "internalType": "address",
          "name": "account",
          "type": "address"
        }
      ],
      "name": "hasRole",
      "outputs": [
        {
          "internalType": "bool",
          "name": "",
          "type": "bool"
        }
      ],
      "stateMutability": "view",
      "type": "function"
    },
    {
      "inputs": [
        {
          "internalType": "uint256",
          "name": "start",
          "type": "uint256"
        },
        {
          "internalType": "uint256",
          "name": "end",
          "type": "uint256"
        }
      ],
      "name": "initPool",
      "outputs": [],
      "stateMutability": "nonpayable",
      "type": "function"
    },
    {
      "inputs": [
        {
          "internalType": "address",
          "name": "owner",
          "type": "address"
        },
        {
          "internalType": "address",
          "name": "operator",
          "type": "address"
        }
      ],
      "name": "isApprovedForAll",
      "outputs": [
        {
          "internalType": "bool",
          "name": "",
          "type": "bool"
        }
      ],
      "stateMutability": "view",
      "type": "function"
    },
    {
      "inputs": [],
      "name": "license",
      "outputs": [
        {
          "internalType": "string",
          "name": "",
          "type": "string"
        }
      ],
      "stateMutability": "view",
      "type": "function"
    },
    {
      "inputs": [],
      "name": "lock",
      "outputs": [],
      "stateMutability": "nonpayable",
      "type": "function"
    },
    {
      "inputs": [],
      "name": "locked",
      "outputs": [
        {
          "internalType": "bool",
          "name": "",
          "type": "bool"
        }
      ],
      "stateMutability": "view",
      "type": "function"
    },
    {
      "inputs": [
        {
          "internalType": "address",
          "name": "to",
          "type": "address"
        }
      ],
      "name": "mint",
      "outputs": [
        {
          "internalType": "uint256",
          "name": "",
          "type": "uint256"
        }
      ],
      "stateMutability": "nonpayable",
      "type": "function"
    },
    {
      "inputs": [
        {
          "internalType": "address",
          "name": "to",
          "type": "address"
        },
        {
          "internalType": "uint256",
          "name": "infiniteId",
          "type": "uint256"
        }
      ],
      "name": "mintBonus",
      "outputs": [
        {
          "internalType": "uint256",
          "name": "bonusId",
          "type": "uint256"
        }
      ],
      "stateMutability": "nonpayable",
      "type": "function"
    },
    {
      "inputs": [],
      "name": "name",
      "outputs": [
        {
          "internalType": "string",
          "name": "",
          "type": "string"
        }
      ],
      "stateMutability": "view",
      "type": "function"
    },
    {
      "inputs": [
        {
          "internalType": "uint256",
          "name": "tokenId",
          "type": "uint256"
        }
      ],
      "name": "ownerOf",
      "outputs": [
        {
          "internalType": "address",
          "name": "",
          "type": "address"
        }
      ],
      "stateMutability": "view",
      "type": "function"
    },
    {
      "inputs": [
        {
          "internalType": "bytes32",
          "name": "role",
          "type": "bytes32"
        },
        {
          "internalType": "address",
          "name": "account",
          "type": "address"
        }
      ],
      "name": "renounceRole",
      "outputs": [],
      "stateMutability": "nonpayable",
      "type": "function"
    },
    {
      "inputs": [
        {
          "internalType": "bytes32",
          "name": "role",
          "type": "bytes32"
        },
        {
          "internalType": "address",
          "name": "account",
          "type": "address"
        }
      ],
      "name": "revokeRole",
      "outputs": [],
      "stateMutability": "nonpayable",
      "type": "function"
    },
    {
      "inputs": [
        {
          "internalType": "uint256",
          "name": "_tokenId",
          "type": "uint256"
        },
        {
          "internalType": "uint256",
          "name": "_salePrice",
          "type": "uint256"
        }
      ],
      "name": "royaltyInfo",
      "outputs": [
        {
          "internalType": "address",
          "name": "",
          "type": "address"
        },
        {
          "internalType": "uint256",
          "name": "",
          "type": "uint256"
        }
      ],
      "stateMutability": "view",
      "type": "function"
    },
    {
      "inputs": [],
      "name": "royaltyPercent",
      "outputs": [
        {
          "internalType": "uint96",
          "name": "",
          "type": "uint96"
        }
      ],
      "stateMutability": "view",
      "type": "function"
    },
    {
      "inputs": [
        {
          "internalType": "address",
          "name": "from",
          "type": "address"
        },
        {
          "internalType": "address",
          "name": "to",
          "type": "address"
        },
        {
          "internalType": "uint256",
          "name": "tokenId",
          "type": "uint256"
        }
      ],
      "name": "safeTransferFrom",
      "outputs": [],
      "stateMutability": "nonpayable",
      "type": "function"
    },
    {
      "inputs": [
        {
          "internalType": "address",
          "name": "from",
          "type": "address"
        },
        {
          "internalType": "address",
          "name": "to",
          "type": "address"
        },
        {
          "internalType": "uint256",
          "name": "tokenId",
          "type": "uint256"
        },
        {
          "internalType": "bytes",
          "name": "_data",
          "type": "bytes"
        }
      ],
      "name": "safeTransferFrom",
      "outputs": [],
      "stateMutability": "nonpayable",
      "type": "function"
    },
    {
      "inputs": [
        {
          "internalType": "uint256",
          "name": "",
          "type": "uint256"
        }
      ],
      "name": "scripts",
      "outputs": [
        {
          "internalType": "string",
          "name": "",
          "type": "string"
        }
      ],
      "stateMutability": "view",
      "type": "function"
    },
    {
      "inputs": [
        {
          "internalType": "address",
          "name": "operator",
          "type": "address"
        },
        {
          "internalType": "bool",
          "name": "approved",
          "type": "bool"
        }
      ],
      "name": "setApprovalForAll",
      "outputs": [],
      "stateMutability": "nonpayable",
      "type": "function"
    },
    {
      "inputs": [
        {
          "internalType": "string",
          "name": "_uri",
          "type": "string"
        }
      ],
      "name": "setBaseURI",
      "outputs": [],
      "stateMutability": "nonpayable",
      "type": "function"
    },
    {
      "inputs": [
        {
          "internalType": "string",
          "name": "_uri",
          "type": "string"
        }
      ],
      "name": "setContractURI",
      "outputs": [],
      "stateMutability": "nonpayable",
      "type": "function"
    },
    {
      "inputs": [
        {
          "internalType": "string",
          "name": "_desc",
          "type": "string"
        }
      ],
      "name": "setDescription",
      "outputs": [],
      "stateMutability": "nonpayable",
      "type": "function"
    },
    {
      "inputs": [
        {
          "internalType": "uint96",
          "name": "_percentage",
          "type": "uint96"
        }
      ],
      "name": "setRoyaltyPercent",
      "outputs": [],
      "stateMutability": "nonpayable",
      "type": "function"
    },
    {
      "inputs": [
        {
          "internalType": "uint256",
          "name": "index",
          "type": "uint256"
        },
        {
          "internalType": "string",
          "name": "script",
          "type": "string"
        }
      ],
      "name": "setScript",
      "outputs": [],
      "stateMutability": "nonpayable",
      "type": "function"
    },
    {
      "inputs": [
        {
          "internalType": "string",
          "name": "_url",
          "type": "string"
        }
      ],
      "name": "setWebsite",
      "outputs": [],
      "stateMutability": "nonpayable",
      "type": "function"
    },
    {
      "inputs": [
        {
          "internalType": "bytes4",
          "name": "interfaceId",
          "type": "bytes4"
        }
      ],
      "name": "supportsInterface",
      "outputs": [
        {
          "internalType": "bool",
          "name": "",
          "type": "bool"
        }
      ],
      "stateMutability": "view",
      "type": "function"
    },
    {
      "inputs": [],
      "name": "symbol",
      "outputs": [
        {
          "internalType": "string",
          "name": "",
          "type": "string"
        }
      ],
      "stateMutability": "view",
      "type": "function"
    },
    {
      "inputs": [
        {
          "internalType": "uint256",
          "name": "index",
          "type": "uint256"
        }
      ],
      "name": "tokenByIndex",
      "outputs": [
        {
          "internalType": "uint256",
          "name": "",
          "type": "uint256"
        }
      ],
      "stateMutability": "view",
      "type": "function"
    },
    {
      "inputs": [
        {
          "internalType": "address",
          "name": "owner",
          "type": "address"
        },
        {
          "internalType": "uint256",
          "name": "index",
          "type": "uint256"
        }
      ],
      "name": "tokenOfOwnerByIndex",
      "outputs": [
        {
          "internalType": "uint256",
          "name": "",
          "type": "uint256"
        }
      ],
      "stateMutability": "view",
      "type": "function"
    },
    {
      "inputs": [
        {
          "internalType": "uint256",
          "name": "tokenId",
          "type": "uint256"
        }
      ],
      "name": "tokenURI",
      "outputs": [
        {
          "internalType": "string",
          "name": "",
          "type": "string"
        }
      ],
      "stateMutability": "view",
      "type": "function"
    },
    {
      "inputs": [],
      "name": "totalSupply",
      "outputs": [
        {
          "internalType": "uint256",
          "name": "",
          "type": "uint256"
        }
      ],
      "stateMutability": "view",
      "type": "function"
    },
    {
      "inputs": [
        {
          "internalType": "address",
          "name": "from",
          "type": "address"
        },
        {
          "internalType": "address",
          "name": "to",
          "type": "address"
        },
        {
          "internalType": "uint256",
          "name": "tokenId",
          "type": "uint256"
        }
      ],
      "name": "transferFrom",
      "outputs": [],
      "stateMutability": "nonpayable",
      "type": "function"
    },
    {
      "inputs": [],
      "name": "website",
      "outputs": [
        {
          "internalType": "string",
          "name": "",
          "type": "string"
        }
      ],
      "stateMutability": "view",
      "type": "function"
    },
    {
      "inputs": [],
      "name": "withdraw",
      "outputs": [],
      "stateMutability": "nonpayable",
      "type": "function"
    },
    {
      "stateMutability": "payable",
      "type": "receive"
    }
  ],
  "bytecode": "0x6103e8600d556013805474e31a7d022e545eced32d276ca880649852c91353006001600160a81b0319909116179055601480546001600160a01b03191673268b87e4f6b7e7beb58e3128138d4f6b768e1b1717905560646015819055601655601780546001600160601b031916611d4c17905561010060405260506080818152906200395260a03980516200009d9160189160209091019062000462565b5060405180608001604052806050815260200162003902605091398051620000ce9160199160209091019062000462565b50604080518082019091526003808252622320a960e91b6020909201918252620000fb91601a9162000462565b506040805180820190915260158082527f612073616d706c65204e465420666f722046494e45000000000000000000000060209092019182526200014291601b9162000462565b506040805180820190915260148082527f68747470733a2f2f66696e652e6469676974616c00000000000000000000000060209092019182526200018991601c9162000462565b506040805180820190915260038082526213525560ea1b6020909201918252620001b691601d9162000462565b50348015620001c457600080fd5b50604051620039a2380380620039a2833981016040819052620001e79162000525565b604080518082018252600680825265534f4c49445360d01b602080840182815285518087019096529285528401528151919291620002289160029162000462565b5080516200023e90600390602084019062000462565b506200025091506000905033620002b8565b6200027c7f9f2df0fed2c77648de5860a4cc508cd0818c85b8b8a1ab4ceeef8d981c8956a682620002b8565b600e80546001600160a01b0319166001600160a01b038416179055601754620002b09030906001600160601b03166200035d565b50506200059a565b6000828152600c602090815260408083206001600160a01b038516845290915290205460ff1662000359576000828152600c602090815260408083206001600160a01b03851684529091529020805460ff19166001179055620003183390565b6001600160a01b0316816001600160a01b0316837f2f8788117e7eff1d82e926ec794901d17c78024a50270940304540a733656f0d60405160405180910390a45b5050565b6127106001600160601b0382161115620003d15760405162461bcd60e51b815260206004820152602a60248201527f455243323938313a20726f79616c7479206665652077696c6c206578636565646044820152692073616c65507269636560b01b60648201526084015b60405180910390fd5b6001600160a01b038216620004295760405162461bcd60e51b815260206004820152601960248201527f455243323938313a20696e76616c6964207265636569766572000000000000006044820152606401620003c8565b604080518082019091526001600160a01b039092168083526001600160601b039091166020909201829052600160a01b90910217600055565b82805462000470906200055d565b90600052602060002090601f016020900481019282620004945760008555620004df565b82601f10620004af57805160ff1916838001178555620004df565b82800160010185558215620004df579182015b82811115620004df578251825591602001919060010190620004c2565b50620004ed929150620004f1565b5090565b5b80821115620004ed5760008155600101620004f2565b80516001600160a01b03811681146200052057600080fd5b919050565b600080604083850312156200053957600080fd5b620005448362000508565b9150620005546020840162000508565b90509250929050565b600181811c908216806200057257607f821691505b602082108114156200059457634e487b7160e01b600052602260045260246000fd5b50919050565b61335880620005aa6000396000f3fe6080604052600436106103855760003560e01c80636ff314c7116101d1578063b88d4fde11610102578063d7eb3f3a116100a0578063ea099ad91161006f578063ea099ad914610a9e578063f83d08ba14610ab4578063f87f44b914610ac9578063f9f3bfd814610ae957600080fd5b8063d7eb3f3a146109fb578063d9a7c61d14610a20578063e8a3d48514610a40578063e985e9c514610a5557600080fd5b8063c87b56dd116100dc578063c87b56dd1461096d578063cf3090121461098d578063d5391393146109a7578063d547741f146109db57600080fd5b8063b88d4fde14610923578063beb0a41614610943578063c0e727401461095857600080fd5b806391d148541161016f5780639e1b0045116101495780639e1b0045146108965780639f67756d146108b6578063a217fddf146108ee578063a22cb4651461090357600080fd5b806391d1485414610841578063938e3d7b1461086157806395d89b411461088157600080fd5b80637284e416116101ab5780637284e416146107c9578063867644d9146107de5780638cbe8d80146107fe57806390c3f38f1461082157600080fd5b80636ff314c71461076b57806370a082311461078957806371199d30146107a957600080fd5b806336568abe116102b65780634bc46a82116102545780636352211e116102235780636352211e146107015780636a627842146107215780636b87d24c146107415780636c0360eb1461075657600080fd5b80634bc46a82146106815780634f6ccce7146106a157806355f804b3146106c157806359748cb2146106e157600080fd5b806342842e0e1161029057806342842e0e1461061757806342966c681461063757806343bc1612146106575780634771218a1461066c57600080fd5b806336568abe146105cc5780633ccfd60b146105ec57806340138ff11461060157600080fd5b806323b872dd116103235780632a55205a116102fd5780632a55205a146105385780632cc88974146105775780632f2ff15d1461058c5780632f745c59146105ac57600080fd5b806323b872dd146104d3578063248a9ca3146104f3578063284855861461052357600080fd5b8063081812fc1161035f578063081812fc1461044457806308ff7f611461047c578063095ea7b31461049c57806318160ddd146104be57600080fd5b806301ffc9a7146103c9578063031bd4c4146103fe57806306fdde031461042257600080fd5b366103c457604080513381523460208201527ffb5cb5fc5900f14be0f619816129d1490c275a13734b28ae77072a2f5d676f57910160405180910390a1005b600080fd5b3480156103d557600080fd5b506103e96103e4366004612b7c565b610b09565b60405190151581526020015b60405180910390f35b34801561040a57600080fd5b50610414600d5481565b6040519081526020016103f5565b34801561042e57600080fd5b50610437610b1a565b6040516103f59190612bf1565b34801561045057600080fd5b5061046461045f366004612c04565b610bac565b6040516001600160a01b0390911681526020016103f5565b34801561048857600080fd5b50610437610497366004612c04565b610c46565b3480156104a857600080fd5b506104bc6104b7366004612c32565b610ce0565b005b3480156104ca57600080fd5b50600a54610414565b3480156104df57600080fd5b506104bc6104ee366004612c5e565b610df6565b3480156104ff57600080fd5b5061041461050e366004612c04565b6000908152600c602052604090206001015490565b34801561052f57600080fd5b50600d54610414565b34801561054457600080fd5b50610558610553366004612c9f565b610e28565b604080516001600160a01b0390931683526020830191909152016103f5565b34801561058357600080fd5b50601554610414565b34801561059857600080fd5b506104bc6105a7366004612cc1565b610ed6565b3480156105b857600080fd5b506104146105c7366004612c32565b610efc565b3480156105d857600080fd5b506104bc6105e7366004612cc1565b610f92565b3480156105f857600080fd5b506104bc611010565b34801561060d57600080fd5b5061041460155481565b34801561062357600080fd5b506104bc610632366004612c5e565b611028565b34801561064357600080fd5b506104bc610652366004612c04565b611043565b34801561066357600080fd5b506104376110ba565b34801561067857600080fd5b506104146110c7565b34801561068d57600080fd5b506104bc61069c366004612cf1565b6110d8565b3480156106ad57600080fd5b506104146106bc366004612c04565b61110c565b3480156106cd57600080fd5b506104bc6106dc366004612d5c565b61119f565b3480156106ed57600080fd5b50601454610464906001600160a01b031681565b34801561070d57600080fd5b5061046461071c366004612c04565b6111bd565b34801561072d57600080fd5b5061041461073c366004612d9e565b611234565b34801561074d57600080fd5b506104376113c4565b34801561076257600080fd5b506104376113d1565b34801561077757600080fd5b506014546001600160a01b0316610464565b34801561079557600080fd5b506104146107a4366004612d9e565b6113de565b3480156107b557600080fd5b506104bc6107c4366004612dbb565b611465565b3480156107d557600080fd5b50610437611491565b3480156107ea57600080fd5b506104bc6107f9366004612cf1565b61149e565b34801561080a57600080fd5b5060135461010090046001600160a01b0316610464565b34801561082d57600080fd5b506104bc61083c366004612d5c565b6114b9565b34801561084d57600080fd5b506103e961085c366004612cc1565b6114d1565b34801561086d57600080fd5b506104bc61087c366004612d5c565b6114fc565b34801561088d57600080fd5b50610437611514565b3480156108a257600080fd5b506104bc6108b1366004612c9f565b611523565b3480156108c257600080fd5b506017546108d6906001600160601b031681565b6040516001600160601b0390911681526020016103f5565b3480156108fa57600080fd5b50610414600081565b34801561090f57600080fd5b506104bc61091e366004612e07565b611668565b34801561092f57600080fd5b506104bc61093e366004612e50565b611673565b34801561094f57600080fd5b506104376116a5565b34801561096457600080fd5b506104376116b2565b34801561097957600080fd5b50610437610988366004612c04565b6116bf565b34801561099957600080fd5b506013546103e99060ff1681565b3480156109b357600080fd5b506104147f9f2df0fed2c77648de5860a4cc508cd0818c85b8b8a1ab4ceeef8d981c8956a681565b3480156109e757600080fd5b506104bc6109f6366004612cc1565b6116f3565b348015610a0757600080fd5b506013546104649061010090046001600160a01b031681565b348015610a2c57600080fd5b50610414610a3b366004612c32565b611719565b348015610a4c57600080fd5b5061043761180a565b348015610a6157600080fd5b506103e9610a70366004612f30565b6001600160a01b03918216600090815260076020908152604080832093909416825291909152205460ff1690565b348015610aaa57600080fd5b5061041460165481565b348015610ac057600080fd5b506104bc611819565b348015610ad557600080fd5b506104bc610ae4366004612d5c565b611882565b348015610af557600080fd5b506104bc610b04366004612cf1565b61189a565b6000610b14826118b5565b92915050565b606060028054610b2990612f5e565b80601f0160208091040260200160405190810160405280929190818152602001828054610b5590612f5e565b8015610ba25780601f10610b7757610100808354040283529160200191610ba2565b820191906000526020600020905b815481529060010190602001808311610b8557829003601f168201915b5050505050905090565b6000818152600460205260408120546001600160a01b0316610c2a5760405162461bcd60e51b815260206004820152602c60248201527f4552433732313a20617070726f76656420717565727920666f72206e6f6e657860448201526b34b9ba32b73a103a37b5b2b760a11b60648201526084015b60405180910390fd5b506000908152600660205260409020546001600160a01b031690565b60106020526000908152604090208054610c5f90612f5e565b80601f0160208091040260200160405190810160405280929190818152602001828054610c8b90612f5e565b8015610cd85780601f10610cad57610100808354040283529160200191610cd8565b820191906000526020600020905b815481529060010190602001808311610cbb57829003601f168201915b505050505081565b6000610ceb826111bd565b9050806001600160a01b0316836001600160a01b03161415610d595760405162461bcd60e51b815260206004820152602160248201527f4552433732313a20617070726f76616c20746f2063757272656e74206f776e656044820152603960f91b6064820152608401610c21565b336001600160a01b0382161480610d755750610d758133610a70565b610de75760405162461bcd60e51b815260206004820152603860248201527f4552433732313a20617070726f76652063616c6c6572206973206e6f74206f7760448201527f6e6572206e6f7220617070726f76656420666f7220616c6c00000000000000006064820152608401610c21565b610df183836118da565b505050565b610e01335b82611948565b610e1d5760405162461bcd60e51b8152600401610c2190612f93565b610df1838383611a3f565b60008281526001602090815260408083208151808301909252546001600160a01b038116808352600160a01b9091046001600160601b0316928201929092528291610e9d5750604080518082019091526000546001600160a01b0381168252600160a01b90046001600160601b031660208201525b602081015160009061271090610ebc906001600160601b031687612ffa565b610ec6919061302f565b91519350909150505b9250929050565b6000828152600c6020526040902060010154610ef28133611be6565b610df18383611c4a565b6000610f07836113de565b8210610f695760405162461bcd60e51b815260206004820152602b60248201527f455243373231456e756d657261626c653a206f776e657220696e646578206f7560448201526a74206f6620626f756e647360a81b6064820152608401610c21565b506001600160a01b03919091166000908152600860209081526040808320938352929052205490565b6001600160a01b03811633146110025760405162461bcd60e51b815260206004820152602f60248201527f416363657373436f6e74726f6c3a2063616e206f6e6c792072656e6f756e636560448201526e103937b632b9903337b91039b2b63360891b6064820152608401610c21565b61100c8282611cd0565b5050565b600061101c8133611be6565b61102547611d37565b50565b610df183838360405180602001604052806000815250611673565b61104c33610dfb565b6110b15760405162461bcd60e51b815260206004820152603060248201527f4552433732314275726e61626c653a2063616c6c6572206973206e6f74206f7760448201526f1b995c881b9bdc88185c1c1c9bdd995960821b6064820152608401610c21565b61102581611f35565b601a8054610c5f90612f5e565b60006110d36011611f3e565b905090565b60006110e48133611be6565b50601780546bffffffffffffffffffffffff19166001600160601b0392909216919091179055565b6000611117600a5490565b821061117a5760405162461bcd60e51b815260206004820152602c60248201527f455243373231456e756d657261626c653a20676c6f62616c20696e646578206f60448201526b7574206f6620626f756e647360a01b6064820152608401610c21565b600a828154811061118d5761118d613043565b90600052602060002001549050919050565b60006111ab8133611be6565b6111b760198484612acd565b50505050565b6000818152600460205260408120546001600160a01b031680610b145760405162461bcd60e51b815260206004820152602960248201527f4552433732313a206f776e657220717565727920666f72206e6f6e657869737460448201526832b73a103a37b5b2b760b91b6064820152608401610c21565b60007f9f2df0fed2c77648de5860a4cc508cd0818c85b8b8a1ab4ceeef8d981c8956a66112618133611be6565b60135460ff166112a95760405162461bcd60e51b81526020600482015260136024820152721cd95d1d1a5b99dcc81b9bdd081b1bd8dad959606a1b6044820152606401610c21565b60006112b56011611f3e565b116112f65760405162461bcd60e51b8152602060048201526011602482015270185b1b081d1bdad95b9cc81b5a5b9d1959607a1b6044820152606401610c21565b600e546000906001600160a01b03166329e5d8316113146011611f3e565b6040516001600160e01b031960e084901b1681526004810191909152426024820152604401602060405180830381865afa158015611356573d6000803e3d6000fd5b505050506040513d601f19601f8201168201806040525081019061137a9190613059565b905060006113886011611f3e565b6113929083613072565b905060006113a1601183611f48565b90506113ae601182611f5b565b506113b98682611f67565b935050505b50919050565b601d8054610c5f90612f5e565b60198054610c5f90612f5e565b60006001600160a01b0382166114495760405162461bcd60e51b815260206004820152602a60248201527f4552433732313a2062616c616e636520717565727920666f7220746865207a65604482015269726f206164647265737360b01b6064820152608401610c21565b506001600160a01b031660009081526005602052604090205490565b60006114718133611be6565b600084815260106020526040902061148a908484612acd565b5050505050565b601b8054610c5f90612f5e565b60006114aa8133611be6565b506001600160601b0316601655565b60006114c58133611be6565b6111b7601b8484612acd565b6000918252600c602090815260408084206001600160a01b0393909316845291905290205460ff1690565b60006115088133611be6565b6111b760188484612acd565b606060038054610b2990612f5e565b60135460ff16156115705760405162461bcd60e51b81526020600482015260176024820152761cd95d1d1a5b99dcc8185b1c9958591e481b1bd8dad959604a1b6044820152606401610c21565b808211156115cc5760405162461bcd60e51b815260206004820152602360248201527f7374617274206d75737420636f6d65206265666f7265206f7220657175616c20604482015262195b9960ea1b6064820152608401610c21565b60006115d88383613086565b9050600d54816115e86011611f3e565b6115f2919061309d565b11156116405760405162461bcd60e51b815260206004820152601e60248201527f63616e7420616464206d6f7265207468616e20746f6b656e206c696d697400006044820152606401610c21565b825b828110156111b757611655601182611f81565b5080611660816130b5565b915050611642565b61100c338383611f8d565b61167d3383611948565b6116995760405162461bcd60e51b8152600401610c2190612f93565b6111b78484848461205c565b601c8054610c5f90612f5e565b60188054610c5f90612f5e565b606060196116cc8361208f565b6040516020016116dd9291906130ec565b6040516020818303038152906040529050919050565b6000828152600c602052604090206001015461170f8133611be6565b610df18383611cd0565b60007f9f2df0fed2c77648de5860a4cc508cd0818c85b8b8a1ab4ceeef8d981c8956a66117468133611be6565b60135460ff1661178e5760405162461bcd60e51b81526020600482015260136024820152721cd95d1d1a5b99dcc81b9bdd081b1bd8dad959606a1b6044820152606401610c21565b61179a8361271061309d565b6000818152600460205260409020549092506001600160a01b0316156117f95760405162461bcd60e51b8152602060048201526014602482015273151bdad95b88185b1c9958591e481b5a5b9d195960621b6044820152606401610c21565b6118038483611f67565b5092915050565b606060188054610b2990612f5e565b60006118258133611be6565b60135460ff16156118725760405162461bcd60e51b81526020600482015260176024820152761cd95d1d1a5b99dcc8185b1c9958591e481b1bd8dad959604a1b6044820152606401610c21565b506013805460ff19166001179055565b600061188e8133611be6565b6111b7601c8484612acd565b60006118a68133611be6565b506001600160601b0316601555565b60006001600160e01b03198216637965db0b60e01b1480610b145750610b148261218d565b600081815260066020526040902080546001600160a01b0319166001600160a01b038416908117909155819061190f826111bd565b6001600160a01b03167f8c5be1e5ebec7d5bd14f71427d1e84f3dd0314c0f7b2291e5b200ac8c7c3b92560405160405180910390a45050565b6000818152600460205260408120546001600160a01b03166119c15760405162461bcd60e51b815260206004820152602c60248201527f4552433732313a206f70657261746f7220717565727920666f72206e6f6e657860448201526b34b9ba32b73a103a37b5b2b760a11b6064820152608401610c21565b60006119cc836111bd565b9050806001600160a01b0316846001600160a01b03161480611a075750836001600160a01b03166119fc84610bac565b6001600160a01b0316145b80611a3757506001600160a01b0380821660009081526007602090815260408083209388168352929052205460ff165b949350505050565b826001600160a01b0316611a52826111bd565b6001600160a01b031614611ab65760405162461bcd60e51b815260206004820152602560248201527f4552433732313a207472616e736665722066726f6d20696e636f72726563742060448201526437bbb732b960d91b6064820152608401610c21565b6001600160a01b038216611b185760405162461bcd60e51b8152602060048201526024808201527f4552433732313a207472616e7366657220746f20746865207a65726f206164646044820152637265737360e01b6064820152608401610c21565b611b23838383612198565b611b2e6000826118da565b6001600160a01b0383166000908152600560205260408120805460019290611b57908490613086565b90915550506001600160a01b0382166000908152600560205260408120805460019290611b8590849061309d565b909155505060008181526004602052604080822080546001600160a01b0319166001600160a01b0386811691821790925591518493918716917fddf252ad1be2c89b69c2b068fc378daa952ba7f163c4a11628f55a4df523b3ef91a4505050565b611bf082826114d1565b61100c57611c08816001600160a01b031660146121a3565b611c138360206121a3565b604051602001611c249291906131b7565b60408051601f198184030181529082905262461bcd60e51b8252610c2191600401612bf1565b611c5482826114d1565b61100c576000828152600c602090815260408083206001600160a01b03851684529091529020805460ff19166001179055611c8c3390565b6001600160a01b0316816001600160a01b0316837f2f8788117e7eff1d82e926ec794901d17c78024a50270940304540a733656f0d60405160405180910390a45050565b611cda82826114d1565b1561100c576000828152600c602090815260408083206001600160a01b0385168085529252808320805460ff1916905551339285917ff6391f5c32d9c69d2a47ea670b442974b53935d1edc7fd64eb21e047a839171b9190a45050565b8015611025576000612710600e60009054906101000a90046001600160a01b03166001600160a01b031663d672131b6040518163ffffffff1660e01b81526004016020604051808303816000875af1158015611d97573d6000803e3d6000fd5b505050506040513d601f19601f82011682018060405250810190611dbb9190613059565b611dc59084612ffa565b611dcf919061302f565b9050600e60009054906101000a90046001600160a01b03166001600160a01b0316637dafc0d36040518163ffffffff1660e01b81526004016020604051808303816000875af1158015611e26573d6000803e3d6000fd5b505050506040513d601f19601f82011682018060405250810190611e4a919061322c565b6001600160a01b03166108fc829081150290604051600060405180830381858888f19350505050158015611e82573d6000803e3d6000fd5b50600061271060165484611e969190612ffa565b611ea0919061302f565b90508015611ee4576014546040516001600160a01b039091169082156108fc029083906000818181858888f19350505050158015611ee2573d6000803e3d6000fd5b505b60135461010090046001600160a01b03166108fc82611f038587613086565b611f0d9190613086565b6040518115909202916000818181858888f193505050501580156111b7573d6000803e3d6000fd5b6110258161233f565b6000610b14825490565b6000611f548383612359565b9392505050565b6000611f548383612383565b61100c828260405180602001604052806000815250612476565b6000611f5483836124a9565b816001600160a01b0316836001600160a01b03161415611fef5760405162461bcd60e51b815260206004820152601960248201527f4552433732313a20617070726f766520746f2063616c6c6572000000000000006044820152606401610c21565b6001600160a01b03838116600081815260076020908152604080832094871680845294825291829020805460ff191686151590811790915591519182527f17307eab39ab6107e8899845ad3d59bd9653f200f220920489ca2b5937696c31910160405180910390a3505050565b612067848484611a3f565b612073848484846124f8565b6111b75760405162461bcd60e51b8152600401610c2190613249565b6060816120b35750506040805180820190915260018152600360fc1b602082015290565b8160005b81156120dd57806120c7816130b5565b91506120d69050600a8361302f565b91506120b7565b60008167ffffffffffffffff8111156120f8576120f8612e3a565b6040519080825280601f01601f191660200182016040528015612122576020820181803683370190505b5090505b8415611a3757612137600183613086565b9150612144600a86613072565b61214f90603061309d565b60f81b81838151811061216457612164613043565b60200101906001600160f81b031916908160001a905350612186600a8661302f565b9450612126565b6000610b14826125f6565b610df183838361261b565b606060006121b2836002612ffa565b6121bd90600261309d565b67ffffffffffffffff8111156121d5576121d5612e3a565b6040519080825280601f01601f1916602001820160405280156121ff576020820181803683370190505b509050600360fc1b8160008151811061221a5761221a613043565b60200101906001600160f81b031916908160001a905350600f60fb1b8160018151811061224957612249613043565b60200101906001600160f81b031916908160001a905350600061226d846002612ffa565b61227890600161309d565b90505b60018111156122f0576f181899199a1a9b1b9c1cb0b131b232b360811b85600f16601081106122ac576122ac613043565b1a60f81b8282815181106122c2576122c2613043565b60200101906001600160f81b031916908160001a90535060049490941c936122e98161329b565b905061227b565b508315611f545760405162461bcd60e51b815260206004820181905260248201527f537472696e67733a20686578206c656e67746820696e73756666696369656e746044820152606401610c21565b612348816126d3565b600090815260016020526040812055565b600082600001828154811061237057612370613043565b9060005260206000200154905092915050565b6000818152600183016020526040812054801561246c5760006123a7600183613086565b85549091506000906123bb90600190613086565b90508181146124205760008660000182815481106123db576123db613043565b90600052602060002001549050808760000184815481106123fe576123fe613043565b6000918252602080832090910192909255918252600188019052604090208390555b8554869080612431576124316132b2565b600190038181906000526020600020016000905590558560010160008681526020019081526020016000206000905560019350505050610b14565b6000915050610b14565b612480838361277a565b61248d60008484846124f8565b610df15760405162461bcd60e51b8152600401610c2190613249565b60008181526001830160205260408120546124f057508154600181810184556000848152602080822090930184905584548482528286019093526040902091909155610b14565b506000610b14565b60006001600160a01b0384163b156125eb57604051630a85bd0160e11b81526001600160a01b0385169063150b7a029061253c9033908990889088906004016132c8565b6020604051808303816000875af1925050508015612577575060408051601f3d908101601f1916820190925261257491810190613305565b60015b6125d1573d8080156125a5576040519150601f19603f3d011682016040523d82523d6000602084013e6125aa565b606091505b5080516125c95760405162461bcd60e51b8152600401610c2190613249565b805181602001fd5b6001600160e01b031916630a85bd0160e11b149050611a37565b506001949350505050565b60006001600160e01b0319821663780e9d6360e01b1480610b145750610b14826128c8565b6001600160a01b0383166126765761267181600a80546000838152600b60205260408120829055600182018355919091527fc65a7bb8d6351c1cf70c95a316cc6a92839c986682d98bc35f958f4883f9d2a80155565b612699565b816001600160a01b0316836001600160a01b031614612699576126998382612908565b6001600160a01b0382166126b057610df1816129a5565b826001600160a01b0316826001600160a01b031614610df157610df18282612a54565b60006126de826111bd565b90506126ec81600084612198565b6126f76000836118da565b6001600160a01b0381166000908152600560205260408120805460019290612720908490613086565b909155505060008281526004602052604080822080546001600160a01b0319169055518391906001600160a01b038416907fddf252ad1be2c89b69c2b068fc378daa952ba7f163c4a11628f55a4df523b3ef908390a45050565b6001600160a01b0382166127d05760405162461bcd60e51b815260206004820181905260248201527f4552433732313a206d696e7420746f20746865207a65726f20616464726573736044820152606401610c21565b6000818152600460205260409020546001600160a01b0316156128355760405162461bcd60e51b815260206004820152601c60248201527f4552433732313a20746f6b656e20616c7265616479206d696e746564000000006044820152606401610c21565b61284160008383612198565b6001600160a01b038216600090815260056020526040812080546001929061286a90849061309d565b909155505060008181526004602052604080822080546001600160a01b0319166001600160a01b03861690811790915590518392907fddf252ad1be2c89b69c2b068fc378daa952ba7f163c4a11628f55a4df523b3ef908290a45050565b60006001600160e01b031982166380ac58cd60e01b14806128f957506001600160e01b03198216635b5e139f60e01b145b80610b145750610b1482612a98565b60006001612915846113de565b61291f9190613086565b600083815260096020526040902054909150808214612972576001600160a01b03841660009081526008602090815260408083208584528252808320548484528184208190558352600990915290208190555b5060009182526009602090815260408084208490556001600160a01b039094168352600881528383209183525290812055565b600a546000906129b790600190613086565b6000838152600b6020526040812054600a80549394509092849081106129df576129df613043565b9060005260206000200154905080600a8381548110612a0057612a00613043565b6000918252602080832090910192909255828152600b9091526040808220849055858252812055600a805480612a3857612a386132b2565b6001900381819060005260206000200160009055905550505050565b6000612a5f836113de565b6001600160a01b039093166000908152600860209081526040808320868452825280832085905593825260099052919091209190915550565b60006001600160e01b0319821663152a902d60e11b1480610b1457506301ffc9a760e01b6001600160e01b0319831614610b14565b828054612ad990612f5e565b90600052602060002090601f016020900481019282612afb5760008555612b41565b82601f10612b145782800160ff19823516178555612b41565b82800160010185558215612b41579182015b82811115612b41578235825591602001919060010190612b26565b50612b4d929150612b51565b5090565b5b80821115612b4d5760008155600101612b52565b6001600160e01b03198116811461102557600080fd5b600060208284031215612b8e57600080fd5b8135611f5481612b66565b60005b83811015612bb4578181015183820152602001612b9c565b838111156111b75750506000910152565b60008151808452612bdd816020860160208601612b99565b601f01601f19169290920160200192915050565b602081526000611f546020830184612bc5565b600060208284031215612c1657600080fd5b5035919050565b6001600160a01b038116811461102557600080fd5b60008060408385031215612c4557600080fd5b8235612c5081612c1d565b946020939093013593505050565b600080600060608486031215612c7357600080fd5b8335612c7e81612c1d565b92506020840135612c8e81612c1d565b929592945050506040919091013590565b60008060408385031215612cb257600080fd5b50508035926020909101359150565b60008060408385031215612cd457600080fd5b823591506020830135612ce681612c1d565b809150509250929050565b600060208284031215612d0357600080fd5b81356001600160601b0381168114611f5457600080fd5b60008083601f840112612d2c57600080fd5b50813567ffffffffffffffff811115612d4457600080fd5b602083019150836020828501011115610ecf57600080fd5b60008060208385031215612d6f57600080fd5b823567ffffffffffffffff811115612d8657600080fd5b612d9285828601612d1a565b90969095509350505050565b600060208284031215612db057600080fd5b8135611f5481612c1d565b600080600060408486031215612dd057600080fd5b83359250602084013567ffffffffffffffff811115612dee57600080fd5b612dfa86828701612d1a565b9497909650939450505050565b60008060408385031215612e1a57600080fd5b8235612e2581612c1d565b915060208301358015158114612ce657600080fd5b634e487b7160e01b600052604160045260246000fd5b60008060008060808587031215612e6657600080fd5b8435612e7181612c1d565b93506020850135612e8181612c1d565b925060408501359150606085013567ffffffffffffffff80821115612ea557600080fd5b818701915087601f830112612eb957600080fd5b813581811115612ecb57612ecb612e3a565b604051601f8201601f19908116603f01168101908382118183101715612ef357612ef3612e3a565b816040528281528a6020848701011115612f0c57600080fd5b82602086016020830137600060208483010152809550505050505092959194509250565b60008060408385031215612f4357600080fd5b8235612f4e81612c1d565b91506020830135612ce681612c1d565b600181811c90821680612f7257607f821691505b602082108114156113be57634e487b7160e01b600052602260045260246000fd5b60208082526031908201527f4552433732313a207472616e736665722063616c6c6572206973206e6f74206f6040820152701ddb995c881b9bdc88185c1c1c9bdd9959607a1b606082015260800190565b634e487b7160e01b600052601160045260246000fd5b600081600019048311821515161561301457613014612fe4565b500290565b634e487b7160e01b600052601260045260246000fd5b60008261303e5761303e613019565b500490565b634e487b7160e01b600052603260045260246000fd5b60006020828403121561306b57600080fd5b5051919050565b60008261308157613081613019565b500690565b60008282101561309857613098612fe4565b500390565b600082198211156130b0576130b0612fe4565b500190565b60006000198214156130c9576130c9612fe4565b5060010190565b600081516130e2818560208601612b99565b9290920192915050565b600080845481600182811c91508083168061310857607f831692505b602080841082141561312857634e487b7160e01b86526022600452602486fd5b81801561313c576001811461314d5761317a565b60ff1986168952848901965061317a565b60008b81526020902060005b868110156131725781548b820152908501908301613159565b505084890196505b5050505050506131ae61319d61319783602f60f81b815260010190565b866130d0565b64173539b7b760d91b815260050190565b95945050505050565b7f416363657373436f6e74726f6c3a206163636f756e74200000000000000000008152600083516131ef816017850160208801612b99565b7001034b99036b4b9b9b4b733903937b6329607d1b6017918401918201528351613220816028840160208801612b99565b01602801949350505050565b60006020828403121561323e57600080fd5b8151611f5481612c1d565b60208082526032908201527f4552433732313a207472616e7366657220746f206e6f6e20455243373231526560408201527131b2b4bb32b91034b6b83632b6b2b73a32b960711b606082015260800190565b6000816132aa576132aa612fe4565b506000190190565b634e487b7160e01b600052603160045260246000fd5b6001600160a01b03858116825284166020820152604081018390526080606082018190526000906132fb90830184612bc5565b9695505050505050565b60006020828403121561331757600080fd5b8151611f5481612b6656fea2646970667358221220c12565ce6772df5f207029ab6c3aac810e7e80bb60730bfd451827ce7f28188264736f6c634300080c003368747470733a2f2f676174657761792e70696e6174612e636c6f75642f697066732f516d65456b7935615a4e6d6f6731664e646273784143355831436b4b436672666e733374507151387262316b697768747470733a2f2f676174657761792e70696e6174612e636c6f75642f697066732f516d614e754e724d46745a5948365448565a365155347a39586f68663162487536764579314a4342506961446138",
  "linkReferences": {},
  "deployedLinkReferences": {}
}