{
  "_format": "hh-sol-artifact-1",
  "contractName": "Solids",
  "sourceName": "contracts/Solids.sol",
  "abi": [
    {
      "inputs": [
        {
          "internalType": "address",
          "name": "coreAddress",
          "type": "address"
        },
        {
          "internalType": "address",
          "name": "shopAddress",
          "type": "address"
        }
      ],
      "stateMutability": "nonpayable",
      "type": "constructor"
    },
    {
      "anonymous": false,
      "inputs": [
        {
          "indexed": true,
          "internalType": "address",
          "name": "owner",
          "type": "address"
        },
        {
          "indexed": true,
          "internalType": "address",
          "name": "approved",
          "type": "address"
        },
        {
          "indexed": true,
          "internalType": "uint256",
          "name": "tokenId",
          "type": "uint256"
        }
      ],
      "name": "Approval",
      "type": "event"
    },
    {
      "anonymous": false,
      "inputs": [
        {
          "indexed": true,
          "internalType": "address",
          "name": "owner",
          "type": "address"
        },
        {
          "indexed": true,
          "internalType": "address",
          "name": "operator",
          "type": "address"
        },
        {
          "indexed": false,
          "internalType": "bool",
          "name": "approved",
          "type": "bool"
        }
      ],
      "name": "ApprovalForAll",
      "type": "event"
    },
    {
      "anonymous": false,
      "inputs": [
        {
          "indexed": true,
          "internalType": "address",
          "name": "previousOwner",
          "type": "address"
        },
        {
          "indexed": true,
          "internalType": "address",
          "name": "newOwner",
          "type": "address"
        }
      ],
      "name": "OwnershipTransferred",
      "type": "event"
    },
    {
      "anonymous": false,
      "inputs": [
        {
          "indexed": true,
          "internalType": "bytes32",
          "name": "role",
          "type": "bytes32"
        },
        {
          "indexed": true,
          "internalType": "bytes32",
          "name": "previousAdminRole",
          "type": "bytes32"
        },
        {
          "indexed": true,
          "internalType": "bytes32",
          "name": "newAdminRole",
          "type": "bytes32"
        }
      ],
      "name": "RoleAdminChanged",
      "type": "event"
    },
    {
      "anonymous": false,
      "inputs": [
        {
          "indexed": true,
          "internalType": "bytes32",
          "name": "role",
          "type": "bytes32"
        },
        {
          "indexed": true,
          "internalType": "address",
          "name": "account",
          "type": "address"
        },
        {
          "indexed": true,
          "internalType": "address",
          "name": "sender",
          "type": "address"
        }
      ],
      "name": "RoleGranted",
      "type": "event"
    },
    {
      "anonymous": false,
      "inputs": [
        {
          "indexed": true,
          "internalType": "bytes32",
          "name": "role",
          "type": "bytes32"
        },
        {
          "indexed": true,
          "internalType": "address",
          "name": "account",
          "type": "address"
        },
        {
          "indexed": true,
          "internalType": "address",
          "name": "sender",
          "type": "address"
        }
      ],
      "name": "RoleRevoked",
      "type": "event"
    },
    {
      "anonymous": false,
      "inputs": [
        {
          "indexed": true,
          "internalType": "address",
          "name": "from",
          "type": "address"
        },
        {
          "indexed": true,
          "internalType": "address",
          "name": "to",
          "type": "address"
        },
        {
          "indexed": true,
          "internalType": "uint256",
          "name": "tokenId",
          "type": "uint256"
        }
      ],
      "name": "Transfer",
      "type": "event"
    },
    {
      "anonymous": false,
      "inputs": [
        {
          "indexed": false,
          "internalType": "address",
          "name": "_from",
          "type": "address"
        },
        {
          "indexed": false,
          "internalType": "uint256",
          "name": "_amount",
          "type": "uint256"
        }
      ],
      "name": "recievedFunds",
      "type": "event"
    },
    {
      "inputs": [],
      "name": "DEFAULT_ADMIN_ROLE",
      "outputs": [
        {
          "internalType": "bytes32",
          "name": "",
          "type": "bytes32"
        }
      ],
      "stateMutability": "view",
      "type": "function"
    },
    {
      "inputs": [],
      "name": "MINTER_ROLE",
      "outputs": [
        {
          "internalType": "bytes32",
          "name": "",
          "type": "bytes32"
        }
      ],
      "stateMutability": "view",
      "type": "function"
    },
    {
      "inputs": [],
      "name": "TOKEN_LIMIT",
      "outputs": [
        {
          "internalType": "uint256",
          "name": "",
          "type": "uint256"
        }
      ],
      "stateMutability": "view",
      "type": "function"
    },
    {
      "inputs": [],
      "name": "_contractURI",
      "outputs": [
        {
          "internalType": "string",
          "name": "",
          "type": "string"
        }
      ],
      "stateMutability": "view",
      "type": "function"
    },
    {
      "inputs": [],
      "name": "additionalPayee",
      "outputs": [
        {
          "internalType": "address payable",
          "name": "",
          "type": "address"
        }
      ],
      "stateMutability": "view",
      "type": "function"
    },
    {
      "inputs": [
        {
          "internalType": "uint96",
          "name": "_percentage",
          "type": "uint96"
        }
      ],
      "name": "additionalPayeePercent",
      "outputs": [],
      "stateMutability": "nonpayable",
      "type": "function"
    },
    {
      "inputs": [],
      "name": "additionalPayeePercentage",
      "outputs": [
        {
          "internalType": "uint256",
          "name": "",
          "type": "uint256"
        }
      ],
      "stateMutability": "view",
      "type": "function"
    },
    {
      "inputs": [
        {
          "internalType": "uint96",
          "name": "_percentage",
          "type": "uint96"
        }
      ],
      "name": "additionalPayeeRoyaltyPercent",
      "outputs": [],
      "stateMutability": "nonpayable",
      "type": "function"
    },
    {
      "inputs": [],
      "name": "additionalPayeeRoyaltyPercentage",
      "outputs": [
        {
          "internalType": "uint256",
          "name": "",
          "type": "uint256"
        }
      ],
      "stateMutability": "view",
      "type": "function"
    },
    {
      "inputs": [
        {
          "internalType": "address",
          "name": "to",
          "type": "address"
        },
        {
          "internalType": "uint256",
          "name": "tokenId",
          "type": "uint256"
        }
      ],
      "name": "approve",
      "outputs": [],
      "stateMutability": "nonpayable",
      "type": "function"
    },
    {
      "inputs": [],
      "name": "artist",
      "outputs": [
        {
          "internalType": "string",
          "name": "",
          "type": "string"
        }
      ],
      "stateMutability": "view",
      "type": "function"
    },
    {
      "inputs": [],
      "name": "artistAddress",
      "outputs": [
        {
          "internalType": "address payable",
          "name": "",
          "type": "address"
        }
      ],
      "stateMutability": "view",
      "type": "function"
    },
    {
      "inputs": [
        {
          "internalType": "address",
          "name": "owner",
          "type": "address"
        }
      ],
      "name": "balanceOf",
      "outputs": [
        {
          "internalType": "uint256",
          "name": "",
          "type": "uint256"
        }
      ],
      "stateMutability": "view",
      "type": "function"
    },
    {
      "inputs": [],
      "name": "baseURI",
      "outputs": [
        {
          "internalType": "string",
          "name": "",
          "type": "string"
        }
      ],
      "stateMutability": "view",
      "type": "function"
    },
    {
      "inputs": [
        {
          "internalType": "uint256",
          "name": "tokenId",
          "type": "uint256"
        }
      ],
      "name": "burn",
      "outputs": [],
      "stateMutability": "nonpayable",
      "type": "function"
    },
    {
      "inputs": [
        {
          "internalType": "uint256",
          "name": "",
          "type": "uint256"
        }
      ],
      "name": "cache",
      "outputs": [
        {
          "internalType": "uint256",
          "name": "",
          "type": "uint256"
        }
      ],
      "stateMutability": "view",
      "type": "function"
    },
    {
      "inputs": [],
      "name": "checkPool",
      "outputs": [
        {
          "internalType": "uint256",
          "name": "",
          "type": "uint256"
        }
      ],
      "stateMutability": "view",
      "type": "function"
    },
    {
      "inputs": [],
      "name": "contractURI",
      "outputs": [
        {
          "internalType": "string",
          "name": "",
          "type": "string"
        }
      ],
      "stateMutability": "view",
      "type": "function"
    },
    {
      "inputs": [],
      "name": "description",
      "outputs": [
        {
          "internalType": "string",
          "name": "",
          "type": "string"
        }
      ],
      "stateMutability": "view",
      "type": "function"
    },
    {
      "inputs": [],
      "name": "getAdditionalPayee",
      "outputs": [
        {
          "internalType": "address payable",
          "name": "",
          "type": "address"
        }
      ],
      "stateMutability": "view",
      "type": "function"
    },
    {
      "inputs": [],
      "name": "getAdditionalPayeePercentage",
      "outputs": [
        {
          "internalType": "uint256",
          "name": "",
          "type": "uint256"
        }
      ],
      "stateMutability": "view",
      "type": "function"
    },
    {
      "inputs": [
        {
          "internalType": "uint256",
          "name": "tokenId",
          "type": "uint256"
        }
      ],
      "name": "getApproved",
      "outputs": [
        {
          "internalType": "address",
          "name": "",
          "type": "address"
        }
      ],
      "stateMutability": "view",
      "type": "function"
    },
    {
      "inputs": [],
      "name": "getArtistAddress",
      "outputs": [
        {
          "internalType": "address payable",
          "name": "",
          "type": "address"
        }
      ],
      "stateMutability": "view",
      "type": "function"
    },
    {
      "inputs": [
        {
          "internalType": "bytes32",
          "name": "role",
          "type": "bytes32"
        }
      ],
      "name": "getRoleAdmin",
      "outputs": [
        {
          "internalType": "bytes32",
          "name": "",
          "type": "bytes32"
        }
      ],
      "stateMutability": "view",
      "type": "function"
    },
    {
      "inputs": [],
      "name": "getTokenLimit",
      "outputs": [
        {
          "internalType": "uint256",
          "name": "",
          "type": "uint256"
        }
      ],
      "stateMutability": "view",
      "type": "function"
    },
    {
      "inputs": [
        {
          "internalType": "bytes32",
          "name": "role",
          "type": "bytes32"
        },
        {
          "internalType": "address",
          "name": "account",
          "type": "address"
        }
      ],
      "name": "grantRole",
      "outputs": [],
      "stateMutability": "nonpayable",
      "type": "function"
    },
    {
      "inputs": [
        {
          "internalType": "bytes32",
          "name": "role",
          "type": "bytes32"
        },
        {
          "internalType": "address",
          "name": "account",
          "type": "address"
        }
      ],
      "name": "hasRole",
      "outputs": [
        {
          "internalType": "bool",
          "name": "",
          "type": "bool"
        }
      ],
      "stateMutability": "view",
      "type": "function"
    },
    {
      "inputs": [
        {
          "internalType": "address",
          "name": "owner",
          "type": "address"
        },
        {
          "internalType": "address",
          "name": "operator",
          "type": "address"
        }
      ],
      "name": "isApprovedForAll",
      "outputs": [
        {
          "internalType": "bool",
          "name": "",
          "type": "bool"
        }
      ],
      "stateMutability": "view",
      "type": "function"
    },
    {
      "inputs": [],
      "name": "license",
      "outputs": [
        {
          "internalType": "string",
          "name": "",
          "type": "string"
        }
      ],
      "stateMutability": "view",
      "type": "function"
    },
    {
      "inputs": [
        {
          "internalType": "address",
          "name": "to",
          "type": "address"
        }
      ],
      "name": "mint",
      "outputs": [
        {
          "internalType": "uint256",
          "name": "",
          "type": "uint256"
        }
      ],
      "stateMutability": "nonpayable",
      "type": "function"
    },
    {
      "inputs": [
        {
          "internalType": "address",
          "name": "to",
          "type": "address"
        },
        {
          "internalType": "uint256",
          "name": "infiniteId",
          "type": "uint256"
        }
      ],
      "name": "mintBonus",
      "outputs": [
        {
          "internalType": "uint256",
          "name": "bonusId",
          "type": "uint256"
        }
      ],
      "stateMutability": "nonpayable",
      "type": "function"
    },
    {
      "inputs": [],
      "name": "name",
      "outputs": [
        {
          "internalType": "string",
          "name": "",
          "type": "string"
        }
      ],
      "stateMutability": "view",
      "type": "function"
    },
    {
      "inputs": [],
      "name": "owner",
      "outputs": [
        {
          "internalType": "address",
          "name": "",
          "type": "address"
        }
      ],
      "stateMutability": "view",
      "type": "function"
    },
    {
      "inputs": [
        {
          "internalType": "uint256",
          "name": "tokenId",
          "type": "uint256"
        }
      ],
      "name": "ownerOf",
      "outputs": [
        {
          "internalType": "address",
          "name": "",
          "type": "address"
        }
      ],
      "stateMutability": "view",
      "type": "function"
    },
    {
      "inputs": [],
      "name": "pause",
      "outputs": [],
      "stateMutability": "nonpayable",
      "type": "function"
    },
    {
      "inputs": [],
      "name": "paused",
      "outputs": [
        {
          "internalType": "bool",
          "name": "",
          "type": "bool"
        }
      ],
      "stateMutability": "view",
      "type": "function"
    },
    {
      "inputs": [],
      "name": "remaining",
      "outputs": [
        {
          "internalType": "uint256",
          "name": "",
          "type": "uint256"
        }
      ],
      "stateMutability": "view",
      "type": "function"
    },
    {
      "inputs": [],
      "name": "renounceOwnership",
      "outputs": [],
      "stateMutability": "nonpayable",
      "type": "function"
    },
    {
      "inputs": [
        {
          "internalType": "bytes32",
          "name": "role",
          "type": "bytes32"
        },
        {
          "internalType": "address",
          "name": "account",
          "type": "address"
        }
      ],
      "name": "renounceRole",
      "outputs": [],
      "stateMutability": "nonpayable",
      "type": "function"
    },
    {
      "inputs": [
        {
          "internalType": "bytes32",
          "name": "role",
          "type": "bytes32"
        },
        {
          "internalType": "address",
          "name": "account",
          "type": "address"
        }
      ],
      "name": "revokeRole",
      "outputs": [],
      "stateMutability": "nonpayable",
      "type": "function"
    },
    {
      "inputs": [
        {
          "internalType": "uint256",
          "name": "_tokenId",
          "type": "uint256"
        },
        {
          "internalType": "uint256",
          "name": "_salePrice",
          "type": "uint256"
        }
      ],
      "name": "royaltyInfo",
      "outputs": [
        {
          "internalType": "address",
          "name": "",
          "type": "address"
        },
        {
          "internalType": "uint256",
          "name": "",
          "type": "uint256"
        }
      ],
      "stateMutability": "view",
      "type": "function"
    },
    {
      "inputs": [],
      "name": "royaltyPercent",
      "outputs": [
        {
          "internalType": "uint96",
          "name": "",
          "type": "uint96"
        }
      ],
      "stateMutability": "view",
      "type": "function"
    },
    {
      "inputs": [
        {
          "internalType": "address",
          "name": "from",
          "type": "address"
        },
        {
          "internalType": "address",
          "name": "to",
          "type": "address"
        },
        {
          "internalType": "uint256",
          "name": "tokenId",
          "type": "uint256"
        }
      ],
      "name": "safeTransferFrom",
      "outputs": [],
      "stateMutability": "nonpayable",
      "type": "function"
    },
    {
      "inputs": [
        {
          "internalType": "address",
          "name": "from",
          "type": "address"
        },
        {
          "internalType": "address",
          "name": "to",
          "type": "address"
        },
        {
          "internalType": "uint256",
          "name": "tokenId",
          "type": "uint256"
        },
        {
          "internalType": "bytes",
          "name": "_data",
          "type": "bytes"
        }
      ],
      "name": "safeTransferFrom",
      "outputs": [],
      "stateMutability": "nonpayable",
      "type": "function"
    },
    {
      "inputs": [
        {
          "internalType": "address",
          "name": "operator",
          "type": "address"
        },
        {
          "internalType": "bool",
          "name": "approved",
          "type": "bool"
        }
      ],
      "name": "setApprovalForAll",
      "outputs": [],
      "stateMutability": "nonpayable",
      "type": "function"
    },
    {
      "inputs": [
        {
          "internalType": "string",
          "name": "_uri",
          "type": "string"
        }
      ],
      "name": "setBaseURI",
      "outputs": [],
      "stateMutability": "nonpayable",
      "type": "function"
    },
    {
      "inputs": [
        {
          "internalType": "string",
          "name": "_uri",
          "type": "string"
        }
      ],
      "name": "setContractURI",
      "outputs": [],
      "stateMutability": "nonpayable",
      "type": "function"
    },
    {
      "inputs": [
        {
          "internalType": "string",
          "name": "_desc",
          "type": "string"
        }
      ],
      "name": "setDescription",
      "outputs": [],
      "stateMutability": "nonpayable",
      "type": "function"
    },
    {
      "inputs": [
        {
          "internalType": "uint96",
          "name": "_percentage",
          "type": "uint96"
        }
      ],
      "name": "setRoyaltyPercent",
      "outputs": [],
      "stateMutability": "nonpayable",
      "type": "function"
    },
    {
      "inputs": [
        {
          "internalType": "string",
          "name": "_url",
          "type": "string"
        }
      ],
      "name": "setWebsite",
      "outputs": [],
      "stateMutability": "nonpayable",
      "type": "function"
    },
    {
      "inputs": [
        {
          "internalType": "bytes4",
          "name": "interfaceId",
          "type": "bytes4"
        }
      ],
      "name": "supportsInterface",
      "outputs": [
        {
          "internalType": "bool",
          "name": "",
          "type": "bool"
        }
      ],
      "stateMutability": "view",
      "type": "function"
    },
    {
      "inputs": [],
      "name": "symbol",
      "outputs": [
        {
          "internalType": "string",
          "name": "",
          "type": "string"
        }
      ],
      "stateMutability": "view",
      "type": "function"
    },
    {
      "inputs": [
        {
          "internalType": "uint256",
          "name": "index",
          "type": "uint256"
        }
      ],
      "name": "tokenByIndex",
      "outputs": [
        {
          "internalType": "uint256",
          "name": "",
          "type": "uint256"
        }
      ],
      "stateMutability": "view",
      "type": "function"
    },
    {
      "inputs": [
        {
          "internalType": "address",
          "name": "owner",
          "type": "address"
        },
        {
          "internalType": "uint256",
          "name": "index",
          "type": "uint256"
        }
      ],
      "name": "tokenOfOwnerByIndex",
      "outputs": [
        {
          "internalType": "uint256",
          "name": "",
          "type": "uint256"
        }
      ],
      "stateMutability": "view",
      "type": "function"
    },
    {
      "inputs": [
        {
          "internalType": "uint256",
          "name": "tokenId",
          "type": "uint256"
        }
      ],
      "name": "tokenURI",
      "outputs": [
        {
          "internalType": "string",
          "name": "",
          "type": "string"
        }
      ],
      "stateMutability": "view",
      "type": "function"
    },
    {
      "inputs": [],
      "name": "totalSupply",
      "outputs": [
        {
          "internalType": "uint256",
          "name": "",
          "type": "uint256"
        }
      ],
      "stateMutability": "view",
      "type": "function"
    },
    {
      "inputs": [
        {
          "internalType": "address",
          "name": "from",
          "type": "address"
        },
        {
          "internalType": "address",
          "name": "to",
          "type": "address"
        },
        {
          "internalType": "uint256",
          "name": "tokenId",
          "type": "uint256"
        }
      ],
      "name": "transferFrom",
      "outputs": [],
      "stateMutability": "nonpayable",
      "type": "function"
    },
    {
      "inputs": [
        {
          "internalType": "address",
          "name": "newOwner",
          "type": "address"
        }
      ],
      "name": "transferOwnership",
      "outputs": [],
      "stateMutability": "nonpayable",
      "type": "function"
    },
    {
      "inputs": [],
      "name": "unpause",
      "outputs": [],
      "stateMutability": "nonpayable",
      "type": "function"
    },
    {
      "inputs": [],
      "name": "website",
      "outputs": [
        {
          "internalType": "string",
          "name": "",
          "type": "string"
        }
      ],
      "stateMutability": "view",
      "type": "function"
    },
    {
      "inputs": [],
      "name": "withdraw",
      "outputs": [],
      "stateMutability": "nonpayable",
      "type": "function"
    },
    {
      "stateMutability": "payable",
      "type": "receive"
    }
  ],
  "bytecode": "0x600e805460ff60a01b191690556122b8600f55601280546001600160a01b03199081167370f2d7fa5fae142e1af7a95b4d48a9c8e417813d1790915560138054909116905560006014819055601555601680546001600160601b03191661119417905560e06040526035608081815290620039b160a03980516200008c91601791602090910190620004b9565b50604051806060016040528060358152602001620039e6603591398051620000bd91601891602090910190620004b9565b50604080518082019091526003808252622320a960e91b6020909201918252620000ea91601991620004b9565b506040518060e0016040528060a481526020016200390d60a4913980516200011b91601a91602090910190620004b9565b506040805180820190915260148082527f68747470733a2f2f66696e652e6469676974616c00000000000000000000000060209092019182526200016291601b91620004b9565b506040805180820190915260038082526213525560ea1b60209092019182526200018f91601c91620004b9565b503480156200019d57600080fd5b5060405162003a1b38038062003a1b833981016040819052620001c0916200057c565b6040805180820182526006815265534f4c49445360d01b60208083019182528351808501909452600584526414d3d3125160da1b9084015281519192916200020b91600291620004b9565b50805162000221906003906020840190620004b9565b5050506200023e62000238620002b960201b60201c565b620002bd565b6200024b6000336200030f565b620002777f9f2df0fed2c77648de5860a4cc508cd0818c85b8b8a1ab4ceeef8d981c8956a6826200030f565b600e80546001600160a01b0319166001600160a01b038416179055601654620002ab9030906001600160601b0316620003b4565b5050600f54601055620005f1565b3390565b600d80546001600160a01b038381166001600160a01b0319831681179093556040519116919082907f8be0079c531659141344cd1fd0a4f28419497f9722a3daafe3b4186f6b6457e090600090a35050565b6000828152600c602090815260408083206001600160a01b038516845290915290205460ff16620003b0576000828152600c602090815260408083206001600160a01b03851684529091529020805460ff191660011790556200036f3390565b6001600160a01b0316816001600160a01b0316837f2f8788117e7eff1d82e926ec794901d17c78024a50270940304540a733656f0d60405160405180910390a45b5050565b6127106001600160601b0382161115620004285760405162461bcd60e51b815260206004820152602a60248201527f455243323938313a20726f79616c7479206665652077696c6c206578636565646044820152692073616c65507269636560b01b60648201526084015b60405180910390fd5b6001600160a01b038216620004805760405162461bcd60e51b815260206004820152601960248201527f455243323938313a20696e76616c69642072656365697665720000000000000060448201526064016200041f565b604080518082019091526001600160a01b039092168083526001600160601b039091166020909201829052600160a01b90910217600055565b828054620004c790620005b4565b90600052602060002090601f016020900481019282620004eb576000855562000536565b82601f106200050657805160ff191683800117855562000536565b8280016001018555821562000536579182015b828111156200053657825182559160200191906001019062000519565b506200054492915062000548565b5090565b5b8082111562000544576000815560010162000549565b80516001600160a01b03811681146200057757600080fd5b919050565b600080604083850312156200059057600080fd5b6200059b836200055f565b9150620005ab602084016200055f565b90509250929050565b600181811c90821680620005c957607f821691505b60208210811415620005eb57634e487b7160e01b600052602260045260246000fd5b50919050565b61330c80620006016000396000f3fe6080604052600436106103a65760003560e01c80636b87d24c116101e7578063a217fddf1161010d578063d7eb3f3a116100a0578063ea099ad91161006f578063ea099ad914610afc578063f2fde38b14610b12578063f87f44b914610b32578063f9f3bfd814610b5257600080fd5b8063d7eb3f3a14610a5e578063d9a7c61d14610a7e578063e8a3d48514610a9e578063e985e9c514610ab357600080fd5b8063c0e72740116100dc578063c0e72740146109d5578063c87b56dd146109ea578063d539139314610a0a578063d547741f14610a3e57600080fd5b8063a217fddf1461096b578063a22cb46514610980578063b88d4fde146109a0578063beb0a416146109c057600080fd5b8063867644d91161018557806391d148541161015457806391d14854146108de578063938e3d7b146108fe57806395d89b411461091e5780639f67756d1461093357600080fd5b8063867644d9146108625780638cbe8d80146108825780638da5cb5b146108a057806390c3f38f146108be57600080fd5b806370a08231116101c157806370a0823114610803578063715018a6146108235780637284e416146108385780638456cb591461084d57600080fd5b80636b87d24c146107bb5780636c0360eb146107d05780636ff314c7146107e557600080fd5b80633ccfd60b116102cc5780634bc46a821161026a57806359748cb21161023957806359748cb21461073a5780635c975abb1461075a5780636352211e1461077b5780636a6278421461079b57600080fd5b80634bc46a82146106c45780634f6ccce7146106e457806355234ec01461070457806355f804b31461071a57600080fd5b806342842e0e116102a657806342842e0e1461065a57806342966c681461067a57806343bc16121461069a5780634771218a146106af57600080fd5b80633ccfd60b1461061a5780633f4ba83a1461062f57806340138ff11461064457600080fd5b806323b872dd116103445780632cc88974116103135780632cc88974146105a55780632f2ff15d146105ba5780632f745c59146105da57806336568abe146105fa57600080fd5b806323b872dd14610501578063248a9ca31461052157806328485586146105515780632a55205a1461056657600080fd5b8063081812fc11610380578063081812fc14610465578063095ea7b31461049d57806317bf72c6146104bf57806318160ddd146104ec57600080fd5b806301ffc9a7146103ea578063031bd4c41461041f57806306fdde031461044357600080fd5b366103e557604080513381523460208201527ffb5cb5fc5900f14be0f619816129d1490c275a13734b28ae77072a2f5d676f57910160405180910390a1005b600080fd5b3480156103f657600080fd5b5061040a610405366004612b59565b610b72565b60405190151581526020015b60405180910390f35b34801561042b57600080fd5b50610435600f5481565b604051908152602001610416565b34801561044f57600080fd5b50610458610b83565b6040516104169190612bce565b34801561047157600080fd5b50610485610480366004612be1565b610c15565b6040516001600160a01b039091168152602001610416565b3480156104a957600080fd5b506104bd6104b8366004612c0f565b610caf565b005b3480156104cb57600080fd5b506104356104da366004612be1565b60116020526000908152604090205481565b3480156104f857600080fd5b50600a54610435565b34801561050d57600080fd5b506104bd61051c366004612c3b565b610dc5565b34801561052d57600080fd5b5061043561053c366004612be1565b6000908152600c602052604090206001015490565b34801561055d57600080fd5b50600f54610435565b34801561057257600080fd5b50610586610581366004612c7c565b610df7565b604080516001600160a01b039093168352602083019190915201610416565b3480156105b157600080fd5b50601454610435565b3480156105c657600080fd5b506104bd6105d5366004612c9e565b610ea3565b3480156105e657600080fd5b506104356105f5366004612c0f565b610ec9565b34801561060657600080fd5b506104bd610615366004612c9e565b610f5f565b34801561062657600080fd5b506104bd610fdd565b34801561063b57600080fd5b506104bd611012565b34801561065057600080fd5b5061043560145481565b34801561066657600080fd5b506104bd610675366004612c3b565b61104b565b34801561068657600080fd5b506104bd610695366004612be1565b611066565b3480156106a657600080fd5b506104586110e0565b3480156106bb57600080fd5b50601054610435565b3480156106d057600080fd5b506104bd6106df366004612cce565b61116e565b3480156106f057600080fd5b506104356106ff366004612be1565b6111bf565b34801561071057600080fd5b5061043560105481565b34801561072657600080fd5b506104bd610735366004612cf7565b611252565b34801561074657600080fd5b50601354610485906001600160a01b031681565b34801561076657600080fd5b50600e5461040a90600160a01b900460ff1681565b34801561078757600080fd5b50610485610796366004612be1565b611288565b3480156107a757600080fd5b506104356107b6366004612d69565b6112ff565b3480156107c757600080fd5b506104586113dc565b3480156107dc57600080fd5b506104586113e9565b3480156107f157600080fd5b506013546001600160a01b0316610485565b34801561080f57600080fd5b5061043561081e366004612d69565b6113f6565b34801561082f57600080fd5b506104bd61147d565b34801561084457600080fd5b506104586114b1565b34801561085957600080fd5b506104bd6114be565b34801561086e57600080fd5b506104bd61087d366004612cce565b6114fd565b34801561088e57600080fd5b506012546001600160a01b0316610485565b3480156108ac57600080fd5b50600d546001600160a01b0316610485565b3480156108ca57600080fd5b506104bd6108d9366004612cf7565b611535565b3480156108ea57600080fd5b5061040a6108f9366004612c9e565b61156b565b34801561090a57600080fd5b506104bd610919366004612cf7565b611596565b34801561092a57600080fd5b506104586115cc565b34801561093f57600080fd5b50601654610953906001600160601b031681565b6040516001600160601b039091168152602001610416565b34801561097757600080fd5b50610435600081565b34801561098c57600080fd5b506104bd61099b366004612d86565b6115db565b3480156109ac57600080fd5b506104bd6109bb366004612dcf565b6115e6565b3480156109cc57600080fd5b5061045861161e565b3480156109e157600080fd5b5061045861162b565b3480156109f657600080fd5b50610458610a05366004612be1565b611638565b348015610a1657600080fd5b506104357f9f2df0fed2c77648de5860a4cc508cd0818c85b8b8a1ab4ceeef8d981c8956a681565b348015610a4a57600080fd5b506104bd610a59366004612c9e565b61166c565b348015610a6a57600080fd5b50601254610485906001600160a01b031681565b348015610a8a57600080fd5b50610435610a99366004612c0f565b611692565b348015610aaa57600080fd5b50610458611786565b348015610abf57600080fd5b5061040a610ace366004612eaf565b6001600160a01b03918216600090815260076020908152604080832093909416825291909152205460ff1690565b348015610b0857600080fd5b5061043560155481565b348015610b1e57600080fd5b506104bd610b2d366004612d69565b611795565b348015610b3e57600080fd5b506104bd610b4d366004612cf7565b61182d565b348015610b5e57600080fd5b506104bd610b6d366004612cce565b611863565b6000610b7d8261189b565b92915050565b606060028054610b9290612edd565b80601f0160208091040260200160405190810160405280929190818152602001828054610bbe90612edd565b8015610c0b5780601f10610be057610100808354040283529160200191610c0b565b820191906000526020600020905b815481529060010190602001808311610bee57829003601f168201915b5050505050905090565b6000818152600460205260408120546001600160a01b0316610c935760405162461bcd60e51b815260206004820152602c60248201527f4552433732313a20617070726f76656420717565727920666f72206e6f6e657860448201526b34b9ba32b73a103a37b5b2b760a11b60648201526084015b60405180910390fd5b506000908152600660205260409020546001600160a01b031690565b6000610cba82611288565b9050806001600160a01b0316836001600160a01b03161415610d285760405162461bcd60e51b815260206004820152602160248201527f4552433732313a20617070726f76616c20746f2063757272656e74206f776e656044820152603960f91b6064820152608401610c8a565b336001600160a01b0382161480610d445750610d448133610ace565b610db65760405162461bcd60e51b815260206004820152603860248201527f4552433732313a20617070726f76652063616c6c6572206973206e6f74206f7760448201527f6e6572206e6f7220617070726f76656420666f7220616c6c00000000000000006064820152608401610c8a565b610dc083836118c0565b505050565b610dd0335b8261192e565b610dec5760405162461bcd60e51b8152600401610c8a90612f12565b610dc0838383611a25565b60008281526001602090815260408083208151808301909252546001600160a01b038116808352600160a01b9091046001600160601b0316928201929092528291610e6c5750604080518082019091526000546001600160a01b0381168252600160a01b90046001600160601b031660208201525b602081015160009061271090610e8b906001600160601b031687612f79565b610e959190612fae565b915196919550909350505050565b6000828152600c6020526040902060010154610ebf8133611bcc565b610dc08383611c30565b6000610ed4836113f6565b8210610f365760405162461bcd60e51b815260206004820152602b60248201527f455243373231456e756d657261626c653a206f776e657220696e646578206f7560448201526a74206f6620626f756e647360a81b6064820152608401610c8a565b506001600160a01b03919091166000908152600860209081526040808320938352929052205490565b6001600160a01b0381163314610fcf5760405162461bcd60e51b815260206004820152602f60248201527f416363657373436f6e74726f6c3a2063616e206f6e6c792072656e6f756e636560448201526e103937b632b9903337b91039b2b63360891b6064820152608401610c8a565b610fd98282611cb6565b5050565b600d546001600160a01b031633146110075760405162461bcd60e51b8152600401610c8a90612fc2565b61101047611d1d565b565b600d546001600160a01b0316331461103c5760405162461bcd60e51b8152600401610c8a90612fc2565b600e805460ff60a01b19169055565b610dc0838383604051806020016040528060008152506115e6565b61106f33610dca565b6110d45760405162461bcd60e51b815260206004820152603060248201527f4552433732314275726e61626c653a2063616c6c6572206973206e6f74206f7760448201526f1b995c881b9bdc88185c1c1c9bdd995960821b6064820152608401610c8a565b6110dd81611f16565b50565b601980546110ed90612edd565b80601f016020809104026020016040519081016040528092919081815260200182805461111990612edd565b80156111665780601f1061113b57610100808354040283529160200191611166565b820191906000526020600020905b81548152906001019060200180831161114957829003601f168201915b505050505081565b600d546001600160a01b031633146111985760405162461bcd60e51b8152600401610c8a90612fc2565b601680546bffffffffffffffffffffffff19166001600160601b0392909216919091179055565b60006111ca600a5490565b821061122d5760405162461bcd60e51b815260206004820152602c60248201527f455243373231456e756d657261626c653a20676c6f62616c20696e646578206f60448201526b7574206f6620626f756e647360a01b6064820152608401610c8a565b600a828154811061124057611240612ff7565b90600052602060002001549050919050565b600d546001600160a01b0316331461127c5760405162461bcd60e51b8152600401610c8a90612fc2565b610dc060188383612aaa565b6000818152600460205260408120546001600160a01b031680610b7d5760405162461bcd60e51b815260206004820152602960248201527f4552433732313a206f776e657220717565727920666f72206e6f6e657869737460448201526832b73a103a37b5b2b760b91b6064820152608401610c8a565b60007f9f2df0fed2c77648de5860a4cc508cd0818c85b8b8a1ab4ceeef8d981c8956a661132c8133611bcc565b600e54600160a01b900460ff16156113775760405162461bcd60e51b815260206004820152600e60248201526d1b5a5b9d1a5b99c81c185d5cd95960921b6044820152606401610c8a565b6000601054116113bd5760405162461bcd60e51b8152602060048201526011602482015270185b1b081d1bdad95b9cc81b5a5b9d1959607a1b6044820152606401610c8a565b60006113c7611f1f565b90506113d38482612063565b91505b50919050565b601c80546110ed90612edd565b601880546110ed90612edd565b60006001600160a01b0382166114615760405162461bcd60e51b815260206004820152602a60248201527f4552433732313a2062616c616e636520717565727920666f7220746865207a65604482015269726f206164647265737360b01b6064820152608401610c8a565b506001600160a01b031660009081526005602052604090205490565b600d546001600160a01b031633146114a75760405162461bcd60e51b8152600401610c8a90612fc2565b611010600061207d565b601a80546110ed90612edd565b600d546001600160a01b031633146114e85760405162461bcd60e51b8152600401610c8a90612fc2565b600e805460ff60a01b1916600160a01b179055565b600d546001600160a01b031633146115275760405162461bcd60e51b8152600401610c8a90612fc2565b6001600160601b0316601555565b600d546001600160a01b0316331461155f5760405162461bcd60e51b8152600401610c8a90612fc2565b610dc0601a8383612aaa565b6000918252600c602090815260408084206001600160a01b0393909316845291905290205460ff1690565b600d546001600160a01b031633146115c05760405162461bcd60e51b8152600401610c8a90612fc2565b610dc060178383612aaa565b606060038054610b9290612edd565b610fd93383836120cf565b6115f0338361192e565b61160c5760405162461bcd60e51b8152600401610c8a90612f12565b6116188484848461219e565b50505050565b601b80546110ed90612edd565b601780546110ed90612edd565b60606018611645836121d1565b604051602001611656929190613029565b6040516020818303038152906040529050919050565b6000828152600c60205260409020600101546116888133611bcc565b610dc08383611cb6565b60007f9f2df0fed2c77648de5860a4cc508cd0818c85b8b8a1ab4ceeef8d981c8956a66116bf8133611bcc565b600e54600160a01b900460ff161561170a5760405162461bcd60e51b815260206004820152600e60248201526d1b5a5b9d1a5b99c81c185d5cd95960921b6044820152606401610c8a565b611716836127106130f4565b6000818152600460205260409020549092506001600160a01b0316156117755760405162461bcd60e51b8152602060048201526014602482015273151bdad95b88185b1c9958591e481b5a5b9d195960621b6044820152606401610c8a565b61177f8483612063565b5092915050565b606060178054610b9290612edd565b600d546001600160a01b031633146117bf5760405162461bcd60e51b8152600401610c8a90612fc2565b6001600160a01b0381166118245760405162461bcd60e51b815260206004820152602660248201527f4f776e61626c653a206e6577206f776e657220697320746865207a65726f206160448201526564647265737360d01b6064820152608401610c8a565b6110dd8161207d565b600d546001600160a01b031633146118575760405162461bcd60e51b8152600401610c8a90612fc2565b610dc0601b8383612aaa565b600d546001600160a01b0316331461188d5760405162461bcd60e51b8152600401610c8a90612fc2565b6001600160601b0316601455565b60006001600160e01b03198216637965db0b60e01b1480610b7d5750610b7d826122cf565b600081815260066020526040902080546001600160a01b0319166001600160a01b03841690811790915581906118f582611288565b6001600160a01b03167f8c5be1e5ebec7d5bd14f71427d1e84f3dd0314c0f7b2291e5b200ac8c7c3b92560405160405180910390a45050565b6000818152600460205260408120546001600160a01b03166119a75760405162461bcd60e51b815260206004820152602c60248201527f4552433732313a206f70657261746f7220717565727920666f72206e6f6e657860448201526b34b9ba32b73a103a37b5b2b760a11b6064820152608401610c8a565b60006119b283611288565b9050806001600160a01b0316846001600160a01b031614806119ed5750836001600160a01b03166119e284610c15565b6001600160a01b0316145b80611a1d57506001600160a01b0380821660009081526007602090815260408083209388168352929052205460ff165b949350505050565b826001600160a01b0316611a3882611288565b6001600160a01b031614611a9c5760405162461bcd60e51b815260206004820152602560248201527f4552433732313a207472616e736665722066726f6d20696e636f72726563742060448201526437bbb732b960d91b6064820152608401610c8a565b6001600160a01b038216611afe5760405162461bcd60e51b8152602060048201526024808201527f4552433732313a207472616e7366657220746f20746865207a65726f206164646044820152637265737360e01b6064820152608401610c8a565b611b098383836122da565b611b146000826118c0565b6001600160a01b0383166000908152600560205260408120805460019290611b3d90849061310c565b90915550506001600160a01b0382166000908152600560205260408120805460019290611b6b9084906130f4565b909155505060008181526004602052604080822080546001600160a01b0319166001600160a01b0386811691821790925591518493918716917fddf252ad1be2c89b69c2b068fc378daa952ba7f163c4a11628f55a4df523b3ef91a4505050565b611bd6828261156b565b610fd957611bee816001600160a01b031660146122e5565b611bf98360206122e5565b604051602001611c0a929190613123565b60408051601f198184030181529082905262461bcd60e51b8252610c8a91600401612bce565b611c3a828261156b565b610fd9576000828152600c602090815260408083206001600160a01b03851684529091529020805460ff19166001179055611c723390565b6001600160a01b0316816001600160a01b0316837f2f8788117e7eff1d82e926ec794901d17c78024a50270940304540a733656f0d60405160405180910390a45050565b611cc0828261156b565b15610fd9576000828152600c602090815260408083206001600160a01b0385168085529252808320805460ff1916905551339285917ff6391f5c32d9c69d2a47ea670b442974b53935d1edc7fd64eb21e047a839171b9190a45050565b80156110dd576000612710600e60009054906101000a90046001600160a01b03166001600160a01b031663d672131b6040518163ffffffff1660e01b81526004016020604051808303816000875af1158015611d7d573d6000803e3d6000fd5b505050506040513d601f19601f82011682018060405250810190611da19190613198565b611dab9084612f79565b611db59190612fae565b9050600e60009054906101000a90046001600160a01b03166001600160a01b0316637dafc0d36040518163ffffffff1660e01b81526004016020604051808303816000875af1158015611e0c573d6000803e3d6000fd5b505050506040513d601f19601f82011682018060405250810190611e3091906131b1565b6001600160a01b03166108fc829081150290604051600060405180830381858888f19350505050158015611e68573d6000803e3d6000fd5b50600061271060155484611e7c9190612f79565b611e869190612fae565b90508015611eca576013546040516001600160a01b039091169082156108fc029083906000818181858888f19350505050158015611ec8573d6000803e3d6000fd5b505b6012546001600160a01b03166108fc82611ee4858761310c565b611eee919061310c565b6040518115909202916000818181858888f19350505050158015611618573d6000803e3d6000fd5b6110dd81612488565b600e546010546040516329e5d83160e01b8152600481019190915242602482015260009182916001600160a01b03909116906329e5d83190604401602060405180830381865afa158015611f77573d6000803e3d6000fd5b505050506040513d601f19601f82011682018060405250810190611f9b9190613198565b9050600060105482611fad91906131ce565b60008181526011602052604090205490915015611fd857600081815260116020526040902054611fda565b805b9250601160006001601054611fef919061310c565b81526020019081526020016000205460001461202c57601160006001601054612018919061310c565b81526020019081526020016000205461203b565b600160105461203b919061310c565b6000828152601160205260409020556010546120599060019061310c565b6010555090919050565b610fd98282604051806020016040528060008152506124a2565b600d80546001600160a01b038381166001600160a01b0319831681179093556040519116919082907f8be0079c531659141344cd1fd0a4f28419497f9722a3daafe3b4186f6b6457e090600090a35050565b816001600160a01b0316836001600160a01b031614156121315760405162461bcd60e51b815260206004820152601960248201527f4552433732313a20617070726f766520746f2063616c6c6572000000000000006044820152606401610c8a565b6001600160a01b03838116600081815260076020908152604080832094871680845294825291829020805460ff191686151590811790915591519182527f17307eab39ab6107e8899845ad3d59bd9653f200f220920489ca2b5937696c31910160405180910390a3505050565b6121a9848484611a25565b6121b5848484846124d5565b6116185760405162461bcd60e51b8152600401610c8a906131e2565b6060816121f55750506040805180820190915260018152600360fc1b602082015290565b8160005b811561221f578061220981613234565b91506122189050600a83612fae565b91506121f9565b60008167ffffffffffffffff81111561223a5761223a612db9565b6040519080825280601f01601f191660200182016040528015612264576020820181803683370190505b5090505b8415611a1d5761227960018361310c565b9150612286600a866131ce565b6122919060306130f4565b60f81b8183815181106122a6576122a6612ff7565b60200101906001600160f81b031916908160001a9053506122c8600a86612fae565b9450612268565b6000610b7d826125d3565b610dc08383836125f8565b606060006122f4836002612f79565b6122ff9060026130f4565b67ffffffffffffffff81111561231757612317612db9565b6040519080825280601f01601f191660200182016040528015612341576020820181803683370190505b509050600360fc1b8160008151811061235c5761235c612ff7565b60200101906001600160f81b031916908160001a905350600f60fb1b8160018151811061238b5761238b612ff7565b60200101906001600160f81b031916908160001a90535060006123af846002612f79565b6123ba9060016130f4565b90505b6001811115612432576f181899199a1a9b1b9c1cb0b131b232b360811b85600f16601081106123ee576123ee612ff7565b1a60f81b82828151811061240457612404612ff7565b60200101906001600160f81b031916908160001a90535060049490941c9361242b8161324f565b90506123bd565b5083156124815760405162461bcd60e51b815260206004820181905260248201527f537472696e67733a20686578206c656e67746820696e73756666696369656e746044820152606401610c8a565b9392505050565b612491816126b0565b600090815260016020526040812055565b6124ac8383612757565b6124b960008484846124d5565b610dc05760405162461bcd60e51b8152600401610c8a906131e2565b60006001600160a01b0384163b156125c857604051630a85bd0160e11b81526001600160a01b0385169063150b7a0290612519903390899088908890600401613266565b6020604051808303816000875af1925050508015612554575060408051601f3d908101601f19168201909252612551918101906132a3565b60015b6125ae573d808015612582576040519150601f19603f3d011682016040523d82523d6000602084013e612587565b606091505b5080516125a65760405162461bcd60e51b8152600401610c8a906131e2565b805181602001fd5b6001600160e01b031916630a85bd0160e11b149050611a1d565b506001949350505050565b60006001600160e01b0319821663780e9d6360e01b1480610b7d5750610b7d826128a5565b6001600160a01b0383166126535761264e81600a80546000838152600b60205260408120829055600182018355919091527fc65a7bb8d6351c1cf70c95a316cc6a92839c986682d98bc35f958f4883f9d2a80155565b612676565b816001600160a01b0316836001600160a01b0316146126765761267683826128e5565b6001600160a01b03821661268d57610dc081612982565b826001600160a01b0316826001600160a01b031614610dc057610dc08282612a31565b60006126bb82611288565b90506126c9816000846122da565b6126d46000836118c0565b6001600160a01b03811660009081526005602052604081208054600192906126fd90849061310c565b909155505060008281526004602052604080822080546001600160a01b0319169055518391906001600160a01b038416907fddf252ad1be2c89b69c2b068fc378daa952ba7f163c4a11628f55a4df523b3ef908390a45050565b6001600160a01b0382166127ad5760405162461bcd60e51b815260206004820181905260248201527f4552433732313a206d696e7420746f20746865207a65726f20616464726573736044820152606401610c8a565b6000818152600460205260409020546001600160a01b0316156128125760405162461bcd60e51b815260206004820152601c60248201527f4552433732313a20746f6b656e20616c7265616479206d696e746564000000006044820152606401610c8a565b61281e600083836122da565b6001600160a01b03821660009081526005602052604081208054600192906128479084906130f4565b909155505060008181526004602052604080822080546001600160a01b0319166001600160a01b03861690811790915590518392907fddf252ad1be2c89b69c2b068fc378daa952ba7f163c4a11628f55a4df523b3ef908290a45050565b60006001600160e01b031982166380ac58cd60e01b14806128d657506001600160e01b03198216635b5e139f60e01b145b80610b7d5750610b7d82612a75565b600060016128f2846113f6565b6128fc919061310c565b60008381526009602052604090205490915080821461294f576001600160a01b03841660009081526008602090815260408083208584528252808320548484528184208190558352600990915290208190555b5060009182526009602090815260408084208490556001600160a01b039094168352600881528383209183525290812055565b600a546000906129949060019061310c565b6000838152600b6020526040812054600a80549394509092849081106129bc576129bc612ff7565b9060005260206000200154905080600a83815481106129dd576129dd612ff7565b6000918252602080832090910192909255828152600b9091526040808220849055858252812055600a805480612a1557612a156132c0565b6001900381819060005260206000200160009055905550505050565b6000612a3c836113f6565b6001600160a01b039093166000908152600860209081526040808320868452825280832085905593825260099052919091209190915550565b60006001600160e01b0319821663152a902d60e11b1480610b7d57506301ffc9a760e01b6001600160e01b0319831614610b7d565b828054612ab690612edd565b90600052602060002090601f016020900481019282612ad85760008555612b1e565b82601f10612af15782800160ff19823516178555612b1e565b82800160010185558215612b1e579182015b82811115612b1e578235825591602001919060010190612b03565b50612b2a929150612b2e565b5090565b5b80821115612b2a5760008155600101612b2f565b6001600160e01b0319811681146110dd57600080fd5b600060208284031215612b6b57600080fd5b813561248181612b43565b60005b83811015612b91578181015183820152602001612b79565b838111156116185750506000910152565b60008151808452612bba816020860160208601612b76565b601f01601f19169290920160200192915050565b6020815260006124816020830184612ba2565b600060208284031215612bf357600080fd5b5035919050565b6001600160a01b03811681146110dd57600080fd5b60008060408385031215612c2257600080fd5b8235612c2d81612bfa565b946020939093013593505050565b600080600060608486031215612c5057600080fd5b8335612c5b81612bfa565b92506020840135612c6b81612bfa565b929592945050506040919091013590565b60008060408385031215612c8f57600080fd5b50508035926020909101359150565b60008060408385031215612cb157600080fd5b823591506020830135612cc381612bfa565b809150509250929050565b600060208284031215612ce057600080fd5b81356001600160601b038116811461248157600080fd5b60008060208385031215612d0a57600080fd5b823567ffffffffffffffff80821115612d2257600080fd5b818501915085601f830112612d3657600080fd5b813581811115612d4557600080fd5b866020828501011115612d5757600080fd5b60209290920196919550909350505050565b600060208284031215612d7b57600080fd5b813561248181612bfa565b60008060408385031215612d9957600080fd5b8235612da481612bfa565b915060208301358015158114612cc357600080fd5b634e487b7160e01b600052604160045260246000fd5b60008060008060808587031215612de557600080fd5b8435612df081612bfa565b93506020850135612e0081612bfa565b925060408501359150606085013567ffffffffffffffff80821115612e2457600080fd5b818701915087601f830112612e3857600080fd5b813581811115612e4a57612e4a612db9565b604051601f8201601f19908116603f01168101908382118183101715612e7257612e72612db9565b816040528281528a6020848701011115612e8b57600080fd5b82602086016020830137600060208483010152809550505050505092959194509250565b60008060408385031215612ec257600080fd5b8235612ecd81612bfa565b91506020830135612cc381612bfa565b600181811c90821680612ef157607f821691505b602082108114156113d657634e487b7160e01b600052602260045260246000fd5b60208082526031908201527f4552433732313a207472616e736665722063616c6c6572206973206e6f74206f6040820152701ddb995c881b9bdc88185c1c1c9bdd9959607a1b606082015260800190565b634e487b7160e01b600052601160045260246000fd5b6000816000190483118215151615612f9357612f93612f63565b500290565b634e487b7160e01b600052601260045260246000fd5b600082612fbd57612fbd612f98565b500490565b6020808252818101527f4f776e61626c653a2063616c6c6572206973206e6f7420746865206f776e6572604082015260600190565b634e487b7160e01b600052603260045260246000fd5b6000815161301f818560208601612b76565b9290920192915050565b600080845481600182811c91508083168061304557607f831692505b602080841082141561306557634e487b7160e01b86526022600452602486fd5b818015613079576001811461308a576130b7565b60ff198616895284890196506130b7565b60008b81526020902060005b868110156130af5781548b820152908501908301613096565b505084890196505b5050505050506130eb6130da6130d483602f60f81b815260010190565b8661300d565b64173539b7b760d91b815260050190565b95945050505050565b6000821982111561310757613107612f63565b500190565b60008282101561311e5761311e612f63565b500390565b7f416363657373436f6e74726f6c3a206163636f756e742000000000000000000081526000835161315b816017850160208801612b76565b7001034b99036b4b9b9b4b733903937b6329607d1b601791840191820152835161318c816028840160208801612b76565b01602801949350505050565b6000602082840312156131aa57600080fd5b5051919050565b6000602082840312156131c357600080fd5b815161248181612bfa565b6000826131dd576131dd612f98565b500690565b60208082526032908201527f4552433732313a207472616e7366657220746f206e6f6e20455243373231526560408201527131b2b4bb32b91034b6b83632b6b2b73a32b960711b606082015260800190565b600060001982141561324857613248612f63565b5060010190565b60008161325e5761325e612f63565b506000190190565b6001600160a01b038581168252841660208201526040810183905260806060820181905260009061329990830184612ba2565b9695505050505050565b6000602082840312156132b557600080fd5b815161248181612b43565b634e487b7160e01b600052603160045260246000fdfea2646970667358221220100373719643a65b7a3204297e7bbe9f7612ba2cd986324a00d9ee300ead3f6964736f6c634300080c0033534f4c49445320697320612067656e6572617469766520617263686974656374757265204e46542070726f6a6563742063726561746564206279204641522e2054686572652061726520382c383838202b2035313220756e69717565206275696c64696e67732067656e65726174656420616c676f726974686d6963616c6c792c20656e61626c696e67207574696c69747920696e20746865204d65746176657273652e697066733a2f2f516d506d745071516666366e6e797676384c4e4570536e4c716541525675733851355362556657534c4177313236697066733a2f2f516d5342694b6732753459764542387251724a6973417642784352344c3951594676466469626b6b316b42446279",
  "linkReferences": {},
  "deployedLinkReferences": {}
}