{
  "_format": "hh-sol-artifact-1",
  "contractName": "Solids",
  "sourceName": "contracts/Solids.sol",
  "abi": [
    {
      "inputs": [
        {
          "internalType": "address",
          "name": "coreAddress",
          "type": "address"
        },
        {
          "internalType": "address",
          "name": "shopAddress",
          "type": "address"
        }
      ],
      "stateMutability": "nonpayable",
      "type": "constructor"
    },
    {
      "anonymous": false,
      "inputs": [
        {
          "indexed": true,
          "internalType": "address",
          "name": "owner",
          "type": "address"
        },
        {
          "indexed": true,
          "internalType": "address",
          "name": "approved",
          "type": "address"
        },
        {
          "indexed": true,
          "internalType": "uint256",
          "name": "tokenId",
          "type": "uint256"
        }
      ],
      "name": "Approval",
      "type": "event"
    },
    {
      "anonymous": false,
      "inputs": [
        {
          "indexed": true,
          "internalType": "address",
          "name": "owner",
          "type": "address"
        },
        {
          "indexed": true,
          "internalType": "address",
          "name": "operator",
          "type": "address"
        },
        {
          "indexed": false,
          "internalType": "bool",
          "name": "approved",
          "type": "bool"
        }
      ],
      "name": "ApprovalForAll",
      "type": "event"
    },
    {
      "anonymous": false,
      "inputs": [
        {
          "indexed": true,
          "internalType": "bytes32",
          "name": "role",
          "type": "bytes32"
        },
        {
          "indexed": true,
          "internalType": "bytes32",
          "name": "previousAdminRole",
          "type": "bytes32"
        },
        {
          "indexed": true,
          "internalType": "bytes32",
          "name": "newAdminRole",
          "type": "bytes32"
        }
      ],
      "name": "RoleAdminChanged",
      "type": "event"
    },
    {
      "anonymous": false,
      "inputs": [
        {
          "indexed": true,
          "internalType": "bytes32",
          "name": "role",
          "type": "bytes32"
        },
        {
          "indexed": true,
          "internalType": "address",
          "name": "account",
          "type": "address"
        },
        {
          "indexed": true,
          "internalType": "address",
          "name": "sender",
          "type": "address"
        }
      ],
      "name": "RoleGranted",
      "type": "event"
    },
    {
      "anonymous": false,
      "inputs": [
        {
          "indexed": true,
          "internalType": "bytes32",
          "name": "role",
          "type": "bytes32"
        },
        {
          "indexed": true,
          "internalType": "address",
          "name": "account",
          "type": "address"
        },
        {
          "indexed": true,
          "internalType": "address",
          "name": "sender",
          "type": "address"
        }
      ],
      "name": "RoleRevoked",
      "type": "event"
    },
    {
      "anonymous": false,
      "inputs": [
        {
          "indexed": true,
          "internalType": "address",
          "name": "from",
          "type": "address"
        },
        {
          "indexed": true,
          "internalType": "address",
          "name": "to",
          "type": "address"
        },
        {
          "indexed": true,
          "internalType": "uint256",
          "name": "tokenId",
          "type": "uint256"
        }
      ],
      "name": "Transfer",
      "type": "event"
    },
    {
      "anonymous": false,
      "inputs": [
        {
          "indexed": false,
          "internalType": "address",
          "name": "_from",
          "type": "address"
        },
        {
          "indexed": false,
          "internalType": "uint256",
          "name": "_amount",
          "type": "uint256"
        }
      ],
      "name": "recievedFunds",
      "type": "event"
    },
    {
      "inputs": [],
      "name": "DEFAULT_ADMIN_ROLE",
      "outputs": [
        {
          "internalType": "bytes32",
          "name": "",
          "type": "bytes32"
        }
      ],
      "stateMutability": "view",
      "type": "function"
    },
    {
      "inputs": [],
      "name": "MINTER_ROLE",
      "outputs": [
        {
          "internalType": "bytes32",
          "name": "",
          "type": "bytes32"
        }
      ],
      "stateMutability": "view",
      "type": "function"
    },
    {
      "inputs": [],
      "name": "TOKEN_LIMIT",
      "outputs": [
        {
          "internalType": "uint256",
          "name": "",
          "type": "uint256"
        }
      ],
      "stateMutability": "view",
      "type": "function"
    },
    {
      "inputs": [],
      "name": "_contractURI",
      "outputs": [
        {
          "internalType": "string",
          "name": "",
          "type": "string"
        }
      ],
      "stateMutability": "view",
      "type": "function"
    },
    {
      "inputs": [],
      "name": "additionalPayee",
      "outputs": [
        {
          "internalType": "address payable",
          "name": "",
          "type": "address"
        }
      ],
      "stateMutability": "view",
      "type": "function"
    },
    {
      "inputs": [
        {
          "internalType": "uint96",
          "name": "_percentage",
          "type": "uint96"
        }
      ],
      "name": "additionalPayeePercent",
      "outputs": [],
      "stateMutability": "nonpayable",
      "type": "function"
    },
    {
      "inputs": [],
      "name": "additionalPayeePercentage",
      "outputs": [
        {
          "internalType": "uint256",
          "name": "",
          "type": "uint256"
        }
      ],
      "stateMutability": "view",
      "type": "function"
    },
    {
      "inputs": [
        {
          "internalType": "uint96",
          "name": "_percentage",
          "type": "uint96"
        }
      ],
      "name": "additionalPayeeRoyaltyPercent",
      "outputs": [],
      "stateMutability": "nonpayable",
      "type": "function"
    },
    {
      "inputs": [],
      "name": "additionalPayeeRoyaltyPercentage",
      "outputs": [
        {
          "internalType": "uint256",
          "name": "",
          "type": "uint256"
        }
      ],
      "stateMutability": "view",
      "type": "function"
    },
    {
      "inputs": [
        {
          "internalType": "address",
          "name": "to",
          "type": "address"
        },
        {
          "internalType": "uint256",
          "name": "tokenId",
          "type": "uint256"
        }
      ],
      "name": "approve",
      "outputs": [],
      "stateMutability": "nonpayable",
      "type": "function"
    },
    {
      "inputs": [],
      "name": "artist",
      "outputs": [
        {
          "internalType": "string",
          "name": "",
          "type": "string"
        }
      ],
      "stateMutability": "view",
      "type": "function"
    },
    {
      "inputs": [],
      "name": "artistAddress",
      "outputs": [
        {
          "internalType": "address payable",
          "name": "",
          "type": "address"
        }
      ],
      "stateMutability": "view",
      "type": "function"
    },
    {
      "inputs": [
        {
          "internalType": "uint256",
          "name": "",
          "type": "uint256"
        }
      ],
      "name": "artworkId",
      "outputs": [
        {
          "internalType": "uint256",
          "name": "",
          "type": "uint256"
        }
      ],
      "stateMutability": "view",
      "type": "function"
    },
    {
      "inputs": [
        {
          "internalType": "address",
          "name": "owner",
          "type": "address"
        }
      ],
      "name": "balanceOf",
      "outputs": [
        {
          "internalType": "uint256",
          "name": "",
          "type": "uint256"
        }
      ],
      "stateMutability": "view",
      "type": "function"
    },
    {
      "inputs": [],
      "name": "baseURI",
      "outputs": [
        {
          "internalType": "string",
          "name": "",
          "type": "string"
        }
      ],
      "stateMutability": "view",
      "type": "function"
    },
    {
      "inputs": [
        {
          "internalType": "uint256",
          "name": "tokenId",
          "type": "uint256"
        }
      ],
      "name": "burn",
      "outputs": [],
      "stateMutability": "nonpayable",
      "type": "function"
    },
    {
      "inputs": [],
      "name": "checkPool",
      "outputs": [
        {
          "internalType": "uint256",
          "name": "",
          "type": "uint256"
        }
      ],
      "stateMutability": "view",
      "type": "function"
    },
    {
      "inputs": [],
      "name": "contractURI",
      "outputs": [
        {
          "internalType": "string",
          "name": "",
          "type": "string"
        }
      ],
      "stateMutability": "view",
      "type": "function"
    },
    {
      "inputs": [],
      "name": "description",
      "outputs": [
        {
          "internalType": "string",
          "name": "",
          "type": "string"
        }
      ],
      "stateMutability": "view",
      "type": "function"
    },
    {
      "inputs": [],
      "name": "getAdditionalPayee",
      "outputs": [
        {
          "internalType": "address payable",
          "name": "",
          "type": "address"
        }
      ],
      "stateMutability": "view",
      "type": "function"
    },
    {
      "inputs": [],
      "name": "getAdditionalPayeePercentage",
      "outputs": [
        {
          "internalType": "uint256",
          "name": "",
          "type": "uint256"
        }
      ],
      "stateMutability": "view",
      "type": "function"
    },
    {
      "inputs": [
        {
          "internalType": "uint256",
          "name": "tokenId",
          "type": "uint256"
        }
      ],
      "name": "getApproved",
      "outputs": [
        {
          "internalType": "address",
          "name": "",
          "type": "address"
        }
      ],
      "stateMutability": "view",
      "type": "function"
    },
    {
      "inputs": [],
      "name": "getArtistAddress",
      "outputs": [
        {
          "internalType": "address payable",
          "name": "",
          "type": "address"
        }
      ],
      "stateMutability": "view",
      "type": "function"
    },
    {
      "inputs": [
        {
          "internalType": "bytes32",
          "name": "role",
          "type": "bytes32"
        }
      ],
      "name": "getRoleAdmin",
      "outputs": [
        {
          "internalType": "bytes32",
          "name": "",
          "type": "bytes32"
        }
      ],
      "stateMutability": "view",
      "type": "function"
    },
    {
      "inputs": [],
      "name": "getTokenLimit",
      "outputs": [
        {
          "internalType": "uint256",
          "name": "",
          "type": "uint256"
        }
      ],
      "stateMutability": "view",
      "type": "function"
    },
    {
      "inputs": [
        {
          "internalType": "bytes32",
          "name": "role",
          "type": "bytes32"
        },
        {
          "internalType": "address",
          "name": "account",
          "type": "address"
        }
      ],
      "name": "grantRole",
      "outputs": [],
      "stateMutability": "nonpayable",
      "type": "function"
    },
    {
      "inputs": [
        {
          "internalType": "bytes32",
          "name": "role",
          "type": "bytes32"
        },
        {
          "internalType": "address",
          "name": "account",
          "type": "address"
        }
      ],
      "name": "hasRole",
      "outputs": [
        {
          "internalType": "bool",
          "name": "",
          "type": "bool"
        }
      ],
      "stateMutability": "view",
      "type": "function"
    },
    {
      "inputs": [
        {
          "internalType": "uint256",
          "name": "start",
          "type": "uint256"
        },
        {
          "internalType": "uint256",
          "name": "end",
          "type": "uint256"
        }
      ],
      "name": "initPool",
      "outputs": [],
      "stateMutability": "nonpayable",
      "type": "function"
    },
    {
      "inputs": [
        {
          "internalType": "address",
          "name": "owner",
          "type": "address"
        },
        {
          "internalType": "address",
          "name": "operator",
          "type": "address"
        }
      ],
      "name": "isApprovedForAll",
      "outputs": [
        {
          "internalType": "bool",
          "name": "",
          "type": "bool"
        }
      ],
      "stateMutability": "view",
      "type": "function"
    },
    {
      "inputs": [],
      "name": "license",
      "outputs": [
        {
          "internalType": "string",
          "name": "",
          "type": "string"
        }
      ],
      "stateMutability": "view",
      "type": "function"
    },
    {
      "inputs": [],
      "name": "lock",
      "outputs": [],
      "stateMutability": "nonpayable",
      "type": "function"
    },
    {
      "inputs": [],
      "name": "locked",
      "outputs": [
        {
          "internalType": "bool",
          "name": "",
          "type": "bool"
        }
      ],
      "stateMutability": "view",
      "type": "function"
    },
    {
      "inputs": [
        {
          "internalType": "address",
          "name": "to",
          "type": "address"
        }
      ],
      "name": "mint",
      "outputs": [
        {
          "internalType": "uint256",
          "name": "tokenId",
          "type": "uint256"
        }
      ],
      "stateMutability": "nonpayable",
      "type": "function"
    },
    {
      "inputs": [
        {
          "internalType": "address",
          "name": "to",
          "type": "address"
        },
        {
          "internalType": "uint256",
          "name": "infiniteId",
          "type": "uint256"
        }
      ],
      "name": "mintBonus",
      "outputs": [
        {
          "internalType": "uint256",
          "name": "bonusId",
          "type": "uint256"
        }
      ],
      "stateMutability": "nonpayable",
      "type": "function"
    },
    {
      "inputs": [],
      "name": "name",
      "outputs": [
        {
          "internalType": "string",
          "name": "",
          "type": "string"
        }
      ],
      "stateMutability": "view",
      "type": "function"
    },
    {
      "inputs": [
        {
          "internalType": "uint256",
          "name": "tokenId",
          "type": "uint256"
        }
      ],
      "name": "ownerOf",
      "outputs": [
        {
          "internalType": "address",
          "name": "",
          "type": "address"
        }
      ],
      "stateMutability": "view",
      "type": "function"
    },
    {
      "inputs": [
        {
          "internalType": "bytes32",
          "name": "role",
          "type": "bytes32"
        },
        {
          "internalType": "address",
          "name": "account",
          "type": "address"
        }
      ],
      "name": "renounceRole",
      "outputs": [],
      "stateMutability": "nonpayable",
      "type": "function"
    },
    {
      "inputs": [
        {
          "internalType": "bytes32",
          "name": "role",
          "type": "bytes32"
        },
        {
          "internalType": "address",
          "name": "account",
          "type": "address"
        }
      ],
      "name": "revokeRole",
      "outputs": [],
      "stateMutability": "nonpayable",
      "type": "function"
    },
    {
      "inputs": [
        {
          "internalType": "uint256",
          "name": "_tokenId",
          "type": "uint256"
        },
        {
          "internalType": "uint256",
          "name": "_salePrice",
          "type": "uint256"
        }
      ],
      "name": "royaltyInfo",
      "outputs": [
        {
          "internalType": "address",
          "name": "",
          "type": "address"
        },
        {
          "internalType": "uint256",
          "name": "",
          "type": "uint256"
        }
      ],
      "stateMutability": "view",
      "type": "function"
    },
    {
      "inputs": [],
      "name": "royaltyPercent",
      "outputs": [
        {
          "internalType": "uint96",
          "name": "",
          "type": "uint96"
        }
      ],
      "stateMutability": "view",
      "type": "function"
    },
    {
      "inputs": [
        {
          "internalType": "address",
          "name": "from",
          "type": "address"
        },
        {
          "internalType": "address",
          "name": "to",
          "type": "address"
        },
        {
          "internalType": "uint256",
          "name": "tokenId",
          "type": "uint256"
        }
      ],
      "name": "safeTransferFrom",
      "outputs": [],
      "stateMutability": "nonpayable",
      "type": "function"
    },
    {
      "inputs": [
        {
          "internalType": "address",
          "name": "from",
          "type": "address"
        },
        {
          "internalType": "address",
          "name": "to",
          "type": "address"
        },
        {
          "internalType": "uint256",
          "name": "tokenId",
          "type": "uint256"
        },
        {
          "internalType": "bytes",
          "name": "_data",
          "type": "bytes"
        }
      ],
      "name": "safeTransferFrom",
      "outputs": [],
      "stateMutability": "nonpayable",
      "type": "function"
    },
    {
      "inputs": [
        {
          "internalType": "uint256",
          "name": "",
          "type": "uint256"
        }
      ],
      "name": "scripts",
      "outputs": [
        {
          "internalType": "string",
          "name": "",
          "type": "string"
        }
      ],
      "stateMutability": "view",
      "type": "function"
    },
    {
      "inputs": [
        {
          "internalType": "address",
          "name": "operator",
          "type": "address"
        },
        {
          "internalType": "bool",
          "name": "approved",
          "type": "bool"
        }
      ],
      "name": "setApprovalForAll",
      "outputs": [],
      "stateMutability": "nonpayable",
      "type": "function"
    },
    {
      "inputs": [
        {
          "internalType": "string",
          "name": "_uri",
          "type": "string"
        }
      ],
      "name": "setBaseURI",
      "outputs": [],
      "stateMutability": "nonpayable",
      "type": "function"
    },
    {
      "inputs": [
        {
          "internalType": "string",
          "name": "_uri",
          "type": "string"
        }
      ],
      "name": "setContractURI",
      "outputs": [],
      "stateMutability": "nonpayable",
      "type": "function"
    },
    {
      "inputs": [
        {
          "internalType": "string",
          "name": "_desc",
          "type": "string"
        }
      ],
      "name": "setDescription",
      "outputs": [],
      "stateMutability": "nonpayable",
      "type": "function"
    },
    {
      "inputs": [
        {
          "internalType": "uint96",
          "name": "_percentage",
          "type": "uint96"
        }
      ],
      "name": "setRoyaltyPercent",
      "outputs": [],
      "stateMutability": "nonpayable",
      "type": "function"
    },
    {
      "inputs": [
        {
          "internalType": "uint256",
          "name": "index",
          "type": "uint256"
        },
        {
          "internalType": "string",
          "name": "script",
          "type": "string"
        }
      ],
      "name": "setScript",
      "outputs": [],
      "stateMutability": "nonpayable",
      "type": "function"
    },
    {
      "inputs": [
        {
          "internalType": "string",
          "name": "_url",
          "type": "string"
        }
      ],
      "name": "setWebsite",
      "outputs": [],
      "stateMutability": "nonpayable",
      "type": "function"
    },
    {
      "inputs": [
        {
          "internalType": "bytes4",
          "name": "interfaceId",
          "type": "bytes4"
        }
      ],
      "name": "supportsInterface",
      "outputs": [
        {
          "internalType": "bool",
          "name": "",
          "type": "bool"
        }
      ],
      "stateMutability": "view",
      "type": "function"
    },
    {
      "inputs": [],
      "name": "symbol",
      "outputs": [
        {
          "internalType": "string",
          "name": "",
          "type": "string"
        }
      ],
      "stateMutability": "view",
      "type": "function"
    },
    {
      "inputs": [
        {
          "internalType": "uint256",
          "name": "index",
          "type": "uint256"
        }
      ],
      "name": "tokenByIndex",
      "outputs": [
        {
          "internalType": "uint256",
          "name": "",
          "type": "uint256"
        }
      ],
      "stateMutability": "view",
      "type": "function"
    },
    {
      "inputs": [
        {
          "internalType": "address",
          "name": "owner",
          "type": "address"
        },
        {
          "internalType": "uint256",
          "name": "index",
          "type": "uint256"
        }
      ],
      "name": "tokenOfOwnerByIndex",
      "outputs": [
        {
          "internalType": "uint256",
          "name": "",
          "type": "uint256"
        }
      ],
      "stateMutability": "view",
      "type": "function"
    },
    {
      "inputs": [
        {
          "internalType": "uint256",
          "name": "tokenId",
          "type": "uint256"
        }
      ],
      "name": "tokenURI",
      "outputs": [
        {
          "internalType": "string",
          "name": "",
          "type": "string"
        }
      ],
      "stateMutability": "view",
      "type": "function"
    },
    {
      "inputs": [],
      "name": "totalSupply",
      "outputs": [
        {
          "internalType": "uint256",
          "name": "",
          "type": "uint256"
        }
      ],
      "stateMutability": "view",
      "type": "function"
    },
    {
      "inputs": [
        {
          "internalType": "address",
          "name": "from",
          "type": "address"
        },
        {
          "internalType": "address",
          "name": "to",
          "type": "address"
        },
        {
          "internalType": "uint256",
          "name": "tokenId",
          "type": "uint256"
        }
      ],
      "name": "transferFrom",
      "outputs": [],
      "stateMutability": "nonpayable",
      "type": "function"
    },
    {
      "inputs": [],
      "name": "website",
      "outputs": [
        {
          "internalType": "string",
          "name": "",
          "type": "string"
        }
      ],
      "stateMutability": "view",
      "type": "function"
    },
    {
      "inputs": [],
      "name": "withdraw",
      "outputs": [],
      "stateMutability": "nonpayable",
      "type": "function"
    },
    {
      "stateMutability": "payable",
      "type": "receive"
    }
  ],
  "bytecode": "0x6101f4600d556014805474e31a7d022e545eced32d276ca880649852c91353006001600160a81b0319909116179055601580546001600160a01b03191673268b87e4f6b7e7beb58e3128138d4f6b768e1b1717905560646016819055601755601880546001600160601b031916611d4c17905560c0604052600e60808190526d495046532048415348204845524560901b60a0908152620000a4916019919062000487565b5060408051808201909152600e8082526d495046532048415348204845524560901b6020909201918252620000dc91601a9162000487565b50604080518082019091526003808252622320a960e91b60209092019182526200010991601b9162000487565b506040805180820190915260158082527f612073616d706c65204e465420666f722046494e45000000000000000000000060209092019182526200015091601c9162000487565b506040805180820190915260148082527f68747470733a2f2f66696e652e6469676974616c00000000000000000000000060209092019182526200019791601d9162000487565b506040805180820190915260038082526213525560ea1b6020909201918252620001c491601e9162000487565b50348015620001d257600080fd5b5060405162003a2738038062003a27833981016040819052620001f5916200054a565b604080518082018252600680825265534f4c49445360d01b602080840182815285518087019096529285528401528151919291620002369160029162000487565b5080516200024c90600390602084019062000487565b506200025e91506000905033620002c6565b6200028a7f9f2df0fed2c77648de5860a4cc508cd0818c85b8b8a1ab4ceeef8d981c8956a682620002c6565b600e80546001600160a01b0319166001600160a01b038416179055601854620002be9030906001600160601b03166200036b565b5050620005be565b6000828152600c602090815260408083206001600160a01b038516845290915290205460ff1662000367576000828152600c602090815260408083206001600160a01b03851684529091529020805460ff19166001179055620003263390565b6001600160a01b0316816001600160a01b0316837f2f8788117e7eff1d82e926ec794901d17c78024a50270940304540a733656f0d60405160405180910390a45b5050565b6127106001600160601b0382161115620003df5760405162461bcd60e51b815260206004820152602a60248201527f455243323938313a20726f79616c7479206665652077696c6c206578636565646044820152692073616c65507269636560b01b60648201526084015b60405180910390fd5b6001600160a01b038216620004375760405162461bcd60e51b815260206004820152601960248201527f455243323938313a20696e76616c6964207265636569766572000000000000006044820152606401620003d6565b604080518082019091526001600160a01b039283168082526001600160601b03929092166020909101819052600080546001600160a01b031916909217909216600160a01b909202919091179055565b828054620004959062000581565b90600052602060002090601f016020900481019282620004b9576000855562000504565b82601f10620004d457805160ff191683800117855562000504565b8280016001018555821562000504579182015b8281111562000504578251825591602001919060010190620004e7565b506200051292915062000516565b5090565b5b8082111562000512576000815560010162000517565b80516001600160a01b03811681146200054557600080fd5b919050565b600080604083850312156200055d578182fd5b62000568836200052d565b915062000578602084016200052d565b90509250929050565b6002810460018216806200059657607f821691505b60208210811415620005b857634e487b7160e01b600052602260045260246000fd5b50919050565b61345980620005ce6000396000f3fe6080604052600436106103905760003560e01c80636c0360eb116101dc578063b88d4fde11610102578063d7eb3f3a116100a0578063ea099ad91161006f578063ea099ad914610ad7578063f83d08ba14610aed578063f87f44b914610b02578063f9f3bfd814610b22576103cf565b8063d7eb3f3a14610a34578063d9a7c61d14610a59578063e8a3d48514610a79578063e985e9c514610a8e576103cf565b8063c87b56dd116100dc578063c87b56dd146109a6578063cf309012146109c6578063d5391393146109e0578063d547741f14610a14576103cf565b8063b88d4fde1461095c578063beb0a4161461097c578063c0e7274014610991576103cf565b806390c3f38f1161017a5780639e1b0045116101495780639e1b0045146108cf5780639f67756d146108ef578063a217fddf14610927578063a22cb4651461093c576103cf565b806390c3f38f1461085a57806391d148541461087a578063938e3d7b1461089a57806395d89b41146108ba576103cf565b806371199d30116101b657806371199d30146107e15780637284e41614610801578063867644d9146108165780638cbe8d8014610836576103cf565b80636c0360eb1461078e5780636ff314c7146107a357806370a08231146107c1576103cf565b80632f745c59116102c15780634771218a1161025f57806359748cb21161022e57806359748cb2146107195780636352211e146107395780636a627842146107595780636b87d24c14610779576103cf565b80634771218a146106a45780634bc46a82146106b95780634f6ccce7146106d957806355f804b3146106f9576103cf565b806340138ff11161029b57806340138ff11461063957806342842e0e1461064f57806342966c681461066f57806343bc16121461068f576103cf565b80632f745c59146105e457806336568abe146106045780633ccfd60b14610624576103cf565b806318160ddd1161032e5780632848558611610308578063284855861461055b5780632a55205a146105705780632cc88974146105af5780632f2ff15d146105c4576103cf565b806318160ddd146104f657806323b872dd1461050b578063248a9ca31461052b576103cf565b8063081812fc1161036a578063081812fc1461044f57806308ff7f6114610487578063095ea7b3146104a7578063176f5b09146104c9576103cf565b806301ffc9a7146103d4578063031bd4c41461040957806306fdde031461042d576103cf565b366103cf57604080513381523460208201527ffb5cb5fc5900f14be0f619816129d1490c275a13734b28ae77072a2f5d676f57910160405180910390a1005b600080fd5b3480156103e057600080fd5b506103f46103ef366004612f2f565b610b42565b60405190151581526020015b60405180910390f35b34801561041557600080fd5b5061041f600d5481565b604051908152602001610400565b34801561043957600080fd5b50610442610b55565b60405161040091906131f1565b34801561045b57600080fd5b5061046f61046a366004612ef3565b610be7565b6040516001600160a01b039091168152602001610400565b34801561049357600080fd5b506104426104a2366004612ef3565b610c81565b3480156104b357600080fd5b506104c76104c2366004612ec8565b610d1b565b005b3480156104d557600080fd5b5061041f6104e4366004612ef3565b60106020526000908152604090205481565b34801561050257600080fd5b50600a5461041f565b34801561051757600080fd5b506104c7610526366004612d7e565b610e31565b34801561053757600080fd5b5061041f610546366004612ef3565b6000908152600c602052604090206001015490565b34801561056757600080fd5b50600d5461041f565b34801561057c57600080fd5b5061059061058b366004613009565b610e63565b604080516001600160a01b039093168352602083019190915201610400565b3480156105bb57600080fd5b5060165461041f565b3480156105d057600080fd5b506104c76105df366004612f0b565b610f11565b3480156105f057600080fd5b5061041f6105ff366004612ec8565b610f38565b34801561061057600080fd5b506104c761061f366004612f0b565b610fd1565b34801561063057600080fd5b506104c761104f565b34801561064557600080fd5b5061041f60165481565b34801561065b57600080fd5b506104c761066a366004612d7e565b611067565b34801561067b57600080fd5b506104c761068a366004612ef3565b611082565b34801561069b57600080fd5b506104426110f9565b3480156106b057600080fd5b5061041f611106565b3480156106c557600080fd5b506104c76106d436600461302a565b611117565b3480156106e557600080fd5b5061041f6106f4366004612ef3565b61114b565b34801561070557600080fd5b506104c7610714366004612f67565b6111ec565b34801561072557600080fd5b5060155461046f906001600160a01b031681565b34801561074557600080fd5b5061046f610754366004612ef3565b61120a565b34801561076557600080fd5b5061041f610774366004612d0e565b611281565b34801561078557600080fd5b5061044261141f565b34801561079a57600080fd5b5061044261142c565b3480156107af57600080fd5b506015546001600160a01b031661046f565b3480156107cd57600080fd5b5061041f6107dc366004612d0e565b611439565b3480156107ed57600080fd5b506104c76107fc366004612fbf565b6114c0565b34801561080d57600080fd5b506104426114ec565b34801561082257600080fd5b506104c761083136600461302a565b6114f9565b34801561084257600080fd5b5061046f60145461010090046001600160a01b031690565b34801561086657600080fd5b506104c7610875366004612f67565b611514565b34801561088657600080fd5b506103f4610895366004612f0b565b61152c565b3480156108a657600080fd5b506104c76108b5366004612f67565b611557565b3480156108c657600080fd5b5061044261156f565b3480156108db57600080fd5b506104c76108ea366004613009565b61157e565b3480156108fb57600080fd5b5060185461090f906001600160601b031681565b6040516001600160601b039091168152602001610400565b34801561093357600080fd5b5061041f600081565b34801561094857600080fd5b506104c7610957366004612e97565b6116c3565b34801561096857600080fd5b506104c7610977366004612dbe565b6116ce565b34801561098857600080fd5b50610442611700565b34801561099d57600080fd5b5061044261170d565b3480156109b257600080fd5b506104426109c1366004612ef3565b61171a565b3480156109d257600080fd5b506014546103f49060ff1681565b3480156109ec57600080fd5b5061041f7f9f2df0fed2c77648de5860a4cc508cd0818c85b8b8a1ab4ceeef8d981c8956a681565b348015610a2057600080fd5b506104c7610a2f366004612f0b565b61175f565b348015610a4057600080fd5b5060145461046f9061010090046001600160a01b031681565b348015610a6557600080fd5b5061041f610a74366004612ec8565b611785565b348015610a8557600080fd5b50610442611876565b348015610a9a57600080fd5b506103f4610aa9366004612d46565b6001600160a01b03918216600090815260076020908152604080832093909416825291909152205460ff1690565b348015610ae357600080fd5b5061041f60175481565b348015610af957600080fd5b506104c7611885565b348015610b0e57600080fd5b506104c7610b1d366004612f67565b6118ee565b348015610b2e57600080fd5b506104c7610b3d36600461302a565b611906565b6000610b4d82611921565b90505b919050565b606060028054610b649061334c565b80601f0160208091040260200160405190810160405280929190818152602001828054610b909061334c565b8015610bdd5780601f10610bb257610100808354040283529160200191610bdd565b820191906000526020600020905b815481529060010190602001808311610bc057829003601f168201915b5050505050905090565b6000818152600460205260408120546001600160a01b0316610c655760405162461bcd60e51b815260206004820152602c60248201527f4552433732313a20617070726f76656420717565727920666f72206e6f6e657860448201526b34b9ba32b73a103a37b5b2b760a11b60648201526084015b60405180910390fd5b506000908152600660205260409020546001600160a01b031690565b60116020526000908152604090208054610c9a9061334c565b80601f0160208091040260200160405190810160405280929190818152602001828054610cc69061334c565b8015610d135780601f10610ce857610100808354040283529160200191610d13565b820191906000526020600020905b815481529060010190602001808311610cf657829003601f168201915b505050505081565b6000610d268261120a565b9050806001600160a01b0316836001600160a01b03161415610d945760405162461bcd60e51b815260206004820152602160248201527f4552433732313a20617070726f76616c20746f2063757272656e74206f776e656044820152603960f91b6064820152608401610c5c565b336001600160a01b0382161480610db05750610db08133610aa9565b610e225760405162461bcd60e51b815260206004820152603860248201527f4552433732313a20617070726f76652063616c6c6572206973206e6f74206f7760448201527f6e6572206e6f7220617070726f76656420666f7220616c6c00000000000000006064820152608401610c5c565b610e2c8383611946565b505050565b610e3c335b826119b4565b610e585760405162461bcd60e51b8152600401610c5c90613256565b610e2c838383611aab565b60008281526001602090815260408083208151808301909252546001600160a01b038116808352600160a01b9091046001600160601b0316928201929092528291610ed85750604080518082019091526000546001600160a01b0381168252600160a01b90046001600160601b031660208201525b602081015160009061271090610ef7906001600160601b0316876132d3565b610f0191906132bf565b91519350909150505b9250929050565b6000828152600c6020526040902060010154610f2e81335b611c52565b610e2c8383611cb6565b6000610f4383611439565b8210610fa55760405162461bcd60e51b815260206004820152602b60248201527f455243373231456e756d657261626c653a206f776e657220696e646578206f7560448201526a74206f6620626f756e647360a81b6064820152608401610c5c565b506001600160a01b03821660009081526008602090815260408083208484529091529020545b92915050565b6001600160a01b03811633146110415760405162461bcd60e51b815260206004820152602f60248201527f416363657373436f6e74726f6c3a2063616e206f6e6c792072656e6f756e636560448201526e103937b632b9903337b91039b2b63360891b6064820152608401610c5c565b61104b8282611d3c565b5050565b600061105b8133610f29565b61106447611da3565b50565b610e2c838383604051806020016040528060008152506116ce565b61108b33610e36565b6110f05760405162461bcd60e51b815260206004820152603060248201527f4552433732314275726e61626c653a2063616c6c6572206973206e6f74206f7760448201526f1b995c881b9bdc88185c1c1c9bdd995960821b6064820152608401610c5c565b61106481611fbf565b601b8054610c9a9061334c565b60006111126012611fc8565b905090565b60006111238133610f29565b50601880546bffffffffffffffffffffffff19166001600160601b0392909216919091179055565b6000611156600a5490565b82106111b95760405162461bcd60e51b815260206004820152602c60248201527f455243373231456e756d657261626c653a20676c6f62616c20696e646578206f60448201526b7574206f6620626f756e647360a01b6064820152608401610c5c565b600a82815481106111da57634e487b7160e01b600052603260045260246000fd5b90600052602060002001549050919050565b60006111f88133610f29565b611204601a8484612c35565b50505050565b6000818152600460205260408120546001600160a01b031680610b4d5760405162461bcd60e51b815260206004820152602960248201527f4552433732313a206f776e657220717565727920666f72206e6f6e657869737460448201526832b73a103a37b5b2b760b91b6064820152608401610c5c565b60007f9f2df0fed2c77648de5860a4cc508cd0818c85b8b8a1ab4ceeef8d981c8956a66112ae8133610f29565b60145460ff166112f65760405162461bcd60e51b81526020600482015260136024820152721cd95d1d1a5b99dcc81b9bdd081b1bd8dad959606a1b6044820152606401610c5c565b60006113026012611fc8565b116113435760405162461bcd60e51b8152602060048201526011602482015270185b1b081d1bdad95b9cc81b5a5b9d1959607a1b6044820152606401610c5c565b600e546040516329e5d83160e01b8152600481018490524260248201526000916001600160a01b0316906329e5d8319060440160206040518083038186803b15801561138e57600080fd5b505afa1580156113a2573d6000803e3d6000fd5b505050506040513d601f19601f820116820180604052508101906113c69190612fa7565b905060006113d46012611fc8565b6113de90836133a2565b905060006113ed601283611fd2565b6000868152601060205260409020819055905061140b601282611fe5565b506114168682611ff1565b50505050919050565b601e8054610c9a9061334c565b601a8054610c9a9061334c565b60006001600160a01b0382166114a45760405162461bcd60e51b815260206004820152602a60248201527f4552433732313a2062616c616e636520717565727920666f7220746865207a65604482015269726f206164647265737360b01b6064820152608401610c5c565b506001600160a01b031660009081526005602052604090205490565b60006114cc8133610f29565b60008481526011602052604090206114e5908484612c35565b5050505050565b601c8054610c9a9061334c565b60006115058133610f29565b506001600160601b0316601755565b60006115208133610f29565b611204601c8484612c35565b6000918252600c602090815260408084206001600160a01b0393909316845291905290205460ff1690565b60006115638133610f29565b61120460198484612c35565b606060038054610b649061334c565b60145460ff16156115cb5760405162461bcd60e51b81526020600482015260176024820152761cd95d1d1a5b99dcc8185b1c9958591e481b1bd8dad959604a1b6044820152606401610c5c565b808211156116275760405162461bcd60e51b815260206004820152602360248201527f7374617274206d75737420636f6d65206265666f7265206f7220657175616c20604482015262195b9960ea1b6064820152608401610c5c565b600061163383836132f2565b9050600d54816116436012611fc8565b61164d91906132a7565b111561169b5760405162461bcd60e51b815260206004820152601e60248201527f63616e7420616464206d6f7265207468616e20746f6b656e206c696d697400006044820152606401610c5c565b825b82811015611204576116b060128261200b565b50806116bb81613387565b91505061169d565b61104b338383612017565b6116d833836119b4565b6116f45760405162461bcd60e51b8152600401610c5c90613256565b611204848484846120e6565b601d8054610c9a9061334c565b60198054610c9a9061334c565b600081815260106020526040902054606090601a9061173890612119565b604051602001611749929190613099565b6040516020818303038152906040529050919050565b6000828152600c602052604090206001015461177b8133610f29565b610e2c8383611d3c565b60007f9f2df0fed2c77648de5860a4cc508cd0818c85b8b8a1ab4ceeef8d981c8956a66117b28133610f29565b60145460ff166117fa5760405162461bcd60e51b81526020600482015260136024820152721cd95d1d1a5b99dcc81b9bdd081b1bd8dad959606a1b6044820152606401610c5c565b611806836127106132a7565b6000818152600460205260409020549092506001600160a01b0316156118655760405162461bcd60e51b8152602060048201526014602482015273151bdad95b88185b1c9958591e481b5a5b9d195960621b6044820152606401610c5c565b61186f8483611ff1565b5092915050565b606060198054610b649061334c565b60006118918133610f29565b60145460ff16156118de5760405162461bcd60e51b81526020600482015260176024820152761cd95d1d1a5b99dcc8185b1c9958591e481b1bd8dad959604a1b6044820152606401610c5c565b506014805460ff19166001179055565b60006118fa8133610f29565b611204601d8484612c35565b60006119128133610f29565b506001600160601b0316601655565b60006001600160e01b03198216637965db0b60e01b1480610b4d5750610b4d82612234565b600081815260066020526040902080546001600160a01b0319166001600160a01b038416908117909155819061197b8261120a565b6001600160a01b03167f8c5be1e5ebec7d5bd14f71427d1e84f3dd0314c0f7b2291e5b200ac8c7c3b92560405160405180910390a45050565b6000818152600460205260408120546001600160a01b0316611a2d5760405162461bcd60e51b815260206004820152602c60248201527f4552433732313a206f70657261746f7220717565727920666f72206e6f6e657860448201526b34b9ba32b73a103a37b5b2b760a11b6064820152608401610c5c565b6000611a388361120a565b9050806001600160a01b0316846001600160a01b03161480611a735750836001600160a01b0316611a6884610be7565b6001600160a01b0316145b80611aa357506001600160a01b0380821660009081526007602090815260408083209388168352929052205460ff165b949350505050565b826001600160a01b0316611abe8261120a565b6001600160a01b031614611b225760405162461bcd60e51b815260206004820152602560248201527f4552433732313a207472616e736665722066726f6d20696e636f72726563742060448201526437bbb732b960d91b6064820152608401610c5c565b6001600160a01b038216611b845760405162461bcd60e51b8152602060048201526024808201527f4552433732313a207472616e7366657220746f20746865207a65726f206164646044820152637265737360e01b6064820152608401610c5c565b611b8f83838361223f565b611b9a600082611946565b6001600160a01b0383166000908152600560205260408120805460019290611bc39084906132f2565b90915550506001600160a01b0382166000908152600560205260408120805460019290611bf19084906132a7565b909155505060008181526004602052604080822080546001600160a01b0319166001600160a01b0386811691821790925591518493918716917fddf252ad1be2c89b69c2b068fc378daa952ba7f163c4a11628f55a4df523b3ef91a4610e2c565b611c5c828261152c565b61104b57611c74816001600160a01b0316601461224a565b611c7f83602061224a565b604051602001611c9092919061313f565b60408051601f198184030181529082905262461bcd60e51b8252610c5c916004016131f1565b611cc0828261152c565b61104b576000828152600c602090815260408083206001600160a01b03851684529091529020805460ff19166001179055611cf83390565b6001600160a01b0316816001600160a01b0316837f2f8788117e7eff1d82e926ec794901d17c78024a50270940304540a733656f0d60405160405180910390a45050565b611d46828261152c565b1561104b576000828152600c602090815260408083206001600160a01b0385168085529252808320805460ff1916905551339285917ff6391f5c32d9c69d2a47ea670b442974b53935d1edc7fd64eb21e047a839171b9190a45050565b8015611064576000612710600e60009054906101000a90046001600160a01b03166001600160a01b031663d672131b6040518163ffffffff1660e01b8152600401602060405180830381600087803b158015611dfe57600080fd5b505af1158015611e12573d6000803e3d6000fd5b505050506040513d601f19601f82011682018060405250810190611e369190612fa7565b611e4090846132d3565b611e4a91906132bf565b9050600e60009054906101000a90046001600160a01b03166001600160a01b0316637dafc0d36040518163ffffffff1660e01b8152600401602060405180830381600087803b158015611e9c57600080fd5b505af1158015611eb0573d6000803e3d6000fd5b505050506040513d601f19601f82011682018060405250810190611ed49190612d2a565b6001600160a01b03166108fc829081150290604051600060405180830381858888f19350505050158015611f0c573d6000803e3d6000fd5b50600061271060175484611f2091906132d3565b611f2a91906132bf565b90508015611f6e576015546040516001600160a01b039091169082156108fc029083906000818181858888f19350505050158015611f6c573d6000803e3d6000fd5b505b60145461010090046001600160a01b03166108fc82611f8d85876132f2565b611f9791906132f2565b6040518115909202916000818181858888f19350505050158015611204573d6000803e3d6000fd5b6110648161242c565b6000610b4d825490565b6000611fde8383612449565b9392505050565b6000611fde8383612481565b61104b82826040518060200160405280600081525061259e565b6000611fde83836125d1565b816001600160a01b0316836001600160a01b031614156120795760405162461bcd60e51b815260206004820152601960248201527f4552433732313a20617070726f766520746f2063616c6c6572000000000000006044820152606401610c5c565b6001600160a01b03838116600081815260076020908152604080832094871680845294825291829020805460ff191686151590811790915591519182527f17307eab39ab6107e8899845ad3d59bd9653f200f220920489ca2b5937696c31910160405180910390a3505050565b6120f1848484611aab565b6120fd84848484612620565b6112045760405162461bcd60e51b8152600401610c5c90613204565b60608161213e57506040805180820190915260018152600360fc1b6020820152610b50565b8160005b8115612168578061215281613387565b91506121619050600a836132bf565b9150612142565b60008167ffffffffffffffff81111561219157634e487b7160e01b600052604160045260246000fd5b6040519080825280601f01601f1916602001820160405280156121bb576020820181803683370190505b5090505b8415611aa3576121d06001836132f2565b91506121dd600a866133a2565b6121e89060306132a7565b60f81b81838151811061220b57634e487b7160e01b600052603260045260246000fd5b60200101906001600160f81b031916908160001a90535061222d600a866132bf565b94506121bf565b6000610b4d8261272d565b610e2c838383612752565b606060006122598360026132d3565b6122649060026132a7565b67ffffffffffffffff81111561228a57634e487b7160e01b600052604160045260246000fd5b6040519080825280601f01601f1916602001820160405280156122b4576020820181803683370190505b509050600360fc1b816000815181106122dd57634e487b7160e01b600052603260045260246000fd5b60200101906001600160f81b031916908160001a905350600f60fb1b8160018151811061231a57634e487b7160e01b600052603260045260246000fd5b60200101906001600160f81b031916908160001a905350600061233e8460026132d3565b6123499060016132a7565b90505b60018111156123dd576f181899199a1a9b1b9c1cb0b131b232b360811b85600f166010811061238b57634e487b7160e01b600052603260045260246000fd5b1a60f81b8282815181106123af57634e487b7160e01b600052603260045260246000fd5b60200101906001600160f81b031916908160001a90535060049490941c936123d681613335565b905061234c565b508315611fde5760405162461bcd60e51b815260206004820181905260248201527f537472696e67733a20686578206c656e67746820696e73756666696369656e746044820152606401610c5c565b6124358161280f565b600081815260016020526040812055611064565b600082600001828154811061246e57634e487b7160e01b600052603260045260246000fd5b9060005260206000200154905092915050565b600081815260018301602052604081205480156125945760006124a56001836132f2565b85549091506000906124b9906001906132f2565b905081811461253a5760008660000182815481106124e757634e487b7160e01b600052603260045260246000fd5b906000526020600020015490508087600001848154811061251857634e487b7160e01b600052603260045260246000fd5b6000918252602080832090910192909255918252600188019052604090208390555b855486908061255957634e487b7160e01b600052603160045260246000fd5b600190038181906000526020600020016000905590558560010160008681526020019081526020016000206000905560019350505050610fcb565b6000915050610fcb565b6125a883836128b7565b6125b56000848484612620565b610e2c5760405162461bcd60e51b8152600401610c5c90613204565b600081815260018301602052604081205461261857508154600181810184556000848152602080822090930184905584548482528286019093526040902091909155610fcb565b506000610fcb565b60006001600160a01b0384163b1561272257604051630a85bd0160e11b81526001600160a01b0385169063150b7a02906126649033908990889088906004016131b4565b602060405180830381600087803b15801561267e57600080fd5b505af19250505080156126ae575060408051601f3d908101601f191682019092526126ab91810190612f4b565b60015b612708573d8080156126dc576040519150601f19603f3d011682016040523d82523d6000602084013e6126e1565b606091505b5080516127005760405162461bcd60e51b8152600401610c5c90613204565b805181602001fd5b6001600160e01b031916630a85bd0160e11b149050611aa3565b506001949350505050565b60006001600160e01b0319821663780e9d6360e01b1480610b4d5750610b4d82612a06565b6001600160a01b0383166127ad576127a881600a80546000838152600b60205260408120829055600182018355919091527fc65a7bb8d6351c1cf70c95a316cc6a92839c986682d98bc35f958f4883f9d2a80155565b6127d0565b816001600160a01b0316836001600160a01b0316146127d0576127d08382612a46565b6001600160a01b0382166127ec576127e781612ae3565b610e2c565b826001600160a01b0316826001600160a01b031614610e2c57610e2c8282612bbc565b600061281a8261120a565b90506128288160008461223f565b612833600083611946565b6001600160a01b038116600090815260056020526040812080546001929061285c9084906132f2565b909155505060008281526004602052604080822080546001600160a01b0319169055518391906001600160a01b038416907fddf252ad1be2c89b69c2b068fc378daa952ba7f163c4a11628f55a4df523b3ef908390a461104b565b6001600160a01b03821661290d5760405162461bcd60e51b815260206004820181905260248201527f4552433732313a206d696e7420746f20746865207a65726f20616464726573736044820152606401610c5c565b6000818152600460205260409020546001600160a01b0316156129725760405162461bcd60e51b815260206004820152601c60248201527f4552433732313a20746f6b656e20616c7265616479206d696e746564000000006044820152606401610c5c565b61297e6000838361223f565b6001600160a01b03821660009081526005602052604081208054600192906129a79084906132a7565b909155505060008181526004602052604080822080546001600160a01b0319166001600160a01b03861690811790915590518392907fddf252ad1be2c89b69c2b068fc378daa952ba7f163c4a11628f55a4df523b3ef908290a461104b565b60006001600160e01b031982166380ac58cd60e01b1480612a3757506001600160e01b03198216635b5e139f60e01b145b80610b4d5750610b4d82612c00565b60006001612a5384611439565b612a5d91906132f2565b600083815260096020526040902054909150808214612ab0576001600160a01b03841660009081526008602090815260408083208584528252808320548484528184208190558352600990915290208190555b5060009182526009602090815260408084208490556001600160a01b039094168352600881528383209183525290812055565b600a54600090612af5906001906132f2565b6000838152600b6020526040812054600a8054939450909284908110612b2b57634e487b7160e01b600052603260045260246000fd5b9060005260206000200154905080600a8381548110612b5a57634e487b7160e01b600052603260045260246000fd5b6000918252602080832090910192909255828152600b9091526040808220849055858252812055600a805480612ba057634e487b7160e01b600052603160045260246000fd5b6001900381819060005260206000200160009055905550505050565b6000612bc783611439565b6001600160a01b039093166000908152600860209081526040808320868452825280832085905593825260099052919091209190915550565b60006001600160e01b0319821663152a902d60e11b1480610b4d57506301ffc9a760e01b6001600160e01b0319831614610b4d565b828054612c419061334c565b90600052602060002090601f016020900481019282612c635760008555612ca9565b82601f10612c7c5782800160ff19823516178555612ca9565b82800160010185558215612ca9579182015b82811115612ca9578235825591602001919060010190612c8e565b50612cb5929150612cb9565b5090565b5b80821115612cb55760008155600101612cba565b60008083601f840112612cdf578182fd5b50813567ffffffffffffffff811115612cf6578182fd5b602083019150836020828501011115610f0a57600080fd5b600060208284031215612d1f578081fd5b8135611fde816133f8565b600060208284031215612d3b578081fd5b8151611fde816133f8565b60008060408385031215612d58578081fd5b8235612d63816133f8565b91506020830135612d73816133f8565b809150509250929050565b600080600060608486031215612d92578081fd5b8335612d9d816133f8565b92506020840135612dad816133f8565b929592945050506040919091013590565b60008060008060808587031215612dd3578081fd5b8435612dde816133f8565b93506020850135612dee816133f8565b925060408501359150606085013567ffffffffffffffff80821115612e11578283fd5b818701915087601f830112612e24578283fd5b813581811115612e3657612e366133e2565b604051601f8201601f19908116603f01168101908382118183101715612e5e57612e5e6133e2565b816040528281528a6020848701011115612e76578586fd5b82602086016020830137918201602001949094529598949750929550505050565b60008060408385031215612ea9578182fd5b8235612eb4816133f8565b915060208301358015158114612d73578182fd5b60008060408385031215612eda578182fd5b8235612ee5816133f8565b946020939093013593505050565b600060208284031215612f04578081fd5b5035919050565b60008060408385031215612f1d578182fd5b823591506020830135612d73816133f8565b600060208284031215612f40578081fd5b8135611fde8161340d565b600060208284031215612f5c578081fd5b8151611fde8161340d565b60008060208385031215612f79578182fd5b823567ffffffffffffffff811115612f8f578283fd5b612f9b85828601612cce565b90969095509350505050565b600060208284031215612fb8578081fd5b5051919050565b600080600060408486031215612fd3578081fd5b83359250602084013567ffffffffffffffff811115612ff0578182fd5b612ffc86828701612cce565b9497909650939450505050565b6000806040838503121561301b578182fd5b50508035926020909101359150565b60006020828403121561303b578081fd5b81356001600160601b0381168114611fde578182fd5b60008151808452613069816020860160208601613309565b601f01601f19169290920160200192915050565b6000815161308f818560208601613309565b9290920192915050565b82546000908190600281046001808316806130b557607f831692505b60208084108214156130d557634e487b7160e01b87526022600452602487fd5b8180156130e957600181146130fa57613126565b60ff19861689528489019650613126565b60008b815260209020885b8681101561311e5781548b820152908501908301613105565b505084890196505b505050505050613136818561307d565b95945050505050565b60007f416363657373436f6e74726f6c3a206163636f756e742000000000000000000082528351613177816017850160208801613309565b7001034b99036b4b9b9b4b733903937b6329607d1b60179184019182015283516131a8816028840160208801613309565b01602801949350505050565b6001600160a01b03858116825284166020820152604081018390526080606082018190526000906131e790830184613051565b9695505050505050565b600060208252611fde6020830184613051565b60208082526032908201527f4552433732313a207472616e7366657220746f206e6f6e20455243373231526560408201527131b2b4bb32b91034b6b83632b6b2b73a32b960711b606082015260800190565b60208082526031908201527f4552433732313a207472616e736665722063616c6c6572206973206e6f74206f6040820152701ddb995c881b9bdc88185c1c1c9bdd9959607a1b606082015260800190565b600082198211156132ba576132ba6133b6565b500190565b6000826132ce576132ce6133cc565b500490565b60008160001904831182151516156132ed576132ed6133b6565b500290565b600082821015613304576133046133b6565b500390565b60005b8381101561332457818101518382015260200161330c565b838111156112045750506000910152565b600081613344576133446133b6565b506000190190565b60028104600182168061336057607f821691505b6020821081141561338157634e487b7160e01b600052602260045260246000fd5b50919050565b600060001982141561339b5761339b6133b6565b5060010190565b6000826133b1576133b16133cc565b500690565b634e487b7160e01b600052601160045260246000fd5b634e487b7160e01b600052601260045260246000fd5b634e487b7160e01b600052604160045260246000fd5b6001600160a01b038116811461106457600080fd5b6001600160e01b03198116811461106457600080fdfea2646970667358221220d50a394b7fd1c26886f9ff25a51a7833d3f2a8003ab1c2f262bc6ab75004215664736f6c63430008020033",
  "linkReferences": {},
  "deployedLinkReferences": {}
}