{
  "_format": "hh-sol-artifact-1",
  "contractName": "Solids",
  "sourceName": "contracts/Solids.sol",
  "abi": [
    {
      "inputs": [
        {
          "internalType": "address",
          "name": "coreAddress",
          "type": "address"
        },
        {
          "internalType": "address",
          "name": "shopAddress",
          "type": "address"
        }
      ],
      "stateMutability": "nonpayable",
      "type": "constructor"
    },
    {
      "anonymous": false,
      "inputs": [
        {
          "indexed": true,
          "internalType": "address",
          "name": "owner",
          "type": "address"
        },
        {
          "indexed": true,
          "internalType": "address",
          "name": "approved",
          "type": "address"
        },
        {
          "indexed": true,
          "internalType": "uint256",
          "name": "tokenId",
          "type": "uint256"
        }
      ],
      "name": "Approval",
      "type": "event"
    },
    {
      "anonymous": false,
      "inputs": [
        {
          "indexed": true,
          "internalType": "address",
          "name": "owner",
          "type": "address"
        },
        {
          "indexed": true,
          "internalType": "address",
          "name": "operator",
          "type": "address"
        },
        {
          "indexed": false,
          "internalType": "bool",
          "name": "approved",
          "type": "bool"
        }
      ],
      "name": "ApprovalForAll",
      "type": "event"
    },
    {
      "anonymous": false,
      "inputs": [
        {
          "indexed": true,
          "internalType": "bytes32",
          "name": "role",
          "type": "bytes32"
        },
        {
          "indexed": true,
          "internalType": "bytes32",
          "name": "previousAdminRole",
          "type": "bytes32"
        },
        {
          "indexed": true,
          "internalType": "bytes32",
          "name": "newAdminRole",
          "type": "bytes32"
        }
      ],
      "name": "RoleAdminChanged",
      "type": "event"
    },
    {
      "anonymous": false,
      "inputs": [
        {
          "indexed": true,
          "internalType": "bytes32",
          "name": "role",
          "type": "bytes32"
        },
        {
          "indexed": true,
          "internalType": "address",
          "name": "account",
          "type": "address"
        },
        {
          "indexed": true,
          "internalType": "address",
          "name": "sender",
          "type": "address"
        }
      ],
      "name": "RoleGranted",
      "type": "event"
    },
    {
      "anonymous": false,
      "inputs": [
        {
          "indexed": true,
          "internalType": "bytes32",
          "name": "role",
          "type": "bytes32"
        },
        {
          "indexed": true,
          "internalType": "address",
          "name": "account",
          "type": "address"
        },
        {
          "indexed": true,
          "internalType": "address",
          "name": "sender",
          "type": "address"
        }
      ],
      "name": "RoleRevoked",
      "type": "event"
    },
    {
      "anonymous": false,
      "inputs": [
        {
          "indexed": true,
          "internalType": "address",
          "name": "from",
          "type": "address"
        },
        {
          "indexed": true,
          "internalType": "address",
          "name": "to",
          "type": "address"
        },
        {
          "indexed": true,
          "internalType": "uint256",
          "name": "tokenId",
          "type": "uint256"
        }
      ],
      "name": "Transfer",
      "type": "event"
    },
    {
      "anonymous": false,
      "inputs": [
        {
          "indexed": false,
          "internalType": "address",
          "name": "_from",
          "type": "address"
        },
        {
          "indexed": false,
          "internalType": "uint256",
          "name": "_amount",
          "type": "uint256"
        }
      ],
      "name": "recievedFunds",
      "type": "event"
    },
    {
      "inputs": [],
      "name": "DEFAULT_ADMIN_ROLE",
      "outputs": [
        {
          "internalType": "bytes32",
          "name": "",
          "type": "bytes32"
        }
      ],
      "stateMutability": "view",
      "type": "function"
    },
    {
      "inputs": [],
      "name": "MINTER_ROLE",
      "outputs": [
        {
          "internalType": "bytes32",
          "name": "",
          "type": "bytes32"
        }
      ],
      "stateMutability": "view",
      "type": "function"
    },
    {
      "inputs": [],
      "name": "TOKEN_LIMIT",
      "outputs": [
        {
          "internalType": "uint256",
          "name": "",
          "type": "uint256"
        }
      ],
      "stateMutability": "view",
      "type": "function"
    },
    {
      "inputs": [],
      "name": "_contractURI",
      "outputs": [
        {
          "internalType": "string",
          "name": "",
          "type": "string"
        }
      ],
      "stateMutability": "view",
      "type": "function"
    },
    {
      "inputs": [],
      "name": "additionalPayee",
      "outputs": [
        {
          "internalType": "address payable",
          "name": "",
          "type": "address"
        }
      ],
      "stateMutability": "view",
      "type": "function"
    },
    {
      "inputs": [
        {
          "internalType": "uint96",
          "name": "_percentage",
          "type": "uint96"
        }
      ],
      "name": "additionalPayeePercent",
      "outputs": [],
      "stateMutability": "nonpayable",
      "type": "function"
    },
    {
      "inputs": [],
      "name": "additionalPayeePercentage",
      "outputs": [
        {
          "internalType": "uint256",
          "name": "",
          "type": "uint256"
        }
      ],
      "stateMutability": "view",
      "type": "function"
    },
    {
      "inputs": [
        {
          "internalType": "uint96",
          "name": "_percentage",
          "type": "uint96"
        }
      ],
      "name": "additionalPayeeRoyaltyPercent",
      "outputs": [],
      "stateMutability": "nonpayable",
      "type": "function"
    },
    {
      "inputs": [],
      "name": "additionalPayeeRoyaltyPercentage",
      "outputs": [
        {
          "internalType": "uint256",
          "name": "",
          "type": "uint256"
        }
      ],
      "stateMutability": "view",
      "type": "function"
    },
    {
      "inputs": [
        {
          "internalType": "address",
          "name": "to",
          "type": "address"
        },
        {
          "internalType": "uint256",
          "name": "tokenId",
          "type": "uint256"
        }
      ],
      "name": "approve",
      "outputs": [],
      "stateMutability": "nonpayable",
      "type": "function"
    },
    {
      "inputs": [],
      "name": "artist",
      "outputs": [
        {
          "internalType": "string",
          "name": "",
          "type": "string"
        }
      ],
      "stateMutability": "view",
      "type": "function"
    },
    {
      "inputs": [],
      "name": "artistAddress",
      "outputs": [
        {
          "internalType": "address payable",
          "name": "",
          "type": "address"
        }
      ],
      "stateMutability": "view",
      "type": "function"
    },
    {
      "inputs": [
        {
          "internalType": "uint256",
          "name": "",
          "type": "uint256"
        }
      ],
      "name": "artworkId",
      "outputs": [
        {
          "internalType": "uint256",
          "name": "",
          "type": "uint256"
        }
      ],
      "stateMutability": "view",
      "type": "function"
    },
    {
      "inputs": [
        {
          "internalType": "address",
          "name": "owner",
          "type": "address"
        }
      ],
      "name": "balanceOf",
      "outputs": [
        {
          "internalType": "uint256",
          "name": "",
          "type": "uint256"
        }
      ],
      "stateMutability": "view",
      "type": "function"
    },
    {
      "inputs": [],
      "name": "baseURI",
      "outputs": [
        {
          "internalType": "string",
          "name": "",
          "type": "string"
        }
      ],
      "stateMutability": "view",
      "type": "function"
    },
    {
      "inputs": [
        {
          "internalType": "uint256",
          "name": "tokenId",
          "type": "uint256"
        }
      ],
      "name": "burn",
      "outputs": [],
      "stateMutability": "nonpayable",
      "type": "function"
    },
    {
      "inputs": [],
      "name": "checkPool",
      "outputs": [
        {
          "internalType": "uint256",
          "name": "",
          "type": "uint256"
        }
      ],
      "stateMutability": "view",
      "type": "function"
    },
    {
      "inputs": [],
      "name": "contractURI",
      "outputs": [
        {
          "internalType": "string",
          "name": "",
          "type": "string"
        }
      ],
      "stateMutability": "view",
      "type": "function"
    },
    {
      "inputs": [],
      "name": "description",
      "outputs": [
        {
          "internalType": "string",
          "name": "",
          "type": "string"
        }
      ],
      "stateMutability": "view",
      "type": "function"
    },
    {
      "inputs": [],
      "name": "getAdditionalPayee",
      "outputs": [
        {
          "internalType": "address payable",
          "name": "",
          "type": "address"
        }
      ],
      "stateMutability": "view",
      "type": "function"
    },
    {
      "inputs": [],
      "name": "getAdditionalPayeePercentage",
      "outputs": [
        {
          "internalType": "uint256",
          "name": "",
          "type": "uint256"
        }
      ],
      "stateMutability": "view",
      "type": "function"
    },
    {
      "inputs": [
        {
          "internalType": "uint256",
          "name": "tokenId",
          "type": "uint256"
        }
      ],
      "name": "getApproved",
      "outputs": [
        {
          "internalType": "address",
          "name": "",
          "type": "address"
        }
      ],
      "stateMutability": "view",
      "type": "function"
    },
    {
      "inputs": [],
      "name": "getArtistAddress",
      "outputs": [
        {
          "internalType": "address payable",
          "name": "",
          "type": "address"
        }
      ],
      "stateMutability": "view",
      "type": "function"
    },
    {
      "inputs": [
        {
          "internalType": "bytes32",
          "name": "role",
          "type": "bytes32"
        }
      ],
      "name": "getRoleAdmin",
      "outputs": [
        {
          "internalType": "bytes32",
          "name": "",
          "type": "bytes32"
        }
      ],
      "stateMutability": "view",
      "type": "function"
    },
    {
      "inputs": [],
      "name": "getTokenLimit",
      "outputs": [
        {
          "internalType": "uint256",
          "name": "",
          "type": "uint256"
        }
      ],
      "stateMutability": "view",
      "type": "function"
    },
    {
      "inputs": [
        {
          "internalType": "bytes32",
          "name": "role",
          "type": "bytes32"
        },
        {
          "internalType": "address",
          "name": "account",
          "type": "address"
        }
      ],
      "name": "grantRole",
      "outputs": [],
      "stateMutability": "nonpayable",
      "type": "function"
    },
    {
      "inputs": [
        {
          "internalType": "bytes32",
          "name": "role",
          "type": "bytes32"
        },
        {
          "internalType": "address",
          "name": "account",
          "type": "address"
        }
      ],
      "name": "hasRole",
      "outputs": [
        {
          "internalType": "bool",
          "name": "",
          "type": "bool"
        }
      ],
      "stateMutability": "view",
      "type": "function"
    },
    {
      "inputs": [
        {
          "internalType": "uint256",
          "name": "start",
          "type": "uint256"
        },
        {
          "internalType": "uint256",
          "name": "end",
          "type": "uint256"
        }
      ],
      "name": "initPool",
      "outputs": [],
      "stateMutability": "nonpayable",
      "type": "function"
    },
    {
      "inputs": [
        {
          "internalType": "address",
          "name": "owner",
          "type": "address"
        },
        {
          "internalType": "address",
          "name": "operator",
          "type": "address"
        }
      ],
      "name": "isApprovedForAll",
      "outputs": [
        {
          "internalType": "bool",
          "name": "",
          "type": "bool"
        }
      ],
      "stateMutability": "view",
      "type": "function"
    },
    {
      "inputs": [],
      "name": "license",
      "outputs": [
        {
          "internalType": "string",
          "name": "",
          "type": "string"
        }
      ],
      "stateMutability": "view",
      "type": "function"
    },
    {
      "inputs": [],
      "name": "lock",
      "outputs": [],
      "stateMutability": "nonpayable",
      "type": "function"
    },
    {
      "inputs": [],
      "name": "locked",
      "outputs": [
        {
          "internalType": "bool",
          "name": "",
          "type": "bool"
        }
      ],
      "stateMutability": "view",
      "type": "function"
    },
    {
      "inputs": [
        {
          "internalType": "address",
          "name": "to",
          "type": "address"
        }
      ],
      "name": "mint",
      "outputs": [
        {
          "internalType": "uint256",
          "name": "tokenId",
          "type": "uint256"
        }
      ],
      "stateMutability": "nonpayable",
      "type": "function"
    },
    {
      "inputs": [
        {
          "internalType": "address",
          "name": "to",
          "type": "address"
        },
        {
          "internalType": "uint256",
          "name": "infiniteId",
          "type": "uint256"
        }
      ],
      "name": "mintBonus",
      "outputs": [
        {
          "internalType": "uint256",
          "name": "bonusId",
          "type": "uint256"
        }
      ],
      "stateMutability": "nonpayable",
      "type": "function"
    },
    {
      "inputs": [],
      "name": "name",
      "outputs": [
        {
          "internalType": "string",
          "name": "",
          "type": "string"
        }
      ],
      "stateMutability": "view",
      "type": "function"
    },
    {
      "inputs": [
        {
          "internalType": "uint256",
          "name": "tokenId",
          "type": "uint256"
        }
      ],
      "name": "ownerOf",
      "outputs": [
        {
          "internalType": "address",
          "name": "",
          "type": "address"
        }
      ],
      "stateMutability": "view",
      "type": "function"
    },
    {
      "inputs": [
        {
          "internalType": "bytes32",
          "name": "role",
          "type": "bytes32"
        },
        {
          "internalType": "address",
          "name": "account",
          "type": "address"
        }
      ],
      "name": "renounceRole",
      "outputs": [],
      "stateMutability": "nonpayable",
      "type": "function"
    },
    {
      "inputs": [
        {
          "internalType": "bytes32",
          "name": "role",
          "type": "bytes32"
        },
        {
          "internalType": "address",
          "name": "account",
          "type": "address"
        }
      ],
      "name": "revokeRole",
      "outputs": [],
      "stateMutability": "nonpayable",
      "type": "function"
    },
    {
      "inputs": [
        {
          "internalType": "uint256",
          "name": "_tokenId",
          "type": "uint256"
        },
        {
          "internalType": "uint256",
          "name": "_salePrice",
          "type": "uint256"
        }
      ],
      "name": "royaltyInfo",
      "outputs": [
        {
          "internalType": "address",
          "name": "",
          "type": "address"
        },
        {
          "internalType": "uint256",
          "name": "",
          "type": "uint256"
        }
      ],
      "stateMutability": "view",
      "type": "function"
    },
    {
      "inputs": [],
      "name": "royaltyPercent",
      "outputs": [
        {
          "internalType": "uint96",
          "name": "",
          "type": "uint96"
        }
      ],
      "stateMutability": "view",
      "type": "function"
    },
    {
      "inputs": [
        {
          "internalType": "address",
          "name": "from",
          "type": "address"
        },
        {
          "internalType": "address",
          "name": "to",
          "type": "address"
        },
        {
          "internalType": "uint256",
          "name": "tokenId",
          "type": "uint256"
        }
      ],
      "name": "safeTransferFrom",
      "outputs": [],
      "stateMutability": "nonpayable",
      "type": "function"
    },
    {
      "inputs": [
        {
          "internalType": "address",
          "name": "from",
          "type": "address"
        },
        {
          "internalType": "address",
          "name": "to",
          "type": "address"
        },
        {
          "internalType": "uint256",
          "name": "tokenId",
          "type": "uint256"
        },
        {
          "internalType": "bytes",
          "name": "_data",
          "type": "bytes"
        }
      ],
      "name": "safeTransferFrom",
      "outputs": [],
      "stateMutability": "nonpayable",
      "type": "function"
    },
    {
      "inputs": [
        {
          "internalType": "uint256",
          "name": "",
          "type": "uint256"
        }
      ],
      "name": "scripts",
      "outputs": [
        {
          "internalType": "string",
          "name": "",
          "type": "string"
        }
      ],
      "stateMutability": "view",
      "type": "function"
    },
    {
      "inputs": [
        {
          "internalType": "address",
          "name": "operator",
          "type": "address"
        },
        {
          "internalType": "bool",
          "name": "approved",
          "type": "bool"
        }
      ],
      "name": "setApprovalForAll",
      "outputs": [],
      "stateMutability": "nonpayable",
      "type": "function"
    },
    {
      "inputs": [
        {
          "internalType": "string",
          "name": "_uri",
          "type": "string"
        }
      ],
      "name": "setBaseURI",
      "outputs": [],
      "stateMutability": "nonpayable",
      "type": "function"
    },
    {
      "inputs": [
        {
          "internalType": "string",
          "name": "_uri",
          "type": "string"
        }
      ],
      "name": "setContractURI",
      "outputs": [],
      "stateMutability": "nonpayable",
      "type": "function"
    },
    {
      "inputs": [
        {
          "internalType": "string",
          "name": "_desc",
          "type": "string"
        }
      ],
      "name": "setDescription",
      "outputs": [],
      "stateMutability": "nonpayable",
      "type": "function"
    },
    {
      "inputs": [
        {
          "internalType": "uint96",
          "name": "_percentage",
          "type": "uint96"
        }
      ],
      "name": "setRoyaltyPercent",
      "outputs": [],
      "stateMutability": "nonpayable",
      "type": "function"
    },
    {
      "inputs": [
        {
          "internalType": "uint256",
          "name": "index",
          "type": "uint256"
        },
        {
          "internalType": "string",
          "name": "script",
          "type": "string"
        }
      ],
      "name": "setScript",
      "outputs": [],
      "stateMutability": "nonpayable",
      "type": "function"
    },
    {
      "inputs": [
        {
          "internalType": "string",
          "name": "_url",
          "type": "string"
        }
      ],
      "name": "setWebsite",
      "outputs": [],
      "stateMutability": "nonpayable",
      "type": "function"
    },
    {
      "inputs": [
        {
          "internalType": "bytes4",
          "name": "interfaceId",
          "type": "bytes4"
        }
      ],
      "name": "supportsInterface",
      "outputs": [
        {
          "internalType": "bool",
          "name": "",
          "type": "bool"
        }
      ],
      "stateMutability": "view",
      "type": "function"
    },
    {
      "inputs": [],
      "name": "symbol",
      "outputs": [
        {
          "internalType": "string",
          "name": "",
          "type": "string"
        }
      ],
      "stateMutability": "view",
      "type": "function"
    },
    {
      "inputs": [
        {
          "internalType": "uint256",
          "name": "index",
          "type": "uint256"
        }
      ],
      "name": "tokenByIndex",
      "outputs": [
        {
          "internalType": "uint256",
          "name": "",
          "type": "uint256"
        }
      ],
      "stateMutability": "view",
      "type": "function"
    },
    {
      "inputs": [
        {
          "internalType": "address",
          "name": "owner",
          "type": "address"
        },
        {
          "internalType": "uint256",
          "name": "index",
          "type": "uint256"
        }
      ],
      "name": "tokenOfOwnerByIndex",
      "outputs": [
        {
          "internalType": "uint256",
          "name": "",
          "type": "uint256"
        }
      ],
      "stateMutability": "view",
      "type": "function"
    },
    {
      "inputs": [
        {
          "internalType": "uint256",
          "name": "tokenId",
          "type": "uint256"
        }
      ],
      "name": "tokenURI",
      "outputs": [
        {
          "internalType": "string",
          "name": "",
          "type": "string"
        }
      ],
      "stateMutability": "view",
      "type": "function"
    },
    {
      "inputs": [],
      "name": "totalSupply",
      "outputs": [
        {
          "internalType": "uint256",
          "name": "",
          "type": "uint256"
        }
      ],
      "stateMutability": "view",
      "type": "function"
    },
    {
      "inputs": [
        {
          "internalType": "address",
          "name": "from",
          "type": "address"
        },
        {
          "internalType": "address",
          "name": "to",
          "type": "address"
        },
        {
          "internalType": "uint256",
          "name": "tokenId",
          "type": "uint256"
        }
      ],
      "name": "transferFrom",
      "outputs": [],
      "stateMutability": "nonpayable",
      "type": "function"
    },
    {
      "inputs": [],
      "name": "website",
      "outputs": [
        {
          "internalType": "string",
          "name": "",
          "type": "string"
        }
      ],
      "stateMutability": "view",
      "type": "function"
    },
    {
      "inputs": [],
      "name": "withdraw",
      "outputs": [],
      "stateMutability": "nonpayable",
      "type": "function"
    },
    {
      "stateMutability": "payable",
      "type": "receive"
    }
  ],
  "bytecode": "0x6101f4600d556014805474e31a7d022e545eced32d276ca880649852c91353006001600160a81b0319909116179055601580546001600160a01b03191673268b87e4f6b7e7beb58e3128138d4f6b768e1b1717905560646016819055601755601880546001600160601b031916611d4c17905561010060405260506080818152906200393360a03980516200009d9160199160209091019062000469565b5060408051808201909152600e8082526d495046532048415348204845524560901b6020909201918252620000d591601a9162000469565b50604080518082019091526003808252622320a960e91b60209092019182526200010291601b9162000469565b506040805180820190915260158082527f612073616d706c65204e465420666f722046494e45000000000000000000000060209092019182526200014991601c9162000469565b506040805180820190915260148082527f68747470733a2f2f66696e652e6469676974616c00000000000000000000000060209092019182526200019091601d9162000469565b506040805180820190915260038082526213525560ea1b6020909201918252620001bd91601e9162000469565b50348015620001cb57600080fd5b506040516200398338038062003983833981016040819052620001ee916200052c565b604080518082018252600680825265534f4c49445360d01b6020808401828152855180870190965292855284015281519192916200022f9160029162000469565b5080516200024590600390602084019062000469565b506200025791506000905033620002bf565b620002837f9f2df0fed2c77648de5860a4cc508cd0818c85b8b8a1ab4ceeef8d981c8956a682620002bf565b600e80546001600160a01b0319166001600160a01b038416179055601854620002b79030906001600160601b031662000364565b5050620005a1565b6000828152600c602090815260408083206001600160a01b038516845290915290205460ff1662000360576000828152600c602090815260408083206001600160a01b03851684529091529020805460ff191660011790556200031f3390565b6001600160a01b0316816001600160a01b0316837f2f8788117e7eff1d82e926ec794901d17c78024a50270940304540a733656f0d60405160405180910390a45b5050565b6127106001600160601b0382161115620003d85760405162461bcd60e51b815260206004820152602a60248201527f455243323938313a20726f79616c7479206665652077696c6c206578636565646044820152692073616c65507269636560b01b60648201526084015b60405180910390fd5b6001600160a01b038216620004305760405162461bcd60e51b815260206004820152601960248201527f455243323938313a20696e76616c6964207265636569766572000000000000006044820152606401620003cf565b604080518082019091526001600160a01b039092168083526001600160601b039091166020909201829052600160a01b90910217600055565b828054620004779062000564565b90600052602060002090601f0160209004810192826200049b5760008555620004e6565b82601f10620004b657805160ff1916838001178555620004e6565b82800160010185558215620004e6579182015b82811115620004e6578251825591602001919060010190620004c9565b50620004f4929150620004f8565b5090565b5b80821115620004f45760008155600101620004f9565b80516001600160a01b03811681146200052757600080fd5b919050565b600080604083850312156200054057600080fd5b6200054b836200050f565b91506200055b602084016200050f565b90509250929050565b600181811c908216806200057957607f821691505b602082108114156200059b57634e487b7160e01b600052602260045260246000fd5b50919050565b61338280620005b16000396000f3fe6080604052600436106103905760003560e01c80636c0360eb116101dc578063b88d4fde11610102578063d7eb3f3a116100a0578063ea099ad91161006f578063ea099ad914610ad6578063f83d08ba14610aec578063f87f44b914610b01578063f9f3bfd814610b2157600080fd5b8063d7eb3f3a14610a33578063d9a7c61d14610a58578063e8a3d48514610a78578063e985e9c514610a8d57600080fd5b8063c87b56dd116100dc578063c87b56dd146109a5578063cf309012146109c5578063d5391393146109df578063d547741f14610a1357600080fd5b8063b88d4fde1461095b578063beb0a4161461097b578063c0e727401461099057600080fd5b806390c3f38f1161017a5780639e1b0045116101495780639e1b0045146108ce5780639f67756d146108ee578063a217fddf14610926578063a22cb4651461093b57600080fd5b806390c3f38f1461085957806391d1485414610879578063938e3d7b1461089957806395d89b41146108b957600080fd5b806371199d30116101b657806371199d30146107e15780637284e41614610801578063867644d9146108165780638cbe8d801461083657600080fd5b80636c0360eb1461078e5780636ff314c7146107a357806370a08231146107c157600080fd5b80632f745c59116102c15780634771218a1161025f57806359748cb21161022e57806359748cb2146107195780636352211e146107395780636a627842146107595780636b87d24c1461077957600080fd5b80634771218a146106a45780634bc46a82146106b95780634f6ccce7146106d957806355f804b3146106f957600080fd5b806340138ff11161029b57806340138ff11461063957806342842e0e1461064f57806342966c681461066f57806343bc16121461068f57600080fd5b80632f745c59146105e457806336568abe146106045780633ccfd60b1461062457600080fd5b806318160ddd1161032e5780632848558611610308578063284855861461055b5780632a55205a146105705780632cc88974146105af5780632f2ff15d146105c457600080fd5b806318160ddd146104f657806323b872dd1461050b578063248a9ca31461052b57600080fd5b8063081812fc1161036a578063081812fc1461044f57806308ff7f6114610487578063095ea7b3146104a7578063176f5b09146104c957600080fd5b806301ffc9a7146103d4578063031bd4c41461040957806306fdde031461042d57600080fd5b366103cf57604080513381523460208201527ffb5cb5fc5900f14be0f619816129d1490c275a13734b28ae77072a2f5d676f57910160405180910390a1005b600080fd5b3480156103e057600080fd5b506103f46103ef366004612bc4565b610b41565b60405190151581526020015b60405180910390f35b34801561041557600080fd5b5061041f600d5481565b604051908152602001610400565b34801561043957600080fd5b50610442610b52565b6040516104009190612c39565b34801561045b57600080fd5b5061046f61046a366004612c4c565b610be4565b6040516001600160a01b039091168152602001610400565b34801561049357600080fd5b506104426104a2366004612c4c565b610c7e565b3480156104b357600080fd5b506104c76104c2366004612c7a565b610d18565b005b3480156104d557600080fd5b5061041f6104e4366004612c4c565b60106020526000908152604090205481565b34801561050257600080fd5b50600a5461041f565b34801561051757600080fd5b506104c7610526366004612ca6565b610e2e565b34801561053757600080fd5b5061041f610546366004612c4c565b6000908152600c602052604090206001015490565b34801561056757600080fd5b50600d5461041f565b34801561057c57600080fd5b5061059061058b366004612ce7565b610e60565b604080516001600160a01b039093168352602083019190915201610400565b3480156105bb57600080fd5b5060165461041f565b3480156105d057600080fd5b506104c76105df366004612d09565b610f0e565b3480156105f057600080fd5b5061041f6105ff366004612c7a565b610f34565b34801561061057600080fd5b506104c761061f366004612d09565b610fca565b34801561063057600080fd5b506104c7611048565b34801561064557600080fd5b5061041f60165481565b34801561065b57600080fd5b506104c761066a366004612ca6565b611060565b34801561067b57600080fd5b506104c761068a366004612c4c565b61107b565b34801561069b57600080fd5b506104426110f2565b3480156106b057600080fd5b5061041f6110ff565b3480156106c557600080fd5b506104c76106d4366004612d39565b611110565b3480156106e557600080fd5b5061041f6106f4366004612c4c565b611144565b34801561070557600080fd5b506104c7610714366004612da4565b6111d7565b34801561072557600080fd5b5060155461046f906001600160a01b031681565b34801561074557600080fd5b5061046f610754366004612c4c565b6111f5565b34801561076557600080fd5b5061041f610774366004612de6565b61126c565b34801561078557600080fd5b506104426113fb565b34801561079a57600080fd5b50610442611408565b3480156107af57600080fd5b506015546001600160a01b031661046f565b3480156107cd57600080fd5b5061041f6107dc366004612de6565b611415565b3480156107ed57600080fd5b506104c76107fc366004612e03565b61149c565b34801561080d57600080fd5b506104426114c8565b34801561082257600080fd5b506104c7610831366004612d39565b6114d5565b34801561084257600080fd5b5060145461010090046001600160a01b031661046f565b34801561086557600080fd5b506104c7610874366004612da4565b6114f0565b34801561088557600080fd5b506103f4610894366004612d09565b611508565b3480156108a557600080fd5b506104c76108b4366004612da4565b611533565b3480156108c557600080fd5b5061044261154b565b3480156108da57600080fd5b506104c76108e9366004612ce7565b61155a565b3480156108fa57600080fd5b5060185461090e906001600160601b031681565b6040516001600160601b039091168152602001610400565b34801561093257600080fd5b5061041f600081565b34801561094757600080fd5b506104c7610956366004612e4f565b61169f565b34801561096757600080fd5b506104c7610976366004612e98565b6116aa565b34801561098757600080fd5b506104426116dc565b34801561099c57600080fd5b506104426116e9565b3480156109b157600080fd5b506104426109c0366004612c4c565b6116f6565b3480156109d157600080fd5b506014546103f49060ff1681565b3480156109eb57600080fd5b5061041f7f9f2df0fed2c77648de5860a4cc508cd0818c85b8b8a1ab4ceeef8d981c8956a681565b348015610a1f57600080fd5b506104c7610a2e366004612d09565b61173b565b348015610a3f57600080fd5b5060145461046f9061010090046001600160a01b031681565b348015610a6457600080fd5b5061041f610a73366004612c7a565b611761565b348015610a8457600080fd5b50610442611852565b348015610a9957600080fd5b506103f4610aa8366004612f78565b6001600160a01b03918216600090815260076020908152604080832093909416825291909152205460ff1690565b348015610ae257600080fd5b5061041f60175481565b348015610af857600080fd5b506104c7611861565b348015610b0d57600080fd5b506104c7610b1c366004612da4565b6118ca565b348015610b2d57600080fd5b506104c7610b3c366004612d39565b6118e2565b6000610b4c826118fd565b92915050565b606060028054610b6190612fa6565b80601f0160208091040260200160405190810160405280929190818152602001828054610b8d90612fa6565b8015610bda5780601f10610baf57610100808354040283529160200191610bda565b820191906000526020600020905b815481529060010190602001808311610bbd57829003601f168201915b5050505050905090565b6000818152600460205260408120546001600160a01b0316610c625760405162461bcd60e51b815260206004820152602c60248201527f4552433732313a20617070726f76656420717565727920666f72206e6f6e657860448201526b34b9ba32b73a103a37b5b2b760a11b60648201526084015b60405180910390fd5b506000908152600660205260409020546001600160a01b031690565b60116020526000908152604090208054610c9790612fa6565b80601f0160208091040260200160405190810160405280929190818152602001828054610cc390612fa6565b8015610d105780601f10610ce557610100808354040283529160200191610d10565b820191906000526020600020905b815481529060010190602001808311610cf357829003601f168201915b505050505081565b6000610d23826111f5565b9050806001600160a01b0316836001600160a01b03161415610d915760405162461bcd60e51b815260206004820152602160248201527f4552433732313a20617070726f76616c20746f2063757272656e74206f776e656044820152603960f91b6064820152608401610c59565b336001600160a01b0382161480610dad5750610dad8133610aa8565b610e1f5760405162461bcd60e51b815260206004820152603860248201527f4552433732313a20617070726f76652063616c6c6572206973206e6f74206f7760448201527f6e6572206e6f7220617070726f76656420666f7220616c6c00000000000000006064820152608401610c59565b610e298383611922565b505050565b610e39335b82611990565b610e555760405162461bcd60e51b8152600401610c5990612fe1565b610e29838383611a87565b60008281526001602090815260408083208151808301909252546001600160a01b038116808352600160a01b9091046001600160601b0316928201929092528291610ed55750604080518082019091526000546001600160a01b0381168252600160a01b90046001600160601b031660208201525b602081015160009061271090610ef4906001600160601b031687613048565b610efe919061307d565b91519350909150505b9250929050565b6000828152600c6020526040902060010154610f2a8133611c2e565b610e298383611c92565b6000610f3f83611415565b8210610fa15760405162461bcd60e51b815260206004820152602b60248201527f455243373231456e756d657261626c653a206f776e657220696e646578206f7560448201526a74206f6620626f756e647360a81b6064820152608401610c59565b506001600160a01b03919091166000908152600860209081526040808320938352929052205490565b6001600160a01b038116331461103a5760405162461bcd60e51b815260206004820152602f60248201527f416363657373436f6e74726f6c3a2063616e206f6e6c792072656e6f756e636560448201526e103937b632b9903337b91039b2b63360891b6064820152608401610c59565b6110448282611d18565b5050565b60006110548133611c2e565b61105d47611d7f565b50565b610e29838383604051806020016040528060008152506116aa565b61108433610e33565b6110e95760405162461bcd60e51b815260206004820152603060248201527f4552433732314275726e61626c653a2063616c6c6572206973206e6f74206f7760448201526f1b995c881b9bdc88185c1c1c9bdd995960821b6064820152608401610c59565b61105d81611f7d565b601b8054610c9790612fa6565b600061110b6012611f86565b905090565b600061111c8133611c2e565b50601880546bffffffffffffffffffffffff19166001600160601b0392909216919091179055565b600061114f600a5490565b82106111b25760405162461bcd60e51b815260206004820152602c60248201527f455243373231456e756d657261626c653a20676c6f62616c20696e646578206f60448201526b7574206f6620626f756e647360a01b6064820152608401610c59565b600a82815481106111c5576111c5613091565b90600052602060002001549050919050565b60006111e38133611c2e565b6111ef601a8484612b15565b50505050565b6000818152600460205260408120546001600160a01b031680610b4c5760405162461bcd60e51b815260206004820152602960248201527f4552433732313a206f776e657220717565727920666f72206e6f6e657869737460448201526832b73a103a37b5b2b760b91b6064820152608401610c59565b60007f9f2df0fed2c77648de5860a4cc508cd0818c85b8b8a1ab4ceeef8d981c8956a66112998133611c2e565b60145460ff166112e15760405162461bcd60e51b81526020600482015260136024820152721cd95d1d1a5b99dcc81b9bdd081b1bd8dad959606a1b6044820152606401610c59565b60006112ed6012611f86565b1161132e5760405162461bcd60e51b8152602060048201526011602482015270185b1b081d1bdad95b9cc81b5a5b9d1959607a1b6044820152606401610c59565b600e546040516329e5d83160e01b8152600481018490524260248201526000916001600160a01b0316906329e5d83190604401602060405180830381865afa15801561137e573d6000803e3d6000fd5b505050506040513d601f19601f820116820180604052508101906113a291906130a7565b905060006113b06012611f86565b6113ba90836130c0565b905060006113c9601283611f90565b600086815260106020526040902081905590506113e7601282611fa3565b506113f28682611faf565b50505050919050565b601e8054610c9790612fa6565b601a8054610c9790612fa6565b60006001600160a01b0382166114805760405162461bcd60e51b815260206004820152602a60248201527f4552433732313a2062616c616e636520717565727920666f7220746865207a65604482015269726f206164647265737360b01b6064820152608401610c59565b506001600160a01b031660009081526005602052604090205490565b60006114a88133611c2e565b60008481526011602052604090206114c1908484612b15565b5050505050565b601c8054610c9790612fa6565b60006114e18133611c2e565b506001600160601b0316601755565b60006114fc8133611c2e565b6111ef601c8484612b15565b6000918252600c602090815260408084206001600160a01b0393909316845291905290205460ff1690565b600061153f8133611c2e565b6111ef60198484612b15565b606060038054610b6190612fa6565b60145460ff16156115a75760405162461bcd60e51b81526020600482015260176024820152761cd95d1d1a5b99dcc8185b1c9958591e481b1bd8dad959604a1b6044820152606401610c59565b808211156116035760405162461bcd60e51b815260206004820152602360248201527f7374617274206d75737420636f6d65206265666f7265206f7220657175616c20604482015262195b9960ea1b6064820152608401610c59565b600061160f83836130d4565b9050600d548161161f6012611f86565b61162991906130eb565b11156116775760405162461bcd60e51b815260206004820152601e60248201527f63616e7420616464206d6f7265207468616e20746f6b656e206c696d697400006044820152606401610c59565b825b828110156111ef5761168c601282611fc9565b508061169781613103565b915050611679565b611044338383611fd5565b6116b43383611990565b6116d05760405162461bcd60e51b8152600401610c5990612fe1565b6111ef848484846120a4565b601d8054610c9790612fa6565b60198054610c9790612fa6565b600081815260106020526040902054606090601a90611714906120d7565b60405160200161172592919061313a565b6040516020818303038152906040529050919050565b6000828152600c60205260409020600101546117578133611c2e565b610e298383611d18565b60007f9f2df0fed2c77648de5860a4cc508cd0818c85b8b8a1ab4ceeef8d981c8956a661178e8133611c2e565b60145460ff166117d65760405162461bcd60e51b81526020600482015260136024820152721cd95d1d1a5b99dcc81b9bdd081b1bd8dad959606a1b6044820152606401610c59565b6117e2836127106130eb565b6000818152600460205260409020549092506001600160a01b0316156118415760405162461bcd60e51b8152602060048201526014602482015273151bdad95b88185b1c9958591e481b5a5b9d195960621b6044820152606401610c59565b61184b8483611faf565b5092915050565b606060198054610b6190612fa6565b600061186d8133611c2e565b60145460ff16156118ba5760405162461bcd60e51b81526020600482015260176024820152761cd95d1d1a5b99dcc8185b1c9958591e481b1bd8dad959604a1b6044820152606401610c59565b506014805460ff19166001179055565b60006118d68133611c2e565b6111ef601d8484612b15565b60006118ee8133611c2e565b506001600160601b0316601655565b60006001600160e01b03198216637965db0b60e01b1480610b4c5750610b4c826121d5565b600081815260066020526040902080546001600160a01b0319166001600160a01b0384169081179091558190611957826111f5565b6001600160a01b03167f8c5be1e5ebec7d5bd14f71427d1e84f3dd0314c0f7b2291e5b200ac8c7c3b92560405160405180910390a45050565b6000818152600460205260408120546001600160a01b0316611a095760405162461bcd60e51b815260206004820152602c60248201527f4552433732313a206f70657261746f7220717565727920666f72206e6f6e657860448201526b34b9ba32b73a103a37b5b2b760a11b6064820152608401610c59565b6000611a14836111f5565b9050806001600160a01b0316846001600160a01b03161480611a4f5750836001600160a01b0316611a4484610be4565b6001600160a01b0316145b80611a7f57506001600160a01b0380821660009081526007602090815260408083209388168352929052205460ff165b949350505050565b826001600160a01b0316611a9a826111f5565b6001600160a01b031614611afe5760405162461bcd60e51b815260206004820152602560248201527f4552433732313a207472616e736665722066726f6d20696e636f72726563742060448201526437bbb732b960d91b6064820152608401610c59565b6001600160a01b038216611b605760405162461bcd60e51b8152602060048201526024808201527f4552433732313a207472616e7366657220746f20746865207a65726f206164646044820152637265737360e01b6064820152608401610c59565b611b6b8383836121e0565b611b76600082611922565b6001600160a01b0383166000908152600560205260408120805460019290611b9f9084906130d4565b90915550506001600160a01b0382166000908152600560205260408120805460019290611bcd9084906130eb565b909155505060008181526004602052604080822080546001600160a01b0319166001600160a01b0386811691821790925591518493918716917fddf252ad1be2c89b69c2b068fc378daa952ba7f163c4a11628f55a4df523b3ef91a4505050565b611c388282611508565b61104457611c50816001600160a01b031660146121eb565b611c5b8360206121eb565b604051602001611c6c9291906131e1565b60408051601f198184030181529082905262461bcd60e51b8252610c5991600401612c39565b611c9c8282611508565b611044576000828152600c602090815260408083206001600160a01b03851684529091529020805460ff19166001179055611cd43390565b6001600160a01b0316816001600160a01b0316837f2f8788117e7eff1d82e926ec794901d17c78024a50270940304540a733656f0d60405160405180910390a45050565b611d228282611508565b15611044576000828152600c602090815260408083206001600160a01b0385168085529252808320805460ff1916905551339285917ff6391f5c32d9c69d2a47ea670b442974b53935d1edc7fd64eb21e047a839171b9190a45050565b801561105d576000612710600e60009054906101000a90046001600160a01b03166001600160a01b031663d672131b6040518163ffffffff1660e01b81526004016020604051808303816000875af1158015611ddf573d6000803e3d6000fd5b505050506040513d601f19601f82011682018060405250810190611e0391906130a7565b611e0d9084613048565b611e17919061307d565b9050600e60009054906101000a90046001600160a01b03166001600160a01b0316637dafc0d36040518163ffffffff1660e01b81526004016020604051808303816000875af1158015611e6e573d6000803e3d6000fd5b505050506040513d601f19601f82011682018060405250810190611e929190613256565b6001600160a01b03166108fc829081150290604051600060405180830381858888f19350505050158015611eca573d6000803e3d6000fd5b50600061271060175484611ede9190613048565b611ee8919061307d565b90508015611f2c576015546040516001600160a01b039091169082156108fc029083906000818181858888f19350505050158015611f2a573d6000803e3d6000fd5b505b60145461010090046001600160a01b03166108fc82611f4b85876130d4565b611f5591906130d4565b6040518115909202916000818181858888f193505050501580156111ef573d6000803e3d6000fd5b61105d81612387565b6000610b4c825490565b6000611f9c83836123a1565b9392505050565b6000611f9c83836123cb565b6110448282604051806020016040528060008152506124be565b6000611f9c83836124f1565b816001600160a01b0316836001600160a01b031614156120375760405162461bcd60e51b815260206004820152601960248201527f4552433732313a20617070726f766520746f2063616c6c6572000000000000006044820152606401610c59565b6001600160a01b03838116600081815260076020908152604080832094871680845294825291829020805460ff191686151590811790915591519182527f17307eab39ab6107e8899845ad3d59bd9653f200f220920489ca2b5937696c31910160405180910390a3505050565b6120af848484611a87565b6120bb84848484612540565b6111ef5760405162461bcd60e51b8152600401610c5990613273565b6060816120fb5750506040805180820190915260018152600360fc1b602082015290565b8160005b8115612125578061210f81613103565b915061211e9050600a8361307d565b91506120ff565b60008167ffffffffffffffff81111561214057612140612e82565b6040519080825280601f01601f19166020018201604052801561216a576020820181803683370190505b5090505b8415611a7f5761217f6001836130d4565b915061218c600a866130c0565b6121979060306130eb565b60f81b8183815181106121ac576121ac613091565b60200101906001600160f81b031916908160001a9053506121ce600a8661307d565b945061216e565b6000610b4c8261263e565b610e29838383612663565b606060006121fa836002613048565b6122059060026130eb565b67ffffffffffffffff81111561221d5761221d612e82565b6040519080825280601f01601f191660200182016040528015612247576020820181803683370190505b509050600360fc1b8160008151811061226257612262613091565b60200101906001600160f81b031916908160001a905350600f60fb1b8160018151811061229157612291613091565b60200101906001600160f81b031916908160001a90535060006122b5846002613048565b6122c09060016130eb565b90505b6001811115612338576f181899199a1a9b1b9c1cb0b131b232b360811b85600f16601081106122f4576122f4613091565b1a60f81b82828151811061230a5761230a613091565b60200101906001600160f81b031916908160001a90535060049490941c93612331816132c5565b90506122c3565b508315611f9c5760405162461bcd60e51b815260206004820181905260248201527f537472696e67733a20686578206c656e67746820696e73756666696369656e746044820152606401610c59565b6123908161271b565b600090815260016020526040812055565b60008260000182815481106123b8576123b8613091565b9060005260206000200154905092915050565b600081815260018301602052604081205480156124b45760006123ef6001836130d4565b8554909150600090612403906001906130d4565b905081811461246857600086600001828154811061242357612423613091565b906000526020600020015490508087600001848154811061244657612446613091565b6000918252602080832090910192909255918252600188019052604090208390555b8554869080612479576124796132dc565b600190038181906000526020600020016000905590558560010160008681526020019081526020016000206000905560019350505050610b4c565b6000915050610b4c565b6124c883836127c2565b6124d56000848484612540565b610e295760405162461bcd60e51b8152600401610c5990613273565b600081815260018301602052604081205461253857508154600181810184556000848152602080822090930184905584548482528286019093526040902091909155610b4c565b506000610b4c565b60006001600160a01b0384163b1561263357604051630a85bd0160e11b81526001600160a01b0385169063150b7a02906125849033908990889088906004016132f2565b6020604051808303816000875af19250505080156125bf575060408051601f3d908101601f191682019092526125bc9181019061332f565b60015b612619573d8080156125ed576040519150601f19603f3d011682016040523d82523d6000602084013e6125f2565b606091505b5080516126115760405162461bcd60e51b8152600401610c5990613273565b805181602001fd5b6001600160e01b031916630a85bd0160e11b149050611a7f565b506001949350505050565b60006001600160e01b0319821663780e9d6360e01b1480610b4c5750610b4c82612910565b6001600160a01b0383166126be576126b981600a80546000838152600b60205260408120829055600182018355919091527fc65a7bb8d6351c1cf70c95a316cc6a92839c986682d98bc35f958f4883f9d2a80155565b6126e1565b816001600160a01b0316836001600160a01b0316146126e1576126e18382612950565b6001600160a01b0382166126f857610e29816129ed565b826001600160a01b0316826001600160a01b031614610e2957610e298282612a9c565b6000612726826111f5565b9050612734816000846121e0565b61273f600083611922565b6001600160a01b03811660009081526005602052604081208054600192906127689084906130d4565b909155505060008281526004602052604080822080546001600160a01b0319169055518391906001600160a01b038416907fddf252ad1be2c89b69c2b068fc378daa952ba7f163c4a11628f55a4df523b3ef908390a45050565b6001600160a01b0382166128185760405162461bcd60e51b815260206004820181905260248201527f4552433732313a206d696e7420746f20746865207a65726f20616464726573736044820152606401610c59565b6000818152600460205260409020546001600160a01b03161561287d5760405162461bcd60e51b815260206004820152601c60248201527f4552433732313a20746f6b656e20616c7265616479206d696e746564000000006044820152606401610c59565b612889600083836121e0565b6001600160a01b03821660009081526005602052604081208054600192906128b29084906130eb565b909155505060008181526004602052604080822080546001600160a01b0319166001600160a01b03861690811790915590518392907fddf252ad1be2c89b69c2b068fc378daa952ba7f163c4a11628f55a4df523b3ef908290a45050565b60006001600160e01b031982166380ac58cd60e01b148061294157506001600160e01b03198216635b5e139f60e01b145b80610b4c5750610b4c82612ae0565b6000600161295d84611415565b61296791906130d4565b6000838152600960205260409020549091508082146129ba576001600160a01b03841660009081526008602090815260408083208584528252808320548484528184208190558352600990915290208190555b5060009182526009602090815260408084208490556001600160a01b039094168352600881528383209183525290812055565b600a546000906129ff906001906130d4565b6000838152600b6020526040812054600a8054939450909284908110612a2757612a27613091565b9060005260206000200154905080600a8381548110612a4857612a48613091565b6000918252602080832090910192909255828152600b9091526040808220849055858252812055600a805480612a8057612a806132dc565b6001900381819060005260206000200160009055905550505050565b6000612aa783611415565b6001600160a01b039093166000908152600860209081526040808320868452825280832085905593825260099052919091209190915550565b60006001600160e01b0319821663152a902d60e11b1480610b4c57506301ffc9a760e01b6001600160e01b0319831614610b4c565b828054612b2190612fa6565b90600052602060002090601f016020900481019282612b435760008555612b89565b82601f10612b5c5782800160ff19823516178555612b89565b82800160010185558215612b89579182015b82811115612b89578235825591602001919060010190612b6e565b50612b95929150612b99565b5090565b5b80821115612b955760008155600101612b9a565b6001600160e01b03198116811461105d57600080fd5b600060208284031215612bd657600080fd5b8135611f9c81612bae565b60005b83811015612bfc578181015183820152602001612be4565b838111156111ef5750506000910152565b60008151808452612c25816020860160208601612be1565b601f01601f19169290920160200192915050565b602081526000611f9c6020830184612c0d565b600060208284031215612c5e57600080fd5b5035919050565b6001600160a01b038116811461105d57600080fd5b60008060408385031215612c8d57600080fd5b8235612c9881612c65565b946020939093013593505050565b600080600060608486031215612cbb57600080fd5b8335612cc681612c65565b92506020840135612cd681612c65565b929592945050506040919091013590565b60008060408385031215612cfa57600080fd5b50508035926020909101359150565b60008060408385031215612d1c57600080fd5b823591506020830135612d2e81612c65565b809150509250929050565b600060208284031215612d4b57600080fd5b81356001600160601b0381168114611f9c57600080fd5b60008083601f840112612d7457600080fd5b50813567ffffffffffffffff811115612d8c57600080fd5b602083019150836020828501011115610f0757600080fd5b60008060208385031215612db757600080fd5b823567ffffffffffffffff811115612dce57600080fd5b612dda85828601612d62565b90969095509350505050565b600060208284031215612df857600080fd5b8135611f9c81612c65565b600080600060408486031215612e1857600080fd5b83359250602084013567ffffffffffffffff811115612e3657600080fd5b612e4286828701612d62565b9497909650939450505050565b60008060408385031215612e6257600080fd5b8235612e6d81612c65565b915060208301358015158114612d2e57600080fd5b634e487b7160e01b600052604160045260246000fd5b60008060008060808587031215612eae57600080fd5b8435612eb981612c65565b93506020850135612ec981612c65565b925060408501359150606085013567ffffffffffffffff80821115612eed57600080fd5b818701915087601f830112612f0157600080fd5b813581811115612f1357612f13612e82565b604051601f8201601f19908116603f01168101908382118183101715612f3b57612f3b612e82565b816040528281528a6020848701011115612f5457600080fd5b82602086016020830137600060208483010152809550505050505092959194509250565b60008060408385031215612f8b57600080fd5b8235612f9681612c65565b91506020830135612d2e81612c65565b600181811c90821680612fba57607f821691505b60208210811415612fdb57634e487b7160e01b600052602260045260246000fd5b50919050565b60208082526031908201527f4552433732313a207472616e736665722063616c6c6572206973206e6f74206f6040820152701ddb995c881b9bdc88185c1c1c9bdd9959607a1b606082015260800190565b634e487b7160e01b600052601160045260246000fd5b600081600019048311821515161561306257613062613032565b500290565b634e487b7160e01b600052601260045260246000fd5b60008261308c5761308c613067565b500490565b634e487b7160e01b600052603260045260246000fd5b6000602082840312156130b957600080fd5b5051919050565b6000826130cf576130cf613067565b500690565b6000828210156130e6576130e6613032565b500390565b600082198211156130fe576130fe613032565b500190565b600060001982141561311757613117613032565b5060010190565b60008151613130818560208601612be1565b9290920192915050565b600080845481600182811c91508083168061315657607f831692505b602080841082141561317657634e487b7160e01b86526022600452602486fd5b81801561318a576001811461319b576131c8565b60ff198616895284890196506131c8565b60008b81526020902060005b868110156131c05781548b8201529085019083016131a7565b505084890196505b5050505050506131d8818561311e565b95945050505050565b7f416363657373436f6e74726f6c3a206163636f756e7420000000000000000000815260008351613219816017850160208801612be1565b7001034b99036b4b9b9b4b733903937b6329607d1b601791840191820152835161324a816028840160208801612be1565b01602801949350505050565b60006020828403121561326857600080fd5b8151611f9c81612c65565b60208082526032908201527f4552433732313a207472616e7366657220746f206e6f6e20455243373231526560408201527131b2b4bb32b91034b6b83632b6b2b73a32b960711b606082015260800190565b6000816132d4576132d4613032565b506000190190565b634e487b7160e01b600052603160045260246000fd5b6001600160a01b038581168252841660208201526040810183905260806060820181905260009061332590830184612c0d565b9695505050505050565b60006020828403121561334157600080fd5b8151611f9c81612bae56fea264697066735822122035a9ce186ac19132839dfaf13b6561dfbaa4c57ffd57d89be2bb797b140090a464736f6c634300080c003368747470733a2f2f676174657761792e70696e6174612e636c6f75642f697066732f516d614e754e724d46745a5948365448565a365155347a39586f68663162487536764579314a4342506961446138",
  "linkReferences": {},
  "deployedLinkReferences": {}
}