{
  "_format": "hh-sol-artifact-1",
  "contractName": "Solids",
  "sourceName": "contracts/Solids.sol",
  "abi": [
    {
      "inputs": [
        {
          "internalType": "address",
          "name": "coreAddress",
          "type": "address"
        },
        {
          "internalType": "address",
          "name": "shopAddress",
          "type": "address"
        }
      ],
      "stateMutability": "nonpayable",
      "type": "constructor"
    },
    {
      "anonymous": false,
      "inputs": [
        {
          "indexed": true,
          "internalType": "address",
          "name": "owner",
          "type": "address"
        },
        {
          "indexed": true,
          "internalType": "address",
          "name": "approved",
          "type": "address"
        },
        {
          "indexed": true,
          "internalType": "uint256",
          "name": "tokenId",
          "type": "uint256"
        }
      ],
      "name": "Approval",
      "type": "event"
    },
    {
      "anonymous": false,
      "inputs": [
        {
          "indexed": true,
          "internalType": "address",
          "name": "owner",
          "type": "address"
        },
        {
          "indexed": true,
          "internalType": "address",
          "name": "operator",
          "type": "address"
        },
        {
          "indexed": false,
          "internalType": "bool",
          "name": "approved",
          "type": "bool"
        }
      ],
      "name": "ApprovalForAll",
      "type": "event"
    },
    {
      "anonymous": false,
      "inputs": [
        {
          "indexed": true,
          "internalType": "address",
          "name": "previousOwner",
          "type": "address"
        },
        {
          "indexed": true,
          "internalType": "address",
          "name": "newOwner",
          "type": "address"
        }
      ],
      "name": "OwnershipTransferred",
      "type": "event"
    },
    {
      "anonymous": false,
      "inputs": [
        {
          "indexed": true,
          "internalType": "bytes32",
          "name": "role",
          "type": "bytes32"
        },
        {
          "indexed": true,
          "internalType": "bytes32",
          "name": "previousAdminRole",
          "type": "bytes32"
        },
        {
          "indexed": true,
          "internalType": "bytes32",
          "name": "newAdminRole",
          "type": "bytes32"
        }
      ],
      "name": "RoleAdminChanged",
      "type": "event"
    },
    {
      "anonymous": false,
      "inputs": [
        {
          "indexed": true,
          "internalType": "bytes32",
          "name": "role",
          "type": "bytes32"
        },
        {
          "indexed": true,
          "internalType": "address",
          "name": "account",
          "type": "address"
        },
        {
          "indexed": true,
          "internalType": "address",
          "name": "sender",
          "type": "address"
        }
      ],
      "name": "RoleGranted",
      "type": "event"
    },
    {
      "anonymous": false,
      "inputs": [
        {
          "indexed": true,
          "internalType": "bytes32",
          "name": "role",
          "type": "bytes32"
        },
        {
          "indexed": true,
          "internalType": "address",
          "name": "account",
          "type": "address"
        },
        {
          "indexed": true,
          "internalType": "address",
          "name": "sender",
          "type": "address"
        }
      ],
      "name": "RoleRevoked",
      "type": "event"
    },
    {
      "anonymous": false,
      "inputs": [
        {
          "indexed": true,
          "internalType": "address",
          "name": "from",
          "type": "address"
        },
        {
          "indexed": true,
          "internalType": "address",
          "name": "to",
          "type": "address"
        },
        {
          "indexed": true,
          "internalType": "uint256",
          "name": "tokenId",
          "type": "uint256"
        }
      ],
      "name": "Transfer",
      "type": "event"
    },
    {
      "anonymous": false,
      "inputs": [
        {
          "indexed": false,
          "internalType": "address",
          "name": "_from",
          "type": "address"
        },
        {
          "indexed": false,
          "internalType": "uint256",
          "name": "_amount",
          "type": "uint256"
        }
      ],
      "name": "recievedFunds",
      "type": "event"
    },
    {
      "inputs": [],
      "name": "DEFAULT_ADMIN_ROLE",
      "outputs": [
        {
          "internalType": "bytes32",
          "name": "",
          "type": "bytes32"
        }
      ],
      "stateMutability": "view",
      "type": "function"
    },
    {
      "inputs": [],
      "name": "MINTER_ROLE",
      "outputs": [
        {
          "internalType": "bytes32",
          "name": "",
          "type": "bytes32"
        }
      ],
      "stateMutability": "view",
      "type": "function"
    },
    {
      "inputs": [],
      "name": "TOKEN_LIMIT",
      "outputs": [
        {
          "internalType": "uint256",
          "name": "",
          "type": "uint256"
        }
      ],
      "stateMutability": "view",
      "type": "function"
    },
    {
      "inputs": [],
      "name": "_contractURI",
      "outputs": [
        {
          "internalType": "string",
          "name": "",
          "type": "string"
        }
      ],
      "stateMutability": "view",
      "type": "function"
    },
    {
      "inputs": [],
      "name": "additionalPayee",
      "outputs": [
        {
          "internalType": "address payable",
          "name": "",
          "type": "address"
        }
      ],
      "stateMutability": "view",
      "type": "function"
    },
    {
      "inputs": [
        {
          "internalType": "uint96",
          "name": "_percentage",
          "type": "uint96"
        }
      ],
      "name": "additionalPayeePercent",
      "outputs": [],
      "stateMutability": "nonpayable",
      "type": "function"
    },
    {
      "inputs": [],
      "name": "additionalPayeePercentage",
      "outputs": [
        {
          "internalType": "uint256",
          "name": "",
          "type": "uint256"
        }
      ],
      "stateMutability": "view",
      "type": "function"
    },
    {
      "inputs": [
        {
          "internalType": "uint96",
          "name": "_percentage",
          "type": "uint96"
        }
      ],
      "name": "additionalPayeeRoyaltyPercent",
      "outputs": [],
      "stateMutability": "nonpayable",
      "type": "function"
    },
    {
      "inputs": [],
      "name": "additionalPayeeRoyaltyPercentage",
      "outputs": [
        {
          "internalType": "uint256",
          "name": "",
          "type": "uint256"
        }
      ],
      "stateMutability": "view",
      "type": "function"
    },
    {
      "inputs": [
        {
          "internalType": "address",
          "name": "to",
          "type": "address"
        },
        {
          "internalType": "uint256",
          "name": "tokenId",
          "type": "uint256"
        }
      ],
      "name": "approve",
      "outputs": [],
      "stateMutability": "nonpayable",
      "type": "function"
    },
    {
      "inputs": [],
      "name": "artist",
      "outputs": [
        {
          "internalType": "string",
          "name": "",
          "type": "string"
        }
      ],
      "stateMutability": "view",
      "type": "function"
    },
    {
      "inputs": [],
      "name": "artistAddress",
      "outputs": [
        {
          "internalType": "address payable",
          "name": "",
          "type": "address"
        }
      ],
      "stateMutability": "view",
      "type": "function"
    },
    {
      "inputs": [
        {
          "internalType": "address",
          "name": "owner",
          "type": "address"
        }
      ],
      "name": "balanceOf",
      "outputs": [
        {
          "internalType": "uint256",
          "name": "",
          "type": "uint256"
        }
      ],
      "stateMutability": "view",
      "type": "function"
    },
    {
      "inputs": [],
      "name": "baseURI",
      "outputs": [
        {
          "internalType": "string",
          "name": "",
          "type": "string"
        }
      ],
      "stateMutability": "view",
      "type": "function"
    },
    {
      "inputs": [
        {
          "internalType": "uint256",
          "name": "tokenId",
          "type": "uint256"
        }
      ],
      "name": "burn",
      "outputs": [],
      "stateMutability": "nonpayable",
      "type": "function"
    },
    {
      "inputs": [],
      "name": "checkPool",
      "outputs": [
        {
          "internalType": "uint256",
          "name": "",
          "type": "uint256"
        }
      ],
      "stateMutability": "view",
      "type": "function"
    },
    {
      "inputs": [],
      "name": "contractURI",
      "outputs": [
        {
          "internalType": "string",
          "name": "",
          "type": "string"
        }
      ],
      "stateMutability": "view",
      "type": "function"
    },
    {
      "inputs": [],
      "name": "description",
      "outputs": [
        {
          "internalType": "string",
          "name": "",
          "type": "string"
        }
      ],
      "stateMutability": "view",
      "type": "function"
    },
    {
      "inputs": [],
      "name": "getAdditionalPayee",
      "outputs": [
        {
          "internalType": "address payable",
          "name": "",
          "type": "address"
        }
      ],
      "stateMutability": "view",
      "type": "function"
    },
    {
      "inputs": [],
      "name": "getAdditionalPayeePercentage",
      "outputs": [
        {
          "internalType": "uint256",
          "name": "",
          "type": "uint256"
        }
      ],
      "stateMutability": "view",
      "type": "function"
    },
    {
      "inputs": [
        {
          "internalType": "uint256",
          "name": "tokenId",
          "type": "uint256"
        }
      ],
      "name": "getApproved",
      "outputs": [
        {
          "internalType": "address",
          "name": "",
          "type": "address"
        }
      ],
      "stateMutability": "view",
      "type": "function"
    },
    {
      "inputs": [],
      "name": "getArtistAddress",
      "outputs": [
        {
          "internalType": "address payable",
          "name": "",
          "type": "address"
        }
      ],
      "stateMutability": "view",
      "type": "function"
    },
    {
      "inputs": [
        {
          "internalType": "bytes32",
          "name": "role",
          "type": "bytes32"
        }
      ],
      "name": "getRoleAdmin",
      "outputs": [
        {
          "internalType": "bytes32",
          "name": "",
          "type": "bytes32"
        }
      ],
      "stateMutability": "view",
      "type": "function"
    },
    {
      "inputs": [],
      "name": "getTokenLimit",
      "outputs": [
        {
          "internalType": "uint256",
          "name": "",
          "type": "uint256"
        }
      ],
      "stateMutability": "view",
      "type": "function"
    },
    {
      "inputs": [
        {
          "internalType": "bytes32",
          "name": "role",
          "type": "bytes32"
        },
        {
          "internalType": "address",
          "name": "account",
          "type": "address"
        }
      ],
      "name": "grantRole",
      "outputs": [],
      "stateMutability": "nonpayable",
      "type": "function"
    },
    {
      "inputs": [
        {
          "internalType": "bytes32",
          "name": "role",
          "type": "bytes32"
        },
        {
          "internalType": "address",
          "name": "account",
          "type": "address"
        }
      ],
      "name": "hasRole",
      "outputs": [
        {
          "internalType": "bool",
          "name": "",
          "type": "bool"
        }
      ],
      "stateMutability": "view",
      "type": "function"
    },
    {
      "inputs": [
        {
          "internalType": "uint256",
          "name": "start",
          "type": "uint256"
        },
        {
          "internalType": "uint256",
          "name": "end",
          "type": "uint256"
        }
      ],
      "name": "initPool",
      "outputs": [],
      "stateMutability": "nonpayable",
      "type": "function"
    },
    {
      "inputs": [
        {
          "internalType": "address",
          "name": "owner",
          "type": "address"
        },
        {
          "internalType": "address",
          "name": "operator",
          "type": "address"
        }
      ],
      "name": "isApprovedForAll",
      "outputs": [
        {
          "internalType": "bool",
          "name": "",
          "type": "bool"
        }
      ],
      "stateMutability": "view",
      "type": "function"
    },
    {
      "inputs": [],
      "name": "license",
      "outputs": [
        {
          "internalType": "string",
          "name": "",
          "type": "string"
        }
      ],
      "stateMutability": "view",
      "type": "function"
    },
    {
      "inputs": [],
      "name": "lock",
      "outputs": [],
      "stateMutability": "nonpayable",
      "type": "function"
    },
    {
      "inputs": [],
      "name": "locked",
      "outputs": [
        {
          "internalType": "bool",
          "name": "",
          "type": "bool"
        }
      ],
      "stateMutability": "view",
      "type": "function"
    },
    {
      "inputs": [
        {
          "internalType": "address",
          "name": "to",
          "type": "address"
        }
      ],
      "name": "mint",
      "outputs": [
        {
          "internalType": "uint256",
          "name": "",
          "type": "uint256"
        }
      ],
      "stateMutability": "nonpayable",
      "type": "function"
    },
    {
      "inputs": [
        {
          "internalType": "address",
          "name": "to",
          "type": "address"
        },
        {
          "internalType": "uint256",
          "name": "infiniteId",
          "type": "uint256"
        }
      ],
      "name": "mintBonus",
      "outputs": [
        {
          "internalType": "uint256",
          "name": "bonusId",
          "type": "uint256"
        }
      ],
      "stateMutability": "nonpayable",
      "type": "function"
    },
    {
      "inputs": [],
      "name": "name",
      "outputs": [
        {
          "internalType": "string",
          "name": "",
          "type": "string"
        }
      ],
      "stateMutability": "view",
      "type": "function"
    },
    {
      "inputs": [],
      "name": "owner",
      "outputs": [
        {
          "internalType": "address",
          "name": "",
          "type": "address"
        }
      ],
      "stateMutability": "view",
      "type": "function"
    },
    {
      "inputs": [
        {
          "internalType": "uint256",
          "name": "tokenId",
          "type": "uint256"
        }
      ],
      "name": "ownerOf",
      "outputs": [
        {
          "internalType": "address",
          "name": "",
          "type": "address"
        }
      ],
      "stateMutability": "view",
      "type": "function"
    },
    {
      "inputs": [],
      "name": "renounceOwnership",
      "outputs": [],
      "stateMutability": "nonpayable",
      "type": "function"
    },
    {
      "inputs": [
        {
          "internalType": "bytes32",
          "name": "role",
          "type": "bytes32"
        },
        {
          "internalType": "address",
          "name": "account",
          "type": "address"
        }
      ],
      "name": "renounceRole",
      "outputs": [],
      "stateMutability": "nonpayable",
      "type": "function"
    },
    {
      "inputs": [
        {
          "internalType": "bytes32",
          "name": "role",
          "type": "bytes32"
        },
        {
          "internalType": "address",
          "name": "account",
          "type": "address"
        }
      ],
      "name": "revokeRole",
      "outputs": [],
      "stateMutability": "nonpayable",
      "type": "function"
    },
    {
      "inputs": [
        {
          "internalType": "uint256",
          "name": "_tokenId",
          "type": "uint256"
        },
        {
          "internalType": "uint256",
          "name": "_salePrice",
          "type": "uint256"
        }
      ],
      "name": "royaltyInfo",
      "outputs": [
        {
          "internalType": "address",
          "name": "",
          "type": "address"
        },
        {
          "internalType": "uint256",
          "name": "",
          "type": "uint256"
        }
      ],
      "stateMutability": "view",
      "type": "function"
    },
    {
      "inputs": [],
      "name": "royaltyPercent",
      "outputs": [
        {
          "internalType": "uint96",
          "name": "",
          "type": "uint96"
        }
      ],
      "stateMutability": "view",
      "type": "function"
    },
    {
      "inputs": [
        {
          "internalType": "address",
          "name": "from",
          "type": "address"
        },
        {
          "internalType": "address",
          "name": "to",
          "type": "address"
        },
        {
          "internalType": "uint256",
          "name": "tokenId",
          "type": "uint256"
        }
      ],
      "name": "safeTransferFrom",
      "outputs": [],
      "stateMutability": "nonpayable",
      "type": "function"
    },
    {
      "inputs": [
        {
          "internalType": "address",
          "name": "from",
          "type": "address"
        },
        {
          "internalType": "address",
          "name": "to",
          "type": "address"
        },
        {
          "internalType": "uint256",
          "name": "tokenId",
          "type": "uint256"
        },
        {
          "internalType": "bytes",
          "name": "_data",
          "type": "bytes"
        }
      ],
      "name": "safeTransferFrom",
      "outputs": [],
      "stateMutability": "nonpayable",
      "type": "function"
    },
    {
      "inputs": [
        {
          "internalType": "uint256",
          "name": "",
          "type": "uint256"
        }
      ],
      "name": "scripts",
      "outputs": [
        {
          "internalType": "string",
          "name": "",
          "type": "string"
        }
      ],
      "stateMutability": "view",
      "type": "function"
    },
    {
      "inputs": [
        {
          "internalType": "address",
          "name": "operator",
          "type": "address"
        },
        {
          "internalType": "bool",
          "name": "approved",
          "type": "bool"
        }
      ],
      "name": "setApprovalForAll",
      "outputs": [],
      "stateMutability": "nonpayable",
      "type": "function"
    },
    {
      "inputs": [
        {
          "internalType": "string",
          "name": "_uri",
          "type": "string"
        }
      ],
      "name": "setBaseURI",
      "outputs": [],
      "stateMutability": "nonpayable",
      "type": "function"
    },
    {
      "inputs": [
        {
          "internalType": "string",
          "name": "_uri",
          "type": "string"
        }
      ],
      "name": "setContractURI",
      "outputs": [],
      "stateMutability": "nonpayable",
      "type": "function"
    },
    {
      "inputs": [
        {
          "internalType": "string",
          "name": "_desc",
          "type": "string"
        }
      ],
      "name": "setDescription",
      "outputs": [],
      "stateMutability": "nonpayable",
      "type": "function"
    },
    {
      "inputs": [
        {
          "internalType": "uint96",
          "name": "_percentage",
          "type": "uint96"
        }
      ],
      "name": "setRoyaltyPercent",
      "outputs": [],
      "stateMutability": "nonpayable",
      "type": "function"
    },
    {
      "inputs": [
        {
          "internalType": "uint256",
          "name": "index",
          "type": "uint256"
        },
        {
          "internalType": "string",
          "name": "script",
          "type": "string"
        }
      ],
      "name": "setScript",
      "outputs": [],
      "stateMutability": "nonpayable",
      "type": "function"
    },
    {
      "inputs": [
        {
          "internalType": "string",
          "name": "_url",
          "type": "string"
        }
      ],
      "name": "setWebsite",
      "outputs": [],
      "stateMutability": "nonpayable",
      "type": "function"
    },
    {
      "inputs": [
        {
          "internalType": "bytes4",
          "name": "interfaceId",
          "type": "bytes4"
        }
      ],
      "name": "supportsInterface",
      "outputs": [
        {
          "internalType": "bool",
          "name": "",
          "type": "bool"
        }
      ],
      "stateMutability": "view",
      "type": "function"
    },
    {
      "inputs": [],
      "name": "symbol",
      "outputs": [
        {
          "internalType": "string",
          "name": "",
          "type": "string"
        }
      ],
      "stateMutability": "view",
      "type": "function"
    },
    {
      "inputs": [
        {
          "internalType": "uint256",
          "name": "index",
          "type": "uint256"
        }
      ],
      "name": "tokenByIndex",
      "outputs": [
        {
          "internalType": "uint256",
          "name": "",
          "type": "uint256"
        }
      ],
      "stateMutability": "view",
      "type": "function"
    },
    {
      "inputs": [
        {
          "internalType": "address",
          "name": "owner",
          "type": "address"
        },
        {
          "internalType": "uint256",
          "name": "index",
          "type": "uint256"
        }
      ],
      "name": "tokenOfOwnerByIndex",
      "outputs": [
        {
          "internalType": "uint256",
          "name": "",
          "type": "uint256"
        }
      ],
      "stateMutability": "view",
      "type": "function"
    },
    {
      "inputs": [
        {
          "internalType": "uint256",
          "name": "tokenId",
          "type": "uint256"
        }
      ],
      "name": "tokenURI",
      "outputs": [
        {
          "internalType": "string",
          "name": "",
          "type": "string"
        }
      ],
      "stateMutability": "view",
      "type": "function"
    },
    {
      "inputs": [],
      "name": "totalSupply",
      "outputs": [
        {
          "internalType": "uint256",
          "name": "",
          "type": "uint256"
        }
      ],
      "stateMutability": "view",
      "type": "function"
    },
    {
      "inputs": [
        {
          "internalType": "address",
          "name": "from",
          "type": "address"
        },
        {
          "internalType": "address",
          "name": "to",
          "type": "address"
        },
        {
          "internalType": "uint256",
          "name": "tokenId",
          "type": "uint256"
        }
      ],
      "name": "transferFrom",
      "outputs": [],
      "stateMutability": "nonpayable",
      "type": "function"
    },
    {
      "inputs": [
        {
          "internalType": "address",
          "name": "newOwner",
          "type": "address"
        }
      ],
      "name": "transferOwnership",
      "outputs": [],
      "stateMutability": "nonpayable",
      "type": "function"
    },
    {
      "inputs": [],
      "name": "website",
      "outputs": [
        {
          "internalType": "string",
          "name": "",
          "type": "string"
        }
      ],
      "stateMutability": "view",
      "type": "function"
    },
    {
      "inputs": [],
      "name": "withdraw",
      "outputs": [],
      "stateMutability": "nonpayable",
      "type": "function"
    },
    {
      "stateMutability": "payable",
      "type": "receive"
    }
  ],
  "bytecode": "0x6103e8600e556014805474e31a7d022e545eced32d276ca880649852c91353006001600160a81b0319909116179055601580546001600160a01b03191673268b87e4f6b7e7beb58e3128138d4f6b768e1b1717905560646016819055601755601880546001600160601b031916611d4c179055610100604052605060808181529062003c9d60a03980516200009d91601991602090910190620004c3565b5060405180608001604052806050815260200162003c4d605091398051620000ce91601a91602090910190620004c3565b50604080518082019091526003808252622320a960e91b6020909201918252620000fb91601b91620004c3565b506040805180820190915260158082527f612073616d706c65204e465420666f722046494e45000000000000000000000060209092019182526200014291601c91620004c3565b506040805180820190915260148082527f68747470733a2f2f66696e652e6469676974616c00000000000000000000000060209092019182526200018991601d91620004c3565b506040805180820190915260038082526213525560ea1b6020909201918252620001b691601e91620004c3565b50348015620001c457600080fd5b5060405162003ced38038062003ced833981016040819052620001e79162000586565b604080518082018252600680825265534f4c49445360d01b6020808401828152855180870190965292855284015281519192916200022891600291620004c3565b5080516200023e906003906020840190620004c3565b5050506200025b62000255620002c360201b60201c565b620002c7565b620002877f9f2df0fed2c77648de5860a4cc508cd0818c85b8b8a1ab4ceeef8d981c8956a68262000319565b600f80546001600160a01b0319166001600160a01b038416179055601854620002bb9030906001600160601b0316620003be565b5050620005fb565b3390565b600d80546001600160a01b038381166001600160a01b0319831681179093556040519116919082907f8be0079c531659141344cd1fd0a4f28419497f9722a3daafe3b4186f6b6457e090600090a35050565b6000828152600c602090815260408083206001600160a01b038516845290915290205460ff16620003ba576000828152600c602090815260408083206001600160a01b03851684529091529020805460ff19166001179055620003793390565b6001600160a01b0316816001600160a01b0316837f2f8788117e7eff1d82e926ec794901d17c78024a50270940304540a733656f0d60405160405180910390a45b5050565b6127106001600160601b0382161115620004325760405162461bcd60e51b815260206004820152602a60248201527f455243323938313a20726f79616c7479206665652077696c6c206578636565646044820152692073616c65507269636560b01b60648201526084015b60405180910390fd5b6001600160a01b0382166200048a5760405162461bcd60e51b815260206004820152601960248201527f455243323938313a20696e76616c696420726563656976657200000000000000604482015260640162000429565b604080518082019091526001600160a01b039092168083526001600160601b039091166020909201829052600160a01b90910217600055565b828054620004d190620005be565b90600052602060002090601f016020900481019282620004f5576000855562000540565b82601f106200051057805160ff191683800117855562000540565b8280016001018555821562000540579182015b828111156200054057825182559160200191906001019062000523565b506200054e92915062000552565b5090565b5b808211156200054e576000815560010162000553565b80516001600160a01b03811681146200058157600080fd5b919050565b600080604083850312156200059a57600080fd5b620005a58362000569565b9150620005b56020840162000569565b90509250929050565b600181811c90821680620005d357607f821691505b60208210811415620005f557634e487b7160e01b600052602260045260246000fd5b50919050565b613642806200060b6000396000f3fe6080604052600436106103a65760003560e01c806370a08231116101e7578063b88d4fde1161010d578063d9a7c61d116100a0578063f2fde38b1161006f578063f2fde38b14610b08578063f83d08ba14610b28578063f87f44b914610b3d578063f9f3bfd814610b5d57600080fd5b8063d9a7c61d14610a74578063e8a3d48514610a94578063e985e9c514610aa9578063ea099ad914610af257600080fd5b8063cf309012116100dc578063cf309012146109e1578063d5391393146109fb578063d547741f14610a2f578063d7eb3f3a14610a4f57600080fd5b8063b88d4fde14610977578063beb0a41614610997578063c0e72740146109ac578063c87b56dd146109c157600080fd5b806390c3f38f116101855780639e1b0045116101545780639e1b0045146108ea5780639f67756d1461090a578063a217fddf14610942578063a22cb4651461095757600080fd5b806390c3f38f1461087557806391d1485414610895578063938e3d7b146108b557806395d89b41146108d557600080fd5b80637284e416116101c15780637284e416146107ff578063867644d9146108145780638cbe8d80146108345780638da5cb5b1461085757600080fd5b806370a08231146107aa57806371199d30146107ca578063715018a6146107ea57600080fd5b80633ccfd60b116102cc5780634f6ccce71161026a5780636a627842116102395780636a627842146107425780636b87d24c146107625780636c0360eb146107775780636ff314c71461078c57600080fd5b80634f6ccce7146106c257806355f804b3146106e257806359748cb2146107025780636352211e1461072257600080fd5b806342966c68116102a657806342966c681461065857806343bc1612146106785780634771218a1461068d5780634bc46a82146106a257600080fd5b80633ccfd60b1461060d57806340138ff11461062257806342842e0e1461063857600080fd5b806323b872dd116103445780632cc88974116103135780632cc88974146105985780632f2ff15d146105ad5780632f745c59146105cd57806336568abe146105ed57600080fd5b806323b872dd146104f4578063248a9ca31461051457806328485586146105445780632a55205a1461055957600080fd5b8063081812fc11610380578063081812fc1461046557806308ff7f611461049d578063095ea7b3146104bd57806318160ddd146104df57600080fd5b806301ffc9a7146103ea578063031bd4c41461041f57806306fdde031461044357600080fd5b366103e557604080513381523460208201527ffb5cb5fc5900f14be0f619816129d1490c275a13734b28ae77072a2f5d676f57910160405180910390a1005b600080fd5b3480156103f657600080fd5b5061040a610405366004612e31565b610b7d565b60405190151581526020015b60405180910390f35b34801561042b57600080fd5b50610435600e5481565b604051908152602001610416565b34801561044f57600080fd5b50610458610b8e565b6040516104169190612ea6565b34801561047157600080fd5b50610485610480366004612eb9565b610c20565b6040516001600160a01b039091168152602001610416565b3480156104a957600080fd5b506104586104b8366004612eb9565b610cba565b3480156104c957600080fd5b506104dd6104d8366004612ee7565b610d54565b005b3480156104eb57600080fd5b50600a54610435565b34801561050057600080fd5b506104dd61050f366004612f13565b610e6a565b34801561052057600080fd5b5061043561052f366004612eb9565b6000908152600c602052604090206001015490565b34801561055057600080fd5b50600e54610435565b34801561056557600080fd5b50610579610574366004612f54565b610e9c565b604080516001600160a01b039093168352602083019190915201610416565b3480156105a457600080fd5b50601654610435565b3480156105b957600080fd5b506104dd6105c8366004612f76565b610f4a565b3480156105d957600080fd5b506104356105e8366004612ee7565b610f70565b3480156105f957600080fd5b506104dd610608366004612f76565b611006565b34801561061957600080fd5b506104dd611084565b34801561062e57600080fd5b5061043560165481565b34801561064457600080fd5b506104dd610653366004612f13565b6110b9565b34801561066457600080fd5b506104dd610673366004612eb9565b6110d4565b34801561068457600080fd5b5061045861114e565b34801561069957600080fd5b5061043561115b565b3480156106ae57600080fd5b506104dd6106bd366004612fa6565b61116c565b3480156106ce57600080fd5b506104356106dd366004612eb9565b6111bd565b3480156106ee57600080fd5b506104dd6106fd366004613011565b611250565b34801561070e57600080fd5b50601554610485906001600160a01b031681565b34801561072e57600080fd5b5061048561073d366004612eb9565b611286565b34801561074e57600080fd5b5061043561075d366004613053565b6112fd565b34801561076e57600080fd5b5061045861148d565b34801561078357600080fd5b5061045861149a565b34801561079857600080fd5b506015546001600160a01b0316610485565b3480156107b657600080fd5b506104356107c5366004613053565b6114a7565b3480156107d657600080fd5b506104dd6107e5366004613070565b61152e565b3480156107f657600080fd5b506104dd611577565b34801561080b57600080fd5b506104586115ab565b34801561082057600080fd5b506104dd61082f366004612fa6565b6115b8565b34801561084057600080fd5b5060145461010090046001600160a01b0316610485565b34801561086357600080fd5b50600d546001600160a01b0316610485565b34801561088157600080fd5b506104dd610890366004613011565b6115f0565b3480156108a157600080fd5b5061040a6108b0366004612f76565b611626565b3480156108c157600080fd5b506104dd6108d0366004613011565b611651565b3480156108e157600080fd5b50610458611687565b3480156108f657600080fd5b506104dd610905366004612f54565b611696565b34801561091657600080fd5b5060185461092a906001600160601b031681565b6040516001600160601b039091168152602001610416565b34801561094e57600080fd5b50610435600081565b34801561096357600080fd5b506104dd6109723660046130bc565b6117db565b34801561098357600080fd5b506104dd610992366004613105565b6117e6565b3480156109a357600080fd5b50610458611818565b3480156109b857600080fd5b50610458611825565b3480156109cd57600080fd5b506104586109dc366004612eb9565b611832565b3480156109ed57600080fd5b5060145461040a9060ff1681565b348015610a0757600080fd5b506104357f9f2df0fed2c77648de5860a4cc508cd0818c85b8b8a1ab4ceeef8d981c8956a681565b348015610a3b57600080fd5b506104dd610a4a366004612f76565b611866565b348015610a5b57600080fd5b506014546104859061010090046001600160a01b031681565b348015610a8057600080fd5b50610435610a8f366004612ee7565b61188c565b348015610aa057600080fd5b5061045861197d565b348015610ab557600080fd5b5061040a610ac43660046131e5565b6001600160a01b03918216600090815260076020908152604080832093909416825291909152205460ff1690565b348015610afe57600080fd5b5061043560175481565b348015610b1457600080fd5b506104dd610b23366004613053565b61198c565b348015610b3457600080fd5b506104dd611a24565b348015610b4957600080fd5b506104dd610b58366004613011565b611aaa565b348015610b6957600080fd5b506104dd610b78366004612fa6565b611ae0565b6000610b8882611b18565b92915050565b606060028054610b9d90613213565b80601f0160208091040260200160405190810160405280929190818152602001828054610bc990613213565b8015610c165780601f10610beb57610100808354040283529160200191610c16565b820191906000526020600020905b815481529060010190602001808311610bf957829003601f168201915b5050505050905090565b6000818152600460205260408120546001600160a01b0316610c9e5760405162461bcd60e51b815260206004820152602c60248201527f4552433732313a20617070726f76656420717565727920666f72206e6f6e657860448201526b34b9ba32b73a103a37b5b2b760a11b60648201526084015b60405180910390fd5b506000908152600660205260409020546001600160a01b031690565b60116020526000908152604090208054610cd390613213565b80601f0160208091040260200160405190810160405280929190818152602001828054610cff90613213565b8015610d4c5780601f10610d2157610100808354040283529160200191610d4c565b820191906000526020600020905b815481529060010190602001808311610d2f57829003601f168201915b505050505081565b6000610d5f82611286565b9050806001600160a01b0316836001600160a01b03161415610dcd5760405162461bcd60e51b815260206004820152602160248201527f4552433732313a20617070726f76616c20746f2063757272656e74206f776e656044820152603960f91b6064820152608401610c95565b336001600160a01b0382161480610de95750610de98133610ac4565b610e5b5760405162461bcd60e51b815260206004820152603860248201527f4552433732313a20617070726f76652063616c6c6572206973206e6f74206f7760448201527f6e6572206e6f7220617070726f76656420666f7220616c6c00000000000000006064820152608401610c95565b610e658383611b3d565b505050565b610e75335b82611bab565b610e915760405162461bcd60e51b8152600401610c9590613248565b610e65838383611ca2565b60008281526001602090815260408083208151808301909252546001600160a01b038116808352600160a01b9091046001600160601b0316928201929092528291610f115750604080518082019091526000546001600160a01b0381168252600160a01b90046001600160601b031660208201525b602081015160009061271090610f30906001600160601b0316876132af565b610f3a91906132e4565b91519350909150505b9250929050565b6000828152600c6020526040902060010154610f668133611e49565b610e658383611ead565b6000610f7b836114a7565b8210610fdd5760405162461bcd60e51b815260206004820152602b60248201527f455243373231456e756d657261626c653a206f776e657220696e646578206f7560448201526a74206f6620626f756e647360a81b6064820152608401610c95565b506001600160a01b03919091166000908152600860209081526040808320938352929052205490565b6001600160a01b03811633146110765760405162461bcd60e51b815260206004820152602f60248201527f416363657373436f6e74726f6c3a2063616e206f6e6c792072656e6f756e636560448201526e103937b632b9903337b91039b2b63360891b6064820152608401610c95565b6110808282611f33565b5050565b600d546001600160a01b031633146110ae5760405162461bcd60e51b8152600401610c95906132f8565b6110b747611f9a565b565b610e65838383604051806020016040528060008152506117e6565b6110dd33610e6f565b6111425760405162461bcd60e51b815260206004820152603060248201527f4552433732314275726e61626c653a2063616c6c6572206973206e6f74206f7760448201526f1b995c881b9bdc88185c1c1c9bdd995960821b6064820152608401610c95565b61114b81612198565b50565b601b8054610cd390613213565b600061116760126121a1565b905090565b600d546001600160a01b031633146111965760405162461bcd60e51b8152600401610c95906132f8565b601880546bffffffffffffffffffffffff19166001600160601b0392909216919091179055565b60006111c8600a5490565b821061122b5760405162461bcd60e51b815260206004820152602c60248201527f455243373231456e756d657261626c653a20676c6f62616c20696e646578206f60448201526b7574206f6620626f756e647360a01b6064820152608401610c95565b600a828154811061123e5761123e61332d565b90600052602060002001549050919050565b600d546001600160a01b0316331461127a5760405162461bcd60e51b8152600401610c95906132f8565b610e65601a8383612d82565b6000818152600460205260408120546001600160a01b031680610b885760405162461bcd60e51b815260206004820152602960248201527f4552433732313a206f776e657220717565727920666f72206e6f6e657869737460448201526832b73a103a37b5b2b760b91b6064820152608401610c95565b60007f9f2df0fed2c77648de5860a4cc508cd0818c85b8b8a1ab4ceeef8d981c8956a661132a8133611e49565b60145460ff166113725760405162461bcd60e51b81526020600482015260136024820152721cd95d1d1a5b99dcc81b9bdd081b1bd8dad959606a1b6044820152606401610c95565b600061137e60126121a1565b116113bf5760405162461bcd60e51b8152602060048201526011602482015270185b1b081d1bdad95b9cc81b5a5b9d1959607a1b6044820152606401610c95565b600f546000906001600160a01b03166329e5d8316113dd60126121a1565b6040516001600160e01b031960e084901b1681526004810191909152426024820152604401602060405180830381865afa15801561141f573d6000803e3d6000fd5b505050506040513d601f19601f820116820180604052508101906114439190613343565b9050600061145160126121a1565b61145b908361335c565b9050600061146a6012836121ab565b90506114776012826121be565b5061148286826121ca565b935050505b50919050565b601e8054610cd390613213565b601a8054610cd390613213565b60006001600160a01b0382166115125760405162461bcd60e51b815260206004820152602a60248201527f4552433732313a2062616c616e636520717565727920666f7220746865207a65604482015269726f206164647265737360b01b6064820152608401610c95565b506001600160a01b031660009081526005602052604090205490565b600d546001600160a01b031633146115585760405162461bcd60e51b8152600401610c95906132f8565b6000838152601160205260409020611571908383612d82565b50505050565b600d546001600160a01b031633146115a15760405162461bcd60e51b8152600401610c95906132f8565b6110b760006121e4565b601c8054610cd390613213565b600d546001600160a01b031633146115e25760405162461bcd60e51b8152600401610c95906132f8565b6001600160601b0316601755565b600d546001600160a01b0316331461161a5760405162461bcd60e51b8152600401610c95906132f8565b610e65601c8383612d82565b6000918252600c602090815260408084206001600160a01b0393909316845291905290205460ff1690565b600d546001600160a01b0316331461167b5760405162461bcd60e51b8152600401610c95906132f8565b610e6560198383612d82565b606060038054610b9d90613213565b60145460ff16156116e35760405162461bcd60e51b81526020600482015260176024820152761cd95d1d1a5b99dcc8185b1c9958591e481b1bd8dad959604a1b6044820152606401610c95565b8082111561173f5760405162461bcd60e51b815260206004820152602360248201527f7374617274206d75737420636f6d65206265666f7265206f7220657175616c20604482015262195b9960ea1b6064820152608401610c95565b600061174b8383613370565b9050600e548161175b60126121a1565b6117659190613387565b11156117b35760405162461bcd60e51b815260206004820152601e60248201527f63616e7420616464206d6f7265207468616e20746f6b656e206c696d697400006044820152606401610c95565b825b82811015611571576117c8601282612236565b50806117d38161339f565b9150506117b5565b611080338383612242565b6117f03383611bab565b61180c5760405162461bcd60e51b8152600401610c9590613248565b61157184848484612311565b601d8054610cd390613213565b60198054610cd390613213565b6060601a61183f83612344565b6040516020016118509291906133d6565b6040516020818303038152906040529050919050565b6000828152600c60205260409020600101546118828133611e49565b610e658383611f33565b60007f9f2df0fed2c77648de5860a4cc508cd0818c85b8b8a1ab4ceeef8d981c8956a66118b98133611e49565b60145460ff166119015760405162461bcd60e51b81526020600482015260136024820152721cd95d1d1a5b99dcc81b9bdd081b1bd8dad959606a1b6044820152606401610c95565b61190d83612710613387565b6000818152600460205260409020549092506001600160a01b03161561196c5760405162461bcd60e51b8152602060048201526014602482015273151bdad95b88185b1c9958591e481b5a5b9d195960621b6044820152606401610c95565b61197684836121ca565b5092915050565b606060198054610b9d90613213565b600d546001600160a01b031633146119b65760405162461bcd60e51b8152600401610c95906132f8565b6001600160a01b038116611a1b5760405162461bcd60e51b815260206004820152602660248201527f4f776e61626c653a206e6577206f776e657220697320746865207a65726f206160448201526564647265737360d01b6064820152608401610c95565b61114b816121e4565b600d546001600160a01b03163314611a4e5760405162461bcd60e51b8152600401610c95906132f8565b60145460ff1615611a9b5760405162461bcd60e51b81526020600482015260176024820152761cd95d1d1a5b99dcc8185b1c9958591e481b1bd8dad959604a1b6044820152606401610c95565b6014805460ff19166001179055565b600d546001600160a01b03163314611ad45760405162461bcd60e51b8152600401610c95906132f8565b610e65601d8383612d82565b600d546001600160a01b03163314611b0a5760405162461bcd60e51b8152600401610c95906132f8565b6001600160601b0316601655565b60006001600160e01b03198216637965db0b60e01b1480610b885750610b8882612442565b600081815260066020526040902080546001600160a01b0319166001600160a01b0384169081179091558190611b7282611286565b6001600160a01b03167f8c5be1e5ebec7d5bd14f71427d1e84f3dd0314c0f7b2291e5b200ac8c7c3b92560405160405180910390a45050565b6000818152600460205260408120546001600160a01b0316611c245760405162461bcd60e51b815260206004820152602c60248201527f4552433732313a206f70657261746f7220717565727920666f72206e6f6e657860448201526b34b9ba32b73a103a37b5b2b760a11b6064820152608401610c95565b6000611c2f83611286565b9050806001600160a01b0316846001600160a01b03161480611c6a5750836001600160a01b0316611c5f84610c20565b6001600160a01b0316145b80611c9a57506001600160a01b0380821660009081526007602090815260408083209388168352929052205460ff165b949350505050565b826001600160a01b0316611cb582611286565b6001600160a01b031614611d195760405162461bcd60e51b815260206004820152602560248201527f4552433732313a207472616e736665722066726f6d20696e636f72726563742060448201526437bbb732b960d91b6064820152608401610c95565b6001600160a01b038216611d7b5760405162461bcd60e51b8152602060048201526024808201527f4552433732313a207472616e7366657220746f20746865207a65726f206164646044820152637265737360e01b6064820152608401610c95565b611d8683838361244d565b611d91600082611b3d565b6001600160a01b0383166000908152600560205260408120805460019290611dba908490613370565b90915550506001600160a01b0382166000908152600560205260408120805460019290611de8908490613387565b909155505060008181526004602052604080822080546001600160a01b0319166001600160a01b0386811691821790925591518493918716917fddf252ad1be2c89b69c2b068fc378daa952ba7f163c4a11628f55a4df523b3ef91a4505050565b611e538282611626565b61108057611e6b816001600160a01b03166014612458565b611e76836020612458565b604051602001611e879291906134a1565b60408051601f198184030181529082905262461bcd60e51b8252610c9591600401612ea6565b611eb78282611626565b611080576000828152600c602090815260408083206001600160a01b03851684529091529020805460ff19166001179055611eef3390565b6001600160a01b0316816001600160a01b0316837f2f8788117e7eff1d82e926ec794901d17c78024a50270940304540a733656f0d60405160405180910390a45050565b611f3d8282611626565b15611080576000828152600c602090815260408083206001600160a01b0385168085529252808320805460ff1916905551339285917ff6391f5c32d9c69d2a47ea670b442974b53935d1edc7fd64eb21e047a839171b9190a45050565b801561114b576000612710600f60009054906101000a90046001600160a01b03166001600160a01b031663d672131b6040518163ffffffff1660e01b81526004016020604051808303816000875af1158015611ffa573d6000803e3d6000fd5b505050506040513d601f19601f8201168201806040525081019061201e9190613343565b61202890846132af565b61203291906132e4565b9050600f60009054906101000a90046001600160a01b03166001600160a01b0316637dafc0d36040518163ffffffff1660e01b81526004016020604051808303816000875af1158015612089573d6000803e3d6000fd5b505050506040513d601f19601f820116820180604052508101906120ad9190613516565b6001600160a01b03166108fc829081150290604051600060405180830381858888f193505050501580156120e5573d6000803e3d6000fd5b506000612710601754846120f991906132af565b61210391906132e4565b90508015612147576015546040516001600160a01b039091169082156108fc029083906000818181858888f19350505050158015612145573d6000803e3d6000fd5b505b60145461010090046001600160a01b03166108fc826121668587613370565b6121709190613370565b6040518115909202916000818181858888f19350505050158015611571573d6000803e3d6000fd5b61114b816125f4565b6000610b88825490565b60006121b7838361260e565b9392505050565b60006121b78383612638565b61108082826040518060200160405280600081525061272b565b600d80546001600160a01b038381166001600160a01b0319831681179093556040519116919082907f8be0079c531659141344cd1fd0a4f28419497f9722a3daafe3b4186f6b6457e090600090a35050565b60006121b7838361275e565b816001600160a01b0316836001600160a01b031614156122a45760405162461bcd60e51b815260206004820152601960248201527f4552433732313a20617070726f766520746f2063616c6c6572000000000000006044820152606401610c95565b6001600160a01b03838116600081815260076020908152604080832094871680845294825291829020805460ff191686151590811790915591519182527f17307eab39ab6107e8899845ad3d59bd9653f200f220920489ca2b5937696c31910160405180910390a3505050565b61231c848484611ca2565b612328848484846127ad565b6115715760405162461bcd60e51b8152600401610c9590613533565b6060816123685750506040805180820190915260018152600360fc1b602082015290565b8160005b8115612392578061237c8161339f565b915061238b9050600a836132e4565b915061236c565b60008167ffffffffffffffff8111156123ad576123ad6130ef565b6040519080825280601f01601f1916602001820160405280156123d7576020820181803683370190505b5090505b8415611c9a576123ec600183613370565b91506123f9600a8661335c565b612404906030613387565b60f81b8183815181106124195761241961332d565b60200101906001600160f81b031916908160001a90535061243b600a866132e4565b94506123db565b6000610b88826128ab565b610e658383836128d0565b606060006124678360026132af565b612472906002613387565b67ffffffffffffffff81111561248a5761248a6130ef565b6040519080825280601f01601f1916602001820160405280156124b4576020820181803683370190505b509050600360fc1b816000815181106124cf576124cf61332d565b60200101906001600160f81b031916908160001a905350600f60fb1b816001815181106124fe576124fe61332d565b60200101906001600160f81b031916908160001a90535060006125228460026132af565b61252d906001613387565b90505b60018111156125a5576f181899199a1a9b1b9c1cb0b131b232b360811b85600f16601081106125615761256161332d565b1a60f81b8282815181106125775761257761332d565b60200101906001600160f81b031916908160001a90535060049490941c9361259e81613585565b9050612530565b5083156121b75760405162461bcd60e51b815260206004820181905260248201527f537472696e67733a20686578206c656e67746820696e73756666696369656e746044820152606401610c95565b6125fd81612988565b600090815260016020526040812055565b60008260000182815481106126255761262561332d565b9060005260206000200154905092915050565b6000818152600183016020526040812054801561272157600061265c600183613370565b855490915060009061267090600190613370565b90508181146126d55760008660000182815481106126905761269061332d565b90600052602060002001549050808760000184815481106126b3576126b361332d565b6000918252602080832090910192909255918252600188019052604090208390555b85548690806126e6576126e661359c565b600190038181906000526020600020016000905590558560010160008681526020019081526020016000206000905560019350505050610b88565b6000915050610b88565b6127358383612a2f565b61274260008484846127ad565b610e655760405162461bcd60e51b8152600401610c9590613533565b60008181526001830160205260408120546127a557508154600181810184556000848152602080822090930184905584548482528286019093526040902091909155610b88565b506000610b88565b60006001600160a01b0384163b156128a057604051630a85bd0160e11b81526001600160a01b0385169063150b7a02906127f19033908990889088906004016135b2565b6020604051808303816000875af192505050801561282c575060408051601f3d908101601f19168201909252612829918101906135ef565b60015b612886573d80801561285a576040519150601f19603f3d011682016040523d82523d6000602084013e61285f565b606091505b50805161287e5760405162461bcd60e51b8152600401610c9590613533565b805181602001fd5b6001600160e01b031916630a85bd0160e11b149050611c9a565b506001949350505050565b60006001600160e01b0319821663780e9d6360e01b1480610b885750610b8882612b7d565b6001600160a01b03831661292b5761292681600a80546000838152600b60205260408120829055600182018355919091527fc65a7bb8d6351c1cf70c95a316cc6a92839c986682d98bc35f958f4883f9d2a80155565b61294e565b816001600160a01b0316836001600160a01b03161461294e5761294e8382612bbd565b6001600160a01b03821661296557610e6581612c5a565b826001600160a01b0316826001600160a01b031614610e6557610e658282612d09565b600061299382611286565b90506129a18160008461244d565b6129ac600083611b3d565b6001600160a01b03811660009081526005602052604081208054600192906129d5908490613370565b909155505060008281526004602052604080822080546001600160a01b0319169055518391906001600160a01b038416907fddf252ad1be2c89b69c2b068fc378daa952ba7f163c4a11628f55a4df523b3ef908390a45050565b6001600160a01b038216612a855760405162461bcd60e51b815260206004820181905260248201527f4552433732313a206d696e7420746f20746865207a65726f20616464726573736044820152606401610c95565b6000818152600460205260409020546001600160a01b031615612aea5760405162461bcd60e51b815260206004820152601c60248201527f4552433732313a20746f6b656e20616c7265616479206d696e746564000000006044820152606401610c95565b612af66000838361244d565b6001600160a01b0382166000908152600560205260408120805460019290612b1f908490613387565b909155505060008181526004602052604080822080546001600160a01b0319166001600160a01b03861690811790915590518392907fddf252ad1be2c89b69c2b068fc378daa952ba7f163c4a11628f55a4df523b3ef908290a45050565b60006001600160e01b031982166380ac58cd60e01b1480612bae57506001600160e01b03198216635b5e139f60e01b145b80610b885750610b8882612d4d565b60006001612bca846114a7565b612bd49190613370565b600083815260096020526040902054909150808214612c27576001600160a01b03841660009081526008602090815260408083208584528252808320548484528184208190558352600990915290208190555b5060009182526009602090815260408084208490556001600160a01b039094168352600881528383209183525290812055565b600a54600090612c6c90600190613370565b6000838152600b6020526040812054600a8054939450909284908110612c9457612c9461332d565b9060005260206000200154905080600a8381548110612cb557612cb561332d565b6000918252602080832090910192909255828152600b9091526040808220849055858252812055600a805480612ced57612ced61359c565b6001900381819060005260206000200160009055905550505050565b6000612d14836114a7565b6001600160a01b039093166000908152600860209081526040808320868452825280832085905593825260099052919091209190915550565b60006001600160e01b0319821663152a902d60e11b1480610b8857506301ffc9a760e01b6001600160e01b0319831614610b88565b828054612d8e90613213565b90600052602060002090601f016020900481019282612db05760008555612df6565b82601f10612dc95782800160ff19823516178555612df6565b82800160010185558215612df6579182015b82811115612df6578235825591602001919060010190612ddb565b50612e02929150612e06565b5090565b5b80821115612e025760008155600101612e07565b6001600160e01b03198116811461114b57600080fd5b600060208284031215612e4357600080fd5b81356121b781612e1b565b60005b83811015612e69578181015183820152602001612e51565b838111156115715750506000910152565b60008151808452612e92816020860160208601612e4e565b601f01601f19169290920160200192915050565b6020815260006121b76020830184612e7a565b600060208284031215612ecb57600080fd5b5035919050565b6001600160a01b038116811461114b57600080fd5b60008060408385031215612efa57600080fd5b8235612f0581612ed2565b946020939093013593505050565b600080600060608486031215612f2857600080fd5b8335612f3381612ed2565b92506020840135612f4381612ed2565b929592945050506040919091013590565b60008060408385031215612f6757600080fd5b50508035926020909101359150565b60008060408385031215612f8957600080fd5b823591506020830135612f9b81612ed2565b809150509250929050565b600060208284031215612fb857600080fd5b81356001600160601b03811681146121b757600080fd5b60008083601f840112612fe157600080fd5b50813567ffffffffffffffff811115612ff957600080fd5b602083019150836020828501011115610f4357600080fd5b6000806020838503121561302457600080fd5b823567ffffffffffffffff81111561303b57600080fd5b61304785828601612fcf565b90969095509350505050565b60006020828403121561306557600080fd5b81356121b781612ed2565b60008060006040848603121561308557600080fd5b83359250602084013567ffffffffffffffff8111156130a357600080fd5b6130af86828701612fcf565b9497909650939450505050565b600080604083850312156130cf57600080fd5b82356130da81612ed2565b915060208301358015158114612f9b57600080fd5b634e487b7160e01b600052604160045260246000fd5b6000806000806080858703121561311b57600080fd5b843561312681612ed2565b9350602085013561313681612ed2565b925060408501359150606085013567ffffffffffffffff8082111561315a57600080fd5b818701915087601f83011261316e57600080fd5b813581811115613180576131806130ef565b604051601f8201601f19908116603f011681019083821181831017156131a8576131a86130ef565b816040528281528a60208487010111156131c157600080fd5b82602086016020830137600060208483010152809550505050505092959194509250565b600080604083850312156131f857600080fd5b823561320381612ed2565b91506020830135612f9b81612ed2565b600181811c9082168061322757607f821691505b6020821081141561148757634e487b7160e01b600052602260045260246000fd5b60208082526031908201527f4552433732313a207472616e736665722063616c6c6572206973206e6f74206f6040820152701ddb995c881b9bdc88185c1c1c9bdd9959607a1b606082015260800190565b634e487b7160e01b600052601160045260246000fd5b60008160001904831182151516156132c9576132c9613299565b500290565b634e487b7160e01b600052601260045260246000fd5b6000826132f3576132f36132ce565b500490565b6020808252818101527f4f776e61626c653a2063616c6c6572206973206e6f7420746865206f776e6572604082015260600190565b634e487b7160e01b600052603260045260246000fd5b60006020828403121561335557600080fd5b5051919050565b60008261336b5761336b6132ce565b500690565b60008282101561338257613382613299565b500390565b6000821982111561339a5761339a613299565b500190565b60006000198214156133b3576133b3613299565b5060010190565b600081516133cc818560208601612e4e565b9290920192915050565b600080845481600182811c9150808316806133f257607f831692505b602080841082141561341257634e487b7160e01b86526022600452602486fd5b818015613426576001811461343757613464565b60ff19861689528489019650613464565b60008b81526020902060005b8681101561345c5781548b820152908501908301613443565b505084890196505b50505050505061349861348761348183602f60f81b815260010190565b866133ba565b64173539b7b760d91b815260050190565b95945050505050565b7f416363657373436f6e74726f6c3a206163636f756e74200000000000000000008152600083516134d9816017850160208801612e4e565b7001034b99036b4b9b9b4b733903937b6329607d1b601791840191820152835161350a816028840160208801612e4e565b01602801949350505050565b60006020828403121561352857600080fd5b81516121b781612ed2565b60208082526032908201527f4552433732313a207472616e7366657220746f206e6f6e20455243373231526560408201527131b2b4bb32b91034b6b83632b6b2b73a32b960711b606082015260800190565b60008161359457613594613299565b506000190190565b634e487b7160e01b600052603160045260246000fd5b6001600160a01b03858116825284166020820152604081018390526080606082018190526000906135e590830184612e7a565b9695505050505050565b60006020828403121561360157600080fd5b81516121b781612e1b56fea26469706673582212204a7cc62ec41db308da8cc33bd14a0191c93bd5b2692d39e81edc07575e2e555764736f6c634300080c003368747470733a2f2f676174657761792e70696e6174612e636c6f75642f697066732f516d65456b7935615a4e6d6f6731664e646273784143355831436b4b436672666e733374507151387262316b697768747470733a2f2f676174657761792e70696e6174612e636c6f75642f697066732f516d514d7847336f676d506b64774739506d3146487256313732676243594351615353504c73524346347a356147",
  "linkReferences": {},
  "deployedLinkReferences": {}
}