{
  "_format": "hh-sol-artifact-1",
  "contractName": "FineShop",
  "sourceName": "contracts/FineShop.sol",
  "abi": [
    {
      "inputs": [
        {
          "internalType": "address",
          "name": "_fineCoreAddresss",
          "type": "address"
        }
      ],
      "stateMutability": "nonpayable",
      "type": "constructor"
    },
    {
      "anonymous": false,
      "inputs": [
        {
          "indexed": true,
          "internalType": "bytes32",
          "name": "role",
          "type": "bytes32"
        },
        {
          "indexed": true,
          "internalType": "bytes32",
          "name": "previousAdminRole",
          "type": "bytes32"
        },
        {
          "indexed": true,
          "internalType": "bytes32",
          "name": "newAdminRole",
          "type": "bytes32"
        }
      ],
      "name": "RoleAdminChanged",
      "type": "event"
    },
    {
      "anonymous": false,
      "inputs": [
        {
          "indexed": true,
          "internalType": "bytes32",
          "name": "role",
          "type": "bytes32"
        },
        {
          "indexed": true,
          "internalType": "address",
          "name": "account",
          "type": "address"
        },
        {
          "indexed": true,
          "internalType": "address",
          "name": "sender",
          "type": "address"
        }
      ],
      "name": "RoleGranted",
      "type": "event"
    },
    {
      "anonymous": false,
      "inputs": [
        {
          "indexed": true,
          "internalType": "bytes32",
          "name": "role",
          "type": "bytes32"
        },
        {
          "indexed": true,
          "internalType": "address",
          "name": "account",
          "type": "address"
        },
        {
          "indexed": true,
          "internalType": "address",
          "name": "sender",
          "type": "address"
        }
      ],
      "name": "RoleRevoked",
      "type": "event"
    },
    {
      "inputs": [],
      "name": "DEFAULT_ADMIN_ROLE",
      "outputs": [
        {
          "internalType": "bytes32",
          "name": "",
          "type": "bytes32"
        }
      ],
      "stateMutability": "view",
      "type": "function"
    },
    {
      "inputs": [
        {
          "internalType": "uint256",
          "name": "_projectId",
          "type": "uint256"
        },
        {
          "internalType": "uint256",
          "name": "count",
          "type": "uint256"
        }
      ],
      "name": "buy",
      "outputs": [
        {
          "internalType": "uint256",
          "name": "",
          "type": "uint256"
        }
      ],
      "stateMutability": "payable",
      "type": "function"
    },
    {
      "inputs": [
        {
          "internalType": "uint256",
          "name": "_projectId",
          "type": "uint256"
        },
        {
          "internalType": "address",
          "name": "to",
          "type": "address"
        },
        {
          "internalType": "uint256",
          "name": "count",
          "type": "uint256"
        }
      ],
      "name": "buyFor",
      "outputs": [
        {
          "internalType": "uint256",
          "name": "",
          "type": "uint256"
        }
      ],
      "stateMutability": "payable",
      "type": "function"
    },
    {
      "inputs": [
        {
          "internalType": "uint256",
          "name": "",
          "type": "uint256"
        }
      ],
      "name": "contractFilterProject",
      "outputs": [
        {
          "internalType": "bool",
          "name": "",
          "type": "bool"
        }
      ],
      "stateMutability": "view",
      "type": "function"
    },
    {
      "inputs": [
        {
          "internalType": "bytes32",
          "name": "role",
          "type": "bytes32"
        }
      ],
      "name": "getRoleAdmin",
      "outputs": [
        {
          "internalType": "bytes32",
          "name": "",
          "type": "bytes32"
        }
      ],
      "stateMutability": "view",
      "type": "function"
    },
    {
      "inputs": [
        {
          "internalType": "uint256",
          "name": "_projectId",
          "type": "uint256"
        }
      ],
      "name": "goLive",
      "outputs": [],
      "stateMutability": "nonpayable",
      "type": "function"
    },
    {
      "inputs": [
        {
          "internalType": "bytes32",
          "name": "role",
          "type": "bytes32"
        },
        {
          "internalType": "address",
          "name": "account",
          "type": "address"
        }
      ],
      "name": "grantRole",
      "outputs": [],
      "stateMutability": "nonpayable",
      "type": "function"
    },
    {
      "inputs": [
        {
          "internalType": "bytes32",
          "name": "role",
          "type": "bytes32"
        },
        {
          "internalType": "address",
          "name": "account",
          "type": "address"
        }
      ],
      "name": "hasRole",
      "outputs": [
        {
          "internalType": "bool",
          "name": "",
          "type": "bool"
        }
      ],
      "stateMutability": "view",
      "type": "function"
    },
    {
      "inputs": [
        {
          "internalType": "uint256",
          "name": "_projectId",
          "type": "uint256"
        }
      ],
      "name": "pause",
      "outputs": [],
      "stateMutability": "nonpayable",
      "type": "function"
    },
    {
      "inputs": [
        {
          "internalType": "uint256",
          "name": "_projectId",
          "type": "uint256"
        }
      ],
      "name": "pauseAdmin",
      "outputs": [],
      "stateMutability": "nonpayable",
      "type": "function"
    },
    {
      "inputs": [
        {
          "internalType": "uint256",
          "name": "_projectId",
          "type": "uint256"
        }
      ],
      "name": "premint",
      "outputs": [
        {
          "internalType": "uint256",
          "name": "",
          "type": "uint256"
        }
      ],
      "stateMutability": "payable",
      "type": "function"
    },
    {
      "inputs": [
        {
          "internalType": "uint256",
          "name": "",
          "type": "uint256"
        },
        {
          "internalType": "address",
          "name": "",
          "type": "address"
        }
      ],
      "name": "projectAllowList",
      "outputs": [
        {
          "internalType": "bool",
          "name": "",
          "type": "bool"
        }
      ],
      "stateMutability": "view",
      "type": "function"
    },
    {
      "inputs": [
        {
          "internalType": "uint256",
          "name": "",
          "type": "uint256"
        }
      ],
      "name": "projectAllowListCount",
      "outputs": [
        {
          "internalType": "uint256",
          "name": "",
          "type": "uint256"
        }
      ],
      "stateMutability": "view",
      "type": "function"
    },
    {
      "inputs": [
        {
          "internalType": "uint256",
          "name": "",
          "type": "uint256"
        }
      ],
      "name": "projectBulkMintCount",
      "outputs": [
        {
          "internalType": "uint256",
          "name": "",
          "type": "uint256"
        }
      ],
      "stateMutability": "view",
      "type": "function"
    },
    {
      "inputs": [
        {
          "internalType": "uint256",
          "name": "",
          "type": "uint256"
        }
      ],
      "name": "projectCurrencyAddress",
      "outputs": [
        {
          "internalType": "address",
          "name": "",
          "type": "address"
        }
      ],
      "stateMutability": "view",
      "type": "function"
    },
    {
      "inputs": [
        {
          "internalType": "uint256",
          "name": "",
          "type": "uint256"
        }
      ],
      "name": "projectCurrencySymbol",
      "outputs": [
        {
          "internalType": "string",
          "name": "",
          "type": "string"
        }
      ],
      "stateMutability": "view",
      "type": "function"
    },
    {
      "inputs": [
        {
          "internalType": "uint256",
          "name": "",
          "type": "uint256"
        }
      ],
      "name": "projectLive",
      "outputs": [
        {
          "internalType": "bool",
          "name": "",
          "type": "bool"
        }
      ],
      "stateMutability": "view",
      "type": "function"
    },
    {
      "inputs": [
        {
          "internalType": "address",
          "name": "",
          "type": "address"
        },
        {
          "internalType": "uint256",
          "name": "",
          "type": "uint256"
        }
      ],
      "name": "projectMintCounter",
      "outputs": [
        {
          "internalType": "uint256",
          "name": "",
          "type": "uint256"
        }
      ],
      "stateMutability": "view",
      "type": "function"
    },
    {
      "inputs": [
        {
          "internalType": "uint256",
          "name": "",
          "type": "uint256"
        }
      ],
      "name": "projectMintLimit",
      "outputs": [
        {
          "internalType": "uint256",
          "name": "",
          "type": "uint256"
        }
      ],
      "stateMutability": "view",
      "type": "function"
    },
    {
      "inputs": [
        {
          "internalType": "uint256",
          "name": "",
          "type": "uint256"
        }
      ],
      "name": "projectMinted",
      "outputs": [
        {
          "internalType": "uint256",
          "name": "",
          "type": "uint256"
        }
      ],
      "stateMutability": "view",
      "type": "function"
    },
    {
      "inputs": [
        {
          "internalType": "uint256",
          "name": "",
          "type": "uint256"
        }
      ],
      "name": "projectOwner",
      "outputs": [
        {
          "internalType": "address",
          "name": "",
          "type": "address"
        }
      ],
      "stateMutability": "view",
      "type": "function"
    },
    {
      "inputs": [
        {
          "internalType": "uint256",
          "name": "",
          "type": "uint256"
        }
      ],
      "name": "projectPause",
      "outputs": [
        {
          "internalType": "bool",
          "name": "",
          "type": "bool"
        }
      ],
      "stateMutability": "view",
      "type": "function"
    },
    {
      "inputs": [
        {
          "internalType": "uint256",
          "name": "",
          "type": "uint256"
        }
      ],
      "name": "projectPremints",
      "outputs": [
        {
          "internalType": "uint256",
          "name": "",
          "type": "uint256"
        }
      ],
      "stateMutability": "view",
      "type": "function"
    },
    {
      "inputs": [
        {
          "internalType": "uint256",
          "name": "",
          "type": "uint256"
        }
      ],
      "name": "projectPrice",
      "outputs": [
        {
          "internalType": "uint256",
          "name": "",
          "type": "uint256"
        }
      ],
      "stateMutability": "view",
      "type": "function"
    },
    {
      "inputs": [
        {
          "internalType": "uint256",
          "name": "_projectId",
          "type": "uint256"
        },
        {
          "internalType": "address",
          "name": "to",
          "type": "address"
        },
        {
          "internalType": "uint256",
          "name": "count",
          "type": "uint256"
        }
      ],
      "name": "purchaseTo",
      "outputs": [
        {
          "internalType": "uint256",
          "name": "",
          "type": "uint256"
        }
      ],
      "stateMutability": "payable",
      "type": "function"
    },
    {
      "inputs": [
        {
          "internalType": "bytes32",
          "name": "role",
          "type": "bytes32"
        },
        {
          "internalType": "address",
          "name": "account",
          "type": "address"
        }
      ],
      "name": "renounceRole",
      "outputs": [],
      "stateMutability": "nonpayable",
      "type": "function"
    },
    {
      "inputs": [
        {
          "internalType": "bytes32",
          "name": "role",
          "type": "bytes32"
        },
        {
          "internalType": "address",
          "name": "account",
          "type": "address"
        }
      ],
      "name": "revokeRole",
      "outputs": [],
      "stateMutability": "nonpayable",
      "type": "function"
    },
    {
      "inputs": [
        {
          "internalType": "uint256",
          "name": "_projectId",
          "type": "uint256"
        },
        {
          "internalType": "address",
          "name": "newOwner",
          "type": "address"
        }
      ],
      "name": "setOwner",
      "outputs": [],
      "stateMutability": "nonpayable",
      "type": "function"
    },
    {
      "inputs": [
        {
          "internalType": "uint256",
          "name": "_projectId",
          "type": "uint256"
        },
        {
          "internalType": "uint256",
          "name": "premints",
          "type": "uint256"
        }
      ],
      "name": "setPremints",
      "outputs": [],
      "stateMutability": "nonpayable",
      "type": "function"
    },
    {
      "inputs": [
        {
          "internalType": "uint256",
          "name": "_projectId",
          "type": "uint256"
        },
        {
          "internalType": "uint256",
          "name": "price",
          "type": "uint256"
        }
      ],
      "name": "setPrice",
      "outputs": [],
      "stateMutability": "nonpayable",
      "type": "function"
    },
    {
      "inputs": [
        {
          "internalType": "uint256",
          "name": "_projectId",
          "type": "uint256"
        },
        {
          "internalType": "uint8",
          "name": "_limit",
          "type": "uint8"
        }
      ],
      "name": "setProjectMintLimit",
      "outputs": [],
      "stateMutability": "nonpayable",
      "type": "function"
    },
    {
      "inputs": [
        {
          "internalType": "bytes4",
          "name": "interfaceId",
          "type": "bytes4"
        }
      ],
      "name": "supportsInterface",
      "outputs": [
        {
          "internalType": "bool",
          "name": "",
          "type": "bool"
        }
      ],
      "stateMutability": "view",
      "type": "function"
    },
    {
      "inputs": [
        {
          "internalType": "uint256",
          "name": "_projectId",
          "type": "uint256"
        }
      ],
      "name": "toggleContractFilter",
      "outputs": [],
      "stateMutability": "nonpayable",
      "type": "function"
    },
    {
      "inputs": [
        {
          "internalType": "uint256",
          "name": "_projectId",
          "type": "uint256"
        }
      ],
      "name": "unpause",
      "outputs": [],
      "stateMutability": "nonpayable",
      "type": "function"
    },
    {
      "inputs": [
        {
          "internalType": "uint256",
          "name": "_projectId",
          "type": "uint256"
        }
      ],
      "name": "unpauseAdmin",
      "outputs": [],
      "stateMutability": "nonpayable",
      "type": "function"
    }
  ],
  "bytecode": "0x60806040523480156200001157600080fd5b5060405162004c4638038062004c4683398181016040528101906200003791906200020e565b6200004c6000801b336200009460201b60201c565b80600160006101000a81548173ffffffffffffffffffffffffffffffffffffffff021916908373ffffffffffffffffffffffffffffffffffffffff1602179055505062000288565b620000a682826200018560201b60201c565b6200018157600160008084815260200190815260200160002060000160008373ffffffffffffffffffffffffffffffffffffffff1673ffffffffffffffffffffffffffffffffffffffff16815260200190815260200160002060006101000a81548160ff02191690831515021790555062000126620001ef60201b60201c565b73ffffffffffffffffffffffffffffffffffffffff168173ffffffffffffffffffffffffffffffffffffffff16837f2f8788117e7eff1d82e926ec794901d17c78024a50270940304540a733656f0d60405160405180910390a45b5050565b600080600084815260200190815260200160002060000160008373ffffffffffffffffffffffffffffffffffffffff1673ffffffffffffffffffffffffffffffffffffffff16815260200190815260200160002060009054906101000a900460ff16905092915050565b600033905090565b60008151905062000208816200026e565b92915050565b6000602082840312156200022157600080fd5b60006200023184828501620001f7565b91505092915050565b600062000247826200024e565b9050919050565b600073ffffffffffffffffffffffffffffffffffffffff82169050919050565b62000279816200023a565b81146200028557600080fd5b50565b6149ae80620002986000396000f3fe6080604052600436106102045760003560e01c806391d1485411610118578063c97c1afb116100a0578063e0f7af711161006f578063e0f7af711461080d578063f7d975771461084a578063f9f96b9e14610873578063fabc1cbc146108b0578063fce223b4146108d957610204565b8063c97c1afb1461074e578063d547741f1461078b578063d6febde8146107b4578063dc3d886f146107e457610204565b8063a47f9092116100e7578063a47f909214610631578063ac26e4c91461066e578063ad286a9c146106ab578063b05ff2eb146106e8578063b137479d1461072557610204565b806391d14854146105705780639d5aef30146105ad5780639f270c22146105dd578063a217fddf1461060657610204565b806336568abe1161019b57806362f7a7ed1161016a57806362f7a7ed146104605780636ddd9f201461049d5780637fd39247146104da57806389fe08f81461050357806391943b551461054057610204565b806336568abe146103945780633a4657b4146103bd578063531b14b9146103fa578063569f6f921461043757610204565b8063248a9ca3116101d7578063248a9ca3146102c1578063287f5fb7146102fe5780632f2ff15d1461033b578063314398d81461036457610204565b806301ffc9a7146102095780630ad1d81c14610246578063136439dd1461026f578063231c228114610298575b600080fd5b34801561021557600080fd5b50610230600480360381019061022b91906137dd565b610916565b60405161023d9190613e72565b60405180910390f35b34801561025257600080fd5b5061026d60048036038101906102689190613806565b610990565b005b34801561027b57600080fd5b5061029660048036038101906102919190613806565b610a01565b005b3480156102a457600080fd5b506102bf60048036038101906102ba919061391f565b610ad1565b005b3480156102cd57600080fd5b506102e860048036038101906102e39190613778565b610b06565b6040516102f59190613e8d565b60405180910390f35b34801561030a57600080fd5b5061032560048036038101906103209190613806565b610b25565b6040516103329190613df7565b60405180910390f35b34801561034757600080fd5b50610362600480360381019061035d91906137a1565b610b58565b005b61037e60048036038101906103799190613894565b610b81565b60405161038b919061412a565b60405180910390f35b3480156103a057600080fd5b506103bb60048036038101906103b691906137a1565b610b97565b005b3480156103c957600080fd5b506103e460048036038101906103df9190613713565b610c1a565b6040516103f1919061412a565b60405180910390f35b34801561040657600080fd5b50610421600480360381019061041c9190613806565b610c3f565b60405161042e9190613ea8565b60405180910390f35b34801561044357600080fd5b5061045e60048036038101906104599190613806565b610cdf565b005b34801561046c57600080fd5b5061048760048036038101906104829190613806565b610d44565b604051610494919061412a565b60405180910390f35b3480156104a957600080fd5b506104c460048036038101906104bf9190613806565b610d5c565b6040516104d1919061412a565b60405180910390f35b3480156104e657600080fd5b5061050160048036038101906104fc9190613858565b610d74565b005b34801561050f57600080fd5b5061052a60048036038101906105259190613806565b610f25565b6040516105379190613df7565b60405180910390f35b61055a60048036038101906105559190613894565b610f58565b604051610567919061412a565b60405180910390f35b34801561057c57600080fd5b50610597600480360381019061059291906137a1565b611685565b6040516105a49190613e72565b60405180910390f35b6105c760048036038101906105c29190613806565b6116ef565b6040516105d4919061412a565b60405180910390f35b3480156105e957600080fd5b5061060460048036038101906105ff9190613806565b6119df565b005b34801561061257600080fd5b5061061b611a24565b6040516106289190613e8d565b60405180910390f35b34801561063d57600080fd5b5061065860048036038101906106539190613858565b611a2b565b6040516106659190613e72565b60405180910390f35b34801561067a57600080fd5b5061069560048036038101906106909190613806565b611a5a565b6040516106a29190613e72565b60405180910390f35b3480156106b757600080fd5b506106d260048036038101906106cd9190613806565b611a7a565b6040516106df919061412a565b60405180910390f35b3480156106f457600080fd5b5061070f600480360381019061070a9190613806565b611a92565b60405161071c919061412a565b60405180910390f35b34801561073157600080fd5b5061074c60048036038101906107479190613806565b611aaa565b005b34801561075a57600080fd5b5061077560048036038101906107709190613806565b611aef565b604051610782919061412a565b60405180910390f35b34801561079757600080fd5b506107b260048036038101906107ad91906137a1565b611b07565b005b6107ce60048036038101906107c991906138e3565b611b30565b6040516107db919061412a565b60405180910390f35b3480156107f057600080fd5b5061080b600480360381019061080691906138e3565b611b45565b005b34801561081957600080fd5b50610834600480360381019061082f9190613806565b611c63565b604051610841919061412a565b60405180910390f35b34801561085657600080fd5b50610871600480360381019061086c91906138e3565b611c7b565b005b34801561087f57600080fd5b5061089a60048036038101906108959190613806565b611d99565b6040516108a79190613e72565b60405180910390f35b3480156108bc57600080fd5b506108d760048036038101906108d29190613806565b611db9565b005b3480156108e557600080fd5b5061090060048036038101906108fb9190613806565b611e89565b60405161090d9190613e72565b60405180910390f35b60007f7965db0b000000000000000000000000000000000000000000000000000000007bffffffffffffffffffffffffffffffffffffffffffffffffffffffff1916827bffffffffffffffffffffffffffffffffffffffffffffffffffffffff19161480610989575061098882611ea9565b5b9050919050565b6000801b6109a5816109a0611f13565b611f1b565b60016009600084815260200190815260200160002060006101000a81548160ff0219169083151502179055506001600a600084815260200190815260200160002060006101000a81548160ff0219169083151502179055505050565b6002600082815260200190815260200160002060009054906101000a900473ffffffffffffffffffffffffffffffffffffffff1673ffffffffffffffffffffffffffffffffffffffff163373ffffffffffffffffffffffffffffffffffffffff1614610aa2576040517f08c379a0000000000000000000000000000000000000000000000000000000008152600401610a999061406a565b60405180910390fd5b6001600a600083815260200190815260200160002060006101000a81548160ff02191690831515021790555050565b6000801b610ae681610ae1611f13565b611f1b565b8160ff16600d600085815260200190815260200160002081905550505050565b6000806000838152602001908152602001600020600101549050919050565b60066020528060005260406000206000915054906101000a900473ffffffffffffffffffffffffffffffffffffffff1681565b610b6182610b06565b610b7281610b6d611f13565b611f1b565b610b7c8383611fb8565b505050565b6000610b8e848484610f58565b90509392505050565b610b9f611f13565b73ffffffffffffffffffffffffffffffffffffffff168173ffffffffffffffffffffffffffffffffffffffff1614610c0c576040517f08c379a0000000000000000000000000000000000000000000000000000000008152600401610c039061410a565b60405180910390fd5b610c168282612098565b5050565b600c602052816000526040600020602052806000526040600020600091509150505481565b60076020528060005260406000206000915090508054610c5e906143c6565b80601f0160208091040260200160405190810160405280929190818152602001828054610c8a906143c6565b8015610cd75780601f10610cac57610100808354040283529160200191610cd7565b820191906000526020600020905b815481529060010190602001808311610cba57829003601f168201915b505050505081565b6000801b610cf481610cef611f13565b611f1b565b600b600083815260200190815260200160002060009054906101000a900460ff1615600b600084815260200190815260200160002060006101000a81548160ff0219169083151502179055505050565b600d6020528060005260406000206000915090505481565b60086020528060005260406000206000915090505481565b6000801b610d8981610d84611f13565b611f1b565b8173ffffffffffffffffffffffffffffffffffffffff166002600085815260200190815260200160002060009054906101000a900473ffffffffffffffffffffffffffffffffffffffff1673ffffffffffffffffffffffffffffffffffffffff161415610e2b576040517f08c379a0000000000000000000000000000000000000000000000000000000008152600401610e22906140ca565b60405180910390fd5b600073ffffffffffffffffffffffffffffffffffffffff166002600085815260200190815260200160002060009054906101000a900473ffffffffffffffffffffffffffffffffffffffff1673ffffffffffffffffffffffffffffffffffffffff161415610ece576040517f08c379a0000000000000000000000000000000000000000000000000000000008152600401610ec59061404a565b60405180910390fd5b816002600085815260200190815260200160002060006101000a81548173ffffffffffffffffffffffffffffffffffffffff021916908373ffffffffffffffffffffffffffffffffffffffff160217905550505050565b60026020528060005260406000206000915054906101000a900473ffffffffffffffffffffffffffffffffffffffff1681565b60006009600085815260200190815260200160002060009054906101000a900460ff16610fba576040517f08c379a0000000000000000000000000000000000000000000000000000000008152600401610fb190613f8a565b60405180910390fd5b600a600085815260200190815260200160002060009054906101000a900460ff161561101b576040517f08c379a000000000000000000000000000000000000000000000000000000000815260040161101290613f4a565b60405180910390fd5b6003600085815260200190815260200160002054600460008681526020019081526020016000205411611083576040517f08c379a000000000000000000000000000000000000000000000000000000000815260040161107a906140aa565b60405180910390fd5b60086000858152602001908152602001600020548211156110d9576040517f08c379a00000000000000000000000000000000000000000000000000000000081526004016110d090613f2a565b60405180910390fd5b600b600085815260200190815260200160002060009054906101000a900460ff161561116e573273ffffffffffffffffffffffffffffffffffffffff163373ffffffffffffffffffffffffffffffffffffffff161461116d576040517f08c379a00000000000000000000000000000000000000000000000000000000081526004016111649061408a565b60405180910390fd5b5b6000600d600086815260200190815260200160002054111561129657600d600085815260200190815260200160002054600c60003373ffffffffffffffffffffffffffffffffffffffff1673ffffffffffffffffffffffffffffffffffffffff1681526020019081526020016000206000868152602001908152602001600020541061122f576040517f08c379a000000000000000000000000000000000000000000000000000000000815260040161122690613f0a565b60405180910390fd5b600c60003373ffffffffffffffffffffffffffffffffffffffff1673ffffffffffffffffffffffffffffffffffffffff16815260200190815260200160002060008581526020019081526020016000206000815480929190611290906143f8565b91905055505b6000600f6000868152602001908152602001600020541180156112fc57506003600085815260200190815260200160002054600f6000868152602001908152602001600020546112e69190614181565b6004600086815260200190815260200160002054105b1561139f57600e600085815260200190815260200160002060003373ffffffffffffffffffffffffffffffffffffffff1673ffffffffffffffffffffffffffffffffffffffff16815260200190815260200160002060009054906101000a900460ff1661139e576040517f08c379a000000000000000000000000000000000000000000000000000000000815260040161139590613faa565b60405180910390fd5b5b6000600160009054906101000a900473ffffffffffffffffffffffffffffffffffffffff1673ffffffffffffffffffffffffffffffffffffffff16634ca3e9b8866040518263ffffffff1660e01b81526004016113fc919061412a565b60206040518083038186803b15801561141457600080fd5b505afa158015611428573d6000803e3d6000fd5b505050506040513d601f19601f8201168201806040525081019061144c91906136c1565b90506114588584612179565b60008173ffffffffffffffffffffffffffffffffffffffff1663284855866040518163ffffffff1660e01b815260040160206040518083038186803b1580156114a057600080fd5b505afa1580156114b4573d6000803e3d6000fd5b505050506040513d601f19601f820116820180604052508101906114d8919061382f565b8273ffffffffffffffffffffffffffffffffffffffff166318160ddd6040518163ffffffff1660e01b815260040160206040518083038186803b15801561151e57600080fd5b505afa158015611532573d6000803e3d6000fd5b505050506040513d601f19601f82011682018060405250810190611556919061382f565b10611596576040517f08c379a000000000000000000000000000000000000000000000000000000000815260040161158d906140ea565b60405180910390fd5b60005b8481101561167857600160046000898152602001908152602001600020546115c19190614181565b60046000898152602001908152602001600020819055508273ffffffffffffffffffffffffffffffffffffffff16636a627842876040518263ffffffff1660e01b81526004016116119190613df7565b602060405180830381600087803b15801561162b57600080fd5b505af115801561163f573d6000803e3d6000fd5b505050506040513d601f19601f82011682018060405250810190611663919061382f565b91508080611670906143f8565b915050611599565b5080925050509392505050565b600080600084815260200190815260200160002060000160008373ffffffffffffffffffffffffffffffffffffffff1673ffffffffffffffffffffffffffffffffffffffff16815260200190815260200160002060009054906101000a900460ff16905092915050565b60006009600083815260200190815260200160002060009054906101000a900460ff16611751576040517f08c379a000000000000000000000000000000000000000000000000000000000815260040161174890613f8a565b60405180910390fd5b6002600083815260200190815260200160002060009054906101000a900473ffffffffffffffffffffffffffffffffffffffff1673ffffffffffffffffffffffffffffffffffffffff163373ffffffffffffffffffffffffffffffffffffffff16146117f2576040517f08c379a00000000000000000000000000000000000000000000000000000000081526004016117e99061406a565b60405180910390fd5b600360008381526020019081526020016000205460046000848152602001908152602001600020541061185a576040517f08c379a000000000000000000000000000000000000000000000000000000000815260040161185190613fca565b60405180910390fd5b6001600460008481526020019081526020016000205461187a9190614181565b60046000848152602001908152602001600020819055506000600160009054906101000a900473ffffffffffffffffffffffffffffffffffffffff1673ffffffffffffffffffffffffffffffffffffffff16634ca3e9b8846040518263ffffffff1660e01b81526004016118ee919061412a565b60206040518083038186803b15801561190657600080fd5b505afa15801561191a573d6000803e3d6000fd5b505050506040513d601f19601f8201168201806040525081019061193e91906136c1565b9050600033905060008273ffffffffffffffffffffffffffffffffffffffff16636a627842836040518263ffffffff1660e01b81526004016119809190613df7565b602060405180830381600087803b15801561199a57600080fd5b505af11580156119ae573d6000803e3d6000fd5b505050506040513d601f19601f820116820180604052508101906119d2919061382f565b9050809350505050919050565b6000801b6119f4816119ef611f13565b611f1b565b6000600a600084815260200190815260200160002060006101000a81548160ff0219169083151502179055505050565b6000801b81565b600e6020528160005260406000206020528060005260406000206000915091509054906101000a900460ff1681565b60096020528060005260406000206000915054906101000a900460ff1681565b60056020528060005260406000206000915090505481565b60036020528060005260406000206000915090505481565b6000801b611abf81611aba611f13565b611f1b565b6001600a600084815260200190815260200160002060006101000a81548160ff0219169083151502179055505050565b60046020528060005260406000206000915090505481565b611b1082610b06565b611b2181611b1c611f13565b611f1b565b611b2b8383612098565b505050565b6000611b3d833384610f58565b905092915050565b6002600083815260200190815260200160002060009054906101000a900473ffffffffffffffffffffffffffffffffffffffff1673ffffffffffffffffffffffffffffffffffffffff163373ffffffffffffffffffffffffffffffffffffffff1614611be6576040517f08c379a0000000000000000000000000000000000000000000000000000000008152600401611bdd9061406a565b60405180910390fd5b6009600083815260200190815260200160002060009054906101000a900460ff1615611c47576040517f08c379a0000000000000000000000000000000000000000000000000000000008152600401611c3e90613fea565b60405180910390fd5b8060036000848152602001908152602001600020819055505050565b600f6020528060005260406000206000915090505481565b6002600083815260200190815260200160002060009054906101000a900473ffffffffffffffffffffffffffffffffffffffff1673ffffffffffffffffffffffffffffffffffffffff163373ffffffffffffffffffffffffffffffffffffffff1614611d1c576040517f08c379a0000000000000000000000000000000000000000000000000000000008152600401611d139061406a565b60405180910390fd5b6009600083815260200190815260200160002060009054906101000a900460ff1615611d7d576040517f08c379a0000000000000000000000000000000000000000000000000000000008152600401611d7490613fea565b60405180910390fd5b8060056000848152602001908152602001600020819055505050565b600b6020528060005260406000206000915054906101000a900460ff1681565b6002600082815260200190815260200160002060009054906101000a900473ffffffffffffffffffffffffffffffffffffffff1673ffffffffffffffffffffffffffffffffffffffff163373ffffffffffffffffffffffffffffffffffffffff1614611e5a576040517f08c379a0000000000000000000000000000000000000000000000000000000008152600401611e519061406a565b60405180910390fd5b6000600a600083815260200190815260200160002060006101000a81548160ff02191690831515021790555050565b600a6020528060005260406000206000915054906101000a900460ff1681565b60007f01ffc9a7000000000000000000000000000000000000000000000000000000007bffffffffffffffffffffffffffffffffffffffffffffffffffffffff1916827bffffffffffffffffffffffffffffffffffffffffffffffffffffffff1916149050919050565b600033905090565b611f258282611685565b611fb457611f4a8173ffffffffffffffffffffffffffffffffffffffff1660146124a9565b611f588360001c60206124a9565b604051602001611f69929190613dbd565b6040516020818303038152906040526040517f08c379a0000000000000000000000000000000000000000000000000000000008152600401611fab9190613ea8565b60405180910390fd5b5050565b611fc28282611685565b61209457600160008084815260200190815260200160002060000160008373ffffffffffffffffffffffffffffffffffffffff1673ffffffffffffffffffffffffffffffffffffffff16815260200190815260200160002060006101000a81548160ff021916908315150217905550612039611f13565b73ffffffffffffffffffffffffffffffffffffffff168173ffffffffffffffffffffffffffffffffffffffff16837f2f8788117e7eff1d82e926ec794901d17c78024a50270940304540a733656f0d60405160405180910390a45b5050565b6120a28282611685565b1561217557600080600084815260200190815260200160002060000160008373ffffffffffffffffffffffffffffffffffffffff1673ffffffffffffffffffffffffffffffffffffffff16815260200190815260200160002060006101000a81548160ff02191690831515021790555061211a611f13565b73ffffffffffffffffffffffffffffffffffffffff168173ffffffffffffffffffffffffffffffffffffffff16837ff6391f5c32d9c69d2a47ea670b442974b53935d1edc7fd64eb21e047a839171b60405160405180910390a45b5050565b60006121a18260056000868152602001908152602001600020546127a390919063ffffffff16565b90506040516020016121b290613da8565b60405160208183030381529060405280519060200120600760008581526020019081526020016000206040516020016121eb9190613d91565b60405160208183030381529060405280519060200120146124565760003414612249576040517f08c379a00000000000000000000000000000000000000000000000000000000081526004016122409061402a565b60405180910390fd5b806006600085815260200190815260200160002060009054906101000a900473ffffffffffffffffffffffffffffffffffffffff1673ffffffffffffffffffffffffffffffffffffffff1663dd62ed3e33306040518363ffffffff1660e01b81526004016122b8929190613e12565b60206040518083038186803b1580156122d057600080fd5b505afa1580156122e4573d6000803e3d6000fd5b505050506040513d601f19601f82011682018060405250810190612308919061382f565b1015612349576040517f08c379a00000000000000000000000000000000000000000000000000000000081526004016123409061400a565b60405180910390fd5b806006600085815260200190815260200160002060009054906101000a900473ffffffffffffffffffffffffffffffffffffffff1673ffffffffffffffffffffffffffffffffffffffff166370a08231336040518263ffffffff1660e01b81526004016123b69190613df7565b60206040518083038186803b1580156123ce57600080fd5b505afa1580156123e2573d6000803e3d6000fd5b505050506040513d601f19601f82011682018060405250810190612406919061382f565b1015612447576040517f08c379a000000000000000000000000000000000000000000000000000000000815260040161243e90613f6a565b60405180910390fd5b61245183836127b9565b6124a4565b80341015612499576040517f08c379a000000000000000000000000000000000000000000000000000000000815260040161249090613eea565b60405180910390fd5b6124a38383612f49565b5b505050565b6060600060028360026124bc9190614208565b6124c69190614181565b67ffffffffffffffff811115612505577f4e487b7100000000000000000000000000000000000000000000000000000000600052604160045260246000fd5b6040519080825280601f01601f1916602001820160405280156125375781602001600182028036833780820191505090505b5090507f300000000000000000000000000000000000000000000000000000000000000081600081518110612595577f4e487b7100000000000000000000000000000000000000000000000000000000600052603260045260246000fd5b60200101907effffffffffffffffffffffffffffffffffffffffffffffffffffffffffffff1916908160001a9053507f78000000000000000000000000000000000000000000000000000000000000008160018151811061261f577f4e487b7100000000000000000000000000000000000000000000000000000000600052603260045260246000fd5b60200101907effffffffffffffffffffffffffffffffffffffffffffffffffffffffffffff1916908160001a9053506000600184600261265f9190614208565b6126699190614181565b90505b6001811115612755577f3031323334353637383961626364656600000000000000000000000000000000600f8616601081106126d1577f4e487b7100000000000000000000000000000000000000000000000000000000600052603260045260246000fd5b1a60f81b82828151811061270e577f4e487b7100000000000000000000000000000000000000000000000000000000600052603260045260246000fd5b60200101907effffffffffffffffffffffffffffffffffffffffffffffffffffffffffffff1916908160001a905350600485901c94508061274e9061439c565b905061266c565b5060008414612799576040517f08c379a000000000000000000000000000000000000000000000000000000000815260040161279090613eca565b60405180910390fd5b8091505092915050565b600081836127b19190614208565b905092915050565b60006005600084815260200190815260200160002054905060006127e683836127a390919063ffffffff16565b905060006128b1600160009054906101000a900473ffffffffffffffffffffffffffffffffffffffff1673ffffffffffffffffffffffffffffffffffffffff16631f7418976040518163ffffffff1660e01b8152600401602060405180830381600087803b15801561285757600080fd5b505af115801561286b573d6000803e3d6000fd5b505050506040513d601f19601f8201168201806040525081019061288f919061382f565b6128a36064856135d890919063ffffffff16565b6127a390919063ffffffff16565b90506000811115612a21576006600086815260200190815260200160002060009054906101000a900473ffffffffffffffffffffffffffffffffffffffff1673ffffffffffffffffffffffffffffffffffffffff166323b872dd33600160009054906101000a900473ffffffffffffffffffffffffffffffffffffffff1673ffffffffffffffffffffffffffffffffffffffff16637dafc0d36040518163ffffffff1660e01b8152600401602060405180830381600087803b15801561297657600080fd5b505af115801561298a573d6000803e3d6000fd5b505050506040513d601f19601f820116820180604052508101906129ae91906136ea565b846040518463ffffffff1660e01b81526004016129cd93929190613e3b565b602060405180830381600087803b1580156129e757600080fd5b505af11580156129fb573d6000803e3d6000fd5b505050506040513d601f19601f82011682018060405250810190612a1f919061374f565b505b6000600160009054906101000a900473ffffffffffffffffffffffffffffffffffffffff1673ffffffffffffffffffffffffffffffffffffffff16634ca3e9b8876040518263ffffffff1660e01b8152600401612a7e919061412a565b60206040518083038186803b158015612a9657600080fd5b505afa158015612aaa573d6000803e3d6000fd5b505050506040513d601f19601f82011682018060405250810190612ace91906136c1565b90508073ffffffffffffffffffffffffffffffffffffffff16638cbe8d806040518163ffffffff1660e01b815260040160206040518083038186803b158015612b1657600080fd5b505afa158015612b2a573d6000803e3d6000fd5b505050506040513d601f19601f82011682018060405250810190612b4e91906136ea565b506000612b6483856135ee90919063ffffffff16565b90506000808373ffffffffffffffffffffffffffffffffffffffff16632cc889746040518163ffffffff1660e01b815260040160206040518083038186803b158015612baf57600080fd5b505afa158015612bc3573d6000803e3d6000fd5b505050506040513d601f19601f82011682018060405250810190612be7919061382f565b1115612ddd57612c908373ffffffffffffffffffffffffffffffffffffffff16632cc889746040518163ffffffff1660e01b815260040160206040518083038186803b158015612c3657600080fd5b505afa158015612c4a573d6000803e3d6000fd5b505050506040513d601f19601f82011682018060405250810190612c6e919061382f565b612c826064856135d890919063ffffffff16565b6127a390919063ffffffff16565b90506000811115612ddc576006600089815260200190815260200160002060009054906101000a900473ffffffffffffffffffffffffffffffffffffffff1673ffffffffffffffffffffffffffffffffffffffff166323b872dd338573ffffffffffffffffffffffffffffffffffffffff16636ff314c76040518163ffffffff1660e01b815260040160206040518083038186803b158015612d3157600080fd5b505afa158015612d45573d6000803e3d6000fd5b505050506040513d601f19601f82011682018060405250810190612d6991906136ea565b846040518463ffffffff1660e01b8152600401612d8893929190613e3b565b602060405180830381600087803b158015612da257600080fd5b505af1158015612db6573d6000803e3d6000fd5b505050506040513d601f19601f82011682018060405250810190612dda919061374f565b505b5b6000612df282846135ee90919063ffffffff16565b90506000811115612f3e57600660008a815260200190815260200160002060009054906101000a900473ffffffffffffffffffffffffffffffffffffffff1673ffffffffffffffffffffffffffffffffffffffff166323b872dd338673ffffffffffffffffffffffffffffffffffffffff16638cbe8d806040518163ffffffff1660e01b815260040160206040518083038186803b158015612e9357600080fd5b505afa158015612ea7573d6000803e3d6000fd5b505050506040513d601f19601f82011682018060405250810190612ecb91906136ea565b846040518463ffffffff1660e01b8152600401612eea93929190613e3b565b602060405180830381600087803b158015612f0457600080fd5b505af1158015612f18573d6000803e3d6000fd5b505050506040513d601f19601f82011682018060405250810190612f3c919061374f565b505b505050505050505050565b60003411156135d4576000600560008481526020019081526020016000205490506000612f7f83836127a390919063ffffffff16565b90506000612f9682346135ee90919063ffffffff16565b90506000811115612fe9573373ffffffffffffffffffffffffffffffffffffffff166108fc829081150290604051600060405180830381858888f19350505050158015612fe7573d6000803e3d6000fd5b505b60006130b2600160009054906101000a900473ffffffffffffffffffffffffffffffffffffffff1673ffffffffffffffffffffffffffffffffffffffff16631f7418976040518163ffffffff1660e01b8152600401602060405180830381600087803b15801561305857600080fd5b505af115801561306c573d6000803e3d6000fd5b505050506040513d601f19601f82011682018060405250810190613090919061382f565b6130a46064866135d890919063ffffffff16565b6127a390919063ffffffff16565b905060008111156131a657600160009054906101000a900473ffffffffffffffffffffffffffffffffffffffff1673ffffffffffffffffffffffffffffffffffffffff16637dafc0d36040518163ffffffff1660e01b8152600401602060405180830381600087803b15801561312757600080fd5b505af115801561313b573d6000803e3d6000fd5b505050506040513d601f19601f8201168201806040525081019061315f91906136ea565b73ffffffffffffffffffffffffffffffffffffffff166108fc829081150290604051600060405180830381858888f193505050501580156131a4573d6000803e3d6000fd5b505b6000600160009054906101000a900473ffffffffffffffffffffffffffffffffffffffff1673ffffffffffffffffffffffffffffffffffffffff16634ca3e9b8886040518263ffffffff1660e01b8152600401613203919061412a565b60206040518083038186803b15801561321b57600080fd5b505afa15801561322f573d6000803e3d6000fd5b505050506040513d601f19601f8201168201806040525081019061325391906136c1565b90508073ffffffffffffffffffffffffffffffffffffffff16638cbe8d806040518163ffffffff1660e01b815260040160206040518083038186803b15801561329b57600080fd5b505afa1580156132af573d6000803e3d6000fd5b505050506040513d601f19601f820116820180604052508101906132d391906136ea565b5060006132e983866135ee90919063ffffffff16565b90506000808373ffffffffffffffffffffffffffffffffffffffff16632cc889746040518163ffffffff1660e01b815260040160206040518083038186803b15801561333457600080fd5b505afa158015613348573d6000803e3d6000fd5b505050506040513d601f19601f8201168201806040525081019061336c919061382f565b11156134e6576134158373ffffffffffffffffffffffffffffffffffffffff16632cc889746040518163ffffffff1660e01b815260040160206040518083038186803b1580156133bb57600080fd5b505afa1580156133cf573d6000803e3d6000fd5b505050506040513d601f19601f820116820180604052508101906133f3919061382f565b6134076064856135d890919063ffffffff16565b6127a390919063ffffffff16565b905060008111156134e5578273ffffffffffffffffffffffffffffffffffffffff16636ff314c76040518163ffffffff1660e01b815260040160206040518083038186803b15801561346657600080fd5b505afa15801561347a573d6000803e3d6000fd5b505050506040513d601f19601f8201168201806040525081019061349e91906136ea565b73ffffffffffffffffffffffffffffffffffffffff166108fc829081150290604051600060405180830381858888f193505050501580156134e3573d6000803e3d6000fd5b505b5b60006134fb82846135ee90919063ffffffff16565b905060008111156135cb578373ffffffffffffffffffffffffffffffffffffffff16638cbe8d806040518163ffffffff1660e01b815260040160206040518083038186803b15801561354c57600080fd5b505afa158015613560573d6000803e3d6000fd5b505050506040513d601f19601f8201168201806040525081019061358491906136ea565b73ffffffffffffffffffffffffffffffffffffffff166108fc829081150290604051600060405180830381858888f193505050501580156135c9573d6000803e3d6000fd5b505b50505050505050505b5050565b600081836135e691906141d7565b905092915050565b600081836135fc9190614262565b905092915050565b600081359050613613816148d7565b92915050565b600081519050613628816148d7565b92915050565b60008151905061363d816148ee565b92915050565b60008151905061365281614905565b92915050565b6000813590506136678161491c565b92915050565b60008135905061367c81614933565b92915050565b6000813590506136918161494a565b92915050565b6000815190506136a68161494a565b92915050565b6000813590506136bb81614961565b92915050565b6000602082840312156136d357600080fd5b60006136e184828501613619565b91505092915050565b6000602082840312156136fc57600080fd5b600061370a8482850161362e565b91505092915050565b6000806040838503121561372657600080fd5b600061373485828601613604565b925050602061374585828601613682565b9150509250929050565b60006020828403121561376157600080fd5b600061376f84828501613643565b91505092915050565b60006020828403121561378a57600080fd5b600061379884828501613658565b91505092915050565b600080604083850312156137b457600080fd5b60006137c285828601613658565b92505060206137d385828601613604565b9150509250929050565b6000602082840312156137ef57600080fd5b60006137fd8482850161366d565b91505092915050565b60006020828403121561381857600080fd5b600061382684828501613682565b91505092915050565b60006020828403121561384157600080fd5b600061384f84828501613697565b91505092915050565b6000806040838503121561386b57600080fd5b600061387985828601613682565b925050602061388a85828601613604565b9150509250929050565b6000806000606084860312156138a957600080fd5b60006138b786828701613682565b93505060206138c886828701613604565b92505060406138d986828701613682565b9150509250925092565b600080604083850312156138f657600080fd5b600061390485828601613682565b925050602061391585828601613682565b9150509250929050565b6000806040838503121561393257600080fd5b600061394085828601613682565b9250506020613951858286016136ac565b9150509250929050565b61396481614333565b82525050565b61397381614296565b82525050565b613982816142ba565b82525050565b613991816142c6565b82525050565b60006139a28261415a565b6139ac8185614165565b93506139bc818560208601614369565b6139c5816144ce565b840191505092915050565b60006139db8261415a565b6139e58185614176565b93506139f5818560208601614369565b80840191505092915050565b60008154613a0e816143c6565b613a188186614176565b94506001821660008114613a335760018114613a4457613a77565b60ff19831686528186019350613a77565b613a4d85614145565b60005b83811015613a6f57815481890152600182019150602081019050613a50565b838801955050505b50505092915050565b6000613a8d602083614165565b9150613a98826144df565b602082019050919050565b6000613ab0602083614165565b9150613abb82614508565b602082019050919050565b6000613ad3601583614165565b9150613ade82614531565b602082019050919050565b6000613af6601583614165565b9150613b018261455a565b602082019050919050565b6000613b19600e83614165565b9150613b2482614583565b602082019050919050565b6000613b3c601583614165565b9150613b47826145ac565b602082019050919050565b6000613b5f601083614165565b9150613b6a826145d5565b602082019050919050565b6000613b82601083614165565b9150613b8d826145fe565b602082019050919050565b6000613ba5600c83614165565b9150613bb082614627565b602082019050919050565b6000613bc8600c83614165565b9150613bd382614650565b602082019050919050565b6000613beb602283614165565b9150613bf682614679565b604082019050919050565b6000613c0e603f83614165565b9150613c19826146c8565b604082019050919050565b6000613c31600383614176565b9150613c3c82614717565b600382019050919050565b6000613c54601b83614165565b9150613c5f82614740565b602082019050919050565b6000613c77600a83614165565b9150613c8282614769565b602082019050919050565b6000613c9a601083614165565b9150613ca582614792565b602082019050919050565b6000613cbd601283614165565b9150613cc8826147bb565b602082019050919050565b6000613ce0601383614165565b9150613ceb826147e4565b602082019050919050565b6000613d03601a83614165565b9150613d0e8261480d565b602082019050919050565b6000613d26601783614176565b9150613d3182614836565b601782019050919050565b6000613d49601183614176565b9150613d548261485f565b601182019050919050565b6000613d6c602f83614165565b9150613d7782614888565b604082019050919050565b613d8b8161431c565b82525050565b6000613d9d8284613a01565b915081905092915050565b6000613db382613c24565b9150819050919050565b6000613dc882613d19565b9150613dd482856139d0565b9150613ddf82613d3c565b9150613deb82846139d0565b91508190509392505050565b6000602082019050613e0c600083018461396a565b92915050565b6000604082019050613e27600083018561396a565b613e34602083018461396a565b9392505050565b6000606082019050613e50600083018661396a565b613e5d602083018561395b565b613e6a6040830184613d82565b949350505050565b6000602082019050613e876000830184613979565b92915050565b6000602082019050613ea26000830184613988565b92915050565b60006020820190508181036000830152613ec28184613997565b905092915050565b60006020820190508181036000830152613ee381613a80565b9050919050565b60006020820190508181036000830152613f0381613aa3565b9050919050565b60006020820190508181036000830152613f2381613ac6565b9050919050565b60006020820190508181036000830152613f4381613ae9565b9050919050565b60006020820190508181036000830152613f6381613b0c565b9050919050565b60006020820190508181036000830152613f8381613b2f565b9050919050565b60006020820190508181036000830152613fa381613b52565b9050919050565b60006020820190508181036000830152613fc381613b75565b9050919050565b60006020820190508181036000830152613fe381613b98565b9050919050565b6000602082019050818103600083015261400381613bbb565b9050919050565b6000602082019050818103600083015261402381613bde565b9050919050565b6000602082019050818103600083015261404381613c01565b9050919050565b6000602082019050818103600083015261406381613c47565b9050919050565b6000602082019050818103600083015261408381613c6a565b9050919050565b600060208201905081810360008301526140a381613c8d565b9050919050565b600060208201905081810360008301526140c381613cb0565b9050919050565b600060208201905081810360008301526140e381613cd3565b9050919050565b6000602082019050818103600083015261410381613cf6565b9050919050565b6000602082019050818103600083015261412381613d5f565b9050919050565b600060208201905061413f6000830184613d82565b92915050565b60008190508160005260206000209050919050565b600081519050919050565b600082825260208201905092915050565b600081905092915050565b600061418c8261431c565b91506141978361431c565b9250827fffffffffffffffffffffffffffffffffffffffffffffffffffffffffffffffff038211156141cc576141cb614441565b5b828201905092915050565b60006141e28261431c565b91506141ed8361431c565b9250826141fd576141fc614470565b5b828204905092915050565b60006142138261431c565b915061421e8361431c565b9250817fffffffffffffffffffffffffffffffffffffffffffffffffffffffffffffffff048311821515161561425757614256614441565b5b828202905092915050565b600061426d8261431c565b91506142788361431c565b92508282101561428b5761428a614441565b5b828203905092915050565b60006142a1826142fc565b9050919050565b60006142b3826142fc565b9050919050565b60008115159050919050565b6000819050919050565b60007fffffffff0000000000000000000000000000000000000000000000000000000082169050919050565b600073ffffffffffffffffffffffffffffffffffffffff82169050919050565b6000819050919050565b600060ff82169050919050565b600061433e82614345565b9050919050565b600061435082614357565b9050919050565b6000614362826142fc565b9050919050565b60005b8381101561438757808201518184015260208101905061436c565b83811115614396576000848401525b50505050565b60006143a78261431c565b915060008214156143bb576143ba614441565b5b600182039050919050565b600060028204905060018216806143de57607f821691505b602082108114156143f2576143f161449f565b5b50919050565b60006144038261431c565b91507fffffffffffffffffffffffffffffffffffffffffffffffffffffffffffffffff82141561443657614435614441565b5b600182019050919050565b7f4e487b7100000000000000000000000000000000000000000000000000000000600052601160045260246000fd5b7f4e487b7100000000000000000000000000000000000000000000000000000000600052601260045260246000fd5b7f4e487b7100000000000000000000000000000000000000000000000000000000600052602260045260246000fd5b6000601f19601f8301169050919050565b7f537472696e67733a20686578206c656e67746820696e73756666696369656e74600082015250565b7f4d7573742073656e64206d696e696d756d2076616c756520746f206d696e7421600082015250565b7f52656163686564206d696e74696e67206c696d69740000000000000000000000600082015250565b7f65786365646573206d696e74696e67206c696d69740000000000000000000000600082015250565b7f70726f6a65637420706175736564000000000000000000000000000000000000600082015250565b7f496e73756666696369656e742062616c616e63652e0000000000000000000000600082015250565b7f70726f6a656374206e6f74206c69766500000000000000000000000000000000600082015250565b7f6e6f74206f6e20616c6c6f776c69737400000000000000000000000000000000600082015250565b7f6d6178207072656d696e74730000000000000000000000000000000000000000600082015250565b7f616c7265616479206c6976650000000000000000000000000000000000000000600082015250565b7f496e73756666696369656e742046756e647320417070726f76656420666f722060008201527f5458000000000000000000000000000000000000000000000000000000000000602082015250565b7f746869732070726f6a6563742061636365707473206120646966666572656e7460008201527f2063757272656e637920616e642063616e6e6f74206163636570742045544800602082015250565b7f4554480000000000000000000000000000000000000000000000000000000000600082015250565b7f6f776e65722063616e2774206265207a65726f20616464726573730000000000600082015250565b7f6f6e6c79206f776e657200000000000000000000000000000000000000000000600082015250565b7f4e6f20436f6e7472616374204275797300000000000000000000000000000000600082015250565b7f7072656d696e74732072656d61696e696e670000000000000000000000000000600082015250565b7f63616e27742062652073616d65206f776e657200000000000000000000000000600082015250565b7f65786365656473207175616e746974792072656d61696e696e67000000000000600082015250565b7f416363657373436f6e74726f6c3a206163636f756e7420000000000000000000600082015250565b7f206973206d697373696e6720726f6c6520000000000000000000000000000000600082015250565b7f416363657373436f6e74726f6c3a2063616e206f6e6c792072656e6f756e636560008201527f20726f6c657320666f722073656c660000000000000000000000000000000000602082015250565b6148e081614296565b81146148eb57600080fd5b50565b6148f7816142a8565b811461490257600080fd5b50565b61490e816142ba565b811461491957600080fd5b50565b614925816142c6565b811461493057600080fd5b50565b61493c816142d0565b811461494757600080fd5b50565b6149538161431c565b811461495e57600080fd5b50565b61496a81614326565b811461497557600080fd5b5056fea264697066735822122029fac1df0ffe795110e12b2ce03b6ba58ab00fc832eebf641eab58c5f0c1f64564736f6c63430008020033",
  "linkReferences": {},
  "deployedLinkReferences": {}
}