{
  "_format": "hh-sol-artifact-1",
  "contractName": "FineShop",
  "sourceName": "contracts/FineShop.sol",
  "abi": [
    {
      "inputs": [
        {
          "internalType": "address",
          "name": "_fineCoreAddresss",
          "type": "address"
        }
      ],
      "stateMutability": "nonpayable",
      "type": "constructor"
    },
    {
      "anonymous": false,
      "inputs": [
        {
          "indexed": true,
          "internalType": "bytes32",
          "name": "role",
          "type": "bytes32"
        },
        {
          "indexed": true,
          "internalType": "bytes32",
          "name": "previousAdminRole",
          "type": "bytes32"
        },
        {
          "indexed": true,
          "internalType": "bytes32",
          "name": "newAdminRole",
          "type": "bytes32"
        }
      ],
      "name": "RoleAdminChanged",
      "type": "event"
    },
    {
      "anonymous": false,
      "inputs": [
        {
          "indexed": true,
          "internalType": "bytes32",
          "name": "role",
          "type": "bytes32"
        },
        {
          "indexed": true,
          "internalType": "address",
          "name": "account",
          "type": "address"
        },
        {
          "indexed": true,
          "internalType": "address",
          "name": "sender",
          "type": "address"
        }
      ],
      "name": "RoleGranted",
      "type": "event"
    },
    {
      "anonymous": false,
      "inputs": [
        {
          "indexed": true,
          "internalType": "bytes32",
          "name": "role",
          "type": "bytes32"
        },
        {
          "indexed": true,
          "internalType": "address",
          "name": "account",
          "type": "address"
        },
        {
          "indexed": true,
          "internalType": "address",
          "name": "sender",
          "type": "address"
        }
      ],
      "name": "RoleRevoked",
      "type": "event"
    },
    {
      "inputs": [],
      "name": "DEFAULT_ADMIN_ROLE",
      "outputs": [
        {
          "internalType": "bytes32",
          "name": "",
          "type": "bytes32"
        }
      ],
      "stateMutability": "view",
      "type": "function"
    },
    {
      "inputs": [
        {
          "internalType": "uint256",
          "name": "_projectId",
          "type": "uint256"
        },
        {
          "internalType": "uint256",
          "name": "count",
          "type": "uint256"
        }
      ],
      "name": "buy",
      "outputs": [
        {
          "internalType": "uint256",
          "name": "",
          "type": "uint256"
        }
      ],
      "stateMutability": "payable",
      "type": "function"
    },
    {
      "inputs": [
        {
          "internalType": "uint256",
          "name": "_projectId",
          "type": "uint256"
        },
        {
          "internalType": "address",
          "name": "to",
          "type": "address"
        },
        {
          "internalType": "uint256",
          "name": "count",
          "type": "uint256"
        }
      ],
      "name": "buyFor",
      "outputs": [
        {
          "internalType": "uint256",
          "name": "",
          "type": "uint256"
        }
      ],
      "stateMutability": "payable",
      "type": "function"
    },
    {
      "inputs": [
        {
          "internalType": "uint256",
          "name": "",
          "type": "uint256"
        }
      ],
      "name": "contractFilterProject",
      "outputs": [
        {
          "internalType": "bool",
          "name": "",
          "type": "bool"
        }
      ],
      "stateMutability": "view",
      "type": "function"
    },
    {
      "inputs": [
        {
          "internalType": "bytes32",
          "name": "role",
          "type": "bytes32"
        }
      ],
      "name": "getRoleAdmin",
      "outputs": [
        {
          "internalType": "bytes32",
          "name": "",
          "type": "bytes32"
        }
      ],
      "stateMutability": "view",
      "type": "function"
    },
    {
      "inputs": [
        {
          "internalType": "uint256",
          "name": "_projectId",
          "type": "uint256"
        }
      ],
      "name": "goLive",
      "outputs": [],
      "stateMutability": "nonpayable",
      "type": "function"
    },
    {
      "inputs": [
        {
          "internalType": "bytes32",
          "name": "role",
          "type": "bytes32"
        },
        {
          "internalType": "address",
          "name": "account",
          "type": "address"
        }
      ],
      "name": "grantRole",
      "outputs": [],
      "stateMutability": "nonpayable",
      "type": "function"
    },
    {
      "inputs": [
        {
          "internalType": "bytes32",
          "name": "role",
          "type": "bytes32"
        },
        {
          "internalType": "address",
          "name": "account",
          "type": "address"
        }
      ],
      "name": "hasRole",
      "outputs": [
        {
          "internalType": "bool",
          "name": "",
          "type": "bool"
        }
      ],
      "stateMutability": "view",
      "type": "function"
    },
    {
      "inputs": [
        {
          "internalType": "uint256",
          "name": "_projectId",
          "type": "uint256"
        }
      ],
      "name": "pause",
      "outputs": [],
      "stateMutability": "nonpayable",
      "type": "function"
    },
    {
      "inputs": [
        {
          "internalType": "uint256",
          "name": "_projectId",
          "type": "uint256"
        }
      ],
      "name": "pauseAdmin",
      "outputs": [],
      "stateMutability": "nonpayable",
      "type": "function"
    },
    {
      "inputs": [
        {
          "internalType": "uint256",
          "name": "_projectId",
          "type": "uint256"
        }
      ],
      "name": "premint",
      "outputs": [
        {
          "internalType": "uint256",
          "name": "",
          "type": "uint256"
        }
      ],
      "stateMutability": "payable",
      "type": "function"
    },
    {
      "inputs": [
        {
          "internalType": "uint256",
          "name": "",
          "type": "uint256"
        },
        {
          "internalType": "address",
          "name": "",
          "type": "address"
        }
      ],
      "name": "projectAllowList",
      "outputs": [
        {
          "internalType": "bool",
          "name": "",
          "type": "bool"
        }
      ],
      "stateMutability": "view",
      "type": "function"
    },
    {
      "inputs": [
        {
          "internalType": "uint256",
          "name": "",
          "type": "uint256"
        }
      ],
      "name": "projectAllowListCount",
      "outputs": [
        {
          "internalType": "uint256",
          "name": "",
          "type": "uint256"
        }
      ],
      "stateMutability": "view",
      "type": "function"
    },
    {
      "inputs": [
        {
          "internalType": "uint256",
          "name": "",
          "type": "uint256"
        }
      ],
      "name": "projectBulkMintCount",
      "outputs": [
        {
          "internalType": "uint256",
          "name": "",
          "type": "uint256"
        }
      ],
      "stateMutability": "view",
      "type": "function"
    },
    {
      "inputs": [
        {
          "internalType": "uint256",
          "name": "",
          "type": "uint256"
        }
      ],
      "name": "projectCurrencyAddress",
      "outputs": [
        {
          "internalType": "address",
          "name": "",
          "type": "address"
        }
      ],
      "stateMutability": "view",
      "type": "function"
    },
    {
      "inputs": [
        {
          "internalType": "uint256",
          "name": "",
          "type": "uint256"
        }
      ],
      "name": "projectCurrencySymbol",
      "outputs": [
        {
          "internalType": "string",
          "name": "",
          "type": "string"
        }
      ],
      "stateMutability": "view",
      "type": "function"
    },
    {
      "inputs": [
        {
          "internalType": "uint256",
          "name": "",
          "type": "uint256"
        }
      ],
      "name": "projectLive",
      "outputs": [
        {
          "internalType": "bool",
          "name": "",
          "type": "bool"
        }
      ],
      "stateMutability": "view",
      "type": "function"
    },
    {
      "inputs": [
        {
          "internalType": "address",
          "name": "",
          "type": "address"
        },
        {
          "internalType": "uint256",
          "name": "",
          "type": "uint256"
        }
      ],
      "name": "projectMintCounter",
      "outputs": [
        {
          "internalType": "uint256",
          "name": "",
          "type": "uint256"
        }
      ],
      "stateMutability": "view",
      "type": "function"
    },
    {
      "inputs": [
        {
          "internalType": "uint256",
          "name": "",
          "type": "uint256"
        }
      ],
      "name": "projectMintLimit",
      "outputs": [
        {
          "internalType": "uint256",
          "name": "",
          "type": "uint256"
        }
      ],
      "stateMutability": "view",
      "type": "function"
    },
    {
      "inputs": [
        {
          "internalType": "uint256",
          "name": "",
          "type": "uint256"
        }
      ],
      "name": "projectMinted",
      "outputs": [
        {
          "internalType": "uint256",
          "name": "",
          "type": "uint256"
        }
      ],
      "stateMutability": "view",
      "type": "function"
    },
    {
      "inputs": [
        {
          "internalType": "uint256",
          "name": "",
          "type": "uint256"
        }
      ],
      "name": "projectOwner",
      "outputs": [
        {
          "internalType": "address",
          "name": "",
          "type": "address"
        }
      ],
      "stateMutability": "view",
      "type": "function"
    },
    {
      "inputs": [
        {
          "internalType": "uint256",
          "name": "",
          "type": "uint256"
        }
      ],
      "name": "projectPause",
      "outputs": [
        {
          "internalType": "bool",
          "name": "",
          "type": "bool"
        }
      ],
      "stateMutability": "view",
      "type": "function"
    },
    {
      "inputs": [
        {
          "internalType": "uint256",
          "name": "",
          "type": "uint256"
        }
      ],
      "name": "projectPremints",
      "outputs": [
        {
          "internalType": "uint256",
          "name": "",
          "type": "uint256"
        }
      ],
      "stateMutability": "view",
      "type": "function"
    },
    {
      "inputs": [
        {
          "internalType": "uint256",
          "name": "",
          "type": "uint256"
        }
      ],
      "name": "projectPrice",
      "outputs": [
        {
          "internalType": "uint256",
          "name": "",
          "type": "uint256"
        }
      ],
      "stateMutability": "view",
      "type": "function"
    },
    {
      "inputs": [
        {
          "internalType": "uint256",
          "name": "_projectId",
          "type": "uint256"
        },
        {
          "internalType": "address",
          "name": "to",
          "type": "address"
        },
        {
          "internalType": "uint256",
          "name": "count",
          "type": "uint256"
        }
      ],
      "name": "purchaseTo",
      "outputs": [
        {
          "internalType": "uint256",
          "name": "",
          "type": "uint256"
        }
      ],
      "stateMutability": "payable",
      "type": "function"
    },
    {
      "inputs": [
        {
          "internalType": "bytes32",
          "name": "role",
          "type": "bytes32"
        },
        {
          "internalType": "address",
          "name": "account",
          "type": "address"
        }
      ],
      "name": "renounceRole",
      "outputs": [],
      "stateMutability": "nonpayable",
      "type": "function"
    },
    {
      "inputs": [
        {
          "internalType": "bytes32",
          "name": "role",
          "type": "bytes32"
        },
        {
          "internalType": "address",
          "name": "account",
          "type": "address"
        }
      ],
      "name": "revokeRole",
      "outputs": [],
      "stateMutability": "nonpayable",
      "type": "function"
    },
    {
      "inputs": [
        {
          "internalType": "uint256",
          "name": "_projectId",
          "type": "uint256"
        },
        {
          "internalType": "address",
          "name": "newOwner",
          "type": "address"
        }
      ],
      "name": "setOwner",
      "outputs": [],
      "stateMutability": "nonpayable",
      "type": "function"
    },
    {
      "inputs": [
        {
          "internalType": "uint256",
          "name": "_projectId",
          "type": "uint256"
        },
        {
          "internalType": "uint256",
          "name": "premints",
          "type": "uint256"
        }
      ],
      "name": "setPremints",
      "outputs": [],
      "stateMutability": "nonpayable",
      "type": "function"
    },
    {
      "inputs": [
        {
          "internalType": "uint256",
          "name": "_projectId",
          "type": "uint256"
        },
        {
          "internalType": "uint256",
          "name": "price",
          "type": "uint256"
        }
      ],
      "name": "setPrice",
      "outputs": [],
      "stateMutability": "nonpayable",
      "type": "function"
    },
    {
      "inputs": [
        {
          "internalType": "uint256",
          "name": "_projectId",
          "type": "uint256"
        },
        {
          "internalType": "uint8",
          "name": "_limit",
          "type": "uint8"
        }
      ],
      "name": "setProjectMintLimit",
      "outputs": [],
      "stateMutability": "nonpayable",
      "type": "function"
    },
    {
      "inputs": [
        {
          "internalType": "bytes4",
          "name": "interfaceId",
          "type": "bytes4"
        }
      ],
      "name": "supportsInterface",
      "outputs": [
        {
          "internalType": "bool",
          "name": "",
          "type": "bool"
        }
      ],
      "stateMutability": "view",
      "type": "function"
    },
    {
      "inputs": [
        {
          "internalType": "uint256",
          "name": "_projectId",
          "type": "uint256"
        }
      ],
      "name": "toggleContractFilter",
      "outputs": [],
      "stateMutability": "nonpayable",
      "type": "function"
    },
    {
      "inputs": [
        {
          "internalType": "uint256",
          "name": "_projectId",
          "type": "uint256"
        }
      ],
      "name": "unpause",
      "outputs": [],
      "stateMutability": "nonpayable",
      "type": "function"
    },
    {
      "inputs": [
        {
          "internalType": "uint256",
          "name": "_projectId",
          "type": "uint256"
        }
      ],
      "name": "unpauseAdmin",
      "outputs": [],
      "stateMutability": "nonpayable",
      "type": "function"
    }
  ],
  "bytecode": "0x60806040523480156200001157600080fd5b5060405162004aa138038062004aa183398181016040528101906200003791906200020e565b6200004c6000801b336200009460201b60201c565b80600160006101000a81548173ffffffffffffffffffffffffffffffffffffffff021916908373ffffffffffffffffffffffffffffffffffffffff1602179055505062000288565b620000a682826200018560201b60201c565b6200018157600160008084815260200190815260200160002060000160008373ffffffffffffffffffffffffffffffffffffffff1673ffffffffffffffffffffffffffffffffffffffff16815260200190815260200160002060006101000a81548160ff02191690831515021790555062000126620001ef60201b60201c565b73ffffffffffffffffffffffffffffffffffffffff168173ffffffffffffffffffffffffffffffffffffffff16837f2f8788117e7eff1d82e926ec794901d17c78024a50270940304540a733656f0d60405160405180910390a45b5050565b600080600084815260200190815260200160002060000160008373ffffffffffffffffffffffffffffffffffffffff1673ffffffffffffffffffffffffffffffffffffffff16815260200190815260200160002060009054906101000a900460ff16905092915050565b600033905090565b60008151905062000208816200026e565b92915050565b6000602082840312156200022157600080fd5b60006200023184828501620001f7565b91505092915050565b600062000247826200024e565b9050919050565b600073ffffffffffffffffffffffffffffffffffffffff82169050919050565b62000279816200023a565b81146200028557600080fd5b50565b61480980620002986000396000f3fe6080604052600436106102045760003560e01c806391d1485411610118578063c97c1afb116100a0578063e0f7af711161006f578063e0f7af711461080d578063f7d975771461084a578063f9f96b9e14610873578063fabc1cbc146108b0578063fce223b4146108d957610204565b8063c97c1afb1461074e578063d547741f1461078b578063d6febde8146107b4578063dc3d886f146107e457610204565b8063a47f9092116100e7578063a47f909214610631578063ac26e4c91461066e578063ad286a9c146106ab578063b05ff2eb146106e8578063b137479d1461072557610204565b806391d14854146105705780639d5aef30146105ad5780639f270c22146105dd578063a217fddf1461060657610204565b806336568abe1161019b57806362f7a7ed1161016a57806362f7a7ed146104605780636ddd9f201461049d5780637fd39247146104da57806389fe08f81461050357806391943b551461054057610204565b806336568abe146103945780633a4657b4146103bd578063531b14b9146103fa578063569f6f921461043757610204565b8063248a9ca3116101d7578063248a9ca3146102c1578063287f5fb7146102fe5780632f2ff15d1461033b578063314398d81461036457610204565b806301ffc9a7146102095780630ad1d81c14610246578063136439dd1461026f578063231c228114610298575b600080fd5b34801561021557600080fd5b50610230600480360381019061022b91906136a4565b610916565b60405161023d9190613d16565b60405180910390f35b34801561025257600080fd5b5061026d600480360381019061026891906136cd565b610990565b005b34801561027b57600080fd5b50610296600480360381019061029191906136cd565b610a01565b005b3480156102a457600080fd5b506102bf60048036038101906102ba91906137e6565b610ad1565b005b3480156102cd57600080fd5b506102e860048036038101906102e3919061363f565b610b06565b6040516102f59190613d31565b60405180910390f35b34801561030a57600080fd5b50610325600480360381019061032091906136cd565b610b25565b6040516103329190613c9b565b60405180910390f35b34801561034757600080fd5b50610362600480360381019061035d9190613668565b610b58565b005b61037e6004803603810190610379919061375b565b610b81565b60405161038b9190613fae565b60405180910390f35b3480156103a057600080fd5b506103bb60048036038101906103b69190613668565b610b97565b005b3480156103c957600080fd5b506103e460048036038101906103df91906135da565b610c1a565b6040516103f19190613fae565b60405180910390f35b34801561040657600080fd5b50610421600480360381019061041c91906136cd565b610c3f565b60405161042e9190613d4c565b60405180910390f35b34801561044357600080fd5b5061045e600480360381019061045991906136cd565b610cdf565b005b34801561046c57600080fd5b50610487600480360381019061048291906136cd565b610d44565b6040516104949190613fae565b60405180910390f35b3480156104a957600080fd5b506104c460048036038101906104bf91906136cd565b610d5c565b6040516104d19190613fae565b60405180910390f35b3480156104e657600080fd5b5061050160048036038101906104fc919061371f565b610d74565b005b34801561050f57600080fd5b5061052a600480360381019061052591906136cd565b610f25565b6040516105379190613c9b565b60405180910390f35b61055a6004803603810190610555919061375b565b610f58565b6040516105679190613fae565b60405180910390f35b34801561057c57600080fd5b5061059760048036038101906105929190613668565b61154c565b6040516105a49190613d16565b60405180910390f35b6105c760048036038101906105c291906136cd565b6115b6565b6040516105d49190613fae565b60405180910390f35b3480156105e957600080fd5b5061060460048036038101906105ff91906136cd565b6118a6565b005b34801561061257600080fd5b5061061b6118eb565b6040516106289190613d31565b60405180910390f35b34801561063d57600080fd5b506106586004803603810190610653919061371f565b6118f2565b6040516106659190613d16565b60405180910390f35b34801561067a57600080fd5b50610695600480360381019061069091906136cd565b611921565b6040516106a29190613d16565b60405180910390f35b3480156106b757600080fd5b506106d260048036038101906106cd91906136cd565b611941565b6040516106df9190613fae565b60405180910390f35b3480156106f457600080fd5b5061070f600480360381019061070a91906136cd565b611959565b60405161071c9190613fae565b60405180910390f35b34801561073157600080fd5b5061074c600480360381019061074791906136cd565b611971565b005b34801561075a57600080fd5b50610775600480360381019061077091906136cd565b6119b6565b6040516107829190613fae565b60405180910390f35b34801561079757600080fd5b506107b260048036038101906107ad9190613668565b6119ce565b005b6107ce60048036038101906107c991906137aa565b6119f7565b6040516107db9190613fae565b60405180910390f35b3480156107f057600080fd5b5061080b600480360381019061080691906137aa565b611a0c565b005b34801561081957600080fd5b50610834600480360381019061082f91906136cd565b611b2a565b6040516108419190613fae565b60405180910390f35b34801561085657600080fd5b50610871600480360381019061086c91906137aa565b611b42565b005b34801561087f57600080fd5b5061089a600480360381019061089591906136cd565b611c60565b6040516108a79190613d16565b60405180910390f35b3480156108bc57600080fd5b506108d760048036038101906108d291906136cd565b611c80565b005b3480156108e557600080fd5b5061090060048036038101906108fb91906136cd565b611d50565b60405161090d9190613d16565b60405180910390f35b60007f7965db0b000000000000000000000000000000000000000000000000000000007bffffffffffffffffffffffffffffffffffffffffffffffffffffffff1916827bffffffffffffffffffffffffffffffffffffffffffffffffffffffff19161480610989575061098882611d70565b5b9050919050565b6000801b6109a5816109a0611dda565b611de2565b60016009600084815260200190815260200160002060006101000a81548160ff0219169083151502179055506001600a600084815260200190815260200160002060006101000a81548160ff0219169083151502179055505050565b6002600082815260200190815260200160002060009054906101000a900473ffffffffffffffffffffffffffffffffffffffff1673ffffffffffffffffffffffffffffffffffffffff163373ffffffffffffffffffffffffffffffffffffffff1614610aa2576040517f08c379a0000000000000000000000000000000000000000000000000000000008152600401610a9990613f0e565b60405180910390fd5b6001600a600083815260200190815260200160002060006101000a81548160ff02191690831515021790555050565b6000801b610ae681610ae1611dda565b611de2565b8160ff16600d600085815260200190815260200160002081905550505050565b6000806000838152602001908152602001600020600101549050919050565b60066020528060005260406000206000915054906101000a900473ffffffffffffffffffffffffffffffffffffffff1681565b610b6182610b06565b610b7281610b6d611dda565b611de2565b610b7c8383611e7f565b505050565b6000610b8e848484610f58565b90509392505050565b610b9f611dda565b73ffffffffffffffffffffffffffffffffffffffff168173ffffffffffffffffffffffffffffffffffffffff1614610c0c576040517f08c379a0000000000000000000000000000000000000000000000000000000008152600401610c0390613f8e565b60405180910390fd5b610c168282611f5f565b5050565b600c602052816000526040600020602052806000526040600020600091509150505481565b60076020528060005260406000206000915090508054610c5e9061424a565b80601f0160208091040260200160405190810160405280929190818152602001828054610c8a9061424a565b8015610cd75780601f10610cac57610100808354040283529160200191610cd7565b820191906000526020600020905b815481529060010190602001808311610cba57829003601f168201915b505050505081565b6000801b610cf481610cef611dda565b611de2565b600b600083815260200190815260200160002060009054906101000a900460ff1615600b600084815260200190815260200160002060006101000a81548160ff0219169083151502179055505050565b600d6020528060005260406000206000915090505481565b60086020528060005260406000206000915090505481565b6000801b610d8981610d84611dda565b611de2565b8173ffffffffffffffffffffffffffffffffffffffff166002600085815260200190815260200160002060009054906101000a900473ffffffffffffffffffffffffffffffffffffffff1673ffffffffffffffffffffffffffffffffffffffff161415610e2b576040517f08c379a0000000000000000000000000000000000000000000000000000000008152600401610e2290613f6e565b60405180910390fd5b600073ffffffffffffffffffffffffffffffffffffffff166002600085815260200190815260200160002060009054906101000a900473ffffffffffffffffffffffffffffffffffffffff1673ffffffffffffffffffffffffffffffffffffffff161415610ece576040517f08c379a0000000000000000000000000000000000000000000000000000000008152600401610ec590613eee565b60405180910390fd5b816002600085815260200190815260200160002060006101000a81548173ffffffffffffffffffffffffffffffffffffffff021916908373ffffffffffffffffffffffffffffffffffffffff160217905550505050565b60026020528060005260406000206000915054906101000a900473ffffffffffffffffffffffffffffffffffffffff1681565b60006009600085815260200190815260200160002060009054906101000a900460ff16610fba576040517f08c379a0000000000000000000000000000000000000000000000000000000008152600401610fb190613e2e565b60405180910390fd5b600a600085815260200190815260200160002060009054906101000a900460ff161561101b576040517f08c379a000000000000000000000000000000000000000000000000000000000815260040161101290613dee565b60405180910390fd5b6003600085815260200190815260200160002054600460008681526020019081526020016000205411611083576040517f08c379a000000000000000000000000000000000000000000000000000000000815260040161107a90613f4e565b60405180910390fd5b60086000858152602001908152602001600020548211156110d9576040517f08c379a00000000000000000000000000000000000000000000000000000000081526004016110d090613d8e565b60405180910390fd5b600b600085815260200190815260200160002060009054906101000a900460ff161561116e573273ffffffffffffffffffffffffffffffffffffffff163373ffffffffffffffffffffffffffffffffffffffff161461116d576040517f08c379a000000000000000000000000000000000000000000000000000000000815260040161116490613f2e565b60405180910390fd5b5b6000600d600086815260200190815260200160002054111561129657600d600085815260200190815260200160002054600c60003373ffffffffffffffffffffffffffffffffffffffff1673ffffffffffffffffffffffffffffffffffffffff1681526020019081526020016000206000868152602001908152602001600020541061122f576040517f08c379a000000000000000000000000000000000000000000000000000000000815260040161122690613dce565b60405180910390fd5b600c60003373ffffffffffffffffffffffffffffffffffffffff1673ffffffffffffffffffffffffffffffffffffffff168152602001908152602001600020600085815260200190815260200160002060008154809291906112909061427c565b91905055505b6000600f6000868152602001908152602001600020541180156112fc57506003600085815260200190815260200160002054600f6000868152602001908152602001600020546112e69190614005565b6004600086815260200190815260200160002054105b1561139f57600e600085815260200190815260200160002060003373ffffffffffffffffffffffffffffffffffffffff1673ffffffffffffffffffffffffffffffffffffffff16815260200190815260200160002060009054906101000a900460ff1661139e576040517f08c379a000000000000000000000000000000000000000000000000000000000815260040161139590613e4e565b60405180910390fd5b5b6000600160009054906101000a900473ffffffffffffffffffffffffffffffffffffffff1673ffffffffffffffffffffffffffffffffffffffff16634ca3e9b8866040518263ffffffff1660e01b81526004016113fc9190613fae565b60206040518083038186803b15801561141457600080fd5b505afa158015611428573d6000803e3d6000fd5b505050506040513d601f19601f8201168201806040525081019061144c9190613588565b90506114588584612040565b600080600090505b8481101561153f57600160046000898152602001908152602001600020546114889190614005565b60046000898152602001908152602001600020819055508273ffffffffffffffffffffffffffffffffffffffff16636a627842876040518263ffffffff1660e01b81526004016114d89190613c9b565b602060405180830381600087803b1580156114f257600080fd5b505af1158015611506573d6000803e3d6000fd5b505050506040513d601f19601f8201168201806040525081019061152a91906136f6565b915080806115379061427c565b915050611460565b5080925050509392505050565b600080600084815260200190815260200160002060000160008373ffffffffffffffffffffffffffffffffffffffff1673ffffffffffffffffffffffffffffffffffffffff16815260200190815260200160002060009054906101000a900460ff16905092915050565b60006009600083815260200190815260200160002060009054906101000a900460ff16611618576040517f08c379a000000000000000000000000000000000000000000000000000000000815260040161160f90613e2e565b60405180910390fd5b6002600083815260200190815260200160002060009054906101000a900473ffffffffffffffffffffffffffffffffffffffff1673ffffffffffffffffffffffffffffffffffffffff163373ffffffffffffffffffffffffffffffffffffffff16146116b9576040517f08c379a00000000000000000000000000000000000000000000000000000000081526004016116b090613f0e565b60405180910390fd5b6003600083815260200190815260200160002054600460008481526020019081526020016000205410611721576040517f08c379a000000000000000000000000000000000000000000000000000000000815260040161171890613e6e565b60405180910390fd5b600160046000848152602001908152602001600020546117419190614005565b60046000848152602001908152602001600020819055506000600160009054906101000a900473ffffffffffffffffffffffffffffffffffffffff1673ffffffffffffffffffffffffffffffffffffffff16634ca3e9b8846040518263ffffffff1660e01b81526004016117b59190613fae565b60206040518083038186803b1580156117cd57600080fd5b505afa1580156117e1573d6000803e3d6000fd5b505050506040513d601f19601f820116820180604052508101906118059190613588565b9050600033905060008273ffffffffffffffffffffffffffffffffffffffff16636a627842836040518263ffffffff1660e01b81526004016118479190613c9b565b602060405180830381600087803b15801561186157600080fd5b505af1158015611875573d6000803e3d6000fd5b505050506040513d601f19601f8201168201806040525081019061189991906136f6565b9050809350505050919050565b6000801b6118bb816118b6611dda565b611de2565b6000600a600084815260200190815260200160002060006101000a81548160ff0219169083151502179055505050565b6000801b81565b600e6020528160005260406000206020528060005260406000206000915091509054906101000a900460ff1681565b60096020528060005260406000206000915054906101000a900460ff1681565b60056020528060005260406000206000915090505481565b60036020528060005260406000206000915090505481565b6000801b61198681611981611dda565b611de2565b6001600a600084815260200190815260200160002060006101000a81548160ff0219169083151502179055505050565b60046020528060005260406000206000915090505481565b6119d782610b06565b6119e8816119e3611dda565b611de2565b6119f28383611f5f565b505050565b6000611a04833384610f58565b905092915050565b6002600083815260200190815260200160002060009054906101000a900473ffffffffffffffffffffffffffffffffffffffff1673ffffffffffffffffffffffffffffffffffffffff163373ffffffffffffffffffffffffffffffffffffffff1614611aad576040517f08c379a0000000000000000000000000000000000000000000000000000000008152600401611aa490613f0e565b60405180910390fd5b6009600083815260200190815260200160002060009054906101000a900460ff1615611b0e576040517f08c379a0000000000000000000000000000000000000000000000000000000008152600401611b0590613e8e565b60405180910390fd5b8060036000848152602001908152602001600020819055505050565b600f6020528060005260406000206000915090505481565b6002600083815260200190815260200160002060009054906101000a900473ffffffffffffffffffffffffffffffffffffffff1673ffffffffffffffffffffffffffffffffffffffff163373ffffffffffffffffffffffffffffffffffffffff1614611be3576040517f08c379a0000000000000000000000000000000000000000000000000000000008152600401611bda90613f0e565b60405180910390fd5b6009600083815260200190815260200160002060009054906101000a900460ff1615611c44576040517f08c379a0000000000000000000000000000000000000000000000000000000008152600401611c3b90613e8e565b60405180910390fd5b8060056000848152602001908152602001600020819055505050565b600b6020528060005260406000206000915054906101000a900460ff1681565b6002600082815260200190815260200160002060009054906101000a900473ffffffffffffffffffffffffffffffffffffffff1673ffffffffffffffffffffffffffffffffffffffff163373ffffffffffffffffffffffffffffffffffffffff1614611d21576040517f08c379a0000000000000000000000000000000000000000000000000000000008152600401611d1890613f0e565b60405180910390fd5b6000600a600083815260200190815260200160002060006101000a81548160ff02191690831515021790555050565b600a6020528060005260406000206000915054906101000a900460ff1681565b60007f01ffc9a7000000000000000000000000000000000000000000000000000000007bffffffffffffffffffffffffffffffffffffffffffffffffffffffff1916827bffffffffffffffffffffffffffffffffffffffffffffffffffffffff1916149050919050565b600033905090565b611dec828261154c565b611e7b57611e118173ffffffffffffffffffffffffffffffffffffffff166014612370565b611e1f8360001c6020612370565b604051602001611e30929190613c61565b6040516020818303038152906040526040517f08c379a0000000000000000000000000000000000000000000000000000000008152600401611e729190613d4c565b60405180910390fd5b5050565b611e89828261154c565b611f5b57600160008084815260200190815260200160002060000160008373ffffffffffffffffffffffffffffffffffffffff1673ffffffffffffffffffffffffffffffffffffffff16815260200190815260200160002060006101000a81548160ff021916908315150217905550611f00611dda565b73ffffffffffffffffffffffffffffffffffffffff168173ffffffffffffffffffffffffffffffffffffffff16837f2f8788117e7eff1d82e926ec794901d17c78024a50270940304540a733656f0d60405160405180910390a45b5050565b611f69828261154c565b1561203c57600080600084815260200190815260200160002060000160008373ffffffffffffffffffffffffffffffffffffffff1673ffffffffffffffffffffffffffffffffffffffff16815260200190815260200160002060006101000a81548160ff021916908315150217905550611fe1611dda565b73ffffffffffffffffffffffffffffffffffffffff168173ffffffffffffffffffffffffffffffffffffffff16837ff6391f5c32d9c69d2a47ea670b442974b53935d1edc7fd64eb21e047a839171b60405160405180910390a45b5050565b600061206882600560008681526020019081526020016000205461266a90919063ffffffff16565b905060405160200161207990613c4c565b60405160208183030381529060405280519060200120600760008581526020019081526020016000206040516020016120b29190613c35565b604051602081830303815290604052805190602001201461231d5760003414612110576040517f08c379a000000000000000000000000000000000000000000000000000000000815260040161210790613ece565b60405180910390fd5b806006600085815260200190815260200160002060009054906101000a900473ffffffffffffffffffffffffffffffffffffffff1673ffffffffffffffffffffffffffffffffffffffff1663dd62ed3e33306040518363ffffffff1660e01b815260040161217f929190613cb6565b60206040518083038186803b15801561219757600080fd5b505afa1580156121ab573d6000803e3d6000fd5b505050506040513d601f19601f820116820180604052508101906121cf91906136f6565b1015612210576040517f08c379a000000000000000000000000000000000000000000000000000000000815260040161220790613eae565b60405180910390fd5b806006600085815260200190815260200160002060009054906101000a900473ffffffffffffffffffffffffffffffffffffffff1673ffffffffffffffffffffffffffffffffffffffff166370a08231336040518263ffffffff1660e01b815260040161227d9190613c9b565b60206040518083038186803b15801561229557600080fd5b505afa1580156122a9573d6000803e3d6000fd5b505050506040513d601f19601f820116820180604052508101906122cd91906136f6565b101561230e576040517f08c379a000000000000000000000000000000000000000000000000000000000815260040161230590613e0e565b60405180910390fd5b6123188383612680565b61236b565b80341015612360576040517f08c379a000000000000000000000000000000000000000000000000000000000815260040161235790613dae565b60405180910390fd5b61236a8383612e10565b5b505050565b606060006002836002612383919061408c565b61238d9190614005565b67ffffffffffffffff8111156123cc577f4e487b7100000000000000000000000000000000000000000000000000000000600052604160045260246000fd5b6040519080825280601f01601f1916602001820160405280156123fe5781602001600182028036833780820191505090505b5090507f30000000000000000000000000000000000000000000000000000000000000008160008151811061245c577f4e487b7100000000000000000000000000000000000000000000000000000000600052603260045260246000fd5b60200101907effffffffffffffffffffffffffffffffffffffffffffffffffffffffffffff1916908160001a9053507f7800000000000000000000000000000000000000000000000000000000000000816001815181106124e6577f4e487b7100000000000000000000000000000000000000000000000000000000600052603260045260246000fd5b60200101907effffffffffffffffffffffffffffffffffffffffffffffffffffffffffffff1916908160001a90535060006001846002612526919061408c565b6125309190614005565b90505b600181111561261c577f3031323334353637383961626364656600000000000000000000000000000000600f861660108110612598577f4e487b7100000000000000000000000000000000000000000000000000000000600052603260045260246000fd5b1a60f81b8282815181106125d5577f4e487b7100000000000000000000000000000000000000000000000000000000600052603260045260246000fd5b60200101907effffffffffffffffffffffffffffffffffffffffffffffffffffffffffffff1916908160001a905350600485901c94508061261590614220565b9050612533565b5060008414612660576040517f08c379a000000000000000000000000000000000000000000000000000000000815260040161265790613d6e565b60405180910390fd5b8091505092915050565b60008183612678919061408c565b905092915050565b60006005600084815260200190815260200160002054905060006126ad838361266a90919063ffffffff16565b90506000612778600160009054906101000a900473ffffffffffffffffffffffffffffffffffffffff1673ffffffffffffffffffffffffffffffffffffffff16631f7418976040518163ffffffff1660e01b8152600401602060405180830381600087803b15801561271e57600080fd5b505af1158015612732573d6000803e3d6000fd5b505050506040513d601f19601f8201168201806040525081019061275691906136f6565b61276a60648561349f90919063ffffffff16565b61266a90919063ffffffff16565b905060008111156128e8576006600086815260200190815260200160002060009054906101000a900473ffffffffffffffffffffffffffffffffffffffff1673ffffffffffffffffffffffffffffffffffffffff166323b872dd33600160009054906101000a900473ffffffffffffffffffffffffffffffffffffffff1673ffffffffffffffffffffffffffffffffffffffff16637dafc0d36040518163ffffffff1660e01b8152600401602060405180830381600087803b15801561283d57600080fd5b505af1158015612851573d6000803e3d6000fd5b505050506040513d601f19601f8201168201806040525081019061287591906135b1565b846040518463ffffffff1660e01b815260040161289493929190613cdf565b602060405180830381600087803b1580156128ae57600080fd5b505af11580156128c2573d6000803e3d6000fd5b505050506040513d601f19601f820116820180604052508101906128e69190613616565b505b6000600160009054906101000a900473ffffffffffffffffffffffffffffffffffffffff1673ffffffffffffffffffffffffffffffffffffffff16634ca3e9b8876040518263ffffffff1660e01b81526004016129459190613fae565b60206040518083038186803b15801561295d57600080fd5b505afa158015612971573d6000803e3d6000fd5b505050506040513d601f19601f820116820180604052508101906129959190613588565b90508073ffffffffffffffffffffffffffffffffffffffff16638cbe8d806040518163ffffffff1660e01b815260040160206040518083038186803b1580156129dd57600080fd5b505afa1580156129f1573d6000803e3d6000fd5b505050506040513d601f19601f82011682018060405250810190612a1591906135b1565b506000612a2b83856134b590919063ffffffff16565b90506000808373ffffffffffffffffffffffffffffffffffffffff16632cc889746040518163ffffffff1660e01b815260040160206040518083038186803b158015612a7657600080fd5b505afa158015612a8a573d6000803e3d6000fd5b505050506040513d601f19601f82011682018060405250810190612aae91906136f6565b1115612ca457612b578373ffffffffffffffffffffffffffffffffffffffff16632cc889746040518163ffffffff1660e01b815260040160206040518083038186803b158015612afd57600080fd5b505afa158015612b11573d6000803e3d6000fd5b505050506040513d601f19601f82011682018060405250810190612b3591906136f6565b612b4960648561349f90919063ffffffff16565b61266a90919063ffffffff16565b90506000811115612ca3576006600089815260200190815260200160002060009054906101000a900473ffffffffffffffffffffffffffffffffffffffff1673ffffffffffffffffffffffffffffffffffffffff166323b872dd338573ffffffffffffffffffffffffffffffffffffffff16636ff314c76040518163ffffffff1660e01b815260040160206040518083038186803b158015612bf857600080fd5b505afa158015612c0c573d6000803e3d6000fd5b505050506040513d601f19601f82011682018060405250810190612c3091906135b1565b846040518463ffffffff1660e01b8152600401612c4f93929190613cdf565b602060405180830381600087803b158015612c6957600080fd5b505af1158015612c7d573d6000803e3d6000fd5b505050506040513d601f19601f82011682018060405250810190612ca19190613616565b505b5b6000612cb982846134b590919063ffffffff16565b90506000811115612e0557600660008a815260200190815260200160002060009054906101000a900473ffffffffffffffffffffffffffffffffffffffff1673ffffffffffffffffffffffffffffffffffffffff166323b872dd338673ffffffffffffffffffffffffffffffffffffffff16638cbe8d806040518163ffffffff1660e01b815260040160206040518083038186803b158015612d5a57600080fd5b505afa158015612d6e573d6000803e3d6000fd5b505050506040513d601f19601f82011682018060405250810190612d9291906135b1565b846040518463ffffffff1660e01b8152600401612db193929190613cdf565b602060405180830381600087803b158015612dcb57600080fd5b505af1158015612ddf573d6000803e3d6000fd5b505050506040513d601f19601f82011682018060405250810190612e039190613616565b505b505050505050505050565b600034111561349b576000600560008481526020019081526020016000205490506000612e46838361266a90919063ffffffff16565b90506000612e5d82346134b590919063ffffffff16565b90506000811115612eb0573373ffffffffffffffffffffffffffffffffffffffff166108fc829081150290604051600060405180830381858888f19350505050158015612eae573d6000803e3d6000fd5b505b6000612f79600160009054906101000a900473ffffffffffffffffffffffffffffffffffffffff1673ffffffffffffffffffffffffffffffffffffffff16631f7418976040518163ffffffff1660e01b8152600401602060405180830381600087803b158015612f1f57600080fd5b505af1158015612f33573d6000803e3d6000fd5b505050506040513d601f19601f82011682018060405250810190612f5791906136f6565b612f6b60648661349f90919063ffffffff16565b61266a90919063ffffffff16565b9050600081111561306d57600160009054906101000a900473ffffffffffffffffffffffffffffffffffffffff1673ffffffffffffffffffffffffffffffffffffffff16637dafc0d36040518163ffffffff1660e01b8152600401602060405180830381600087803b158015612fee57600080fd5b505af1158015613002573d6000803e3d6000fd5b505050506040513d601f19601f8201168201806040525081019061302691906135b1565b73ffffffffffffffffffffffffffffffffffffffff166108fc829081150290604051600060405180830381858888f1935050505015801561306b573d6000803e3d6000fd5b505b6000600160009054906101000a900473ffffffffffffffffffffffffffffffffffffffff1673ffffffffffffffffffffffffffffffffffffffff16634ca3e9b8886040518263ffffffff1660e01b81526004016130ca9190613fae565b60206040518083038186803b1580156130e257600080fd5b505afa1580156130f6573d6000803e3d6000fd5b505050506040513d601f19601f8201168201806040525081019061311a9190613588565b90508073ffffffffffffffffffffffffffffffffffffffff16638cbe8d806040518163ffffffff1660e01b815260040160206040518083038186803b15801561316257600080fd5b505afa158015613176573d6000803e3d6000fd5b505050506040513d601f19601f8201168201806040525081019061319a91906135b1565b5060006131b083866134b590919063ffffffff16565b90506000808373ffffffffffffffffffffffffffffffffffffffff16632cc889746040518163ffffffff1660e01b815260040160206040518083038186803b1580156131fb57600080fd5b505afa15801561320f573d6000803e3d6000fd5b505050506040513d601f19601f8201168201806040525081019061323391906136f6565b11156133ad576132dc8373ffffffffffffffffffffffffffffffffffffffff16632cc889746040518163ffffffff1660e01b815260040160206040518083038186803b15801561328257600080fd5b505afa158015613296573d6000803e3d6000fd5b505050506040513d601f19601f820116820180604052508101906132ba91906136f6565b6132ce60648561349f90919063ffffffff16565b61266a90919063ffffffff16565b905060008111156133ac578273ffffffffffffffffffffffffffffffffffffffff16636ff314c76040518163ffffffff1660e01b815260040160206040518083038186803b15801561332d57600080fd5b505afa158015613341573d6000803e3d6000fd5b505050506040513d601f19601f8201168201806040525081019061336591906135b1565b73ffffffffffffffffffffffffffffffffffffffff166108fc829081150290604051600060405180830381858888f193505050501580156133aa573d6000803e3d6000fd5b505b5b60006133c282846134b590919063ffffffff16565b90506000811115613492578373ffffffffffffffffffffffffffffffffffffffff16638cbe8d806040518163ffffffff1660e01b815260040160206040518083038186803b15801561341357600080fd5b505afa158015613427573d6000803e3d6000fd5b505050506040513d601f19601f8201168201806040525081019061344b91906135b1565b73ffffffffffffffffffffffffffffffffffffffff166108fc829081150290604051600060405180830381858888f19350505050158015613490573d6000803e3d6000fd5b505b50505050505050505b5050565b600081836134ad919061405b565b905092915050565b600081836134c391906140e6565b905092915050565b6000813590506134da81614732565b92915050565b6000815190506134ef81614732565b92915050565b60008151905061350481614749565b92915050565b60008151905061351981614760565b92915050565b60008135905061352e81614777565b92915050565b6000813590506135438161478e565b92915050565b600081359050613558816147a5565b92915050565b60008151905061356d816147a5565b92915050565b600081359050613582816147bc565b92915050565b60006020828403121561359a57600080fd5b60006135a8848285016134e0565b91505092915050565b6000602082840312156135c357600080fd5b60006135d1848285016134f5565b91505092915050565b600080604083850312156135ed57600080fd5b60006135fb858286016134cb565b925050602061360c85828601613549565b9150509250929050565b60006020828403121561362857600080fd5b60006136368482850161350a565b91505092915050565b60006020828403121561365157600080fd5b600061365f8482850161351f565b91505092915050565b6000806040838503121561367b57600080fd5b60006136898582860161351f565b925050602061369a858286016134cb565b9150509250929050565b6000602082840312156136b657600080fd5b60006136c484828501613534565b91505092915050565b6000602082840312156136df57600080fd5b60006136ed84828501613549565b91505092915050565b60006020828403121561370857600080fd5b60006137168482850161355e565b91505092915050565b6000806040838503121561373257600080fd5b600061374085828601613549565b9250506020613751858286016134cb565b9150509250929050565b60008060006060848603121561377057600080fd5b600061377e86828701613549565b935050602061378f868287016134cb565b92505060406137a086828701613549565b9150509250925092565b600080604083850312156137bd57600080fd5b60006137cb85828601613549565b92505060206137dc85828601613549565b9150509250929050565b600080604083850312156137f957600080fd5b600061380785828601613549565b925050602061381885828601613573565b9150509250929050565b61382b816141b7565b82525050565b61383a8161411a565b82525050565b6138498161413e565b82525050565b6138588161414a565b82525050565b600061386982613fde565b6138738185613fe9565b93506138838185602086016141ed565b61388c81614352565b840191505092915050565b60006138a282613fde565b6138ac8185613ffa565b93506138bc8185602086016141ed565b80840191505092915050565b600081546138d58161424a565b6138df8186613ffa565b945060018216600081146138fa576001811461390b5761393e565b60ff1983168652818601935061393e565b61391485613fc9565b60005b8381101561393657815481890152600182019150602081019050613917565b838801955050505b50505092915050565b6000613954602083613fe9565b915061395f82614363565b602082019050919050565b6000613977601283613fe9565b91506139828261438c565b602082019050919050565b600061399a602083613fe9565b91506139a5826143b5565b602082019050919050565b60006139bd601583613fe9565b91506139c8826143de565b602082019050919050565b60006139e0600e83613fe9565b91506139eb82614407565b602082019050919050565b6000613a03601583613fe9565b9150613a0e82614430565b602082019050919050565b6000613a26601083613fe9565b9150613a3182614459565b602082019050919050565b6000613a49601083613fe9565b9150613a5482614482565b602082019050919050565b6000613a6c600c83613fe9565b9150613a77826144ab565b602082019050919050565b6000613a8f600c83613fe9565b9150613a9a826144d4565b602082019050919050565b6000613ab2602283613fe9565b9150613abd826144fd565b604082019050919050565b6000613ad5603f83613fe9565b9150613ae08261454c565b604082019050919050565b6000613af8600383613ffa565b9150613b038261459b565b600382019050919050565b6000613b1b601b83613fe9565b9150613b26826145c4565b602082019050919050565b6000613b3e600a83613fe9565b9150613b49826145ed565b602082019050919050565b6000613b61601083613fe9565b9150613b6c82614616565b602082019050919050565b6000613b84601283613fe9565b9150613b8f8261463f565b602082019050919050565b6000613ba7601383613fe9565b9150613bb282614668565b602082019050919050565b6000613bca601783613ffa565b9150613bd582614691565b601782019050919050565b6000613bed601183613ffa565b9150613bf8826146ba565b601182019050919050565b6000613c10602f83613fe9565b9150613c1b826146e3565b604082019050919050565b613c2f816141a0565b82525050565b6000613c4182846138c8565b915081905092915050565b6000613c5782613aeb565b9150819050919050565b6000613c6c82613bbd565b9150613c788285613897565b9150613c8382613be0565b9150613c8f8284613897565b91508190509392505050565b6000602082019050613cb06000830184613831565b92915050565b6000604082019050613ccb6000830185613831565b613cd86020830184613831565b9392505050565b6000606082019050613cf46000830186613831565b613d016020830185613822565b613d0e6040830184613c26565b949350505050565b6000602082019050613d2b6000830184613840565b92915050565b6000602082019050613d46600083018461384f565b92915050565b60006020820190508181036000830152613d66818461385e565b905092915050565b60006020820190508181036000830152613d8781613947565b9050919050565b60006020820190508181036000830152613da78161396a565b9050919050565b60006020820190508181036000830152613dc78161398d565b9050919050565b60006020820190508181036000830152613de7816139b0565b9050919050565b60006020820190508181036000830152613e07816139d3565b9050919050565b60006020820190508181036000830152613e27816139f6565b9050919050565b60006020820190508181036000830152613e4781613a19565b9050919050565b60006020820190508181036000830152613e6781613a3c565b9050919050565b60006020820190508181036000830152613e8781613a5f565b9050919050565b60006020820190508181036000830152613ea781613a82565b9050919050565b60006020820190508181036000830152613ec781613aa5565b9050919050565b60006020820190508181036000830152613ee781613ac8565b9050919050565b60006020820190508181036000830152613f0781613b0e565b9050919050565b60006020820190508181036000830152613f2781613b31565b9050919050565b60006020820190508181036000830152613f4781613b54565b9050919050565b60006020820190508181036000830152613f6781613b77565b9050919050565b60006020820190508181036000830152613f8781613b9a565b9050919050565b60006020820190508181036000830152613fa781613c03565b9050919050565b6000602082019050613fc36000830184613c26565b92915050565b60008190508160005260206000209050919050565b600081519050919050565b600082825260208201905092915050565b600081905092915050565b6000614010826141a0565b915061401b836141a0565b9250827fffffffffffffffffffffffffffffffffffffffffffffffffffffffffffffffff038211156140505761404f6142c5565b5b828201905092915050565b6000614066826141a0565b9150614071836141a0565b925082614081576140806142f4565b5b828204905092915050565b6000614097826141a0565b91506140a2836141a0565b9250817fffffffffffffffffffffffffffffffffffffffffffffffffffffffffffffffff04831182151516156140db576140da6142c5565b5b828202905092915050565b60006140f1826141a0565b91506140fc836141a0565b92508282101561410f5761410e6142c5565b5b828203905092915050565b600061412582614180565b9050919050565b600061413782614180565b9050919050565b60008115159050919050565b6000819050919050565b60007fffffffff0000000000000000000000000000000000000000000000000000000082169050919050565b600073ffffffffffffffffffffffffffffffffffffffff82169050919050565b6000819050919050565b600060ff82169050919050565b60006141c2826141c9565b9050919050565b60006141d4826141db565b9050919050565b60006141e682614180565b9050919050565b60005b8381101561420b5780820151818401526020810190506141f0565b8381111561421a576000848401525b50505050565b600061422b826141a0565b9150600082141561423f5761423e6142c5565b5b600182039050919050565b6000600282049050600182168061426257607f821691505b6020821081141561427657614275614323565b5b50919050565b6000614287826141a0565b91507fffffffffffffffffffffffffffffffffffffffffffffffffffffffffffffffff8214156142ba576142b96142c5565b5b600182019050919050565b7f4e487b7100000000000000000000000000000000000000000000000000000000600052601160045260246000fd5b7f4e487b7100000000000000000000000000000000000000000000000000000000600052601260045260246000fd5b7f4e487b7100000000000000000000000000000000000000000000000000000000600052602260045260246000fd5b6000601f19601f8301169050919050565b7f537472696e67733a20686578206c656e67746820696e73756666696369656e74600082015250565b7f65786365646573206d696e74206c696d69740000000000000000000000000000600082015250565b7f4d7573742073656e64206d696e696d756d2076616c756520746f206d696e7421600082015250565b7f52656163686564206d696e74696e67206c696d69740000000000000000000000600082015250565b7f70726f6a65637420706175736564000000000000000000000000000000000000600082015250565b7f496e73756666696369656e742062616c616e63652e0000000000000000000000600082015250565b7f70726f6a656374206e6f74206c69766500000000000000000000000000000000600082015250565b7f6e6f74206f6e20616c6c6f776c69737400000000000000000000000000000000600082015250565b7f6d6178207072656d696e74730000000000000000000000000000000000000000600082015250565b7f616c7265616479206c6976650000000000000000000000000000000000000000600082015250565b7f496e73756666696369656e742046756e647320417070726f76656420666f722060008201527f5458000000000000000000000000000000000000000000000000000000000000602082015250565b7f746869732070726f6a6563742061636365707473206120646966666572656e7460008201527f2063757272656e637920616e642063616e6e6f74206163636570742045544800602082015250565b7f4554480000000000000000000000000000000000000000000000000000000000600082015250565b7f6f776e65722063616e2774206265207a65726f20616464726573730000000000600082015250565b7f6f6e6c79206f776e657200000000000000000000000000000000000000000000600082015250565b7f4e6f20436f6e7472616374204275797300000000000000000000000000000000600082015250565b7f7072656d696e74732072656d61696e696e670000000000000000000000000000600082015250565b7f63616e27742062652073616d65206f776e657200000000000000000000000000600082015250565b7f416363657373436f6e74726f6c3a206163636f756e7420000000000000000000600082015250565b7f206973206d697373696e6720726f6c6520000000000000000000000000000000600082015250565b7f416363657373436f6e74726f6c3a2063616e206f6e6c792072656e6f756e636560008201527f20726f6c657320666f722073656c660000000000000000000000000000000000602082015250565b61473b8161411a565b811461474657600080fd5b50565b6147528161412c565b811461475d57600080fd5b50565b6147698161413e565b811461477457600080fd5b50565b6147808161414a565b811461478b57600080fd5b50565b61479781614154565b81146147a257600080fd5b50565b6147ae816141a0565b81146147b957600080fd5b50565b6147c5816141aa565b81146147d057600080fd5b5056fea26469706673582212209f0217107af799a11c03d76e99d1047d899bb75b91c13026c8281a9a9e4349b864736f6c63430008020033",
  "linkReferences": {},
  "deployedLinkReferences": {}
}