{
  "_format": "hh-sol-artifact-1",
  "contractName": "FineShop",
  "sourceName": "contracts/FineShop.sol",
  "abi": [
    {
      "inputs": [
        {
          "internalType": "address",
          "name": "_fineCoreAddresss",
          "type": "address"
        }
      ],
      "stateMutability": "nonpayable",
      "type": "constructor"
    },
    {
      "anonymous": false,
      "inputs": [
        {
          "indexed": true,
          "internalType": "bytes32",
          "name": "role",
          "type": "bytes32"
        },
        {
          "indexed": true,
          "internalType": "bytes32",
          "name": "previousAdminRole",
          "type": "bytes32"
        },
        {
          "indexed": true,
          "internalType": "bytes32",
          "name": "newAdminRole",
          "type": "bytes32"
        }
      ],
      "name": "RoleAdminChanged",
      "type": "event"
    },
    {
      "anonymous": false,
      "inputs": [
        {
          "indexed": true,
          "internalType": "bytes32",
          "name": "role",
          "type": "bytes32"
        },
        {
          "indexed": true,
          "internalType": "address",
          "name": "account",
          "type": "address"
        },
        {
          "indexed": true,
          "internalType": "address",
          "name": "sender",
          "type": "address"
        }
      ],
      "name": "RoleGranted",
      "type": "event"
    },
    {
      "anonymous": false,
      "inputs": [
        {
          "indexed": true,
          "internalType": "bytes32",
          "name": "role",
          "type": "bytes32"
        },
        {
          "indexed": true,
          "internalType": "address",
          "name": "account",
          "type": "address"
        },
        {
          "indexed": true,
          "internalType": "address",
          "name": "sender",
          "type": "address"
        }
      ],
      "name": "RoleRevoked",
      "type": "event"
    },
    {
      "inputs": [],
      "name": "DEFAULT_ADMIN_ROLE",
      "outputs": [
        {
          "internalType": "bytes32",
          "name": "",
          "type": "bytes32"
        }
      ],
      "stateMutability": "view",
      "type": "function"
    },
    {
      "inputs": [
        {
          "internalType": "uint256",
          "name": "_projectId",
          "type": "uint256"
        },
        {
          "internalType": "address",
          "name": "minter",
          "type": "address"
        }
      ],
      "name": "addToAllowlist",
      "outputs": [],
      "stateMutability": "nonpayable",
      "type": "function"
    },
    {
      "inputs": [
        {
          "internalType": "uint256",
          "name": "_projectId",
          "type": "uint256"
        },
        {
          "internalType": "uint256",
          "name": "count",
          "type": "uint256"
        }
      ],
      "name": "buy",
      "outputs": [
        {
          "internalType": "uint256",
          "name": "",
          "type": "uint256"
        }
      ],
      "stateMutability": "payable",
      "type": "function"
    },
    {
      "inputs": [
        {
          "internalType": "uint256",
          "name": "_projectId",
          "type": "uint256"
        },
        {
          "internalType": "address",
          "name": "to",
          "type": "address"
        },
        {
          "internalType": "uint256",
          "name": "count",
          "type": "uint256"
        }
      ],
      "name": "buyFor",
      "outputs": [
        {
          "internalType": "uint256",
          "name": "",
          "type": "uint256"
        }
      ],
      "stateMutability": "payable",
      "type": "function"
    },
    {
      "inputs": [
        {
          "internalType": "uint256",
          "name": "",
          "type": "uint256"
        }
      ],
      "name": "contractFilterProject",
      "outputs": [
        {
          "internalType": "bool",
          "name": "",
          "type": "bool"
        }
      ],
      "stateMutability": "view",
      "type": "function"
    },
    {
      "inputs": [
        {
          "internalType": "uint256",
          "name": "_projectId",
          "type": "uint256"
        },
        {
          "internalType": "string",
          "name": "_symbol",
          "type": "string"
        },
        {
          "internalType": "address",
          "name": "_contract",
          "type": "address"
        },
        {
          "internalType": "uint256",
          "name": "_price",
          "type": "uint256"
        },
        {
          "internalType": "uint256",
          "name": "_premints",
          "type": "uint256"
        },
        {
          "internalType": "uint256",
          "name": "_allowlists",
          "type": "uint256"
        }
      ],
      "name": "fullSetup",
      "outputs": [],
      "stateMutability": "nonpayable",
      "type": "function"
    },
    {
      "inputs": [
        {
          "internalType": "bytes32",
          "name": "role",
          "type": "bytes32"
        }
      ],
      "name": "getRoleAdmin",
      "outputs": [
        {
          "internalType": "bytes32",
          "name": "",
          "type": "bytes32"
        }
      ],
      "stateMutability": "view",
      "type": "function"
    },
    {
      "inputs": [
        {
          "internalType": "uint256",
          "name": "_projectId",
          "type": "uint256"
        }
      ],
      "name": "goLive",
      "outputs": [],
      "stateMutability": "nonpayable",
      "type": "function"
    },
    {
      "inputs": [
        {
          "internalType": "bytes32",
          "name": "role",
          "type": "bytes32"
        },
        {
          "internalType": "address",
          "name": "account",
          "type": "address"
        }
      ],
      "name": "grantRole",
      "outputs": [],
      "stateMutability": "nonpayable",
      "type": "function"
    },
    {
      "inputs": [
        {
          "internalType": "bytes32",
          "name": "role",
          "type": "bytes32"
        },
        {
          "internalType": "address",
          "name": "account",
          "type": "address"
        }
      ],
      "name": "hasRole",
      "outputs": [
        {
          "internalType": "bool",
          "name": "",
          "type": "bool"
        }
      ],
      "stateMutability": "view",
      "type": "function"
    },
    {
      "inputs": [
        {
          "internalType": "uint256",
          "name": "_projectId",
          "type": "uint256"
        }
      ],
      "name": "pause",
      "outputs": [],
      "stateMutability": "nonpayable",
      "type": "function"
    },
    {
      "inputs": [
        {
          "internalType": "uint256",
          "name": "_projectId",
          "type": "uint256"
        }
      ],
      "name": "pauseAdmin",
      "outputs": [],
      "stateMutability": "nonpayable",
      "type": "function"
    },
    {
      "inputs": [
        {
          "internalType": "uint256",
          "name": "_projectId",
          "type": "uint256"
        }
      ],
      "name": "premint",
      "outputs": [
        {
          "internalType": "uint256",
          "name": "",
          "type": "uint256"
        }
      ],
      "stateMutability": "nonpayable",
      "type": "function"
    },
    {
      "inputs": [
        {
          "internalType": "uint256",
          "name": "",
          "type": "uint256"
        },
        {
          "internalType": "address",
          "name": "",
          "type": "address"
        }
      ],
      "name": "projectAllowList",
      "outputs": [
        {
          "internalType": "bool",
          "name": "",
          "type": "bool"
        }
      ],
      "stateMutability": "view",
      "type": "function"
    },
    {
      "inputs": [
        {
          "internalType": "uint256",
          "name": "",
          "type": "uint256"
        }
      ],
      "name": "projectAllowListAllocation",
      "outputs": [
        {
          "internalType": "uint256",
          "name": "",
          "type": "uint256"
        }
      ],
      "stateMutability": "view",
      "type": "function"
    },
    {
      "inputs": [
        {
          "internalType": "uint256",
          "name": "",
          "type": "uint256"
        }
      ],
      "name": "projectBulkMintCount",
      "outputs": [
        {
          "internalType": "uint256",
          "name": "",
          "type": "uint256"
        }
      ],
      "stateMutability": "view",
      "type": "function"
    },
    {
      "inputs": [
        {
          "internalType": "uint256",
          "name": "",
          "type": "uint256"
        }
      ],
      "name": "projectCurrencyAddress",
      "outputs": [
        {
          "internalType": "address",
          "name": "",
          "type": "address"
        }
      ],
      "stateMutability": "view",
      "type": "function"
    },
    {
      "inputs": [
        {
          "internalType": "uint256",
          "name": "",
          "type": "uint256"
        }
      ],
      "name": "projectCurrencySymbol",
      "outputs": [
        {
          "internalType": "string",
          "name": "",
          "type": "string"
        }
      ],
      "stateMutability": "view",
      "type": "function"
    },
    {
      "inputs": [
        {
          "internalType": "uint256",
          "name": "",
          "type": "uint256"
        }
      ],
      "name": "projectLive",
      "outputs": [
        {
          "internalType": "bool",
          "name": "",
          "type": "bool"
        }
      ],
      "stateMutability": "view",
      "type": "function"
    },
    {
      "inputs": [
        {
          "internalType": "address",
          "name": "",
          "type": "address"
        },
        {
          "internalType": "uint256",
          "name": "",
          "type": "uint256"
        }
      ],
      "name": "projectMintCounter",
      "outputs": [
        {
          "internalType": "uint256",
          "name": "",
          "type": "uint256"
        }
      ],
      "stateMutability": "view",
      "type": "function"
    },
    {
      "inputs": [
        {
          "internalType": "uint256",
          "name": "",
          "type": "uint256"
        }
      ],
      "name": "projectMintLimit",
      "outputs": [
        {
          "internalType": "uint256",
          "name": "",
          "type": "uint256"
        }
      ],
      "stateMutability": "view",
      "type": "function"
    },
    {
      "inputs": [
        {
          "internalType": "uint256",
          "name": "",
          "type": "uint256"
        }
      ],
      "name": "projectOwner",
      "outputs": [
        {
          "internalType": "address",
          "name": "",
          "type": "address"
        }
      ],
      "stateMutability": "view",
      "type": "function"
    },
    {
      "inputs": [
        {
          "internalType": "uint256",
          "name": "",
          "type": "uint256"
        }
      ],
      "name": "projectPause",
      "outputs": [
        {
          "internalType": "bool",
          "name": "",
          "type": "bool"
        }
      ],
      "stateMutability": "view",
      "type": "function"
    },
    {
      "inputs": [
        {
          "internalType": "uint256",
          "name": "",
          "type": "uint256"
        }
      ],
      "name": "projectPremintAllocation",
      "outputs": [
        {
          "internalType": "uint256",
          "name": "",
          "type": "uint256"
        }
      ],
      "stateMutability": "view",
      "type": "function"
    },
    {
      "inputs": [
        {
          "internalType": "uint256",
          "name": "",
          "type": "uint256"
        }
      ],
      "name": "projectPrice",
      "outputs": [
        {
          "internalType": "uint256",
          "name": "",
          "type": "uint256"
        }
      ],
      "stateMutability": "view",
      "type": "function"
    },
    {
      "inputs": [
        {
          "internalType": "uint256",
          "name": "",
          "type": "uint256"
        }
      ],
      "name": "projectReadyForLive",
      "outputs": [
        {
          "internalType": "bool",
          "name": "",
          "type": "bool"
        }
      ],
      "stateMutability": "view",
      "type": "function"
    },
    {
      "inputs": [
        {
          "internalType": "uint256",
          "name": "_projectId",
          "type": "uint256"
        },
        {
          "internalType": "address",
          "name": "to",
          "type": "address"
        },
        {
          "internalType": "uint256",
          "name": "count",
          "type": "uint256"
        }
      ],
      "name": "purchaseTo",
      "outputs": [
        {
          "internalType": "uint256",
          "name": "",
          "type": "uint256"
        }
      ],
      "stateMutability": "payable",
      "type": "function"
    },
    {
      "inputs": [
        {
          "internalType": "uint256",
          "name": "_projectId",
          "type": "uint256"
        },
        {
          "internalType": "address",
          "name": "newOwner",
          "type": "address"
        },
        {
          "internalType": "bool",
          "name": "contractFilter",
          "type": "bool"
        },
        {
          "internalType": "uint256",
          "name": "_bulk",
          "type": "uint256"
        },
        {
          "internalType": "uint256",
          "name": "_limit",
          "type": "uint256"
        }
      ],
      "name": "quickInit",
      "outputs": [],
      "stateMutability": "nonpayable",
      "type": "function"
    },
    {
      "inputs": [
        {
          "internalType": "uint256",
          "name": "_projectId",
          "type": "uint256"
        },
        {
          "internalType": "address",
          "name": "minter",
          "type": "address"
        }
      ],
      "name": "removeFromAllowlist",
      "outputs": [],
      "stateMutability": "nonpayable",
      "type": "function"
    },
    {
      "inputs": [
        {
          "internalType": "bytes32",
          "name": "role",
          "type": "bytes32"
        },
        {
          "internalType": "address",
          "name": "account",
          "type": "address"
        }
      ],
      "name": "renounceRole",
      "outputs": [],
      "stateMutability": "nonpayable",
      "type": "function"
    },
    {
      "inputs": [
        {
          "internalType": "bytes32",
          "name": "role",
          "type": "bytes32"
        },
        {
          "internalType": "address",
          "name": "account",
          "type": "address"
        }
      ],
      "name": "revokeRole",
      "outputs": [],
      "stateMutability": "nonpayable",
      "type": "function"
    },
    {
      "inputs": [
        {
          "internalType": "uint256",
          "name": "_projectId",
          "type": "uint256"
        },
        {
          "internalType": "uint256",
          "name": "spots",
          "type": "uint256"
        }
      ],
      "name": "setAllowlistSpots",
      "outputs": [],
      "stateMutability": "nonpayable",
      "type": "function"
    },
    {
      "inputs": [
        {
          "internalType": "uint256",
          "name": "_projectId",
          "type": "uint256"
        },
        {
          "internalType": "string",
          "name": "_symbol",
          "type": "string"
        },
        {
          "internalType": "address",
          "name": "_contract",
          "type": "address"
        }
      ],
      "name": "setCurrency",
      "outputs": [],
      "stateMutability": "nonpayable",
      "type": "function"
    },
    {
      "inputs": [
        {
          "internalType": "uint256",
          "name": "_projectId",
          "type": "uint256"
        }
      ],
      "name": "setCurrencyToETH",
      "outputs": [],
      "stateMutability": "nonpayable",
      "type": "function"
    },
    {
      "inputs": [
        {
          "internalType": "uint256",
          "name": "_projectId",
          "type": "uint256"
        },
        {
          "internalType": "address",
          "name": "newOwner",
          "type": "address"
        }
      ],
      "name": "setOwner",
      "outputs": [],
      "stateMutability": "nonpayable",
      "type": "function"
    },
    {
      "inputs": [
        {
          "internalType": "uint256",
          "name": "_projectId",
          "type": "uint256"
        },
        {
          "internalType": "uint256",
          "name": "premints",
          "type": "uint256"
        }
      ],
      "name": "setPremints",
      "outputs": [],
      "stateMutability": "nonpayable",
      "type": "function"
    },
    {
      "inputs": [
        {
          "internalType": "uint256",
          "name": "_projectId",
          "type": "uint256"
        },
        {
          "internalType": "uint256",
          "name": "price",
          "type": "uint256"
        }
      ],
      "name": "setPrice",
      "outputs": [],
      "stateMutability": "nonpayable",
      "type": "function"
    },
    {
      "inputs": [
        {
          "internalType": "uint256",
          "name": "_projectId",
          "type": "uint256"
        },
        {
          "internalType": "uint8",
          "name": "_count",
          "type": "uint8"
        }
      ],
      "name": "setProjectBulkMintCount",
      "outputs": [],
      "stateMutability": "nonpayable",
      "type": "function"
    },
    {
      "inputs": [
        {
          "internalType": "uint256",
          "name": "_projectId",
          "type": "uint256"
        },
        {
          "internalType": "uint8",
          "name": "_limit",
          "type": "uint8"
        }
      ],
      "name": "setProjectMintLimit",
      "outputs": [],
      "stateMutability": "nonpayable",
      "type": "function"
    },
    {
      "inputs": [
        {
          "internalType": "bytes4",
          "name": "interfaceId",
          "type": "bytes4"
        }
      ],
      "name": "supportsInterface",
      "outputs": [
        {
          "internalType": "bool",
          "name": "",
          "type": "bool"
        }
      ],
      "stateMutability": "view",
      "type": "function"
    },
    {
      "inputs": [
        {
          "internalType": "uint256",
          "name": "_projectId",
          "type": "uint256"
        }
      ],
      "name": "toggleContractFilter",
      "outputs": [],
      "stateMutability": "nonpayable",
      "type": "function"
    },
    {
      "inputs": [
        {
          "internalType": "uint256",
          "name": "_projectId",
          "type": "uint256"
        }
      ],
      "name": "unpause",
      "outputs": [],
      "stateMutability": "nonpayable",
      "type": "function"
    },
    {
      "inputs": [
        {
          "internalType": "uint256",
          "name": "_projectId",
          "type": "uint256"
        }
      ],
      "name": "unpauseAdmin",
      "outputs": [],
      "stateMutability": "nonpayable",
      "type": "function"
    }
  ],
  "bytecode": "0x60806040523480156200001157600080fd5b5060405162005f8638038062005f8683398181016040528101906200003791906200020e565b6200004c6000801b336200009460201b60201c565b80600160006101000a81548173ffffffffffffffffffffffffffffffffffffffff021916908373ffffffffffffffffffffffffffffffffffffffff1602179055505062000288565b620000a682826200018560201b60201c565b6200018157600160008084815260200190815260200160002060000160008373ffffffffffffffffffffffffffffffffffffffff1673ffffffffffffffffffffffffffffffffffffffff16815260200190815260200160002060006101000a81548160ff02191690831515021790555062000126620001ef60201b60201c565b73ffffffffffffffffffffffffffffffffffffffff168173ffffffffffffffffffffffffffffffffffffffff16837f2f8788117e7eff1d82e926ec794901d17c78024a50270940304540a733656f0d60405160405180910390a45b5050565b600080600084815260200190815260200160002060000160008373ffffffffffffffffffffffffffffffffffffffff1673ffffffffffffffffffffffffffffffffffffffff16815260200190815260200160002060009054906101000a900460ff16905092915050565b600033905090565b60008151905062000208816200026e565b92915050565b6000602082840312156200022157600080fd5b60006200023184828501620001f7565b91505092915050565b600062000247826200024e565b9050919050565b600073ffffffffffffffffffffffffffffffffffffffff82169050919050565b62000279816200023a565b81146200028557600080fd5b50565b615cee80620002986000396000f3fe60806040526004361061025c5760003560e01c806391d1485411610144578063ca2660fd116100b6578063dc3d886f1161007a578063dc3d886f14610991578063f38ad964146109ba578063f7d97577146109f7578063f9f96b9e14610a20578063fabc1cbc14610a5d578063fce223b414610a865761025c565b8063ca2660fd146108bd578063d0497523146108e6578063d1b5bd6a1461090f578063d547741f14610938578063d6febde8146109615761025c565b8063a47f909211610108578063a47f90921461078b578063ac26e4c9146107c8578063ad286a9c14610805578063b137479d14610842578063b56561851461086b578063bd33f081146108945761025c565b806391d14854146106805780639c0e6e1f146106bd5780639d5aef30146106fa5780639f270c2214610737578063a217fddf146107605761025c565b80633a4657b4116101dd5780636ddd9f20116101a15780636ddd9f201461055b57806370a905511461059857806376dad91a146105c15780637fd39247146105ea57806389fe08f81461061357806391943b55146106505761025c565b80633a4657b41461043e578063531b14b91461047b578063569f6f92146104b857806358bd42e1146104e157806362f7a7ed1461051e5761025c565b8063248a9ca311610224578063248a9ca314610342578063287f5fb71461037f5780632f2ff15d146103bc578063314398d8146103e557806336568abe146104155761025c565b806301ffc9a7146102615780630ad1d81c1461029e578063128e1c5b146102c7578063136439dd146102f0578063231c228114610319575b600080fd5b34801561026d57600080fd5b50610288600480360381019061028391906147c7565b610ac3565b60405161029591906150c5565b60405180910390f35b3480156102aa57600080fd5b506102c560048036038101906102c091906147f0565b610b3d565b005b3480156102d357600080fd5b506102ee60048036038101906102e99190614944565b610c0e565b005b3480156102fc57600080fd5b50610317600480360381019061031291906147f0565b610ee2565b005b34801561032557600080fd5b50610340600480360381019061033b9190614a93565b610fb4565b005b34801561034e57600080fd5b5061036960048036038101906103649190614762565b610fe9565b60405161037691906150e0565b60405180910390f35b34801561038b57600080fd5b506103a660048036038101906103a191906147f0565b611008565b6040516103b3919061504a565b60405180910390f35b3480156103c857600080fd5b506103e360048036038101906103de919061478b565b61103b565b005b6103ff60048036038101906103fa91906148f5565b611064565b60405161040c91906153dd565b60405180910390f35b34801561042157600080fd5b5061043c6004803603810190610437919061478b565b61107a565b005b34801561044a57600080fd5b50610465600480360381019061046091906146fd565b6110fd565b60405161047291906153dd565b60405180910390f35b34801561048757600080fd5b506104a2600480360381019061049d91906147f0565b611122565b6040516104af91906150fb565b60405180910390f35b3480156104c457600080fd5b506104df60048036038101906104da91906147f0565b6111c2565b005b3480156104ed57600080fd5b50610508600480360381019061050391906147f0565b611227565b60405161051591906150c5565b60405180910390f35b34801561052a57600080fd5b50610545600480360381019061054091906147f0565b611247565b60405161055291906153dd565b60405180910390f35b34801561056757600080fd5b50610582600480360381019061057d91906147f0565b61125f565b60405161058f91906153dd565b60405180910390f35b3480156105a457600080fd5b506105bf60048036038101906105ba9190614842565b611277565b005b3480156105cd57600080fd5b506105e860048036038101906105e3919061487e565b611387565b005b3480156105f657600080fd5b50610611600480360381019061060c9190614842565b6114c1565b005b34801561061f57600080fd5b5061063a600480360381019061063591906147f0565b61163f565b604051610647919061504a565b60405180910390f35b61066a600480360381019061066591906148f5565b611672565b60405161067791906153dd565b60405180910390f35b34801561068c57600080fd5b506106a760048036038101906106a2919061478b565b611e5a565b6040516106b491906150c5565b60405180910390f35b3480156106c957600080fd5b506106e460048036038101906106df91906147f0565b611ec4565b6040516106f191906153dd565b60405180910390f35b34801561070657600080fd5b50610721600480360381019061071c91906147f0565b611edc565b60405161072e91906153dd565b60405180910390f35b34801561074357600080fd5b5061075e600480360381019061075991906147f0565b6121ff565b005b34801561076c57600080fd5b50610775612244565b60405161078291906150e0565b60405180910390f35b34801561079757600080fd5b506107b260048036038101906107ad9190614842565b61224b565b6040516107bf91906150c5565b60405180910390f35b3480156107d457600080fd5b506107ef60048036038101906107ea91906147f0565b61227a565b6040516107fc91906150c5565b60405180910390f35b34801561081157600080fd5b5061082c600480360381019061082791906147f0565b61229a565b60405161083991906153dd565b60405180910390f35b34801561084e57600080fd5b50610869600480360381019061086491906147f0565b6122b2565b005b34801561087757600080fd5b50610892600480360381019061088d9190614a93565b6122f7565b005b3480156108a057600080fd5b506108bb60048036038101906108b691906147f0565b61232c565b005b3480156108c957600080fd5b506108e460048036038101906108df9190614842565b61252e565b005b3480156108f257600080fd5b5061090d600480360381019061090891906149b0565b61263e565b005b34801561091b57600080fd5b5061093660048036038101906109319190614a57565b612940565b005b34801561094457600080fd5b5061095f600480360381019061095a919061478b565b612a62565b005b61097b60048036038101906109769190614a57565b612a8b565b60405161098891906153dd565b60405180910390f35b34801561099d57600080fd5b506109b860048036038101906109b39190614a57565b612aa0565b005b3480156109c657600080fd5b506109e160048036038101906109dc91906147f0565b612bc2565b6040516109ee91906153dd565b60405180910390f35b348015610a0357600080fd5b50610a1e6004803603810190610a199190614a57565b612bda565b005b348015610a2c57600080fd5b50610a476004803603810190610a4291906147f0565b612d8c565b604051610a5491906150c5565b60405180910390f35b348015610a6957600080fd5b50610a846004803603810190610a7f91906147f0565b612dac565b005b348015610a9257600080fd5b50610aad6004803603810190610aa891906147f0565b612e7e565b604051610aba91906150c5565b60405180910390f35b60007f7965db0b000000000000000000000000000000000000000000000000000000007bffffffffffffffffffffffffffffffffffffffffffffffffffffffff1916827bffffffffffffffffffffffffffffffffffffffffffffffffffffffff19161480610b365750610b3582612e9e565b5b9050919050565b6000801b610b5281610b4d612f08565b612f10565b600f600083815260200190815260200160002060009054906101000a900460ff16610bb2576040517f08c379a0000000000000000000000000000000000000000000000000000000008152600401610ba9906151bd565b60405180910390fd5b60016008600084815260200190815260200160002060006101000a81548160ff02191690831515021790555060016009600084815260200190815260200160002060006101000a81548160ff0219169083151502179055505050565b836002600082815260200190815260200160002060009054906101000a900473ffffffffffffffffffffffffffffffffffffffff1673ffffffffffffffffffffffffffffffffffffffff163373ffffffffffffffffffffffffffffffffffffffff1614610cb0576040517f08c379a0000000000000000000000000000000000000000000000000000000008152600401610ca7906152fd565b60405180910390fd5b846008600082815260200190815260200160002060009054906101000a900460ff1615610d12576040517f08c379a0000000000000000000000000000000000000000000000000000000008152600401610d099061527d565b60405180910390fd5b60008585905011610d58576040517f08c379a0000000000000000000000000000000000000000000000000000000008152600401610d4f9061539d565b60405180910390fd5b604051602001610d6790614fe6565b604051602081830303815290604052805190602001208585604051602001610d90929190614fb6565b6040516020818303038152906040528051906020012014610e1c57600073ffffffffffffffffffffffffffffffffffffffff168373ffffffffffffffffffffffffffffffffffffffff161415610e1b576040517f08c379a0000000000000000000000000000000000000000000000000000000008152600401610e129061523d565b60405180910390fd5b5b8484600660008981526020019081526020016000209190610e3e929190614466565b50826005600088815260200190815260200160002060006101000a81548173ffffffffffffffffffffffffffffffffffffffff021916908373ffffffffffffffffffffffffffffffffffffffff160217905550600060046000888152602001908152602001600020541115610eda576001600f600088815260200190815260200160002060006101000a81548160ff0219169083151502179055505b505050505050565b806002600082815260200190815260200160002060009054906101000a900473ffffffffffffffffffffffffffffffffffffffff1673ffffffffffffffffffffffffffffffffffffffff163373ffffffffffffffffffffffffffffffffffffffff1614610f84576040517f08c379a0000000000000000000000000000000000000000000000000000000008152600401610f7b906152fd565b60405180910390fd5b60016009600084815260200190815260200160002060006101000a81548160ff0219169083151502179055505050565b6000801b610fc981610fc4612f08565b612f10565b8160ff16600c600085815260200190815260200160002081905550505050565b6000806000838152602001908152602001600020600101549050919050565b60056020528060005260406000206000915054906101000a900473ffffffffffffffffffffffffffffffffffffffff1681565b61104482610fe9565b61105581611050612f08565b612f10565b61105f8383612fad565b505050565b6000611071848484611672565b90509392505050565b611082612f08565b73ffffffffffffffffffffffffffffffffffffffff168173ffffffffffffffffffffffffffffffffffffffff16146110ef576040517f08c379a00000000000000000000000000000000000000000000000000000000081526004016110e6906153bd565b60405180910390fd5b6110f9828261308d565b5050565b600b602052816000526040600020602052806000526040600020600091509150505481565b6006602052806000526040600020600091509050805461114190615688565b80601f016020809104026020016040519081016040528092919081815260200182805461116d90615688565b80156111ba5780601f1061118f576101008083540402835291602001916111ba565b820191906000526020600020905b81548152906001019060200180831161119d57829003601f168201915b505050505081565b6000801b6111d7816111d2612f08565b612f10565b600a600083815260200190815260200160002060009054906101000a900460ff1615600a600084815260200190815260200160002060006101000a81548160ff0219169083151502179055505050565b600f6020528060005260406000206000915054906101000a900460ff1681565b600c6020528060005260406000206000915090505481565b60076020528060005260406000206000915090505481565b816002600082815260200190815260200160002060009054906101000a900473ffffffffffffffffffffffffffffffffffffffff1673ffffffffffffffffffffffffffffffffffffffff163373ffffffffffffffffffffffffffffffffffffffff1614611319576040517f08c379a0000000000000000000000000000000000000000000000000000000008152600401611310906152fd565b60405180910390fd5b6001600d600085815260200190815260200160002060008473ffffffffffffffffffffffffffffffffffffffff1673ffffffffffffffffffffffffffffffffffffffff16815260200190815260200160002060006101000a81548160ff021916908315150217905550505050565b6000801b61139c81611397612f08565b612f10565b600073ffffffffffffffffffffffffffffffffffffffff168573ffffffffffffffffffffffffffffffffffffffff16141561140c576040517f08c379a0000000000000000000000000000000000000000000000000000000008152600401611403906152dd565b60405180910390fd5b846002600088815260200190815260200160002060006101000a81548173ffffffffffffffffffffffffffffffffffffffff021916908373ffffffffffffffffffffffffffffffffffffffff16021790555083600a600088815260200190815260200160002060006101000a81548160ff02191690831515021790555082600760008881526020019081526020016000208190555081600c600088815260200190815260200160002081905550505050505050565b6000801b6114d6816114d1612f08565b612f10565b8173ffffffffffffffffffffffffffffffffffffffff166002600085815260200190815260200160002060009054906101000a900473ffffffffffffffffffffffffffffffffffffffff1673ffffffffffffffffffffffffffffffffffffffff161415611578576040517f08c379a000000000000000000000000000000000000000000000000000000000815260040161156f9061535d565b60405180910390fd5b600073ffffffffffffffffffffffffffffffffffffffff168273ffffffffffffffffffffffffffffffffffffffff1614156115e8576040517f08c379a00000000000000000000000000000000000000000000000000000000081526004016115df906152dd565b60405180910390fd5b816002600085815260200190815260200160002060006101000a81548173ffffffffffffffffffffffffffffffffffffffff021916908373ffffffffffffffffffffffffffffffffffffffff160217905550505050565b60026020528060005260406000206000915054906101000a900473ffffffffffffffffffffffffffffffffffffffff1681565b60006008600085815260200190815260200160002060009054906101000a900460ff166116d4576040517f08c379a00000000000000000000000000000000000000000000000000000000081526004016116cb906151fd565b60405180910390fd5b6009600085815260200190815260200160002060009054906101000a900460ff1615611735576040517f08c379a000000000000000000000000000000000000000000000000000000000815260040161172c9061519d565b60405180910390fd5b6000600160009054906101000a900473ffffffffffffffffffffffffffffffffffffffff1673ffffffffffffffffffffffffffffffffffffffff16634ca3e9b8866040518263ffffffff1660e01b815260040161179291906153dd565b60206040518083038186803b1580156117aa57600080fd5b505afa1580156117be573d6000803e3d6000fd5b505050506040513d601f19601f820116820180604052508101906117e291906146ab565b905060036000868152602001908152602001600020548173ffffffffffffffffffffffffffffffffffffffff166318160ddd6040518163ffffffff1660e01b815260040160206040518083038186803b15801561183e57600080fd5b505afa158015611852573d6000803e3d6000fd5b505050506040513d601f19601f820116820180604052508101906118769190614819565b10156118b7576040517f08c379a00000000000000000000000000000000000000000000000000000000081526004016118ae9061533d565b60405180910390fd5b60006007600087815260200190815260200160002054111561192a576007600086815260200190815260200160002054831115611929576040517f08c379a00000000000000000000000000000000000000000000000000000000081526004016119209061517d565b60405180910390fd5b5b600a600086815260200190815260200160002060009054906101000a900460ff16156119bf573273ffffffffffffffffffffffffffffffffffffffff163373ffffffffffffffffffffffffffffffffffffffff16146119be576040517f08c379a00000000000000000000000000000000000000000000000000000000081526004016119b59061531d565b60405180910390fd5b5b6000600c6000878152602001908152602001600020541115611ae757600c600086815260200190815260200160002054600b60003373ffffffffffffffffffffffffffffffffffffffff1673ffffffffffffffffffffffffffffffffffffffff16815260200190815260200160002060008781526020019081526020016000205410611a80576040517f08c379a0000000000000000000000000000000000000000000000000000000008152600401611a779061515d565b60405180910390fd5b600b60003373ffffffffffffffffffffffffffffffffffffffff1673ffffffffffffffffffffffffffffffffffffffff16815260200190815260200160002060008681526020019081526020016000206000815480929190611ae1906156ba565b91905055505b6000600e600087815260200190815260200160002054118015611bb757506003600086815260200190815260200160002054600e600087815260200190815260200160002054611b379190615434565b8173ffffffffffffffffffffffffffffffffffffffff166318160ddd6040518163ffffffff1660e01b815260040160206040518083038186803b158015611b7d57600080fd5b505afa158015611b91573d6000803e3d6000fd5b505050506040513d601f19601f82011682018060405250810190611bb59190614819565b105b15611c5a57600d600086815260200190815260200160002060003373ffffffffffffffffffffffffffffffffffffffff1673ffffffffffffffffffffffffffffffffffffffff16815260200190815260200160002060009054906101000a900460ff16611c59576040517f08c379a0000000000000000000000000000000000000000000000000000000008152600401611c509061521d565b60405180910390fd5b5b611c64858461316e565b60008173ffffffffffffffffffffffffffffffffffffffff1663284855866040518163ffffffff1660e01b815260040160206040518083038186803b158015611cac57600080fd5b505afa158015611cc0573d6000803e3d6000fd5b505050506040513d601f19601f82011682018060405250810190611ce49190614819565b8273ffffffffffffffffffffffffffffffffffffffff166318160ddd6040518163ffffffff1660e01b815260040160206040518083038186803b158015611d2a57600080fd5b505afa158015611d3e573d6000803e3d6000fd5b505050506040513d601f19601f82011682018060405250810190611d629190614819565b10611da2576040517f08c379a0000000000000000000000000000000000000000000000000000000008152600401611d999061537d565b60405180910390fd5b60005b84811015611e4d578273ffffffffffffffffffffffffffffffffffffffff16636a627842876040518263ffffffff1660e01b8152600401611de6919061504a565b602060405180830381600087803b158015611e0057600080fd5b505af1158015611e14573d6000803e3d6000fd5b505050506040513d601f19601f82011682018060405250810190611e389190614819565b91508080611e45906156ba565b915050611da5565b5080925050509392505050565b600080600084815260200190815260200160002060000160008373ffffffffffffffffffffffffffffffffffffffff1673ffffffffffffffffffffffffffffffffffffffff16815260200190815260200160002060009054906101000a900460ff16905092915050565b60036020528060005260406000206000915090505481565b60006008600083815260200190815260200160002060009054906101000a900460ff16611f3e576040517f08c379a0000000000000000000000000000000000000000000000000000000008152600401611f35906151fd565b60405180910390fd5b6002600083815260200190815260200160002060009054906101000a900473ffffffffffffffffffffffffffffffffffffffff1673ffffffffffffffffffffffffffffffffffffffff163373ffffffffffffffffffffffffffffffffffffffff1614611fdf576040517f08c379a0000000000000000000000000000000000000000000000000000000008152600401611fd6906152fd565b60405180910390fd5b6000600160009054906101000a900473ffffffffffffffffffffffffffffffffffffffff1673ffffffffffffffffffffffffffffffffffffffff16634ca3e9b8846040518263ffffffff1660e01b815260040161203c91906153dd565b60206040518083038186803b15801561205457600080fd5b505afa158015612068573d6000803e3d6000fd5b505050506040513d601f19601f8201168201806040525081019061208c91906146ab565b905060036000848152602001908152602001600020548173ffffffffffffffffffffffffffffffffffffffff166318160ddd6040518163ffffffff1660e01b815260040160206040518083038186803b1580156120e857600080fd5b505afa1580156120fc573d6000803e3d6000fd5b505050506040513d601f19601f820116820180604052508101906121209190614819565b10612160576040517f08c379a00000000000000000000000000000000000000000000000000000000081526004016121579061525d565b60405180910390fd5b600033905060008273ffffffffffffffffffffffffffffffffffffffff16636a627842836040518263ffffffff1660e01b81526004016121a0919061504a565b602060405180830381600087803b1580156121ba57600080fd5b505af11580156121ce573d6000803e3d6000fd5b505050506040513d601f19601f820116820180604052508101906121f29190614819565b9050809350505050919050565b6000801b6122148161220f612f08565b612f10565b60006009600084815260200190815260200160002060006101000a81548160ff0219169083151502179055505050565b6000801b81565b600d6020528160005260406000206020528060005260406000206000915091509054906101000a900460ff1681565b60086020528060005260406000206000915054906101000a900460ff1681565b60046020528060005260406000206000915090505481565b6000801b6122c7816122c2612f08565b612f10565b60016009600084815260200190815260200160002060006101000a81548160ff0219169083151502179055505050565b6000801b61230c81612307612f08565b612f10565b8160ff166007600085815260200190815260200160002081905550505050565b806002600082815260200190815260200160002060009054906101000a900473ffffffffffffffffffffffffffffffffffffffff1673ffffffffffffffffffffffffffffffffffffffff163373ffffffffffffffffffffffffffffffffffffffff16146123ce576040517f08c379a00000000000000000000000000000000000000000000000000000000081526004016123c5906152fd565b60405180910390fd5b816008600082815260200190815260200160002060009054906101000a900460ff1615612430576040517f08c379a00000000000000000000000000000000000000000000000000000000081526004016124279061527d565b60405180910390fd5b6040518060400160405280600381526020017f455448000000000000000000000000000000000000000000000000000000000081525060066000858152602001908152602001600020908051906020019061248c9291906144ec565b5060006005600085815260200190815260200160002060006101000a81548173ffffffffffffffffffffffffffffffffffffffff021916908373ffffffffffffffffffffffffffffffffffffffff160217905550600060046000858152602001908152602001600020541115612529576001600f600085815260200190815260200160002060006101000a81548160ff0219169083151502179055505b505050565b816002600082815260200190815260200160002060009054906101000a900473ffffffffffffffffffffffffffffffffffffffff1673ffffffffffffffffffffffffffffffffffffffff163373ffffffffffffffffffffffffffffffffffffffff16146125d0576040517f08c379a00000000000000000000000000000000000000000000000000000000081526004016125c7906152fd565b60405180910390fd5b6000600d600085815260200190815260200160002060008473ffffffffffffffffffffffffffffffffffffffff1673ffffffffffffffffffffffffffffffffffffffff16815260200190815260200160002060006101000a81548160ff021916908315150217905550505050565b866002600082815260200190815260200160002060009054906101000a900473ffffffffffffffffffffffffffffffffffffffff1673ffffffffffffffffffffffffffffffffffffffff163373ffffffffffffffffffffffffffffffffffffffff16146126e0576040517f08c379a00000000000000000000000000000000000000000000000000000000081526004016126d7906152fd565b60405180910390fd5b876008600082815260200190815260200160002060009054906101000a900460ff1615612742576040517f08c379a00000000000000000000000000000000000000000000000000000000081526004016127399061527d565b60405180910390fd5b60008888905011612788576040517f08c379a000000000000000000000000000000000000000000000000000000000815260040161277f9061539d565b60405180910390fd5b60405160200161279790614fe6565b6040516020818303038152906040528051906020012088886040516020016127c0929190614fb6565b604051602081830303815290604052805190602001201461284c57600073ffffffffffffffffffffffffffffffffffffffff168673ffffffffffffffffffffffffffffffffffffffff16141561284b576040517f08c379a00000000000000000000000000000000000000000000000000000000081526004016128429061523d565b60405180910390fd5b5b8787600660008c8152602001908152602001600020919061286e929190614466565b5085600560008b815260200190815260200160002060006101000a81548173ffffffffffffffffffffffffffffffffffffffff021916908373ffffffffffffffffffffffffffffffffffffffff16021790555084600460008b81526020019081526020016000208190555083600360008b81526020019081526020016000208190555082600e60008b8152602001908152602001600020819055506001600f60008b815260200190815260200160002060006101000a81548160ff021916908315150217905550505050505050505050565b816002600082815260200190815260200160002060009054906101000a900473ffffffffffffffffffffffffffffffffffffffff1673ffffffffffffffffffffffffffffffffffffffff163373ffffffffffffffffffffffffffffffffffffffff16146129e2576040517f08c379a00000000000000000000000000000000000000000000000000000000081526004016129d9906152fd565b60405180910390fd5b826008600082815260200190815260200160002060009054906101000a900460ff1615612a44576040517f08c379a0000000000000000000000000000000000000000000000000000000008152600401612a3b9061527d565b60405180910390fd5b82600e60008681526020019081526020016000208190555050505050565b612a6b82610fe9565b612a7c81612a77612f08565b612f10565b612a86838361308d565b505050565b6000612a98833384611672565b905092915050565b816002600082815260200190815260200160002060009054906101000a900473ffffffffffffffffffffffffffffffffffffffff1673ffffffffffffffffffffffffffffffffffffffff163373ffffffffffffffffffffffffffffffffffffffff1614612b42576040517f08c379a0000000000000000000000000000000000000000000000000000000008152600401612b39906152fd565b60405180910390fd5b826008600082815260200190815260200160002060009054906101000a900460ff1615612ba4576040517f08c379a0000000000000000000000000000000000000000000000000000000008152600401612b9b9061527d565b60405180910390fd5b82600360008681526020019081526020016000208190555050505050565b600e6020528060005260406000206000915090505481565b816002600082815260200190815260200160002060009054906101000a900473ffffffffffffffffffffffffffffffffffffffff1673ffffffffffffffffffffffffffffffffffffffff163373ffffffffffffffffffffffffffffffffffffffff1614612c7c576040517f08c379a0000000000000000000000000000000000000000000000000000000008152600401612c73906152fd565b60405180910390fd5b826008600082815260200190815260200160002060009054906101000a900460ff1615612cde576040517f08c379a0000000000000000000000000000000000000000000000000000000008152600401612cd59061527d565b60405180910390fd5b826004600086815260200190815260200160002081905550604051602001612d0590614ffb565b6040516020818303038152906040528051906020012060066000868152602001908152602001600020604051602001612d3e9190614fcf565b6040516020818303038152906040528051906020012014612d86576001600f600086815260200190815260200160002060006101000a81548160ff0219169083151502179055505b50505050565b600a6020528060005260406000206000915054906101000a900460ff1681565b806002600082815260200190815260200160002060009054906101000a900473ffffffffffffffffffffffffffffffffffffffff1673ffffffffffffffffffffffffffffffffffffffff163373ffffffffffffffffffffffffffffffffffffffff1614612e4e576040517f08c379a0000000000000000000000000000000000000000000000000000000008152600401612e45906152fd565b60405180910390fd5b60006009600084815260200190815260200160002060006101000a81548160ff0219169083151502179055505050565b60096020528060005260406000206000915054906101000a900460ff1681565b60007f01ffc9a7000000000000000000000000000000000000000000000000000000007bffffffffffffffffffffffffffffffffffffffffffffffffffffffff1916827bffffffffffffffffffffffffffffffffffffffffffffffffffffffff1916149050919050565b600033905090565b612f1a8282611e5a565b612fa957612f3f8173ffffffffffffffffffffffffffffffffffffffff16601461349e565b612f4d8360001c602061349e565b604051602001612f5e929190615010565b6040516020818303038152906040526040517f08c379a0000000000000000000000000000000000000000000000000000000008152600401612fa091906150fb565b60405180910390fd5b5050565b612fb78282611e5a565b61308957600160008084815260200190815260200160002060000160008373ffffffffffffffffffffffffffffffffffffffff1673ffffffffffffffffffffffffffffffffffffffff16815260200190815260200160002060006101000a81548160ff02191690831515021790555061302e612f08565b73ffffffffffffffffffffffffffffffffffffffff168173ffffffffffffffffffffffffffffffffffffffff16837f2f8788117e7eff1d82e926ec794901d17c78024a50270940304540a733656f0d60405160405180910390a45b5050565b6130978282611e5a565b1561316a57600080600084815260200190815260200160002060000160008373ffffffffffffffffffffffffffffffffffffffff1673ffffffffffffffffffffffffffffffffffffffff16815260200190815260200160002060006101000a81548160ff02191690831515021790555061310f612f08565b73ffffffffffffffffffffffffffffffffffffffff168173ffffffffffffffffffffffffffffffffffffffff16837ff6391f5c32d9c69d2a47ea670b442974b53935d1edc7fd64eb21e047a839171b60405160405180910390a45b5050565b600061319682600460008681526020019081526020016000205461379890919063ffffffff16565b90506040516020016131a790614fe6565b60405160208183030381529060405280519060200120600660008581526020019081526020016000206040516020016131e09190614fcf565b604051602081830303815290604052805190602001201461344b576000341461323e576040517f08c379a0000000000000000000000000000000000000000000000000000000008152600401613235906152bd565b60405180910390fd5b806005600085815260200190815260200160002060009054906101000a900473ffffffffffffffffffffffffffffffffffffffff1673ffffffffffffffffffffffffffffffffffffffff1663dd62ed3e33306040518363ffffffff1660e01b81526004016132ad929190615065565b60206040518083038186803b1580156132c557600080fd5b505afa1580156132d9573d6000803e3d6000fd5b505050506040513d601f19601f820116820180604052508101906132fd9190614819565b101561333e576040517f08c379a00000000000000000000000000000000000000000000000000000000081526004016133359061529d565b60405180910390fd5b806005600085815260200190815260200160002060009054906101000a900473ffffffffffffffffffffffffffffffffffffffff1673ffffffffffffffffffffffffffffffffffffffff166370a08231336040518263ffffffff1660e01b81526004016133ab919061504a565b60206040518083038186803b1580156133c357600080fd5b505afa1580156133d7573d6000803e3d6000fd5b505050506040513d601f19601f820116820180604052508101906133fb9190614819565b101561343c576040517f08c379a0000000000000000000000000000000000000000000000000000000008152600401613433906151dd565b60405180910390fd5b61344683836137ae565b613499565b8034101561348e576040517f08c379a00000000000000000000000000000000000000000000000000000000081526004016134859061513d565b60405180910390fd5b6134988383613eb4565b5b505050565b6060600060028360026134b191906154bb565b6134bb9190615434565b67ffffffffffffffff8111156134fa577f4e487b7100000000000000000000000000000000000000000000000000000000600052604160045260246000fd5b6040519080825280601f01601f19166020018201604052801561352c5781602001600182028036833780820191505090505b5090507f30000000000000000000000000000000000000000000000000000000000000008160008151811061358a577f4e487b7100000000000000000000000000000000000000000000000000000000600052603260045260246000fd5b60200101907effffffffffffffffffffffffffffffffffffffffffffffffffffffffffffff1916908160001a9053507f780000000000000000000000000000000000000000000000000000000000000081600181518110613614577f4e487b7100000000000000000000000000000000000000000000000000000000600052603260045260246000fd5b60200101907effffffffffffffffffffffffffffffffffffffffffffffffffffffffffffff1916908160001a9053506000600184600261365491906154bb565b61365e9190615434565b90505b600181111561374a577f3031323334353637383961626364656600000000000000000000000000000000600f8616601081106136c6577f4e487b7100000000000000000000000000000000000000000000000000000000600052603260045260246000fd5b1a60f81b828281518110613703577f4e487b7100000000000000000000000000000000000000000000000000000000600052603260045260246000fd5b60200101907effffffffffffffffffffffffffffffffffffffffffffffffffffffffffffff1916908160001a905350600485901c9450806137439061565e565b9050613661565b506000841461378e576040517f08c379a00000000000000000000000000000000000000000000000000000000081526004016137859061511d565b60405180910390fd5b8091505092915050565b600081836137a691906154bb565b905092915050565b60006004600084815260200190815260200160002054905060006137db838361379890919063ffffffff16565b905060006138a7612710613899600160009054906101000a900473ffffffffffffffffffffffffffffffffffffffff1673ffffffffffffffffffffffffffffffffffffffff16631f7418976040518163ffffffff1660e01b8152600401602060405180830381600087803b15801561385257600080fd5b505af1158015613866573d6000803e3d6000fd5b505050506040513d601f19601f8201168201806040525081019061388a9190614819565b8561379890919063ffffffff16565b61443a90919063ffffffff16565b90506000811115613a17576005600086815260200190815260200160002060009054906101000a900473ffffffffffffffffffffffffffffffffffffffff1673ffffffffffffffffffffffffffffffffffffffff166323b872dd33600160009054906101000a900473ffffffffffffffffffffffffffffffffffffffff1673ffffffffffffffffffffffffffffffffffffffff16637dafc0d36040518163ffffffff1660e01b8152600401602060405180830381600087803b15801561396c57600080fd5b505af1158015613980573d6000803e3d6000fd5b505050506040513d601f19601f820116820180604052508101906139a491906146d4565b846040518463ffffffff1660e01b81526004016139c39392919061508e565b602060405180830381600087803b1580156139dd57600080fd5b505af11580156139f1573d6000803e3d6000fd5b505050506040513d601f19601f82011682018060405250810190613a159190614739565b505b6000600160009054906101000a900473ffffffffffffffffffffffffffffffffffffffff1673ffffffffffffffffffffffffffffffffffffffff16634ca3e9b8876040518263ffffffff1660e01b8152600401613a7491906153dd565b60206040518083038186803b158015613a8c57600080fd5b505afa158015613aa0573d6000803e3d6000fd5b505050506040513d601f19601f82011682018060405250810190613ac491906146ab565b90508073ffffffffffffffffffffffffffffffffffffffff16638cbe8d806040518163ffffffff1660e01b815260040160206040518083038186803b158015613b0c57600080fd5b505afa158015613b20573d6000803e3d6000fd5b505050506040513d601f19601f82011682018060405250810190613b4491906146d4565b506000613beb612710613bdd8473ffffffffffffffffffffffffffffffffffffffff16632cc889746040518163ffffffff1660e01b815260040160206040518083038186803b158015613b9657600080fd5b505afa158015613baa573d6000803e3d6000fd5b505050506040513d601f19601f82011682018060405250810190613bce9190614819565b8761379890919063ffffffff16565b61443a90919063ffffffff16565b90506000811115613d37576005600088815260200190815260200160002060009054906101000a900473ffffffffffffffffffffffffffffffffffffffff1673ffffffffffffffffffffffffffffffffffffffff166323b872dd338473ffffffffffffffffffffffffffffffffffffffff16636ff314c76040518163ffffffff1660e01b815260040160206040518083038186803b158015613c8c57600080fd5b505afa158015613ca0573d6000803e3d6000fd5b505050506040513d601f19601f82011682018060405250810190613cc491906146d4565b846040518463ffffffff1660e01b8152600401613ce39392919061508e565b602060405180830381600087803b158015613cfd57600080fd5b505af1158015613d11573d6000803e3d6000fd5b505050506040513d601f19601f82011682018060405250810190613d359190614739565b505b6000613d5e82613d50868861445090919063ffffffff16565b61445090919063ffffffff16565b90506000811115613eaa576005600089815260200190815260200160002060009054906101000a900473ffffffffffffffffffffffffffffffffffffffff1673ffffffffffffffffffffffffffffffffffffffff166323b872dd338573ffffffffffffffffffffffffffffffffffffffff16638cbe8d806040518163ffffffff1660e01b815260040160206040518083038186803b158015613dff57600080fd5b505afa158015613e13573d6000803e3d6000fd5b505050506040513d601f19601f82011682018060405250810190613e3791906146d4565b846040518463ffffffff1660e01b8152600401613e569392919061508e565b602060405180830381600087803b158015613e7057600080fd5b505af1158015613e84573d6000803e3d6000fd5b505050506040513d601f19601f82011682018060405250810190613ea89190614739565b505b5050505050505050565b6000341115614436576000600460008481526020019081526020016000205490506000613eea838361379890919063ffffffff16565b90506000613f01823461445090919063ffffffff16565b90506000811115613f54573373ffffffffffffffffffffffffffffffffffffffff166108fc829081150290604051600060405180830381858888f19350505050158015613f52573d6000803e3d6000fd5b505b600061401e612710614010600160009054906101000a900473ffffffffffffffffffffffffffffffffffffffff1673ffffffffffffffffffffffffffffffffffffffff16631f7418976040518163ffffffff1660e01b8152600401602060405180830381600087803b158015613fc957600080fd5b505af1158015613fdd573d6000803e3d6000fd5b505050506040513d601f19601f820116820180604052508101906140019190614819565b8661379890919063ffffffff16565b61443a90919063ffffffff16565b9050600081111561411257600160009054906101000a900473ffffffffffffffffffffffffffffffffffffffff1673ffffffffffffffffffffffffffffffffffffffff16637dafc0d36040518163ffffffff1660e01b8152600401602060405180830381600087803b15801561409357600080fd5b505af11580156140a7573d6000803e3d6000fd5b505050506040513d601f19601f820116820180604052508101906140cb91906146d4565b73ffffffffffffffffffffffffffffffffffffffff166108fc829081150290604051600060405180830381858888f19350505050158015614110573d6000803e3d6000fd5b505b6000600160009054906101000a900473ffffffffffffffffffffffffffffffffffffffff1673ffffffffffffffffffffffffffffffffffffffff16634ca3e9b8886040518263ffffffff1660e01b815260040161416f91906153dd565b60206040518083038186803b15801561418757600080fd5b505afa15801561419b573d6000803e3d6000fd5b505050506040513d601f19601f820116820180604052508101906141bf91906146ab565b905060006142676127106142598473ffffffffffffffffffffffffffffffffffffffff16632cc889746040518163ffffffff1660e01b815260040160206040518083038186803b15801561421257600080fd5b505afa158015614226573d6000803e3d6000fd5b505050506040513d601f19601f8201168201806040525081019061424a9190614819565b8861379890919063ffffffff16565b61443a90919063ffffffff16565b90506000811115614337578173ffffffffffffffffffffffffffffffffffffffff16636ff314c76040518163ffffffff1660e01b815260040160206040518083038186803b1580156142b857600080fd5b505afa1580156142cc573d6000803e3d6000fd5b505050506040513d601f19601f820116820180604052508101906142f091906146d4565b73ffffffffffffffffffffffffffffffffffffffff166108fc829081150290604051600060405180830381858888f19350505050158015614335573d6000803e3d6000fd5b505b600061435e82614350868961445090919063ffffffff16565b61445090919063ffffffff16565b9050600081111561442e578273ffffffffffffffffffffffffffffffffffffffff16638cbe8d806040518163ffffffff1660e01b815260040160206040518083038186803b1580156143af57600080fd5b505afa1580156143c3573d6000803e3d6000fd5b505050506040513d601f19601f820116820180604052508101906143e791906146d4565b73ffffffffffffffffffffffffffffffffffffffff166108fc829081150290604051600060405180830381858888f1935050505015801561442c573d6000803e3d6000fd5b505b505050505050505b5050565b60008183614448919061548a565b905092915050565b6000818361445e9190615515565b905092915050565b82805461447290615688565b90600052602060002090601f01602090048101928261449457600085556144db565b82601f106144ad57803560ff19168380011785556144db565b828001600101855582156144db579182015b828111156144da5782358255916020019190600101906144bf565b5b5090506144e89190614572565b5090565b8280546144f890615688565b90600052602060002090601f01602090048101928261451a5760008555614561565b82601f1061453357805160ff1916838001178555614561565b82800160010185558215614561579182015b82811115614560578251825591602001919060010190614545565b5b50905061456e9190614572565b5090565b5b8082111561458b576000816000905550600101614573565b5090565b60008135905061459e81615c17565b92915050565b6000815190506145b381615c17565b92915050565b6000815190506145c881615c2e565b92915050565b6000813590506145dd81615c45565b92915050565b6000815190506145f281615c45565b92915050565b60008135905061460781615c5c565b92915050565b60008135905061461c81615c73565b92915050565b60008083601f84011261463457600080fd5b8235905067ffffffffffffffff81111561464d57600080fd5b60208301915083600182028301111561466557600080fd5b9250929050565b60008135905061467b81615c8a565b92915050565b60008151905061469081615c8a565b92915050565b6000813590506146a581615ca1565b92915050565b6000602082840312156146bd57600080fd5b60006146cb848285016145a4565b91505092915050565b6000602082840312156146e657600080fd5b60006146f4848285016145b9565b91505092915050565b6000806040838503121561471057600080fd5b600061471e8582860161458f565b925050602061472f8582860161466c565b9150509250929050565b60006020828403121561474b57600080fd5b6000614759848285016145e3565b91505092915050565b60006020828403121561477457600080fd5b6000614782848285016145f8565b91505092915050565b6000806040838503121561479e57600080fd5b60006147ac858286016145f8565b92505060206147bd8582860161458f565b9150509250929050565b6000602082840312156147d957600080fd5b60006147e78482850161460d565b91505092915050565b60006020828403121561480257600080fd5b60006148108482850161466c565b91505092915050565b60006020828403121561482b57600080fd5b600061483984828501614681565b91505092915050565b6000806040838503121561485557600080fd5b60006148638582860161466c565b92505060206148748582860161458f565b9150509250929050565b600080600080600060a0868803121561489657600080fd5b60006148a48882890161466c565b95505060206148b58882890161458f565b94505060406148c6888289016145ce565b93505060606148d78882890161466c565b92505060806148e88882890161466c565b9150509295509295909350565b60008060006060848603121561490a57600080fd5b60006149188682870161466c565b93505060206149298682870161458f565b925050604061493a8682870161466c565b9150509250925092565b6000806000806060858703121561495a57600080fd5b60006149688782880161466c565b945050602085013567ffffffffffffffff81111561498557600080fd5b61499187828801614622565b935093505060406149a48782880161458f565b91505092959194509250565b600080600080600080600060c0888a0312156149cb57600080fd5b60006149d98a828b0161466c565b975050602088013567ffffffffffffffff8111156149f657600080fd5b614a028a828b01614622565b96509650506040614a158a828b0161458f565b9450506060614a268a828b0161466c565b9350506080614a378a828b0161466c565b92505060a0614a488a828b0161466c565b91505092959891949750929550565b60008060408385031215614a6a57600080fd5b6000614a788582860161466c565b9250506020614a898582860161466c565b9150509250929050565b60008060408385031215614aa657600080fd5b6000614ab48582860161466c565b9250506020614ac585828601614696565b9150509250929050565b614ad8816155e6565b82525050565b614ae781615549565b82525050565b614af68161556d565b82525050565b614b0581615579565b82525050565b6000614b178385615429565b9350614b2483858461561c565b82840190509392505050565b6000614b3b8261540d565b614b458185615418565b9350614b5581856020860161562b565b614b5e81615790565b840191505092915050565b6000614b748261540d565b614b7e8185615429565b9350614b8e81856020860161562b565b80840191505092915050565b60008154614ba781615688565b614bb18186615429565b94506001821660008114614bcc5760018114614bdd57614c10565b60ff19831686528186019350614c10565b614be6856153f8565b60005b83811015614c0857815481890152600182019150602081019050614be9565b838801955050505b50505092915050565b6000614c26602083615418565b9150614c31826157a1565b602082019050919050565b6000614c49602083615418565b9150614c54826157ca565b602082019050919050565b6000614c6c601583615418565b9150614c77826157f3565b602082019050919050565b6000614c8f601583615418565b9150614c9a8261581c565b602082019050919050565b6000614cb2600e83615418565b9150614cbd82615845565b602082019050919050565b6000614cd5601a83615418565b9150614ce08261586e565b602082019050919050565b6000614cf8601583615418565b9150614d0382615897565b602082019050919050565b6000614d1b601083615418565b9150614d26826158c0565b602082019050919050565b6000614d3e601083615418565b9150614d49826158e9565b602082019050919050565b6000614d61601c83615418565b9150614d6c82615912565b602082019050919050565b6000614d84600c83615418565b9150614d8f8261593b565b602082019050919050565b6000614da7600c83615418565b9150614db282615964565b602082019050919050565b6000614dca602283615418565b9150614dd58261598d565b604082019050919050565b6000614ded603f83615418565b9150614df8826159dc565b604082019050919050565b6000614e10600383615429565b9150614e1b82615a2b565b600382019050919050565b6000614e33601b83615418565b9150614e3e82615a54565b602082019050919050565b6000614e56600a83615418565b9150614e6182615a7d565b602082019050919050565b6000614e79601083615418565b9150614e8482615aa6565b602082019050919050565b6000614e9c601283615418565b9150614ea782615acf565b602082019050919050565b6000614ebf600083615429565b9150614eca82615af8565b600082019050919050565b6000614ee2601383615418565b9150614eed82615afb565b602082019050919050565b6000614f05601a83615418565b9150614f1082615b24565b602082019050919050565b6000614f28601783615429565b9150614f3382615b4d565b601782019050919050565b6000614f4b601783615418565b9150614f5682615b76565b602082019050919050565b6000614f6e601183615429565b9150614f7982615b9f565b601182019050919050565b6000614f91602f83615418565b9150614f9c82615bc8565b604082019050919050565b614fb0816155cf565b82525050565b6000614fc3828486614b0b565b91508190509392505050565b6000614fdb8284614b9a565b915081905092915050565b6000614ff182614e03565b9150819050919050565b600061500682614eb2565b9150819050919050565b600061501b82614f1b565b91506150278285614b69565b915061503282614f61565b915061503e8284614b69565b91508190509392505050565b600060208201905061505f6000830184614ade565b92915050565b600060408201905061507a6000830185614ade565b6150876020830184614ade565b9392505050565b60006060820190506150a36000830186614ade565b6150b06020830185614acf565b6150bd6040830184614fa7565b949350505050565b60006020820190506150da6000830184614aed565b92915050565b60006020820190506150f56000830184614afc565b92915050565b600060208201905081810360008301526151158184614b30565b905092915050565b6000602082019050818103600083015261513681614c19565b9050919050565b6000602082019050818103600083015261515681614c3c565b9050919050565b6000602082019050818103600083015261517681614c5f565b9050919050565b6000602082019050818103600083015261519681614c82565b9050919050565b600060208201905081810360008301526151b681614ca5565b9050919050565b600060208201905081810360008301526151d681614cc8565b9050919050565b600060208201905081810360008301526151f681614ceb565b9050919050565b6000602082019050818103600083015261521681614d0e565b9050919050565b6000602082019050818103600083015261523681614d31565b9050919050565b6000602082019050818103600083015261525681614d54565b9050919050565b6000602082019050818103600083015261527681614d77565b9050919050565b6000602082019050818103600083015261529681614d9a565b9050919050565b600060208201905081810360008301526152b681614dbd565b9050919050565b600060208201905081810360008301526152d681614de0565b9050919050565b600060208201905081810360008301526152f681614e26565b9050919050565b6000602082019050818103600083015261531681614e49565b9050919050565b6000602082019050818103600083015261533681614e6c565b9050919050565b6000602082019050818103600083015261535681614e8f565b9050919050565b6000602082019050818103600083015261537681614ed5565b9050919050565b6000602082019050818103600083015261539681614ef8565b9050919050565b600060208201905081810360008301526153b681614f3e565b9050919050565b600060208201905081810360008301526153d681614f84565b9050919050565b60006020820190506153f26000830184614fa7565b92915050565b60008190508160005260206000209050919050565b600081519050919050565b600082825260208201905092915050565b600081905092915050565b600061543f826155cf565b915061544a836155cf565b9250827fffffffffffffffffffffffffffffffffffffffffffffffffffffffffffffffff0382111561547f5761547e615703565b5b828201905092915050565b6000615495826155cf565b91506154a0836155cf565b9250826154b0576154af615732565b5b828204905092915050565b60006154c6826155cf565b91506154d1836155cf565b9250817fffffffffffffffffffffffffffffffffffffffffffffffffffffffffffffffff048311821515161561550a57615509615703565b5b828202905092915050565b6000615520826155cf565b915061552b836155cf565b92508282101561553e5761553d615703565b5b828203905092915050565b6000615554826155af565b9050919050565b6000615566826155af565b9050919050565b60008115159050919050565b6000819050919050565b60007fffffffff0000000000000000000000000000000000000000000000000000000082169050919050565b600073ffffffffffffffffffffffffffffffffffffffff82169050919050565b6000819050919050565b600060ff82169050919050565b60006155f1826155f8565b9050919050565b60006156038261560a565b9050919050565b6000615615826155af565b9050919050565b82818337600083830152505050565b60005b8381101561564957808201518184015260208101905061562e565b83811115615658576000848401525b50505050565b6000615669826155cf565b9150600082141561567d5761567c615703565b5b600182039050919050565b600060028204905060018216806156a057607f821691505b602082108114156156b4576156b3615761565b5b50919050565b60006156c5826155cf565b91507fffffffffffffffffffffffffffffffffffffffffffffffffffffffffffffffff8214156156f8576156f7615703565b5b600182019050919050565b7f4e487b7100000000000000000000000000000000000000000000000000000000600052601160045260246000fd5b7f4e487b7100000000000000000000000000000000000000000000000000000000600052601260045260246000fd5b7f4e487b7100000000000000000000000000000000000000000000000000000000600052602260045260246000fd5b6000601f19601f8301169050919050565b7f537472696e67733a20686578206c656e67746820696e73756666696369656e74600082015250565b7f4d7573742073656e64206d696e696d756d2076616c756520746f206d696e7421600082015250565b7f52656163686564206d696e74696e67206c696d69740000000000000000000000600082015250565b7f65786365646573206d696e74696e67206c696d69740000000000000000000000600082015250565b7f70726f6a65637420706175736564000000000000000000000000000000000000600082015250565b7f70726f6a656374206e6f7420726561647920666f72206c697665000000000000600082015250565b7f496e73756666696369656e742062616c616e63652e0000000000000000000000600082015250565b7f70726f6a656374206e6f74206c69766500000000000000000000000000000000600082015250565b7f6e6f74206f6e20616c6c6f776c69737400000000000000000000000000000000600082015250565b7f637572656e637920616464726573732063616e74206265207a65726f00000000600082015250565b7f6d6178207072656d696e74730000000000000000000000000000000000000000600082015250565b7f616c7265616479206c6976650000000000000000000000000000000000000000600082015250565b7f496e73756666696369656e742046756e647320417070726f76656420666f722060008201527f5458000000000000000000000000000000000000000000000000000000000000602082015250565b7f746869732070726f6a6563742061636365707473206120646966666572656e7460008201527f2063757272656e637920616e642063616e6e6f74206163636570742045544800602082015250565b7f4554480000000000000000000000000000000000000000000000000000000000600082015250565b7f6f776e65722063616e2774206265207a65726f20616464726573730000000000600082015250565b7f6f6e6c79206f776e657200000000000000000000000000000000000000000000600082015250565b7f4e6f20436f6e7472616374204275797300000000000000000000000000000000600082015250565b7f7072656d696e74732072656d61696e696e670000000000000000000000000000600082015250565b50565b7f63616e27742062652073616d65206f776e657200000000000000000000000000600082015250565b7f65786365656473207175616e746974792072656d61696e696e67000000000000600082015250565b7f416363657373436f6e74726f6c3a206163636f756e7420000000000000000000600082015250565b7f53796d626f6c206d7573742062652070726f7669646564000000000000000000600082015250565b7f206973206d697373696e6720726f6c6520000000000000000000000000000000600082015250565b7f416363657373436f6e74726f6c3a2063616e206f6e6c792072656e6f756e636560008201527f20726f6c657320666f722073656c660000000000000000000000000000000000602082015250565b615c2081615549565b8114615c2b57600080fd5b50565b615c378161555b565b8114615c4257600080fd5b50565b615c4e8161556d565b8114615c5957600080fd5b50565b615c6581615579565b8114615c7057600080fd5b50565b615c7c81615583565b8114615c8757600080fd5b50565b615c93816155cf565b8114615c9e57600080fd5b50565b615caa816155d9565b8114615cb557600080fd5b5056fea26469706673582212204f1cca46e703967e802c3fabe5186b656fcae8c90e98b7fa5d84c29fdfde819464736f6c63430008020033",
  "linkReferences": {},
  "deployedLinkReferences": {}
}