{
  "_format": "hh-sol-artifact-1",
  "contractName": "FineShop",
  "sourceName": "contracts/FineShop.sol",
  "abi": [
    {
      "inputs": [
        {
          "internalType": "address",
          "name": "_fineCoreAddresss",
          "type": "address"
        }
      ],
      "stateMutability": "nonpayable",
      "type": "constructor"
    },
    {
      "anonymous": false,
      "inputs": [
        {
          "indexed": true,
          "internalType": "bytes32",
          "name": "role",
          "type": "bytes32"
        },
        {
          "indexed": true,
          "internalType": "bytes32",
          "name": "previousAdminRole",
          "type": "bytes32"
        },
        {
          "indexed": true,
          "internalType": "bytes32",
          "name": "newAdminRole",
          "type": "bytes32"
        }
      ],
      "name": "RoleAdminChanged",
      "type": "event"
    },
    {
      "anonymous": false,
      "inputs": [
        {
          "indexed": true,
          "internalType": "bytes32",
          "name": "role",
          "type": "bytes32"
        },
        {
          "indexed": true,
          "internalType": "address",
          "name": "account",
          "type": "address"
        },
        {
          "indexed": true,
          "internalType": "address",
          "name": "sender",
          "type": "address"
        }
      ],
      "name": "RoleGranted",
      "type": "event"
    },
    {
      "anonymous": false,
      "inputs": [
        {
          "indexed": true,
          "internalType": "bytes32",
          "name": "role",
          "type": "bytes32"
        },
        {
          "indexed": true,
          "internalType": "address",
          "name": "account",
          "type": "address"
        },
        {
          "indexed": true,
          "internalType": "address",
          "name": "sender",
          "type": "address"
        }
      ],
      "name": "RoleRevoked",
      "type": "event"
    },
    {
      "inputs": [],
      "name": "DEFAULT_ADMIN_ROLE",
      "outputs": [
        {
          "internalType": "bytes32",
          "name": "",
          "type": "bytes32"
        }
      ],
      "stateMutability": "view",
      "type": "function"
    },
    {
      "inputs": [
        {
          "internalType": "uint256",
          "name": "_projectId",
          "type": "uint256"
        },
        {
          "internalType": "address",
          "name": "minter",
          "type": "address"
        }
      ],
      "name": "addToAllowlist",
      "outputs": [],
      "stateMutability": "nonpayable",
      "type": "function"
    },
    {
      "inputs": [
        {
          "internalType": "uint256",
          "name": "_projectId",
          "type": "uint256"
        },
        {
          "internalType": "uint256",
          "name": "count",
          "type": "uint256"
        }
      ],
      "name": "buy",
      "outputs": [
        {
          "internalType": "uint256",
          "name": "",
          "type": "uint256"
        }
      ],
      "stateMutability": "payable",
      "type": "function"
    },
    {
      "inputs": [
        {
          "internalType": "uint256",
          "name": "_projectId",
          "type": "uint256"
        },
        {
          "internalType": "address",
          "name": "to",
          "type": "address"
        },
        {
          "internalType": "uint256",
          "name": "count",
          "type": "uint256"
        }
      ],
      "name": "buyFor",
      "outputs": [
        {
          "internalType": "uint256",
          "name": "",
          "type": "uint256"
        }
      ],
      "stateMutability": "payable",
      "type": "function"
    },
    {
      "inputs": [
        {
          "internalType": "uint256",
          "name": "",
          "type": "uint256"
        }
      ],
      "name": "contractFilterProject",
      "outputs": [
        {
          "internalType": "bool",
          "name": "",
          "type": "bool"
        }
      ],
      "stateMutability": "view",
      "type": "function"
    },
    {
      "inputs": [
        {
          "internalType": "bytes32",
          "name": "role",
          "type": "bytes32"
        }
      ],
      "name": "getRoleAdmin",
      "outputs": [
        {
          "internalType": "bytes32",
          "name": "",
          "type": "bytes32"
        }
      ],
      "stateMutability": "view",
      "type": "function"
    },
    {
      "inputs": [
        {
          "internalType": "uint256",
          "name": "_projectId",
          "type": "uint256"
        }
      ],
      "name": "goLive",
      "outputs": [],
      "stateMutability": "nonpayable",
      "type": "function"
    },
    {
      "inputs": [
        {
          "internalType": "bytes32",
          "name": "role",
          "type": "bytes32"
        },
        {
          "internalType": "address",
          "name": "account",
          "type": "address"
        }
      ],
      "name": "grantRole",
      "outputs": [],
      "stateMutability": "nonpayable",
      "type": "function"
    },
    {
      "inputs": [
        {
          "internalType": "bytes32",
          "name": "role",
          "type": "bytes32"
        },
        {
          "internalType": "address",
          "name": "account",
          "type": "address"
        }
      ],
      "name": "hasRole",
      "outputs": [
        {
          "internalType": "bool",
          "name": "",
          "type": "bool"
        }
      ],
      "stateMutability": "view",
      "type": "function"
    },
    {
      "inputs": [
        {
          "internalType": "uint256",
          "name": "_projectId",
          "type": "uint256"
        }
      ],
      "name": "pause",
      "outputs": [],
      "stateMutability": "nonpayable",
      "type": "function"
    },
    {
      "inputs": [
        {
          "internalType": "uint256",
          "name": "_projectId",
          "type": "uint256"
        }
      ],
      "name": "pauseAdmin",
      "outputs": [],
      "stateMutability": "nonpayable",
      "type": "function"
    },
    {
      "inputs": [
        {
          "internalType": "uint256",
          "name": "_projectId",
          "type": "uint256"
        }
      ],
      "name": "premint",
      "outputs": [
        {
          "internalType": "uint256",
          "name": "",
          "type": "uint256"
        }
      ],
      "stateMutability": "payable",
      "type": "function"
    },
    {
      "inputs": [
        {
          "internalType": "uint256",
          "name": "",
          "type": "uint256"
        },
        {
          "internalType": "address",
          "name": "",
          "type": "address"
        }
      ],
      "name": "projectAllowList",
      "outputs": [
        {
          "internalType": "bool",
          "name": "",
          "type": "bool"
        }
      ],
      "stateMutability": "view",
      "type": "function"
    },
    {
      "inputs": [
        {
          "internalType": "uint256",
          "name": "",
          "type": "uint256"
        }
      ],
      "name": "projectAllowListAllocation",
      "outputs": [
        {
          "internalType": "uint256",
          "name": "",
          "type": "uint256"
        }
      ],
      "stateMutability": "view",
      "type": "function"
    },
    {
      "inputs": [
        {
          "internalType": "uint256",
          "name": "",
          "type": "uint256"
        }
      ],
      "name": "projectBulkMintCount",
      "outputs": [
        {
          "internalType": "uint256",
          "name": "",
          "type": "uint256"
        }
      ],
      "stateMutability": "view",
      "type": "function"
    },
    {
      "inputs": [
        {
          "internalType": "uint256",
          "name": "",
          "type": "uint256"
        }
      ],
      "name": "projectCurrencyAddress",
      "outputs": [
        {
          "internalType": "address",
          "name": "",
          "type": "address"
        }
      ],
      "stateMutability": "view",
      "type": "function"
    },
    {
      "inputs": [
        {
          "internalType": "uint256",
          "name": "",
          "type": "uint256"
        }
      ],
      "name": "projectCurrencySymbol",
      "outputs": [
        {
          "internalType": "string",
          "name": "",
          "type": "string"
        }
      ],
      "stateMutability": "view",
      "type": "function"
    },
    {
      "inputs": [
        {
          "internalType": "uint256",
          "name": "",
          "type": "uint256"
        }
      ],
      "name": "projectLive",
      "outputs": [
        {
          "internalType": "bool",
          "name": "",
          "type": "bool"
        }
      ],
      "stateMutability": "view",
      "type": "function"
    },
    {
      "inputs": [
        {
          "internalType": "address",
          "name": "",
          "type": "address"
        },
        {
          "internalType": "uint256",
          "name": "",
          "type": "uint256"
        }
      ],
      "name": "projectMintCounter",
      "outputs": [
        {
          "internalType": "uint256",
          "name": "",
          "type": "uint256"
        }
      ],
      "stateMutability": "view",
      "type": "function"
    },
    {
      "inputs": [
        {
          "internalType": "uint256",
          "name": "",
          "type": "uint256"
        }
      ],
      "name": "projectMintLimit",
      "outputs": [
        {
          "internalType": "uint256",
          "name": "",
          "type": "uint256"
        }
      ],
      "stateMutability": "view",
      "type": "function"
    },
    {
      "inputs": [
        {
          "internalType": "uint256",
          "name": "",
          "type": "uint256"
        }
      ],
      "name": "projectOwner",
      "outputs": [
        {
          "internalType": "address",
          "name": "",
          "type": "address"
        }
      ],
      "stateMutability": "view",
      "type": "function"
    },
    {
      "inputs": [
        {
          "internalType": "uint256",
          "name": "",
          "type": "uint256"
        }
      ],
      "name": "projectPause",
      "outputs": [
        {
          "internalType": "bool",
          "name": "",
          "type": "bool"
        }
      ],
      "stateMutability": "view",
      "type": "function"
    },
    {
      "inputs": [
        {
          "internalType": "uint256",
          "name": "",
          "type": "uint256"
        }
      ],
      "name": "projectPremintAllocation",
      "outputs": [
        {
          "internalType": "uint256",
          "name": "",
          "type": "uint256"
        }
      ],
      "stateMutability": "view",
      "type": "function"
    },
    {
      "inputs": [
        {
          "internalType": "uint256",
          "name": "",
          "type": "uint256"
        }
      ],
      "name": "projectPrice",
      "outputs": [
        {
          "internalType": "uint256",
          "name": "",
          "type": "uint256"
        }
      ],
      "stateMutability": "view",
      "type": "function"
    },
    {
      "inputs": [
        {
          "internalType": "uint256",
          "name": "_projectId",
          "type": "uint256"
        },
        {
          "internalType": "address",
          "name": "to",
          "type": "address"
        },
        {
          "internalType": "uint256",
          "name": "count",
          "type": "uint256"
        }
      ],
      "name": "purchaseTo",
      "outputs": [
        {
          "internalType": "uint256",
          "name": "",
          "type": "uint256"
        }
      ],
      "stateMutability": "payable",
      "type": "function"
    },
    {
      "inputs": [
        {
          "internalType": "uint256",
          "name": "_projectId",
          "type": "uint256"
        },
        {
          "internalType": "address",
          "name": "newOwner",
          "type": "address"
        },
        {
          "internalType": "bool",
          "name": "contractFilter",
          "type": "bool"
        },
        {
          "internalType": "uint256",
          "name": "_bulk",
          "type": "uint256"
        },
        {
          "internalType": "uint256",
          "name": "_limit",
          "type": "uint256"
        }
      ],
      "name": "quickInit",
      "outputs": [],
      "stateMutability": "nonpayable",
      "type": "function"
    },
    {
      "inputs": [
        {
          "internalType": "uint256",
          "name": "_projectId",
          "type": "uint256"
        },
        {
          "internalType": "string",
          "name": "_symbol",
          "type": "string"
        },
        {
          "internalType": "address",
          "name": "_contract",
          "type": "address"
        },
        {
          "internalType": "uint256",
          "name": "_price",
          "type": "uint256"
        },
        {
          "internalType": "uint256",
          "name": "_premints",
          "type": "uint256"
        },
        {
          "internalType": "uint256",
          "name": "_allowlists",
          "type": "uint256"
        }
      ],
      "name": "quickSet",
      "outputs": [],
      "stateMutability": "nonpayable",
      "type": "function"
    },
    {
      "inputs": [
        {
          "internalType": "uint256",
          "name": "_projectId",
          "type": "uint256"
        },
        {
          "internalType": "address",
          "name": "minter",
          "type": "address"
        }
      ],
      "name": "removeFromAllowlist",
      "outputs": [],
      "stateMutability": "nonpayable",
      "type": "function"
    },
    {
      "inputs": [
        {
          "internalType": "bytes32",
          "name": "role",
          "type": "bytes32"
        },
        {
          "internalType": "address",
          "name": "account",
          "type": "address"
        }
      ],
      "name": "renounceRole",
      "outputs": [],
      "stateMutability": "nonpayable",
      "type": "function"
    },
    {
      "inputs": [
        {
          "internalType": "bytes32",
          "name": "role",
          "type": "bytes32"
        },
        {
          "internalType": "address",
          "name": "account",
          "type": "address"
        }
      ],
      "name": "revokeRole",
      "outputs": [],
      "stateMutability": "nonpayable",
      "type": "function"
    },
    {
      "inputs": [
        {
          "internalType": "uint256",
          "name": "_projectId",
          "type": "uint256"
        },
        {
          "internalType": "uint256",
          "name": "spots",
          "type": "uint256"
        }
      ],
      "name": "setAllowlistSpots",
      "outputs": [],
      "stateMutability": "nonpayable",
      "type": "function"
    },
    {
      "inputs": [
        {
          "internalType": "uint256",
          "name": "_projectId",
          "type": "uint256"
        },
        {
          "internalType": "string",
          "name": "_symbol",
          "type": "string"
        },
        {
          "internalType": "address",
          "name": "_contract",
          "type": "address"
        }
      ],
      "name": "setCurrency",
      "outputs": [],
      "stateMutability": "nonpayable",
      "type": "function"
    },
    {
      "inputs": [
        {
          "internalType": "uint256",
          "name": "_projectId",
          "type": "uint256"
        }
      ],
      "name": "setCurrencyToETH",
      "outputs": [],
      "stateMutability": "nonpayable",
      "type": "function"
    },
    {
      "inputs": [
        {
          "internalType": "uint256",
          "name": "_projectId",
          "type": "uint256"
        },
        {
          "internalType": "address",
          "name": "newOwner",
          "type": "address"
        }
      ],
      "name": "setOwner",
      "outputs": [],
      "stateMutability": "nonpayable",
      "type": "function"
    },
    {
      "inputs": [
        {
          "internalType": "uint256",
          "name": "_projectId",
          "type": "uint256"
        },
        {
          "internalType": "uint256",
          "name": "premints",
          "type": "uint256"
        }
      ],
      "name": "setPremints",
      "outputs": [],
      "stateMutability": "nonpayable",
      "type": "function"
    },
    {
      "inputs": [
        {
          "internalType": "uint256",
          "name": "_projectId",
          "type": "uint256"
        },
        {
          "internalType": "uint256",
          "name": "price",
          "type": "uint256"
        }
      ],
      "name": "setPrice",
      "outputs": [],
      "stateMutability": "nonpayable",
      "type": "function"
    },
    {
      "inputs": [
        {
          "internalType": "uint256",
          "name": "_projectId",
          "type": "uint256"
        },
        {
          "internalType": "uint8",
          "name": "_count",
          "type": "uint8"
        }
      ],
      "name": "setProjectBulkMintCount",
      "outputs": [],
      "stateMutability": "nonpayable",
      "type": "function"
    },
    {
      "inputs": [
        {
          "internalType": "uint256",
          "name": "_projectId",
          "type": "uint256"
        },
        {
          "internalType": "uint8",
          "name": "_limit",
          "type": "uint8"
        }
      ],
      "name": "setProjectMintLimit",
      "outputs": [],
      "stateMutability": "nonpayable",
      "type": "function"
    },
    {
      "inputs": [
        {
          "internalType": "bytes4",
          "name": "interfaceId",
          "type": "bytes4"
        }
      ],
      "name": "supportsInterface",
      "outputs": [
        {
          "internalType": "bool",
          "name": "",
          "type": "bool"
        }
      ],
      "stateMutability": "view",
      "type": "function"
    },
    {
      "inputs": [
        {
          "internalType": "uint256",
          "name": "_projectId",
          "type": "uint256"
        }
      ],
      "name": "toggleContractFilter",
      "outputs": [],
      "stateMutability": "nonpayable",
      "type": "function"
    },
    {
      "inputs": [
        {
          "internalType": "uint256",
          "name": "_projectId",
          "type": "uint256"
        }
      ],
      "name": "unpause",
      "outputs": [],
      "stateMutability": "nonpayable",
      "type": "function"
    },
    {
      "inputs": [
        {
          "internalType": "uint256",
          "name": "_projectId",
          "type": "uint256"
        }
      ],
      "name": "unpauseAdmin",
      "outputs": [],
      "stateMutability": "nonpayable",
      "type": "function"
    }
  ],
  "bytecode": "0x60806040523480156200001157600080fd5b5060405162005f0a38038062005f0a83398181016040528101906200003791906200020e565b6200004c6000801b336200009460201b60201c565b80600160006101000a81548173ffffffffffffffffffffffffffffffffffffffff021916908373ffffffffffffffffffffffffffffffffffffffff1602179055505062000288565b620000a682826200018560201b60201c565b6200018157600160008084815260200190815260200160002060000160008373ffffffffffffffffffffffffffffffffffffffff1673ffffffffffffffffffffffffffffffffffffffff16815260200190815260200160002060006101000a81548160ff02191690831515021790555062000126620001ef60201b60201c565b73ffffffffffffffffffffffffffffffffffffffff168173ffffffffffffffffffffffffffffffffffffffff16837f2f8788117e7eff1d82e926ec794901d17c78024a50270940304540a733656f0d60405160405180910390a45b5050565b600080600084815260200190815260200160002060000160008373ffffffffffffffffffffffffffffffffffffffff1673ffffffffffffffffffffffffffffffffffffffff16815260200190815260200160002060009054906101000a900460ff16905092915050565b600033905090565b60008151905062000208816200026e565b92915050565b6000602082840312156200022157600080fd5b60006200023184828501620001f7565b91505092915050565b600062000247826200024e565b9050919050565b600073ffffffffffffffffffffffffffffffffffffffff82169050919050565b62000279816200023a565b81146200028557600080fd5b50565b615c7280620002986000396000f3fe6080604052600436106102515760003560e01c806391d1485411610139578063bd33f081116100b6578063dc3d886f1161007a578063dc3d886f1461093c578063f38ad96414610965578063f7d97577146109a2578063f9f96b9e146109cb578063fabc1cbc14610a08578063fce223b414610a3157610251565b8063bd33f08114610868578063ca2660fd14610891578063d1b5bd6a146108ba578063d547741f146108e3578063d6febde81461090c57610251565b8063a47f9092116100fd578063a47f90921461075f578063ac26e4c91461079c578063ad286a9c146107d9578063b137479d14610816578063b56561851461083f57610251565b806391d14854146106615780639c0e6e1f1461069e5780639d5aef30146106db5780639f270c221461070b578063a217fddf1461073457610251565b806336568abe116101d25780636ddd9f20116101965780636ddd9f201461053c57806370a905511461057957806376dad91a146105a25780637fd39247146105cb57806389fe08f8146105f457806391943b551461063157610251565b806336568abe146104335780633a4657b41461045c578063531b14b914610499578063569f6f92146104d657806362f7a7ed146104ff57610251565b8063248a9ca311610219578063248a9ca314610337578063287f5fb7146103745780632f2ff15d146103b1578063314398d8146103da57806335ddcfcd1461040a57610251565b806301ffc9a7146102565780630ad1d81c14610293578063128e1c5b146102bc578063136439dd146102e5578063231c22811461030e575b600080fd5b34801561026257600080fd5b5061027d6004803603810190610278919061483f565b610a6e565b60405161028a91906150a4565b60405180910390f35b34801561029f57600080fd5b506102ba60048036038101906102b59190614868565b610ae8565b005b3480156102c857600080fd5b506102e360048036038101906102de91906149bc565b610b59565b005b3480156102f157600080fd5b5061030c60048036038101906103079190614868565b610d90565b005b34801561031a57600080fd5b5061033560048036038101906103309190614b0b565b610e62565b005b34801561034357600080fd5b5061035e600480360381019061035991906147da565b610e97565b60405161036b91906150bf565b60405180910390f35b34801561038057600080fd5b5061039b60048036038101906103969190614868565b610eb6565b6040516103a89190615029565b60405180910390f35b3480156103bd57600080fd5b506103d860048036038101906103d39190614803565b610ee9565b005b6103f460048036038101906103ef919061496d565b610f12565b604051610401919061539c565b60405180910390f35b34801561041657600080fd5b50610431600480360381019061042c9190614a28565b610f28565b005b34801561043f57600080fd5b5061045a60048036038101906104559190614803565b6111aa565b005b34801561046857600080fd5b50610483600480360381019061047e9190614775565b61122d565b604051610490919061539c565b60405180910390f35b3480156104a557600080fd5b506104c060048036038101906104bb9190614868565b611252565b6040516104cd91906150da565b60405180910390f35b3480156104e257600080fd5b506104fd60048036038101906104f89190614868565b6112f2565b005b34801561050b57600080fd5b5061052660048036038101906105219190614868565b611357565b604051610533919061539c565b60405180910390f35b34801561054857600080fd5b50610563600480360381019061055e9190614868565b61136f565b604051610570919061539c565b60405180910390f35b34801561058557600080fd5b506105a0600480360381019061059b91906148ba565b611387565b005b3480156105ae57600080fd5b506105c960048036038101906105c491906148f6565b6114fa565b005b3480156105d757600080fd5b506105f260048036038101906105ed91906148ba565b611709565b005b34801561060057600080fd5b5061061b60048036038101906106169190614868565b6118ba565b6040516106289190615029565b60405180910390f35b61064b6004803603810190610646919061496d565b6118ed565b604051610658919061539c565b60405180910390f35b34801561066d57600080fd5b5061068860048036038101906106839190614803565b6120b7565b60405161069591906150a4565b60405180910390f35b3480156106aa57600080fd5b506106c560048036038101906106c09190614868565b612121565b6040516106d2919061539c565b60405180910390f35b6106f560048036038101906106f09190614868565b612139565b604051610702919061539c565b60405180910390f35b34801561071757600080fd5b50610732600480360381019061072d9190614868565b61245c565b005b34801561074057600080fd5b506107496124a1565b60405161075691906150bf565b60405180910390f35b34801561076b57600080fd5b50610786600480360381019061078191906148ba565b6124a8565b60405161079391906150a4565b60405180910390f35b3480156107a857600080fd5b506107c360048036038101906107be9190614868565b6124d7565b6040516107d091906150a4565b60405180910390f35b3480156107e557600080fd5b5061080060048036038101906107fb9190614868565b6124f7565b60405161080d919061539c565b60405180910390f35b34801561082257600080fd5b5061083d60048036038101906108389190614868565b61250f565b005b34801561084b57600080fd5b5061086660048036038101906108619190614b0b565b612554565b005b34801561087457600080fd5b5061088f600480360381019061088a9190614868565b612589565b005b34801561089d57600080fd5b506108b860048036038101906108b391906148ba565b612742565b005b3480156108c657600080fd5b506108e160048036038101906108dc9190614acf565b6128b5565b005b3480156108ef57600080fd5b5061090a60048036038101906109059190614803565b6129d7565b005b61092660048036038101906109219190614acf565b612a00565b604051610933919061539c565b60405180910390f35b34801561094857600080fd5b50610963600480360381019061095e9190614acf565b612a15565b005b34801561097157600080fd5b5061098c60048036038101906109879190614868565b612b37565b604051610999919061539c565b60405180910390f35b3480156109ae57600080fd5b506109c960048036038101906109c49190614acf565b612b4f565b005b3480156109d757600080fd5b506109f260048036038101906109ed9190614868565b612c71565b6040516109ff91906150a4565b60405180910390f35b348015610a1457600080fd5b50610a2f6004803603810190610a2a9190614868565b612c91565b005b348015610a3d57600080fd5b50610a586004803603810190610a539190614868565b612d63565b604051610a6591906150a4565b60405180910390f35b60007f7965db0b000000000000000000000000000000000000000000000000000000007bffffffffffffffffffffffffffffffffffffffffffffffffffffffff1916827bffffffffffffffffffffffffffffffffffffffffffffffffffffffff19161480610ae15750610ae082612d83565b5b9050919050565b6000801b610afd81610af8612ded565b612df5565b60016008600084815260200190815260200160002060006101000a81548160ff02191690831515021790555060016009600084815260200190815260200160002060006101000a81548160ff0219169083151502179055505050565b836002600082815260200190815260200160002060009054906101000a900473ffffffffffffffffffffffffffffffffffffffff1673ffffffffffffffffffffffffffffffffffffffff163373ffffffffffffffffffffffffffffffffffffffff1614610bfb576040517f08c379a0000000000000000000000000000000000000000000000000000000008152600401610bf2906152bc565b60405180910390fd5b846008600082815260200190815260200160002060009054906101000a900460ff1615610c5d576040517f08c379a0000000000000000000000000000000000000000000000000000000008152600401610c549061523c565b60405180910390fd5b60008585905011610ca3576040517f08c379a0000000000000000000000000000000000000000000000000000000008152600401610c9a9061535c565b60405180910390fd5b600073ffffffffffffffffffffffffffffffffffffffff168373ffffffffffffffffffffffffffffffffffffffff161415610d13576040517f08c379a0000000000000000000000000000000000000000000000000000000008152600401610d0a906151fc565b60405180910390fd5b8484600660008981526020019081526020016000209190610d359291906144de565b50826005600088815260200190815260200160002060006101000a81548173ffffffffffffffffffffffffffffffffffffffff021916908373ffffffffffffffffffffffffffffffffffffffff160217905550505050505050565b806002600082815260200190815260200160002060009054906101000a900473ffffffffffffffffffffffffffffffffffffffff1673ffffffffffffffffffffffffffffffffffffffff163373ffffffffffffffffffffffffffffffffffffffff1614610e32576040517f08c379a0000000000000000000000000000000000000000000000000000000008152600401610e29906152bc565b60405180910390fd5b60016009600084815260200190815260200160002060006101000a81548160ff0219169083151502179055505050565b6000801b610e7781610e72612ded565b612df5565b8160ff16600c600085815260200190815260200160002081905550505050565b6000806000838152602001908152602001600020600101549050919050565b60056020528060005260406000206000915054906101000a900473ffffffffffffffffffffffffffffffffffffffff1681565b610ef282610e97565b610f0381610efe612ded565b612df5565b610f0d8383612e92565b505050565b6000610f1f8484846118ed565b90509392505050565b866002600082815260200190815260200160002060009054906101000a900473ffffffffffffffffffffffffffffffffffffffff1673ffffffffffffffffffffffffffffffffffffffff163373ffffffffffffffffffffffffffffffffffffffff1614610fca576040517f08c379a0000000000000000000000000000000000000000000000000000000008152600401610fc1906152bc565b60405180910390fd5b876008600082815260200190815260200160002060009054906101000a900460ff161561102c576040517f08c379a00000000000000000000000000000000000000000000000000000000081526004016110239061523c565b60405180910390fd5b60008888905011611072576040517f08c379a00000000000000000000000000000000000000000000000000000000081526004016110699061535c565b60405180910390fd5b600073ffffffffffffffffffffffffffffffffffffffff168673ffffffffffffffffffffffffffffffffffffffff1614156110e2576040517f08c379a00000000000000000000000000000000000000000000000000000000081526004016110d9906151fc565b60405180910390fd5b8787600660008c815260200190815260200160002091906111049291906144de565b5085600560008b815260200190815260200160002060006101000a81548173ffffffffffffffffffffffffffffffffffffffff021916908373ffffffffffffffffffffffffffffffffffffffff16021790555084600460008b81526020019081526020016000208190555083600360008b81526020019081526020016000208190555082600e60008b815260200190815260200160002081905550505050505050505050565b6111b2612ded565b73ffffffffffffffffffffffffffffffffffffffff168173ffffffffffffffffffffffffffffffffffffffff161461121f576040517f08c379a00000000000000000000000000000000000000000000000000000000081526004016112169061537c565b60405180910390fd5b6112298282612f72565b5050565b600b602052816000526040600020602052806000526040600020600091509150505481565b6006602052806000526040600020600091509050805461127190615638565b80601f016020809104026020016040519081016040528092919081815260200182805461129d90615638565b80156112ea5780601f106112bf576101008083540402835291602001916112ea565b820191906000526020600020905b8154815290600101906020018083116112cd57829003601f168201915b505050505081565b6000801b61130781611302612ded565b612df5565b600a600083815260200190815260200160002060009054906101000a900460ff1615600a600084815260200190815260200160002060006101000a81548160ff0219169083151502179055505050565b600c6020528060005260406000206000915090505481565b60076020528060005260406000206000915090505481565b816002600082815260200190815260200160002060009054906101000a900473ffffffffffffffffffffffffffffffffffffffff1673ffffffffffffffffffffffffffffffffffffffff163373ffffffffffffffffffffffffffffffffffffffff1614611429576040517f08c379a0000000000000000000000000000000000000000000000000000000008152600401611420906152bc565b60405180910390fd5b826008600082815260200190815260200160002060009054906101000a900460ff161561148b576040517f08c379a00000000000000000000000000000000000000000000000000000000081526004016114829061523c565b60405180910390fd5b6001600d600086815260200190815260200160002060008573ffffffffffffffffffffffffffffffffffffffff1673ffffffffffffffffffffffffffffffffffffffff16815260200190815260200160002060006101000a81548160ff02191690831515021790555050505050565b6000801b61150f8161150a612ded565b612df5565b8473ffffffffffffffffffffffffffffffffffffffff166002600088815260200190815260200160002060009054906101000a900473ffffffffffffffffffffffffffffffffffffffff1673ffffffffffffffffffffffffffffffffffffffff1614156115b1576040517f08c379a00000000000000000000000000000000000000000000000000000000081526004016115a89061531c565b60405180910390fd5b600073ffffffffffffffffffffffffffffffffffffffff166002600088815260200190815260200160002060009054906101000a900473ffffffffffffffffffffffffffffffffffffffff1673ffffffffffffffffffffffffffffffffffffffff161415611654576040517f08c379a000000000000000000000000000000000000000000000000000000000815260040161164b9061529c565b60405180910390fd5b846002600088815260200190815260200160002060006101000a81548173ffffffffffffffffffffffffffffffffffffffff021916908373ffffffffffffffffffffffffffffffffffffffff16021790555083600a600088815260200190815260200160002060006101000a81548160ff02191690831515021790555082600760008881526020019081526020016000208190555081600c600088815260200190815260200160002081905550505050505050565b6000801b61171e81611719612ded565b612df5565b8173ffffffffffffffffffffffffffffffffffffffff166002600085815260200190815260200160002060009054906101000a900473ffffffffffffffffffffffffffffffffffffffff1673ffffffffffffffffffffffffffffffffffffffff1614156117c0576040517f08c379a00000000000000000000000000000000000000000000000000000000081526004016117b79061531c565b60405180910390fd5b600073ffffffffffffffffffffffffffffffffffffffff166002600085815260200190815260200160002060009054906101000a900473ffffffffffffffffffffffffffffffffffffffff1673ffffffffffffffffffffffffffffffffffffffff161415611863576040517f08c379a000000000000000000000000000000000000000000000000000000000815260040161185a9061529c565b60405180910390fd5b816002600085815260200190815260200160002060006101000a81548173ffffffffffffffffffffffffffffffffffffffff021916908373ffffffffffffffffffffffffffffffffffffffff160217905550505050565b60026020528060005260406000206000915054906101000a900473ffffffffffffffffffffffffffffffffffffffff1681565b60006008600085815260200190815260200160002060009054906101000a900460ff1661194f576040517f08c379a0000000000000000000000000000000000000000000000000000000008152600401611946906151bc565b60405180910390fd5b6009600085815260200190815260200160002060009054906101000a900460ff16156119b0576040517f08c379a00000000000000000000000000000000000000000000000000000000081526004016119a79061517c565b60405180910390fd5b6000600160009054906101000a900473ffffffffffffffffffffffffffffffffffffffff1673ffffffffffffffffffffffffffffffffffffffff16634ca3e9b8866040518263ffffffff1660e01b8152600401611a0d919061539c565b60206040518083038186803b158015611a2557600080fd5b505afa158015611a39573d6000803e3d6000fd5b505050506040513d601f19601f82011682018060405250810190611a5d9190614723565b905060036000868152602001908152602001600020548173ffffffffffffffffffffffffffffffffffffffff166318160ddd6040518163ffffffff1660e01b815260040160206040518083038186803b158015611ab957600080fd5b505afa158015611acd573d6000803e3d6000fd5b505050506040513d601f19601f82011682018060405250810190611af19190614891565b11611b31576040517f08c379a0000000000000000000000000000000000000000000000000000000008152600401611b28906152fc565b60405180910390fd5b6007600086815260200190815260200160002054831115611b87576040517f08c379a0000000000000000000000000000000000000000000000000000000008152600401611b7e9061515c565b60405180910390fd5b600a600086815260200190815260200160002060009054906101000a900460ff1615611c1c573273ffffffffffffffffffffffffffffffffffffffff163373ffffffffffffffffffffffffffffffffffffffff1614611c1b576040517f08c379a0000000000000000000000000000000000000000000000000000000008152600401611c12906152dc565b60405180910390fd5b5b6000600c6000878152602001908152602001600020541115611d4457600c600086815260200190815260200160002054600b60003373ffffffffffffffffffffffffffffffffffffffff1673ffffffffffffffffffffffffffffffffffffffff16815260200190815260200160002060008781526020019081526020016000205410611cdd576040517f08c379a0000000000000000000000000000000000000000000000000000000008152600401611cd49061513c565b60405180910390fd5b600b60003373ffffffffffffffffffffffffffffffffffffffff1673ffffffffffffffffffffffffffffffffffffffff16815260200190815260200160002060008681526020019081526020016000206000815480929190611d3e9061566a565b91905055505b6000600e600087815260200190815260200160002054118015611e1457506003600086815260200190815260200160002054600e600087815260200190815260200160002054611d9491906153f3565b8173ffffffffffffffffffffffffffffffffffffffff166318160ddd6040518163ffffffff1660e01b815260040160206040518083038186803b158015611dda57600080fd5b505afa158015611dee573d6000803e3d6000fd5b505050506040513d601f19601f82011682018060405250810190611e129190614891565b105b15611eb757600d600086815260200190815260200160002060003373ffffffffffffffffffffffffffffffffffffffff1673ffffffffffffffffffffffffffffffffffffffff16815260200190815260200160002060009054906101000a900460ff16611eb6576040517f08c379a0000000000000000000000000000000000000000000000000000000008152600401611ead906151dc565b60405180910390fd5b5b611ec18584613053565b60008173ffffffffffffffffffffffffffffffffffffffff1663284855866040518163ffffffff1660e01b815260040160206040518083038186803b158015611f0957600080fd5b505afa158015611f1d573d6000803e3d6000fd5b505050506040513d601f19601f82011682018060405250810190611f419190614891565b8273ffffffffffffffffffffffffffffffffffffffff166318160ddd6040518163ffffffff1660e01b815260040160206040518083038186803b158015611f8757600080fd5b505afa158015611f9b573d6000803e3d6000fd5b505050506040513d601f19601f82011682018060405250810190611fbf9190614891565b10611fff576040517f08c379a0000000000000000000000000000000000000000000000000000000008152600401611ff69061533c565b60405180910390fd5b60005b848110156120aa578273ffffffffffffffffffffffffffffffffffffffff16636a627842876040518263ffffffff1660e01b81526004016120439190615029565b602060405180830381600087803b15801561205d57600080fd5b505af1158015612071573d6000803e3d6000fd5b505050506040513d601f19601f820116820180604052508101906120959190614891565b915080806120a29061566a565b915050612002565b5080925050509392505050565b600080600084815260200190815260200160002060000160008373ffffffffffffffffffffffffffffffffffffffff1673ffffffffffffffffffffffffffffffffffffffff16815260200190815260200160002060009054906101000a900460ff16905092915050565b60036020528060005260406000206000915090505481565b60006008600083815260200190815260200160002060009054906101000a900460ff1661219b576040517f08c379a0000000000000000000000000000000000000000000000000000000008152600401612192906151bc565b60405180910390fd5b6002600083815260200190815260200160002060009054906101000a900473ffffffffffffffffffffffffffffffffffffffff1673ffffffffffffffffffffffffffffffffffffffff163373ffffffffffffffffffffffffffffffffffffffff161461223c576040517f08c379a0000000000000000000000000000000000000000000000000000000008152600401612233906152bc565b60405180910390fd5b6000600160009054906101000a900473ffffffffffffffffffffffffffffffffffffffff1673ffffffffffffffffffffffffffffffffffffffff16634ca3e9b8846040518263ffffffff1660e01b8152600401612299919061539c565b60206040518083038186803b1580156122b157600080fd5b505afa1580156122c5573d6000803e3d6000fd5b505050506040513d601f19601f820116820180604052508101906122e99190614723565b905060036000848152602001908152602001600020548173ffffffffffffffffffffffffffffffffffffffff166318160ddd6040518163ffffffff1660e01b815260040160206040518083038186803b15801561234557600080fd5b505afa158015612359573d6000803e3d6000fd5b505050506040513d601f19601f8201168201806040525081019061237d9190614891565b106123bd576040517f08c379a00000000000000000000000000000000000000000000000000000000081526004016123b49061521c565b60405180910390fd5b600033905060008273ffffffffffffffffffffffffffffffffffffffff16636a627842836040518263ffffffff1660e01b81526004016123fd9190615029565b602060405180830381600087803b15801561241757600080fd5b505af115801561242b573d6000803e3d6000fd5b505050506040513d601f19601f8201168201806040525081019061244f9190614891565b9050809350505050919050565b6000801b6124718161246c612ded565b612df5565b60006009600084815260200190815260200160002060006101000a81548160ff0219169083151502179055505050565b6000801b81565b600d6020528160005260406000206020528060005260406000206000915091509054906101000a900460ff1681565b60086020528060005260406000206000915054906101000a900460ff1681565b60046020528060005260406000206000915090505481565b6000801b6125248161251f612ded565b612df5565b60016009600084815260200190815260200160002060006101000a81548160ff0219169083151502179055505050565b6000801b61256981612564612ded565b612df5565b8160ff166007600085815260200190815260200160002081905550505050565b806002600082815260200190815260200160002060009054906101000a900473ffffffffffffffffffffffffffffffffffffffff1673ffffffffffffffffffffffffffffffffffffffff163373ffffffffffffffffffffffffffffffffffffffff161461262b576040517f08c379a0000000000000000000000000000000000000000000000000000000008152600401612622906152bc565b60405180910390fd5b816008600082815260200190815260200160002060009054906101000a900460ff161561268d576040517f08c379a00000000000000000000000000000000000000000000000000000000081526004016126849061523c565b60405180910390fd5b6040518060400160405280600381526020017f45544800000000000000000000000000000000000000000000000000000000008152506006600085815260200190815260200160002090805190602001906126e9929190614564565b5060006005600085815260200190815260200160002060006101000a81548173ffffffffffffffffffffffffffffffffffffffff021916908373ffffffffffffffffffffffffffffffffffffffff160217905550505050565b816002600082815260200190815260200160002060009054906101000a900473ffffffffffffffffffffffffffffffffffffffff1673ffffffffffffffffffffffffffffffffffffffff163373ffffffffffffffffffffffffffffffffffffffff16146127e4576040517f08c379a00000000000000000000000000000000000000000000000000000000081526004016127db906152bc565b60405180910390fd5b826008600082815260200190815260200160002060009054906101000a900460ff1615612846576040517f08c379a000000000000000000000000000000000000000000000000000000000815260040161283d9061523c565b60405180910390fd5b6000600d600086815260200190815260200160002060008573ffffffffffffffffffffffffffffffffffffffff1673ffffffffffffffffffffffffffffffffffffffff16815260200190815260200160002060006101000a81548160ff02191690831515021790555050505050565b816002600082815260200190815260200160002060009054906101000a900473ffffffffffffffffffffffffffffffffffffffff1673ffffffffffffffffffffffffffffffffffffffff163373ffffffffffffffffffffffffffffffffffffffff1614612957576040517f08c379a000000000000000000000000000000000000000000000000000000000815260040161294e906152bc565b60405180910390fd5b826008600082815260200190815260200160002060009054906101000a900460ff16156129b9576040517f08c379a00000000000000000000000000000000000000000000000000000000081526004016129b09061523c565b60405180910390fd5b82600e60008681526020019081526020016000208190555050505050565b6129e082610e97565b6129f1816129ec612ded565b612df5565b6129fb8383612f72565b505050565b6000612a0d8333846118ed565b905092915050565b816002600082815260200190815260200160002060009054906101000a900473ffffffffffffffffffffffffffffffffffffffff1673ffffffffffffffffffffffffffffffffffffffff163373ffffffffffffffffffffffffffffffffffffffff1614612ab7576040517f08c379a0000000000000000000000000000000000000000000000000000000008152600401612aae906152bc565b60405180910390fd5b826008600082815260200190815260200160002060009054906101000a900460ff1615612b19576040517f08c379a0000000000000000000000000000000000000000000000000000000008152600401612b109061523c565b60405180910390fd5b82600360008681526020019081526020016000208190555050505050565b600e6020528060005260406000206000915090505481565b816002600082815260200190815260200160002060009054906101000a900473ffffffffffffffffffffffffffffffffffffffff1673ffffffffffffffffffffffffffffffffffffffff163373ffffffffffffffffffffffffffffffffffffffff1614612bf1576040517f08c379a0000000000000000000000000000000000000000000000000000000008152600401612be8906152bc565b60405180910390fd5b826008600082815260200190815260200160002060009054906101000a900460ff1615612c53576040517f08c379a0000000000000000000000000000000000000000000000000000000008152600401612c4a9061523c565b60405180910390fd5b82600460008681526020019081526020016000208190555050505050565b600a6020528060005260406000206000915054906101000a900460ff1681565b806002600082815260200190815260200160002060009054906101000a900473ffffffffffffffffffffffffffffffffffffffff1673ffffffffffffffffffffffffffffffffffffffff163373ffffffffffffffffffffffffffffffffffffffff1614612d33576040517f08c379a0000000000000000000000000000000000000000000000000000000008152600401612d2a906152bc565b60405180910390fd5b60006009600084815260200190815260200160002060006101000a81548160ff0219169083151502179055505050565b60096020528060005260406000206000915054906101000a900460ff1681565b60007f01ffc9a7000000000000000000000000000000000000000000000000000000007bffffffffffffffffffffffffffffffffffffffffffffffffffffffff1916827bffffffffffffffffffffffffffffffffffffffffffffffffffffffff1916149050919050565b600033905090565b612dff82826120b7565b612e8e57612e248173ffffffffffffffffffffffffffffffffffffffff166014613383565b612e328360001c6020613383565b604051602001612e43929190614fef565b6040516020818303038152906040526040517f08c379a0000000000000000000000000000000000000000000000000000000008152600401612e8591906150da565b60405180910390fd5b5050565b612e9c82826120b7565b612f6e57600160008084815260200190815260200160002060000160008373ffffffffffffffffffffffffffffffffffffffff1673ffffffffffffffffffffffffffffffffffffffff16815260200190815260200160002060006101000a81548160ff021916908315150217905550612f13612ded565b73ffffffffffffffffffffffffffffffffffffffff168173ffffffffffffffffffffffffffffffffffffffff16837f2f8788117e7eff1d82e926ec794901d17c78024a50270940304540a733656f0d60405160405180910390a45b5050565b612f7c82826120b7565b1561304f57600080600084815260200190815260200160002060000160008373ffffffffffffffffffffffffffffffffffffffff1673ffffffffffffffffffffffffffffffffffffffff16815260200190815260200160002060006101000a81548160ff021916908315150217905550612ff4612ded565b73ffffffffffffffffffffffffffffffffffffffff168173ffffffffffffffffffffffffffffffffffffffff16837ff6391f5c32d9c69d2a47ea670b442974b53935d1edc7fd64eb21e047a839171b60405160405180910390a45b5050565b600061307b82600460008681526020019081526020016000205461367d90919063ffffffff16565b905060405160200161308c90614fda565b60405160208183030381529060405280519060200120600660008581526020019081526020016000206040516020016130c59190614fc3565b60405160208183030381529060405280519060200120146133305760003414613123576040517f08c379a000000000000000000000000000000000000000000000000000000000815260040161311a9061527c565b60405180910390fd5b806005600085815260200190815260200160002060009054906101000a900473ffffffffffffffffffffffffffffffffffffffff1673ffffffffffffffffffffffffffffffffffffffff1663dd62ed3e33306040518363ffffffff1660e01b8152600401613192929190615044565b60206040518083038186803b1580156131aa57600080fd5b505afa1580156131be573d6000803e3d6000fd5b505050506040513d601f19601f820116820180604052508101906131e29190614891565b1015613223576040517f08c379a000000000000000000000000000000000000000000000000000000000815260040161321a9061525c565b60405180910390fd5b806005600085815260200190815260200160002060009054906101000a900473ffffffffffffffffffffffffffffffffffffffff1673ffffffffffffffffffffffffffffffffffffffff166370a08231336040518263ffffffff1660e01b81526004016132909190615029565b60206040518083038186803b1580156132a857600080fd5b505afa1580156132bc573d6000803e3d6000fd5b505050506040513d601f19601f820116820180604052508101906132e09190614891565b1015613321576040517f08c379a00000000000000000000000000000000000000000000000000000000081526004016133189061519c565b60405180910390fd5b61332b8383613693565b61337e565b80341015613373576040517f08c379a000000000000000000000000000000000000000000000000000000000815260040161336a9061511c565b60405180910390fd5b61337d8383613e23565b5b505050565b606060006002836002613396919061547a565b6133a091906153f3565b67ffffffffffffffff8111156133df577f4e487b7100000000000000000000000000000000000000000000000000000000600052604160045260246000fd5b6040519080825280601f01601f1916602001820160405280156134115781602001600182028036833780820191505090505b5090507f30000000000000000000000000000000000000000000000000000000000000008160008151811061346f577f4e487b7100000000000000000000000000000000000000000000000000000000600052603260045260246000fd5b60200101907effffffffffffffffffffffffffffffffffffffffffffffffffffffffffffff1916908160001a9053507f7800000000000000000000000000000000000000000000000000000000000000816001815181106134f9577f4e487b7100000000000000000000000000000000000000000000000000000000600052603260045260246000fd5b60200101907effffffffffffffffffffffffffffffffffffffffffffffffffffffffffffff1916908160001a90535060006001846002613539919061547a565b61354391906153f3565b90505b600181111561362f577f3031323334353637383961626364656600000000000000000000000000000000600f8616601081106135ab577f4e487b7100000000000000000000000000000000000000000000000000000000600052603260045260246000fd5b1a60f81b8282815181106135e8577f4e487b7100000000000000000000000000000000000000000000000000000000600052603260045260246000fd5b60200101907effffffffffffffffffffffffffffffffffffffffffffffffffffffffffffff1916908160001a905350600485901c9450806136289061560e565b9050613546565b5060008414613673576040517f08c379a000000000000000000000000000000000000000000000000000000000815260040161366a906150fc565b60405180910390fd5b8091505092915050565b6000818361368b919061547a565b905092915050565b60006004600084815260200190815260200160002054905060006136c0838361367d90919063ffffffff16565b9050600061378b600160009054906101000a900473ffffffffffffffffffffffffffffffffffffffff1673ffffffffffffffffffffffffffffffffffffffff16631f7418976040518163ffffffff1660e01b8152600401602060405180830381600087803b15801561373157600080fd5b505af1158015613745573d6000803e3d6000fd5b505050506040513d601f19601f820116820180604052508101906137699190614891565b61377d6064856144b290919063ffffffff16565b61367d90919063ffffffff16565b905060008111156138fb576005600086815260200190815260200160002060009054906101000a900473ffffffffffffffffffffffffffffffffffffffff1673ffffffffffffffffffffffffffffffffffffffff166323b872dd33600160009054906101000a900473ffffffffffffffffffffffffffffffffffffffff1673ffffffffffffffffffffffffffffffffffffffff16637dafc0d36040518163ffffffff1660e01b8152600401602060405180830381600087803b15801561385057600080fd5b505af1158015613864573d6000803e3d6000fd5b505050506040513d601f19601f82011682018060405250810190613888919061474c565b846040518463ffffffff1660e01b81526004016138a79392919061506d565b602060405180830381600087803b1580156138c157600080fd5b505af11580156138d5573d6000803e3d6000fd5b505050506040513d601f19601f820116820180604052508101906138f991906147b1565b505b6000600160009054906101000a900473ffffffffffffffffffffffffffffffffffffffff1673ffffffffffffffffffffffffffffffffffffffff16634ca3e9b8876040518263ffffffff1660e01b8152600401613958919061539c565b60206040518083038186803b15801561397057600080fd5b505afa158015613984573d6000803e3d6000fd5b505050506040513d601f19601f820116820180604052508101906139a89190614723565b90508073ffffffffffffffffffffffffffffffffffffffff16638cbe8d806040518163ffffffff1660e01b815260040160206040518083038186803b1580156139f057600080fd5b505afa158015613a04573d6000803e3d6000fd5b505050506040513d601f19601f82011682018060405250810190613a28919061474c565b506000613a3e83856144c890919063ffffffff16565b90506000808373ffffffffffffffffffffffffffffffffffffffff16632cc889746040518163ffffffff1660e01b815260040160206040518083038186803b158015613a8957600080fd5b505afa158015613a9d573d6000803e3d6000fd5b505050506040513d601f19601f82011682018060405250810190613ac19190614891565b1115613cb757613b6a8373ffffffffffffffffffffffffffffffffffffffff16632cc889746040518163ffffffff1660e01b815260040160206040518083038186803b158015613b1057600080fd5b505afa158015613b24573d6000803e3d6000fd5b505050506040513d601f19601f82011682018060405250810190613b489190614891565b613b5c6064856144b290919063ffffffff16565b61367d90919063ffffffff16565b90506000811115613cb6576005600089815260200190815260200160002060009054906101000a900473ffffffffffffffffffffffffffffffffffffffff1673ffffffffffffffffffffffffffffffffffffffff166323b872dd338573ffffffffffffffffffffffffffffffffffffffff16636ff314c76040518163ffffffff1660e01b815260040160206040518083038186803b158015613c0b57600080fd5b505afa158015613c1f573d6000803e3d6000fd5b505050506040513d601f19601f82011682018060405250810190613c43919061474c565b846040518463ffffffff1660e01b8152600401613c629392919061506d565b602060405180830381600087803b158015613c7c57600080fd5b505af1158015613c90573d6000803e3d6000fd5b505050506040513d601f19601f82011682018060405250810190613cb491906147b1565b505b5b6000613ccc82846144c890919063ffffffff16565b90506000811115613e1857600560008a815260200190815260200160002060009054906101000a900473ffffffffffffffffffffffffffffffffffffffff1673ffffffffffffffffffffffffffffffffffffffff166323b872dd338673ffffffffffffffffffffffffffffffffffffffff16638cbe8d806040518163ffffffff1660e01b815260040160206040518083038186803b158015613d6d57600080fd5b505afa158015613d81573d6000803e3d6000fd5b505050506040513d601f19601f82011682018060405250810190613da5919061474c565b846040518463ffffffff1660e01b8152600401613dc49392919061506d565b602060405180830381600087803b158015613dde57600080fd5b505af1158015613df2573d6000803e3d6000fd5b505050506040513d601f19601f82011682018060405250810190613e1691906147b1565b505b505050505050505050565b60003411156144ae576000600460008481526020019081526020016000205490506000613e59838361367d90919063ffffffff16565b90506000613e7082346144c890919063ffffffff16565b90506000811115613ec3573373ffffffffffffffffffffffffffffffffffffffff166108fc829081150290604051600060405180830381858888f19350505050158015613ec1573d6000803e3d6000fd5b505b6000613f8c600160009054906101000a900473ffffffffffffffffffffffffffffffffffffffff1673ffffffffffffffffffffffffffffffffffffffff16631f7418976040518163ffffffff1660e01b8152600401602060405180830381600087803b158015613f3257600080fd5b505af1158015613f46573d6000803e3d6000fd5b505050506040513d601f19601f82011682018060405250810190613f6a9190614891565b613f7e6064866144b290919063ffffffff16565b61367d90919063ffffffff16565b9050600081111561408057600160009054906101000a900473ffffffffffffffffffffffffffffffffffffffff1673ffffffffffffffffffffffffffffffffffffffff16637dafc0d36040518163ffffffff1660e01b8152600401602060405180830381600087803b15801561400157600080fd5b505af1158015614015573d6000803e3d6000fd5b505050506040513d601f19601f82011682018060405250810190614039919061474c565b73ffffffffffffffffffffffffffffffffffffffff166108fc829081150290604051600060405180830381858888f1935050505015801561407e573d6000803e3d6000fd5b505b6000600160009054906101000a900473ffffffffffffffffffffffffffffffffffffffff1673ffffffffffffffffffffffffffffffffffffffff16634ca3e9b8886040518263ffffffff1660e01b81526004016140dd919061539c565b60206040518083038186803b1580156140f557600080fd5b505afa158015614109573d6000803e3d6000fd5b505050506040513d601f19601f8201168201806040525081019061412d9190614723565b90508073ffffffffffffffffffffffffffffffffffffffff16638cbe8d806040518163ffffffff1660e01b815260040160206040518083038186803b15801561417557600080fd5b505afa158015614189573d6000803e3d6000fd5b505050506040513d601f19601f820116820180604052508101906141ad919061474c565b5060006141c383866144c890919063ffffffff16565b90506000808373ffffffffffffffffffffffffffffffffffffffff16632cc889746040518163ffffffff1660e01b815260040160206040518083038186803b15801561420e57600080fd5b505afa158015614222573d6000803e3d6000fd5b505050506040513d601f19601f820116820180604052508101906142469190614891565b11156143c0576142ef8373ffffffffffffffffffffffffffffffffffffffff16632cc889746040518163ffffffff1660e01b815260040160206040518083038186803b15801561429557600080fd5b505afa1580156142a9573d6000803e3d6000fd5b505050506040513d601f19601f820116820180604052508101906142cd9190614891565b6142e16064856144b290919063ffffffff16565b61367d90919063ffffffff16565b905060008111156143bf578273ffffffffffffffffffffffffffffffffffffffff16636ff314c76040518163ffffffff1660e01b815260040160206040518083038186803b15801561434057600080fd5b505afa158015614354573d6000803e3d6000fd5b505050506040513d601f19601f82011682018060405250810190614378919061474c565b73ffffffffffffffffffffffffffffffffffffffff166108fc829081150290604051600060405180830381858888f193505050501580156143bd573d6000803e3d6000fd5b505b5b60006143d582846144c890919063ffffffff16565b905060008111156144a5578373ffffffffffffffffffffffffffffffffffffffff16638cbe8d806040518163ffffffff1660e01b815260040160206040518083038186803b15801561442657600080fd5b505afa15801561443a573d6000803e3d6000fd5b505050506040513d601f19601f8201168201806040525081019061445e919061474c565b73ffffffffffffffffffffffffffffffffffffffff166108fc829081150290604051600060405180830381858888f193505050501580156144a3573d6000803e3d6000fd5b505b50505050505050505b5050565b600081836144c09190615449565b905092915050565b600081836144d691906154d4565b905092915050565b8280546144ea90615638565b90600052602060002090601f01602090048101928261450c5760008555614553565b82601f1061452557803560ff1916838001178555614553565b82800160010185558215614553579182015b82811115614552578235825591602001919060010190614537565b5b50905061456091906145ea565b5090565b82805461457090615638565b90600052602060002090601f01602090048101928261459257600085556145d9565b82601f106145ab57805160ff19168380011785556145d9565b828001600101855582156145d9579182015b828111156145d85782518255916020019190600101906145bd565b5b5090506145e691906145ea565b5090565b5b808211156146035760008160009055506001016145eb565b5090565b60008135905061461681615b9b565b92915050565b60008151905061462b81615b9b565b92915050565b60008151905061464081615bb2565b92915050565b60008135905061465581615bc9565b92915050565b60008151905061466a81615bc9565b92915050565b60008135905061467f81615be0565b92915050565b60008135905061469481615bf7565b92915050565b60008083601f8401126146ac57600080fd5b8235905067ffffffffffffffff8111156146c557600080fd5b6020830191508360018202830111156146dd57600080fd5b9250929050565b6000813590506146f381615c0e565b92915050565b60008151905061470881615c0e565b92915050565b60008135905061471d81615c25565b92915050565b60006020828403121561473557600080fd5b60006147438482850161461c565b91505092915050565b60006020828403121561475e57600080fd5b600061476c84828501614631565b91505092915050565b6000806040838503121561478857600080fd5b600061479685828601614607565b92505060206147a7858286016146e4565b9150509250929050565b6000602082840312156147c357600080fd5b60006147d18482850161465b565b91505092915050565b6000602082840312156147ec57600080fd5b60006147fa84828501614670565b91505092915050565b6000806040838503121561481657600080fd5b600061482485828601614670565b925050602061483585828601614607565b9150509250929050565b60006020828403121561485157600080fd5b600061485f84828501614685565b91505092915050565b60006020828403121561487a57600080fd5b6000614888848285016146e4565b91505092915050565b6000602082840312156148a357600080fd5b60006148b1848285016146f9565b91505092915050565b600080604083850312156148cd57600080fd5b60006148db858286016146e4565b92505060206148ec85828601614607565b9150509250929050565b600080600080600060a0868803121561490e57600080fd5b600061491c888289016146e4565b955050602061492d88828901614607565b945050604061493e88828901614646565b935050606061494f888289016146e4565b9250506080614960888289016146e4565b9150509295509295909350565b60008060006060848603121561498257600080fd5b6000614990868287016146e4565b93505060206149a186828701614607565b92505060406149b2868287016146e4565b9150509250925092565b600080600080606085870312156149d257600080fd5b60006149e0878288016146e4565b945050602085013567ffffffffffffffff8111156149fd57600080fd5b614a098782880161469a565b93509350506040614a1c87828801614607565b91505092959194509250565b600080600080600080600060c0888a031215614a4357600080fd5b6000614a518a828b016146e4565b975050602088013567ffffffffffffffff811115614a6e57600080fd5b614a7a8a828b0161469a565b96509650506040614a8d8a828b01614607565b9450506060614a9e8a828b016146e4565b9350506080614aaf8a828b016146e4565b92505060a0614ac08a828b016146e4565b91505092959891949750929550565b60008060408385031215614ae257600080fd5b6000614af0858286016146e4565b9250506020614b01858286016146e4565b9150509250929050565b60008060408385031215614b1e57600080fd5b6000614b2c858286016146e4565b9250506020614b3d8582860161470e565b9150509250929050565b614b50816155a5565b82525050565b614b5f81615508565b82525050565b614b6e8161552c565b82525050565b614b7d81615538565b82525050565b6000614b8e826153cc565b614b9881856153d7565b9350614ba88185602086016155db565b614bb181615740565b840191505092915050565b6000614bc7826153cc565b614bd181856153e8565b9350614be18185602086016155db565b80840191505092915050565b60008154614bfa81615638565b614c0481866153e8565b94506001821660008114614c1f5760018114614c3057614c63565b60ff19831686528186019350614c63565b614c39856153b7565b60005b83811015614c5b57815481890152600182019150602081019050614c3c565b838801955050505b50505092915050565b6000614c796020836153d7565b9150614c8482615751565b602082019050919050565b6000614c9c6020836153d7565b9150614ca78261577a565b602082019050919050565b6000614cbf6015836153d7565b9150614cca826157a3565b602082019050919050565b6000614ce26015836153d7565b9150614ced826157cc565b602082019050919050565b6000614d05600e836153d7565b9150614d10826157f5565b602082019050919050565b6000614d286015836153d7565b9150614d338261581e565b602082019050919050565b6000614d4b6010836153d7565b9150614d5682615847565b602082019050919050565b6000614d6e6010836153d7565b9150614d7982615870565b602082019050919050565b6000614d91601c836153d7565b9150614d9c82615899565b602082019050919050565b6000614db4600c836153d7565b9150614dbf826158c2565b602082019050919050565b6000614dd7600c836153d7565b9150614de2826158eb565b602082019050919050565b6000614dfa6022836153d7565b9150614e0582615914565b604082019050919050565b6000614e1d603f836153d7565b9150614e2882615963565b604082019050919050565b6000614e406003836153e8565b9150614e4b826159b2565b600382019050919050565b6000614e63601b836153d7565b9150614e6e826159db565b602082019050919050565b6000614e86600a836153d7565b9150614e9182615a04565b602082019050919050565b6000614ea96010836153d7565b9150614eb482615a2d565b602082019050919050565b6000614ecc6012836153d7565b9150614ed782615a56565b602082019050919050565b6000614eef6013836153d7565b9150614efa82615a7f565b602082019050919050565b6000614f12601a836153d7565b9150614f1d82615aa8565b602082019050919050565b6000614f356017836153e8565b9150614f4082615ad1565b601782019050919050565b6000614f586017836153d7565b9150614f6382615afa565b602082019050919050565b6000614f7b6011836153e8565b9150614f8682615b23565b601182019050919050565b6000614f9e602f836153d7565b9150614fa982615b4c565b604082019050919050565b614fbd8161558e565b82525050565b6000614fcf8284614bed565b915081905092915050565b6000614fe582614e33565b9150819050919050565b6000614ffa82614f28565b91506150068285614bbc565b915061501182614f6e565b915061501d8284614bbc565b91508190509392505050565b600060208201905061503e6000830184614b56565b92915050565b60006040820190506150596000830185614b56565b6150666020830184614b56565b9392505050565b60006060820190506150826000830186614b56565b61508f6020830185614b47565b61509c6040830184614fb4565b949350505050565b60006020820190506150b96000830184614b65565b92915050565b60006020820190506150d46000830184614b74565b92915050565b600060208201905081810360008301526150f48184614b83565b905092915050565b6000602082019050818103600083015261511581614c6c565b9050919050565b6000602082019050818103600083015261513581614c8f565b9050919050565b6000602082019050818103600083015261515581614cb2565b9050919050565b6000602082019050818103600083015261517581614cd5565b9050919050565b6000602082019050818103600083015261519581614cf8565b9050919050565b600060208201905081810360008301526151b581614d1b565b9050919050565b600060208201905081810360008301526151d581614d3e565b9050919050565b600060208201905081810360008301526151f581614d61565b9050919050565b6000602082019050818103600083015261521581614d84565b9050919050565b6000602082019050818103600083015261523581614da7565b9050919050565b6000602082019050818103600083015261525581614dca565b9050919050565b6000602082019050818103600083015261527581614ded565b9050919050565b6000602082019050818103600083015261529581614e10565b9050919050565b600060208201905081810360008301526152b581614e56565b9050919050565b600060208201905081810360008301526152d581614e79565b9050919050565b600060208201905081810360008301526152f581614e9c565b9050919050565b6000602082019050818103600083015261531581614ebf565b9050919050565b6000602082019050818103600083015261533581614ee2565b9050919050565b6000602082019050818103600083015261535581614f05565b9050919050565b6000602082019050818103600083015261537581614f4b565b9050919050565b6000602082019050818103600083015261539581614f91565b9050919050565b60006020820190506153b16000830184614fb4565b92915050565b60008190508160005260206000209050919050565b600081519050919050565b600082825260208201905092915050565b600081905092915050565b60006153fe8261558e565b91506154098361558e565b9250827fffffffffffffffffffffffffffffffffffffffffffffffffffffffffffffffff0382111561543e5761543d6156b3565b5b828201905092915050565b60006154548261558e565b915061545f8361558e565b92508261546f5761546e6156e2565b5b828204905092915050565b60006154858261558e565b91506154908361558e565b9250817fffffffffffffffffffffffffffffffffffffffffffffffffffffffffffffffff04831182151516156154c9576154c86156b3565b5b828202905092915050565b60006154df8261558e565b91506154ea8361558e565b9250828210156154fd576154fc6156b3565b5b828203905092915050565b60006155138261556e565b9050919050565b60006155258261556e565b9050919050565b60008115159050919050565b6000819050919050565b60007fffffffff0000000000000000000000000000000000000000000000000000000082169050919050565b600073ffffffffffffffffffffffffffffffffffffffff82169050919050565b6000819050919050565b600060ff82169050919050565b60006155b0826155b7565b9050919050565b60006155c2826155c9565b9050919050565b60006155d48261556e565b9050919050565b60005b838110156155f95780820151818401526020810190506155de565b83811115615608576000848401525b50505050565b60006156198261558e565b9150600082141561562d5761562c6156b3565b5b600182039050919050565b6000600282049050600182168061565057607f821691505b6020821081141561566457615663615711565b5b50919050565b60006156758261558e565b91507fffffffffffffffffffffffffffffffffffffffffffffffffffffffffffffffff8214156156a8576156a76156b3565b5b600182019050919050565b7f4e487b7100000000000000000000000000000000000000000000000000000000600052601160045260246000fd5b7f4e487b7100000000000000000000000000000000000000000000000000000000600052601260045260246000fd5b7f4e487b7100000000000000000000000000000000000000000000000000000000600052602260045260246000fd5b6000601f19601f8301169050919050565b7f537472696e67733a20686578206c656e67746820696e73756666696369656e74600082015250565b7f4d7573742073656e64206d696e696d756d2076616c756520746f206d696e7421600082015250565b7f52656163686564206d696e74696e67206c696d69740000000000000000000000600082015250565b7f65786365646573206d696e74696e67206c696d69740000000000000000000000600082015250565b7f70726f6a65637420706175736564000000000000000000000000000000000000600082015250565b7f496e73756666696369656e742062616c616e63652e0000000000000000000000600082015250565b7f70726f6a656374206e6f74206c69766500000000000000000000000000000000600082015250565b7f6e6f74206f6e20616c6c6f776c69737400000000000000000000000000000000600082015250565b7f637572656e637920616464726573732063616e74206265207a65726f00000000600082015250565b7f6d6178207072656d696e74730000000000000000000000000000000000000000600082015250565b7f616c7265616479206c6976650000000000000000000000000000000000000000600082015250565b7f496e73756666696369656e742046756e647320417070726f76656420666f722060008201527f5458000000000000000000000000000000000000000000000000000000000000602082015250565b7f746869732070726f6a6563742061636365707473206120646966666572656e7460008201527f2063757272656e637920616e642063616e6e6f74206163636570742045544800602082015250565b7f4554480000000000000000000000000000000000000000000000000000000000600082015250565b7f6f776e65722063616e2774206265207a65726f20616464726573730000000000600082015250565b7f6f6e6c79206f776e657200000000000000000000000000000000000000000000600082015250565b7f4e6f20436f6e7472616374204275797300000000000000000000000000000000600082015250565b7f7072656d696e74732072656d61696e696e670000000000000000000000000000600082015250565b7f63616e27742062652073616d65206f776e657200000000000000000000000000600082015250565b7f65786365656473207175616e746974792072656d61696e696e67000000000000600082015250565b7f416363657373436f6e74726f6c3a206163636f756e7420000000000000000000600082015250565b7f53796d626f6c206d7573742062652070726f7669646564000000000000000000600082015250565b7f206973206d697373696e6720726f6c6520000000000000000000000000000000600082015250565b7f416363657373436f6e74726f6c3a2063616e206f6e6c792072656e6f756e636560008201527f20726f6c657320666f722073656c660000000000000000000000000000000000602082015250565b615ba481615508565b8114615baf57600080fd5b50565b615bbb8161551a565b8114615bc657600080fd5b50565b615bd28161552c565b8114615bdd57600080fd5b50565b615be981615538565b8114615bf457600080fd5b50565b615c0081615542565b8114615c0b57600080fd5b50565b615c178161558e565b8114615c2257600080fd5b50565b615c2e81615598565b8114615c3957600080fd5b5056fea26469706673582212201619c4917c9b03685e07e98055a391a7920ec7c84058971f5b5d883504f505f364736f6c63430008020033",
  "linkReferences": {},
  "deployedLinkReferences": {}
}