{
  "_format": "hh-sol-artifact-1",
  "contractName": "FineShop",
  "sourceName": "contracts/FineShop.sol",
  "abi": [
    {
      "inputs": [
        {
          "internalType": "address",
          "name": "_fineCoreAddresss",
          "type": "address"
        }
      ],
      "stateMutability": "nonpayable",
      "type": "constructor"
    },
    {
      "anonymous": false,
      "inputs": [
        {
          "indexed": true,
          "internalType": "bytes32",
          "name": "role",
          "type": "bytes32"
        },
        {
          "indexed": true,
          "internalType": "bytes32",
          "name": "previousAdminRole",
          "type": "bytes32"
        },
        {
          "indexed": true,
          "internalType": "bytes32",
          "name": "newAdminRole",
          "type": "bytes32"
        }
      ],
      "name": "RoleAdminChanged",
      "type": "event"
    },
    {
      "anonymous": false,
      "inputs": [
        {
          "indexed": true,
          "internalType": "bytes32",
          "name": "role",
          "type": "bytes32"
        },
        {
          "indexed": true,
          "internalType": "address",
          "name": "account",
          "type": "address"
        },
        {
          "indexed": true,
          "internalType": "address",
          "name": "sender",
          "type": "address"
        }
      ],
      "name": "RoleGranted",
      "type": "event"
    },
    {
      "anonymous": false,
      "inputs": [
        {
          "indexed": true,
          "internalType": "bytes32",
          "name": "role",
          "type": "bytes32"
        },
        {
          "indexed": true,
          "internalType": "address",
          "name": "account",
          "type": "address"
        },
        {
          "indexed": true,
          "internalType": "address",
          "name": "sender",
          "type": "address"
        }
      ],
      "name": "RoleRevoked",
      "type": "event"
    },
    {
      "inputs": [],
      "name": "DEFAULT_ADMIN_ROLE",
      "outputs": [
        {
          "internalType": "bytes32",
          "name": "",
          "type": "bytes32"
        }
      ],
      "stateMutability": "view",
      "type": "function"
    },
    {
      "inputs": [
        {
          "internalType": "uint256",
          "name": "_projectId",
          "type": "uint256"
        },
        {
          "internalType": "address",
          "name": "minter",
          "type": "address"
        }
      ],
      "name": "addToAllowlist",
      "outputs": [],
      "stateMutability": "nonpayable",
      "type": "function"
    },
    {
      "inputs": [
        {
          "internalType": "uint256",
          "name": "_projectId",
          "type": "uint256"
        },
        {
          "internalType": "uint256",
          "name": "count",
          "type": "uint256"
        }
      ],
      "name": "buy",
      "outputs": [
        {
          "internalType": "uint256",
          "name": "",
          "type": "uint256"
        }
      ],
      "stateMutability": "payable",
      "type": "function"
    },
    {
      "inputs": [
        {
          "internalType": "uint256",
          "name": "_projectId",
          "type": "uint256"
        },
        {
          "internalType": "address",
          "name": "to",
          "type": "address"
        },
        {
          "internalType": "uint256",
          "name": "count",
          "type": "uint256"
        }
      ],
      "name": "buyFor",
      "outputs": [
        {
          "internalType": "uint256",
          "name": "",
          "type": "uint256"
        }
      ],
      "stateMutability": "payable",
      "type": "function"
    },
    {
      "inputs": [
        {
          "internalType": "uint256",
          "name": "",
          "type": "uint256"
        }
      ],
      "name": "contractFilterProject",
      "outputs": [
        {
          "internalType": "bool",
          "name": "",
          "type": "bool"
        }
      ],
      "stateMutability": "view",
      "type": "function"
    },
    {
      "inputs": [
        {
          "internalType": "bytes32",
          "name": "role",
          "type": "bytes32"
        }
      ],
      "name": "getRoleAdmin",
      "outputs": [
        {
          "internalType": "bytes32",
          "name": "",
          "type": "bytes32"
        }
      ],
      "stateMutability": "view",
      "type": "function"
    },
    {
      "inputs": [
        {
          "internalType": "uint256",
          "name": "_projectId",
          "type": "uint256"
        }
      ],
      "name": "goLive",
      "outputs": [],
      "stateMutability": "nonpayable",
      "type": "function"
    },
    {
      "inputs": [
        {
          "internalType": "bytes32",
          "name": "role",
          "type": "bytes32"
        },
        {
          "internalType": "address",
          "name": "account",
          "type": "address"
        }
      ],
      "name": "grantRole",
      "outputs": [],
      "stateMutability": "nonpayable",
      "type": "function"
    },
    {
      "inputs": [
        {
          "internalType": "bytes32",
          "name": "role",
          "type": "bytes32"
        },
        {
          "internalType": "address",
          "name": "account",
          "type": "address"
        }
      ],
      "name": "hasRole",
      "outputs": [
        {
          "internalType": "bool",
          "name": "",
          "type": "bool"
        }
      ],
      "stateMutability": "view",
      "type": "function"
    },
    {
      "inputs": [
        {
          "internalType": "uint256",
          "name": "_projectId",
          "type": "uint256"
        }
      ],
      "name": "pause",
      "outputs": [],
      "stateMutability": "nonpayable",
      "type": "function"
    },
    {
      "inputs": [
        {
          "internalType": "uint256",
          "name": "_projectId",
          "type": "uint256"
        }
      ],
      "name": "pauseAdmin",
      "outputs": [],
      "stateMutability": "nonpayable",
      "type": "function"
    },
    {
      "inputs": [
        {
          "internalType": "uint256",
          "name": "_projectId",
          "type": "uint256"
        }
      ],
      "name": "premint",
      "outputs": [
        {
          "internalType": "uint256",
          "name": "",
          "type": "uint256"
        }
      ],
      "stateMutability": "nonpayable",
      "type": "function"
    },
    {
      "inputs": [
        {
          "internalType": "uint256",
          "name": "",
          "type": "uint256"
        },
        {
          "internalType": "address",
          "name": "",
          "type": "address"
        }
      ],
      "name": "projectAllowList",
      "outputs": [
        {
          "internalType": "bool",
          "name": "",
          "type": "bool"
        }
      ],
      "stateMutability": "view",
      "type": "function"
    },
    {
      "inputs": [
        {
          "internalType": "uint256",
          "name": "",
          "type": "uint256"
        }
      ],
      "name": "projectAllowListAllocation",
      "outputs": [
        {
          "internalType": "uint256",
          "name": "",
          "type": "uint256"
        }
      ],
      "stateMutability": "view",
      "type": "function"
    },
    {
      "inputs": [
        {
          "internalType": "uint256",
          "name": "",
          "type": "uint256"
        }
      ],
      "name": "projectBulkMintCount",
      "outputs": [
        {
          "internalType": "uint256",
          "name": "",
          "type": "uint256"
        }
      ],
      "stateMutability": "view",
      "type": "function"
    },
    {
      "inputs": [
        {
          "internalType": "uint256",
          "name": "",
          "type": "uint256"
        }
      ],
      "name": "projectCurrencyAddress",
      "outputs": [
        {
          "internalType": "address",
          "name": "",
          "type": "address"
        }
      ],
      "stateMutability": "view",
      "type": "function"
    },
    {
      "inputs": [
        {
          "internalType": "uint256",
          "name": "",
          "type": "uint256"
        }
      ],
      "name": "projectCurrencySymbol",
      "outputs": [
        {
          "internalType": "string",
          "name": "",
          "type": "string"
        }
      ],
      "stateMutability": "view",
      "type": "function"
    },
    {
      "inputs": [
        {
          "internalType": "uint256",
          "name": "",
          "type": "uint256"
        }
      ],
      "name": "projectLive",
      "outputs": [
        {
          "internalType": "bool",
          "name": "",
          "type": "bool"
        }
      ],
      "stateMutability": "view",
      "type": "function"
    },
    {
      "inputs": [
        {
          "internalType": "address",
          "name": "",
          "type": "address"
        },
        {
          "internalType": "uint256",
          "name": "",
          "type": "uint256"
        }
      ],
      "name": "projectMintCounter",
      "outputs": [
        {
          "internalType": "uint256",
          "name": "",
          "type": "uint256"
        }
      ],
      "stateMutability": "view",
      "type": "function"
    },
    {
      "inputs": [
        {
          "internalType": "uint256",
          "name": "",
          "type": "uint256"
        }
      ],
      "name": "projectMintLimit",
      "outputs": [
        {
          "internalType": "uint256",
          "name": "",
          "type": "uint256"
        }
      ],
      "stateMutability": "view",
      "type": "function"
    },
    {
      "inputs": [
        {
          "internalType": "uint256",
          "name": "",
          "type": "uint256"
        }
      ],
      "name": "projectOwner",
      "outputs": [
        {
          "internalType": "address",
          "name": "",
          "type": "address"
        }
      ],
      "stateMutability": "view",
      "type": "function"
    },
    {
      "inputs": [
        {
          "internalType": "uint256",
          "name": "",
          "type": "uint256"
        }
      ],
      "name": "projectPause",
      "outputs": [
        {
          "internalType": "bool",
          "name": "",
          "type": "bool"
        }
      ],
      "stateMutability": "view",
      "type": "function"
    },
    {
      "inputs": [
        {
          "internalType": "uint256",
          "name": "",
          "type": "uint256"
        }
      ],
      "name": "projectPremintAllocation",
      "outputs": [
        {
          "internalType": "uint256",
          "name": "",
          "type": "uint256"
        }
      ],
      "stateMutability": "view",
      "type": "function"
    },
    {
      "inputs": [
        {
          "internalType": "uint256",
          "name": "",
          "type": "uint256"
        }
      ],
      "name": "projectPrice",
      "outputs": [
        {
          "internalType": "uint256",
          "name": "",
          "type": "uint256"
        }
      ],
      "stateMutability": "view",
      "type": "function"
    },
    {
      "inputs": [
        {
          "internalType": "uint256",
          "name": "",
          "type": "uint256"
        }
      ],
      "name": "projectReadyForLive",
      "outputs": [
        {
          "internalType": "bool",
          "name": "",
          "type": "bool"
        }
      ],
      "stateMutability": "view",
      "type": "function"
    },
    {
      "inputs": [
        {
          "internalType": "uint256",
          "name": "_projectId",
          "type": "uint256"
        },
        {
          "internalType": "address",
          "name": "to",
          "type": "address"
        },
        {
          "internalType": "uint256",
          "name": "count",
          "type": "uint256"
        }
      ],
      "name": "purchaseTo",
      "outputs": [
        {
          "internalType": "uint256",
          "name": "",
          "type": "uint256"
        }
      ],
      "stateMutability": "payable",
      "type": "function"
    },
    {
      "inputs": [
        {
          "internalType": "uint256",
          "name": "_projectId",
          "type": "uint256"
        },
        {
          "internalType": "address",
          "name": "newOwner",
          "type": "address"
        },
        {
          "internalType": "bool",
          "name": "contractFilter",
          "type": "bool"
        },
        {
          "internalType": "uint256",
          "name": "_bulk",
          "type": "uint256"
        },
        {
          "internalType": "uint256",
          "name": "_limit",
          "type": "uint256"
        }
      ],
      "name": "quickInit",
      "outputs": [],
      "stateMutability": "nonpayable",
      "type": "function"
    },
    {
      "inputs": [
        {
          "internalType": "uint256",
          "name": "_projectId",
          "type": "uint256"
        },
        {
          "internalType": "string",
          "name": "_symbol",
          "type": "string"
        },
        {
          "internalType": "address",
          "name": "_contract",
          "type": "address"
        },
        {
          "internalType": "uint256",
          "name": "_price",
          "type": "uint256"
        },
        {
          "internalType": "uint256",
          "name": "_premints",
          "type": "uint256"
        },
        {
          "internalType": "uint256",
          "name": "_allowlists",
          "type": "uint256"
        }
      ],
      "name": "quickSet",
      "outputs": [],
      "stateMutability": "nonpayable",
      "type": "function"
    },
    {
      "inputs": [
        {
          "internalType": "uint256",
          "name": "_projectId",
          "type": "uint256"
        },
        {
          "internalType": "address",
          "name": "minter",
          "type": "address"
        }
      ],
      "name": "removeFromAllowlist",
      "outputs": [],
      "stateMutability": "nonpayable",
      "type": "function"
    },
    {
      "inputs": [
        {
          "internalType": "bytes32",
          "name": "role",
          "type": "bytes32"
        },
        {
          "internalType": "address",
          "name": "account",
          "type": "address"
        }
      ],
      "name": "renounceRole",
      "outputs": [],
      "stateMutability": "nonpayable",
      "type": "function"
    },
    {
      "inputs": [
        {
          "internalType": "bytes32",
          "name": "role",
          "type": "bytes32"
        },
        {
          "internalType": "address",
          "name": "account",
          "type": "address"
        }
      ],
      "name": "revokeRole",
      "outputs": [],
      "stateMutability": "nonpayable",
      "type": "function"
    },
    {
      "inputs": [
        {
          "internalType": "uint256",
          "name": "_projectId",
          "type": "uint256"
        },
        {
          "internalType": "uint256",
          "name": "spots",
          "type": "uint256"
        }
      ],
      "name": "setAllowlistSpots",
      "outputs": [],
      "stateMutability": "nonpayable",
      "type": "function"
    },
    {
      "inputs": [
        {
          "internalType": "uint256",
          "name": "_projectId",
          "type": "uint256"
        },
        {
          "internalType": "string",
          "name": "_symbol",
          "type": "string"
        },
        {
          "internalType": "address",
          "name": "_contract",
          "type": "address"
        }
      ],
      "name": "setCurrency",
      "outputs": [],
      "stateMutability": "nonpayable",
      "type": "function"
    },
    {
      "inputs": [
        {
          "internalType": "uint256",
          "name": "_projectId",
          "type": "uint256"
        }
      ],
      "name": "setCurrencyToETH",
      "outputs": [],
      "stateMutability": "nonpayable",
      "type": "function"
    },
    {
      "inputs": [
        {
          "internalType": "uint256",
          "name": "_projectId",
          "type": "uint256"
        },
        {
          "internalType": "address",
          "name": "newOwner",
          "type": "address"
        }
      ],
      "name": "setOwner",
      "outputs": [],
      "stateMutability": "nonpayable",
      "type": "function"
    },
    {
      "inputs": [
        {
          "internalType": "uint256",
          "name": "_projectId",
          "type": "uint256"
        },
        {
          "internalType": "uint256",
          "name": "premints",
          "type": "uint256"
        }
      ],
      "name": "setPremints",
      "outputs": [],
      "stateMutability": "nonpayable",
      "type": "function"
    },
    {
      "inputs": [
        {
          "internalType": "uint256",
          "name": "_projectId",
          "type": "uint256"
        },
        {
          "internalType": "uint256",
          "name": "price",
          "type": "uint256"
        }
      ],
      "name": "setPrice",
      "outputs": [],
      "stateMutability": "nonpayable",
      "type": "function"
    },
    {
      "inputs": [
        {
          "internalType": "uint256",
          "name": "_projectId",
          "type": "uint256"
        },
        {
          "internalType": "uint8",
          "name": "_count",
          "type": "uint8"
        }
      ],
      "name": "setProjectBulkMintCount",
      "outputs": [],
      "stateMutability": "nonpayable",
      "type": "function"
    },
    {
      "inputs": [
        {
          "internalType": "uint256",
          "name": "_projectId",
          "type": "uint256"
        },
        {
          "internalType": "uint8",
          "name": "_limit",
          "type": "uint8"
        }
      ],
      "name": "setProjectMintLimit",
      "outputs": [],
      "stateMutability": "nonpayable",
      "type": "function"
    },
    {
      "inputs": [
        {
          "internalType": "bytes4",
          "name": "interfaceId",
          "type": "bytes4"
        }
      ],
      "name": "supportsInterface",
      "outputs": [
        {
          "internalType": "bool",
          "name": "",
          "type": "bool"
        }
      ],
      "stateMutability": "view",
      "type": "function"
    },
    {
      "inputs": [
        {
          "internalType": "uint256",
          "name": "_projectId",
          "type": "uint256"
        }
      ],
      "name": "toggleContractFilter",
      "outputs": [],
      "stateMutability": "nonpayable",
      "type": "function"
    },
    {
      "inputs": [
        {
          "internalType": "uint256",
          "name": "_projectId",
          "type": "uint256"
        }
      ],
      "name": "unpause",
      "outputs": [],
      "stateMutability": "nonpayable",
      "type": "function"
    },
    {
      "inputs": [
        {
          "internalType": "uint256",
          "name": "_projectId",
          "type": "uint256"
        }
      ],
      "name": "unpauseAdmin",
      "outputs": [],
      "stateMutability": "nonpayable",
      "type": "function"
    }
  ],
  "bytecode": "0x60806040523480156200001157600080fd5b50604051620062063803806200620683398181016040528101906200003791906200020e565b6200004c6000801b336200009460201b60201c565b80600160006101000a81548173ffffffffffffffffffffffffffffffffffffffff021916908373ffffffffffffffffffffffffffffffffffffffff1602179055505062000288565b620000a682826200018560201b60201c565b6200018157600160008084815260200190815260200160002060000160008373ffffffffffffffffffffffffffffffffffffffff1673ffffffffffffffffffffffffffffffffffffffff16815260200190815260200160002060006101000a81548160ff02191690831515021790555062000126620001ef60201b60201c565b73ffffffffffffffffffffffffffffffffffffffff168173ffffffffffffffffffffffffffffffffffffffff16837f2f8788117e7eff1d82e926ec794901d17c78024a50270940304540a733656f0d60405160405180910390a45b5050565b600080600084815260200190815260200160002060000160008373ffffffffffffffffffffffffffffffffffffffff1673ffffffffffffffffffffffffffffffffffffffff16815260200190815260200160002060009054906101000a900460ff16905092915050565b600033905090565b60008151905062000208816200026e565b92915050565b6000602082840312156200022157600080fd5b60006200023184828501620001f7565b91505092915050565b600062000247826200024e565b9050919050565b600073ffffffffffffffffffffffffffffffffffffffff82169050919050565b62000279816200023a565b81146200028557600080fd5b50565b615f6e80620002986000396000f3fe60806040526004361061025c5760003560e01c806391943b5511610144578063bd33f081116100b6578063dc3d886f1161007a578063dc3d886f14610991578063f38ad964146109ba578063f7d97577146109f7578063f9f96b9e14610a20578063fabc1cbc14610a5d578063fce223b414610a865761025c565b8063bd33f081146108bd578063ca2660fd146108e6578063d1b5bd6a1461090f578063d547741f14610938578063d6febde8146109615761025c565b8063a217fddf11610108578063a217fddf14610789578063a47f9092146107b4578063ac26e4c9146107f1578063ad286a9c1461082e578063b137479d1461086b578063b5656185146108945761025c565b806391943b551461067957806391d14854146106a95780639c0e6e1f146106e65780639d5aef30146107235780639f270c22146107605761025c565b806336568abe116101dd57806362f7a7ed116101a157806362f7a7ed146105475780636ddd9f201461058457806370a90551146105c157806376dad91a146105ea5780637fd392471461061357806389fe08f81461063c5761025c565b806336568abe1461043e5780633a4657b414610467578063531b14b9146104a4578063569f6f92146104e157806358bd42e11461050a5761025c565b8063248a9ca311610224578063248a9ca314610342578063287f5fb71461037f5780632f2ff15d146103bc578063314398d8146103e557806335ddcfcd146104155761025c565b806301ffc9a7146102615780630ad1d81c1461029e578063128e1c5b146102c7578063136439dd146102f0578063231c228114610319575b600080fd5b34801561026d57600080fd5b506102886004803603810190610283919061498e565b610ac3565b60405161029591906152ce565b60405180910390f35b3480156102aa57600080fd5b506102c560048036038101906102c091906149b7565b610b3d565b005b3480156102d357600080fd5b506102ee60048036038101906102e99190614b0b565b610c0e565b005b3480156102fc57600080fd5b50610317600480360381019061031291906149b7565b610e45565b005b34801561032557600080fd5b50610340600480360381019061033b9190614c5a565b610f17565b005b34801561034e57600080fd5b5061036960048036038101906103649190614929565b610f4c565b60405161037691906152e9565b60405180910390f35b34801561038b57600080fd5b506103a660048036038101906103a191906149b7565b610f6b565b6040516103b39190615253565b60405180910390f35b3480156103c857600080fd5b506103e360048036038101906103de9190614952565b610f9e565b005b6103ff60048036038101906103fa9190614abc565b610fc7565b60405161040c9190615621565b60405180910390f35b34801561042157600080fd5b5061043c60048036038101906104379190614b77565b610fdd565b005b34801561044a57600080fd5b5061046560048036038101906104609190614952565b611367565b005b34801561047357600080fd5b5061048e600480360381019061048991906148c4565b6113ea565b60405161049b9190615621565b60405180910390f35b3480156104b057600080fd5b506104cb60048036038101906104c691906149b7565b61140f565b6040516104d8919061531f565b60405180910390f35b3480156104ed57600080fd5b50610508600480360381019061050391906149b7565b6114af565b005b34801561051657600080fd5b50610531600480360381019061052c91906149b7565b611514565b60405161053e91906152ce565b60405180910390f35b34801561055357600080fd5b5061056e600480360381019061056991906149b7565b611534565b60405161057b9190615621565b60405180910390f35b34801561059057600080fd5b506105ab60048036038101906105a691906149b7565b61154c565b6040516105b89190615621565b60405180910390f35b3480156105cd57600080fd5b506105e860048036038101906105e39190614a09565b611564565b005b3480156105f657600080fd5b50610611600480360381019061060c9190614a45565b611674565b005b34801561061f57600080fd5b5061063a60048036038101906106359190614a09565b6117ae565b005b34801561064857600080fd5b50610663600480360381019061065e91906149b7565b61192c565b6040516106709190615253565b60405180910390f35b610693600480360381019061068e9190614abc565b61195f565b6040516106a09190615621565b60405180910390f35b3480156106b557600080fd5b506106d060048036038101906106cb9190614952565b612147565b6040516106dd91906152ce565b60405180910390f35b3480156106f257600080fd5b5061070d600480360381019061070891906149b7565b6121b1565b60405161071a9190615621565b60405180910390f35b34801561072f57600080fd5b5061074a600480360381019061074591906149b7565b6121c9565b6040516107579190615621565b60405180910390f35b34801561076c57600080fd5b50610787600480360381019061078291906149b7565b6124ec565b005b34801561079557600080fd5b5061079e612531565b6040516107ab91906152e9565b60405180910390f35b3480156107c057600080fd5b506107db60048036038101906107d69190614a09565b612538565b6040516107e891906152ce565b60405180910390f35b3480156107fd57600080fd5b50610818600480360381019061081391906149b7565b612567565b60405161082591906152ce565b60405180910390f35b34801561083a57600080fd5b50610855600480360381019061085091906149b7565b612587565b6040516108629190615621565b60405180910390f35b34801561087757600080fd5b50610892600480360381019061088d91906149b7565b61259f565b005b3480156108a057600080fd5b506108bb60048036038101906108b69190614c5a565b6125e4565b005b3480156108c957600080fd5b506108e460048036038101906108df91906149b7565b612619565b005b3480156108f257600080fd5b5061090d60048036038101906109089190614a09565b6127d2565b005b34801561091b57600080fd5b5061093660048036038101906109319190614c1e565b6128e2565b005b34801561094457600080fd5b5061095f600480360381019061095a9190614952565b612a04565b005b61097b60048036038101906109769190614c1e565b612a2d565b6040516109889190615621565b60405180910390f35b34801561099d57600080fd5b506109b860048036038101906109b39190614c1e565b612a42565b005b3480156109c657600080fd5b506109e160048036038101906109dc91906149b7565b612b64565b6040516109ee9190615621565b60405180910390f35b348015610a0357600080fd5b50610a1e6004803603810190610a199190614c1e565b612b7c565b005b348015610a2c57600080fd5b50610a476004803603810190610a4291906149b7565b612c9e565b604051610a5491906152ce565b60405180910390f35b348015610a6957600080fd5b50610a846004803603810190610a7f91906149b7565b612cbe565b005b348015610a9257600080fd5b50610aad6004803603810190610aa891906149b7565b612d90565b604051610aba91906152ce565b60405180910390f35b60007f7965db0b000000000000000000000000000000000000000000000000000000007bffffffffffffffffffffffffffffffffffffffffffffffffffffffff1916827bffffffffffffffffffffffffffffffffffffffffffffffffffffffff19161480610b365750610b3582612db0565b5b9050919050565b6000801b610b5281610b4d612e1a565b612e22565b600f600083815260200190815260200160002060009054906101000a900460ff16610bb2576040517f08c379a0000000000000000000000000000000000000000000000000000000008152600401610ba990615401565b60405180910390fd5b60016008600084815260200190815260200160002060006101000a81548160ff02191690831515021790555060016009600084815260200190815260200160002060006101000a81548160ff0219169083151502179055505050565b836002600082815260200190815260200160002060009054906101000a900473ffffffffffffffffffffffffffffffffffffffff1673ffffffffffffffffffffffffffffffffffffffff163373ffffffffffffffffffffffffffffffffffffffff1614610cb0576040517f08c379a0000000000000000000000000000000000000000000000000000000008152600401610ca790615541565b60405180910390fd5b846008600082815260200190815260200160002060009054906101000a900460ff1615610d12576040517f08c379a0000000000000000000000000000000000000000000000000000000008152600401610d09906154c1565b60405180910390fd5b60008585905011610d58576040517f08c379a0000000000000000000000000000000000000000000000000000000008152600401610d4f906155e1565b60405180910390fd5b600073ffffffffffffffffffffffffffffffffffffffff168373ffffffffffffffffffffffffffffffffffffffff161415610dc8576040517f08c379a0000000000000000000000000000000000000000000000000000000008152600401610dbf90615481565b60405180910390fd5b8484600660008981526020019081526020016000209190610dea92919061462d565b50826005600088815260200190815260200160002060006101000a81548173ffffffffffffffffffffffffffffffffffffffff021916908373ffffffffffffffffffffffffffffffffffffffff160217905550505050505050565b806002600082815260200190815260200160002060009054906101000a900473ffffffffffffffffffffffffffffffffffffffff1673ffffffffffffffffffffffffffffffffffffffff163373ffffffffffffffffffffffffffffffffffffffff1614610ee7576040517f08c379a0000000000000000000000000000000000000000000000000000000008152600401610ede90615541565b60405180910390fd5b60016009600084815260200190815260200160002060006101000a81548160ff0219169083151502179055505050565b6000801b610f2c81610f27612e1a565b612e22565b8160ff16600c600085815260200190815260200160002081905550505050565b6000806000838152602001908152602001600020600101549050919050565b60056020528060005260406000206000915054906101000a900473ffffffffffffffffffffffffffffffffffffffff1681565b610fa782610f4c565b610fb881610fb3612e1a565b612e22565b610fc28383612ebf565b505050565b6000610fd484848461195f565b90509392505050565b866002600082815260200190815260200160002060009054906101000a900473ffffffffffffffffffffffffffffffffffffffff1673ffffffffffffffffffffffffffffffffffffffff163373ffffffffffffffffffffffffffffffffffffffff161461107f576040517f08c379a000000000000000000000000000000000000000000000000000000000815260040161107690615541565b60405180910390fd5b876008600082815260200190815260200160002060009054906101000a900460ff16156110e1576040517f08c379a00000000000000000000000000000000000000000000000000000000081526004016110d8906154c1565b60405180910390fd5b60008888905011611127576040517f08c379a000000000000000000000000000000000000000000000000000000000815260040161111e906155e1565b60405180910390fd5b60405160200161113690615204565b60405160208183030381529060405280519060200120888860405160200161115f9291906151d4565b604051602081830303815290604052805190602001201461127357600073ffffffffffffffffffffffffffffffffffffffff168673ffffffffffffffffffffffffffffffffffffffff1614156111ea576040517f08c379a00000000000000000000000000000000000000000000000000000000081526004016111e190615481565b60405180910390fd5b6112337f36372b07000000000000000000000000000000000000000000000000000000008773ffffffffffffffffffffffffffffffffffffffff16612f9f90919063ffffffff16565b611272576040517f08c379a0000000000000000000000000000000000000000000000000000000008152600401611269906153c1565b60405180910390fd5b5b8787600660008c8152602001908152602001600020919061129592919061462d565b5085600560008b815260200190815260200160002060006101000a81548173ffffffffffffffffffffffffffffffffffffffff021916908373ffffffffffffffffffffffffffffffffffffffff16021790555084600460008b81526020019081526020016000208190555083600360008b81526020019081526020016000208190555082600e60008b8152602001908152602001600020819055506001600f60008b815260200190815260200160002060006101000a81548160ff021916908315150217905550505050505050505050565b61136f612e1a565b73ffffffffffffffffffffffffffffffffffffffff168173ffffffffffffffffffffffffffffffffffffffff16146113dc576040517f08c379a00000000000000000000000000000000000000000000000000000000081526004016113d390615601565b60405180910390fd5b6113e68282612fc4565b5050565b600b602052816000526040600020602052806000526040600020600091509150505481565b6006602052806000526040600020600091509050805461142e906158e2565b80601f016020809104026020016040519081016040528092919081815260200182805461145a906158e2565b80156114a75780601f1061147c576101008083540402835291602001916114a7565b820191906000526020600020905b81548152906001019060200180831161148a57829003601f168201915b505050505081565b6000801b6114c4816114bf612e1a565b612e22565b600a600083815260200190815260200160002060009054906101000a900460ff1615600a600084815260200190815260200160002060006101000a81548160ff0219169083151502179055505050565b600f6020528060005260406000206000915054906101000a900460ff1681565b600c6020528060005260406000206000915090505481565b60076020528060005260406000206000915090505481565b816002600082815260200190815260200160002060009054906101000a900473ffffffffffffffffffffffffffffffffffffffff1673ffffffffffffffffffffffffffffffffffffffff163373ffffffffffffffffffffffffffffffffffffffff1614611606576040517f08c379a00000000000000000000000000000000000000000000000000000000081526004016115fd90615541565b60405180910390fd5b6001600d600085815260200190815260200160002060008473ffffffffffffffffffffffffffffffffffffffff1673ffffffffffffffffffffffffffffffffffffffff16815260200190815260200160002060006101000a81548160ff021916908315150217905550505050565b6000801b61168981611684612e1a565b612e22565b600073ffffffffffffffffffffffffffffffffffffffff168573ffffffffffffffffffffffffffffffffffffffff1614156116f9576040517f08c379a00000000000000000000000000000000000000000000000000000000081526004016116f090615521565b60405180910390fd5b846002600088815260200190815260200160002060006101000a81548173ffffffffffffffffffffffffffffffffffffffff021916908373ffffffffffffffffffffffffffffffffffffffff16021790555083600a600088815260200190815260200160002060006101000a81548160ff02191690831515021790555082600760008881526020019081526020016000208190555081600c600088815260200190815260200160002081905550505050505050565b6000801b6117c3816117be612e1a565b612e22565b8173ffffffffffffffffffffffffffffffffffffffff166002600085815260200190815260200160002060009054906101000a900473ffffffffffffffffffffffffffffffffffffffff1673ffffffffffffffffffffffffffffffffffffffff161415611865576040517f08c379a000000000000000000000000000000000000000000000000000000000815260040161185c906155a1565b60405180910390fd5b600073ffffffffffffffffffffffffffffffffffffffff168273ffffffffffffffffffffffffffffffffffffffff1614156118d5576040517f08c379a00000000000000000000000000000000000000000000000000000000081526004016118cc90615521565b60405180910390fd5b816002600085815260200190815260200160002060006101000a81548173ffffffffffffffffffffffffffffffffffffffff021916908373ffffffffffffffffffffffffffffffffffffffff160217905550505050565b60026020528060005260406000206000915054906101000a900473ffffffffffffffffffffffffffffffffffffffff1681565b60006008600085815260200190815260200160002060009054906101000a900460ff166119c1576040517f08c379a00000000000000000000000000000000000000000000000000000000081526004016119b890615441565b60405180910390fd5b6009600085815260200190815260200160002060009054906101000a900460ff1615611a22576040517f08c379a0000000000000000000000000000000000000000000000000000000008152600401611a19906153e1565b60405180910390fd5b6000600160009054906101000a900473ffffffffffffffffffffffffffffffffffffffff1673ffffffffffffffffffffffffffffffffffffffff16634ca3e9b8866040518263ffffffff1660e01b8152600401611a7f9190615621565b60206040518083038186803b158015611a9757600080fd5b505afa158015611aab573d6000803e3d6000fd5b505050506040513d601f19601f82011682018060405250810190611acf9190614872565b905060036000868152602001908152602001600020548173ffffffffffffffffffffffffffffffffffffffff166318160ddd6040518163ffffffff1660e01b815260040160206040518083038186803b158015611b2b57600080fd5b505afa158015611b3f573d6000803e3d6000fd5b505050506040513d601f19601f82011682018060405250810190611b6391906149e0565b1015611ba4576040517f08c379a0000000000000000000000000000000000000000000000000000000008152600401611b9b90615581565b60405180910390fd5b600060076000878152602001908152602001600020541115611c17576007600086815260200190815260200160002054831115611c16576040517f08c379a0000000000000000000000000000000000000000000000000000000008152600401611c0d906153a1565b60405180910390fd5b5b600a600086815260200190815260200160002060009054906101000a900460ff1615611cac573273ffffffffffffffffffffffffffffffffffffffff163373ffffffffffffffffffffffffffffffffffffffff1614611cab576040517f08c379a0000000000000000000000000000000000000000000000000000000008152600401611ca290615561565b60405180910390fd5b5b6000600c6000878152602001908152602001600020541115611dd457600c600086815260200190815260200160002054600b60003373ffffffffffffffffffffffffffffffffffffffff1673ffffffffffffffffffffffffffffffffffffffff16815260200190815260200160002060008781526020019081526020016000205410611d6d576040517f08c379a0000000000000000000000000000000000000000000000000000000008152600401611d6490615381565b60405180910390fd5b600b60003373ffffffffffffffffffffffffffffffffffffffff1673ffffffffffffffffffffffffffffffffffffffff16815260200190815260200160002060008681526020019081526020016000206000815480929190611dce90615914565b91905055505b6000600e600087815260200190815260200160002054118015611ea457506003600086815260200190815260200160002054600e600087815260200190815260200160002054611e24919061568e565b8173ffffffffffffffffffffffffffffffffffffffff166318160ddd6040518163ffffffff1660e01b815260040160206040518083038186803b158015611e6a57600080fd5b505afa158015611e7e573d6000803e3d6000fd5b505050506040513d601f19601f82011682018060405250810190611ea291906149e0565b105b15611f4757600d600086815260200190815260200160002060003373ffffffffffffffffffffffffffffffffffffffff1673ffffffffffffffffffffffffffffffffffffffff16815260200190815260200160002060009054906101000a900460ff16611f46576040517f08c379a0000000000000000000000000000000000000000000000000000000008152600401611f3d90615461565b60405180910390fd5b5b611f5185846130a5565b60008173ffffffffffffffffffffffffffffffffffffffff1663284855866040518163ffffffff1660e01b815260040160206040518083038186803b158015611f9957600080fd5b505afa158015611fad573d6000803e3d6000fd5b505050506040513d601f19601f82011682018060405250810190611fd191906149e0565b8273ffffffffffffffffffffffffffffffffffffffff166318160ddd6040518163ffffffff1660e01b815260040160206040518083038186803b15801561201757600080fd5b505afa15801561202b573d6000803e3d6000fd5b505050506040513d601f19601f8201168201806040525081019061204f91906149e0565b1061208f576040517f08c379a0000000000000000000000000000000000000000000000000000000008152600401612086906155c1565b60405180910390fd5b60005b8481101561213a578273ffffffffffffffffffffffffffffffffffffffff16636a627842876040518263ffffffff1660e01b81526004016120d39190615253565b602060405180830381600087803b1580156120ed57600080fd5b505af1158015612101573d6000803e3d6000fd5b505050506040513d601f19601f8201168201806040525081019061212591906149e0565b9150808061213290615914565b915050612092565b5080925050509392505050565b600080600084815260200190815260200160002060000160008373ffffffffffffffffffffffffffffffffffffffff1673ffffffffffffffffffffffffffffffffffffffff16815260200190815260200160002060009054906101000a900460ff16905092915050565b60036020528060005260406000206000915090505481565b60006008600083815260200190815260200160002060009054906101000a900460ff1661222b576040517f08c379a000000000000000000000000000000000000000000000000000000000815260040161222290615441565b60405180910390fd5b6002600083815260200190815260200160002060009054906101000a900473ffffffffffffffffffffffffffffffffffffffff1673ffffffffffffffffffffffffffffffffffffffff163373ffffffffffffffffffffffffffffffffffffffff16146122cc576040517f08c379a00000000000000000000000000000000000000000000000000000000081526004016122c390615541565b60405180910390fd5b6000600160009054906101000a900473ffffffffffffffffffffffffffffffffffffffff1673ffffffffffffffffffffffffffffffffffffffff16634ca3e9b8846040518263ffffffff1660e01b81526004016123299190615621565b60206040518083038186803b15801561234157600080fd5b505afa158015612355573d6000803e3d6000fd5b505050506040513d601f19601f820116820180604052508101906123799190614872565b905060036000848152602001908152602001600020548173ffffffffffffffffffffffffffffffffffffffff166318160ddd6040518163ffffffff1660e01b815260040160206040518083038186803b1580156123d557600080fd5b505afa1580156123e9573d6000803e3d6000fd5b505050506040513d601f19601f8201168201806040525081019061240d91906149e0565b1061244d576040517f08c379a0000000000000000000000000000000000000000000000000000000008152600401612444906154a1565b60405180910390fd5b600033905060008273ffffffffffffffffffffffffffffffffffffffff16636a627842836040518263ffffffff1660e01b815260040161248d9190615253565b602060405180830381600087803b1580156124a757600080fd5b505af11580156124bb573d6000803e3d6000fd5b505050506040513d601f19601f820116820180604052508101906124df91906149e0565b9050809350505050919050565b6000801b612501816124fc612e1a565b612e22565b60006009600084815260200190815260200160002060006101000a81548160ff0219169083151502179055505050565b6000801b81565b600d6020528160005260406000206020528060005260406000206000915091509054906101000a900460ff1681565b60086020528060005260406000206000915054906101000a900460ff1681565b60046020528060005260406000206000915090505481565b6000801b6125b4816125af612e1a565b612e22565b60016009600084815260200190815260200160002060006101000a81548160ff0219169083151502179055505050565b6000801b6125f9816125f4612e1a565b612e22565b8160ff166007600085815260200190815260200160002081905550505050565b806002600082815260200190815260200160002060009054906101000a900473ffffffffffffffffffffffffffffffffffffffff1673ffffffffffffffffffffffffffffffffffffffff163373ffffffffffffffffffffffffffffffffffffffff16146126bb576040517f08c379a00000000000000000000000000000000000000000000000000000000081526004016126b290615541565b60405180910390fd5b816008600082815260200190815260200160002060009054906101000a900460ff161561271d576040517f08c379a0000000000000000000000000000000000000000000000000000000008152600401612714906154c1565b60405180910390fd5b6040518060400160405280600381526020017f45544800000000000000000000000000000000000000000000000000000000008152506006600085815260200190815260200160002090805190602001906127799291906146b3565b5060006005600085815260200190815260200160002060006101000a81548173ffffffffffffffffffffffffffffffffffffffff021916908373ffffffffffffffffffffffffffffffffffffffff160217905550505050565b816002600082815260200190815260200160002060009054906101000a900473ffffffffffffffffffffffffffffffffffffffff1673ffffffffffffffffffffffffffffffffffffffff163373ffffffffffffffffffffffffffffffffffffffff1614612874576040517f08c379a000000000000000000000000000000000000000000000000000000000815260040161286b90615541565b60405180910390fd5b6000600d600085815260200190815260200160002060008473ffffffffffffffffffffffffffffffffffffffff1673ffffffffffffffffffffffffffffffffffffffff16815260200190815260200160002060006101000a81548160ff021916908315150217905550505050565b816002600082815260200190815260200160002060009054906101000a900473ffffffffffffffffffffffffffffffffffffffff1673ffffffffffffffffffffffffffffffffffffffff163373ffffffffffffffffffffffffffffffffffffffff1614612984576040517f08c379a000000000000000000000000000000000000000000000000000000000815260040161297b90615541565b60405180910390fd5b826008600082815260200190815260200160002060009054906101000a900460ff16156129e6576040517f08c379a00000000000000000000000000000000000000000000000000000000081526004016129dd906154c1565b60405180910390fd5b82600e60008681526020019081526020016000208190555050505050565b612a0d82610f4c565b612a1e81612a19612e1a565b612e22565b612a288383612fc4565b505050565b6000612a3a83338461195f565b905092915050565b816002600082815260200190815260200160002060009054906101000a900473ffffffffffffffffffffffffffffffffffffffff1673ffffffffffffffffffffffffffffffffffffffff163373ffffffffffffffffffffffffffffffffffffffff1614612ae4576040517f08c379a0000000000000000000000000000000000000000000000000000000008152600401612adb90615541565b60405180910390fd5b826008600082815260200190815260200160002060009054906101000a900460ff1615612b46576040517f08c379a0000000000000000000000000000000000000000000000000000000008152600401612b3d906154c1565b60405180910390fd5b82600360008681526020019081526020016000208190555050505050565b600e6020528060005260406000206000915090505481565b816002600082815260200190815260200160002060009054906101000a900473ffffffffffffffffffffffffffffffffffffffff1673ffffffffffffffffffffffffffffffffffffffff163373ffffffffffffffffffffffffffffffffffffffff1614612c1e576040517f08c379a0000000000000000000000000000000000000000000000000000000008152600401612c1590615541565b60405180910390fd5b826008600082815260200190815260200160002060009054906101000a900460ff1615612c80576040517f08c379a0000000000000000000000000000000000000000000000000000000008152600401612c77906154c1565b60405180910390fd5b82600460008681526020019081526020016000208190555050505050565b600a6020528060005260406000206000915054906101000a900460ff1681565b806002600082815260200190815260200160002060009054906101000a900473ffffffffffffffffffffffffffffffffffffffff1673ffffffffffffffffffffffffffffffffffffffff163373ffffffffffffffffffffffffffffffffffffffff1614612d60576040517f08c379a0000000000000000000000000000000000000000000000000000000008152600401612d5790615541565b60405180910390fd5b60006009600084815260200190815260200160002060006101000a81548160ff0219169083151502179055505050565b60096020528060005260406000206000915054906101000a900460ff1681565b60007f01ffc9a7000000000000000000000000000000000000000000000000000000007bffffffffffffffffffffffffffffffffffffffffffffffffffffffff1916827bffffffffffffffffffffffffffffffffffffffffffffffffffffffff1916149050919050565b600033905090565b612e2c8282612147565b612ebb57612e518173ffffffffffffffffffffffffffffffffffffffff1660146133d5565b612e5f8360001c60206133d5565b604051602001612e70929190615219565b6040516020818303038152906040526040517f08c379a0000000000000000000000000000000000000000000000000000000008152600401612eb2919061531f565b60405180910390fd5b5050565b612ec98282612147565b612f9b57600160008084815260200190815260200160002060000160008373ffffffffffffffffffffffffffffffffffffffff1673ffffffffffffffffffffffffffffffffffffffff16815260200190815260200160002060006101000a81548160ff021916908315150217905550612f40612e1a565b73ffffffffffffffffffffffffffffffffffffffff168173ffffffffffffffffffffffffffffffffffffffff16837f2f8788117e7eff1d82e926ec794901d17c78024a50270940304540a733656f0d60405160405180910390a45b5050565b6000612faa836136cf565b8015612fbc5750612fbb838361371c565b5b905092915050565b612fce8282612147565b156130a157600080600084815260200190815260200160002060000160008373ffffffffffffffffffffffffffffffffffffffff1673ffffffffffffffffffffffffffffffffffffffff16815260200190815260200160002060006101000a81548160ff021916908315150217905550613046612e1a565b73ffffffffffffffffffffffffffffffffffffffff168173ffffffffffffffffffffffffffffffffffffffff16837ff6391f5c32d9c69d2a47ea670b442974b53935d1edc7fd64eb21e047a839171b60405160405180910390a45b5050565b60006130cd82600460008681526020019081526020016000205461384790919063ffffffff16565b90506040516020016130de90615204565b604051602081830303815290604052805190602001206006600085815260200190815260200160002060405160200161311791906151ed565b60405160208183030381529060405280519060200120146133825760003414613175576040517f08c379a000000000000000000000000000000000000000000000000000000000815260040161316c90615501565b60405180910390fd5b806005600085815260200190815260200160002060009054906101000a900473ffffffffffffffffffffffffffffffffffffffff1673ffffffffffffffffffffffffffffffffffffffff1663dd62ed3e33306040518363ffffffff1660e01b81526004016131e492919061526e565b60206040518083038186803b1580156131fc57600080fd5b505afa158015613210573d6000803e3d6000fd5b505050506040513d601f19601f8201168201806040525081019061323491906149e0565b1015613275576040517f08c379a000000000000000000000000000000000000000000000000000000000815260040161326c906154e1565b60405180910390fd5b806005600085815260200190815260200160002060009054906101000a900473ffffffffffffffffffffffffffffffffffffffff1673ffffffffffffffffffffffffffffffffffffffff166370a08231336040518263ffffffff1660e01b81526004016132e29190615253565b60206040518083038186803b1580156132fa57600080fd5b505afa15801561330e573d6000803e3d6000fd5b505050506040513d601f19601f8201168201806040525081019061333291906149e0565b1015613373576040517f08c379a000000000000000000000000000000000000000000000000000000000815260040161336a90615421565b60405180910390fd5b61337d838361385d565b6133d0565b803410156133c5576040517f08c379a00000000000000000000000000000000000000000000000000000000081526004016133bc90615361565b60405180910390fd5b6133cf8383613fef565b5b505050565b6060600060028360026133e89190615715565b6133f2919061568e565b67ffffffffffffffff811115613431577f4e487b7100000000000000000000000000000000000000000000000000000000600052604160045260246000fd5b6040519080825280601f01601f1916602001820160405280156134635781602001600182028036833780820191505090505b5090507f3000000000000000000000000000000000000000000000000000000000000000816000815181106134c1577f4e487b7100000000000000000000000000000000000000000000000000000000600052603260045260246000fd5b60200101907effffffffffffffffffffffffffffffffffffffffffffffffffffffffffffff1916908160001a9053507f78000000000000000000000000000000000000000000000000000000000000008160018151811061354b577f4e487b7100000000000000000000000000000000000000000000000000000000600052603260045260246000fd5b60200101907effffffffffffffffffffffffffffffffffffffffffffffffffffffffffffff1916908160001a9053506000600184600261358b9190615715565b613595919061568e565b90505b6001811115613681577f3031323334353637383961626364656600000000000000000000000000000000600f8616601081106135fd577f4e487b7100000000000000000000000000000000000000000000000000000000600052603260045260246000fd5b1a60f81b82828151811061363a577f4e487b7100000000000000000000000000000000000000000000000000000000600052603260045260246000fd5b60200101907effffffffffffffffffffffffffffffffffffffffffffffffffffffffffffff1916908160001a905350600485901c94508061367a906158b8565b9050613598565b50600084146136c5576040517f08c379a00000000000000000000000000000000000000000000000000000000081526004016136bc90615341565b60405180910390fd5b8091505092915050565b60006136fb827f01ffc9a70000000000000000000000000000000000000000000000000000000061371c565b801561371557506137138263ffffffff60e01b61371c565b155b9050919050565b6000806301ffc9a760e01b836040516024016137389190615304565b604051602081830303815290604052907bffffffffffffffffffffffffffffffffffffffffffffffffffffffff19166020820180517bffffffffffffffffffffffffffffffffffffffffffffffffffffffff838183161783525050505090506000808573ffffffffffffffffffffffffffffffffffffffff16617530846040516137c291906151bd565b6000604051808303818686fa925050503d80600081146137fe576040519150601f19603f3d011682016040523d82523d6000602084013e613803565b606091505b509150915060208151101561381e5760009350505050613841565b81801561383b57508080602001905181019061383a9190614900565b5b93505050505b92915050565b600081836138559190615715565b905092915050565b600060046000848152602001908152602001600020549050600061388a838361384790919063ffffffff16565b90506000613956600160009054906101000a900473ffffffffffffffffffffffffffffffffffffffff1673ffffffffffffffffffffffffffffffffffffffff16631f7418976040518163ffffffff1660e01b8152600401602060405180830381600087803b1580156138fb57600080fd5b505af115801561390f573d6000803e3d6000fd5b505050506040513d601f19601f8201168201806040525081019061393391906149e0565b6139486127108561460190919063ffffffff16565b61384790919063ffffffff16565b90506000811115613ac6576005600086815260200190815260200160002060009054906101000a900473ffffffffffffffffffffffffffffffffffffffff1673ffffffffffffffffffffffffffffffffffffffff166323b872dd33600160009054906101000a900473ffffffffffffffffffffffffffffffffffffffff1673ffffffffffffffffffffffffffffffffffffffff16637dafc0d36040518163ffffffff1660e01b8152600401602060405180830381600087803b158015613a1b57600080fd5b505af1158015613a2f573d6000803e3d6000fd5b505050506040513d601f19601f82011682018060405250810190613a53919061489b565b846040518463ffffffff1660e01b8152600401613a7293929190615297565b602060405180830381600087803b158015613a8c57600080fd5b505af1158015613aa0573d6000803e3d6000fd5b505050506040513d601f19601f82011682018060405250810190613ac49190614900565b505b6000600160009054906101000a900473ffffffffffffffffffffffffffffffffffffffff1673ffffffffffffffffffffffffffffffffffffffff16634ca3e9b8876040518263ffffffff1660e01b8152600401613b239190615621565b60206040518083038186803b158015613b3b57600080fd5b505afa158015613b4f573d6000803e3d6000fd5b505050506040513d601f19601f82011682018060405250810190613b739190614872565b90508073ffffffffffffffffffffffffffffffffffffffff16638cbe8d806040518163ffffffff1660e01b815260040160206040518083038186803b158015613bbb57600080fd5b505afa158015613bcf573d6000803e3d6000fd5b505050506040513d601f19601f82011682018060405250810190613bf3919061489b565b506000613c09838561461790919063ffffffff16565b90506000808373ffffffffffffffffffffffffffffffffffffffff16632cc889746040518163ffffffff1660e01b815260040160206040518083038186803b158015613c5457600080fd5b505afa158015613c68573d6000803e3d6000fd5b505050506040513d601f19601f82011682018060405250810190613c8c91906149e0565b1115613e8357613d368373ffffffffffffffffffffffffffffffffffffffff16632cc889746040518163ffffffff1660e01b815260040160206040518083038186803b158015613cdb57600080fd5b505afa158015613cef573d6000803e3d6000fd5b505050506040513d601f19601f82011682018060405250810190613d1391906149e0565b613d286127108561460190919063ffffffff16565b61384790919063ffffffff16565b90506000811115613e82576005600089815260200190815260200160002060009054906101000a900473ffffffffffffffffffffffffffffffffffffffff1673ffffffffffffffffffffffffffffffffffffffff166323b872dd338573ffffffffffffffffffffffffffffffffffffffff16636ff314c76040518163ffffffff1660e01b815260040160206040518083038186803b158015613dd757600080fd5b505afa158015613deb573d6000803e3d6000fd5b505050506040513d601f19601f82011682018060405250810190613e0f919061489b565b846040518463ffffffff1660e01b8152600401613e2e93929190615297565b602060405180830381600087803b158015613e4857600080fd5b505af1158015613e5c573d6000803e3d6000fd5b505050506040513d601f19601f82011682018060405250810190613e809190614900565b505b5b6000613e98828461461790919063ffffffff16565b90506000811115613fe457600560008a815260200190815260200160002060009054906101000a900473ffffffffffffffffffffffffffffffffffffffff1673ffffffffffffffffffffffffffffffffffffffff166323b872dd338673ffffffffffffffffffffffffffffffffffffffff16638cbe8d806040518163ffffffff1660e01b815260040160206040518083038186803b158015613f3957600080fd5b505afa158015613f4d573d6000803e3d6000fd5b505050506040513d601f19601f82011682018060405250810190613f71919061489b565b846040518463ffffffff1660e01b8152600401613f9093929190615297565b602060405180830381600087803b158015613faa57600080fd5b505af1158015613fbe573d6000803e3d6000fd5b505050506040513d601f19601f82011682018060405250810190613fe29190614900565b505b505050505050505050565b60003411156145fd576000600460008481526020019081526020016000205490506000614025838361384790919063ffffffff16565b9050600061403c823461461790919063ffffffff16565b9050600081111561408f573373ffffffffffffffffffffffffffffffffffffffff166108fc829081150290604051600060405180830381858888f1935050505015801561408d573d6000803e3d6000fd5b505b6000614159600160009054906101000a900473ffffffffffffffffffffffffffffffffffffffff1673ffffffffffffffffffffffffffffffffffffffff16631f7418976040518163ffffffff1660e01b8152600401602060405180830381600087803b1580156140fe57600080fd5b505af1158015614112573d6000803e3d6000fd5b505050506040513d601f19601f8201168201806040525081019061413691906149e0565b61414b6127108661460190919063ffffffff16565b61384790919063ffffffff16565b9050600081111561424d57600160009054906101000a900473ffffffffffffffffffffffffffffffffffffffff1673ffffffffffffffffffffffffffffffffffffffff16637dafc0d36040518163ffffffff1660e01b8152600401602060405180830381600087803b1580156141ce57600080fd5b505af11580156141e2573d6000803e3d6000fd5b505050506040513d601f19601f82011682018060405250810190614206919061489b565b73ffffffffffffffffffffffffffffffffffffffff166108fc829081150290604051600060405180830381858888f1935050505015801561424b573d6000803e3d6000fd5b505b6000600160009054906101000a900473ffffffffffffffffffffffffffffffffffffffff1673ffffffffffffffffffffffffffffffffffffffff16634ca3e9b8886040518263ffffffff1660e01b81526004016142aa9190615621565b60206040518083038186803b1580156142c257600080fd5b505afa1580156142d6573d6000803e3d6000fd5b505050506040513d601f19601f820116820180604052508101906142fa9190614872565b90506000614311838661461790919063ffffffff16565b90506000808373ffffffffffffffffffffffffffffffffffffffff16632cc889746040518163ffffffff1660e01b815260040160206040518083038186803b15801561435c57600080fd5b505afa158015614370573d6000803e3d6000fd5b505050506040513d601f19601f8201168201806040525081019061439491906149e0565b111561450f5761443e8373ffffffffffffffffffffffffffffffffffffffff16632cc889746040518163ffffffff1660e01b815260040160206040518083038186803b1580156143e357600080fd5b505afa1580156143f7573d6000803e3d6000fd5b505050506040513d601f19601f8201168201806040525081019061441b91906149e0565b6144306127108561460190919063ffffffff16565b61384790919063ffffffff16565b9050600081111561450e578273ffffffffffffffffffffffffffffffffffffffff16636ff314c76040518163ffffffff1660e01b815260040160206040518083038186803b15801561448f57600080fd5b505afa1580156144a3573d6000803e3d6000fd5b505050506040513d601f19601f820116820180604052508101906144c7919061489b565b73ffffffffffffffffffffffffffffffffffffffff166108fc829081150290604051600060405180830381858888f1935050505015801561450c573d6000803e3d6000fd5b505b5b6000614524828461461790919063ffffffff16565b905060008111156145f4578373ffffffffffffffffffffffffffffffffffffffff16638cbe8d806040518163ffffffff1660e01b815260040160206040518083038186803b15801561457557600080fd5b505afa158015614589573d6000803e3d6000fd5b505050506040513d601f19601f820116820180604052508101906145ad919061489b565b73ffffffffffffffffffffffffffffffffffffffff166108fc829081150290604051600060405180830381858888f193505050501580156145f2573d6000803e3d6000fd5b505b50505050505050505b5050565b6000818361460f91906156e4565b905092915050565b60008183614625919061576f565b905092915050565b828054614639906158e2565b90600052602060002090601f01602090048101928261465b57600085556146a2565b82601f1061467457803560ff19168380011785556146a2565b828001600101855582156146a2579182015b828111156146a1578235825591602001919060010190614686565b5b5090506146af9190614739565b5090565b8280546146bf906158e2565b90600052602060002090601f0160209004810192826146e15760008555614728565b82601f106146fa57805160ff1916838001178555614728565b82800160010185558215614728579182015b8281111561472757825182559160200191906001019061470c565b5b5090506147359190614739565b5090565b5b8082111561475257600081600090555060010161473a565b5090565b60008135905061476581615e97565b92915050565b60008151905061477a81615e97565b92915050565b60008151905061478f81615eae565b92915050565b6000813590506147a481615ec5565b92915050565b6000815190506147b981615ec5565b92915050565b6000813590506147ce81615edc565b92915050565b6000813590506147e381615ef3565b92915050565b60008083601f8401126147fb57600080fd5b8235905067ffffffffffffffff81111561481457600080fd5b60208301915083600182028301111561482c57600080fd5b9250929050565b60008135905061484281615f0a565b92915050565b60008151905061485781615f0a565b92915050565b60008135905061486c81615f21565b92915050565b60006020828403121561488457600080fd5b60006148928482850161476b565b91505092915050565b6000602082840312156148ad57600080fd5b60006148bb84828501614780565b91505092915050565b600080604083850312156148d757600080fd5b60006148e585828601614756565b92505060206148f685828601614833565b9150509250929050565b60006020828403121561491257600080fd5b6000614920848285016147aa565b91505092915050565b60006020828403121561493b57600080fd5b6000614949848285016147bf565b91505092915050565b6000806040838503121561496557600080fd5b6000614973858286016147bf565b925050602061498485828601614756565b9150509250929050565b6000602082840312156149a057600080fd5b60006149ae848285016147d4565b91505092915050565b6000602082840312156149c957600080fd5b60006149d784828501614833565b91505092915050565b6000602082840312156149f257600080fd5b6000614a0084828501614848565b91505092915050565b60008060408385031215614a1c57600080fd5b6000614a2a85828601614833565b9250506020614a3b85828601614756565b9150509250929050565b600080600080600060a08688031215614a5d57600080fd5b6000614a6b88828901614833565b9550506020614a7c88828901614756565b9450506040614a8d88828901614795565b9350506060614a9e88828901614833565b9250506080614aaf88828901614833565b9150509295509295909350565b600080600060608486031215614ad157600080fd5b6000614adf86828701614833565b9350506020614af086828701614756565b9250506040614b0186828701614833565b9150509250925092565b60008060008060608587031215614b2157600080fd5b6000614b2f87828801614833565b945050602085013567ffffffffffffffff811115614b4c57600080fd5b614b58878288016147e9565b93509350506040614b6b87828801614756565b91505092959194509250565b600080600080600080600060c0888a031215614b9257600080fd5b6000614ba08a828b01614833565b975050602088013567ffffffffffffffff811115614bbd57600080fd5b614bc98a828b016147e9565b96509650506040614bdc8a828b01614756565b9450506060614bed8a828b01614833565b9350506080614bfe8a828b01614833565b92505060a0614c0f8a828b01614833565b91505092959891949750929550565b60008060408385031215614c3157600080fd5b6000614c3f85828601614833565b9250506020614c5085828601614833565b9150509250929050565b60008060408385031215614c6d57600080fd5b6000614c7b85828601614833565b9250506020614c8c8582860161485d565b9150509250929050565b614c9f81615840565b82525050565b614cae816157a3565b82525050565b614cbd816157c7565b82525050565b614ccc816157d3565b82525050565b614cdb816157dd565b82525050565b6000614cec82615651565b614cf68185615667565b9350614d06818560208601615885565b80840191505092915050565b6000614d1e8385615683565b9350614d2b838584615876565b82840190509392505050565b6000614d428261565c565b614d4c8185615672565b9350614d5c818560208601615885565b614d65816159ea565b840191505092915050565b6000614d7b8261565c565b614d858185615683565b9350614d95818560208601615885565b80840191505092915050565b60008154614dae816158e2565b614db88186615683565b94506001821660008114614dd35760018114614de457614e17565b60ff19831686528186019350614e17565b614ded8561563c565b60005b83811015614e0f57815481890152600182019150602081019050614df0565b838801955050505b50505092915050565b6000614e2d602083615672565b9150614e38826159fb565b602082019050919050565b6000614e50602083615672565b9150614e5b82615a24565b602082019050919050565b6000614e73601583615672565b9150614e7e82615a4d565b602082019050919050565b6000614e96601583615672565b9150614ea182615a76565b602082019050919050565b6000614eb9601583615672565b9150614ec482615a9f565b602082019050919050565b6000614edc600e83615672565b9150614ee782615ac8565b602082019050919050565b6000614eff601a83615672565b9150614f0a82615af1565b602082019050919050565b6000614f22601583615672565b9150614f2d82615b1a565b602082019050919050565b6000614f45601083615672565b9150614f5082615b43565b602082019050919050565b6000614f68601083615672565b9150614f7382615b6c565b602082019050919050565b6000614f8b601c83615672565b9150614f9682615b95565b602082019050919050565b6000614fae600c83615672565b9150614fb982615bbe565b602082019050919050565b6000614fd1600c83615672565b9150614fdc82615be7565b602082019050919050565b6000614ff4602283615672565b9150614fff82615c10565b604082019050919050565b6000615017603f83615672565b915061502282615c5f565b604082019050919050565b600061503a600383615683565b915061504582615cae565b600382019050919050565b600061505d601b83615672565b915061506882615cd7565b602082019050919050565b6000615080600a83615672565b915061508b82615d00565b602082019050919050565b60006150a3601083615672565b91506150ae82615d29565b602082019050919050565b60006150c6601283615672565b91506150d182615d52565b602082019050919050565b60006150e9601383615672565b91506150f482615d7b565b602082019050919050565b600061510c601a83615672565b915061511782615da4565b602082019050919050565b600061512f601783615683565b915061513a82615dcd565b601782019050919050565b6000615152601783615672565b915061515d82615df6565b602082019050919050565b6000615175601183615683565b915061518082615e1f565b601182019050919050565b6000615198602f83615672565b91506151a382615e48565b604082019050919050565b6151b781615829565b82525050565b60006151c98284614ce1565b915081905092915050565b60006151e1828486614d12565b91508190509392505050565b60006151f98284614da1565b915081905092915050565b600061520f8261502d565b9150819050919050565b600061522482615122565b91506152308285614d70565b915061523b82615168565b91506152478284614d70565b91508190509392505050565b60006020820190506152686000830184614ca5565b92915050565b60006040820190506152836000830185614ca5565b6152906020830184614ca5565b9392505050565b60006060820190506152ac6000830186614ca5565b6152b96020830185614c96565b6152c660408301846151ae565b949350505050565b60006020820190506152e36000830184614cb4565b92915050565b60006020820190506152fe6000830184614cc3565b92915050565b60006020820190506153196000830184614cd2565b92915050565b600060208201905081810360008301526153398184614d37565b905092915050565b6000602082019050818103600083015261535a81614e20565b9050919050565b6000602082019050818103600083015261537a81614e43565b9050919050565b6000602082019050818103600083015261539a81614e66565b9050919050565b600060208201905081810360008301526153ba81614e89565b9050919050565b600060208201905081810360008301526153da81614eac565b9050919050565b600060208201905081810360008301526153fa81614ecf565b9050919050565b6000602082019050818103600083015261541a81614ef2565b9050919050565b6000602082019050818103600083015261543a81614f15565b9050919050565b6000602082019050818103600083015261545a81614f38565b9050919050565b6000602082019050818103600083015261547a81614f5b565b9050919050565b6000602082019050818103600083015261549a81614f7e565b9050919050565b600060208201905081810360008301526154ba81614fa1565b9050919050565b600060208201905081810360008301526154da81614fc4565b9050919050565b600060208201905081810360008301526154fa81614fe7565b9050919050565b6000602082019050818103600083015261551a8161500a565b9050919050565b6000602082019050818103600083015261553a81615050565b9050919050565b6000602082019050818103600083015261555a81615073565b9050919050565b6000602082019050818103600083015261557a81615096565b9050919050565b6000602082019050818103600083015261559a816150b9565b9050919050565b600060208201905081810360008301526155ba816150dc565b9050919050565b600060208201905081810360008301526155da816150ff565b9050919050565b600060208201905081810360008301526155fa81615145565b9050919050565b6000602082019050818103600083015261561a8161518b565b9050919050565b600060208201905061563660008301846151ae565b92915050565b60008190508160005260206000209050919050565b600081519050919050565b600081519050919050565b600081905092915050565b600082825260208201905092915050565b600081905092915050565b600061569982615829565b91506156a483615829565b9250827fffffffffffffffffffffffffffffffffffffffffffffffffffffffffffffffff038211156156d9576156d861595d565b5b828201905092915050565b60006156ef82615829565b91506156fa83615829565b92508261570a5761570961598c565b5b828204905092915050565b600061572082615829565b915061572b83615829565b9250817fffffffffffffffffffffffffffffffffffffffffffffffffffffffffffffffff04831182151516156157645761576361595d565b5b828202905092915050565b600061577a82615829565b915061578583615829565b9250828210156157985761579761595d565b5b828203905092915050565b60006157ae82615809565b9050919050565b60006157c082615809565b9050919050565b60008115159050919050565b6000819050919050565b60007fffffffff0000000000000000000000000000000000000000000000000000000082169050919050565b600073ffffffffffffffffffffffffffffffffffffffff82169050919050565b6000819050919050565b600060ff82169050919050565b600061584b82615852565b9050919050565b600061585d82615864565b9050919050565b600061586f82615809565b9050919050565b82818337600083830152505050565b60005b838110156158a3578082015181840152602081019050615888565b838111156158b2576000848401525b50505050565b60006158c382615829565b915060008214156158d7576158d661595d565b5b600182039050919050565b600060028204905060018216806158fa57607f821691505b6020821081141561590e5761590d6159bb565b5b50919050565b600061591f82615829565b91507fffffffffffffffffffffffffffffffffffffffffffffffffffffffffffffffff8214156159525761595161595d565b5b600182019050919050565b7f4e487b7100000000000000000000000000000000000000000000000000000000600052601160045260246000fd5b7f4e487b7100000000000000000000000000000000000000000000000000000000600052601260045260246000fd5b7f4e487b7100000000000000000000000000000000000000000000000000000000600052602260045260246000fd5b6000601f19601f8301169050919050565b7f537472696e67733a20686578206c656e67746820696e73756666696369656e74600082015250565b7f4d7573742073656e64206d696e696d756d2076616c756520746f206d696e7421600082015250565b7f52656163686564206d696e74696e67206c696d69740000000000000000000000600082015250565b7f65786365646573206d696e74696e67206c696d69740000000000000000000000600082015250565b7f6e6f7420616e20455243323020636f6e74726163740000000000000000000000600082015250565b7f70726f6a65637420706175736564000000000000000000000000000000000000600082015250565b7f70726f6a656374206e6f7420726561647920666f72206c697665000000000000600082015250565b7f496e73756666696369656e742062616c616e63652e0000000000000000000000600082015250565b7f70726f6a656374206e6f74206c69766500000000000000000000000000000000600082015250565b7f6e6f74206f6e20616c6c6f776c69737400000000000000000000000000000000600082015250565b7f637572656e637920616464726573732063616e74206265207a65726f00000000600082015250565b7f6d6178207072656d696e74730000000000000000000000000000000000000000600082015250565b7f616c7265616479206c6976650000000000000000000000000000000000000000600082015250565b7f496e73756666696369656e742046756e647320417070726f76656420666f722060008201527f5458000000000000000000000000000000000000000000000000000000000000602082015250565b7f746869732070726f6a6563742061636365707473206120646966666572656e7460008201527f2063757272656e637920616e642063616e6e6f74206163636570742045544800602082015250565b7f4554480000000000000000000000000000000000000000000000000000000000600082015250565b7f6f776e65722063616e2774206265207a65726f20616464726573730000000000600082015250565b7f6f6e6c79206f776e657200000000000000000000000000000000000000000000600082015250565b7f4e6f20436f6e7472616374204275797300000000000000000000000000000000600082015250565b7f7072656d696e74732072656d61696e696e670000000000000000000000000000600082015250565b7f63616e27742062652073616d65206f776e657200000000000000000000000000600082015250565b7f65786365656473207175616e746974792072656d61696e696e67000000000000600082015250565b7f416363657373436f6e74726f6c3a206163636f756e7420000000000000000000600082015250565b7f53796d626f6c206d7573742062652070726f7669646564000000000000000000600082015250565b7f206973206d697373696e6720726f6c6520000000000000000000000000000000600082015250565b7f416363657373436f6e74726f6c3a2063616e206f6e6c792072656e6f756e636560008201527f20726f6c657320666f722073656c660000000000000000000000000000000000602082015250565b615ea0816157a3565b8114615eab57600080fd5b50565b615eb7816157b5565b8114615ec257600080fd5b50565b615ece816157c7565b8114615ed957600080fd5b50565b615ee5816157d3565b8114615ef057600080fd5b50565b615efc816157dd565b8114615f0757600080fd5b50565b615f1381615829565b8114615f1e57600080fd5b50565b615f2a81615833565b8114615f3557600080fd5b5056fea2646970667358221220b5c3d0fed161b5ef8bf79affebf158b589fb9edc1bdae8ed05c1bd77e7493b4664736f6c63430008020033",
  "linkReferences": {},
  "deployedLinkReferences": {}
}