{
  "_format": "hh-sol-artifact-1",
  "contractName": "FineShop",
  "sourceName": "contracts/FineShop.sol",
  "abi": [
    {
      "inputs": [
        {
          "internalType": "address",
          "name": "_fineCoreAddresss",
          "type": "address"
        }
      ],
      "stateMutability": "nonpayable",
      "type": "constructor"
    },
    {
      "anonymous": false,
      "inputs": [
        {
          "indexed": true,
          "internalType": "bytes32",
          "name": "role",
          "type": "bytes32"
        },
        {
          "indexed": true,
          "internalType": "bytes32",
          "name": "previousAdminRole",
          "type": "bytes32"
        },
        {
          "indexed": true,
          "internalType": "bytes32",
          "name": "newAdminRole",
          "type": "bytes32"
        }
      ],
      "name": "RoleAdminChanged",
      "type": "event"
    },
    {
      "anonymous": false,
      "inputs": [
        {
          "indexed": true,
          "internalType": "bytes32",
          "name": "role",
          "type": "bytes32"
        },
        {
          "indexed": true,
          "internalType": "address",
          "name": "account",
          "type": "address"
        },
        {
          "indexed": true,
          "internalType": "address",
          "name": "sender",
          "type": "address"
        }
      ],
      "name": "RoleGranted",
      "type": "event"
    },
    {
      "anonymous": false,
      "inputs": [
        {
          "indexed": true,
          "internalType": "bytes32",
          "name": "role",
          "type": "bytes32"
        },
        {
          "indexed": true,
          "internalType": "address",
          "name": "account",
          "type": "address"
        },
        {
          "indexed": true,
          "internalType": "address",
          "name": "sender",
          "type": "address"
        }
      ],
      "name": "RoleRevoked",
      "type": "event"
    },
    {
      "inputs": [],
      "name": "DEFAULT_ADMIN_ROLE",
      "outputs": [
        {
          "internalType": "bytes32",
          "name": "",
          "type": "bytes32"
        }
      ],
      "stateMutability": "view",
      "type": "function"
    },
    {
      "inputs": [
        {
          "internalType": "uint256",
          "name": "_projectId",
          "type": "uint256"
        },
        {
          "internalType": "address",
          "name": "minter",
          "type": "address"
        }
      ],
      "name": "addToAllowlist",
      "outputs": [],
      "stateMutability": "nonpayable",
      "type": "function"
    },
    {
      "inputs": [
        {
          "internalType": "uint256",
          "name": "_projectId",
          "type": "uint256"
        },
        {
          "internalType": "uint256",
          "name": "count",
          "type": "uint256"
        }
      ],
      "name": "buy",
      "outputs": [
        {
          "internalType": "uint256",
          "name": "",
          "type": "uint256"
        }
      ],
      "stateMutability": "payable",
      "type": "function"
    },
    {
      "inputs": [
        {
          "internalType": "uint256",
          "name": "_projectId",
          "type": "uint256"
        },
        {
          "internalType": "address",
          "name": "to",
          "type": "address"
        },
        {
          "internalType": "uint256",
          "name": "count",
          "type": "uint256"
        }
      ],
      "name": "buyFor",
      "outputs": [
        {
          "internalType": "uint256",
          "name": "",
          "type": "uint256"
        }
      ],
      "stateMutability": "payable",
      "type": "function"
    },
    {
      "inputs": [
        {
          "internalType": "uint256",
          "name": "",
          "type": "uint256"
        }
      ],
      "name": "contractFilterProject",
      "outputs": [
        {
          "internalType": "bool",
          "name": "",
          "type": "bool"
        }
      ],
      "stateMutability": "view",
      "type": "function"
    },
    {
      "inputs": [
        {
          "internalType": "bytes32",
          "name": "role",
          "type": "bytes32"
        }
      ],
      "name": "getRoleAdmin",
      "outputs": [
        {
          "internalType": "bytes32",
          "name": "",
          "type": "bytes32"
        }
      ],
      "stateMutability": "view",
      "type": "function"
    },
    {
      "inputs": [
        {
          "internalType": "uint256",
          "name": "_projectId",
          "type": "uint256"
        }
      ],
      "name": "goLive",
      "outputs": [],
      "stateMutability": "nonpayable",
      "type": "function"
    },
    {
      "inputs": [
        {
          "internalType": "bytes32",
          "name": "role",
          "type": "bytes32"
        },
        {
          "internalType": "address",
          "name": "account",
          "type": "address"
        }
      ],
      "name": "grantRole",
      "outputs": [],
      "stateMutability": "nonpayable",
      "type": "function"
    },
    {
      "inputs": [
        {
          "internalType": "bytes32",
          "name": "role",
          "type": "bytes32"
        },
        {
          "internalType": "address",
          "name": "account",
          "type": "address"
        }
      ],
      "name": "hasRole",
      "outputs": [
        {
          "internalType": "bool",
          "name": "",
          "type": "bool"
        }
      ],
      "stateMutability": "view",
      "type": "function"
    },
    {
      "inputs": [
        {
          "internalType": "uint256",
          "name": "_projectId",
          "type": "uint256"
        }
      ],
      "name": "pause",
      "outputs": [],
      "stateMutability": "nonpayable",
      "type": "function"
    },
    {
      "inputs": [
        {
          "internalType": "uint256",
          "name": "_projectId",
          "type": "uint256"
        }
      ],
      "name": "pauseAdmin",
      "outputs": [],
      "stateMutability": "nonpayable",
      "type": "function"
    },
    {
      "inputs": [
        {
          "internalType": "uint256",
          "name": "_projectId",
          "type": "uint256"
        }
      ],
      "name": "premint",
      "outputs": [
        {
          "internalType": "uint256",
          "name": "",
          "type": "uint256"
        }
      ],
      "stateMutability": "payable",
      "type": "function"
    },
    {
      "inputs": [
        {
          "internalType": "uint256",
          "name": "",
          "type": "uint256"
        },
        {
          "internalType": "address",
          "name": "",
          "type": "address"
        }
      ],
      "name": "projectAllowList",
      "outputs": [
        {
          "internalType": "bool",
          "name": "",
          "type": "bool"
        }
      ],
      "stateMutability": "view",
      "type": "function"
    },
    {
      "inputs": [
        {
          "internalType": "uint256",
          "name": "",
          "type": "uint256"
        }
      ],
      "name": "projectAllowListAllocation",
      "outputs": [
        {
          "internalType": "uint256",
          "name": "",
          "type": "uint256"
        }
      ],
      "stateMutability": "view",
      "type": "function"
    },
    {
      "inputs": [
        {
          "internalType": "uint256",
          "name": "",
          "type": "uint256"
        }
      ],
      "name": "projectBulkMintCount",
      "outputs": [
        {
          "internalType": "uint256",
          "name": "",
          "type": "uint256"
        }
      ],
      "stateMutability": "view",
      "type": "function"
    },
    {
      "inputs": [
        {
          "internalType": "uint256",
          "name": "",
          "type": "uint256"
        }
      ],
      "name": "projectCurrencyAddress",
      "outputs": [
        {
          "internalType": "address",
          "name": "",
          "type": "address"
        }
      ],
      "stateMutability": "view",
      "type": "function"
    },
    {
      "inputs": [
        {
          "internalType": "uint256",
          "name": "",
          "type": "uint256"
        }
      ],
      "name": "projectCurrencySymbol",
      "outputs": [
        {
          "internalType": "string",
          "name": "",
          "type": "string"
        }
      ],
      "stateMutability": "view",
      "type": "function"
    },
    {
      "inputs": [
        {
          "internalType": "uint256",
          "name": "",
          "type": "uint256"
        }
      ],
      "name": "projectLive",
      "outputs": [
        {
          "internalType": "bool",
          "name": "",
          "type": "bool"
        }
      ],
      "stateMutability": "view",
      "type": "function"
    },
    {
      "inputs": [
        {
          "internalType": "address",
          "name": "",
          "type": "address"
        },
        {
          "internalType": "uint256",
          "name": "",
          "type": "uint256"
        }
      ],
      "name": "projectMintCounter",
      "outputs": [
        {
          "internalType": "uint256",
          "name": "",
          "type": "uint256"
        }
      ],
      "stateMutability": "view",
      "type": "function"
    },
    {
      "inputs": [
        {
          "internalType": "uint256",
          "name": "",
          "type": "uint256"
        }
      ],
      "name": "projectMintLimit",
      "outputs": [
        {
          "internalType": "uint256",
          "name": "",
          "type": "uint256"
        }
      ],
      "stateMutability": "view",
      "type": "function"
    },
    {
      "inputs": [
        {
          "internalType": "uint256",
          "name": "",
          "type": "uint256"
        }
      ],
      "name": "projectOwner",
      "outputs": [
        {
          "internalType": "address",
          "name": "",
          "type": "address"
        }
      ],
      "stateMutability": "view",
      "type": "function"
    },
    {
      "inputs": [
        {
          "internalType": "uint256",
          "name": "",
          "type": "uint256"
        }
      ],
      "name": "projectPause",
      "outputs": [
        {
          "internalType": "bool",
          "name": "",
          "type": "bool"
        }
      ],
      "stateMutability": "view",
      "type": "function"
    },
    {
      "inputs": [
        {
          "internalType": "uint256",
          "name": "",
          "type": "uint256"
        }
      ],
      "name": "projectPremintAllocation",
      "outputs": [
        {
          "internalType": "uint256",
          "name": "",
          "type": "uint256"
        }
      ],
      "stateMutability": "view",
      "type": "function"
    },
    {
      "inputs": [
        {
          "internalType": "uint256",
          "name": "",
          "type": "uint256"
        }
      ],
      "name": "projectPrice",
      "outputs": [
        {
          "internalType": "uint256",
          "name": "",
          "type": "uint256"
        }
      ],
      "stateMutability": "view",
      "type": "function"
    },
    {
      "inputs": [
        {
          "internalType": "uint256",
          "name": "",
          "type": "uint256"
        }
      ],
      "name": "projectReadyForLive",
      "outputs": [
        {
          "internalType": "bool",
          "name": "",
          "type": "bool"
        }
      ],
      "stateMutability": "view",
      "type": "function"
    },
    {
      "inputs": [
        {
          "internalType": "uint256",
          "name": "_projectId",
          "type": "uint256"
        },
        {
          "internalType": "address",
          "name": "to",
          "type": "address"
        },
        {
          "internalType": "uint256",
          "name": "count",
          "type": "uint256"
        }
      ],
      "name": "purchaseTo",
      "outputs": [
        {
          "internalType": "uint256",
          "name": "",
          "type": "uint256"
        }
      ],
      "stateMutability": "payable",
      "type": "function"
    },
    {
      "inputs": [
        {
          "internalType": "uint256",
          "name": "_projectId",
          "type": "uint256"
        },
        {
          "internalType": "address",
          "name": "newOwner",
          "type": "address"
        },
        {
          "internalType": "bool",
          "name": "contractFilter",
          "type": "bool"
        },
        {
          "internalType": "uint256",
          "name": "_bulk",
          "type": "uint256"
        },
        {
          "internalType": "uint256",
          "name": "_limit",
          "type": "uint256"
        }
      ],
      "name": "quickInit",
      "outputs": [],
      "stateMutability": "nonpayable",
      "type": "function"
    },
    {
      "inputs": [
        {
          "internalType": "uint256",
          "name": "_projectId",
          "type": "uint256"
        },
        {
          "internalType": "string",
          "name": "_symbol",
          "type": "string"
        },
        {
          "internalType": "address",
          "name": "_contract",
          "type": "address"
        },
        {
          "internalType": "uint256",
          "name": "_price",
          "type": "uint256"
        },
        {
          "internalType": "uint256",
          "name": "_premints",
          "type": "uint256"
        },
        {
          "internalType": "uint256",
          "name": "_allowlists",
          "type": "uint256"
        }
      ],
      "name": "quickSet",
      "outputs": [],
      "stateMutability": "nonpayable",
      "type": "function"
    },
    {
      "inputs": [
        {
          "internalType": "uint256",
          "name": "_projectId",
          "type": "uint256"
        },
        {
          "internalType": "address",
          "name": "minter",
          "type": "address"
        }
      ],
      "name": "removeFromAllowlist",
      "outputs": [],
      "stateMutability": "nonpayable",
      "type": "function"
    },
    {
      "inputs": [
        {
          "internalType": "bytes32",
          "name": "role",
          "type": "bytes32"
        },
        {
          "internalType": "address",
          "name": "account",
          "type": "address"
        }
      ],
      "name": "renounceRole",
      "outputs": [],
      "stateMutability": "nonpayable",
      "type": "function"
    },
    {
      "inputs": [
        {
          "internalType": "bytes32",
          "name": "role",
          "type": "bytes32"
        },
        {
          "internalType": "address",
          "name": "account",
          "type": "address"
        }
      ],
      "name": "revokeRole",
      "outputs": [],
      "stateMutability": "nonpayable",
      "type": "function"
    },
    {
      "inputs": [
        {
          "internalType": "uint256",
          "name": "_projectId",
          "type": "uint256"
        },
        {
          "internalType": "uint256",
          "name": "spots",
          "type": "uint256"
        }
      ],
      "name": "setAllowlistSpots",
      "outputs": [],
      "stateMutability": "nonpayable",
      "type": "function"
    },
    {
      "inputs": [
        {
          "internalType": "uint256",
          "name": "_projectId",
          "type": "uint256"
        },
        {
          "internalType": "string",
          "name": "_symbol",
          "type": "string"
        },
        {
          "internalType": "address",
          "name": "_contract",
          "type": "address"
        }
      ],
      "name": "setCurrency",
      "outputs": [],
      "stateMutability": "nonpayable",
      "type": "function"
    },
    {
      "inputs": [
        {
          "internalType": "uint256",
          "name": "_projectId",
          "type": "uint256"
        }
      ],
      "name": "setCurrencyToETH",
      "outputs": [],
      "stateMutability": "nonpayable",
      "type": "function"
    },
    {
      "inputs": [
        {
          "internalType": "uint256",
          "name": "_projectId",
          "type": "uint256"
        },
        {
          "internalType": "address",
          "name": "newOwner",
          "type": "address"
        }
      ],
      "name": "setOwner",
      "outputs": [],
      "stateMutability": "nonpayable",
      "type": "function"
    },
    {
      "inputs": [
        {
          "internalType": "uint256",
          "name": "_projectId",
          "type": "uint256"
        },
        {
          "internalType": "uint256",
          "name": "premints",
          "type": "uint256"
        }
      ],
      "name": "setPremints",
      "outputs": [],
      "stateMutability": "nonpayable",
      "type": "function"
    },
    {
      "inputs": [
        {
          "internalType": "uint256",
          "name": "_projectId",
          "type": "uint256"
        },
        {
          "internalType": "uint256",
          "name": "price",
          "type": "uint256"
        }
      ],
      "name": "setPrice",
      "outputs": [],
      "stateMutability": "nonpayable",
      "type": "function"
    },
    {
      "inputs": [
        {
          "internalType": "uint256",
          "name": "_projectId",
          "type": "uint256"
        },
        {
          "internalType": "uint8",
          "name": "_count",
          "type": "uint8"
        }
      ],
      "name": "setProjectBulkMintCount",
      "outputs": [],
      "stateMutability": "nonpayable",
      "type": "function"
    },
    {
      "inputs": [
        {
          "internalType": "uint256",
          "name": "_projectId",
          "type": "uint256"
        },
        {
          "internalType": "uint8",
          "name": "_limit",
          "type": "uint8"
        }
      ],
      "name": "setProjectMintLimit",
      "outputs": [],
      "stateMutability": "nonpayable",
      "type": "function"
    },
    {
      "inputs": [
        {
          "internalType": "bytes4",
          "name": "interfaceId",
          "type": "bytes4"
        }
      ],
      "name": "supportsInterface",
      "outputs": [
        {
          "internalType": "bool",
          "name": "",
          "type": "bool"
        }
      ],
      "stateMutability": "view",
      "type": "function"
    },
    {
      "inputs": [
        {
          "internalType": "uint256",
          "name": "_projectId",
          "type": "uint256"
        }
      ],
      "name": "toggleContractFilter",
      "outputs": [],
      "stateMutability": "nonpayable",
      "type": "function"
    },
    {
      "inputs": [
        {
          "internalType": "uint256",
          "name": "_projectId",
          "type": "uint256"
        }
      ],
      "name": "unpause",
      "outputs": [],
      "stateMutability": "nonpayable",
      "type": "function"
    },
    {
      "inputs": [
        {
          "internalType": "uint256",
          "name": "_projectId",
          "type": "uint256"
        }
      ],
      "name": "unpauseAdmin",
      "outputs": [],
      "stateMutability": "nonpayable",
      "type": "function"
    }
  ],
  "bytecode": "0x60806040523480156200001157600080fd5b50604051620061f9380380620061f983398181016040528101906200003791906200020e565b6200004c6000801b336200009460201b60201c565b80600160006101000a81548173ffffffffffffffffffffffffffffffffffffffff021916908373ffffffffffffffffffffffffffffffffffffffff1602179055505062000288565b620000a682826200018560201b60201c565b6200018157600160008084815260200190815260200160002060000160008373ffffffffffffffffffffffffffffffffffffffff1673ffffffffffffffffffffffffffffffffffffffff16815260200190815260200160002060006101000a81548160ff02191690831515021790555062000126620001ef60201b60201c565b73ffffffffffffffffffffffffffffffffffffffff168173ffffffffffffffffffffffffffffffffffffffff16837f2f8788117e7eff1d82e926ec794901d17c78024a50270940304540a733656f0d60405160405180910390a45b5050565b600080600084815260200190815260200160002060000160008373ffffffffffffffffffffffffffffffffffffffff1673ffffffffffffffffffffffffffffffffffffffff16815260200190815260200160002060009054906101000a900460ff16905092915050565b600033905090565b60008151905062000208816200026e565b92915050565b6000602082840312156200022157600080fd5b60006200023184828501620001f7565b91505092915050565b600062000247826200024e565b9050919050565b600073ffffffffffffffffffffffffffffffffffffffff82169050919050565b62000279816200023a565b81146200028557600080fd5b50565b615f6180620002986000396000f3fe60806040526004361061025c5760003560e01c806391943b5511610144578063bd33f081116100b6578063dc3d886f1161007a578063dc3d886f14610984578063f38ad964146109ad578063f7d97577146109ea578063f9f96b9e14610a13578063fabc1cbc14610a50578063fce223b414610a795761025c565b8063bd33f081146108b0578063ca2660fd146108d9578063d1b5bd6a14610902578063d547741f1461092b578063d6febde8146109545761025c565b8063a217fddf11610108578063a217fddf1461077c578063a47f9092146107a7578063ac26e4c9146107e4578063ad286a9c14610821578063b137479d1461085e578063b5656185146108875761025c565b806391943b551461067957806391d14854146106a95780639c0e6e1f146106e65780639d5aef30146107235780639f270c22146107535761025c565b806336568abe116101dd57806362f7a7ed116101a157806362f7a7ed146105475780636ddd9f201461058457806370a90551146105c157806376dad91a146105ea5780637fd392471461061357806389fe08f81461063c5761025c565b806336568abe1461043e5780633a4657b414610467578063531b14b9146104a4578063569f6f92146104e157806358bd42e11461050a5761025c565b8063248a9ca311610224578063248a9ca314610342578063287f5fb71461037f5780632f2ff15d146103bc578063314398d8146103e557806335ddcfcd146104155761025c565b806301ffc9a7146102615780630ad1d81c1461029e578063128e1c5b146102c7578063136439dd146102f0578063231c228114610319575b600080fd5b34801561026d57600080fd5b5061028860048036038101906102839190614981565b610ab6565b60405161029591906152c1565b60405180910390f35b3480156102aa57600080fd5b506102c560048036038101906102c091906149aa565b610b30565b005b3480156102d357600080fd5b506102ee60048036038101906102e99190614afe565b610c01565b005b3480156102fc57600080fd5b50610317600480360381019061031291906149aa565b610e38565b005b34801561032557600080fd5b50610340600480360381019061033b9190614c4d565b610f0a565b005b34801561034e57600080fd5b506103696004803603810190610364919061491c565b610f3f565b60405161037691906152dc565b60405180910390f35b34801561038b57600080fd5b506103a660048036038101906103a191906149aa565b610f5e565b6040516103b39190615246565b60405180910390f35b3480156103c857600080fd5b506103e360048036038101906103de9190614945565b610f91565b005b6103ff60048036038101906103fa9190614aaf565b610fba565b60405161040c9190615614565b60405180910390f35b34801561042157600080fd5b5061043c60048036038101906104379190614b6a565b610fd0565b005b34801561044a57600080fd5b5061046560048036038101906104609190614945565b61135a565b005b34801561047357600080fd5b5061048e600480360381019061048991906148b7565b6113dd565b60405161049b9190615614565b60405180910390f35b3480156104b057600080fd5b506104cb60048036038101906104c691906149aa565b611402565b6040516104d89190615312565b60405180910390f35b3480156104ed57600080fd5b50610508600480360381019061050391906149aa565b6114a2565b005b34801561051657600080fd5b50610531600480360381019061052c91906149aa565b611507565b60405161053e91906152c1565b60405180910390f35b34801561055357600080fd5b5061056e600480360381019061056991906149aa565b611527565b60405161057b9190615614565b60405180910390f35b34801561059057600080fd5b506105ab60048036038101906105a691906149aa565b61153f565b6040516105b89190615614565b60405180910390f35b3480156105cd57600080fd5b506105e860048036038101906105e391906149fc565b611557565b005b3480156105f657600080fd5b50610611600480360381019061060c9190614a38565b611667565b005b34801561061f57600080fd5b5061063a600480360381019061063591906149fc565b6117a1565b005b34801561064857600080fd5b50610663600480360381019061065e91906149aa565b61191f565b6040516106709190615246565b60405180910390f35b610693600480360381019061068e9190614aaf565b611952565b6040516106a09190615614565b60405180910390f35b3480156106b557600080fd5b506106d060048036038101906106cb9190614945565b61213a565b6040516106dd91906152c1565b60405180910390f35b3480156106f257600080fd5b5061070d600480360381019061070891906149aa565b6121a4565b60405161071a9190615614565b60405180910390f35b61073d600480360381019061073891906149aa565b6121bc565b60405161074a9190615614565b60405180910390f35b34801561075f57600080fd5b5061077a600480360381019061077591906149aa565b6124df565b005b34801561078857600080fd5b50610791612524565b60405161079e91906152dc565b60405180910390f35b3480156107b357600080fd5b506107ce60048036038101906107c991906149fc565b61252b565b6040516107db91906152c1565b60405180910390f35b3480156107f057600080fd5b5061080b600480360381019061080691906149aa565b61255a565b60405161081891906152c1565b60405180910390f35b34801561082d57600080fd5b50610848600480360381019061084391906149aa565b61257a565b6040516108559190615614565b60405180910390f35b34801561086a57600080fd5b50610885600480360381019061088091906149aa565b612592565b005b34801561089357600080fd5b506108ae60048036038101906108a99190614c4d565b6125d7565b005b3480156108bc57600080fd5b506108d760048036038101906108d291906149aa565b61260c565b005b3480156108e557600080fd5b5061090060048036038101906108fb91906149fc565b6127c5565b005b34801561090e57600080fd5b5061092960048036038101906109249190614c11565b6128d5565b005b34801561093757600080fd5b50610952600480360381019061094d9190614945565b6129f7565b005b61096e60048036038101906109699190614c11565b612a20565b60405161097b9190615614565b60405180910390f35b34801561099057600080fd5b506109ab60048036038101906109a69190614c11565b612a35565b005b3480156109b957600080fd5b506109d460048036038101906109cf91906149aa565b612b57565b6040516109e19190615614565b60405180910390f35b3480156109f657600080fd5b50610a116004803603810190610a0c9190614c11565b612b6f565b005b348015610a1f57600080fd5b50610a3a6004803603810190610a3591906149aa565b612c91565b604051610a4791906152c1565b60405180910390f35b348015610a5c57600080fd5b50610a776004803603810190610a7291906149aa565b612cb1565b005b348015610a8557600080fd5b50610aa06004803603810190610a9b91906149aa565b612d83565b604051610aad91906152c1565b60405180910390f35b60007f7965db0b000000000000000000000000000000000000000000000000000000007bffffffffffffffffffffffffffffffffffffffffffffffffffffffff1916827bffffffffffffffffffffffffffffffffffffffffffffffffffffffff19161480610b295750610b2882612da3565b5b9050919050565b6000801b610b4581610b40612e0d565b612e15565b600f600083815260200190815260200160002060009054906101000a900460ff16610ba5576040517f08c379a0000000000000000000000000000000000000000000000000000000008152600401610b9c906153f4565b60405180910390fd5b60016008600084815260200190815260200160002060006101000a81548160ff02191690831515021790555060016009600084815260200190815260200160002060006101000a81548160ff0219169083151502179055505050565b836002600082815260200190815260200160002060009054906101000a900473ffffffffffffffffffffffffffffffffffffffff1673ffffffffffffffffffffffffffffffffffffffff163373ffffffffffffffffffffffffffffffffffffffff1614610ca3576040517f08c379a0000000000000000000000000000000000000000000000000000000008152600401610c9a90615534565b60405180910390fd5b846008600082815260200190815260200160002060009054906101000a900460ff1615610d05576040517f08c379a0000000000000000000000000000000000000000000000000000000008152600401610cfc906154b4565b60405180910390fd5b60008585905011610d4b576040517f08c379a0000000000000000000000000000000000000000000000000000000008152600401610d42906155d4565b60405180910390fd5b600073ffffffffffffffffffffffffffffffffffffffff168373ffffffffffffffffffffffffffffffffffffffff161415610dbb576040517f08c379a0000000000000000000000000000000000000000000000000000000008152600401610db290615474565b60405180910390fd5b8484600660008981526020019081526020016000209190610ddd929190614620565b50826005600088815260200190815260200160002060006101000a81548173ffffffffffffffffffffffffffffffffffffffff021916908373ffffffffffffffffffffffffffffffffffffffff160217905550505050505050565b806002600082815260200190815260200160002060009054906101000a900473ffffffffffffffffffffffffffffffffffffffff1673ffffffffffffffffffffffffffffffffffffffff163373ffffffffffffffffffffffffffffffffffffffff1614610eda576040517f08c379a0000000000000000000000000000000000000000000000000000000008152600401610ed190615534565b60405180910390fd5b60016009600084815260200190815260200160002060006101000a81548160ff0219169083151502179055505050565b6000801b610f1f81610f1a612e0d565b612e15565b8160ff16600c600085815260200190815260200160002081905550505050565b6000806000838152602001908152602001600020600101549050919050565b60056020528060005260406000206000915054906101000a900473ffffffffffffffffffffffffffffffffffffffff1681565b610f9a82610f3f565b610fab81610fa6612e0d565b612e15565b610fb58383612eb2565b505050565b6000610fc7848484611952565b90509392505050565b866002600082815260200190815260200160002060009054906101000a900473ffffffffffffffffffffffffffffffffffffffff1673ffffffffffffffffffffffffffffffffffffffff163373ffffffffffffffffffffffffffffffffffffffff1614611072576040517f08c379a000000000000000000000000000000000000000000000000000000000815260040161106990615534565b60405180910390fd5b876008600082815260200190815260200160002060009054906101000a900460ff16156110d4576040517f08c379a00000000000000000000000000000000000000000000000000000000081526004016110cb906154b4565b60405180910390fd5b6000888890501161111a576040517f08c379a0000000000000000000000000000000000000000000000000000000008152600401611111906155d4565b60405180910390fd5b604051602001611129906151f7565b6040516020818303038152906040528051906020012088886040516020016111529291906151c7565b604051602081830303815290604052805190602001201461126657600073ffffffffffffffffffffffffffffffffffffffff168673ffffffffffffffffffffffffffffffffffffffff1614156111dd576040517f08c379a00000000000000000000000000000000000000000000000000000000081526004016111d490615474565b60405180910390fd5b6112267f36372b07000000000000000000000000000000000000000000000000000000008773ffffffffffffffffffffffffffffffffffffffff16612f9290919063ffffffff16565b611265576040517f08c379a000000000000000000000000000000000000000000000000000000000815260040161125c906153b4565b60405180910390fd5b5b8787600660008c81526020019081526020016000209190611288929190614620565b5085600560008b815260200190815260200160002060006101000a81548173ffffffffffffffffffffffffffffffffffffffff021916908373ffffffffffffffffffffffffffffffffffffffff16021790555084600460008b81526020019081526020016000208190555083600360008b81526020019081526020016000208190555082600e60008b8152602001908152602001600020819055506001600f60008b815260200190815260200160002060006101000a81548160ff021916908315150217905550505050505050505050565b611362612e0d565b73ffffffffffffffffffffffffffffffffffffffff168173ffffffffffffffffffffffffffffffffffffffff16146113cf576040517f08c379a00000000000000000000000000000000000000000000000000000000081526004016113c6906155f4565b60405180910390fd5b6113d98282612fb7565b5050565b600b602052816000526040600020602052806000526040600020600091509150505481565b60066020528060005260406000206000915090508054611421906158d5565b80601f016020809104026020016040519081016040528092919081815260200182805461144d906158d5565b801561149a5780601f1061146f5761010080835404028352916020019161149a565b820191906000526020600020905b81548152906001019060200180831161147d57829003601f168201915b505050505081565b6000801b6114b7816114b2612e0d565b612e15565b600a600083815260200190815260200160002060009054906101000a900460ff1615600a600084815260200190815260200160002060006101000a81548160ff0219169083151502179055505050565b600f6020528060005260406000206000915054906101000a900460ff1681565b600c6020528060005260406000206000915090505481565b60076020528060005260406000206000915090505481565b816002600082815260200190815260200160002060009054906101000a900473ffffffffffffffffffffffffffffffffffffffff1673ffffffffffffffffffffffffffffffffffffffff163373ffffffffffffffffffffffffffffffffffffffff16146115f9576040517f08c379a00000000000000000000000000000000000000000000000000000000081526004016115f090615534565b60405180910390fd5b6001600d600085815260200190815260200160002060008473ffffffffffffffffffffffffffffffffffffffff1673ffffffffffffffffffffffffffffffffffffffff16815260200190815260200160002060006101000a81548160ff021916908315150217905550505050565b6000801b61167c81611677612e0d565b612e15565b600073ffffffffffffffffffffffffffffffffffffffff168573ffffffffffffffffffffffffffffffffffffffff1614156116ec576040517f08c379a00000000000000000000000000000000000000000000000000000000081526004016116e390615514565b60405180910390fd5b846002600088815260200190815260200160002060006101000a81548173ffffffffffffffffffffffffffffffffffffffff021916908373ffffffffffffffffffffffffffffffffffffffff16021790555083600a600088815260200190815260200160002060006101000a81548160ff02191690831515021790555082600760008881526020019081526020016000208190555081600c600088815260200190815260200160002081905550505050505050565b6000801b6117b6816117b1612e0d565b612e15565b8173ffffffffffffffffffffffffffffffffffffffff166002600085815260200190815260200160002060009054906101000a900473ffffffffffffffffffffffffffffffffffffffff1673ffffffffffffffffffffffffffffffffffffffff161415611858576040517f08c379a000000000000000000000000000000000000000000000000000000000815260040161184f90615594565b60405180910390fd5b600073ffffffffffffffffffffffffffffffffffffffff168273ffffffffffffffffffffffffffffffffffffffff1614156118c8576040517f08c379a00000000000000000000000000000000000000000000000000000000081526004016118bf90615514565b60405180910390fd5b816002600085815260200190815260200160002060006101000a81548173ffffffffffffffffffffffffffffffffffffffff021916908373ffffffffffffffffffffffffffffffffffffffff160217905550505050565b60026020528060005260406000206000915054906101000a900473ffffffffffffffffffffffffffffffffffffffff1681565b60006008600085815260200190815260200160002060009054906101000a900460ff166119b4576040517f08c379a00000000000000000000000000000000000000000000000000000000081526004016119ab90615434565b60405180910390fd5b6009600085815260200190815260200160002060009054906101000a900460ff1615611a15576040517f08c379a0000000000000000000000000000000000000000000000000000000008152600401611a0c906153d4565b60405180910390fd5b6000600160009054906101000a900473ffffffffffffffffffffffffffffffffffffffff1673ffffffffffffffffffffffffffffffffffffffff16634ca3e9b8866040518263ffffffff1660e01b8152600401611a729190615614565b60206040518083038186803b158015611a8a57600080fd5b505afa158015611a9e573d6000803e3d6000fd5b505050506040513d601f19601f82011682018060405250810190611ac29190614865565b905060036000868152602001908152602001600020548173ffffffffffffffffffffffffffffffffffffffff166318160ddd6040518163ffffffff1660e01b815260040160206040518083038186803b158015611b1e57600080fd5b505afa158015611b32573d6000803e3d6000fd5b505050506040513d601f19601f82011682018060405250810190611b5691906149d3565b1015611b97576040517f08c379a0000000000000000000000000000000000000000000000000000000008152600401611b8e90615574565b60405180910390fd5b600060076000878152602001908152602001600020541115611c0a576007600086815260200190815260200160002054831115611c09576040517f08c379a0000000000000000000000000000000000000000000000000000000008152600401611c0090615394565b60405180910390fd5b5b600a600086815260200190815260200160002060009054906101000a900460ff1615611c9f573273ffffffffffffffffffffffffffffffffffffffff163373ffffffffffffffffffffffffffffffffffffffff1614611c9e576040517f08c379a0000000000000000000000000000000000000000000000000000000008152600401611c9590615554565b60405180910390fd5b5b6000600c6000878152602001908152602001600020541115611dc757600c600086815260200190815260200160002054600b60003373ffffffffffffffffffffffffffffffffffffffff1673ffffffffffffffffffffffffffffffffffffffff16815260200190815260200160002060008781526020019081526020016000205410611d60576040517f08c379a0000000000000000000000000000000000000000000000000000000008152600401611d5790615374565b60405180910390fd5b600b60003373ffffffffffffffffffffffffffffffffffffffff1673ffffffffffffffffffffffffffffffffffffffff16815260200190815260200160002060008681526020019081526020016000206000815480929190611dc190615907565b91905055505b6000600e600087815260200190815260200160002054118015611e9757506003600086815260200190815260200160002054600e600087815260200190815260200160002054611e179190615681565b8173ffffffffffffffffffffffffffffffffffffffff166318160ddd6040518163ffffffff1660e01b815260040160206040518083038186803b158015611e5d57600080fd5b505afa158015611e71573d6000803e3d6000fd5b505050506040513d601f19601f82011682018060405250810190611e9591906149d3565b105b15611f3a57600d600086815260200190815260200160002060003373ffffffffffffffffffffffffffffffffffffffff1673ffffffffffffffffffffffffffffffffffffffff16815260200190815260200160002060009054906101000a900460ff16611f39576040517f08c379a0000000000000000000000000000000000000000000000000000000008152600401611f3090615454565b60405180910390fd5b5b611f448584613098565b60008173ffffffffffffffffffffffffffffffffffffffff1663284855866040518163ffffffff1660e01b815260040160206040518083038186803b158015611f8c57600080fd5b505afa158015611fa0573d6000803e3d6000fd5b505050506040513d601f19601f82011682018060405250810190611fc491906149d3565b8273ffffffffffffffffffffffffffffffffffffffff166318160ddd6040518163ffffffff1660e01b815260040160206040518083038186803b15801561200a57600080fd5b505afa15801561201e573d6000803e3d6000fd5b505050506040513d601f19601f8201168201806040525081019061204291906149d3565b10612082576040517f08c379a0000000000000000000000000000000000000000000000000000000008152600401612079906155b4565b60405180910390fd5b60005b8481101561212d578273ffffffffffffffffffffffffffffffffffffffff16636a627842876040518263ffffffff1660e01b81526004016120c69190615246565b602060405180830381600087803b1580156120e057600080fd5b505af11580156120f4573d6000803e3d6000fd5b505050506040513d601f19601f8201168201806040525081019061211891906149d3565b9150808061212590615907565b915050612085565b5080925050509392505050565b600080600084815260200190815260200160002060000160008373ffffffffffffffffffffffffffffffffffffffff1673ffffffffffffffffffffffffffffffffffffffff16815260200190815260200160002060009054906101000a900460ff16905092915050565b60036020528060005260406000206000915090505481565b60006008600083815260200190815260200160002060009054906101000a900460ff1661221e576040517f08c379a000000000000000000000000000000000000000000000000000000000815260040161221590615434565b60405180910390fd5b6002600083815260200190815260200160002060009054906101000a900473ffffffffffffffffffffffffffffffffffffffff1673ffffffffffffffffffffffffffffffffffffffff163373ffffffffffffffffffffffffffffffffffffffff16146122bf576040517f08c379a00000000000000000000000000000000000000000000000000000000081526004016122b690615534565b60405180910390fd5b6000600160009054906101000a900473ffffffffffffffffffffffffffffffffffffffff1673ffffffffffffffffffffffffffffffffffffffff16634ca3e9b8846040518263ffffffff1660e01b815260040161231c9190615614565b60206040518083038186803b15801561233457600080fd5b505afa158015612348573d6000803e3d6000fd5b505050506040513d601f19601f8201168201806040525081019061236c9190614865565b905060036000848152602001908152602001600020548173ffffffffffffffffffffffffffffffffffffffff166318160ddd6040518163ffffffff1660e01b815260040160206040518083038186803b1580156123c857600080fd5b505afa1580156123dc573d6000803e3d6000fd5b505050506040513d601f19601f8201168201806040525081019061240091906149d3565b10612440576040517f08c379a000000000000000000000000000000000000000000000000000000000815260040161243790615494565b60405180910390fd5b600033905060008273ffffffffffffffffffffffffffffffffffffffff16636a627842836040518263ffffffff1660e01b81526004016124809190615246565b602060405180830381600087803b15801561249a57600080fd5b505af11580156124ae573d6000803e3d6000fd5b505050506040513d601f19601f820116820180604052508101906124d291906149d3565b9050809350505050919050565b6000801b6124f4816124ef612e0d565b612e15565b60006009600084815260200190815260200160002060006101000a81548160ff0219169083151502179055505050565b6000801b81565b600d6020528160005260406000206020528060005260406000206000915091509054906101000a900460ff1681565b60086020528060005260406000206000915054906101000a900460ff1681565b60046020528060005260406000206000915090505481565b6000801b6125a7816125a2612e0d565b612e15565b60016009600084815260200190815260200160002060006101000a81548160ff0219169083151502179055505050565b6000801b6125ec816125e7612e0d565b612e15565b8160ff166007600085815260200190815260200160002081905550505050565b806002600082815260200190815260200160002060009054906101000a900473ffffffffffffffffffffffffffffffffffffffff1673ffffffffffffffffffffffffffffffffffffffff163373ffffffffffffffffffffffffffffffffffffffff16146126ae576040517f08c379a00000000000000000000000000000000000000000000000000000000081526004016126a590615534565b60405180910390fd5b816008600082815260200190815260200160002060009054906101000a900460ff1615612710576040517f08c379a0000000000000000000000000000000000000000000000000000000008152600401612707906154b4565b60405180910390fd5b6040518060400160405280600381526020017f455448000000000000000000000000000000000000000000000000000000000081525060066000858152602001908152602001600020908051906020019061276c9291906146a6565b5060006005600085815260200190815260200160002060006101000a81548173ffffffffffffffffffffffffffffffffffffffff021916908373ffffffffffffffffffffffffffffffffffffffff160217905550505050565b816002600082815260200190815260200160002060009054906101000a900473ffffffffffffffffffffffffffffffffffffffff1673ffffffffffffffffffffffffffffffffffffffff163373ffffffffffffffffffffffffffffffffffffffff1614612867576040517f08c379a000000000000000000000000000000000000000000000000000000000815260040161285e90615534565b60405180910390fd5b6000600d600085815260200190815260200160002060008473ffffffffffffffffffffffffffffffffffffffff1673ffffffffffffffffffffffffffffffffffffffff16815260200190815260200160002060006101000a81548160ff021916908315150217905550505050565b816002600082815260200190815260200160002060009054906101000a900473ffffffffffffffffffffffffffffffffffffffff1673ffffffffffffffffffffffffffffffffffffffff163373ffffffffffffffffffffffffffffffffffffffff1614612977576040517f08c379a000000000000000000000000000000000000000000000000000000000815260040161296e90615534565b60405180910390fd5b826008600082815260200190815260200160002060009054906101000a900460ff16156129d9576040517f08c379a00000000000000000000000000000000000000000000000000000000081526004016129d0906154b4565b60405180910390fd5b82600e60008681526020019081526020016000208190555050505050565b612a0082610f3f565b612a1181612a0c612e0d565b612e15565b612a1b8383612fb7565b505050565b6000612a2d833384611952565b905092915050565b816002600082815260200190815260200160002060009054906101000a900473ffffffffffffffffffffffffffffffffffffffff1673ffffffffffffffffffffffffffffffffffffffff163373ffffffffffffffffffffffffffffffffffffffff1614612ad7576040517f08c379a0000000000000000000000000000000000000000000000000000000008152600401612ace90615534565b60405180910390fd5b826008600082815260200190815260200160002060009054906101000a900460ff1615612b39576040517f08c379a0000000000000000000000000000000000000000000000000000000008152600401612b30906154b4565b60405180910390fd5b82600360008681526020019081526020016000208190555050505050565b600e6020528060005260406000206000915090505481565b816002600082815260200190815260200160002060009054906101000a900473ffffffffffffffffffffffffffffffffffffffff1673ffffffffffffffffffffffffffffffffffffffff163373ffffffffffffffffffffffffffffffffffffffff1614612c11576040517f08c379a0000000000000000000000000000000000000000000000000000000008152600401612c0890615534565b60405180910390fd5b826008600082815260200190815260200160002060009054906101000a900460ff1615612c73576040517f08c379a0000000000000000000000000000000000000000000000000000000008152600401612c6a906154b4565b60405180910390fd5b82600460008681526020019081526020016000208190555050505050565b600a6020528060005260406000206000915054906101000a900460ff1681565b806002600082815260200190815260200160002060009054906101000a900473ffffffffffffffffffffffffffffffffffffffff1673ffffffffffffffffffffffffffffffffffffffff163373ffffffffffffffffffffffffffffffffffffffff1614612d53576040517f08c379a0000000000000000000000000000000000000000000000000000000008152600401612d4a90615534565b60405180910390fd5b60006009600084815260200190815260200160002060006101000a81548160ff0219169083151502179055505050565b60096020528060005260406000206000915054906101000a900460ff1681565b60007f01ffc9a7000000000000000000000000000000000000000000000000000000007bffffffffffffffffffffffffffffffffffffffffffffffffffffffff1916827bffffffffffffffffffffffffffffffffffffffffffffffffffffffff1916149050919050565b600033905090565b612e1f828261213a565b612eae57612e448173ffffffffffffffffffffffffffffffffffffffff1660146133c8565b612e528360001c60206133c8565b604051602001612e6392919061520c565b6040516020818303038152906040526040517f08c379a0000000000000000000000000000000000000000000000000000000008152600401612ea59190615312565b60405180910390fd5b5050565b612ebc828261213a565b612f8e57600160008084815260200190815260200160002060000160008373ffffffffffffffffffffffffffffffffffffffff1673ffffffffffffffffffffffffffffffffffffffff16815260200190815260200160002060006101000a81548160ff021916908315150217905550612f33612e0d565b73ffffffffffffffffffffffffffffffffffffffff168173ffffffffffffffffffffffffffffffffffffffff16837f2f8788117e7eff1d82e926ec794901d17c78024a50270940304540a733656f0d60405160405180910390a45b5050565b6000612f9d836136c2565b8015612faf5750612fae838361370f565b5b905092915050565b612fc1828261213a565b1561309457600080600084815260200190815260200160002060000160008373ffffffffffffffffffffffffffffffffffffffff1673ffffffffffffffffffffffffffffffffffffffff16815260200190815260200160002060006101000a81548160ff021916908315150217905550613039612e0d565b73ffffffffffffffffffffffffffffffffffffffff168173ffffffffffffffffffffffffffffffffffffffff16837ff6391f5c32d9c69d2a47ea670b442974b53935d1edc7fd64eb21e047a839171b60405160405180910390a45b5050565b60006130c082600460008681526020019081526020016000205461383a90919063ffffffff16565b90506040516020016130d1906151f7565b604051602081830303815290604052805190602001206006600085815260200190815260200160002060405160200161310a91906151e0565b60405160208183030381529060405280519060200120146133755760003414613168576040517f08c379a000000000000000000000000000000000000000000000000000000000815260040161315f906154f4565b60405180910390fd5b806005600085815260200190815260200160002060009054906101000a900473ffffffffffffffffffffffffffffffffffffffff1673ffffffffffffffffffffffffffffffffffffffff1663dd62ed3e33306040518363ffffffff1660e01b81526004016131d7929190615261565b60206040518083038186803b1580156131ef57600080fd5b505afa158015613203573d6000803e3d6000fd5b505050506040513d601f19601f8201168201806040525081019061322791906149d3565b1015613268576040517f08c379a000000000000000000000000000000000000000000000000000000000815260040161325f906154d4565b60405180910390fd5b806005600085815260200190815260200160002060009054906101000a900473ffffffffffffffffffffffffffffffffffffffff1673ffffffffffffffffffffffffffffffffffffffff166370a08231336040518263ffffffff1660e01b81526004016132d59190615246565b60206040518083038186803b1580156132ed57600080fd5b505afa158015613301573d6000803e3d6000fd5b505050506040513d601f19601f8201168201806040525081019061332591906149d3565b1015613366576040517f08c379a000000000000000000000000000000000000000000000000000000000815260040161335d90615414565b60405180910390fd5b6133708383613850565b6133c3565b803410156133b8576040517f08c379a00000000000000000000000000000000000000000000000000000000081526004016133af90615354565b60405180910390fd5b6133c28383613fe2565b5b505050565b6060600060028360026133db9190615708565b6133e59190615681565b67ffffffffffffffff811115613424577f4e487b7100000000000000000000000000000000000000000000000000000000600052604160045260246000fd5b6040519080825280601f01601f1916602001820160405280156134565781602001600182028036833780820191505090505b5090507f3000000000000000000000000000000000000000000000000000000000000000816000815181106134b4577f4e487b7100000000000000000000000000000000000000000000000000000000600052603260045260246000fd5b60200101907effffffffffffffffffffffffffffffffffffffffffffffffffffffffffffff1916908160001a9053507f78000000000000000000000000000000000000000000000000000000000000008160018151811061353e577f4e487b7100000000000000000000000000000000000000000000000000000000600052603260045260246000fd5b60200101907effffffffffffffffffffffffffffffffffffffffffffffffffffffffffffff1916908160001a9053506000600184600261357e9190615708565b6135889190615681565b90505b6001811115613674577f3031323334353637383961626364656600000000000000000000000000000000600f8616601081106135f0577f4e487b7100000000000000000000000000000000000000000000000000000000600052603260045260246000fd5b1a60f81b82828151811061362d577f4e487b7100000000000000000000000000000000000000000000000000000000600052603260045260246000fd5b60200101907effffffffffffffffffffffffffffffffffffffffffffffffffffffffffffff1916908160001a905350600485901c94508061366d906158ab565b905061358b565b50600084146136b8576040517f08c379a00000000000000000000000000000000000000000000000000000000081526004016136af90615334565b60405180910390fd5b8091505092915050565b60006136ee827f01ffc9a70000000000000000000000000000000000000000000000000000000061370f565b801561370857506137068263ffffffff60e01b61370f565b155b9050919050565b6000806301ffc9a760e01b8360405160240161372b91906152f7565b604051602081830303815290604052907bffffffffffffffffffffffffffffffffffffffffffffffffffffffff19166020820180517bffffffffffffffffffffffffffffffffffffffffffffffffffffffff838183161783525050505090506000808573ffffffffffffffffffffffffffffffffffffffff16617530846040516137b591906151b0565b6000604051808303818686fa925050503d80600081146137f1576040519150601f19603f3d011682016040523d82523d6000602084013e6137f6565b606091505b50915091506020815110156138115760009350505050613834565b81801561382e57508080602001905181019061382d91906148f3565b5b93505050505b92915050565b600081836138489190615708565b905092915050565b600060046000848152602001908152602001600020549050600061387d838361383a90919063ffffffff16565b90506000613949600160009054906101000a900473ffffffffffffffffffffffffffffffffffffffff1673ffffffffffffffffffffffffffffffffffffffff16631f7418976040518163ffffffff1660e01b8152600401602060405180830381600087803b1580156138ee57600080fd5b505af1158015613902573d6000803e3d6000fd5b505050506040513d601f19601f8201168201806040525081019061392691906149d3565b61393b612710856145f490919063ffffffff16565b61383a90919063ffffffff16565b90506000811115613ab9576005600086815260200190815260200160002060009054906101000a900473ffffffffffffffffffffffffffffffffffffffff1673ffffffffffffffffffffffffffffffffffffffff166323b872dd33600160009054906101000a900473ffffffffffffffffffffffffffffffffffffffff1673ffffffffffffffffffffffffffffffffffffffff16637dafc0d36040518163ffffffff1660e01b8152600401602060405180830381600087803b158015613a0e57600080fd5b505af1158015613a22573d6000803e3d6000fd5b505050506040513d601f19601f82011682018060405250810190613a46919061488e565b846040518463ffffffff1660e01b8152600401613a659392919061528a565b602060405180830381600087803b158015613a7f57600080fd5b505af1158015613a93573d6000803e3d6000fd5b505050506040513d601f19601f82011682018060405250810190613ab791906148f3565b505b6000600160009054906101000a900473ffffffffffffffffffffffffffffffffffffffff1673ffffffffffffffffffffffffffffffffffffffff16634ca3e9b8876040518263ffffffff1660e01b8152600401613b169190615614565b60206040518083038186803b158015613b2e57600080fd5b505afa158015613b42573d6000803e3d6000fd5b505050506040513d601f19601f82011682018060405250810190613b669190614865565b90508073ffffffffffffffffffffffffffffffffffffffff16638cbe8d806040518163ffffffff1660e01b815260040160206040518083038186803b158015613bae57600080fd5b505afa158015613bc2573d6000803e3d6000fd5b505050506040513d601f19601f82011682018060405250810190613be6919061488e565b506000613bfc838561460a90919063ffffffff16565b90506000808373ffffffffffffffffffffffffffffffffffffffff16632cc889746040518163ffffffff1660e01b815260040160206040518083038186803b158015613c4757600080fd5b505afa158015613c5b573d6000803e3d6000fd5b505050506040513d601f19601f82011682018060405250810190613c7f91906149d3565b1115613e7657613d298373ffffffffffffffffffffffffffffffffffffffff16632cc889746040518163ffffffff1660e01b815260040160206040518083038186803b158015613cce57600080fd5b505afa158015613ce2573d6000803e3d6000fd5b505050506040513d601f19601f82011682018060405250810190613d0691906149d3565b613d1b612710856145f490919063ffffffff16565b61383a90919063ffffffff16565b90506000811115613e75576005600089815260200190815260200160002060009054906101000a900473ffffffffffffffffffffffffffffffffffffffff1673ffffffffffffffffffffffffffffffffffffffff166323b872dd338573ffffffffffffffffffffffffffffffffffffffff16636ff314c76040518163ffffffff1660e01b815260040160206040518083038186803b158015613dca57600080fd5b505afa158015613dde573d6000803e3d6000fd5b505050506040513d601f19601f82011682018060405250810190613e02919061488e565b846040518463ffffffff1660e01b8152600401613e219392919061528a565b602060405180830381600087803b158015613e3b57600080fd5b505af1158015613e4f573d6000803e3d6000fd5b505050506040513d601f19601f82011682018060405250810190613e7391906148f3565b505b5b6000613e8b828461460a90919063ffffffff16565b90506000811115613fd757600560008a815260200190815260200160002060009054906101000a900473ffffffffffffffffffffffffffffffffffffffff1673ffffffffffffffffffffffffffffffffffffffff166323b872dd338673ffffffffffffffffffffffffffffffffffffffff16638cbe8d806040518163ffffffff1660e01b815260040160206040518083038186803b158015613f2c57600080fd5b505afa158015613f40573d6000803e3d6000fd5b505050506040513d601f19601f82011682018060405250810190613f64919061488e565b846040518463ffffffff1660e01b8152600401613f839392919061528a565b602060405180830381600087803b158015613f9d57600080fd5b505af1158015613fb1573d6000803e3d6000fd5b505050506040513d601f19601f82011682018060405250810190613fd591906148f3565b505b505050505050505050565b60003411156145f0576000600460008481526020019081526020016000205490506000614018838361383a90919063ffffffff16565b9050600061402f823461460a90919063ffffffff16565b90506000811115614082573373ffffffffffffffffffffffffffffffffffffffff166108fc829081150290604051600060405180830381858888f19350505050158015614080573d6000803e3d6000fd5b505b600061414c600160009054906101000a900473ffffffffffffffffffffffffffffffffffffffff1673ffffffffffffffffffffffffffffffffffffffff16631f7418976040518163ffffffff1660e01b8152600401602060405180830381600087803b1580156140f157600080fd5b505af1158015614105573d6000803e3d6000fd5b505050506040513d601f19601f8201168201806040525081019061412991906149d3565b61413e612710866145f490919063ffffffff16565b61383a90919063ffffffff16565b9050600081111561424057600160009054906101000a900473ffffffffffffffffffffffffffffffffffffffff1673ffffffffffffffffffffffffffffffffffffffff16637dafc0d36040518163ffffffff1660e01b8152600401602060405180830381600087803b1580156141c157600080fd5b505af11580156141d5573d6000803e3d6000fd5b505050506040513d601f19601f820116820180604052508101906141f9919061488e565b73ffffffffffffffffffffffffffffffffffffffff166108fc829081150290604051600060405180830381858888f1935050505015801561423e573d6000803e3d6000fd5b505b6000600160009054906101000a900473ffffffffffffffffffffffffffffffffffffffff1673ffffffffffffffffffffffffffffffffffffffff16634ca3e9b8886040518263ffffffff1660e01b815260040161429d9190615614565b60206040518083038186803b1580156142b557600080fd5b505afa1580156142c9573d6000803e3d6000fd5b505050506040513d601f19601f820116820180604052508101906142ed9190614865565b90506000614304838661460a90919063ffffffff16565b90506000808373ffffffffffffffffffffffffffffffffffffffff16632cc889746040518163ffffffff1660e01b815260040160206040518083038186803b15801561434f57600080fd5b505afa158015614363573d6000803e3d6000fd5b505050506040513d601f19601f8201168201806040525081019061438791906149d3565b1115614502576144318373ffffffffffffffffffffffffffffffffffffffff16632cc889746040518163ffffffff1660e01b815260040160206040518083038186803b1580156143d657600080fd5b505afa1580156143ea573d6000803e3d6000fd5b505050506040513d601f19601f8201168201806040525081019061440e91906149d3565b614423612710856145f490919063ffffffff16565b61383a90919063ffffffff16565b90506000811115614501578273ffffffffffffffffffffffffffffffffffffffff16636ff314c76040518163ffffffff1660e01b815260040160206040518083038186803b15801561448257600080fd5b505afa158015614496573d6000803e3d6000fd5b505050506040513d601f19601f820116820180604052508101906144ba919061488e565b73ffffffffffffffffffffffffffffffffffffffff166108fc829081150290604051600060405180830381858888f193505050501580156144ff573d6000803e3d6000fd5b505b5b6000614517828461460a90919063ffffffff16565b905060008111156145e7578373ffffffffffffffffffffffffffffffffffffffff16638cbe8d806040518163ffffffff1660e01b815260040160206040518083038186803b15801561456857600080fd5b505afa15801561457c573d6000803e3d6000fd5b505050506040513d601f19601f820116820180604052508101906145a0919061488e565b73ffffffffffffffffffffffffffffffffffffffff166108fc829081150290604051600060405180830381858888f193505050501580156145e5573d6000803e3d6000fd5b505b50505050505050505b5050565b6000818361460291906156d7565b905092915050565b600081836146189190615762565b905092915050565b82805461462c906158d5565b90600052602060002090601f01602090048101928261464e5760008555614695565b82601f1061466757803560ff1916838001178555614695565b82800160010185558215614695579182015b82811115614694578235825591602001919060010190614679565b5b5090506146a2919061472c565b5090565b8280546146b2906158d5565b90600052602060002090601f0160209004810192826146d4576000855561471b565b82601f106146ed57805160ff191683800117855561471b565b8280016001018555821561471b579182015b8281111561471a5782518255916020019190600101906146ff565b5b509050614728919061472c565b5090565b5b8082111561474557600081600090555060010161472d565b5090565b60008135905061475881615e8a565b92915050565b60008151905061476d81615e8a565b92915050565b60008151905061478281615ea1565b92915050565b60008135905061479781615eb8565b92915050565b6000815190506147ac81615eb8565b92915050565b6000813590506147c181615ecf565b92915050565b6000813590506147d681615ee6565b92915050565b60008083601f8401126147ee57600080fd5b8235905067ffffffffffffffff81111561480757600080fd5b60208301915083600182028301111561481f57600080fd5b9250929050565b60008135905061483581615efd565b92915050565b60008151905061484a81615efd565b92915050565b60008135905061485f81615f14565b92915050565b60006020828403121561487757600080fd5b60006148858482850161475e565b91505092915050565b6000602082840312156148a057600080fd5b60006148ae84828501614773565b91505092915050565b600080604083850312156148ca57600080fd5b60006148d885828601614749565b92505060206148e985828601614826565b9150509250929050565b60006020828403121561490557600080fd5b60006149138482850161479d565b91505092915050565b60006020828403121561492e57600080fd5b600061493c848285016147b2565b91505092915050565b6000806040838503121561495857600080fd5b6000614966858286016147b2565b925050602061497785828601614749565b9150509250929050565b60006020828403121561499357600080fd5b60006149a1848285016147c7565b91505092915050565b6000602082840312156149bc57600080fd5b60006149ca84828501614826565b91505092915050565b6000602082840312156149e557600080fd5b60006149f38482850161483b565b91505092915050565b60008060408385031215614a0f57600080fd5b6000614a1d85828601614826565b9250506020614a2e85828601614749565b9150509250929050565b600080600080600060a08688031215614a5057600080fd5b6000614a5e88828901614826565b9550506020614a6f88828901614749565b9450506040614a8088828901614788565b9350506060614a9188828901614826565b9250506080614aa288828901614826565b9150509295509295909350565b600080600060608486031215614ac457600080fd5b6000614ad286828701614826565b9350506020614ae386828701614749565b9250506040614af486828701614826565b9150509250925092565b60008060008060608587031215614b1457600080fd5b6000614b2287828801614826565b945050602085013567ffffffffffffffff811115614b3f57600080fd5b614b4b878288016147dc565b93509350506040614b5e87828801614749565b91505092959194509250565b600080600080600080600060c0888a031215614b8557600080fd5b6000614b938a828b01614826565b975050602088013567ffffffffffffffff811115614bb057600080fd5b614bbc8a828b016147dc565b96509650506040614bcf8a828b01614749565b9450506060614be08a828b01614826565b9350506080614bf18a828b01614826565b92505060a0614c028a828b01614826565b91505092959891949750929550565b60008060408385031215614c2457600080fd5b6000614c3285828601614826565b9250506020614c4385828601614826565b9150509250929050565b60008060408385031215614c6057600080fd5b6000614c6e85828601614826565b9250506020614c7f85828601614850565b9150509250929050565b614c9281615833565b82525050565b614ca181615796565b82525050565b614cb0816157ba565b82525050565b614cbf816157c6565b82525050565b614cce816157d0565b82525050565b6000614cdf82615644565b614ce9818561565a565b9350614cf9818560208601615878565b80840191505092915050565b6000614d118385615676565b9350614d1e838584615869565b82840190509392505050565b6000614d358261564f565b614d3f8185615665565b9350614d4f818560208601615878565b614d58816159dd565b840191505092915050565b6000614d6e8261564f565b614d788185615676565b9350614d88818560208601615878565b80840191505092915050565b60008154614da1816158d5565b614dab8186615676565b94506001821660008114614dc65760018114614dd757614e0a565b60ff19831686528186019350614e0a565b614de08561562f565b60005b83811015614e0257815481890152600182019150602081019050614de3565b838801955050505b50505092915050565b6000614e20602083615665565b9150614e2b826159ee565b602082019050919050565b6000614e43602083615665565b9150614e4e82615a17565b602082019050919050565b6000614e66601583615665565b9150614e7182615a40565b602082019050919050565b6000614e89601583615665565b9150614e9482615a69565b602082019050919050565b6000614eac601583615665565b9150614eb782615a92565b602082019050919050565b6000614ecf600e83615665565b9150614eda82615abb565b602082019050919050565b6000614ef2601a83615665565b9150614efd82615ae4565b602082019050919050565b6000614f15601583615665565b9150614f2082615b0d565b602082019050919050565b6000614f38601083615665565b9150614f4382615b36565b602082019050919050565b6000614f5b601083615665565b9150614f6682615b5f565b602082019050919050565b6000614f7e601c83615665565b9150614f8982615b88565b602082019050919050565b6000614fa1600c83615665565b9150614fac82615bb1565b602082019050919050565b6000614fc4600c83615665565b9150614fcf82615bda565b602082019050919050565b6000614fe7602283615665565b9150614ff282615c03565b604082019050919050565b600061500a603f83615665565b915061501582615c52565b604082019050919050565b600061502d600383615676565b915061503882615ca1565b600382019050919050565b6000615050601b83615665565b915061505b82615cca565b602082019050919050565b6000615073600a83615665565b915061507e82615cf3565b602082019050919050565b6000615096601083615665565b91506150a182615d1c565b602082019050919050565b60006150b9601283615665565b91506150c482615d45565b602082019050919050565b60006150dc601383615665565b91506150e782615d6e565b602082019050919050565b60006150ff601a83615665565b915061510a82615d97565b602082019050919050565b6000615122601783615676565b915061512d82615dc0565b601782019050919050565b6000615145601783615665565b915061515082615de9565b602082019050919050565b6000615168601183615676565b915061517382615e12565b601182019050919050565b600061518b602f83615665565b915061519682615e3b565b604082019050919050565b6151aa8161581c565b82525050565b60006151bc8284614cd4565b915081905092915050565b60006151d4828486614d05565b91508190509392505050565b60006151ec8284614d94565b915081905092915050565b600061520282615020565b9150819050919050565b600061521782615115565b91506152238285614d63565b915061522e8261515b565b915061523a8284614d63565b91508190509392505050565b600060208201905061525b6000830184614c98565b92915050565b60006040820190506152766000830185614c98565b6152836020830184614c98565b9392505050565b600060608201905061529f6000830186614c98565b6152ac6020830185614c89565b6152b960408301846151a1565b949350505050565b60006020820190506152d66000830184614ca7565b92915050565b60006020820190506152f16000830184614cb6565b92915050565b600060208201905061530c6000830184614cc5565b92915050565b6000602082019050818103600083015261532c8184614d2a565b905092915050565b6000602082019050818103600083015261534d81614e13565b9050919050565b6000602082019050818103600083015261536d81614e36565b9050919050565b6000602082019050818103600083015261538d81614e59565b9050919050565b600060208201905081810360008301526153ad81614e7c565b9050919050565b600060208201905081810360008301526153cd81614e9f565b9050919050565b600060208201905081810360008301526153ed81614ec2565b9050919050565b6000602082019050818103600083015261540d81614ee5565b9050919050565b6000602082019050818103600083015261542d81614f08565b9050919050565b6000602082019050818103600083015261544d81614f2b565b9050919050565b6000602082019050818103600083015261546d81614f4e565b9050919050565b6000602082019050818103600083015261548d81614f71565b9050919050565b600060208201905081810360008301526154ad81614f94565b9050919050565b600060208201905081810360008301526154cd81614fb7565b9050919050565b600060208201905081810360008301526154ed81614fda565b9050919050565b6000602082019050818103600083015261550d81614ffd565b9050919050565b6000602082019050818103600083015261552d81615043565b9050919050565b6000602082019050818103600083015261554d81615066565b9050919050565b6000602082019050818103600083015261556d81615089565b9050919050565b6000602082019050818103600083015261558d816150ac565b9050919050565b600060208201905081810360008301526155ad816150cf565b9050919050565b600060208201905081810360008301526155cd816150f2565b9050919050565b600060208201905081810360008301526155ed81615138565b9050919050565b6000602082019050818103600083015261560d8161517e565b9050919050565b600060208201905061562960008301846151a1565b92915050565b60008190508160005260206000209050919050565b600081519050919050565b600081519050919050565b600081905092915050565b600082825260208201905092915050565b600081905092915050565b600061568c8261581c565b91506156978361581c565b9250827fffffffffffffffffffffffffffffffffffffffffffffffffffffffffffffffff038211156156cc576156cb615950565b5b828201905092915050565b60006156e28261581c565b91506156ed8361581c565b9250826156fd576156fc61597f565b5b828204905092915050565b60006157138261581c565b915061571e8361581c565b9250817fffffffffffffffffffffffffffffffffffffffffffffffffffffffffffffffff048311821515161561575757615756615950565b5b828202905092915050565b600061576d8261581c565b91506157788361581c565b92508282101561578b5761578a615950565b5b828203905092915050565b60006157a1826157fc565b9050919050565b60006157b3826157fc565b9050919050565b60008115159050919050565b6000819050919050565b60007fffffffff0000000000000000000000000000000000000000000000000000000082169050919050565b600073ffffffffffffffffffffffffffffffffffffffff82169050919050565b6000819050919050565b600060ff82169050919050565b600061583e82615845565b9050919050565b600061585082615857565b9050919050565b6000615862826157fc565b9050919050565b82818337600083830152505050565b60005b8381101561589657808201518184015260208101905061587b565b838111156158a5576000848401525b50505050565b60006158b68261581c565b915060008214156158ca576158c9615950565b5b600182039050919050565b600060028204905060018216806158ed57607f821691505b60208210811415615901576159006159ae565b5b50919050565b60006159128261581c565b91507fffffffffffffffffffffffffffffffffffffffffffffffffffffffffffffffff82141561594557615944615950565b5b600182019050919050565b7f4e487b7100000000000000000000000000000000000000000000000000000000600052601160045260246000fd5b7f4e487b7100000000000000000000000000000000000000000000000000000000600052601260045260246000fd5b7f4e487b7100000000000000000000000000000000000000000000000000000000600052602260045260246000fd5b6000601f19601f8301169050919050565b7f537472696e67733a20686578206c656e67746820696e73756666696369656e74600082015250565b7f4d7573742073656e64206d696e696d756d2076616c756520746f206d696e7421600082015250565b7f52656163686564206d696e74696e67206c696d69740000000000000000000000600082015250565b7f65786365646573206d696e74696e67206c696d69740000000000000000000000600082015250565b7f6e6f7420616e20455243323020636f6e74726163740000000000000000000000600082015250565b7f70726f6a65637420706175736564000000000000000000000000000000000000600082015250565b7f70726f6a656374206e6f7420726561647920666f72206c697665000000000000600082015250565b7f496e73756666696369656e742062616c616e63652e0000000000000000000000600082015250565b7f70726f6a656374206e6f74206c69766500000000000000000000000000000000600082015250565b7f6e6f74206f6e20616c6c6f776c69737400000000000000000000000000000000600082015250565b7f637572656e637920616464726573732063616e74206265207a65726f00000000600082015250565b7f6d6178207072656d696e74730000000000000000000000000000000000000000600082015250565b7f616c7265616479206c6976650000000000000000000000000000000000000000600082015250565b7f496e73756666696369656e742046756e647320417070726f76656420666f722060008201527f5458000000000000000000000000000000000000000000000000000000000000602082015250565b7f746869732070726f6a6563742061636365707473206120646966666572656e7460008201527f2063757272656e637920616e642063616e6e6f74206163636570742045544800602082015250565b7f4554480000000000000000000000000000000000000000000000000000000000600082015250565b7f6f776e65722063616e2774206265207a65726f20616464726573730000000000600082015250565b7f6f6e6c79206f776e657200000000000000000000000000000000000000000000600082015250565b7f4e6f20436f6e7472616374204275797300000000000000000000000000000000600082015250565b7f7072656d696e74732072656d61696e696e670000000000000000000000000000600082015250565b7f63616e27742062652073616d65206f776e657200000000000000000000000000600082015250565b7f65786365656473207175616e746974792072656d61696e696e67000000000000600082015250565b7f416363657373436f6e74726f6c3a206163636f756e7420000000000000000000600082015250565b7f53796d626f6c206d7573742062652070726f7669646564000000000000000000600082015250565b7f206973206d697373696e6720726f6c6520000000000000000000000000000000600082015250565b7f416363657373436f6e74726f6c3a2063616e206f6e6c792072656e6f756e636560008201527f20726f6c657320666f722073656c660000000000000000000000000000000000602082015250565b615e9381615796565b8114615e9e57600080fd5b50565b615eaa816157a8565b8114615eb557600080fd5b50565b615ec1816157ba565b8114615ecc57600080fd5b50565b615ed8816157c6565b8114615ee357600080fd5b50565b615eef816157d0565b8114615efa57600080fd5b50565b615f068161581c565b8114615f1157600080fd5b50565b615f1d81615826565b8114615f2857600080fd5b5056fea2646970667358221220cab6721d635587808bdafdd0d3ecbc61adac8e1fbdb0ecb78ff60e514feeab3564736f6c63430008020033",
  "linkReferences": {},
  "deployedLinkReferences": {}
}