{
  "_format": "hh-sol-artifact-1",
  "contractName": "FineShop",
  "sourceName": "contracts/FineShop.sol",
  "abi": [
    {
      "inputs": [
        {
          "internalType": "address",
          "name": "_fineCoreAddresss",
          "type": "address"
        }
      ],
      "stateMutability": "nonpayable",
      "type": "constructor"
    },
    {
      "anonymous": false,
      "inputs": [
        {
          "indexed": true,
          "internalType": "bytes32",
          "name": "role",
          "type": "bytes32"
        },
        {
          "indexed": true,
          "internalType": "bytes32",
          "name": "previousAdminRole",
          "type": "bytes32"
        },
        {
          "indexed": true,
          "internalType": "bytes32",
          "name": "newAdminRole",
          "type": "bytes32"
        }
      ],
      "name": "RoleAdminChanged",
      "type": "event"
    },
    {
      "anonymous": false,
      "inputs": [
        {
          "indexed": true,
          "internalType": "bytes32",
          "name": "role",
          "type": "bytes32"
        },
        {
          "indexed": true,
          "internalType": "address",
          "name": "account",
          "type": "address"
        },
        {
          "indexed": true,
          "internalType": "address",
          "name": "sender",
          "type": "address"
        }
      ],
      "name": "RoleGranted",
      "type": "event"
    },
    {
      "anonymous": false,
      "inputs": [
        {
          "indexed": true,
          "internalType": "bytes32",
          "name": "role",
          "type": "bytes32"
        },
        {
          "indexed": true,
          "internalType": "address",
          "name": "account",
          "type": "address"
        },
        {
          "indexed": true,
          "internalType": "address",
          "name": "sender",
          "type": "address"
        }
      ],
      "name": "RoleRevoked",
      "type": "event"
    },
    {
      "inputs": [],
      "name": "DEFAULT_ADMIN_ROLE",
      "outputs": [
        {
          "internalType": "bytes32",
          "name": "",
          "type": "bytes32"
        }
      ],
      "stateMutability": "view",
      "type": "function"
    },
    {
      "inputs": [
        {
          "internalType": "uint256",
          "name": "_projectId",
          "type": "uint256"
        },
        {
          "internalType": "address",
          "name": "minter",
          "type": "address"
        }
      ],
      "name": "addToAllowlist",
      "outputs": [],
      "stateMutability": "nonpayable",
      "type": "function"
    },
    {
      "inputs": [
        {
          "internalType": "uint256",
          "name": "_projectId",
          "type": "uint256"
        },
        {
          "internalType": "uint256",
          "name": "count",
          "type": "uint256"
        }
      ],
      "name": "buy",
      "outputs": [
        {
          "internalType": "uint256",
          "name": "",
          "type": "uint256"
        }
      ],
      "stateMutability": "payable",
      "type": "function"
    },
    {
      "inputs": [
        {
          "internalType": "uint256",
          "name": "_projectId",
          "type": "uint256"
        },
        {
          "internalType": "address",
          "name": "to",
          "type": "address"
        },
        {
          "internalType": "uint256",
          "name": "count",
          "type": "uint256"
        }
      ],
      "name": "buyFor",
      "outputs": [
        {
          "internalType": "uint256",
          "name": "",
          "type": "uint256"
        }
      ],
      "stateMutability": "payable",
      "type": "function"
    },
    {
      "inputs": [
        {
          "internalType": "uint256",
          "name": "",
          "type": "uint256"
        }
      ],
      "name": "contractFilterProject",
      "outputs": [
        {
          "internalType": "bool",
          "name": "",
          "type": "bool"
        }
      ],
      "stateMutability": "view",
      "type": "function"
    },
    {
      "inputs": [
        {
          "internalType": "uint256",
          "name": "_projectId",
          "type": "uint256"
        },
        {
          "internalType": "string",
          "name": "_symbol",
          "type": "string"
        },
        {
          "internalType": "address",
          "name": "_contract",
          "type": "address"
        },
        {
          "internalType": "uint256",
          "name": "_price",
          "type": "uint256"
        },
        {
          "internalType": "uint256",
          "name": "_premints",
          "type": "uint256"
        },
        {
          "internalType": "uint256",
          "name": "_allowlists",
          "type": "uint256"
        }
      ],
      "name": "fullSetup",
      "outputs": [],
      "stateMutability": "nonpayable",
      "type": "function"
    },
    {
      "inputs": [
        {
          "internalType": "bytes32",
          "name": "role",
          "type": "bytes32"
        }
      ],
      "name": "getRoleAdmin",
      "outputs": [
        {
          "internalType": "bytes32",
          "name": "",
          "type": "bytes32"
        }
      ],
      "stateMutability": "view",
      "type": "function"
    },
    {
      "inputs": [
        {
          "internalType": "uint256",
          "name": "_projectId",
          "type": "uint256"
        }
      ],
      "name": "goLive",
      "outputs": [],
      "stateMutability": "nonpayable",
      "type": "function"
    },
    {
      "inputs": [
        {
          "internalType": "bytes32",
          "name": "role",
          "type": "bytes32"
        },
        {
          "internalType": "address",
          "name": "account",
          "type": "address"
        }
      ],
      "name": "grantRole",
      "outputs": [],
      "stateMutability": "nonpayable",
      "type": "function"
    },
    {
      "inputs": [
        {
          "internalType": "bytes32",
          "name": "role",
          "type": "bytes32"
        },
        {
          "internalType": "address",
          "name": "account",
          "type": "address"
        }
      ],
      "name": "hasRole",
      "outputs": [
        {
          "internalType": "bool",
          "name": "",
          "type": "bool"
        }
      ],
      "stateMutability": "view",
      "type": "function"
    },
    {
      "inputs": [
        {
          "internalType": "uint256",
          "name": "_projectId",
          "type": "uint256"
        }
      ],
      "name": "pause",
      "outputs": [],
      "stateMutability": "nonpayable",
      "type": "function"
    },
    {
      "inputs": [
        {
          "internalType": "uint256",
          "name": "_projectId",
          "type": "uint256"
        }
      ],
      "name": "pauseAdmin",
      "outputs": [],
      "stateMutability": "nonpayable",
      "type": "function"
    },
    {
      "inputs": [
        {
          "internalType": "uint256",
          "name": "_projectId",
          "type": "uint256"
        }
      ],
      "name": "premint",
      "outputs": [
        {
          "internalType": "uint256",
          "name": "",
          "type": "uint256"
        }
      ],
      "stateMutability": "nonpayable",
      "type": "function"
    },
    {
      "inputs": [
        {
          "internalType": "uint256",
          "name": "",
          "type": "uint256"
        },
        {
          "internalType": "address",
          "name": "",
          "type": "address"
        }
      ],
      "name": "projectAllowList",
      "outputs": [
        {
          "internalType": "bool",
          "name": "",
          "type": "bool"
        }
      ],
      "stateMutability": "view",
      "type": "function"
    },
    {
      "inputs": [
        {
          "internalType": "uint256",
          "name": "",
          "type": "uint256"
        }
      ],
      "name": "projectAllowListAllocation",
      "outputs": [
        {
          "internalType": "uint256",
          "name": "",
          "type": "uint256"
        }
      ],
      "stateMutability": "view",
      "type": "function"
    },
    {
      "inputs": [
        {
          "internalType": "uint256",
          "name": "",
          "type": "uint256"
        }
      ],
      "name": "projectBulkMintCount",
      "outputs": [
        {
          "internalType": "uint256",
          "name": "",
          "type": "uint256"
        }
      ],
      "stateMutability": "view",
      "type": "function"
    },
    {
      "inputs": [
        {
          "internalType": "uint256",
          "name": "",
          "type": "uint256"
        }
      ],
      "name": "projectCurrencyAddress",
      "outputs": [
        {
          "internalType": "address",
          "name": "",
          "type": "address"
        }
      ],
      "stateMutability": "view",
      "type": "function"
    },
    {
      "inputs": [
        {
          "internalType": "uint256",
          "name": "",
          "type": "uint256"
        }
      ],
      "name": "projectCurrencySymbol",
      "outputs": [
        {
          "internalType": "string",
          "name": "",
          "type": "string"
        }
      ],
      "stateMutability": "view",
      "type": "function"
    },
    {
      "inputs": [
        {
          "internalType": "uint256",
          "name": "",
          "type": "uint256"
        }
      ],
      "name": "projectLive",
      "outputs": [
        {
          "internalType": "bool",
          "name": "",
          "type": "bool"
        }
      ],
      "stateMutability": "view",
      "type": "function"
    },
    {
      "inputs": [
        {
          "internalType": "address",
          "name": "",
          "type": "address"
        },
        {
          "internalType": "uint256",
          "name": "",
          "type": "uint256"
        }
      ],
      "name": "projectMintCounter",
      "outputs": [
        {
          "internalType": "uint256",
          "name": "",
          "type": "uint256"
        }
      ],
      "stateMutability": "view",
      "type": "function"
    },
    {
      "inputs": [
        {
          "internalType": "uint256",
          "name": "",
          "type": "uint256"
        }
      ],
      "name": "projectMintLimit",
      "outputs": [
        {
          "internalType": "uint256",
          "name": "",
          "type": "uint256"
        }
      ],
      "stateMutability": "view",
      "type": "function"
    },
    {
      "inputs": [
        {
          "internalType": "uint256",
          "name": "",
          "type": "uint256"
        }
      ],
      "name": "projectOwner",
      "outputs": [
        {
          "internalType": "address",
          "name": "",
          "type": "address"
        }
      ],
      "stateMutability": "view",
      "type": "function"
    },
    {
      "inputs": [
        {
          "internalType": "uint256",
          "name": "",
          "type": "uint256"
        }
      ],
      "name": "projectPause",
      "outputs": [
        {
          "internalType": "bool",
          "name": "",
          "type": "bool"
        }
      ],
      "stateMutability": "view",
      "type": "function"
    },
    {
      "inputs": [
        {
          "internalType": "uint256",
          "name": "",
          "type": "uint256"
        }
      ],
      "name": "projectPremintAllocation",
      "outputs": [
        {
          "internalType": "uint256",
          "name": "",
          "type": "uint256"
        }
      ],
      "stateMutability": "view",
      "type": "function"
    },
    {
      "inputs": [
        {
          "internalType": "uint256",
          "name": "",
          "type": "uint256"
        }
      ],
      "name": "projectPrice",
      "outputs": [
        {
          "internalType": "uint256",
          "name": "",
          "type": "uint256"
        }
      ],
      "stateMutability": "view",
      "type": "function"
    },
    {
      "inputs": [
        {
          "internalType": "uint256",
          "name": "",
          "type": "uint256"
        }
      ],
      "name": "projectReadyForLive",
      "outputs": [
        {
          "internalType": "bool",
          "name": "",
          "type": "bool"
        }
      ],
      "stateMutability": "view",
      "type": "function"
    },
    {
      "inputs": [
        {
          "internalType": "uint256",
          "name": "_projectId",
          "type": "uint256"
        },
        {
          "internalType": "address",
          "name": "to",
          "type": "address"
        },
        {
          "internalType": "uint256",
          "name": "count",
          "type": "uint256"
        }
      ],
      "name": "purchaseTo",
      "outputs": [
        {
          "internalType": "uint256",
          "name": "",
          "type": "uint256"
        }
      ],
      "stateMutability": "payable",
      "type": "function"
    },
    {
      "inputs": [
        {
          "internalType": "uint256",
          "name": "_projectId",
          "type": "uint256"
        },
        {
          "internalType": "address",
          "name": "newOwner",
          "type": "address"
        },
        {
          "internalType": "bool",
          "name": "contractFilter",
          "type": "bool"
        },
        {
          "internalType": "uint256",
          "name": "_bulk",
          "type": "uint256"
        },
        {
          "internalType": "uint256",
          "name": "_limit",
          "type": "uint256"
        }
      ],
      "name": "quickInit",
      "outputs": [],
      "stateMutability": "nonpayable",
      "type": "function"
    },
    {
      "inputs": [
        {
          "internalType": "uint256",
          "name": "_projectId",
          "type": "uint256"
        },
        {
          "internalType": "address",
          "name": "minter",
          "type": "address"
        }
      ],
      "name": "removeFromAllowlist",
      "outputs": [],
      "stateMutability": "nonpayable",
      "type": "function"
    },
    {
      "inputs": [
        {
          "internalType": "bytes32",
          "name": "role",
          "type": "bytes32"
        },
        {
          "internalType": "address",
          "name": "account",
          "type": "address"
        }
      ],
      "name": "renounceRole",
      "outputs": [],
      "stateMutability": "nonpayable",
      "type": "function"
    },
    {
      "inputs": [
        {
          "internalType": "bytes32",
          "name": "role",
          "type": "bytes32"
        },
        {
          "internalType": "address",
          "name": "account",
          "type": "address"
        }
      ],
      "name": "revokeRole",
      "outputs": [],
      "stateMutability": "nonpayable",
      "type": "function"
    },
    {
      "inputs": [
        {
          "internalType": "uint256",
          "name": "_projectId",
          "type": "uint256"
        },
        {
          "internalType": "uint256",
          "name": "spots",
          "type": "uint256"
        }
      ],
      "name": "setAllowlistSpots",
      "outputs": [],
      "stateMutability": "nonpayable",
      "type": "function"
    },
    {
      "inputs": [
        {
          "internalType": "uint256",
          "name": "_projectId",
          "type": "uint256"
        },
        {
          "internalType": "string",
          "name": "_symbol",
          "type": "string"
        },
        {
          "internalType": "address",
          "name": "_contract",
          "type": "address"
        }
      ],
      "name": "setCurrency",
      "outputs": [],
      "stateMutability": "nonpayable",
      "type": "function"
    },
    {
      "inputs": [
        {
          "internalType": "uint256",
          "name": "_projectId",
          "type": "uint256"
        }
      ],
      "name": "setCurrencyToETH",
      "outputs": [],
      "stateMutability": "nonpayable",
      "type": "function"
    },
    {
      "inputs": [
        {
          "internalType": "uint256",
          "name": "_projectId",
          "type": "uint256"
        },
        {
          "internalType": "address",
          "name": "newOwner",
          "type": "address"
        }
      ],
      "name": "setOwner",
      "outputs": [],
      "stateMutability": "nonpayable",
      "type": "function"
    },
    {
      "inputs": [
        {
          "internalType": "uint256",
          "name": "_projectId",
          "type": "uint256"
        },
        {
          "internalType": "uint256",
          "name": "premints",
          "type": "uint256"
        }
      ],
      "name": "setPremints",
      "outputs": [],
      "stateMutability": "nonpayable",
      "type": "function"
    },
    {
      "inputs": [
        {
          "internalType": "uint256",
          "name": "_projectId",
          "type": "uint256"
        },
        {
          "internalType": "uint256",
          "name": "price",
          "type": "uint256"
        }
      ],
      "name": "setPrice",
      "outputs": [],
      "stateMutability": "nonpayable",
      "type": "function"
    },
    {
      "inputs": [
        {
          "internalType": "uint256",
          "name": "_projectId",
          "type": "uint256"
        },
        {
          "internalType": "uint8",
          "name": "_count",
          "type": "uint8"
        }
      ],
      "name": "setProjectBulkMintCount",
      "outputs": [],
      "stateMutability": "nonpayable",
      "type": "function"
    },
    {
      "inputs": [
        {
          "internalType": "uint256",
          "name": "_projectId",
          "type": "uint256"
        },
        {
          "internalType": "uint8",
          "name": "_limit",
          "type": "uint8"
        }
      ],
      "name": "setProjectMintLimit",
      "outputs": [],
      "stateMutability": "nonpayable",
      "type": "function"
    },
    {
      "inputs": [
        {
          "internalType": "bytes4",
          "name": "interfaceId",
          "type": "bytes4"
        }
      ],
      "name": "supportsInterface",
      "outputs": [
        {
          "internalType": "bool",
          "name": "",
          "type": "bool"
        }
      ],
      "stateMutability": "view",
      "type": "function"
    },
    {
      "inputs": [
        {
          "internalType": "uint256",
          "name": "_projectId",
          "type": "uint256"
        }
      ],
      "name": "toggleContractFilter",
      "outputs": [],
      "stateMutability": "nonpayable",
      "type": "function"
    },
    {
      "inputs": [
        {
          "internalType": "uint256",
          "name": "_projectId",
          "type": "uint256"
        }
      ],
      "name": "unpause",
      "outputs": [],
      "stateMutability": "nonpayable",
      "type": "function"
    },
    {
      "inputs": [
        {
          "internalType": "uint256",
          "name": "_projectId",
          "type": "uint256"
        }
      ],
      "name": "unpauseAdmin",
      "outputs": [],
      "stateMutability": "nonpayable",
      "type": "function"
    }
  ],
  "bytecode": "0x60806040523480156200001157600080fd5b50604051620061313803806200613183398181016040528101906200003791906200020e565b6200004c6000801b336200009460201b60201c565b80600160006101000a81548173ffffffffffffffffffffffffffffffffffffffff021916908373ffffffffffffffffffffffffffffffffffffffff1602179055505062000288565b620000a682826200018560201b60201c565b6200018157600160008084815260200190815260200160002060000160008373ffffffffffffffffffffffffffffffffffffffff1673ffffffffffffffffffffffffffffffffffffffff16815260200190815260200160002060006101000a81548160ff02191690831515021790555062000126620001ef60201b60201c565b73ffffffffffffffffffffffffffffffffffffffff168173ffffffffffffffffffffffffffffffffffffffff16837f2f8788117e7eff1d82e926ec794901d17c78024a50270940304540a733656f0d60405160405180910390a45b5050565b600080600084815260200190815260200160002060000160008373ffffffffffffffffffffffffffffffffffffffff1673ffffffffffffffffffffffffffffffffffffffff16815260200190815260200160002060009054906101000a900460ff16905092915050565b600033905090565b60008151905062000208816200026e565b92915050565b6000602082840312156200022157600080fd5b60006200023184828501620001f7565b91505092915050565b600062000247826200024e565b9050919050565b600073ffffffffffffffffffffffffffffffffffffffff82169050919050565b62000279816200023a565b81146200028557600080fd5b50565b615e9980620002986000396000f3fe60806040526004361061025c5760003560e01c806391d1485411610144578063ca2660fd116100b6578063dc3d886f1161007a578063dc3d886f14610991578063f38ad964146109ba578063f7d97577146109f7578063f9f96b9e14610a20578063fabc1cbc14610a5d578063fce223b414610a865761025c565b8063ca2660fd146108bd578063d0497523146108e6578063d1b5bd6a1461090f578063d547741f14610938578063d6febde8146109615761025c565b8063a47f909211610108578063a47f90921461078b578063ac26e4c9146107c8578063ad286a9c14610805578063b137479d14610842578063b56561851461086b578063bd33f081146108945761025c565b806391d14854146106805780639c0e6e1f146106bd5780639d5aef30146106fa5780639f270c2214610737578063a217fddf146107605761025c565b80633a4657b4116101dd5780636ddd9f20116101a15780636ddd9f201461055b57806370a905511461059857806376dad91a146105c15780637fd39247146105ea57806389fe08f81461061357806391943b55146106505761025c565b80633a4657b41461043e578063531b14b91461047b578063569f6f92146104b857806358bd42e1146104e157806362f7a7ed1461051e5761025c565b8063248a9ca311610224578063248a9ca314610342578063287f5fb71461037f5780632f2ff15d146103bc578063314398d8146103e557806336568abe146104155761025c565b806301ffc9a7146102615780630ad1d81c1461029e578063128e1c5b146102c7578063136439dd146102f0578063231c228114610319575b600080fd5b34801561026d57600080fd5b5061028860048036038101906102839190614972565b610ac3565b6040516102959190615270565b60405180910390f35b3480156102aa57600080fd5b506102c560048036038101906102c0919061499b565b610b3d565b005b3480156102d357600080fd5b506102ee60048036038101906102e99190614aef565b610c0e565b005b3480156102fc57600080fd5b506103176004803603810190610312919061499b565b610ee2565b005b34801561032557600080fd5b50610340600480360381019061033b9190614c3e565b610fb4565b005b34801561034e57600080fd5b506103696004803603810190610364919061490d565b610fe9565b604051610376919061528b565b60405180910390f35b34801561038b57600080fd5b506103a660048036038101906103a1919061499b565b611008565b6040516103b391906151f5565b60405180910390f35b3480156103c857600080fd5b506103e360048036038101906103de9190614936565b61103b565b005b6103ff60048036038101906103fa9190614aa0565b611064565b60405161040c9190615588565b60405180910390f35b34801561042157600080fd5b5061043c60048036038101906104379190614936565b61107a565b005b34801561044a57600080fd5b50610465600480360381019061046091906148a8565b6110fd565b6040516104729190615588565b60405180910390f35b34801561048757600080fd5b506104a2600480360381019061049d919061499b565b611122565b6040516104af91906152a6565b60405180910390f35b3480156104c457600080fd5b506104df60048036038101906104da919061499b565b6111c2565b005b3480156104ed57600080fd5b506105086004803603810190610503919061499b565b611227565b6040516105159190615270565b60405180910390f35b34801561052a57600080fd5b506105456004803603810190610540919061499b565b611247565b6040516105529190615588565b60405180910390f35b34801561056757600080fd5b50610582600480360381019061057d919061499b565b61125f565b60405161058f9190615588565b60405180910390f35b3480156105a457600080fd5b506105bf60048036038101906105ba91906149ed565b611277565b005b3480156105cd57600080fd5b506105e860048036038101906105e39190614a29565b611387565b005b3480156105f657600080fd5b50610611600480360381019061060c91906149ed565b6114c1565b005b34801561061f57600080fd5b5061063a6004803603810190610635919061499b565b61163f565b60405161064791906151f5565b60405180910390f35b61066a60048036038101906106659190614aa0565b611672565b6040516106779190615588565b60405180910390f35b34801561068c57600080fd5b506106a760048036038101906106a29190614936565b611e5a565b6040516106b49190615270565b60405180910390f35b3480156106c957600080fd5b506106e460048036038101906106df919061499b565b611ec4565b6040516106f19190615588565b60405180910390f35b34801561070657600080fd5b50610721600480360381019061071c919061499b565b611edc565b60405161072e9190615588565b60405180910390f35b34801561074357600080fd5b5061075e6004803603810190610759919061499b565b6121ff565b005b34801561076c57600080fd5b50610775612244565b604051610782919061528b565b60405180910390f35b34801561079757600080fd5b506107b260048036038101906107ad91906149ed565b61224b565b6040516107bf9190615270565b60405180910390f35b3480156107d457600080fd5b506107ef60048036038101906107ea919061499b565b61227a565b6040516107fc9190615270565b60405180910390f35b34801561081157600080fd5b5061082c6004803603810190610827919061499b565b61229a565b6040516108399190615588565b60405180910390f35b34801561084e57600080fd5b506108696004803603810190610864919061499b565b6122b2565b005b34801561087757600080fd5b50610892600480360381019061088d9190614c3e565b6122f7565b005b3480156108a057600080fd5b506108bb60048036038101906108b6919061499b565b61232c565b005b3480156108c957600080fd5b506108e460048036038101906108df91906149ed565b61252e565b005b3480156108f257600080fd5b5061090d60048036038101906109089190614b5b565b61263e565b005b34801561091b57600080fd5b5061093660048036038101906109319190614c02565b612940565b005b34801561094457600080fd5b5061095f600480360381019061095a9190614936565b612a62565b005b61097b60048036038101906109769190614c02565b612a8b565b6040516109889190615588565b60405180910390f35b34801561099d57600080fd5b506109b860048036038101906109b39190614c02565b612aa0565b005b3480156109c657600080fd5b506109e160048036038101906109dc919061499b565b612bc2565b6040516109ee9190615588565b60405180910390f35b348015610a0357600080fd5b50610a1e6004803603810190610a199190614c02565b612bda565b005b348015610a2c57600080fd5b50610a476004803603810190610a42919061499b565b612d8c565b604051610a549190615270565b60405180910390f35b348015610a6957600080fd5b50610a846004803603810190610a7f919061499b565b612dac565b005b348015610a9257600080fd5b50610aad6004803603810190610aa8919061499b565b612e7e565b604051610aba9190615270565b60405180910390f35b60007f7965db0b000000000000000000000000000000000000000000000000000000007bffffffffffffffffffffffffffffffffffffffffffffffffffffffff1916827bffffffffffffffffffffffffffffffffffffffffffffffffffffffff19161480610b365750610b3582612e9e565b5b9050919050565b6000801b610b5281610b4d612f08565b612f10565b600f600083815260200190815260200160002060009054906101000a900460ff16610bb2576040517f08c379a0000000000000000000000000000000000000000000000000000000008152600401610ba990615368565b60405180910390fd5b60016008600084815260200190815260200160002060006101000a81548160ff02191690831515021790555060016009600084815260200190815260200160002060006101000a81548160ff0219169083151502179055505050565b836002600082815260200190815260200160002060009054906101000a900473ffffffffffffffffffffffffffffffffffffffff1673ffffffffffffffffffffffffffffffffffffffff163373ffffffffffffffffffffffffffffffffffffffff1614610cb0576040517f08c379a0000000000000000000000000000000000000000000000000000000008152600401610ca7906154a8565b60405180910390fd5b846008600082815260200190815260200160002060009054906101000a900460ff1615610d12576040517f08c379a0000000000000000000000000000000000000000000000000000000008152600401610d0990615428565b60405180910390fd5b60008585905011610d58576040517f08c379a0000000000000000000000000000000000000000000000000000000008152600401610d4f90615548565b60405180910390fd5b604051602001610d6790615191565b604051602081830303815290604052805190602001208585604051602001610d90929190615161565b6040516020818303038152906040528051906020012014610e1c57600073ffffffffffffffffffffffffffffffffffffffff168373ffffffffffffffffffffffffffffffffffffffff161415610e1b576040517f08c379a0000000000000000000000000000000000000000000000000000000008152600401610e12906153e8565b60405180910390fd5b5b8484600660008981526020019081526020016000209190610e3e929190614611565b50826005600088815260200190815260200160002060006101000a81548173ffffffffffffffffffffffffffffffffffffffff021916908373ffffffffffffffffffffffffffffffffffffffff160217905550600060046000888152602001908152602001600020541115610eda576001600f600088815260200190815260200160002060006101000a81548160ff0219169083151502179055505b505050505050565b806002600082815260200190815260200160002060009054906101000a900473ffffffffffffffffffffffffffffffffffffffff1673ffffffffffffffffffffffffffffffffffffffff163373ffffffffffffffffffffffffffffffffffffffff1614610f84576040517f08c379a0000000000000000000000000000000000000000000000000000000008152600401610f7b906154a8565b60405180910390fd5b60016009600084815260200190815260200160002060006101000a81548160ff0219169083151502179055505050565b6000801b610fc981610fc4612f08565b612f10565b8160ff16600c600085815260200190815260200160002081905550505050565b6000806000838152602001908152602001600020600101549050919050565b60056020528060005260406000206000915054906101000a900473ffffffffffffffffffffffffffffffffffffffff1681565b61104482610fe9565b61105581611050612f08565b612f10565b61105f8383612fad565b505050565b6000611071848484611672565b90509392505050565b611082612f08565b73ffffffffffffffffffffffffffffffffffffffff168173ffffffffffffffffffffffffffffffffffffffff16146110ef576040517f08c379a00000000000000000000000000000000000000000000000000000000081526004016110e690615568565b60405180910390fd5b6110f9828261308d565b5050565b600b602052816000526040600020602052806000526040600020600091509150505481565b6006602052806000526040600020600091509050805461114190615833565b80601f016020809104026020016040519081016040528092919081815260200182805461116d90615833565b80156111ba5780601f1061118f576101008083540402835291602001916111ba565b820191906000526020600020905b81548152906001019060200180831161119d57829003601f168201915b505050505081565b6000801b6111d7816111d2612f08565b612f10565b600a600083815260200190815260200160002060009054906101000a900460ff1615600a600084815260200190815260200160002060006101000a81548160ff0219169083151502179055505050565b600f6020528060005260406000206000915054906101000a900460ff1681565b600c6020528060005260406000206000915090505481565b60076020528060005260406000206000915090505481565b816002600082815260200190815260200160002060009054906101000a900473ffffffffffffffffffffffffffffffffffffffff1673ffffffffffffffffffffffffffffffffffffffff163373ffffffffffffffffffffffffffffffffffffffff1614611319576040517f08c379a0000000000000000000000000000000000000000000000000000000008152600401611310906154a8565b60405180910390fd5b6001600d600085815260200190815260200160002060008473ffffffffffffffffffffffffffffffffffffffff1673ffffffffffffffffffffffffffffffffffffffff16815260200190815260200160002060006101000a81548160ff021916908315150217905550505050565b6000801b61139c81611397612f08565b612f10565b600073ffffffffffffffffffffffffffffffffffffffff168573ffffffffffffffffffffffffffffffffffffffff16141561140c576040517f08c379a000000000000000000000000000000000000000000000000000000000815260040161140390615488565b60405180910390fd5b846002600088815260200190815260200160002060006101000a81548173ffffffffffffffffffffffffffffffffffffffff021916908373ffffffffffffffffffffffffffffffffffffffff16021790555083600a600088815260200190815260200160002060006101000a81548160ff02191690831515021790555082600760008881526020019081526020016000208190555081600c600088815260200190815260200160002081905550505050505050565b6000801b6114d6816114d1612f08565b612f10565b8173ffffffffffffffffffffffffffffffffffffffff166002600085815260200190815260200160002060009054906101000a900473ffffffffffffffffffffffffffffffffffffffff1673ffffffffffffffffffffffffffffffffffffffff161415611578576040517f08c379a000000000000000000000000000000000000000000000000000000000815260040161156f90615508565b60405180910390fd5b600073ffffffffffffffffffffffffffffffffffffffff168273ffffffffffffffffffffffffffffffffffffffff1614156115e8576040517f08c379a00000000000000000000000000000000000000000000000000000000081526004016115df90615488565b60405180910390fd5b816002600085815260200190815260200160002060006101000a81548173ffffffffffffffffffffffffffffffffffffffff021916908373ffffffffffffffffffffffffffffffffffffffff160217905550505050565b60026020528060005260406000206000915054906101000a900473ffffffffffffffffffffffffffffffffffffffff1681565b60006008600085815260200190815260200160002060009054906101000a900460ff166116d4576040517f08c379a00000000000000000000000000000000000000000000000000000000081526004016116cb906153a8565b60405180910390fd5b6009600085815260200190815260200160002060009054906101000a900460ff1615611735576040517f08c379a000000000000000000000000000000000000000000000000000000000815260040161172c90615348565b60405180910390fd5b6000600160009054906101000a900473ffffffffffffffffffffffffffffffffffffffff1673ffffffffffffffffffffffffffffffffffffffff16634ca3e9b8866040518263ffffffff1660e01b81526004016117929190615588565b60206040518083038186803b1580156117aa57600080fd5b505afa1580156117be573d6000803e3d6000fd5b505050506040513d601f19601f820116820180604052508101906117e29190614856565b905060036000868152602001908152602001600020548173ffffffffffffffffffffffffffffffffffffffff166318160ddd6040518163ffffffff1660e01b815260040160206040518083038186803b15801561183e57600080fd5b505afa158015611852573d6000803e3d6000fd5b505050506040513d601f19601f8201168201806040525081019061187691906149c4565b10156118b7576040517f08c379a00000000000000000000000000000000000000000000000000000000081526004016118ae906154e8565b60405180910390fd5b60006007600087815260200190815260200160002054111561192a576007600086815260200190815260200160002054831115611929576040517f08c379a000000000000000000000000000000000000000000000000000000000815260040161192090615328565b60405180910390fd5b5b600a600086815260200190815260200160002060009054906101000a900460ff16156119bf573273ffffffffffffffffffffffffffffffffffffffff163373ffffffffffffffffffffffffffffffffffffffff16146119be576040517f08c379a00000000000000000000000000000000000000000000000000000000081526004016119b5906154c8565b60405180910390fd5b5b6000600c6000878152602001908152602001600020541115611ae757600c600086815260200190815260200160002054600b60003373ffffffffffffffffffffffffffffffffffffffff1673ffffffffffffffffffffffffffffffffffffffff16815260200190815260200160002060008781526020019081526020016000205410611a80576040517f08c379a0000000000000000000000000000000000000000000000000000000008152600401611a7790615308565b60405180910390fd5b600b60003373ffffffffffffffffffffffffffffffffffffffff1673ffffffffffffffffffffffffffffffffffffffff16815260200190815260200160002060008681526020019081526020016000206000815480929190611ae190615865565b91905055505b6000600e600087815260200190815260200160002054118015611bb757506003600086815260200190815260200160002054600e600087815260200190815260200160002054611b3791906155df565b8173ffffffffffffffffffffffffffffffffffffffff166318160ddd6040518163ffffffff1660e01b815260040160206040518083038186803b158015611b7d57600080fd5b505afa158015611b91573d6000803e3d6000fd5b505050506040513d601f19601f82011682018060405250810190611bb591906149c4565b105b15611c5a57600d600086815260200190815260200160002060003373ffffffffffffffffffffffffffffffffffffffff1673ffffffffffffffffffffffffffffffffffffffff16815260200190815260200160002060009054906101000a900460ff16611c59576040517f08c379a0000000000000000000000000000000000000000000000000000000008152600401611c50906153c8565b60405180910390fd5b5b611c64858461316e565b60008173ffffffffffffffffffffffffffffffffffffffff1663284855866040518163ffffffff1660e01b815260040160206040518083038186803b158015611cac57600080fd5b505afa158015611cc0573d6000803e3d6000fd5b505050506040513d601f19601f82011682018060405250810190611ce491906149c4565b8273ffffffffffffffffffffffffffffffffffffffff166318160ddd6040518163ffffffff1660e01b815260040160206040518083038186803b158015611d2a57600080fd5b505afa158015611d3e573d6000803e3d6000fd5b505050506040513d601f19601f82011682018060405250810190611d6291906149c4565b10611da2576040517f08c379a0000000000000000000000000000000000000000000000000000000008152600401611d9990615528565b60405180910390fd5b60005b84811015611e4d578273ffffffffffffffffffffffffffffffffffffffff16636a627842876040518263ffffffff1660e01b8152600401611de691906151f5565b602060405180830381600087803b158015611e0057600080fd5b505af1158015611e14573d6000803e3d6000fd5b505050506040513d601f19601f82011682018060405250810190611e3891906149c4565b91508080611e4590615865565b915050611da5565b5080925050509392505050565b600080600084815260200190815260200160002060000160008373ffffffffffffffffffffffffffffffffffffffff1673ffffffffffffffffffffffffffffffffffffffff16815260200190815260200160002060009054906101000a900460ff16905092915050565b60036020528060005260406000206000915090505481565b60006008600083815260200190815260200160002060009054906101000a900460ff16611f3e576040517f08c379a0000000000000000000000000000000000000000000000000000000008152600401611f35906153a8565b60405180910390fd5b6002600083815260200190815260200160002060009054906101000a900473ffffffffffffffffffffffffffffffffffffffff1673ffffffffffffffffffffffffffffffffffffffff163373ffffffffffffffffffffffffffffffffffffffff1614611fdf576040517f08c379a0000000000000000000000000000000000000000000000000000000008152600401611fd6906154a8565b60405180910390fd5b6000600160009054906101000a900473ffffffffffffffffffffffffffffffffffffffff1673ffffffffffffffffffffffffffffffffffffffff16634ca3e9b8846040518263ffffffff1660e01b815260040161203c9190615588565b60206040518083038186803b15801561205457600080fd5b505afa158015612068573d6000803e3d6000fd5b505050506040513d601f19601f8201168201806040525081019061208c9190614856565b905060036000848152602001908152602001600020548173ffffffffffffffffffffffffffffffffffffffff166318160ddd6040518163ffffffff1660e01b815260040160206040518083038186803b1580156120e857600080fd5b505afa1580156120fc573d6000803e3d6000fd5b505050506040513d601f19601f8201168201806040525081019061212091906149c4565b10612160576040517f08c379a000000000000000000000000000000000000000000000000000000000815260040161215790615408565b60405180910390fd5b600033905060008273ffffffffffffffffffffffffffffffffffffffff16636a627842836040518263ffffffff1660e01b81526004016121a091906151f5565b602060405180830381600087803b1580156121ba57600080fd5b505af11580156121ce573d6000803e3d6000fd5b505050506040513d601f19601f820116820180604052508101906121f291906149c4565b9050809350505050919050565b6000801b6122148161220f612f08565b612f10565b60006009600084815260200190815260200160002060006101000a81548160ff0219169083151502179055505050565b6000801b81565b600d6020528160005260406000206020528060005260406000206000915091509054906101000a900460ff1681565b60086020528060005260406000206000915054906101000a900460ff1681565b60046020528060005260406000206000915090505481565b6000801b6122c7816122c2612f08565b612f10565b60016009600084815260200190815260200160002060006101000a81548160ff0219169083151502179055505050565b6000801b61230c81612307612f08565b612f10565b8160ff166007600085815260200190815260200160002081905550505050565b806002600082815260200190815260200160002060009054906101000a900473ffffffffffffffffffffffffffffffffffffffff1673ffffffffffffffffffffffffffffffffffffffff163373ffffffffffffffffffffffffffffffffffffffff16146123ce576040517f08c379a00000000000000000000000000000000000000000000000000000000081526004016123c5906154a8565b60405180910390fd5b816008600082815260200190815260200160002060009054906101000a900460ff1615612430576040517f08c379a000000000000000000000000000000000000000000000000000000000815260040161242790615428565b60405180910390fd5b6040518060400160405280600381526020017f455448000000000000000000000000000000000000000000000000000000000081525060066000858152602001908152602001600020908051906020019061248c929190614697565b5060006005600085815260200190815260200160002060006101000a81548173ffffffffffffffffffffffffffffffffffffffff021916908373ffffffffffffffffffffffffffffffffffffffff160217905550600060046000858152602001908152602001600020541115612529576001600f600085815260200190815260200160002060006101000a81548160ff0219169083151502179055505b505050565b816002600082815260200190815260200160002060009054906101000a900473ffffffffffffffffffffffffffffffffffffffff1673ffffffffffffffffffffffffffffffffffffffff163373ffffffffffffffffffffffffffffffffffffffff16146125d0576040517f08c379a00000000000000000000000000000000000000000000000000000000081526004016125c7906154a8565b60405180910390fd5b6000600d600085815260200190815260200160002060008473ffffffffffffffffffffffffffffffffffffffff1673ffffffffffffffffffffffffffffffffffffffff16815260200190815260200160002060006101000a81548160ff021916908315150217905550505050565b866002600082815260200190815260200160002060009054906101000a900473ffffffffffffffffffffffffffffffffffffffff1673ffffffffffffffffffffffffffffffffffffffff163373ffffffffffffffffffffffffffffffffffffffff16146126e0576040517f08c379a00000000000000000000000000000000000000000000000000000000081526004016126d7906154a8565b60405180910390fd5b876008600082815260200190815260200160002060009054906101000a900460ff1615612742576040517f08c379a000000000000000000000000000000000000000000000000000000000815260040161273990615428565b60405180910390fd5b60008888905011612788576040517f08c379a000000000000000000000000000000000000000000000000000000000815260040161277f90615548565b60405180910390fd5b60405160200161279790615191565b6040516020818303038152906040528051906020012088886040516020016127c0929190615161565b604051602081830303815290604052805190602001201461284c57600073ffffffffffffffffffffffffffffffffffffffff168673ffffffffffffffffffffffffffffffffffffffff16141561284b576040517f08c379a0000000000000000000000000000000000000000000000000000000008152600401612842906153e8565b60405180910390fd5b5b8787600660008c8152602001908152602001600020919061286e929190614611565b5085600560008b815260200190815260200160002060006101000a81548173ffffffffffffffffffffffffffffffffffffffff021916908373ffffffffffffffffffffffffffffffffffffffff16021790555084600460008b81526020019081526020016000208190555083600360008b81526020019081526020016000208190555082600e60008b8152602001908152602001600020819055506001600f60008b815260200190815260200160002060006101000a81548160ff021916908315150217905550505050505050505050565b816002600082815260200190815260200160002060009054906101000a900473ffffffffffffffffffffffffffffffffffffffff1673ffffffffffffffffffffffffffffffffffffffff163373ffffffffffffffffffffffffffffffffffffffff16146129e2576040517f08c379a00000000000000000000000000000000000000000000000000000000081526004016129d9906154a8565b60405180910390fd5b826008600082815260200190815260200160002060009054906101000a900460ff1615612a44576040517f08c379a0000000000000000000000000000000000000000000000000000000008152600401612a3b90615428565b60405180910390fd5b82600e60008681526020019081526020016000208190555050505050565b612a6b82610fe9565b612a7c81612a77612f08565b612f10565b612a86838361308d565b505050565b6000612a98833384611672565b905092915050565b816002600082815260200190815260200160002060009054906101000a900473ffffffffffffffffffffffffffffffffffffffff1673ffffffffffffffffffffffffffffffffffffffff163373ffffffffffffffffffffffffffffffffffffffff1614612b42576040517f08c379a0000000000000000000000000000000000000000000000000000000008152600401612b39906154a8565b60405180910390fd5b826008600082815260200190815260200160002060009054906101000a900460ff1615612ba4576040517f08c379a0000000000000000000000000000000000000000000000000000000008152600401612b9b90615428565b60405180910390fd5b82600360008681526020019081526020016000208190555050505050565b600e6020528060005260406000206000915090505481565b816002600082815260200190815260200160002060009054906101000a900473ffffffffffffffffffffffffffffffffffffffff1673ffffffffffffffffffffffffffffffffffffffff163373ffffffffffffffffffffffffffffffffffffffff1614612c7c576040517f08c379a0000000000000000000000000000000000000000000000000000000008152600401612c73906154a8565b60405180910390fd5b826008600082815260200190815260200160002060009054906101000a900460ff1615612cde576040517f08c379a0000000000000000000000000000000000000000000000000000000008152600401612cd590615428565b60405180910390fd5b826004600086815260200190815260200160002081905550604051602001612d05906151a6565b6040516020818303038152906040528051906020012060066000868152602001908152602001600020604051602001612d3e919061517a565b6040516020818303038152906040528051906020012014612d86576001600f600086815260200190815260200160002060006101000a81548160ff0219169083151502179055505b50505050565b600a6020528060005260406000206000915054906101000a900460ff1681565b806002600082815260200190815260200160002060009054906101000a900473ffffffffffffffffffffffffffffffffffffffff1673ffffffffffffffffffffffffffffffffffffffff163373ffffffffffffffffffffffffffffffffffffffff1614612e4e576040517f08c379a0000000000000000000000000000000000000000000000000000000008152600401612e45906154a8565b60405180910390fd5b60006009600084815260200190815260200160002060006101000a81548160ff0219169083151502179055505050565b60096020528060005260406000206000915054906101000a900460ff1681565b60007f01ffc9a7000000000000000000000000000000000000000000000000000000007bffffffffffffffffffffffffffffffffffffffffffffffffffffffff1916827bffffffffffffffffffffffffffffffffffffffffffffffffffffffff1916149050919050565b600033905090565b612f1a8282611e5a565b612fa957612f3f8173ffffffffffffffffffffffffffffffffffffffff16601461349e565b612f4d8360001c602061349e565b604051602001612f5e9291906151bb565b6040516020818303038152906040526040517f08c379a0000000000000000000000000000000000000000000000000000000008152600401612fa091906152a6565b60405180910390fd5b5050565b612fb78282611e5a565b61308957600160008084815260200190815260200160002060000160008373ffffffffffffffffffffffffffffffffffffffff1673ffffffffffffffffffffffffffffffffffffffff16815260200190815260200160002060006101000a81548160ff02191690831515021790555061302e612f08565b73ffffffffffffffffffffffffffffffffffffffff168173ffffffffffffffffffffffffffffffffffffffff16837f2f8788117e7eff1d82e926ec794901d17c78024a50270940304540a733656f0d60405160405180910390a45b5050565b6130978282611e5a565b1561316a57600080600084815260200190815260200160002060000160008373ffffffffffffffffffffffffffffffffffffffff1673ffffffffffffffffffffffffffffffffffffffff16815260200190815260200160002060006101000a81548160ff02191690831515021790555061310f612f08565b73ffffffffffffffffffffffffffffffffffffffff168173ffffffffffffffffffffffffffffffffffffffff16837ff6391f5c32d9c69d2a47ea670b442974b53935d1edc7fd64eb21e047a839171b60405160405180910390a45b5050565b600061319682600460008681526020019081526020016000205461379890919063ffffffff16565b90506040516020016131a790615191565b60405160208183030381529060405280519060200120600660008581526020019081526020016000206040516020016131e0919061517a565b604051602081830303815290604052805190602001201461344b576000341461323e576040517f08c379a000000000000000000000000000000000000000000000000000000000815260040161323590615468565b60405180910390fd5b806005600085815260200190815260200160002060009054906101000a900473ffffffffffffffffffffffffffffffffffffffff1673ffffffffffffffffffffffffffffffffffffffff1663dd62ed3e33306040518363ffffffff1660e01b81526004016132ad929190615210565b60206040518083038186803b1580156132c557600080fd5b505afa1580156132d9573d6000803e3d6000fd5b505050506040513d601f19601f820116820180604052508101906132fd91906149c4565b101561333e576040517f08c379a000000000000000000000000000000000000000000000000000000000815260040161333590615448565b60405180910390fd5b806005600085815260200190815260200160002060009054906101000a900473ffffffffffffffffffffffffffffffffffffffff1673ffffffffffffffffffffffffffffffffffffffff166370a08231336040518263ffffffff1660e01b81526004016133ab91906151f5565b60206040518083038186803b1580156133c357600080fd5b505afa1580156133d7573d6000803e3d6000fd5b505050506040513d601f19601f820116820180604052508101906133fb91906149c4565b101561343c576040517f08c379a000000000000000000000000000000000000000000000000000000000815260040161343390615388565b60405180910390fd5b61344683836137ae565b613499565b8034101561348e576040517f08c379a0000000000000000000000000000000000000000000000000000000008152600401613485906152e8565b60405180910390fd5b6134988383613eb4565b5b505050565b6060600060028360026134b19190615666565b6134bb91906155df565b67ffffffffffffffff8111156134fa577f4e487b7100000000000000000000000000000000000000000000000000000000600052604160045260246000fd5b6040519080825280601f01601f19166020018201604052801561352c5781602001600182028036833780820191505090505b5090507f30000000000000000000000000000000000000000000000000000000000000008160008151811061358a577f4e487b7100000000000000000000000000000000000000000000000000000000600052603260045260246000fd5b60200101907effffffffffffffffffffffffffffffffffffffffffffffffffffffffffffff1916908160001a9053507f780000000000000000000000000000000000000000000000000000000000000081600181518110613614577f4e487b7100000000000000000000000000000000000000000000000000000000600052603260045260246000fd5b60200101907effffffffffffffffffffffffffffffffffffffffffffffffffffffffffffff1916908160001a905350600060018460026136549190615666565b61365e91906155df565b90505b600181111561374a577f3031323334353637383961626364656600000000000000000000000000000000600f8616601081106136c6577f4e487b7100000000000000000000000000000000000000000000000000000000600052603260045260246000fd5b1a60f81b828281518110613703577f4e487b7100000000000000000000000000000000000000000000000000000000600052603260045260246000fd5b60200101907effffffffffffffffffffffffffffffffffffffffffffffffffffffffffffff1916908160001a905350600485901c94508061374390615809565b9050613661565b506000841461378e576040517f08c379a0000000000000000000000000000000000000000000000000000000008152600401613785906152c8565b60405180910390fd5b8091505092915050565b600081836137a69190615666565b905092915050565b60006004600084815260200190815260200160002054905060006137db838361379890919063ffffffff16565b905060006138a7612710613899600160009054906101000a900473ffffffffffffffffffffffffffffffffffffffff1673ffffffffffffffffffffffffffffffffffffffff16631f7418976040518163ffffffff1660e01b8152600401602060405180830381600087803b15801561385257600080fd5b505af1158015613866573d6000803e3d6000fd5b505050506040513d601f19601f8201168201806040525081019061388a91906149c4565b8561379890919063ffffffff16565b61448a90919063ffffffff16565b90506000811115613a17576005600086815260200190815260200160002060009054906101000a900473ffffffffffffffffffffffffffffffffffffffff1673ffffffffffffffffffffffffffffffffffffffff166323b872dd33600160009054906101000a900473ffffffffffffffffffffffffffffffffffffffff1673ffffffffffffffffffffffffffffffffffffffff16637dafc0d36040518163ffffffff1660e01b8152600401602060405180830381600087803b15801561396c57600080fd5b505af1158015613980573d6000803e3d6000fd5b505050506040513d601f19601f820116820180604052508101906139a4919061487f565b846040518463ffffffff1660e01b81526004016139c393929190615239565b602060405180830381600087803b1580156139dd57600080fd5b505af11580156139f1573d6000803e3d6000fd5b505050506040513d601f19601f82011682018060405250810190613a1591906148e4565b505b6000600160009054906101000a900473ffffffffffffffffffffffffffffffffffffffff1673ffffffffffffffffffffffffffffffffffffffff16634ca3e9b8876040518263ffffffff1660e01b8152600401613a749190615588565b60206040518083038186803b158015613a8c57600080fd5b505afa158015613aa0573d6000803e3d6000fd5b505050506040513d601f19601f82011682018060405250810190613ac49190614856565b90508073ffffffffffffffffffffffffffffffffffffffff16638cbe8d806040518163ffffffff1660e01b815260040160206040518083038186803b158015613b0c57600080fd5b505afa158015613b20573d6000803e3d6000fd5b505050506040513d601f19601f82011682018060405250810190613b44919061487f565b506000613beb612710613bdd8473ffffffffffffffffffffffffffffffffffffffff16632cc889746040518163ffffffff1660e01b815260040160206040518083038186803b158015613b9657600080fd5b505afa158015613baa573d6000803e3d6000fd5b505050506040513d601f19601f82011682018060405250810190613bce91906149c4565b8761379890919063ffffffff16565b61448a90919063ffffffff16565b90506000811115613d37576005600088815260200190815260200160002060009054906101000a900473ffffffffffffffffffffffffffffffffffffffff1673ffffffffffffffffffffffffffffffffffffffff166323b872dd338473ffffffffffffffffffffffffffffffffffffffff16636ff314c76040518163ffffffff1660e01b815260040160206040518083038186803b158015613c8c57600080fd5b505afa158015613ca0573d6000803e3d6000fd5b505050506040513d601f19601f82011682018060405250810190613cc4919061487f565b846040518463ffffffff1660e01b8152600401613ce393929190615239565b602060405180830381600087803b158015613cfd57600080fd5b505af1158015613d11573d6000803e3d6000fd5b505050506040513d601f19601f82011682018060405250810190613d3591906148e4565b505b6000613d5e82613d5086886144a090919063ffffffff16565b6144a090919063ffffffff16565b90506000811115613eaa576005600089815260200190815260200160002060009054906101000a900473ffffffffffffffffffffffffffffffffffffffff1673ffffffffffffffffffffffffffffffffffffffff166323b872dd338573ffffffffffffffffffffffffffffffffffffffff16638cbe8d806040518163ffffffff1660e01b815260040160206040518083038186803b158015613dff57600080fd5b505afa158015613e13573d6000803e3d6000fd5b505050506040513d601f19601f82011682018060405250810190613e37919061487f565b846040518463ffffffff1660e01b8152600401613e5693929190615239565b602060405180830381600087803b158015613e7057600080fd5b505af1158015613e84573d6000803e3d6000fd5b505050506040513d601f19601f82011682018060405250810190613ea891906148e4565b505b5050505050505050565b6000341115614486576000600460008481526020019081526020016000205490506000613eea838361379890919063ffffffff16565b90506000613f0182346144a090919063ffffffff16565b90506000811115613f54573373ffffffffffffffffffffffffffffffffffffffff166108fc829081150290604051600060405180830381858888f19350505050158015613f52573d6000803e3d6000fd5b505b600061401e612710614010600160009054906101000a900473ffffffffffffffffffffffffffffffffffffffff1673ffffffffffffffffffffffffffffffffffffffff16631f7418976040518163ffffffff1660e01b8152600401602060405180830381600087803b158015613fc957600080fd5b505af1158015613fdd573d6000803e3d6000fd5b505050506040513d601f19601f8201168201806040525081019061400191906149c4565b8661379890919063ffffffff16565b61448a90919063ffffffff16565b9050600081111561411b57614032816144b6565b600160009054906101000a900473ffffffffffffffffffffffffffffffffffffffff1673ffffffffffffffffffffffffffffffffffffffff16637dafc0d36040518163ffffffff1660e01b8152600401602060405180830381600087803b15801561409c57600080fd5b505af11580156140b0573d6000803e3d6000fd5b505050506040513d601f19601f820116820180604052508101906140d4919061487f565b73ffffffffffffffffffffffffffffffffffffffff166108fc829081150290604051600060405180830381858888f19350505050158015614119573d6000803e3d6000fd5b505b6000600160009054906101000a900473ffffffffffffffffffffffffffffffffffffffff1673ffffffffffffffffffffffffffffffffffffffff16634ca3e9b8886040518263ffffffff1660e01b81526004016141789190615588565b60206040518083038186803b15801561419057600080fd5b505afa1580156141a4573d6000803e3d6000fd5b505050506040513d601f19601f820116820180604052508101906141c89190614856565b905060006142706127106142628473ffffffffffffffffffffffffffffffffffffffff16632cc889746040518163ffffffff1660e01b815260040160206040518083038186803b15801561421b57600080fd5b505afa15801561422f573d6000803e3d6000fd5b505050506040513d601f19601f8201168201806040525081019061425391906149c4565b8861379890919063ffffffff16565b61448a90919063ffffffff16565b90506000811115614387576142b96040518060400160405280600581526020017f706179656500000000000000000000000000000000000000000000000000000081525061454f565b6142c2816144b6565b8173ffffffffffffffffffffffffffffffffffffffff16636ff314c76040518163ffffffff1660e01b815260040160206040518083038186803b15801561430857600080fd5b505afa15801561431c573d6000803e3d6000fd5b505050506040513d601f19601f82011682018060405250810190614340919061487f565b73ffffffffffffffffffffffffffffffffffffffff166108fc829081150290604051600060405180830381858888f19350505050158015614385573d6000803e3d6000fd5b505b60006143ae826143a086896144a090919063ffffffff16565b6144a090919063ffffffff16565b9050600081111561447e578273ffffffffffffffffffffffffffffffffffffffff16638cbe8d806040518163ffffffff1660e01b815260040160206040518083038186803b1580156143ff57600080fd5b505afa158015614413573d6000803e3d6000fd5b505050506040513d601f19601f82011682018060405250810190614437919061487f565b73ffffffffffffffffffffffffffffffffffffffff166108fc829081150290604051600060405180830381858888f1935050505015801561447c573d6000803e3d6000fd5b505b505050505050505b5050565b600081836144989190615635565b905092915050565b600081836144ae91906156c0565b905092915050565b61454c816040516024016144ca9190615588565b6040516020818303038152906040527ff5b1bba9000000000000000000000000000000000000000000000000000000007bffffffffffffffffffffffffffffffffffffffffffffffffffffffff19166020820180517bffffffffffffffffffffffffffffffffffffffffffffffffffffffff83818316178352505050506145e8565b50565b6145e58160405160240161456391906152a6565b6040516020818303038152906040527f41304fac000000000000000000000000000000000000000000000000000000007bffffffffffffffffffffffffffffffffffffffffffffffffffffffff19166020820180517bffffffffffffffffffffffffffffffffffffffffffffffffffffffff83818316178352505050506145e8565b50565b60008151905060006a636f6e736f6c652e6c6f679050602083016000808483855afa5050505050565b82805461461d90615833565b90600052602060002090601f01602090048101928261463f5760008555614686565b82601f1061465857803560ff1916838001178555614686565b82800160010185558215614686579182015b8281111561468557823582559160200191906001019061466a565b5b509050614693919061471d565b5090565b8280546146a390615833565b90600052602060002090601f0160209004810192826146c5576000855561470c565b82601f106146de57805160ff191683800117855561470c565b8280016001018555821561470c579182015b8281111561470b5782518255916020019190600101906146f0565b5b509050614719919061471d565b5090565b5b8082111561473657600081600090555060010161471e565b5090565b60008135905061474981615dc2565b92915050565b60008151905061475e81615dc2565b92915050565b60008151905061477381615dd9565b92915050565b60008135905061478881615df0565b92915050565b60008151905061479d81615df0565b92915050565b6000813590506147b281615e07565b92915050565b6000813590506147c781615e1e565b92915050565b60008083601f8401126147df57600080fd5b8235905067ffffffffffffffff8111156147f857600080fd5b60208301915083600182028301111561481057600080fd5b9250929050565b60008135905061482681615e35565b92915050565b60008151905061483b81615e35565b92915050565b60008135905061485081615e4c565b92915050565b60006020828403121561486857600080fd5b60006148768482850161474f565b91505092915050565b60006020828403121561489157600080fd5b600061489f84828501614764565b91505092915050565b600080604083850312156148bb57600080fd5b60006148c98582860161473a565b92505060206148da85828601614817565b9150509250929050565b6000602082840312156148f657600080fd5b60006149048482850161478e565b91505092915050565b60006020828403121561491f57600080fd5b600061492d848285016147a3565b91505092915050565b6000806040838503121561494957600080fd5b6000614957858286016147a3565b92505060206149688582860161473a565b9150509250929050565b60006020828403121561498457600080fd5b6000614992848285016147b8565b91505092915050565b6000602082840312156149ad57600080fd5b60006149bb84828501614817565b91505092915050565b6000602082840312156149d657600080fd5b60006149e48482850161482c565b91505092915050565b60008060408385031215614a0057600080fd5b6000614a0e85828601614817565b9250506020614a1f8582860161473a565b9150509250929050565b600080600080600060a08688031215614a4157600080fd5b6000614a4f88828901614817565b9550506020614a608882890161473a565b9450506040614a7188828901614779565b9350506060614a8288828901614817565b9250506080614a9388828901614817565b9150509295509295909350565b600080600060608486031215614ab557600080fd5b6000614ac386828701614817565b9350506020614ad48682870161473a565b9250506040614ae586828701614817565b9150509250925092565b60008060008060608587031215614b0557600080fd5b6000614b1387828801614817565b945050602085013567ffffffffffffffff811115614b3057600080fd5b614b3c878288016147cd565b93509350506040614b4f8782880161473a565b91505092959194509250565b600080600080600080600060c0888a031215614b7657600080fd5b6000614b848a828b01614817565b975050602088013567ffffffffffffffff811115614ba157600080fd5b614bad8a828b016147cd565b96509650506040614bc08a828b0161473a565b9450506060614bd18a828b01614817565b9350506080614be28a828b01614817565b92505060a0614bf38a828b01614817565b91505092959891949750929550565b60008060408385031215614c1557600080fd5b6000614c2385828601614817565b9250506020614c3485828601614817565b9150509250929050565b60008060408385031215614c5157600080fd5b6000614c5f85828601614817565b9250506020614c7085828601614841565b9150509250929050565b614c8381615791565b82525050565b614c92816156f4565b82525050565b614ca181615718565b82525050565b614cb081615724565b82525050565b6000614cc283856155d4565b9350614ccf8385846157c7565b82840190509392505050565b6000614ce6826155b8565b614cf081856155c3565b9350614d008185602086016157d6565b614d098161593b565b840191505092915050565b6000614d1f826155b8565b614d2981856155d4565b9350614d398185602086016157d6565b80840191505092915050565b60008154614d5281615833565b614d5c81866155d4565b94506001821660008114614d775760018114614d8857614dbb565b60ff19831686528186019350614dbb565b614d91856155a3565b60005b83811015614db357815481890152600182019150602081019050614d94565b838801955050505b50505092915050565b6000614dd16020836155c3565b9150614ddc8261594c565b602082019050919050565b6000614df46020836155c3565b9150614dff82615975565b602082019050919050565b6000614e176015836155c3565b9150614e228261599e565b602082019050919050565b6000614e3a6015836155c3565b9150614e45826159c7565b602082019050919050565b6000614e5d600e836155c3565b9150614e68826159f0565b602082019050919050565b6000614e80601a836155c3565b9150614e8b82615a19565b602082019050919050565b6000614ea36015836155c3565b9150614eae82615a42565b602082019050919050565b6000614ec66010836155c3565b9150614ed182615a6b565b602082019050919050565b6000614ee96010836155c3565b9150614ef482615a94565b602082019050919050565b6000614f0c601c836155c3565b9150614f1782615abd565b602082019050919050565b6000614f2f600c836155c3565b9150614f3a82615ae6565b602082019050919050565b6000614f52600c836155c3565b9150614f5d82615b0f565b602082019050919050565b6000614f756022836155c3565b9150614f8082615b38565b604082019050919050565b6000614f98603f836155c3565b9150614fa382615b87565b604082019050919050565b6000614fbb6003836155d4565b9150614fc682615bd6565b600382019050919050565b6000614fde601b836155c3565b9150614fe982615bff565b602082019050919050565b6000615001600a836155c3565b915061500c82615c28565b602082019050919050565b60006150246010836155c3565b915061502f82615c51565b602082019050919050565b60006150476012836155c3565b915061505282615c7a565b602082019050919050565b600061506a6000836155d4565b915061507582615ca3565b600082019050919050565b600061508d6013836155c3565b915061509882615ca6565b602082019050919050565b60006150b0601a836155c3565b91506150bb82615ccf565b602082019050919050565b60006150d36017836155d4565b91506150de82615cf8565b601782019050919050565b60006150f66017836155c3565b915061510182615d21565b602082019050919050565b60006151196011836155d4565b915061512482615d4a565b601182019050919050565b600061513c602f836155c3565b915061514782615d73565b604082019050919050565b61515b8161577a565b82525050565b600061516e828486614cb6565b91508190509392505050565b60006151868284614d45565b915081905092915050565b600061519c82614fae565b9150819050919050565b60006151b18261505d565b9150819050919050565b60006151c6826150c6565b91506151d28285614d14565b91506151dd8261510c565b91506151e98284614d14565b91508190509392505050565b600060208201905061520a6000830184614c89565b92915050565b60006040820190506152256000830185614c89565b6152326020830184614c89565b9392505050565b600060608201905061524e6000830186614c89565b61525b6020830185614c7a565b6152686040830184615152565b949350505050565b60006020820190506152856000830184614c98565b92915050565b60006020820190506152a06000830184614ca7565b92915050565b600060208201905081810360008301526152c08184614cdb565b905092915050565b600060208201905081810360008301526152e181614dc4565b9050919050565b6000602082019050818103600083015261530181614de7565b9050919050565b6000602082019050818103600083015261532181614e0a565b9050919050565b6000602082019050818103600083015261534181614e2d565b9050919050565b6000602082019050818103600083015261536181614e50565b9050919050565b6000602082019050818103600083015261538181614e73565b9050919050565b600060208201905081810360008301526153a181614e96565b9050919050565b600060208201905081810360008301526153c181614eb9565b9050919050565b600060208201905081810360008301526153e181614edc565b9050919050565b6000602082019050818103600083015261540181614eff565b9050919050565b6000602082019050818103600083015261542181614f22565b9050919050565b6000602082019050818103600083015261544181614f45565b9050919050565b6000602082019050818103600083015261546181614f68565b9050919050565b6000602082019050818103600083015261548181614f8b565b9050919050565b600060208201905081810360008301526154a181614fd1565b9050919050565b600060208201905081810360008301526154c181614ff4565b9050919050565b600060208201905081810360008301526154e181615017565b9050919050565b600060208201905081810360008301526155018161503a565b9050919050565b6000602082019050818103600083015261552181615080565b9050919050565b60006020820190508181036000830152615541816150a3565b9050919050565b60006020820190508181036000830152615561816150e9565b9050919050565b600060208201905081810360008301526155818161512f565b9050919050565b600060208201905061559d6000830184615152565b92915050565b60008190508160005260206000209050919050565b600081519050919050565b600082825260208201905092915050565b600081905092915050565b60006155ea8261577a565b91506155f58361577a565b9250827fffffffffffffffffffffffffffffffffffffffffffffffffffffffffffffffff0382111561562a576156296158ae565b5b828201905092915050565b60006156408261577a565b915061564b8361577a565b92508261565b5761565a6158dd565b5b828204905092915050565b60006156718261577a565b915061567c8361577a565b9250817fffffffffffffffffffffffffffffffffffffffffffffffffffffffffffffffff04831182151516156156b5576156b46158ae565b5b828202905092915050565b60006156cb8261577a565b91506156d68361577a565b9250828210156156e9576156e86158ae565b5b828203905092915050565b60006156ff8261575a565b9050919050565b60006157118261575a565b9050919050565b60008115159050919050565b6000819050919050565b60007fffffffff0000000000000000000000000000000000000000000000000000000082169050919050565b600073ffffffffffffffffffffffffffffffffffffffff82169050919050565b6000819050919050565b600060ff82169050919050565b600061579c826157a3565b9050919050565b60006157ae826157b5565b9050919050565b60006157c08261575a565b9050919050565b82818337600083830152505050565b60005b838110156157f45780820151818401526020810190506157d9565b83811115615803576000848401525b50505050565b60006158148261577a565b91506000821415615828576158276158ae565b5b600182039050919050565b6000600282049050600182168061584b57607f821691505b6020821081141561585f5761585e61590c565b5b50919050565b60006158708261577a565b91507fffffffffffffffffffffffffffffffffffffffffffffffffffffffffffffffff8214156158a3576158a26158ae565b5b600182019050919050565b7f4e487b7100000000000000000000000000000000000000000000000000000000600052601160045260246000fd5b7f4e487b7100000000000000000000000000000000000000000000000000000000600052601260045260246000fd5b7f4e487b7100000000000000000000000000000000000000000000000000000000600052602260045260246000fd5b6000601f19601f8301169050919050565b7f537472696e67733a20686578206c656e67746820696e73756666696369656e74600082015250565b7f4d7573742073656e64206d696e696d756d2076616c756520746f206d696e7421600082015250565b7f52656163686564206d696e74696e67206c696d69740000000000000000000000600082015250565b7f65786365646573206d696e74696e67206c696d69740000000000000000000000600082015250565b7f70726f6a65637420706175736564000000000000000000000000000000000000600082015250565b7f70726f6a656374206e6f7420726561647920666f72206c697665000000000000600082015250565b7f496e73756666696369656e742062616c616e63652e0000000000000000000000600082015250565b7f70726f6a656374206e6f74206c69766500000000000000000000000000000000600082015250565b7f6e6f74206f6e20616c6c6f776c69737400000000000000000000000000000000600082015250565b7f637572656e637920616464726573732063616e74206265207a65726f00000000600082015250565b7f6d6178207072656d696e74730000000000000000000000000000000000000000600082015250565b7f616c7265616479206c6976650000000000000000000000000000000000000000600082015250565b7f496e73756666696369656e742046756e647320417070726f76656420666f722060008201527f5458000000000000000000000000000000000000000000000000000000000000602082015250565b7f746869732070726f6a6563742061636365707473206120646966666572656e7460008201527f2063757272656e637920616e642063616e6e6f74206163636570742045544800602082015250565b7f4554480000000000000000000000000000000000000000000000000000000000600082015250565b7f6f776e65722063616e2774206265207a65726f20616464726573730000000000600082015250565b7f6f6e6c79206f776e657200000000000000000000000000000000000000000000600082015250565b7f4e6f20436f6e7472616374204275797300000000000000000000000000000000600082015250565b7f7072656d696e74732072656d61696e696e670000000000000000000000000000600082015250565b50565b7f63616e27742062652073616d65206f776e657200000000000000000000000000600082015250565b7f65786365656473207175616e746974792072656d61696e696e67000000000000600082015250565b7f416363657373436f6e74726f6c3a206163636f756e7420000000000000000000600082015250565b7f53796d626f6c206d7573742062652070726f7669646564000000000000000000600082015250565b7f206973206d697373696e6720726f6c6520000000000000000000000000000000600082015250565b7f416363657373436f6e74726f6c3a2063616e206f6e6c792072656e6f756e636560008201527f20726f6c657320666f722073656c660000000000000000000000000000000000602082015250565b615dcb816156f4565b8114615dd657600080fd5b50565b615de281615706565b8114615ded57600080fd5b50565b615df981615718565b8114615e0457600080fd5b50565b615e1081615724565b8114615e1b57600080fd5b50565b615e278161572e565b8114615e3257600080fd5b50565b615e3e8161577a565b8114615e4957600080fd5b50565b615e5581615784565b8114615e6057600080fd5b5056fea264697066735822122005bcf2f482ec9008413cb092a5019d60da19013e7b404e6fbf6191b8ab8e474064736f6c63430008020033",
  "linkReferences": {},
  "deployedLinkReferences": {}
}