{
  "_format": "hh-sol-artifact-1",
  "contractName": "FineShop",
  "sourceName": "contracts/FineShop.sol",
  "abi": [
    {
      "inputs": [
        {
          "internalType": "address",
          "name": "_fineCoreAddresss",
          "type": "address"
        }
      ],
      "stateMutability": "nonpayable",
      "type": "constructor"
    },
    {
      "anonymous": false,
      "inputs": [
        {
          "indexed": true,
          "internalType": "bytes32",
          "name": "role",
          "type": "bytes32"
        },
        {
          "indexed": true,
          "internalType": "bytes32",
          "name": "previousAdminRole",
          "type": "bytes32"
        },
        {
          "indexed": true,
          "internalType": "bytes32",
          "name": "newAdminRole",
          "type": "bytes32"
        }
      ],
      "name": "RoleAdminChanged",
      "type": "event"
    },
    {
      "anonymous": false,
      "inputs": [
        {
          "indexed": true,
          "internalType": "bytes32",
          "name": "role",
          "type": "bytes32"
        },
        {
          "indexed": true,
          "internalType": "address",
          "name": "account",
          "type": "address"
        },
        {
          "indexed": true,
          "internalType": "address",
          "name": "sender",
          "type": "address"
        }
      ],
      "name": "RoleGranted",
      "type": "event"
    },
    {
      "anonymous": false,
      "inputs": [
        {
          "indexed": true,
          "internalType": "bytes32",
          "name": "role",
          "type": "bytes32"
        },
        {
          "indexed": true,
          "internalType": "address",
          "name": "account",
          "type": "address"
        },
        {
          "indexed": true,
          "internalType": "address",
          "name": "sender",
          "type": "address"
        }
      ],
      "name": "RoleRevoked",
      "type": "event"
    },
    {
      "inputs": [],
      "name": "DEFAULT_ADMIN_ROLE",
      "outputs": [
        {
          "internalType": "bytes32",
          "name": "",
          "type": "bytes32"
        }
      ],
      "stateMutability": "view",
      "type": "function"
    },
    {
      "inputs": [
        {
          "internalType": "uint256",
          "name": "_projectId",
          "type": "uint256"
        },
        {
          "internalType": "address",
          "name": "minter",
          "type": "address"
        }
      ],
      "name": "addToAllowlist",
      "outputs": [],
      "stateMutability": "nonpayable",
      "type": "function"
    },
    {
      "inputs": [
        {
          "internalType": "uint256",
          "name": "_projectId",
          "type": "uint256"
        },
        {
          "internalType": "uint256",
          "name": "count",
          "type": "uint256"
        }
      ],
      "name": "buy",
      "outputs": [
        {
          "internalType": "uint256",
          "name": "",
          "type": "uint256"
        }
      ],
      "stateMutability": "payable",
      "type": "function"
    },
    {
      "inputs": [
        {
          "internalType": "uint256",
          "name": "_projectId",
          "type": "uint256"
        },
        {
          "internalType": "address",
          "name": "to",
          "type": "address"
        },
        {
          "internalType": "uint256",
          "name": "count",
          "type": "uint256"
        }
      ],
      "name": "buyFor",
      "outputs": [
        {
          "internalType": "uint256",
          "name": "",
          "type": "uint256"
        }
      ],
      "stateMutability": "payable",
      "type": "function"
    },
    {
      "inputs": [
        {
          "internalType": "uint256",
          "name": "",
          "type": "uint256"
        }
      ],
      "name": "contractFilterProject",
      "outputs": [
        {
          "internalType": "bool",
          "name": "",
          "type": "bool"
        }
      ],
      "stateMutability": "view",
      "type": "function"
    },
    {
      "inputs": [
        {
          "internalType": "bytes32",
          "name": "role",
          "type": "bytes32"
        }
      ],
      "name": "getRoleAdmin",
      "outputs": [
        {
          "internalType": "bytes32",
          "name": "",
          "type": "bytes32"
        }
      ],
      "stateMutability": "view",
      "type": "function"
    },
    {
      "inputs": [
        {
          "internalType": "uint256",
          "name": "_projectId",
          "type": "uint256"
        }
      ],
      "name": "goLive",
      "outputs": [],
      "stateMutability": "nonpayable",
      "type": "function"
    },
    {
      "inputs": [
        {
          "internalType": "bytes32",
          "name": "role",
          "type": "bytes32"
        },
        {
          "internalType": "address",
          "name": "account",
          "type": "address"
        }
      ],
      "name": "grantRole",
      "outputs": [],
      "stateMutability": "nonpayable",
      "type": "function"
    },
    {
      "inputs": [
        {
          "internalType": "bytes32",
          "name": "role",
          "type": "bytes32"
        },
        {
          "internalType": "address",
          "name": "account",
          "type": "address"
        }
      ],
      "name": "hasRole",
      "outputs": [
        {
          "internalType": "bool",
          "name": "",
          "type": "bool"
        }
      ],
      "stateMutability": "view",
      "type": "function"
    },
    {
      "inputs": [
        {
          "internalType": "uint256",
          "name": "_projectId",
          "type": "uint256"
        }
      ],
      "name": "pause",
      "outputs": [],
      "stateMutability": "nonpayable",
      "type": "function"
    },
    {
      "inputs": [
        {
          "internalType": "uint256",
          "name": "_projectId",
          "type": "uint256"
        }
      ],
      "name": "pauseAdmin",
      "outputs": [],
      "stateMutability": "nonpayable",
      "type": "function"
    },
    {
      "inputs": [
        {
          "internalType": "uint256",
          "name": "_projectId",
          "type": "uint256"
        }
      ],
      "name": "premint",
      "outputs": [
        {
          "internalType": "uint256",
          "name": "",
          "type": "uint256"
        }
      ],
      "stateMutability": "payable",
      "type": "function"
    },
    {
      "inputs": [
        {
          "internalType": "uint256",
          "name": "",
          "type": "uint256"
        },
        {
          "internalType": "address",
          "name": "",
          "type": "address"
        }
      ],
      "name": "projectAllowList",
      "outputs": [
        {
          "internalType": "bool",
          "name": "",
          "type": "bool"
        }
      ],
      "stateMutability": "view",
      "type": "function"
    },
    {
      "inputs": [
        {
          "internalType": "uint256",
          "name": "",
          "type": "uint256"
        }
      ],
      "name": "projectAllowListAllocation",
      "outputs": [
        {
          "internalType": "uint256",
          "name": "",
          "type": "uint256"
        }
      ],
      "stateMutability": "view",
      "type": "function"
    },
    {
      "inputs": [
        {
          "internalType": "uint256",
          "name": "",
          "type": "uint256"
        }
      ],
      "name": "projectBulkMintCount",
      "outputs": [
        {
          "internalType": "uint256",
          "name": "",
          "type": "uint256"
        }
      ],
      "stateMutability": "view",
      "type": "function"
    },
    {
      "inputs": [
        {
          "internalType": "uint256",
          "name": "",
          "type": "uint256"
        }
      ],
      "name": "projectCurrencyAddress",
      "outputs": [
        {
          "internalType": "address",
          "name": "",
          "type": "address"
        }
      ],
      "stateMutability": "view",
      "type": "function"
    },
    {
      "inputs": [
        {
          "internalType": "uint256",
          "name": "",
          "type": "uint256"
        }
      ],
      "name": "projectCurrencySymbol",
      "outputs": [
        {
          "internalType": "string",
          "name": "",
          "type": "string"
        }
      ],
      "stateMutability": "view",
      "type": "function"
    },
    {
      "inputs": [
        {
          "internalType": "uint256",
          "name": "",
          "type": "uint256"
        }
      ],
      "name": "projectLive",
      "outputs": [
        {
          "internalType": "bool",
          "name": "",
          "type": "bool"
        }
      ],
      "stateMutability": "view",
      "type": "function"
    },
    {
      "inputs": [
        {
          "internalType": "address",
          "name": "",
          "type": "address"
        },
        {
          "internalType": "uint256",
          "name": "",
          "type": "uint256"
        }
      ],
      "name": "projectMintCounter",
      "outputs": [
        {
          "internalType": "uint256",
          "name": "",
          "type": "uint256"
        }
      ],
      "stateMutability": "view",
      "type": "function"
    },
    {
      "inputs": [
        {
          "internalType": "uint256",
          "name": "",
          "type": "uint256"
        }
      ],
      "name": "projectMintLimit",
      "outputs": [
        {
          "internalType": "uint256",
          "name": "",
          "type": "uint256"
        }
      ],
      "stateMutability": "view",
      "type": "function"
    },
    {
      "inputs": [
        {
          "internalType": "uint256",
          "name": "",
          "type": "uint256"
        }
      ],
      "name": "projectOwner",
      "outputs": [
        {
          "internalType": "address",
          "name": "",
          "type": "address"
        }
      ],
      "stateMutability": "view",
      "type": "function"
    },
    {
      "inputs": [
        {
          "internalType": "uint256",
          "name": "",
          "type": "uint256"
        }
      ],
      "name": "projectPause",
      "outputs": [
        {
          "internalType": "bool",
          "name": "",
          "type": "bool"
        }
      ],
      "stateMutability": "view",
      "type": "function"
    },
    {
      "inputs": [
        {
          "internalType": "uint256",
          "name": "",
          "type": "uint256"
        }
      ],
      "name": "projectPremintAllocation",
      "outputs": [
        {
          "internalType": "uint256",
          "name": "",
          "type": "uint256"
        }
      ],
      "stateMutability": "view",
      "type": "function"
    },
    {
      "inputs": [
        {
          "internalType": "uint256",
          "name": "",
          "type": "uint256"
        }
      ],
      "name": "projectPrice",
      "outputs": [
        {
          "internalType": "uint256",
          "name": "",
          "type": "uint256"
        }
      ],
      "stateMutability": "view",
      "type": "function"
    },
    {
      "inputs": [
        {
          "internalType": "uint256",
          "name": "_projectId",
          "type": "uint256"
        },
        {
          "internalType": "address",
          "name": "to",
          "type": "address"
        },
        {
          "internalType": "uint256",
          "name": "count",
          "type": "uint256"
        }
      ],
      "name": "purchaseTo",
      "outputs": [
        {
          "internalType": "uint256",
          "name": "",
          "type": "uint256"
        }
      ],
      "stateMutability": "payable",
      "type": "function"
    },
    {
      "inputs": [
        {
          "internalType": "uint256",
          "name": "_projectId",
          "type": "uint256"
        },
        {
          "internalType": "address",
          "name": "newOwner",
          "type": "address"
        },
        {
          "internalType": "bool",
          "name": "contractFilter",
          "type": "bool"
        },
        {
          "internalType": "uint256",
          "name": "_bulk",
          "type": "uint256"
        },
        {
          "internalType": "uint256",
          "name": "_limit",
          "type": "uint256"
        }
      ],
      "name": "quickInit",
      "outputs": [],
      "stateMutability": "nonpayable",
      "type": "function"
    },
    {
      "inputs": [
        {
          "internalType": "uint256",
          "name": "_projectId",
          "type": "uint256"
        },
        {
          "internalType": "string",
          "name": "_symbol",
          "type": "string"
        },
        {
          "internalType": "address",
          "name": "_contract",
          "type": "address"
        },
        {
          "internalType": "uint256",
          "name": "_price",
          "type": "uint256"
        },
        {
          "internalType": "uint256",
          "name": "_premints",
          "type": "uint256"
        },
        {
          "internalType": "uint256",
          "name": "_allowlists",
          "type": "uint256"
        }
      ],
      "name": "quickSet",
      "outputs": [],
      "stateMutability": "nonpayable",
      "type": "function"
    },
    {
      "inputs": [
        {
          "internalType": "uint256",
          "name": "_projectId",
          "type": "uint256"
        },
        {
          "internalType": "address",
          "name": "minter",
          "type": "address"
        }
      ],
      "name": "removeFromAllowlist",
      "outputs": [],
      "stateMutability": "nonpayable",
      "type": "function"
    },
    {
      "inputs": [
        {
          "internalType": "bytes32",
          "name": "role",
          "type": "bytes32"
        },
        {
          "internalType": "address",
          "name": "account",
          "type": "address"
        }
      ],
      "name": "renounceRole",
      "outputs": [],
      "stateMutability": "nonpayable",
      "type": "function"
    },
    {
      "inputs": [
        {
          "internalType": "bytes32",
          "name": "role",
          "type": "bytes32"
        },
        {
          "internalType": "address",
          "name": "account",
          "type": "address"
        }
      ],
      "name": "revokeRole",
      "outputs": [],
      "stateMutability": "nonpayable",
      "type": "function"
    },
    {
      "inputs": [
        {
          "internalType": "uint256",
          "name": "_projectId",
          "type": "uint256"
        },
        {
          "internalType": "uint256",
          "name": "spots",
          "type": "uint256"
        }
      ],
      "name": "setAllowlistSpots",
      "outputs": [],
      "stateMutability": "nonpayable",
      "type": "function"
    },
    {
      "inputs": [
        {
          "internalType": "uint256",
          "name": "_projectId",
          "type": "uint256"
        },
        {
          "internalType": "string",
          "name": "_symbol",
          "type": "string"
        },
        {
          "internalType": "address",
          "name": "_contract",
          "type": "address"
        }
      ],
      "name": "setCurrency",
      "outputs": [],
      "stateMutability": "nonpayable",
      "type": "function"
    },
    {
      "inputs": [
        {
          "internalType": "uint256",
          "name": "_projectId",
          "type": "uint256"
        }
      ],
      "name": "setCurrencyToETH",
      "outputs": [],
      "stateMutability": "nonpayable",
      "type": "function"
    },
    {
      "inputs": [
        {
          "internalType": "uint256",
          "name": "_projectId",
          "type": "uint256"
        },
        {
          "internalType": "address",
          "name": "newOwner",
          "type": "address"
        }
      ],
      "name": "setOwner",
      "outputs": [],
      "stateMutability": "nonpayable",
      "type": "function"
    },
    {
      "inputs": [
        {
          "internalType": "uint256",
          "name": "_projectId",
          "type": "uint256"
        },
        {
          "internalType": "uint256",
          "name": "premints",
          "type": "uint256"
        }
      ],
      "name": "setPremints",
      "outputs": [],
      "stateMutability": "nonpayable",
      "type": "function"
    },
    {
      "inputs": [
        {
          "internalType": "uint256",
          "name": "_projectId",
          "type": "uint256"
        },
        {
          "internalType": "uint256",
          "name": "price",
          "type": "uint256"
        }
      ],
      "name": "setPrice",
      "outputs": [],
      "stateMutability": "nonpayable",
      "type": "function"
    },
    {
      "inputs": [
        {
          "internalType": "uint256",
          "name": "_projectId",
          "type": "uint256"
        },
        {
          "internalType": "uint8",
          "name": "_count",
          "type": "uint8"
        }
      ],
      "name": "setProjectBulkMintCount",
      "outputs": [],
      "stateMutability": "nonpayable",
      "type": "function"
    },
    {
      "inputs": [
        {
          "internalType": "uint256",
          "name": "_projectId",
          "type": "uint256"
        },
        {
          "internalType": "uint8",
          "name": "_limit",
          "type": "uint8"
        }
      ],
      "name": "setProjectMintLimit",
      "outputs": [],
      "stateMutability": "nonpayable",
      "type": "function"
    },
    {
      "inputs": [
        {
          "internalType": "bytes4",
          "name": "interfaceId",
          "type": "bytes4"
        }
      ],
      "name": "supportsInterface",
      "outputs": [
        {
          "internalType": "bool",
          "name": "",
          "type": "bool"
        }
      ],
      "stateMutability": "view",
      "type": "function"
    },
    {
      "inputs": [
        {
          "internalType": "uint256",
          "name": "_projectId",
          "type": "uint256"
        }
      ],
      "name": "toggleContractFilter",
      "outputs": [],
      "stateMutability": "nonpayable",
      "type": "function"
    },
    {
      "inputs": [
        {
          "internalType": "uint256",
          "name": "_projectId",
          "type": "uint256"
        }
      ],
      "name": "unpause",
      "outputs": [],
      "stateMutability": "nonpayable",
      "type": "function"
    },
    {
      "inputs": [
        {
          "internalType": "uint256",
          "name": "_projectId",
          "type": "uint256"
        }
      ],
      "name": "unpauseAdmin",
      "outputs": [],
      "stateMutability": "nonpayable",
      "type": "function"
    }
  ],
  "bytecode": "0x60806040523480156200001157600080fd5b5060405162005e0238038062005e0283398181016040528101906200003791906200020e565b6200004c6000801b336200009460201b60201c565b80600160006101000a81548173ffffffffffffffffffffffffffffffffffffffff021916908373ffffffffffffffffffffffffffffffffffffffff1602179055505062000288565b620000a682826200018560201b60201c565b6200018157600160008084815260200190815260200160002060000160008373ffffffffffffffffffffffffffffffffffffffff1673ffffffffffffffffffffffffffffffffffffffff16815260200190815260200160002060006101000a81548160ff02191690831515021790555062000126620001ef60201b60201c565b73ffffffffffffffffffffffffffffffffffffffff168173ffffffffffffffffffffffffffffffffffffffff16837f2f8788117e7eff1d82e926ec794901d17c78024a50270940304540a733656f0d60405160405180910390a45b5050565b600080600084815260200190815260200160002060000160008373ffffffffffffffffffffffffffffffffffffffff1673ffffffffffffffffffffffffffffffffffffffff16815260200190815260200160002060009054906101000a900460ff16905092915050565b600033905090565b60008151905062000208816200026e565b92915050565b6000602082840312156200022157600080fd5b60006200023184828501620001f7565b91505092915050565b600062000247826200024e565b9050919050565b600073ffffffffffffffffffffffffffffffffffffffff82169050919050565b62000279816200023a565b81146200028557600080fd5b50565b615b6a80620002986000396000f3fe6080604052600436106102515760003560e01c806391d1485411610139578063bd33f081116100b6578063dc3d886f1161007a578063dc3d886f1461093c578063f38ad96414610965578063f7d97577146109a2578063f9f96b9e146109cb578063fabc1cbc14610a08578063fce223b414610a3157610251565b8063bd33f08114610868578063ca2660fd14610891578063d1b5bd6a146108ba578063d547741f146108e3578063d6febde81461090c57610251565b8063a47f9092116100fd578063a47f90921461075f578063ac26e4c91461079c578063ad286a9c146107d9578063b137479d14610816578063b56561851461083f57610251565b806391d14854146106615780639c0e6e1f1461069e5780639d5aef30146106db5780639f270c221461070b578063a217fddf1461073457610251565b806336568abe116101d25780636ddd9f20116101965780636ddd9f201461053c57806370a905511461057957806376dad91a146105a25780637fd39247146105cb57806389fe08f8146105f457806391943b551461063157610251565b806336568abe146104335780633a4657b41461045c578063531b14b914610499578063569f6f92146104d657806362f7a7ed146104ff57610251565b8063248a9ca311610219578063248a9ca314610337578063287f5fb7146103745780632f2ff15d146103b1578063314398d8146103da57806335ddcfcd1461040a57610251565b806301ffc9a7146102565780630ad1d81c14610293578063128e1c5b146102bc578063136439dd146102e5578063231c22811461030e575b600080fd5b34801561026257600080fd5b5061027d60048036038101906102789190614737565b610a6e565b60405161028a9190614f9c565b60405180910390f35b34801561029f57600080fd5b506102ba60048036038101906102b59190614760565b610ae8565b005b3480156102c857600080fd5b506102e360048036038101906102de91906148b4565b610b59565b005b3480156102f157600080fd5b5061030c60048036038101906103079190614760565b610d90565b005b34801561031a57600080fd5b5061033560048036038101906103309190614a03565b610e62565b005b34801561034357600080fd5b5061035e600480360381019061035991906146d2565b610e97565b60405161036b9190614fb7565b60405180910390f35b34801561038057600080fd5b5061039b60048036038101906103969190614760565b610eb6565b6040516103a89190614f21565b60405180910390f35b3480156103bd57600080fd5b506103d860048036038101906103d391906146fb565b610ee9565b005b6103f460048036038101906103ef9190614865565b610f12565b6040516104019190615294565b60405180910390f35b34801561041657600080fd5b50610431600480360381019061042c9190614920565b610f28565b005b34801561043f57600080fd5b5061045a600480360381019061045591906146fb565b6111aa565b005b34801561046857600080fd5b50610483600480360381019061047e919061466d565b61122d565b6040516104909190615294565b60405180910390f35b3480156104a557600080fd5b506104c060048036038101906104bb9190614760565b611252565b6040516104cd9190614fd2565b60405180910390f35b3480156104e257600080fd5b506104fd60048036038101906104f89190614760565b6112f2565b005b34801561050b57600080fd5b5061052660048036038101906105219190614760565b611357565b6040516105339190615294565b60405180910390f35b34801561054857600080fd5b50610563600480360381019061055e9190614760565b61136f565b6040516105709190615294565b60405180910390f35b34801561058557600080fd5b506105a0600480360381019061059b91906147b2565b611387565b005b3480156105ae57600080fd5b506105c960048036038101906105c491906147ee565b6114fa565b005b3480156105d757600080fd5b506105f260048036038101906105ed91906147b2565b611634565b005b34801561060057600080fd5b5061061b60048036038101906106169190614760565b6117b2565b6040516106289190614f21565b60405180910390f35b61064b60048036038101906106469190614865565b6117e5565b6040516106589190615294565b60405180910390f35b34801561066d57600080fd5b50610688600480360381019061068391906146fb565b611faf565b6040516106959190614f9c565b60405180910390f35b3480156106aa57600080fd5b506106c560048036038101906106c09190614760565b612019565b6040516106d29190615294565b60405180910390f35b6106f560048036038101906106f09190614760565b612031565b6040516107029190615294565b60405180910390f35b34801561071757600080fd5b50610732600480360381019061072d9190614760565b612354565b005b34801561074057600080fd5b50610749612399565b6040516107569190614fb7565b60405180910390f35b34801561076b57600080fd5b50610786600480360381019061078191906147b2565b6123a0565b6040516107939190614f9c565b60405180910390f35b3480156107a857600080fd5b506107c360048036038101906107be9190614760565b6123cf565b6040516107d09190614f9c565b60405180910390f35b3480156107e557600080fd5b5061080060048036038101906107fb9190614760565b6123ef565b60405161080d9190615294565b60405180910390f35b34801561082257600080fd5b5061083d60048036038101906108389190614760565b612407565b005b34801561084b57600080fd5b5061086660048036038101906108619190614a03565b61244c565b005b34801561087457600080fd5b5061088f600480360381019061088a9190614760565b612481565b005b34801561089d57600080fd5b506108b860048036038101906108b391906147b2565b61263a565b005b3480156108c657600080fd5b506108e160048036038101906108dc91906149c7565b6127ad565b005b3480156108ef57600080fd5b5061090a600480360381019061090591906146fb565b6128cf565b005b610926600480360381019061092191906149c7565b6128f8565b6040516109339190615294565b60405180910390f35b34801561094857600080fd5b50610963600480360381019061095e91906149c7565b61290d565b005b34801561097157600080fd5b5061098c60048036038101906109879190614760565b612a2f565b6040516109999190615294565b60405180910390f35b3480156109ae57600080fd5b506109c960048036038101906109c491906149c7565b612a47565b005b3480156109d757600080fd5b506109f260048036038101906109ed9190614760565b612b69565b6040516109ff9190614f9c565b60405180910390f35b348015610a1457600080fd5b50610a2f6004803603810190610a2a9190614760565b612b89565b005b348015610a3d57600080fd5b50610a586004803603810190610a539190614760565b612c5b565b604051610a659190614f9c565b60405180910390f35b60007f7965db0b000000000000000000000000000000000000000000000000000000007bffffffffffffffffffffffffffffffffffffffffffffffffffffffff1916827bffffffffffffffffffffffffffffffffffffffffffffffffffffffff19161480610ae15750610ae082612c7b565b5b9050919050565b6000801b610afd81610af8612ce5565b612ced565b60016008600084815260200190815260200160002060006101000a81548160ff02191690831515021790555060016009600084815260200190815260200160002060006101000a81548160ff0219169083151502179055505050565b836002600082815260200190815260200160002060009054906101000a900473ffffffffffffffffffffffffffffffffffffffff1673ffffffffffffffffffffffffffffffffffffffff163373ffffffffffffffffffffffffffffffffffffffff1614610bfb576040517f08c379a0000000000000000000000000000000000000000000000000000000008152600401610bf2906151b4565b60405180910390fd5b846008600082815260200190815260200160002060009054906101000a900460ff1615610c5d576040517f08c379a0000000000000000000000000000000000000000000000000000000008152600401610c5490615134565b60405180910390fd5b60008585905011610ca3576040517f08c379a0000000000000000000000000000000000000000000000000000000008152600401610c9a90615254565b60405180910390fd5b600073ffffffffffffffffffffffffffffffffffffffff168373ffffffffffffffffffffffffffffffffffffffff161415610d13576040517f08c379a0000000000000000000000000000000000000000000000000000000008152600401610d0a906150f4565b60405180910390fd5b8484600660008981526020019081526020016000209190610d359291906143d6565b50826005600088815260200190815260200160002060006101000a81548173ffffffffffffffffffffffffffffffffffffffff021916908373ffffffffffffffffffffffffffffffffffffffff160217905550505050505050565b806002600082815260200190815260200160002060009054906101000a900473ffffffffffffffffffffffffffffffffffffffff1673ffffffffffffffffffffffffffffffffffffffff163373ffffffffffffffffffffffffffffffffffffffff1614610e32576040517f08c379a0000000000000000000000000000000000000000000000000000000008152600401610e29906151b4565b60405180910390fd5b60016009600084815260200190815260200160002060006101000a81548160ff0219169083151502179055505050565b6000801b610e7781610e72612ce5565b612ced565b8160ff16600c600085815260200190815260200160002081905550505050565b6000806000838152602001908152602001600020600101549050919050565b60056020528060005260406000206000915054906101000a900473ffffffffffffffffffffffffffffffffffffffff1681565b610ef282610e97565b610f0381610efe612ce5565b612ced565b610f0d8383612d8a565b505050565b6000610f1f8484846117e5565b90509392505050565b866002600082815260200190815260200160002060009054906101000a900473ffffffffffffffffffffffffffffffffffffffff1673ffffffffffffffffffffffffffffffffffffffff163373ffffffffffffffffffffffffffffffffffffffff1614610fca576040517f08c379a0000000000000000000000000000000000000000000000000000000008152600401610fc1906151b4565b60405180910390fd5b876008600082815260200190815260200160002060009054906101000a900460ff161561102c576040517f08c379a000000000000000000000000000000000000000000000000000000000815260040161102390615134565b60405180910390fd5b60008888905011611072576040517f08c379a000000000000000000000000000000000000000000000000000000000815260040161106990615254565b60405180910390fd5b600073ffffffffffffffffffffffffffffffffffffffff168673ffffffffffffffffffffffffffffffffffffffff1614156110e2576040517f08c379a00000000000000000000000000000000000000000000000000000000081526004016110d9906150f4565b60405180910390fd5b8787600660008c815260200190815260200160002091906111049291906143d6565b5085600560008b815260200190815260200160002060006101000a81548173ffffffffffffffffffffffffffffffffffffffff021916908373ffffffffffffffffffffffffffffffffffffffff16021790555084600460008b81526020019081526020016000208190555083600360008b81526020019081526020016000208190555082600e60008b815260200190815260200160002081905550505050505050505050565b6111b2612ce5565b73ffffffffffffffffffffffffffffffffffffffff168173ffffffffffffffffffffffffffffffffffffffff161461121f576040517f08c379a000000000000000000000000000000000000000000000000000000000815260040161121690615274565b60405180910390fd5b6112298282612e6a565b5050565b600b602052816000526040600020602052806000526040600020600091509150505481565b6006602052806000526040600020600091509050805461127190615530565b80601f016020809104026020016040519081016040528092919081815260200182805461129d90615530565b80156112ea5780601f106112bf576101008083540402835291602001916112ea565b820191906000526020600020905b8154815290600101906020018083116112cd57829003601f168201915b505050505081565b6000801b61130781611302612ce5565b612ced565b600a600083815260200190815260200160002060009054906101000a900460ff1615600a600084815260200190815260200160002060006101000a81548160ff0219169083151502179055505050565b600c6020528060005260406000206000915090505481565b60076020528060005260406000206000915090505481565b816002600082815260200190815260200160002060009054906101000a900473ffffffffffffffffffffffffffffffffffffffff1673ffffffffffffffffffffffffffffffffffffffff163373ffffffffffffffffffffffffffffffffffffffff1614611429576040517f08c379a0000000000000000000000000000000000000000000000000000000008152600401611420906151b4565b60405180910390fd5b826008600082815260200190815260200160002060009054906101000a900460ff161561148b576040517f08c379a000000000000000000000000000000000000000000000000000000000815260040161148290615134565b60405180910390fd5b6001600d600086815260200190815260200160002060008573ffffffffffffffffffffffffffffffffffffffff1673ffffffffffffffffffffffffffffffffffffffff16815260200190815260200160002060006101000a81548160ff02191690831515021790555050505050565b6000801b61150f8161150a612ce5565b612ced565b600073ffffffffffffffffffffffffffffffffffffffff168573ffffffffffffffffffffffffffffffffffffffff16141561157f576040517f08c379a000000000000000000000000000000000000000000000000000000000815260040161157690615194565b60405180910390fd5b846002600088815260200190815260200160002060006101000a81548173ffffffffffffffffffffffffffffffffffffffff021916908373ffffffffffffffffffffffffffffffffffffffff16021790555083600a600088815260200190815260200160002060006101000a81548160ff02191690831515021790555082600760008881526020019081526020016000208190555081600c600088815260200190815260200160002081905550505050505050565b6000801b61164981611644612ce5565b612ced565b8173ffffffffffffffffffffffffffffffffffffffff166002600085815260200190815260200160002060009054906101000a900473ffffffffffffffffffffffffffffffffffffffff1673ffffffffffffffffffffffffffffffffffffffff1614156116eb576040517f08c379a00000000000000000000000000000000000000000000000000000000081526004016116e290615214565b60405180910390fd5b600073ffffffffffffffffffffffffffffffffffffffff168273ffffffffffffffffffffffffffffffffffffffff16141561175b576040517f08c379a000000000000000000000000000000000000000000000000000000000815260040161175290615194565b60405180910390fd5b816002600085815260200190815260200160002060006101000a81548173ffffffffffffffffffffffffffffffffffffffff021916908373ffffffffffffffffffffffffffffffffffffffff160217905550505050565b60026020528060005260406000206000915054906101000a900473ffffffffffffffffffffffffffffffffffffffff1681565b60006008600085815260200190815260200160002060009054906101000a900460ff16611847576040517f08c379a000000000000000000000000000000000000000000000000000000000815260040161183e906150b4565b60405180910390fd5b6009600085815260200190815260200160002060009054906101000a900460ff16156118a8576040517f08c379a000000000000000000000000000000000000000000000000000000000815260040161189f90615074565b60405180910390fd5b6000600160009054906101000a900473ffffffffffffffffffffffffffffffffffffffff1673ffffffffffffffffffffffffffffffffffffffff16634ca3e9b8866040518263ffffffff1660e01b81526004016119059190615294565b60206040518083038186803b15801561191d57600080fd5b505afa158015611931573d6000803e3d6000fd5b505050506040513d601f19601f82011682018060405250810190611955919061461b565b905060036000868152602001908152602001600020548173ffffffffffffffffffffffffffffffffffffffff166318160ddd6040518163ffffffff1660e01b815260040160206040518083038186803b1580156119b157600080fd5b505afa1580156119c5573d6000803e3d6000fd5b505050506040513d601f19601f820116820180604052508101906119e99190614789565b11611a29576040517f08c379a0000000000000000000000000000000000000000000000000000000008152600401611a20906151f4565b60405180910390fd5b6007600086815260200190815260200160002054831115611a7f576040517f08c379a0000000000000000000000000000000000000000000000000000000008152600401611a7690615054565b60405180910390fd5b600a600086815260200190815260200160002060009054906101000a900460ff1615611b14573273ffffffffffffffffffffffffffffffffffffffff163373ffffffffffffffffffffffffffffffffffffffff1614611b13576040517f08c379a0000000000000000000000000000000000000000000000000000000008152600401611b0a906151d4565b60405180910390fd5b5b6000600c6000878152602001908152602001600020541115611c3c57600c600086815260200190815260200160002054600b60003373ffffffffffffffffffffffffffffffffffffffff1673ffffffffffffffffffffffffffffffffffffffff16815260200190815260200160002060008781526020019081526020016000205410611bd5576040517f08c379a0000000000000000000000000000000000000000000000000000000008152600401611bcc90615034565b60405180910390fd5b600b60003373ffffffffffffffffffffffffffffffffffffffff1673ffffffffffffffffffffffffffffffffffffffff16815260200190815260200160002060008681526020019081526020016000206000815480929190611c3690615562565b91905055505b6000600e600087815260200190815260200160002054118015611d0c57506003600086815260200190815260200160002054600e600087815260200190815260200160002054611c8c91906152eb565b8173ffffffffffffffffffffffffffffffffffffffff166318160ddd6040518163ffffffff1660e01b815260040160206040518083038186803b158015611cd257600080fd5b505afa158015611ce6573d6000803e3d6000fd5b505050506040513d601f19601f82011682018060405250810190611d0a9190614789565b105b15611daf57600d600086815260200190815260200160002060003373ffffffffffffffffffffffffffffffffffffffff1673ffffffffffffffffffffffffffffffffffffffff16815260200190815260200160002060009054906101000a900460ff16611dae576040517f08c379a0000000000000000000000000000000000000000000000000000000008152600401611da5906150d4565b60405180910390fd5b5b611db98584612f4b565b60008173ffffffffffffffffffffffffffffffffffffffff1663284855866040518163ffffffff1660e01b815260040160206040518083038186803b158015611e0157600080fd5b505afa158015611e15573d6000803e3d6000fd5b505050506040513d601f19601f82011682018060405250810190611e399190614789565b8273ffffffffffffffffffffffffffffffffffffffff166318160ddd6040518163ffffffff1660e01b815260040160206040518083038186803b158015611e7f57600080fd5b505afa158015611e93573d6000803e3d6000fd5b505050506040513d601f19601f82011682018060405250810190611eb79190614789565b10611ef7576040517f08c379a0000000000000000000000000000000000000000000000000000000008152600401611eee90615234565b60405180910390fd5b60005b84811015611fa2578273ffffffffffffffffffffffffffffffffffffffff16636a627842876040518263ffffffff1660e01b8152600401611f3b9190614f21565b602060405180830381600087803b158015611f5557600080fd5b505af1158015611f69573d6000803e3d6000fd5b505050506040513d601f19601f82011682018060405250810190611f8d9190614789565b91508080611f9a90615562565b915050611efa565b5080925050509392505050565b600080600084815260200190815260200160002060000160008373ffffffffffffffffffffffffffffffffffffffff1673ffffffffffffffffffffffffffffffffffffffff16815260200190815260200160002060009054906101000a900460ff16905092915050565b60036020528060005260406000206000915090505481565b60006008600083815260200190815260200160002060009054906101000a900460ff16612093576040517f08c379a000000000000000000000000000000000000000000000000000000000815260040161208a906150b4565b60405180910390fd5b6002600083815260200190815260200160002060009054906101000a900473ffffffffffffffffffffffffffffffffffffffff1673ffffffffffffffffffffffffffffffffffffffff163373ffffffffffffffffffffffffffffffffffffffff1614612134576040517f08c379a000000000000000000000000000000000000000000000000000000000815260040161212b906151b4565b60405180910390fd5b6000600160009054906101000a900473ffffffffffffffffffffffffffffffffffffffff1673ffffffffffffffffffffffffffffffffffffffff16634ca3e9b8846040518263ffffffff1660e01b81526004016121919190615294565b60206040518083038186803b1580156121a957600080fd5b505afa1580156121bd573d6000803e3d6000fd5b505050506040513d601f19601f820116820180604052508101906121e1919061461b565b905060036000848152602001908152602001600020548173ffffffffffffffffffffffffffffffffffffffff166318160ddd6040518163ffffffff1660e01b815260040160206040518083038186803b15801561223d57600080fd5b505afa158015612251573d6000803e3d6000fd5b505050506040513d601f19601f820116820180604052508101906122759190614789565b106122b5576040517f08c379a00000000000000000000000000000000000000000000000000000000081526004016122ac90615114565b60405180910390fd5b600033905060008273ffffffffffffffffffffffffffffffffffffffff16636a627842836040518263ffffffff1660e01b81526004016122f59190614f21565b602060405180830381600087803b15801561230f57600080fd5b505af1158015612323573d6000803e3d6000fd5b505050506040513d601f19601f820116820180604052508101906123479190614789565b9050809350505050919050565b6000801b61236981612364612ce5565b612ced565b60006009600084815260200190815260200160002060006101000a81548160ff0219169083151502179055505050565b6000801b81565b600d6020528160005260406000206020528060005260406000206000915091509054906101000a900460ff1681565b60086020528060005260406000206000915054906101000a900460ff1681565b60046020528060005260406000206000915090505481565b6000801b61241c81612417612ce5565b612ced565b60016009600084815260200190815260200160002060006101000a81548160ff0219169083151502179055505050565b6000801b6124618161245c612ce5565b612ced565b8160ff166007600085815260200190815260200160002081905550505050565b806002600082815260200190815260200160002060009054906101000a900473ffffffffffffffffffffffffffffffffffffffff1673ffffffffffffffffffffffffffffffffffffffff163373ffffffffffffffffffffffffffffffffffffffff1614612523576040517f08c379a000000000000000000000000000000000000000000000000000000000815260040161251a906151b4565b60405180910390fd5b816008600082815260200190815260200160002060009054906101000a900460ff1615612585576040517f08c379a000000000000000000000000000000000000000000000000000000000815260040161257c90615134565b60405180910390fd5b6040518060400160405280600381526020017f45544800000000000000000000000000000000000000000000000000000000008152506006600085815260200190815260200160002090805190602001906125e192919061445c565b5060006005600085815260200190815260200160002060006101000a81548173ffffffffffffffffffffffffffffffffffffffff021916908373ffffffffffffffffffffffffffffffffffffffff160217905550505050565b816002600082815260200190815260200160002060009054906101000a900473ffffffffffffffffffffffffffffffffffffffff1673ffffffffffffffffffffffffffffffffffffffff163373ffffffffffffffffffffffffffffffffffffffff16146126dc576040517f08c379a00000000000000000000000000000000000000000000000000000000081526004016126d3906151b4565b60405180910390fd5b826008600082815260200190815260200160002060009054906101000a900460ff161561273e576040517f08c379a000000000000000000000000000000000000000000000000000000000815260040161273590615134565b60405180910390fd5b6000600d600086815260200190815260200160002060008573ffffffffffffffffffffffffffffffffffffffff1673ffffffffffffffffffffffffffffffffffffffff16815260200190815260200160002060006101000a81548160ff02191690831515021790555050505050565b816002600082815260200190815260200160002060009054906101000a900473ffffffffffffffffffffffffffffffffffffffff1673ffffffffffffffffffffffffffffffffffffffff163373ffffffffffffffffffffffffffffffffffffffff161461284f576040517f08c379a0000000000000000000000000000000000000000000000000000000008152600401612846906151b4565b60405180910390fd5b826008600082815260200190815260200160002060009054906101000a900460ff16156128b1576040517f08c379a00000000000000000000000000000000000000000000000000000000081526004016128a890615134565b60405180910390fd5b82600e60008681526020019081526020016000208190555050505050565b6128d882610e97565b6128e9816128e4612ce5565b612ced565b6128f38383612e6a565b505050565b60006129058333846117e5565b905092915050565b816002600082815260200190815260200160002060009054906101000a900473ffffffffffffffffffffffffffffffffffffffff1673ffffffffffffffffffffffffffffffffffffffff163373ffffffffffffffffffffffffffffffffffffffff16146129af576040517f08c379a00000000000000000000000000000000000000000000000000000000081526004016129a6906151b4565b60405180910390fd5b826008600082815260200190815260200160002060009054906101000a900460ff1615612a11576040517f08c379a0000000000000000000000000000000000000000000000000000000008152600401612a0890615134565b60405180910390fd5b82600360008681526020019081526020016000208190555050505050565b600e6020528060005260406000206000915090505481565b816002600082815260200190815260200160002060009054906101000a900473ffffffffffffffffffffffffffffffffffffffff1673ffffffffffffffffffffffffffffffffffffffff163373ffffffffffffffffffffffffffffffffffffffff1614612ae9576040517f08c379a0000000000000000000000000000000000000000000000000000000008152600401612ae0906151b4565b60405180910390fd5b826008600082815260200190815260200160002060009054906101000a900460ff1615612b4b576040517f08c379a0000000000000000000000000000000000000000000000000000000008152600401612b4290615134565b60405180910390fd5b82600460008681526020019081526020016000208190555050505050565b600a6020528060005260406000206000915054906101000a900460ff1681565b806002600082815260200190815260200160002060009054906101000a900473ffffffffffffffffffffffffffffffffffffffff1673ffffffffffffffffffffffffffffffffffffffff163373ffffffffffffffffffffffffffffffffffffffff1614612c2b576040517f08c379a0000000000000000000000000000000000000000000000000000000008152600401612c22906151b4565b60405180910390fd5b60006009600084815260200190815260200160002060006101000a81548160ff0219169083151502179055505050565b60096020528060005260406000206000915054906101000a900460ff1681565b60007f01ffc9a7000000000000000000000000000000000000000000000000000000007bffffffffffffffffffffffffffffffffffffffffffffffffffffffff1916827bffffffffffffffffffffffffffffffffffffffffffffffffffffffff1916149050919050565b600033905090565b612cf78282611faf565b612d8657612d1c8173ffffffffffffffffffffffffffffffffffffffff16601461327b565b612d2a8360001c602061327b565b604051602001612d3b929190614ee7565b6040516020818303038152906040526040517f08c379a0000000000000000000000000000000000000000000000000000000008152600401612d7d9190614fd2565b60405180910390fd5b5050565b612d948282611faf565b612e6657600160008084815260200190815260200160002060000160008373ffffffffffffffffffffffffffffffffffffffff1673ffffffffffffffffffffffffffffffffffffffff16815260200190815260200160002060006101000a81548160ff021916908315150217905550612e0b612ce5565b73ffffffffffffffffffffffffffffffffffffffff168173ffffffffffffffffffffffffffffffffffffffff16837f2f8788117e7eff1d82e926ec794901d17c78024a50270940304540a733656f0d60405160405180910390a45b5050565b612e748282611faf565b15612f4757600080600084815260200190815260200160002060000160008373ffffffffffffffffffffffffffffffffffffffff1673ffffffffffffffffffffffffffffffffffffffff16815260200190815260200160002060006101000a81548160ff021916908315150217905550612eec612ce5565b73ffffffffffffffffffffffffffffffffffffffff168173ffffffffffffffffffffffffffffffffffffffff16837ff6391f5c32d9c69d2a47ea670b442974b53935d1edc7fd64eb21e047a839171b60405160405180910390a45b5050565b6000612f7382600460008681526020019081526020016000205461357590919063ffffffff16565b9050604051602001612f8490614ed2565b6040516020818303038152906040528051906020012060066000858152602001908152602001600020604051602001612fbd9190614ebb565b6040516020818303038152906040528051906020012014613228576000341461301b576040517f08c379a000000000000000000000000000000000000000000000000000000000815260040161301290615174565b60405180910390fd5b806005600085815260200190815260200160002060009054906101000a900473ffffffffffffffffffffffffffffffffffffffff1673ffffffffffffffffffffffffffffffffffffffff1663dd62ed3e33306040518363ffffffff1660e01b815260040161308a929190614f3c565b60206040518083038186803b1580156130a257600080fd5b505afa1580156130b6573d6000803e3d6000fd5b505050506040513d601f19601f820116820180604052508101906130da9190614789565b101561311b576040517f08c379a000000000000000000000000000000000000000000000000000000000815260040161311290615154565b60405180910390fd5b806005600085815260200190815260200160002060009054906101000a900473ffffffffffffffffffffffffffffffffffffffff1673ffffffffffffffffffffffffffffffffffffffff166370a08231336040518263ffffffff1660e01b81526004016131889190614f21565b60206040518083038186803b1580156131a057600080fd5b505afa1580156131b4573d6000803e3d6000fd5b505050506040513d601f19601f820116820180604052508101906131d89190614789565b1015613219576040517f08c379a000000000000000000000000000000000000000000000000000000000815260040161321090615094565b60405180910390fd5b613223838361358b565b613276565b8034101561326b576040517f08c379a000000000000000000000000000000000000000000000000000000000815260040161326290615014565b60405180910390fd5b6132758383613d1b565b5b505050565b60606000600283600261328e9190615372565b61329891906152eb565b67ffffffffffffffff8111156132d7577f4e487b7100000000000000000000000000000000000000000000000000000000600052604160045260246000fd5b6040519080825280601f01601f1916602001820160405280156133095781602001600182028036833780820191505090505b5090507f300000000000000000000000000000000000000000000000000000000000000081600081518110613367577f4e487b7100000000000000000000000000000000000000000000000000000000600052603260045260246000fd5b60200101907effffffffffffffffffffffffffffffffffffffffffffffffffffffffffffff1916908160001a9053507f7800000000000000000000000000000000000000000000000000000000000000816001815181106133f1577f4e487b7100000000000000000000000000000000000000000000000000000000600052603260045260246000fd5b60200101907effffffffffffffffffffffffffffffffffffffffffffffffffffffffffffff1916908160001a905350600060018460026134319190615372565b61343b91906152eb565b90505b6001811115613527577f3031323334353637383961626364656600000000000000000000000000000000600f8616601081106134a3577f4e487b7100000000000000000000000000000000000000000000000000000000600052603260045260246000fd5b1a60f81b8282815181106134e0577f4e487b7100000000000000000000000000000000000000000000000000000000600052603260045260246000fd5b60200101907effffffffffffffffffffffffffffffffffffffffffffffffffffffffffffff1916908160001a905350600485901c94508061352090615506565b905061343e565b506000841461356b576040517f08c379a000000000000000000000000000000000000000000000000000000000815260040161356290614ff4565b60405180910390fd5b8091505092915050565b600081836135839190615372565b905092915050565b60006004600084815260200190815260200160002054905060006135b8838361357590919063ffffffff16565b90506000613683600160009054906101000a900473ffffffffffffffffffffffffffffffffffffffff1673ffffffffffffffffffffffffffffffffffffffff16631f7418976040518163ffffffff1660e01b8152600401602060405180830381600087803b15801561362957600080fd5b505af115801561363d573d6000803e3d6000fd5b505050506040513d601f19601f820116820180604052508101906136619190614789565b6136756064856143aa90919063ffffffff16565b61357590919063ffffffff16565b905060008111156137f3576005600086815260200190815260200160002060009054906101000a900473ffffffffffffffffffffffffffffffffffffffff1673ffffffffffffffffffffffffffffffffffffffff166323b872dd33600160009054906101000a900473ffffffffffffffffffffffffffffffffffffffff1673ffffffffffffffffffffffffffffffffffffffff16637dafc0d36040518163ffffffff1660e01b8152600401602060405180830381600087803b15801561374857600080fd5b505af115801561375c573d6000803e3d6000fd5b505050506040513d601f19601f820116820180604052508101906137809190614644565b846040518463ffffffff1660e01b815260040161379f93929190614f65565b602060405180830381600087803b1580156137b957600080fd5b505af11580156137cd573d6000803e3d6000fd5b505050506040513d601f19601f820116820180604052508101906137f191906146a9565b505b6000600160009054906101000a900473ffffffffffffffffffffffffffffffffffffffff1673ffffffffffffffffffffffffffffffffffffffff16634ca3e9b8876040518263ffffffff1660e01b81526004016138509190615294565b60206040518083038186803b15801561386857600080fd5b505afa15801561387c573d6000803e3d6000fd5b505050506040513d601f19601f820116820180604052508101906138a0919061461b565b90508073ffffffffffffffffffffffffffffffffffffffff16638cbe8d806040518163ffffffff1660e01b815260040160206040518083038186803b1580156138e857600080fd5b505afa1580156138fc573d6000803e3d6000fd5b505050506040513d601f19601f820116820180604052508101906139209190614644565b50600061393683856143c090919063ffffffff16565b90506000808373ffffffffffffffffffffffffffffffffffffffff16632cc889746040518163ffffffff1660e01b815260040160206040518083038186803b15801561398157600080fd5b505afa158015613995573d6000803e3d6000fd5b505050506040513d601f19601f820116820180604052508101906139b99190614789565b1115613baf57613a628373ffffffffffffffffffffffffffffffffffffffff16632cc889746040518163ffffffff1660e01b815260040160206040518083038186803b158015613a0857600080fd5b505afa158015613a1c573d6000803e3d6000fd5b505050506040513d601f19601f82011682018060405250810190613a409190614789565b613a546064856143aa90919063ffffffff16565b61357590919063ffffffff16565b90506000811115613bae576005600089815260200190815260200160002060009054906101000a900473ffffffffffffffffffffffffffffffffffffffff1673ffffffffffffffffffffffffffffffffffffffff166323b872dd338573ffffffffffffffffffffffffffffffffffffffff16636ff314c76040518163ffffffff1660e01b815260040160206040518083038186803b158015613b0357600080fd5b505afa158015613b17573d6000803e3d6000fd5b505050506040513d601f19601f82011682018060405250810190613b3b9190614644565b846040518463ffffffff1660e01b8152600401613b5a93929190614f65565b602060405180830381600087803b158015613b7457600080fd5b505af1158015613b88573d6000803e3d6000fd5b505050506040513d601f19601f82011682018060405250810190613bac91906146a9565b505b5b6000613bc482846143c090919063ffffffff16565b90506000811115613d1057600560008a815260200190815260200160002060009054906101000a900473ffffffffffffffffffffffffffffffffffffffff1673ffffffffffffffffffffffffffffffffffffffff166323b872dd338673ffffffffffffffffffffffffffffffffffffffff16638cbe8d806040518163ffffffff1660e01b815260040160206040518083038186803b158015613c6557600080fd5b505afa158015613c79573d6000803e3d6000fd5b505050506040513d601f19601f82011682018060405250810190613c9d9190614644565b846040518463ffffffff1660e01b8152600401613cbc93929190614f65565b602060405180830381600087803b158015613cd657600080fd5b505af1158015613cea573d6000803e3d6000fd5b505050506040513d601f19601f82011682018060405250810190613d0e91906146a9565b505b505050505050505050565b60003411156143a6576000600460008481526020019081526020016000205490506000613d51838361357590919063ffffffff16565b90506000613d6882346143c090919063ffffffff16565b90506000811115613dbb573373ffffffffffffffffffffffffffffffffffffffff166108fc829081150290604051600060405180830381858888f19350505050158015613db9573d6000803e3d6000fd5b505b6000613e84600160009054906101000a900473ffffffffffffffffffffffffffffffffffffffff1673ffffffffffffffffffffffffffffffffffffffff16631f7418976040518163ffffffff1660e01b8152600401602060405180830381600087803b158015613e2a57600080fd5b505af1158015613e3e573d6000803e3d6000fd5b505050506040513d601f19601f82011682018060405250810190613e629190614789565b613e766064866143aa90919063ffffffff16565b61357590919063ffffffff16565b90506000811115613f7857600160009054906101000a900473ffffffffffffffffffffffffffffffffffffffff1673ffffffffffffffffffffffffffffffffffffffff16637dafc0d36040518163ffffffff1660e01b8152600401602060405180830381600087803b158015613ef957600080fd5b505af1158015613f0d573d6000803e3d6000fd5b505050506040513d601f19601f82011682018060405250810190613f319190614644565b73ffffffffffffffffffffffffffffffffffffffff166108fc829081150290604051600060405180830381858888f19350505050158015613f76573d6000803e3d6000fd5b505b6000600160009054906101000a900473ffffffffffffffffffffffffffffffffffffffff1673ffffffffffffffffffffffffffffffffffffffff16634ca3e9b8886040518263ffffffff1660e01b8152600401613fd59190615294565b60206040518083038186803b158015613fed57600080fd5b505afa158015614001573d6000803e3d6000fd5b505050506040513d601f19601f82011682018060405250810190614025919061461b565b90508073ffffffffffffffffffffffffffffffffffffffff16638cbe8d806040518163ffffffff1660e01b815260040160206040518083038186803b15801561406d57600080fd5b505afa158015614081573d6000803e3d6000fd5b505050506040513d601f19601f820116820180604052508101906140a59190614644565b5060006140bb83866143c090919063ffffffff16565b90506000808373ffffffffffffffffffffffffffffffffffffffff16632cc889746040518163ffffffff1660e01b815260040160206040518083038186803b15801561410657600080fd5b505afa15801561411a573d6000803e3d6000fd5b505050506040513d601f19601f8201168201806040525081019061413e9190614789565b11156142b8576141e78373ffffffffffffffffffffffffffffffffffffffff16632cc889746040518163ffffffff1660e01b815260040160206040518083038186803b15801561418d57600080fd5b505afa1580156141a1573d6000803e3d6000fd5b505050506040513d601f19601f820116820180604052508101906141c59190614789565b6141d96064856143aa90919063ffffffff16565b61357590919063ffffffff16565b905060008111156142b7578273ffffffffffffffffffffffffffffffffffffffff16636ff314c76040518163ffffffff1660e01b815260040160206040518083038186803b15801561423857600080fd5b505afa15801561424c573d6000803e3d6000fd5b505050506040513d601f19601f820116820180604052508101906142709190614644565b73ffffffffffffffffffffffffffffffffffffffff166108fc829081150290604051600060405180830381858888f193505050501580156142b5573d6000803e3d6000fd5b505b5b60006142cd82846143c090919063ffffffff16565b9050600081111561439d578373ffffffffffffffffffffffffffffffffffffffff16638cbe8d806040518163ffffffff1660e01b815260040160206040518083038186803b15801561431e57600080fd5b505afa158015614332573d6000803e3d6000fd5b505050506040513d601f19601f820116820180604052508101906143569190614644565b73ffffffffffffffffffffffffffffffffffffffff166108fc829081150290604051600060405180830381858888f1935050505015801561439b573d6000803e3d6000fd5b505b50505050505050505b5050565b600081836143b89190615341565b905092915050565b600081836143ce91906153cc565b905092915050565b8280546143e290615530565b90600052602060002090601f016020900481019282614404576000855561444b565b82601f1061441d57803560ff191683800117855561444b565b8280016001018555821561444b579182015b8281111561444a57823582559160200191906001019061442f565b5b50905061445891906144e2565b5090565b82805461446890615530565b90600052602060002090601f01602090048101928261448a57600085556144d1565b82601f106144a357805160ff19168380011785556144d1565b828001600101855582156144d1579182015b828111156144d05782518255916020019190600101906144b5565b5b5090506144de91906144e2565b5090565b5b808211156144fb5760008160009055506001016144e3565b5090565b60008135905061450e81615a93565b92915050565b60008151905061452381615a93565b92915050565b60008151905061453881615aaa565b92915050565b60008135905061454d81615ac1565b92915050565b60008151905061456281615ac1565b92915050565b60008135905061457781615ad8565b92915050565b60008135905061458c81615aef565b92915050565b60008083601f8401126145a457600080fd5b8235905067ffffffffffffffff8111156145bd57600080fd5b6020830191508360018202830111156145d557600080fd5b9250929050565b6000813590506145eb81615b06565b92915050565b60008151905061460081615b06565b92915050565b60008135905061461581615b1d565b92915050565b60006020828403121561462d57600080fd5b600061463b84828501614514565b91505092915050565b60006020828403121561465657600080fd5b600061466484828501614529565b91505092915050565b6000806040838503121561468057600080fd5b600061468e858286016144ff565b925050602061469f858286016145dc565b9150509250929050565b6000602082840312156146bb57600080fd5b60006146c984828501614553565b91505092915050565b6000602082840312156146e457600080fd5b60006146f284828501614568565b91505092915050565b6000806040838503121561470e57600080fd5b600061471c85828601614568565b925050602061472d858286016144ff565b9150509250929050565b60006020828403121561474957600080fd5b60006147578482850161457d565b91505092915050565b60006020828403121561477257600080fd5b6000614780848285016145dc565b91505092915050565b60006020828403121561479b57600080fd5b60006147a9848285016145f1565b91505092915050565b600080604083850312156147c557600080fd5b60006147d3858286016145dc565b92505060206147e4858286016144ff565b9150509250929050565b600080600080600060a0868803121561480657600080fd5b6000614814888289016145dc565b9550506020614825888289016144ff565b94505060406148368882890161453e565b9350506060614847888289016145dc565b9250506080614858888289016145dc565b9150509295509295909350565b60008060006060848603121561487a57600080fd5b6000614888868287016145dc565b9350506020614899868287016144ff565b92505060406148aa868287016145dc565b9150509250925092565b600080600080606085870312156148ca57600080fd5b60006148d8878288016145dc565b945050602085013567ffffffffffffffff8111156148f557600080fd5b61490187828801614592565b93509350506040614914878288016144ff565b91505092959194509250565b600080600080600080600060c0888a03121561493b57600080fd5b60006149498a828b016145dc565b975050602088013567ffffffffffffffff81111561496657600080fd5b6149728a828b01614592565b965096505060406149858a828b016144ff565b94505060606149968a828b016145dc565b93505060806149a78a828b016145dc565b92505060a06149b88a828b016145dc565b91505092959891949750929550565b600080604083850312156149da57600080fd5b60006149e8858286016145dc565b92505060206149f9858286016145dc565b9150509250929050565b60008060408385031215614a1657600080fd5b6000614a24858286016145dc565b9250506020614a3585828601614606565b9150509250929050565b614a488161549d565b82525050565b614a5781615400565b82525050565b614a6681615424565b82525050565b614a7581615430565b82525050565b6000614a86826152c4565b614a9081856152cf565b9350614aa08185602086016154d3565b614aa981615638565b840191505092915050565b6000614abf826152c4565b614ac981856152e0565b9350614ad98185602086016154d3565b80840191505092915050565b60008154614af281615530565b614afc81866152e0565b94506001821660008114614b175760018114614b2857614b5b565b60ff19831686528186019350614b5b565b614b31856152af565b60005b83811015614b5357815481890152600182019150602081019050614b34565b838801955050505b50505092915050565b6000614b716020836152cf565b9150614b7c82615649565b602082019050919050565b6000614b946020836152cf565b9150614b9f82615672565b602082019050919050565b6000614bb76015836152cf565b9150614bc28261569b565b602082019050919050565b6000614bda6015836152cf565b9150614be5826156c4565b602082019050919050565b6000614bfd600e836152cf565b9150614c08826156ed565b602082019050919050565b6000614c206015836152cf565b9150614c2b82615716565b602082019050919050565b6000614c436010836152cf565b9150614c4e8261573f565b602082019050919050565b6000614c666010836152cf565b9150614c7182615768565b602082019050919050565b6000614c89601c836152cf565b9150614c9482615791565b602082019050919050565b6000614cac600c836152cf565b9150614cb7826157ba565b602082019050919050565b6000614ccf600c836152cf565b9150614cda826157e3565b602082019050919050565b6000614cf26022836152cf565b9150614cfd8261580c565b604082019050919050565b6000614d15603f836152cf565b9150614d208261585b565b604082019050919050565b6000614d386003836152e0565b9150614d43826158aa565b600382019050919050565b6000614d5b601b836152cf565b9150614d66826158d3565b602082019050919050565b6000614d7e600a836152cf565b9150614d89826158fc565b602082019050919050565b6000614da16010836152cf565b9150614dac82615925565b602082019050919050565b6000614dc46012836152cf565b9150614dcf8261594e565b602082019050919050565b6000614de76013836152cf565b9150614df282615977565b602082019050919050565b6000614e0a601a836152cf565b9150614e15826159a0565b602082019050919050565b6000614e2d6017836152e0565b9150614e38826159c9565b601782019050919050565b6000614e506017836152cf565b9150614e5b826159f2565b602082019050919050565b6000614e736011836152e0565b9150614e7e82615a1b565b601182019050919050565b6000614e96602f836152cf565b9150614ea182615a44565b604082019050919050565b614eb581615486565b82525050565b6000614ec78284614ae5565b915081905092915050565b6000614edd82614d2b565b9150819050919050565b6000614ef282614e20565b9150614efe8285614ab4565b9150614f0982614e66565b9150614f158284614ab4565b91508190509392505050565b6000602082019050614f366000830184614a4e565b92915050565b6000604082019050614f516000830185614a4e565b614f5e6020830184614a4e565b9392505050565b6000606082019050614f7a6000830186614a4e565b614f876020830185614a3f565b614f946040830184614eac565b949350505050565b6000602082019050614fb16000830184614a5d565b92915050565b6000602082019050614fcc6000830184614a6c565b92915050565b60006020820190508181036000830152614fec8184614a7b565b905092915050565b6000602082019050818103600083015261500d81614b64565b9050919050565b6000602082019050818103600083015261502d81614b87565b9050919050565b6000602082019050818103600083015261504d81614baa565b9050919050565b6000602082019050818103600083015261506d81614bcd565b9050919050565b6000602082019050818103600083015261508d81614bf0565b9050919050565b600060208201905081810360008301526150ad81614c13565b9050919050565b600060208201905081810360008301526150cd81614c36565b9050919050565b600060208201905081810360008301526150ed81614c59565b9050919050565b6000602082019050818103600083015261510d81614c7c565b9050919050565b6000602082019050818103600083015261512d81614c9f565b9050919050565b6000602082019050818103600083015261514d81614cc2565b9050919050565b6000602082019050818103600083015261516d81614ce5565b9050919050565b6000602082019050818103600083015261518d81614d08565b9050919050565b600060208201905081810360008301526151ad81614d4e565b9050919050565b600060208201905081810360008301526151cd81614d71565b9050919050565b600060208201905081810360008301526151ed81614d94565b9050919050565b6000602082019050818103600083015261520d81614db7565b9050919050565b6000602082019050818103600083015261522d81614dda565b9050919050565b6000602082019050818103600083015261524d81614dfd565b9050919050565b6000602082019050818103600083015261526d81614e43565b9050919050565b6000602082019050818103600083015261528d81614e89565b9050919050565b60006020820190506152a96000830184614eac565b92915050565b60008190508160005260206000209050919050565b600081519050919050565b600082825260208201905092915050565b600081905092915050565b60006152f682615486565b915061530183615486565b9250827fffffffffffffffffffffffffffffffffffffffffffffffffffffffffffffffff03821115615336576153356155ab565b5b828201905092915050565b600061534c82615486565b915061535783615486565b925082615367576153666155da565b5b828204905092915050565b600061537d82615486565b915061538883615486565b9250817fffffffffffffffffffffffffffffffffffffffffffffffffffffffffffffffff04831182151516156153c1576153c06155ab565b5b828202905092915050565b60006153d782615486565b91506153e283615486565b9250828210156153f5576153f46155ab565b5b828203905092915050565b600061540b82615466565b9050919050565b600061541d82615466565b9050919050565b60008115159050919050565b6000819050919050565b60007fffffffff0000000000000000000000000000000000000000000000000000000082169050919050565b600073ffffffffffffffffffffffffffffffffffffffff82169050919050565b6000819050919050565b600060ff82169050919050565b60006154a8826154af565b9050919050565b60006154ba826154c1565b9050919050565b60006154cc82615466565b9050919050565b60005b838110156154f15780820151818401526020810190506154d6565b83811115615500576000848401525b50505050565b600061551182615486565b91506000821415615525576155246155ab565b5b600182039050919050565b6000600282049050600182168061554857607f821691505b6020821081141561555c5761555b615609565b5b50919050565b600061556d82615486565b91507fffffffffffffffffffffffffffffffffffffffffffffffffffffffffffffffff8214156155a05761559f6155ab565b5b600182019050919050565b7f4e487b7100000000000000000000000000000000000000000000000000000000600052601160045260246000fd5b7f4e487b7100000000000000000000000000000000000000000000000000000000600052601260045260246000fd5b7f4e487b7100000000000000000000000000000000000000000000000000000000600052602260045260246000fd5b6000601f19601f8301169050919050565b7f537472696e67733a20686578206c656e67746820696e73756666696369656e74600082015250565b7f4d7573742073656e64206d696e696d756d2076616c756520746f206d696e7421600082015250565b7f52656163686564206d696e74696e67206c696d69740000000000000000000000600082015250565b7f65786365646573206d696e74696e67206c696d69740000000000000000000000600082015250565b7f70726f6a65637420706175736564000000000000000000000000000000000000600082015250565b7f496e73756666696369656e742062616c616e63652e0000000000000000000000600082015250565b7f70726f6a656374206e6f74206c69766500000000000000000000000000000000600082015250565b7f6e6f74206f6e20616c6c6f776c69737400000000000000000000000000000000600082015250565b7f637572656e637920616464726573732063616e74206265207a65726f00000000600082015250565b7f6d6178207072656d696e74730000000000000000000000000000000000000000600082015250565b7f616c7265616479206c6976650000000000000000000000000000000000000000600082015250565b7f496e73756666696369656e742046756e647320417070726f76656420666f722060008201527f5458000000000000000000000000000000000000000000000000000000000000602082015250565b7f746869732070726f6a6563742061636365707473206120646966666572656e7460008201527f2063757272656e637920616e642063616e6e6f74206163636570742045544800602082015250565b7f4554480000000000000000000000000000000000000000000000000000000000600082015250565b7f6f776e65722063616e2774206265207a65726f20616464726573730000000000600082015250565b7f6f6e6c79206f776e657200000000000000000000000000000000000000000000600082015250565b7f4e6f20436f6e7472616374204275797300000000000000000000000000000000600082015250565b7f7072656d696e74732072656d61696e696e670000000000000000000000000000600082015250565b7f63616e27742062652073616d65206f776e657200000000000000000000000000600082015250565b7f65786365656473207175616e746974792072656d61696e696e67000000000000600082015250565b7f416363657373436f6e74726f6c3a206163636f756e7420000000000000000000600082015250565b7f53796d626f6c206d7573742062652070726f7669646564000000000000000000600082015250565b7f206973206d697373696e6720726f6c6520000000000000000000000000000000600082015250565b7f416363657373436f6e74726f6c3a2063616e206f6e6c792072656e6f756e636560008201527f20726f6c657320666f722073656c660000000000000000000000000000000000602082015250565b615a9c81615400565b8114615aa757600080fd5b50565b615ab381615412565b8114615abe57600080fd5b50565b615aca81615424565b8114615ad557600080fd5b50565b615ae181615430565b8114615aec57600080fd5b50565b615af88161543a565b8114615b0357600080fd5b50565b615b0f81615486565b8114615b1a57600080fd5b50565b615b2681615490565b8114615b3157600080fd5b5056fea2646970667358221220635ba3d9abd661fc58d7cd1c894fa797331f10333993ff1561dd714478901e2364736f6c63430008020033",
  "linkReferences": {},
  "deployedLinkReferences": {}
}