{
  "_format": "hh-sol-artifact-1",
  "contractName": "FineShop",
  "sourceName": "contracts/FineShop.sol",
  "abi": [
    {
      "inputs": [
        {
          "internalType": "address",
          "name": "_fineCoreAddresss",
          "type": "address"
        }
      ],
      "stateMutability": "nonpayable",
      "type": "constructor"
    },
    {
      "anonymous": false,
      "inputs": [
        {
          "indexed": true,
          "internalType": "bytes32",
          "name": "role",
          "type": "bytes32"
        },
        {
          "indexed": true,
          "internalType": "bytes32",
          "name": "previousAdminRole",
          "type": "bytes32"
        },
        {
          "indexed": true,
          "internalType": "bytes32",
          "name": "newAdminRole",
          "type": "bytes32"
        }
      ],
      "name": "RoleAdminChanged",
      "type": "event"
    },
    {
      "anonymous": false,
      "inputs": [
        {
          "indexed": true,
          "internalType": "bytes32",
          "name": "role",
          "type": "bytes32"
        },
        {
          "indexed": true,
          "internalType": "address",
          "name": "account",
          "type": "address"
        },
        {
          "indexed": true,
          "internalType": "address",
          "name": "sender",
          "type": "address"
        }
      ],
      "name": "RoleGranted",
      "type": "event"
    },
    {
      "anonymous": false,
      "inputs": [
        {
          "indexed": true,
          "internalType": "bytes32",
          "name": "role",
          "type": "bytes32"
        },
        {
          "indexed": true,
          "internalType": "address",
          "name": "account",
          "type": "address"
        },
        {
          "indexed": true,
          "internalType": "address",
          "name": "sender",
          "type": "address"
        }
      ],
      "name": "RoleRevoked",
      "type": "event"
    },
    {
      "inputs": [],
      "name": "DEFAULT_ADMIN_ROLE",
      "outputs": [
        {
          "internalType": "bytes32",
          "name": "",
          "type": "bytes32"
        }
      ],
      "stateMutability": "view",
      "type": "function"
    },
    {
      "inputs": [
        {
          "internalType": "uint256",
          "name": "_projectId",
          "type": "uint256"
        },
        {
          "internalType": "uint256",
          "name": "count",
          "type": "uint256"
        }
      ],
      "name": "buy",
      "outputs": [
        {
          "internalType": "string",
          "name": "",
          "type": "string"
        }
      ],
      "stateMutability": "payable",
      "type": "function"
    },
    {
      "inputs": [
        {
          "internalType": "uint256",
          "name": "_projectId",
          "type": "uint256"
        },
        {
          "internalType": "address",
          "name": "to",
          "type": "address"
        },
        {
          "internalType": "uint256",
          "name": "count",
          "type": "uint256"
        }
      ],
      "name": "buyFor",
      "outputs": [
        {
          "internalType": "string",
          "name": "",
          "type": "string"
        }
      ],
      "stateMutability": "payable",
      "type": "function"
    },
    {
      "inputs": [
        {
          "internalType": "uint256",
          "name": "",
          "type": "uint256"
        }
      ],
      "name": "contractFilterProject",
      "outputs": [
        {
          "internalType": "bool",
          "name": "",
          "type": "bool"
        }
      ],
      "stateMutability": "view",
      "type": "function"
    },
    {
      "inputs": [
        {
          "internalType": "uint256",
          "name": "_projectId",
          "type": "uint256"
        },
        {
          "internalType": "string",
          "name": "_symbol",
          "type": "string"
        },
        {
          "internalType": "address",
          "name": "_contract",
          "type": "address"
        },
        {
          "internalType": "uint256",
          "name": "_price",
          "type": "uint256"
        },
        {
          "internalType": "uint256",
          "name": "_premints",
          "type": "uint256"
        }
      ],
      "name": "fullSetup",
      "outputs": [],
      "stateMutability": "nonpayable",
      "type": "function"
    },
    {
      "inputs": [
        {
          "internalType": "bytes32",
          "name": "role",
          "type": "bytes32"
        }
      ],
      "name": "getRoleAdmin",
      "outputs": [
        {
          "internalType": "bytes32",
          "name": "",
          "type": "bytes32"
        }
      ],
      "stateMutability": "view",
      "type": "function"
    },
    {
      "inputs": [
        {
          "internalType": "uint256",
          "name": "_projectId",
          "type": "uint256"
        }
      ],
      "name": "goLive",
      "outputs": [],
      "stateMutability": "nonpayable",
      "type": "function"
    },
    {
      "inputs": [
        {
          "internalType": "bytes32",
          "name": "role",
          "type": "bytes32"
        },
        {
          "internalType": "address",
          "name": "account",
          "type": "address"
        }
      ],
      "name": "grantRole",
      "outputs": [],
      "stateMutability": "nonpayable",
      "type": "function"
    },
    {
      "inputs": [
        {
          "internalType": "bytes32",
          "name": "role",
          "type": "bytes32"
        },
        {
          "internalType": "address",
          "name": "account",
          "type": "address"
        }
      ],
      "name": "hasRole",
      "outputs": [
        {
          "internalType": "bool",
          "name": "",
          "type": "bool"
        }
      ],
      "stateMutability": "view",
      "type": "function"
    },
    {
      "inputs": [
        {
          "internalType": "uint256",
          "name": "_projectId",
          "type": "uint256"
        },
        {
          "internalType": "address",
          "name": "to",
          "type": "address"
        }
      ],
      "name": "mintAllGated",
      "outputs": [
        {
          "internalType": "string",
          "name": "idList",
          "type": "string"
        }
      ],
      "stateMutability": "payable",
      "type": "function"
    },
    {
      "inputs": [
        {
          "internalType": "uint256",
          "name": "_projectId",
          "type": "uint256"
        },
        {
          "internalType": "address",
          "name": "to",
          "type": "address"
        },
        {
          "internalType": "uint8",
          "name": "contractId",
          "type": "uint8"
        },
        {
          "internalType": "uint256",
          "name": "redeemId",
          "type": "uint256"
        }
      ],
      "name": "mintGated",
      "outputs": [
        {
          "internalType": "string",
          "name": "",
          "type": "string"
        }
      ],
      "stateMutability": "payable",
      "type": "function"
    },
    {
      "inputs": [
        {
          "internalType": "uint256",
          "name": "",
          "type": "uint256"
        },
        {
          "internalType": "address",
          "name": "",
          "type": "address"
        }
      ],
      "name": "projectAllowList",
      "outputs": [
        {
          "internalType": "uint8",
          "name": "",
          "type": "uint8"
        }
      ],
      "stateMutability": "view",
      "type": "function"
    },
    {
      "inputs": [
        {
          "internalType": "uint256",
          "name": "",
          "type": "uint256"
        }
      ],
      "name": "projectBulkMintCount",
      "outputs": [
        {
          "internalType": "uint256",
          "name": "",
          "type": "uint256"
        }
      ],
      "stateMutability": "view",
      "type": "function"
    },
    {
      "inputs": [
        {
          "internalType": "uint256",
          "name": "",
          "type": "uint256"
        }
      ],
      "name": "projectCurrencyAddress",
      "outputs": [
        {
          "internalType": "address",
          "name": "",
          "type": "address"
        }
      ],
      "stateMutability": "view",
      "type": "function"
    },
    {
      "inputs": [
        {
          "internalType": "uint256",
          "name": "",
          "type": "uint256"
        }
      ],
      "name": "projectCurrencySymbol",
      "outputs": [
        {
          "internalType": "string",
          "name": "",
          "type": "string"
        }
      ],
      "stateMutability": "view",
      "type": "function"
    },
    {
      "inputs": [
        {
          "internalType": "uint256",
          "name": "",
          "type": "uint256"
        },
        {
          "internalType": "uint256",
          "name": "",
          "type": "uint256"
        }
      ],
      "name": "projectGateTokens",
      "outputs": [
        {
          "internalType": "address",
          "name": "",
          "type": "address"
        }
      ],
      "stateMutability": "view",
      "type": "function"
    },
    {
      "inputs": [
        {
          "internalType": "uint256",
          "name": "",
          "type": "uint256"
        }
      ],
      "name": "projectGateTokensCount",
      "outputs": [
        {
          "internalType": "uint256",
          "name": "",
          "type": "uint256"
        }
      ],
      "stateMutability": "view",
      "type": "function"
    },
    {
      "inputs": [
        {
          "internalType": "uint256",
          "name": "_projectId",
          "type": "uint256"
        },
        {
          "internalType": "address",
          "name": "newOwner",
          "type": "address"
        },
        {
          "internalType": "bool",
          "name": "contractFilter",
          "type": "bool"
        },
        {
          "internalType": "uint256",
          "name": "_bulk",
          "type": "uint256"
        },
        {
          "internalType": "uint256",
          "name": "_limit",
          "type": "uint256"
        }
      ],
      "name": "projectInit",
      "outputs": [],
      "stateMutability": "nonpayable",
      "type": "function"
    },
    {
      "inputs": [
        {
          "internalType": "uint256",
          "name": "",
          "type": "uint256"
        }
      ],
      "name": "projectLive",
      "outputs": [
        {
          "internalType": "bool",
          "name": "",
          "type": "bool"
        }
      ],
      "stateMutability": "view",
      "type": "function"
    },
    {
      "inputs": [
        {
          "internalType": "address",
          "name": "",
          "type": "address"
        },
        {
          "internalType": "uint256",
          "name": "",
          "type": "uint256"
        }
      ],
      "name": "projectMintCounter",
      "outputs": [
        {
          "internalType": "uint256",
          "name": "",
          "type": "uint256"
        }
      ],
      "stateMutability": "view",
      "type": "function"
    },
    {
      "inputs": [
        {
          "internalType": "uint256",
          "name": "",
          "type": "uint256"
        }
      ],
      "name": "projectMintLimit",
      "outputs": [
        {
          "internalType": "uint256",
          "name": "",
          "type": "uint256"
        }
      ],
      "stateMutability": "view",
      "type": "function"
    },
    {
      "inputs": [
        {
          "internalType": "uint256",
          "name": "",
          "type": "uint256"
        }
      ],
      "name": "projectOwner",
      "outputs": [
        {
          "internalType": "address",
          "name": "",
          "type": "address"
        }
      ],
      "stateMutability": "view",
      "type": "function"
    },
    {
      "inputs": [
        {
          "internalType": "uint256",
          "name": "",
          "type": "uint256"
        }
      ],
      "name": "projectPhase",
      "outputs": [
        {
          "internalType": "enum SalePhase",
          "name": "",
          "type": "uint8"
        }
      ],
      "stateMutability": "view",
      "type": "function"
    },
    {
      "inputs": [
        {
          "internalType": "uint256",
          "name": "",
          "type": "uint256"
        }
      ],
      "name": "projectPremints",
      "outputs": [
        {
          "internalType": "uint256",
          "name": "",
          "type": "uint256"
        }
      ],
      "stateMutability": "view",
      "type": "function"
    },
    {
      "inputs": [
        {
          "internalType": "uint256",
          "name": "",
          "type": "uint256"
        }
      ],
      "name": "projectPrice",
      "outputs": [
        {
          "internalType": "uint256",
          "name": "",
          "type": "uint256"
        }
      ],
      "stateMutability": "view",
      "type": "function"
    },
    {
      "inputs": [
        {
          "internalType": "address",
          "name": "",
          "type": "address"
        },
        {
          "internalType": "uint256",
          "name": "",
          "type": "uint256"
        }
      ],
      "name": "redeemed",
      "outputs": [
        {
          "internalType": "bool",
          "name": "",
          "type": "bool"
        }
      ],
      "stateMutability": "view",
      "type": "function"
    },
    {
      "inputs": [
        {
          "internalType": "bytes32",
          "name": "role",
          "type": "bytes32"
        },
        {
          "internalType": "address",
          "name": "account",
          "type": "address"
        }
      ],
      "name": "renounceRole",
      "outputs": [],
      "stateMutability": "nonpayable",
      "type": "function"
    },
    {
      "inputs": [
        {
          "internalType": "bytes32",
          "name": "role",
          "type": "bytes32"
        },
        {
          "internalType": "address",
          "name": "account",
          "type": "address"
        }
      ],
      "name": "revokeRole",
      "outputs": [],
      "stateMutability": "nonpayable",
      "type": "function"
    },
    {
      "inputs": [
        {
          "internalType": "uint256",
          "name": "_projectId",
          "type": "uint256"
        },
        {
          "internalType": "address[]",
          "name": "addresses",
          "type": "address[]"
        },
        {
          "internalType": "uint8",
          "name": "numAllowedToMint",
          "type": "uint8"
        }
      ],
      "name": "setAllowList",
      "outputs": [],
      "stateMutability": "nonpayable",
      "type": "function"
    },
    {
      "inputs": [
        {
          "internalType": "uint256",
          "name": "_projectId",
          "type": "uint256"
        },
        {
          "internalType": "string",
          "name": "_symbol",
          "type": "string"
        },
        {
          "internalType": "address",
          "name": "_contract",
          "type": "address"
        }
      ],
      "name": "setCurrency",
      "outputs": [],
      "stateMutability": "nonpayable",
      "type": "function"
    },
    {
      "inputs": [
        {
          "internalType": "uint256",
          "name": "_projectId",
          "type": "uint256"
        }
      ],
      "name": "setCurrencyToETH",
      "outputs": [],
      "stateMutability": "nonpayable",
      "type": "function"
    },
    {
      "inputs": [
        {
          "internalType": "uint256",
          "name": "_projectId",
          "type": "uint256"
        },
        {
          "internalType": "address[]",
          "name": "addresses",
          "type": "address[]"
        }
      ],
      "name": "setGateTokens",
      "outputs": [],
      "stateMutability": "nonpayable",
      "type": "function"
    },
    {
      "inputs": [
        {
          "internalType": "uint256",
          "name": "_projectId",
          "type": "uint256"
        },
        {
          "internalType": "address",
          "name": "newOwner",
          "type": "address"
        }
      ],
      "name": "setOwner",
      "outputs": [],
      "stateMutability": "nonpayable",
      "type": "function"
    },
    {
      "inputs": [
        {
          "internalType": "uint256",
          "name": "_projectId",
          "type": "uint256"
        },
        {
          "internalType": "enum SalePhase",
          "name": "phase",
          "type": "uint8"
        }
      ],
      "name": "setPhase",
      "outputs": [],
      "stateMutability": "nonpayable",
      "type": "function"
    },
    {
      "inputs": [
        {
          "internalType": "uint256",
          "name": "_projectId",
          "type": "uint256"
        },
        {
          "internalType": "uint256",
          "name": "premints",
          "type": "uint256"
        }
      ],
      "name": "setPremints",
      "outputs": [],
      "stateMutability": "nonpayable",
      "type": "function"
    },
    {
      "inputs": [
        {
          "internalType": "uint256",
          "name": "_projectId",
          "type": "uint256"
        },
        {
          "internalType": "uint256",
          "name": "price",
          "type": "uint256"
        }
      ],
      "name": "setPrice",
      "outputs": [],
      "stateMutability": "nonpayable",
      "type": "function"
    },
    {
      "inputs": [
        {
          "internalType": "uint256",
          "name": "_projectId",
          "type": "uint256"
        },
        {
          "internalType": "uint8",
          "name": "_count",
          "type": "uint8"
        }
      ],
      "name": "setProjectBulkMintCount",
      "outputs": [],
      "stateMutability": "nonpayable",
      "type": "function"
    },
    {
      "inputs": [
        {
          "internalType": "uint256",
          "name": "_projectId",
          "type": "uint256"
        },
        {
          "internalType": "uint8",
          "name": "_limit",
          "type": "uint8"
        }
      ],
      "name": "setProjectMintLimit",
      "outputs": [],
      "stateMutability": "nonpayable",
      "type": "function"
    },
    {
      "inputs": [
        {
          "internalType": "bytes4",
          "name": "interfaceId",
          "type": "bytes4"
        }
      ],
      "name": "supportsInterface",
      "outputs": [
        {
          "internalType": "bool",
          "name": "",
          "type": "bool"
        }
      ],
      "stateMutability": "view",
      "type": "function"
    },
    {
      "inputs": [
        {
          "internalType": "uint256",
          "name": "_projectId",
          "type": "uint256"
        }
      ],
      "name": "toggleContractFilter",
      "outputs": [],
      "stateMutability": "nonpayable",
      "type": "function"
    }
  ],
  "bytecode": "0x60806040523480156200001157600080fd5b506040516200710a3803806200710a83398181016040528101906200003791906200020e565b6200004c6000801b336200009460201b60201c565b80600160006101000a81548173ffffffffffffffffffffffffffffffffffffffff021916908373ffffffffffffffffffffffffffffffffffffffff1602179055505062000288565b620000a682826200018560201b60201c565b6200018157600160008084815260200190815260200160002060000160008373ffffffffffffffffffffffffffffffffffffffff1673ffffffffffffffffffffffffffffffffffffffff16815260200190815260200160002060006101000a81548160ff02191690831515021790555062000126620001ef60201b60201c565b73ffffffffffffffffffffffffffffffffffffffff168173ffffffffffffffffffffffffffffffffffffffff16837f2f8788117e7eff1d82e926ec794901d17c78024a50270940304540a733656f0d60405160405180910390a45b5050565b600080600084815260200190815260200160002060000160008373ffffffffffffffffffffffffffffffffffffffff1673ffffffffffffffffffffffffffffffffffffffff16815260200190815260200160002060009054906101000a900460ff16905092915050565b600033905090565b60008151905062000208816200026e565b92915050565b6000602082840312156200022157600080fd5b60006200023184828501620001f7565b91505092915050565b600062000247826200024e565b9050919050565b600073ffffffffffffffffffffffffffffffffffffffff82169050919050565b62000279816200023a565b81146200028557600080fd5b50565b616e7280620002986000396000f3fe60806040526004361061023b5760003560e01c80637fd392471161012e578063b5656185116100ab578063dc3d886f1161006f578063dc3d886f14610925578063df6a6b381461094e578063e44f86481461098b578063f7d97577146109c8578063f9f96b9e146109f15761023b565b8063b565618514610851578063bbd1f2471461087a578063bd33f081146108a3578063d547741f146108cc578063d6febde8146108f55761023b565b8063a47f9092116100f2578063a47f909214610734578063ac26e4c914610771578063ad286a9c146107ae578063b05ff2eb146107eb578063b24e8444146108285761023b565b80637fd392471461063657806389fe08f81461065f57806391d148541461069c5780639265c17f146106d9578063a217fddf146107095761023b565b8063314398d8116101bc578063569f6f9211610180578063569f6f921461054157806362f7a7ed1461056a57806363767742146105a75780636b48c66d146105d05780636ddd9f20146105f95761023b565b8063314398d81461043157806336568abe146104615780633a4657b41461048a57806348491e6e146104c7578063531b14b9146105045761023b565b8063248a9ca311610203578063248a9ca314610328578063287f5fb7146103655780632a83ca5b146103a25780632f2ff15d146103cb5780633010f817146103f45761023b565b806301ffc9a71461024057806302b776c11461027d5780630ad1d81c146102ad578063128e1c5b146102d6578063231c2281146102ff575b600080fd5b34801561024c57600080fd5b50610267600480360381019061026291906156be565b610a2e565b60405161027491906160f2565b60405180910390f35b61029760048036038101906102929190615739565b610aa8565b6040516102a49190616143565b60405180910390f35b3480156102b957600080fd5b506102d460048036038101906102cf91906156e7565b611326565b005b3480156102e257600080fd5b506102fd60048036038101906102f8919061599e565b611483565b005b34801561030b57600080fd5b5061032660048036038101906103219190615ad8565b611742565b005b34801561033457600080fd5b5061034f600480360381019061034a9190615659565b611777565b60405161035c919061610d565b60405180910390f35b34801561037157600080fd5b5061038c600480360381019061038791906156e7565b611796565b604051610399919061604e565b60405180910390f35b3480156103ae57600080fd5b506103c960048036038101906103c491906158f6565b6117c9565b005b3480156103d757600080fd5b506103f260048036038101906103ed9190615682565b61194a565b005b34801561040057600080fd5b5061041b600480360381019061041691906156e7565b611973565b6040516104289190616465565b60405180910390f35b61044b600480360381019061044691906157ec565b61198b565b6040516104589190616143565b60405180910390f35b34801561046d57600080fd5b5061048860048036038101906104839190615682565b6119a1565b005b34801561049657600080fd5b506104b160048036038101906104ac91906155f4565b611a24565b6040516104be9190616465565b60405180910390f35b3480156104d357600080fd5b506104ee60048036038101906104e991906156e7565b611a49565b6040516104fb9190616128565b60405180910390f35b34801561051057600080fd5b5061052b600480360381019061052691906156e7565b611a69565b6040516105389190616143565b60405180910390f35b34801561054d57600080fd5b50610568600480360381019061056391906156e7565b611b09565b005b34801561057657600080fd5b50610591600480360381019061058c91906156e7565b611b6e565b60405161059e9190616465565b60405180910390f35b3480156105b357600080fd5b506105ce60048036038101906105c9919061589e565b611b86565b005b3480156105dc57600080fd5b506105f760048036038101906105f29190615775565b611d1b565b005b34801561060557600080fd5b50610620600480360381019061061b91906156e7565b611e55565b60405161062d9190616465565b60405180910390f35b34801561064257600080fd5b5061065d60048036038101906106589190615739565b611e6d565b005b34801561066b57600080fd5b50610686600480360381019061068191906156e7565b611feb565b604051610693919061604e565b60405180910390f35b3480156106a857600080fd5b506106c360048036038101906106be9190615682565b61201e565b6040516106d091906160f2565b60405180910390f35b6106f360048036038101906106ee919061583b565b612088565b6040516107009190616143565b60405180910390f35b34801561071557600080fd5b5061071e61288b565b60405161072b919061610d565b60405180910390f35b34801561074057600080fd5b5061075b60048036038101906107569190615739565b612892565b6040516107689190616480565b60405180910390f35b34801561077d57600080fd5b50610798600480360381019061079391906156e7565b6128c1565b6040516107a591906160f2565b60405180910390f35b3480156107ba57600080fd5b506107d560048036038101906107d091906156e7565b6128e1565b6040516107e29190616465565b60405180910390f35b3480156107f757600080fd5b50610812600480360381019061080d91906156e7565b6128f9565b60405161081f9190616465565b60405180910390f35b34801561083457600080fd5b5061084f600480360381019061084a9190615a0a565b612911565b005b34801561085d57600080fd5b5061087860048036038101906108739190615ad8565b612c02565b005b34801561088657600080fd5b506108a1600480360381019061089c9190615962565b612c37565b005b3480156108af57600080fd5b506108ca60048036038101906108c591906156e7565b612da1565b005b3480156108d857600080fd5b506108f360048036038101906108ee9190615682565b612f5a565b005b61090f600480360381019061090a9190615a9c565b612f83565b60405161091c9190616143565b60405180910390f35b34801561093157600080fd5b5061094c60048036038101906109479190615a9c565b612f98565b005b34801561095a57600080fd5b50610975600480360381019061097091906155f4565b6130ba565b60405161098291906160f2565b60405180910390f35b34801561099757600080fd5b506109b260048036038101906109ad9190615a9c565b6130e9565b6040516109bf919061604e565b60405180910390f35b3480156109d457600080fd5b506109ef60048036038101906109ea9190615a9c565b61312b565b005b3480156109fd57600080fd5b50610a186004803603810190610a1391906156e7565b61324d565b604051610a2591906160f2565b60405180910390f35b60007f7965db0b000000000000000000000000000000000000000000000000000000007bffffffffffffffffffffffffffffffffffffffffffffffffffffffff1916827bffffffffffffffffffffffffffffffffffffffffffffffffffffffff19161480610aa15750610aa08261326d565b5b9050919050565b6060826008600082815260200190815260200160002060009054906101000a900460ff16610b0b576040517f08c379a0000000000000000000000000000000000000000000000000000000008152600401610b02906163c5565b60405180910390fd5b6009600085815260200190815260200160002060009054906101000a900460ff1615610ba0573273ffffffffffffffffffffffffffffffffffffffff163373ffffffffffffffffffffffffffffffffffffffff1614610b9f576040517f08c379a0000000000000000000000000000000000000000000000000000000008152600401610b9690616385565b60405180910390fd5b5b6000600160009054906101000a900473ffffffffffffffffffffffffffffffffffffffff1673ffffffffffffffffffffffffffffffffffffffff16634ca3e9b8866040518263ffffffff1660e01b8152600401610bfd9190616465565b60206040518083038186803b158015610c1557600080fd5b505afa158015610c29573d6000803e3d6000fd5b505050506040513d601f19601f82011682018060405250810190610c4d91906155a2565b9050600080600090505b600f6000888152602001908152602001600020548110156113125760006002811115610cac577f4e487b7100000000000000000000000000000000000000000000000000000000600052602160045260246000fd5b600c600089815260200190815260200160002060009054906101000a900460ff166002811115610d05577f4e487b7100000000000000000000000000000000000000000000000000000000600052602160045260246000fd5b1415610d46576040517f08c379a0000000000000000000000000000000000000000000000000000000008152600401610d3d906163a5565b60405180910390fd5b6000600e6000898152602001908152602001600020600083815260200190815260200160002060009054906101000a900473ffffffffffffffffffffffffffffffffffffffff16905060008173ffffffffffffffffffffffffffffffffffffffff166370a08231336040518263ffffffff1660e01b8152600401610dca919061604e565b60206040518083038186803b158015610de257600080fd5b505afa158015610df6573d6000803e3d6000fd5b505050506040513d601f19601f82011682018060405250810190610e1a9190615710565b90508473ffffffffffffffffffffffffffffffffffffffff1663284855866040518163ffffffff1660e01b815260040160206040518083038186803b158015610e6257600080fd5b505afa158015610e76573d6000803e3d6000fd5b505050506040513d601f19601f82011682018060405250810190610e9a9190615710565b848673ffffffffffffffffffffffffffffffffffffffff166318160ddd6040518163ffffffff1660e01b815260040160206040518083038186803b158015610ee157600080fd5b505afa158015610ef5573d6000803e3d6000fd5b505050506040513d601f19601f82011682018060405250810190610f199190615710565b610f2391906164c2565b10610f63576040517f08c379a0000000000000000000000000000000000000000000000000000000008152600401610f5a90616205565b60405180910390fd5b60005b818110156112fc5760008373ffffffffffffffffffffffffffffffffffffffff16632f745c5933846040518363ffffffff1660e01b8152600401610fab9291906160c9565b60206040518083038186803b158015610fc357600080fd5b505afa158015610fd7573d6000803e3d6000fd5b505050506040513d601f19601f82011682018060405250810190610ffb9190615710565b905060106000600e60008e8152602001908152602001600020600088815260200190815260200160002060009054906101000a900473ffffffffffffffffffffffffffffffffffffffff1673ffffffffffffffffffffffffffffffffffffffff1673ffffffffffffffffffffffffffffffffffffffff168152602001908152602001600020600082815260200190815260200160002060009054906101000a900460ff166112e85785806110ae90616792565b965050600160106000600e60008f8152602001908152602001600020600089815260200190815260200160002060009054906101000a900473ffffffffffffffffffffffffffffffffffffffff1673ffffffffffffffffffffffffffffffffffffffff1673ffffffffffffffffffffffffffffffffffffffff168152602001908152602001600020600083815260200190815260200160002060006101000a81548160ff02191690831515021790555060008773ffffffffffffffffffffffffffffffffffffffff16636a6278428c6040518263ffffffff1660e01b8152600401611199919061604e565b602060405180830381600087803b1580156111b357600080fd5b505af11580156111c7573d6000803e3d6000fd5b505050506040513d601f19601f820116820180604052508101906111eb9190615710565b90506000861480156111fd5750600083145b1561122957806040516020016112139190616033565b604051602081830303815290604052995061124e565b898160405160200161123c929190615fc6565b60405160208183030381529060405299505b60008614156112e6578773ffffffffffffffffffffffffffffffffffffffff1663d9a7c61d8c846040518363ffffffff1660e01b81526004016112929291906160c9565b602060405180830381600087803b1580156112ac57600080fd5b505af11580156112c0573d6000803e3d6000fd5b505050506040513d601f19601f820116820180604052508101906112e49190615710565b505b505b5080806112f490616792565b915050610f66565b505050808061130a90616792565b915050610c57565b5061131d86826132d7565b50505092915050565b6000801b61133b81611336613682565b61368a565b6000806004600085815260200190815260200160002054118015611410575061140e60066000858152602001908152602001600020805461137b90616760565b80601f01602080910402602001604051908101604052809291908181526020018280546113a790616760565b80156113f45780601f106113c9576101008083540402835291602001916113f4565b820191906000526020600020905b8154815290600101906020018083116113d757829003601f168201915b505050505060405180602001604052806000815250613727565b155b905080611452576040517f08c379a000000000000000000000000000000000000000000000000000000000815260040161144990616245565b60405180910390fd5b60016008600085815260200190815260200160002060006101000a81548160ff021916908315150217905550505050565b836002600082815260200190815260200160002060009054906101000a900473ffffffffffffffffffffffffffffffffffffffff1673ffffffffffffffffffffffffffffffffffffffff163373ffffffffffffffffffffffffffffffffffffffff1614611525576040517f08c379a000000000000000000000000000000000000000000000000000000000815260040161151c90616365565b60405180910390fd5b846008600082815260200190815260200160002060009054906101000a900460ff1615611587576040517f08c379a000000000000000000000000000000000000000000000000000000000815260040161157e90616305565b60405180910390fd5b600085859050116115cd576040517f08c379a00000000000000000000000000000000000000000000000000000000081526004016115c490616425565b60405180910390fd5b61165085858080601f016020809104026020016040519081016040528093929190818152602001838380828437600081840152601f19601f820116905080830192505050505050506040518060400160405280600381526020017f4554480000000000000000000000000000000000000000000000000000000000815250613727565b6116c557600073ffffffffffffffffffffffffffffffffffffffff168373ffffffffffffffffffffffffffffffffffffffff1614156116c4576040517f08c379a00000000000000000000000000000000000000000000000000000000081526004016116bb906162c5565b60405180910390fd5b5b84846006600089815260200190815260200160002091906116e79291906152d5565b50826005600088815260200190815260200160002060006101000a81548173ffffffffffffffffffffffffffffffffffffffff021916908373ffffffffffffffffffffffffffffffffffffffff160217905550505050505050565b6000801b61175781611752613682565b61368a565b8160ff16600b600085815260200190815260200160002081905550505050565b6000806000838152602001908152602001600020600101549050919050565b60056020528060005260406000206000915054906101000a900473ffffffffffffffffffffffffffffffffffffffff1681565b836002600082815260200190815260200160002060009054906101000a900473ffffffffffffffffffffffffffffffffffffffff1673ffffffffffffffffffffffffffffffffffffffff163373ffffffffffffffffffffffffffffffffffffffff161461186b576040517f08c379a000000000000000000000000000000000000000000000000000000000815260040161186290616365565b60405180910390fd5b60005b848490508110156119425782600d600088815260200190815260200160002060008787858181106118c8577f4e487b7100000000000000000000000000000000000000000000000000000000600052603260045260246000fd5b90506020020160208101906118dd9190615579565b73ffffffffffffffffffffffffffffffffffffffff1673ffffffffffffffffffffffffffffffffffffffff16815260200190815260200160002060006101000a81548160ff021916908360ff160217905550808061193a90616792565b91505061186e565b505050505050565b61195382611777565b6119648161195f613682565b61368a565b61196e8383613780565b505050565b600f6020528060005260406000206000915090505481565b6060611998848484613860565b90509392505050565b6119a9613682565b73ffffffffffffffffffffffffffffffffffffffff168173ffffffffffffffffffffffffffffffffffffffff1614611a16576040517f08c379a0000000000000000000000000000000000000000000000000000000008152600401611a0d90616445565b60405180910390fd5b611a20828261422c565b5050565b600a602052816000526040600020602052806000526040600020600091509150505481565b600c6020528060005260406000206000915054906101000a900460ff1681565b60066020528060005260406000206000915090508054611a8890616760565b80601f0160208091040260200160405190810160405280929190818152602001828054611ab490616760565b8015611b015780601f10611ad657610100808354040283529160200191611b01565b820191906000526020600020905b815481529060010190602001808311611ae457829003601f168201915b505050505081565b6000801b611b1e81611b19613682565b61368a565b6009600083815260200190815260200160002060009054906101000a900460ff16156009600084815260200190815260200160002060006101000a81548160ff0219169083151502179055505050565b600b6020528060005260406000206000915090505481565b826002600082815260200190815260200160002060009054906101000a900473ffffffffffffffffffffffffffffffffffffffff1673ffffffffffffffffffffffffffffffffffffffff163373ffffffffffffffffffffffffffffffffffffffff1614611c28576040517f08c379a0000000000000000000000000000000000000000000000000000000008152600401611c1f90616365565b60405180910390fd5b82829050600f60008681526020019081526020016000208190555060005b83839050811015611d1457838382818110611c8a577f4e487b7100000000000000000000000000000000000000000000000000000000600052603260045260246000fd5b9050602002016020810190611c9f9190615579565b600e6000878152602001908152602001600020600083815260200190815260200160002060006101000a81548173ffffffffffffffffffffffffffffffffffffffff021916908373ffffffffffffffffffffffffffffffffffffffff1602179055508080611d0c90616792565b915050611c46565b5050505050565b6000801b611d3081611d2b613682565b61368a565b600073ffffffffffffffffffffffffffffffffffffffff168573ffffffffffffffffffffffffffffffffffffffff161415611da0576040517f08c379a0000000000000000000000000000000000000000000000000000000008152600401611d9790616345565b60405180910390fd5b846002600088815260200190815260200160002060006101000a81548173ffffffffffffffffffffffffffffffffffffffff021916908373ffffffffffffffffffffffffffffffffffffffff160217905550836009600088815260200190815260200160002060006101000a81548160ff02191690831515021790555082600760008881526020019081526020016000208190555081600b600088815260200190815260200160002081905550505050505050565b60076020528060005260406000206000915090505481565b6000801b611e8281611e7d613682565b61368a565b8173ffffffffffffffffffffffffffffffffffffffff166002600085815260200190815260200160002060009054906101000a900473ffffffffffffffffffffffffffffffffffffffff1673ffffffffffffffffffffffffffffffffffffffff161415611f24576040517f08c379a0000000000000000000000000000000000000000000000000000000008152600401611f1b906163e5565b60405180910390fd5b600073ffffffffffffffffffffffffffffffffffffffff168273ffffffffffffffffffffffffffffffffffffffff161415611f94576040517f08c379a0000000000000000000000000000000000000000000000000000000008152600401611f8b90616345565b60405180910390fd5b816002600085815260200190815260200160002060006101000a81548173ffffffffffffffffffffffffffffffffffffffff021916908373ffffffffffffffffffffffffffffffffffffffff160217905550505050565b60026020528060005260406000206000915054906101000a900473ffffffffffffffffffffffffffffffffffffffff1681565b600080600084815260200190815260200160002060000160008373ffffffffffffffffffffffffffffffffffffffff1673ffffffffffffffffffffffffffffffffffffffff16815260200190815260200160002060009054906101000a900460ff16905092915050565b6060846008600082815260200190815260200160002060009054906101000a900460ff166120eb576040517f08c379a00000000000000000000000000000000000000000000000000000000081526004016120e2906163c5565b60405180910390fd5b6009600087815260200190815260200160002060009054906101000a900460ff1615612180573273ffffffffffffffffffffffffffffffffffffffff163373ffffffffffffffffffffffffffffffffffffffff161461217f576040517f08c379a000000000000000000000000000000000000000000000000000000000815260040161217690616385565b60405180910390fd5b5b6000600160009054906101000a900473ffffffffffffffffffffffffffffffffffffffff1673ffffffffffffffffffffffffffffffffffffffff16634ca3e9b8886040518263ffffffff1660e01b81526004016121dd9190616465565b60206040518083038186803b1580156121f557600080fd5b505afa158015612209573d6000803e3d6000fd5b505050506040513d601f19601f8201168201806040525081019061222d91906155a2565b905060008173ffffffffffffffffffffffffffffffffffffffff166318160ddd6040518163ffffffff1660e01b815260040160206040518083038186803b15801561227757600080fd5b505afa15801561228b573d6000803e3d6000fd5b505050506040513d601f19601f820116820180604052508101906122af9190615710565b9050600060028111156122eb577f4e487b7100000000000000000000000000000000000000000000000000000000600052602160045260246000fd5b600c60008a815260200190815260200160002060009054906101000a900460ff166002811115612344577f4e487b7100000000000000000000000000000000000000000000000000000000600052602160045260246000fd5b1415612385576040517f08c379a000000000000000000000000000000000000000000000000000000000815260040161237c906163a5565b60405180910390fd5b6000600e60008a815260200190815260200160002060008860ff16815260200190815260200160002060009054906101000a900473ffffffffffffffffffffffffffffffffffffffff1690508273ffffffffffffffffffffffffffffffffffffffff1663284855866040518163ffffffff1660e01b815260040160206040518083038186803b15801561241757600080fd5b505afa15801561242b573d6000803e3d6000fd5b505050506040513d601f19601f8201168201806040525081019061244f9190615710565b60018361245c91906164c2565b1061249c576040517f08c379a000000000000000000000000000000000000000000000000000000000815260040161249390616205565b60405180910390fd5b3373ffffffffffffffffffffffffffffffffffffffff168173ffffffffffffffffffffffffffffffffffffffff16636352211e886040518263ffffffff1660e01b81526004016124ec9190616465565b60206040518083038186803b15801561250457600080fd5b505afa158015612518573d6000803e3d6000fd5b505050506040513d601f19601f8201168201806040525081019061253c91906155a2565b73ffffffffffffffffffffffffffffffffffffffff1614612592576040517f08c379a000000000000000000000000000000000000000000000000000000000815260040161258990616225565b60405180910390fd5b60106000600e60008c815260200190815260200160002060008a60ff16815260200190815260200160002060009054906101000a900473ffffffffffffffffffffffffffffffffffffffff1673ffffffffffffffffffffffffffffffffffffffff1673ffffffffffffffffffffffffffffffffffffffff168152602001908152602001600020600087815260200190815260200160002060009054906101000a900460ff1615612677576040517f08c379a000000000000000000000000000000000000000000000000000000000815260040161266e90616265565b60405180910390fd5b600160106000600e60008d815260200190815260200160002060008b60ff16815260200190815260200160002060009054906101000a900473ffffffffffffffffffffffffffffffffffffffff1673ffffffffffffffffffffffffffffffffffffffff1673ffffffffffffffffffffffffffffffffffffffff168152602001908152602001600020600088815260200190815260200160002060006101000a81548160ff02191690831515021790555060008373ffffffffffffffffffffffffffffffffffffffff16636a6278428a6040518263ffffffff1660e01b8152600401612762919061604e565b602060405180830381600087803b15801561277c57600080fd5b505af1158015612790573d6000803e3d6000fd5b505050506040513d601f19601f820116820180604052508101906127b49190615710565b905060008860ff161415612851578373ffffffffffffffffffffffffffffffffffffffff1663d9a7c61d8a896040518363ffffffff1660e01b81526004016127fd9291906160c9565b602060405180830381600087803b15801561281757600080fd5b505af115801561282b573d6000803e3d6000fd5b505050506040513d601f19601f8201168201806040525081019061284f9190615710565b505b61285c8a60016132d7565b8060405160200161286d9190616033565b60405160208183030381529060405295505050505050949350505050565b6000801b81565b600d6020528160005260406000206020528060005260406000206000915091509054906101000a900460ff1681565b60086020528060005260406000206000915054906101000a900460ff1681565b60046020528060005260406000206000915090505481565b60036020528060005260406000206000915090505481565b856002600082815260200190815260200160002060009054906101000a900473ffffffffffffffffffffffffffffffffffffffff1673ffffffffffffffffffffffffffffffffffffffff163373ffffffffffffffffffffffffffffffffffffffff16146129b3576040517f08c379a00000000000000000000000000000000000000000000000000000000081526004016129aa90616365565b60405180910390fd5b866008600082815260200190815260200160002060009054906101000a900460ff1615612a15576040517f08c379a0000000000000000000000000000000000000000000000000000000008152600401612a0c90616305565b60405180910390fd5b60008787905011612a5b576040517f08c379a0000000000000000000000000000000000000000000000000000000008152600401612a5290616425565b60405180910390fd5b612ade87878080601f016020809104026020016040519081016040528093929190818152602001838380828437600081840152601f19601f820116905080830192505050505050506040518060400160405280600381526020017f4554480000000000000000000000000000000000000000000000000000000000815250613727565b612b5357600073ffffffffffffffffffffffffffffffffffffffff168573ffffffffffffffffffffffffffffffffffffffff161415612b52576040517f08c379a0000000000000000000000000000000000000000000000000000000008152600401612b49906162c5565b60405180910390fd5b5b8686600660008b81526020019081526020016000209190612b759291906152d5565b5084600560008a815260200190815260200160002060006101000a81548173ffffffffffffffffffffffffffffffffffffffff021916908373ffffffffffffffffffffffffffffffffffffffff16021790555083600460008a81526020019081526020016000208190555082600360008a8152602001908152602001600020819055505050505050505050565b6000801b612c1781612c12613682565b61368a565b8160ff166007600085815260200190815260200160002081905550505050565b816002600082815260200190815260200160002060009054906101000a900473ffffffffffffffffffffffffffffffffffffffff1673ffffffffffffffffffffffffffffffffffffffff163373ffffffffffffffffffffffffffffffffffffffff1614612cd9576040517f08c379a0000000000000000000000000000000000000000000000000000000008152600401612cd090616365565b60405180910390fd5b826008600082815260200190815260200160002060009054906101000a900460ff16612d3a576040517f08c379a0000000000000000000000000000000000000000000000000000000008152600401612d31906163c5565b60405180910390fd5b82600c600086815260200190815260200160002060006101000a81548160ff02191690836002811115612d96577f4e487b7100000000000000000000000000000000000000000000000000000000600052602160045260246000fd5b021790555050505050565b806002600082815260200190815260200160002060009054906101000a900473ffffffffffffffffffffffffffffffffffffffff1673ffffffffffffffffffffffffffffffffffffffff163373ffffffffffffffffffffffffffffffffffffffff1614612e43576040517f08c379a0000000000000000000000000000000000000000000000000000000008152600401612e3a90616365565b60405180910390fd5b816008600082815260200190815260200160002060009054906101000a900460ff1615612ea5576040517f08c379a0000000000000000000000000000000000000000000000000000000008152600401612e9c90616305565b60405180910390fd5b6040518060400160405280600381526020017f4554480000000000000000000000000000000000000000000000000000000000815250600660008581526020019081526020016000209080519060200190612f0192919061535b565b5060006005600085815260200190815260200160002060006101000a81548173ffffffffffffffffffffffffffffffffffffffff021916908373ffffffffffffffffffffffffffffffffffffffff160217905550505050565b612f6382611777565b612f7481612f6f613682565b61368a565b612f7e838361422c565b505050565b6060612f90833384613860565b905092915050565b816002600082815260200190815260200160002060009054906101000a900473ffffffffffffffffffffffffffffffffffffffff1673ffffffffffffffffffffffffffffffffffffffff163373ffffffffffffffffffffffffffffffffffffffff161461303a576040517f08c379a000000000000000000000000000000000000000000000000000000000815260040161303190616365565b60405180910390fd5b826008600082815260200190815260200160002060009054906101000a900460ff161561309c576040517f08c379a000000000000000000000000000000000000000000000000000000000815260040161309390616305565b60405180910390fd5b82600360008681526020019081526020016000208190555050505050565b60106020528160005260406000206020528060005260406000206000915091509054906101000a900460ff1681565b600e6020528160005260406000206020528060005260406000206000915091509054906101000a900473ffffffffffffffffffffffffffffffffffffffff1681565b816002600082815260200190815260200160002060009054906101000a900473ffffffffffffffffffffffffffffffffffffffff1673ffffffffffffffffffffffffffffffffffffffff163373ffffffffffffffffffffffffffffffffffffffff16146131cd576040517f08c379a00000000000000000000000000000000000000000000000000000000081526004016131c490616365565b60405180910390fd5b826008600082815260200190815260200160002060009054906101000a900460ff161561322f576040517f08c379a000000000000000000000000000000000000000000000000000000000815260040161322690616305565b60405180910390fd5b82600460008681526020019081526020016000208190555050505050565b60096020528060005260406000206000915054906101000a900460ff1681565b60007f01ffc9a7000000000000000000000000000000000000000000000000000000007bffffffffffffffffffffffffffffffffffffffffffffffffffffffff1916827bffffffffffffffffffffffffffffffffffffffffffffffffffffffff1916149050919050565b60006132ff82600460008681526020019081526020016000205461430d90919063ffffffff16565b90506133db60066000858152602001908152602001600020805461332290616760565b80601f016020809104026020016040519081016040528092919081815260200182805461334e90616760565b801561339b5780601f106133705761010080835404028352916020019161339b565b820191906000526020600020905b81548152906001019060200180831161337e57829003601f168201915b50505050506040518060400160405280600381526020017f4554480000000000000000000000000000000000000000000000000000000000815250613727565b61362f5760003414613422576040517f08c379a000000000000000000000000000000000000000000000000000000000815260040161341990616325565b60405180910390fd5b806005600085815260200190815260200160002060009054906101000a900473ffffffffffffffffffffffffffffffffffffffff1673ffffffffffffffffffffffffffffffffffffffff1663dd62ed3e33306040518363ffffffff1660e01b8152600401613491929190616069565b60206040518083038186803b1580156134a957600080fd5b505afa1580156134bd573d6000803e3d6000fd5b505050506040513d601f19601f820116820180604052508101906134e19190615710565b1015613522576040517f08c379a0000000000000000000000000000000000000000000000000000000008152600401613519906162e5565b60405180910390fd5b806005600085815260200190815260200160002060009054906101000a900473ffffffffffffffffffffffffffffffffffffffff1673ffffffffffffffffffffffffffffffffffffffff166370a08231336040518263ffffffff1660e01b815260040161358f919061604e565b60206040518083038186803b1580156135a757600080fd5b505afa1580156135bb573d6000803e3d6000fd5b505050506040513d601f19601f820116820180604052508101906135df9190615710565b1015613620576040517f08c379a0000000000000000000000000000000000000000000000000000000008152600401613617906162a5565b60405180910390fd5b61362a8383614323565b61367d565b80341015613672576040517f08c379a0000000000000000000000000000000000000000000000000000000008152600401613669906161c5565b60405180910390fd5b61367c8383614a29565b5b505050565b600033905090565b613694828261201e565b613723576136b98173ffffffffffffffffffffffffffffffffffffffff166014614faf565b6136c78360001c6020614faf565b6040516020016136d8929190615ff9565b6040516020818303038152906040526040517f08c379a000000000000000000000000000000000000000000000000000000000815260040161371a9190616143565b60405180910390fd5b5050565b60008160405160200161373a9190615faf565b60405160208183030381529060405280519060200120836040516020016137619190615faf565b6040516020818303038152906040528051906020012014905092915050565b61378a828261201e565b61385c57600160008084815260200190815260200160002060000160008373ffffffffffffffffffffffffffffffffffffffff1673ffffffffffffffffffffffffffffffffffffffff16815260200190815260200160002060006101000a81548160ff021916908315150217905550613801613682565b73ffffffffffffffffffffffffffffffffffffffff168173ffffffffffffffffffffffffffffffffffffffff16837f2f8788117e7eff1d82e926ec794901d17c78024a50270940304540a733656f0d60405160405180910390a45b5050565b6060836008600082815260200190815260200160002060009054906101000a900460ff166138c3576040517f08c379a00000000000000000000000000000000000000000000000000000000081526004016138ba906163c5565b60405180910390fd5b6009600086815260200190815260200160002060009054906101000a900460ff1615613958573273ffffffffffffffffffffffffffffffffffffffff163373ffffffffffffffffffffffffffffffffffffffff1614613957576040517f08c379a000000000000000000000000000000000000000000000000000000000815260040161394e90616385565b60405180910390fd5b5b6000600160009054906101000a900473ffffffffffffffffffffffffffffffffffffffff1673ffffffffffffffffffffffffffffffffffffffff16634ca3e9b8876040518263ffffffff1660e01b81526004016139b59190616465565b60206040518083038186803b1580156139cd57600080fd5b505afa1580156139e1573d6000803e3d6000fd5b505050506040513d601f19601f82011682018060405250810190613a0591906155a2565b905060008173ffffffffffffffffffffffffffffffffffffffff166318160ddd6040518163ffffffff1660e01b815260040160206040518083038186803b158015613a4f57600080fd5b505afa158015613a63573d6000803e3d6000fd5b505050506040513d601f19601f82011682018060405250810190613a879190615710565b90508173ffffffffffffffffffffffffffffffffffffffff1663284855866040518163ffffffff1660e01b815260040160206040518083038186803b158015613acf57600080fd5b505afa158015613ae3573d6000803e3d6000fd5b505050506040513d601f19601f82011682018060405250810190613b079190615710565b8582613b1391906164c2565b10613b53576040517f08c379a0000000000000000000000000000000000000000000000000000000008152600401613b4a90616205565b60405180910390fd5b60006002811115613b8d577f4e487b7100000000000000000000000000000000000000000000000000000000600052602160045260246000fd5b600c600089815260200190815260200160002060009054906101000a900460ff166002811115613be6577f4e487b7100000000000000000000000000000000000000000000000000000000600052602160045260246000fd5b1415613d12576002600088815260200190815260200160002060009054906101000a900473ffffffffffffffffffffffffffffffffffffffff1673ffffffffffffffffffffffffffffffffffffffff163373ffffffffffffffffffffffffffffffffffffffff1614613c8d576040517f08c379a0000000000000000000000000000000000000000000000000000000008152600401613c8490616185565b60405180910390fd5b6003600088815260200190815260200160002054851115613ce3576040517f08c379a0000000000000000000000000000000000000000000000000000000008152600401613cda90616405565b60405180910390fd5b84600360008981526020019081526020016000206000828254613d0691906165a3565b92505081905550614118565b60016002811115613d4c577f4e487b7100000000000000000000000000000000000000000000000000000000600052602160045260246000fd5b600c600089815260200190815260200160002060009054906101000a900460ff166002811115613da5577f4e487b7100000000000000000000000000000000000000000000000000000000600052602160045260246000fd5b1415613ed757600d600088815260200190815260200160002060003373ffffffffffffffffffffffffffffffffffffffff1673ffffffffffffffffffffffffffffffffffffffff16815260200190815260200160002060009054906101000a900460ff1660ff16851115613e4e576040517f08c379a0000000000000000000000000000000000000000000000000000000008152600401613e4590616285565b60405180910390fd5b84600d600089815260200190815260200160002060003373ffffffffffffffffffffffffffffffffffffffff1673ffffffffffffffffffffffffffffffffffffffff16815260200190815260200160002060008282829054906101000a900460ff16613eba91906165d7565b92506101000a81548160ff021916908360ff160217905550613fe4565b600280811115613f10577f4e487b7100000000000000000000000000000000000000000000000000000000600052602160045260246000fd5b600c600089815260200190815260200160002060009054906101000a900460ff166002811115613f69577f4e487b7100000000000000000000000000000000000000000000000000000000600052602160045260246000fd5b1415613fe357600060076000898152602001908152602001600020541115613fe2576007600088815260200190815260200160002054851115613fe1576040517f08c379a0000000000000000000000000000000000000000000000000000000008152600401613fd8906161a5565b60405180910390fd5b5b5b5b6000600b600089815260200190815260200160002054111561410d57600b600088815260200190815260200160002054600a60003373ffffffffffffffffffffffffffffffffffffffff1673ffffffffffffffffffffffffffffffffffffffff168152602001908152602001600020600089815260200190815260200160002054106140a5576040517f08c379a000000000000000000000000000000000000000000000000000000000815260040161409c906161e5565b60405180910390fd5b84600a60003373ffffffffffffffffffffffffffffffffffffffff1673ffffffffffffffffffffffffffffffffffffffff1681526020019081526020016000206000898152602001908152602001600020600082825461410591906164c2565b925050819055505b61411787866132d7565b5b606060005b8681101561421d5760008473ffffffffffffffffffffffffffffffffffffffff16636a6278428a6040518263ffffffff1660e01b8152600401614160919061604e565b602060405180830381600087803b15801561417a57600080fd5b505af115801561418e573d6000803e3d6000fd5b505050506040513d601f19601f820116820180604052508101906141b29190615710565b905060008214156141e457806040516020016141ce9190616033565b6040516020818303038152906040529250614209565b82816040516020016141f7929190615fc6565b60405160208183030381529060405292505b50808061421590616792565b91505061411d565b50809450505050509392505050565b614236828261201e565b1561430957600080600084815260200190815260200160002060000160008373ffffffffffffffffffffffffffffffffffffffff1673ffffffffffffffffffffffffffffffffffffffff16815260200190815260200160002060006101000a81548160ff0219169083151502179055506142ae613682565b73ffffffffffffffffffffffffffffffffffffffff168173ffffffffffffffffffffffffffffffffffffffff16837ff6391f5c32d9c69d2a47ea670b442974b53935d1edc7fd64eb21e047a839171b60405160405180910390a45b5050565b6000818361431b9190616549565b905092915050565b6000600460008481526020019081526020016000205490506000614350838361430d90919063ffffffff16565b9050600061441c61271061440e600160009054906101000a900473ffffffffffffffffffffffffffffffffffffffff1673ffffffffffffffffffffffffffffffffffffffff16631f7418976040518163ffffffff1660e01b8152600401602060405180830381600087803b1580156143c757600080fd5b505af11580156143db573d6000803e3d6000fd5b505050506040513d601f19601f820116820180604052508101906143ff9190615710565b8561430d90919063ffffffff16565b6152a990919063ffffffff16565b9050600081111561458c576005600086815260200190815260200160002060009054906101000a900473ffffffffffffffffffffffffffffffffffffffff1673ffffffffffffffffffffffffffffffffffffffff166323b872dd33600160009054906101000a900473ffffffffffffffffffffffffffffffffffffffff1673ffffffffffffffffffffffffffffffffffffffff16637dafc0d36040518163ffffffff1660e01b8152600401602060405180830381600087803b1580156144e157600080fd5b505af11580156144f5573d6000803e3d6000fd5b505050506040513d601f19601f8201168201806040525081019061451991906155cb565b846040518463ffffffff1660e01b815260040161453893929190616092565b602060405180830381600087803b15801561455257600080fd5b505af1158015614566573d6000803e3d6000fd5b505050506040513d601f19601f8201168201806040525081019061458a9190615630565b505b6000600160009054906101000a900473ffffffffffffffffffffffffffffffffffffffff1673ffffffffffffffffffffffffffffffffffffffff16634ca3e9b8876040518263ffffffff1660e01b81526004016145e99190616465565b60206040518083038186803b15801561460157600080fd5b505afa158015614615573d6000803e3d6000fd5b505050506040513d601f19601f8201168201806040525081019061463991906155a2565b90508073ffffffffffffffffffffffffffffffffffffffff16638cbe8d806040518163ffffffff1660e01b815260040160206040518083038186803b15801561468157600080fd5b505afa158015614695573d6000803e3d6000fd5b505050506040513d601f19601f820116820180604052508101906146b991906155cb565b5060006147606127106147528473ffffffffffffffffffffffffffffffffffffffff16632cc889746040518163ffffffff1660e01b815260040160206040518083038186803b15801561470b57600080fd5b505afa15801561471f573d6000803e3d6000fd5b505050506040513d601f19601f820116820180604052508101906147439190615710565b8761430d90919063ffffffff16565b6152a990919063ffffffff16565b905060008111156148ac576005600088815260200190815260200160002060009054906101000a900473ffffffffffffffffffffffffffffffffffffffff1673ffffffffffffffffffffffffffffffffffffffff166323b872dd338473ffffffffffffffffffffffffffffffffffffffff16636ff314c76040518163ffffffff1660e01b815260040160206040518083038186803b15801561480157600080fd5b505afa158015614815573d6000803e3d6000fd5b505050506040513d601f19601f8201168201806040525081019061483991906155cb565b846040518463ffffffff1660e01b815260040161485893929190616092565b602060405180830381600087803b15801561487257600080fd5b505af1158015614886573d6000803e3d6000fd5b505050506040513d601f19601f820116820180604052508101906148aa9190615630565b505b60006148d3826148c586886152bf90919063ffffffff16565b6152bf90919063ffffffff16565b90506000811115614a1f576005600089815260200190815260200160002060009054906101000a900473ffffffffffffffffffffffffffffffffffffffff1673ffffffffffffffffffffffffffffffffffffffff166323b872dd338573ffffffffffffffffffffffffffffffffffffffff16638cbe8d806040518163ffffffff1660e01b815260040160206040518083038186803b15801561497457600080fd5b505afa158015614988573d6000803e3d6000fd5b505050506040513d601f19601f820116820180604052508101906149ac91906155cb565b846040518463ffffffff1660e01b81526004016149cb93929190616092565b602060405180830381600087803b1580156149e557600080fd5b505af11580156149f9573d6000803e3d6000fd5b505050506040513d601f19601f82011682018060405250810190614a1d9190615630565b505b5050505050505050565b6000341115614fab576000600460008481526020019081526020016000205490506000614a5f838361430d90919063ffffffff16565b90506000614a7682346152bf90919063ffffffff16565b90506000811115614ac9573373ffffffffffffffffffffffffffffffffffffffff166108fc829081150290604051600060405180830381858888f19350505050158015614ac7573d6000803e3d6000fd5b505b6000614b93612710614b85600160009054906101000a900473ffffffffffffffffffffffffffffffffffffffff1673ffffffffffffffffffffffffffffffffffffffff16631f7418976040518163ffffffff1660e01b8152600401602060405180830381600087803b158015614b3e57600080fd5b505af1158015614b52573d6000803e3d6000fd5b505050506040513d601f19601f82011682018060405250810190614b769190615710565b8661430d90919063ffffffff16565b6152a990919063ffffffff16565b90506000811115614c8757600160009054906101000a900473ffffffffffffffffffffffffffffffffffffffff1673ffffffffffffffffffffffffffffffffffffffff16637dafc0d36040518163ffffffff1660e01b8152600401602060405180830381600087803b158015614c0857600080fd5b505af1158015614c1c573d6000803e3d6000fd5b505050506040513d601f19601f82011682018060405250810190614c4091906155cb565b73ffffffffffffffffffffffffffffffffffffffff166108fc829081150290604051600060405180830381858888f19350505050158015614c85573d6000803e3d6000fd5b505b6000600160009054906101000a900473ffffffffffffffffffffffffffffffffffffffff1673ffffffffffffffffffffffffffffffffffffffff16634ca3e9b8886040518263ffffffff1660e01b8152600401614ce49190616465565b60206040518083038186803b158015614cfc57600080fd5b505afa158015614d10573d6000803e3d6000fd5b505050506040513d601f19601f82011682018060405250810190614d3491906155a2565b90506000614ddc612710614dce8473ffffffffffffffffffffffffffffffffffffffff16632cc889746040518163ffffffff1660e01b815260040160206040518083038186803b158015614d8757600080fd5b505afa158015614d9b573d6000803e3d6000fd5b505050506040513d601f19601f82011682018060405250810190614dbf9190615710565b8861430d90919063ffffffff16565b6152a990919063ffffffff16565b90506000811115614eac578173ffffffffffffffffffffffffffffffffffffffff16636ff314c76040518163ffffffff1660e01b815260040160206040518083038186803b158015614e2d57600080fd5b505afa158015614e41573d6000803e3d6000fd5b505050506040513d601f19601f82011682018060405250810190614e6591906155cb565b73ffffffffffffffffffffffffffffffffffffffff166108fc829081150290604051600060405180830381858888f19350505050158015614eaa573d6000803e3d6000fd5b505b6000614ed382614ec586896152bf90919063ffffffff16565b6152bf90919063ffffffff16565b90506000811115614fa3578273ffffffffffffffffffffffffffffffffffffffff16638cbe8d806040518163ffffffff1660e01b815260040160206040518083038186803b158015614f2457600080fd5b505afa158015614f38573d6000803e3d6000fd5b505050506040513d601f19601f82011682018060405250810190614f5c91906155cb565b73ffffffffffffffffffffffffffffffffffffffff166108fc829081150290604051600060405180830381858888f19350505050158015614fa1573d6000803e3d6000fd5b505b505050505050505b5050565b606060006002836002614fc29190616549565b614fcc91906164c2565b67ffffffffffffffff81111561500b577f4e487b7100000000000000000000000000000000000000000000000000000000600052604160045260246000fd5b6040519080825280601f01601f19166020018201604052801561503d5781602001600182028036833780820191505090505b5090507f30000000000000000000000000000000000000000000000000000000000000008160008151811061509b577f4e487b7100000000000000000000000000000000000000000000000000000000600052603260045260246000fd5b60200101907effffffffffffffffffffffffffffffffffffffffffffffffffffffffffffff1916908160001a9053507f780000000000000000000000000000000000000000000000000000000000000081600181518110615125577f4e487b7100000000000000000000000000000000000000000000000000000000600052603260045260246000fd5b60200101907effffffffffffffffffffffffffffffffffffffffffffffffffffffffffffff1916908160001a905350600060018460026151659190616549565b61516f91906164c2565b90505b600181111561525b577f3031323334353637383961626364656600000000000000000000000000000000600f8616601081106151d7577f4e487b7100000000000000000000000000000000000000000000000000000000600052603260045260246000fd5b1a60f81b828281518110615214577f4e487b7100000000000000000000000000000000000000000000000000000000600052603260045260246000fd5b60200101907effffffffffffffffffffffffffffffffffffffffffffffffffffffffffffff1916908160001a905350600485901c94508061525490616736565b9050615172565b506000841461529f576040517f08c379a000000000000000000000000000000000000000000000000000000000815260040161529690616165565b60405180910390fd5b8091505092915050565b600081836152b79190616518565b905092915050565b600081836152cd91906165a3565b905092915050565b8280546152e190616760565b90600052602060002090601f016020900481019282615303576000855561534a565b82601f1061531c57803560ff191683800117855561534a565b8280016001018555821561534a579182015b8281111561534957823582559160200191906001019061532e565b5b50905061535791906153e1565b5090565b82805461536790616760565b90600052602060002090601f01602090048101928261538957600085556153d0565b82601f106153a257805160ff19168380011785556153d0565b828001600101855582156153d0579182015b828111156153cf5782518255916020019190600101906153b4565b5b5090506153dd91906153e1565b5090565b5b808211156153fa5760008160009055506001016153e2565b5090565b60008135905061540d81616d8b565b92915050565b60008151905061542281616d8b565b92915050565b60008151905061543781616da2565b92915050565b60008083601f84011261544f57600080fd5b8235905067ffffffffffffffff81111561546857600080fd5b60208301915083602082028301111561548057600080fd5b9250929050565b60008135905061549681616db9565b92915050565b6000815190506154ab81616db9565b92915050565b6000813590506154c081616dd0565b92915050565b6000813590506154d581616de7565b92915050565b6000813590506154ea81616dfe565b92915050565b60008083601f84011261550257600080fd5b8235905067ffffffffffffffff81111561551b57600080fd5b60208301915083600182028301111561553357600080fd5b9250929050565b60008135905061554981616e0e565b92915050565b60008151905061555e81616e0e565b92915050565b60008135905061557381616e25565b92915050565b60006020828403121561558b57600080fd5b6000615599848285016153fe565b91505092915050565b6000602082840312156155b457600080fd5b60006155c284828501615413565b91505092915050565b6000602082840312156155dd57600080fd5b60006155eb84828501615428565b91505092915050565b6000806040838503121561560757600080fd5b6000615615858286016153fe565b92505060206156268582860161553a565b9150509250929050565b60006020828403121561564257600080fd5b60006156508482850161549c565b91505092915050565b60006020828403121561566b57600080fd5b6000615679848285016154b1565b91505092915050565b6000806040838503121561569557600080fd5b60006156a3858286016154b1565b92505060206156b4858286016153fe565b9150509250929050565b6000602082840312156156d057600080fd5b60006156de848285016154c6565b91505092915050565b6000602082840312156156f957600080fd5b60006157078482850161553a565b91505092915050565b60006020828403121561572257600080fd5b60006157308482850161554f565b91505092915050565b6000806040838503121561574c57600080fd5b600061575a8582860161553a565b925050602061576b858286016153fe565b9150509250929050565b600080600080600060a0868803121561578d57600080fd5b600061579b8882890161553a565b95505060206157ac888289016153fe565b94505060406157bd88828901615487565b93505060606157ce8882890161553a565b92505060806157df8882890161553a565b9150509295509295909350565b60008060006060848603121561580157600080fd5b600061580f8682870161553a565b9350506020615820868287016153fe565b92505060406158318682870161553a565b9150509250925092565b6000806000806080858703121561585157600080fd5b600061585f8782880161553a565b9450506020615870878288016153fe565b935050604061588187828801615564565b92505060606158928782880161553a565b91505092959194509250565b6000806000604084860312156158b357600080fd5b60006158c18682870161553a565b935050602084013567ffffffffffffffff8111156158de57600080fd5b6158ea8682870161543d565b92509250509250925092565b6000806000806060858703121561590c57600080fd5b600061591a8782880161553a565b945050602085013567ffffffffffffffff81111561593757600080fd5b6159438782880161543d565b9350935050604061595687828801615564565b91505092959194509250565b6000806040838503121561597557600080fd5b60006159838582860161553a565b9250506020615994858286016154db565b9150509250929050565b600080600080606085870312156159b457600080fd5b60006159c28782880161553a565b945050602085013567ffffffffffffffff8111156159df57600080fd5b6159eb878288016154f0565b935093505060406159fe878288016153fe565b91505092959194509250565b60008060008060008060a08789031215615a2357600080fd5b6000615a3189828a0161553a565b965050602087013567ffffffffffffffff811115615a4e57600080fd5b615a5a89828a016154f0565b95509550506040615a6d89828a016153fe565b9350506060615a7e89828a0161553a565b9250506080615a8f89828a0161553a565b9150509295509295509295565b60008060408385031215615aaf57600080fd5b6000615abd8582860161553a565b9250506020615ace8582860161553a565b9150509250929050565b60008060408385031215615aeb57600080fd5b6000615af98582860161553a565b9250506020615b0a85828601615564565b9150509250929050565b615b1d816166bb565b82525050565b615b2c8161660b565b82525050565b615b3b8161662f565b82525050565b615b4a8161663b565b82525050565b615b59816166cd565b82525050565b6000615b6a8261649b565b615b7481856164a6565b9350615b84818560208601616703565b615b8d816168a1565b840191505092915050565b6000615ba38261649b565b615bad81856164b7565b9350615bbd818560208601616703565b80840191505092915050565b6000615bd66020836164a6565b9150615be1826168b2565b602082019050919050565b6000615bf96017836164a6565b9150615c04826168db565b602082019050919050565b6000615c1c601d836164a6565b9150615c2782616904565b602082019050919050565b6000615c3f6020836164a6565b9150615c4a8261692d565b602082019050919050565b6000615c626015836164a6565b9150615c6d82616956565b602082019050919050565b6000615c856017836164a6565b9150615c908261697f565b602082019050919050565b6000615ca86001836164b7565b9150615cb3826169a8565b600182019050919050565b6000615ccb6020836164a6565b9150615cd6826169d1565b602082019050919050565b6000615cee601a836164a6565b9150615cf9826169fa565b602082019050919050565b6000615d116017836164a6565b9150615d1c82616a23565b602082019050919050565b6000615d346019836164a6565b9150615d3f82616a4c565b602082019050919050565b6000615d576015836164a6565b9150615d6282616a75565b602082019050919050565b6000615d7a601c836164a6565b9150615d8582616a9e565b602082019050919050565b6000615d9d6022836164a6565b9150615da882616ac7565b604082019050919050565b6000615dc06014836164a6565b9150615dcb82616b16565b602082019050919050565b6000615de3603f836164a6565b9150615dee82616b3f565b604082019050919050565b6000615e06601b836164a6565b9150615e1182616b8e565b602082019050919050565b6000615e29600a836164a6565b9150615e3482616bb7565b602082019050919050565b6000615e4c6010836164a6565b9150615e5782616be0565b602082019050919050565b6000615e6f601c836164a6565b9150615e7a82616c09565b602082019050919050565b6000615e926014836164a6565b9150615e9d82616c32565b602082019050919050565b6000615eb56013836164a6565b9150615ec082616c5b565b602082019050919050565b6000615ed86015836164a6565b9150615ee382616c84565b602082019050919050565b6000615efb6017836164b7565b9150615f0682616cad565b601782019050919050565b6000615f1e6017836164a6565b9150615f2982616cd6565b602082019050919050565b6000615f416011836164b7565b9150615f4c82616cff565b601182019050919050565b6000615f64602f836164a6565b9150615f6f82616d28565b604082019050919050565b615f83816166a4565b82525050565b615f9a615f95826166a4565b6167db565b82525050565b615fa9816166ae565b82525050565b6000615fbb8284615b98565b915081905092915050565b6000615fd28285615b98565b9150615fdd82615c9b565b9150615fe98284615f89565b6020820191508190509392505050565b600061600482615eee565b91506160108285615b98565b915061601b82615f34565b91506160278284615b98565b91508190509392505050565b600061603f8284615f89565b60208201915081905092915050565b60006020820190506160636000830184615b23565b92915050565b600060408201905061607e6000830185615b23565b61608b6020830184615b23565b9392505050565b60006060820190506160a76000830186615b23565b6160b46020830185615b14565b6160c16040830184615f7a565b949350505050565b60006040820190506160de6000830185615b23565b6160eb6020830184615f7a565b9392505050565b60006020820190506161076000830184615b32565b92915050565b60006020820190506161226000830184615b41565b92915050565b600060208201905061613d6000830184615b50565b92915050565b6000602082019050818103600083015261615d8184615b5f565b905092915050565b6000602082019050818103600083015261617e81615bc9565b9050919050565b6000602082019050818103600083015261619e81615bec565b9050919050565b600060208201905081810360008301526161be81615c0f565b9050919050565b600060208201905081810360008301526161de81615c32565b9050919050565b600060208201905081810360008301526161fe81615c55565b9050919050565b6000602082019050818103600083015261621e81615c78565b9050919050565b6000602082019050818103600083015261623e81615cbe565b9050919050565b6000602082019050818103600083015261625e81615ce1565b9050919050565b6000602082019050818103600083015261627e81615d04565b9050919050565b6000602082019050818103600083015261629e81615d27565b9050919050565b600060208201905081810360008301526162be81615d4a565b9050919050565b600060208201905081810360008301526162de81615d6d565b9050919050565b600060208201905081810360008301526162fe81615d90565b9050919050565b6000602082019050818103600083015261631e81615db3565b9050919050565b6000602082019050818103600083015261633e81615dd6565b9050919050565b6000602082019050818103600083015261635e81615df9565b9050919050565b6000602082019050818103600083015261637e81615e1c565b9050919050565b6000602082019050818103600083015261639e81615e3f565b9050919050565b600060208201905081810360008301526163be81615e62565b9050919050565b600060208201905081810360008301526163de81615e85565b9050919050565b600060208201905081810360008301526163fe81615ea8565b9050919050565b6000602082019050818103600083015261641e81615ecb565b9050919050565b6000602082019050818103600083015261643e81615f11565b9050919050565b6000602082019050818103600083015261645e81615f57565b9050919050565b600060208201905061647a6000830184615f7a565b92915050565b60006020820190506164956000830184615fa0565b92915050565b600081519050919050565b600082825260208201905092915050565b600081905092915050565b60006164cd826166a4565b91506164d8836166a4565b9250827fffffffffffffffffffffffffffffffffffffffffffffffffffffffffffffffff0382111561650d5761650c6167e5565b5b828201905092915050565b6000616523826166a4565b915061652e836166a4565b92508261653e5761653d616814565b5b828204905092915050565b6000616554826166a4565b915061655f836166a4565b9250817fffffffffffffffffffffffffffffffffffffffffffffffffffffffffffffffff0483118215151615616598576165976167e5565b5b828202905092915050565b60006165ae826166a4565b91506165b9836166a4565b9250828210156165cc576165cb6167e5565b5b828203905092915050565b60006165e2826166ae565b91506165ed836166ae565b925082821015616600576165ff6167e5565b5b828203905092915050565b600061661682616684565b9050919050565b600061662882616684565b9050919050565b60008115159050919050565b6000819050919050565b60007fffffffff0000000000000000000000000000000000000000000000000000000082169050919050565b600081905061667f82616d77565b919050565b600073ffffffffffffffffffffffffffffffffffffffff82169050919050565b6000819050919050565b600060ff82169050919050565b60006166c6826166df565b9050919050565b60006166d882616671565b9050919050565b60006166ea826166f1565b9050919050565b60006166fc82616684565b9050919050565b60005b83811015616721578082015181840152602081019050616706565b83811115616730576000848401525b50505050565b6000616741826166a4565b91506000821415616755576167546167e5565b5b600182039050919050565b6000600282049050600182168061677857607f821691505b6020821081141561678c5761678b616872565b5b50919050565b600061679d826166a4565b91507fffffffffffffffffffffffffffffffffffffffffffffffffffffffffffffffff8214156167d0576167cf6167e5565b5b600182019050919050565b6000819050919050565b7f4e487b7100000000000000000000000000000000000000000000000000000000600052601160045260246000fd5b7f4e487b7100000000000000000000000000000000000000000000000000000000600052601260045260246000fd5b7f4e487b7100000000000000000000000000000000000000000000000000000000600052602160045260246000fd5b7f4e487b7100000000000000000000000000000000000000000000000000000000600052602260045260246000fd5b6000601f19601f8301169050919050565b7f537472696e67733a20686578206c656e67746820696e73756666696369656e74600082015250565b7f4f6e6c79206f776e65722063616e206d696e74206e6f77000000000000000000600082015250565b7f436f756e7420657863656465732062756c6b206d696e74206c696d6974000000600082015250565b7f4d7573742073656e64206d696e696d756d2076616c756520746f206d696e7421600082015250565b7f52656163686564206d696e74696e67206c696d69740000000000000000000000600082015250565b7f43616e277420657863656564206d617820746f6b656e73000000000000000000600082015250565b7f2c00000000000000000000000000000000000000000000000000000000000000600082015250565b7f4f6e6c7920746f6b656e206f776e65722063616e2072656465656d2070617373600082015250565b7f70726f6a656374206e6f7420726561647920666f72206c697665000000000000600082015250565b7f616c72656164792072656465656d656420666f72204944000000000000000000600082015250565b7f4578636565647320616c6c6f776c697374656420636f756e7400000000000000600082015250565b7f496e73756666696369656e742062616c616e63652e0000000000000000000000600082015250565b7f637572656e637920616464726573732063616e74206265207a65726f00000000600082015250565b7f496e73756666696369656e742046756e647320417070726f76656420666f722060008201527f5458000000000000000000000000000000000000000000000000000000000000602082015250565b7f43616e27742063616c6c206f6e6365206c697665000000000000000000000000600082015250565b7f746869732070726f6a6563742061636365707473206120646966666572656e7460008201527f2063757272656e637920616e642063616e6e6f74206163636570742045544800602082015250565b7f6f776e65722063616e2774206265207a65726f20616464726573730000000000600082015250565b7f6f6e6c79206f776e657200000000000000000000000000000000000000000000600082015250565b7f4e6f20436f6e7472616374204275797300000000000000000000000000000000600082015250565b7f4d7573742072656465656d206166746572206f776e6572206d696e7400000000600082015250565b7f50726f6a656374206e6f7420796574206c697665000000000000000000000000600082015250565b7f63616e27742062652073616d65206f776e657200000000000000000000000000600082015250565b7f4578636564656473206d6178207072656d696e74730000000000000000000000600082015250565b7f416363657373436f6e74726f6c3a206163636f756e7420000000000000000000600082015250565b7f53796d626f6c206d7573742062652070726f7669646564000000000000000000600082015250565b7f206973206d697373696e6720726f6c6520000000000000000000000000000000600082015250565b7f416363657373436f6e74726f6c3a2063616e206f6e6c792072656e6f756e636560008201527f20726f6c657320666f722073656c660000000000000000000000000000000000602082015250565b60038110616d8857616d87616843565b5b50565b616d948161660b565b8114616d9f57600080fd5b50565b616dab8161661d565b8114616db657600080fd5b50565b616dc28161662f565b8114616dcd57600080fd5b50565b616dd98161663b565b8114616de457600080fd5b50565b616df081616645565b8114616dfb57600080fd5b50565b60038110616e0b57600080fd5b50565b616e17816166a4565b8114616e2257600080fd5b50565b616e2e816166ae565b8114616e3957600080fd5b5056fea2646970667358221220502553396008530763b3eaebf06958fbcfc00538855ec08c1edd5a70279af5e064736f6c63430008020033",
  "linkReferences": {},
  "deployedLinkReferences": {}
}