{
  "_format": "hh-sol-artifact-1",
  "contractName": "GateTest",
  "sourceName": "contracts/GateTest.sol",
  "abi": [
    {
      "inputs": [],
      "stateMutability": "nonpayable",
      "type": "constructor"
    },
    {
      "anonymous": false,
      "inputs": [
        {
          "indexed": true,
          "internalType": "address",
          "name": "owner",
          "type": "address"
        },
        {
          "indexed": true,
          "internalType": "address",
          "name": "approved",
          "type": "address"
        },
        {
          "indexed": true,
          "internalType": "uint256",
          "name": "tokenId",
          "type": "uint256"
        }
      ],
      "name": "Approval",
      "type": "event"
    },
    {
      "anonymous": false,
      "inputs": [
        {
          "indexed": true,
          "internalType": "address",
          "name": "owner",
          "type": "address"
        },
        {
          "indexed": true,
          "internalType": "address",
          "name": "operator",
          "type": "address"
        },
        {
          "indexed": false,
          "internalType": "bool",
          "name": "approved",
          "type": "bool"
        }
      ],
      "name": "ApprovalForAll",
      "type": "event"
    },
    {
      "anonymous": false,
      "inputs": [
        {
          "indexed": true,
          "internalType": "address",
          "name": "previousOwner",
          "type": "address"
        },
        {
          "indexed": true,
          "internalType": "address",
          "name": "newOwner",
          "type": "address"
        }
      ],
      "name": "OwnershipTransferred",
      "type": "event"
    },
    {
      "anonymous": false,
      "inputs": [
        {
          "indexed": true,
          "internalType": "address",
          "name": "from",
          "type": "address"
        },
        {
          "indexed": true,
          "internalType": "address",
          "name": "to",
          "type": "address"
        },
        {
          "indexed": true,
          "internalType": "uint256",
          "name": "tokenId",
          "type": "uint256"
        }
      ],
      "name": "Transfer",
      "type": "event"
    },
    {
      "inputs": [
        {
          "internalType": "address",
          "name": "to",
          "type": "address"
        },
        {
          "internalType": "uint256",
          "name": "tokenId",
          "type": "uint256"
        }
      ],
      "name": "approve",
      "outputs": [],
      "stateMutability": "nonpayable",
      "type": "function"
    },
    {
      "inputs": [
        {
          "internalType": "address",
          "name": "owner",
          "type": "address"
        }
      ],
      "name": "balanceOf",
      "outputs": [
        {
          "internalType": "uint256",
          "name": "",
          "type": "uint256"
        }
      ],
      "stateMutability": "view",
      "type": "function"
    },
    {
      "inputs": [
        {
          "internalType": "uint256",
          "name": "tokenId",
          "type": "uint256"
        }
      ],
      "name": "getApproved",
      "outputs": [
        {
          "internalType": "address",
          "name": "",
          "type": "address"
        }
      ],
      "stateMutability": "view",
      "type": "function"
    },
    {
      "inputs": [
        {
          "internalType": "address",
          "name": "owner",
          "type": "address"
        },
        {
          "internalType": "address",
          "name": "operator",
          "type": "address"
        }
      ],
      "name": "isApprovedForAll",
      "outputs": [
        {
          "internalType": "bool",
          "name": "",
          "type": "bool"
        }
      ],
      "stateMutability": "view",
      "type": "function"
    },
    {
      "inputs": [],
      "name": "name",
      "outputs": [
        {
          "internalType": "string",
          "name": "",
          "type": "string"
        }
      ],
      "stateMutability": "view",
      "type": "function"
    },
    {
      "inputs": [],
      "name": "owner",
      "outputs": [
        {
          "internalType": "address",
          "name": "",
          "type": "address"
        }
      ],
      "stateMutability": "view",
      "type": "function"
    },
    {
      "inputs": [
        {
          "internalType": "uint256",
          "name": "tokenId",
          "type": "uint256"
        }
      ],
      "name": "ownerOf",
      "outputs": [
        {
          "internalType": "address",
          "name": "",
          "type": "address"
        }
      ],
      "stateMutability": "view",
      "type": "function"
    },
    {
      "inputs": [],
      "name": "renounceOwnership",
      "outputs": [],
      "stateMutability": "nonpayable",
      "type": "function"
    },
    {
      "inputs": [
        {
          "internalType": "address",
          "name": "to",
          "type": "address"
        },
        {
          "internalType": "uint256",
          "name": "tokenId",
          "type": "uint256"
        }
      ],
      "name": "safeMint",
      "outputs": [],
      "stateMutability": "nonpayable",
      "type": "function"
    },
    {
      "inputs": [
        {
          "internalType": "address",
          "name": "from",
          "type": "address"
        },
        {
          "internalType": "address",
          "name": "to",
          "type": "address"
        },
        {
          "internalType": "uint256",
          "name": "tokenId",
          "type": "uint256"
        }
      ],
      "name": "safeTransferFrom",
      "outputs": [],
      "stateMutability": "nonpayable",
      "type": "function"
    },
    {
      "inputs": [
        {
          "internalType": "address",
          "name": "from",
          "type": "address"
        },
        {
          "internalType": "address",
          "name": "to",
          "type": "address"
        },
        {
          "internalType": "uint256",
          "name": "tokenId",
          "type": "uint256"
        },
        {
          "internalType": "bytes",
          "name": "_data",
          "type": "bytes"
        }
      ],
      "name": "safeTransferFrom",
      "outputs": [],
      "stateMutability": "nonpayable",
      "type": "function"
    },
    {
      "inputs": [
        {
          "internalType": "address",
          "name": "operator",
          "type": "address"
        },
        {
          "internalType": "bool",
          "name": "approved",
          "type": "bool"
        }
      ],
      "name": "setApprovalForAll",
      "outputs": [],
      "stateMutability": "nonpayable",
      "type": "function"
    },
    {
      "inputs": [
        {
          "internalType": "bytes4",
          "name": "interfaceId",
          "type": "bytes4"
        }
      ],
      "name": "supportsInterface",
      "outputs": [
        {
          "internalType": "bool",
          "name": "",
          "type": "bool"
        }
      ],
      "stateMutability": "view",
      "type": "function"
    },
    {
      "inputs": [],
      "name": "symbol",
      "outputs": [
        {
          "internalType": "string",
          "name": "",
          "type": "string"
        }
      ],
      "stateMutability": "view",
      "type": "function"
    },
    {
      "inputs": [
        {
          "internalType": "uint256",
          "name": "index",
          "type": "uint256"
        }
      ],
      "name": "tokenByIndex",
      "outputs": [
        {
          "internalType": "uint256",
          "name": "",
          "type": "uint256"
        }
      ],
      "stateMutability": "view",
      "type": "function"
    },
    {
      "inputs": [
        {
          "internalType": "address",
          "name": "owner",
          "type": "address"
        },
        {
          "internalType": "uint256",
          "name": "index",
          "type": "uint256"
        }
      ],
      "name": "tokenOfOwnerByIndex",
      "outputs": [
        {
          "internalType": "uint256",
          "name": "",
          "type": "uint256"
        }
      ],
      "stateMutability": "view",
      "type": "function"
    },
    {
      "inputs": [
        {
          "internalType": "uint256",
          "name": "tokenId",
          "type": "uint256"
        }
      ],
      "name": "tokenURI",
      "outputs": [
        {
          "internalType": "string",
          "name": "",
          "type": "string"
        }
      ],
      "stateMutability": "view",
      "type": "function"
    },
    {
      "inputs": [],
      "name": "totalSupply",
      "outputs": [
        {
          "internalType": "uint256",
          "name": "",
          "type": "uint256"
        }
      ],
      "stateMutability": "view",
      "type": "function"
    },
    {
      "inputs": [
        {
          "internalType": "address",
          "name": "from",
          "type": "address"
        },
        {
          "internalType": "address",
          "name": "to",
          "type": "address"
        },
        {
          "internalType": "uint256",
          "name": "tokenId",
          "type": "uint256"
        }
      ],
      "name": "transferFrom",
      "outputs": [],
      "stateMutability": "nonpayable",
      "type": "function"
    },
    {
      "inputs": [
        {
          "internalType": "address",
          "name": "newOwner",
          "type": "address"
        }
      ],
      "name": "transferOwnership",
      "outputs": [],
      "stateMutability": "nonpayable",
      "type": "function"
    }
  ],
  "bytecode": "0x60806040523480156200001157600080fd5b50604080518082018252600881526711d85d1955195cdd60c21b6020808301918252835180850190945260048452634741544560e01b9084015281519192916200005e91600091620000ed565b50805162000074906001906020840190620000ed565b505050620000916200008b6200009760201b60201c565b6200009b565b620001cf565b3390565b600a80546001600160a01b038381166001600160a01b0319831681179093556040519116919082907f8be0079c531659141344cd1fd0a4f28419497f9722a3daafe3b4186f6b6457e090600090a35050565b828054620000fb9062000193565b90600052602060002090601f0160209004810192826200011f57600085556200016a565b82601f106200013a57805160ff19168380011785556200016a565b828001600101855582156200016a579182015b828111156200016a5782518255916020019190600101906200014d565b50620001789291506200017c565b5090565b5b808211156200017857600081556001016200017d565b600181811c90821680620001a857607f821691505b602082108103620001c957634e487b7160e01b600052602260045260246000fd5b50919050565b611a0880620001df6000396000f3fe608060405234801561001057600080fd5b506004361061012c5760003560e01c806370a08231116100ad578063a22cb46511610071578063a22cb46514610266578063b88d4fde14610279578063c87b56dd1461028c578063e985e9c51461029f578063f2fde38b146102db57600080fd5b806370a082311461021f578063715018a6146102325780638da5cb5b1461023a57806395d89b411461024b578063a14481941461025357600080fd5b806323b872dd116100f457806323b872dd146101c05780632f745c59146101d357806342842e0e146101e65780634f6ccce7146101f95780636352211e1461020c57600080fd5b806301ffc9a71461013157806306fdde0314610159578063081812fc1461016e578063095ea7b31461019957806318160ddd146101ae575b600080fd5b61014461013f3660046114d0565b6102ee565b60405190151581526020015b60405180910390f35b6101616102ff565b6040516101509190611545565b61018161017c366004611558565b610391565b6040516001600160a01b039091168152602001610150565b6101ac6101a736600461158d565b61042b565b005b6008545b604051908152602001610150565b6101ac6101ce3660046115b7565b610540565b6101b26101e136600461158d565b610571565b6101ac6101f43660046115b7565b610607565b6101b2610207366004611558565b610622565b61018161021a366004611558565b6106b5565b6101b261022d3660046115f3565b61072c565b6101ac6107b3565b600a546001600160a01b0316610181565b6101616107e9565b6101ac61026136600461158d565b6107f8565b6101ac61027436600461160e565b610830565b6101ac610287366004611660565b61083b565b61016161029a366004611558565b610873565b6101446102ad36600461173c565b6001600160a01b03918216600090815260056020908152604080832093909416825291909152205460ff1690565b6101ac6102e93660046115f3565b61095b565b60006102f9826109f6565b92915050565b60606000805461030e9061176f565b80601f016020809104026020016040519081016040528092919081815260200182805461033a9061176f565b80156103875780601f1061035c57610100808354040283529160200191610387565b820191906000526020600020905b81548152906001019060200180831161036a57829003601f168201915b5050505050905090565b6000818152600260205260408120546001600160a01b031661040f5760405162461bcd60e51b815260206004820152602c60248201527f4552433732313a20617070726f76656420717565727920666f72206e6f6e657860448201526b34b9ba32b73a103a37b5b2b760a11b60648201526084015b60405180910390fd5b506000908152600460205260409020546001600160a01b031690565b6000610436826106b5565b9050806001600160a01b0316836001600160a01b0316036104a35760405162461bcd60e51b815260206004820152602160248201527f4552433732313a20617070726f76616c20746f2063757272656e74206f776e656044820152603960f91b6064820152608401610406565b336001600160a01b03821614806104bf57506104bf81336102ad565b6105315760405162461bcd60e51b815260206004820152603860248201527f4552433732313a20617070726f76652063616c6c6572206973206e6f74206f7760448201527f6e6572206e6f7220617070726f76656420666f7220616c6c00000000000000006064820152608401610406565b61053b8383610a1b565b505050565b61054a3382610a89565b6105665760405162461bcd60e51b8152600401610406906117a9565b61053b838383610b80565b600061057c8361072c565b82106105de5760405162461bcd60e51b815260206004820152602b60248201527f455243373231456e756d657261626c653a206f776e657220696e646578206f7560448201526a74206f6620626f756e647360a81b6064820152608401610406565b506001600160a01b03919091166000908152600660209081526040808320938352929052205490565b61053b8383836040518060200160405280600081525061083b565b600061062d60085490565b82106106905760405162461bcd60e51b815260206004820152602c60248201527f455243373231456e756d657261626c653a20676c6f62616c20696e646578206f60448201526b7574206f6620626f756e647360a01b6064820152608401610406565b600882815481106106a3576106a36117fa565b90600052602060002001549050919050565b6000818152600260205260408120546001600160a01b0316806102f95760405162461bcd60e51b815260206004820152602960248201527f4552433732313a206f776e657220717565727920666f72206e6f6e657869737460448201526832b73a103a37b5b2b760b91b6064820152608401610406565b60006001600160a01b0382166107975760405162461bcd60e51b815260206004820152602a60248201527f4552433732313a2062616c616e636520717565727920666f7220746865207a65604482015269726f206164647265737360b01b6064820152608401610406565b506001600160a01b031660009081526003602052604090205490565b600a546001600160a01b031633146107dd5760405162461bcd60e51b815260040161040690611810565b6107e76000610d27565b565b60606001805461030e9061176f565b600a546001600160a01b031633146108225760405162461bcd60e51b815260040161040690611810565b61082c8282610d79565b5050565b61082c338383610d93565b6108453383610a89565b6108615760405162461bcd60e51b8152600401610406906117a9565b61086d84848484610e61565b50505050565b6000818152600260205260409020546060906001600160a01b03166108f25760405162461bcd60e51b815260206004820152602f60248201527f4552433732314d657461646174613a2055524920717565727920666f72206e6f60448201526e3732bc34b9ba32b73a103a37b5b2b760891b6064820152608401610406565b600061090960408051602081019091526000815290565b905060008151116109295760405180602001604052806000815250610954565b8061093384610e94565b604051602001610944929190611845565b6040516020818303038152906040525b9392505050565b600a546001600160a01b031633146109855760405162461bcd60e51b815260040161040690611810565b6001600160a01b0381166109ea5760405162461bcd60e51b815260206004820152602660248201527f4f776e61626c653a206e6577206f776e657220697320746865207a65726f206160448201526564647265737360d01b6064820152608401610406565b6109f381610d27565b50565b60006001600160e01b0319821663780e9d6360e01b14806102f957506102f982610f95565b600081815260046020526040902080546001600160a01b0319166001600160a01b0384169081179091558190610a50826106b5565b6001600160a01b03167f8c5be1e5ebec7d5bd14f71427d1e84f3dd0314c0f7b2291e5b200ac8c7c3b92560405160405180910390a45050565b6000818152600260205260408120546001600160a01b0316610b025760405162461bcd60e51b815260206004820152602c60248201527f4552433732313a206f70657261746f7220717565727920666f72206e6f6e657860448201526b34b9ba32b73a103a37b5b2b760a11b6064820152608401610406565b6000610b0d836106b5565b9050806001600160a01b0316846001600160a01b03161480610b485750836001600160a01b0316610b3d84610391565b6001600160a01b0316145b80610b7857506001600160a01b0380821660009081526005602090815260408083209388168352929052205460ff165b949350505050565b826001600160a01b0316610b93826106b5565b6001600160a01b031614610bf75760405162461bcd60e51b815260206004820152602560248201527f4552433732313a207472616e736665722066726f6d20696e636f72726563742060448201526437bbb732b960d91b6064820152608401610406565b6001600160a01b038216610c595760405162461bcd60e51b8152602060048201526024808201527f4552433732313a207472616e7366657220746f20746865207a65726f206164646044820152637265737360e01b6064820152608401610406565b610c64838383610fe5565b610c6f600082610a1b565b6001600160a01b0383166000908152600360205260408120805460019290610c9890849061188a565b90915550506001600160a01b0382166000908152600360205260408120805460019290610cc69084906118a1565b909155505060008181526002602052604080822080546001600160a01b0319166001600160a01b0386811691821790925591518493918716917fddf252ad1be2c89b69c2b068fc378daa952ba7f163c4a11628f55a4df523b3ef91a4505050565b600a80546001600160a01b038381166001600160a01b0319831681179093556040519116919082907f8be0079c531659141344cd1fd0a4f28419497f9722a3daafe3b4186f6b6457e090600090a35050565b61082c828260405180602001604052806000815250610ff0565b816001600160a01b0316836001600160a01b031603610df45760405162461bcd60e51b815260206004820152601960248201527f4552433732313a20617070726f766520746f2063616c6c6572000000000000006044820152606401610406565b6001600160a01b03838116600081815260056020908152604080832094871680845294825291829020805460ff191686151590811790915591519182527f17307eab39ab6107e8899845ad3d59bd9653f200f220920489ca2b5937696c31910160405180910390a3505050565b610e6c848484610b80565b610e7884848484611023565b61086d5760405162461bcd60e51b8152600401610406906118b9565b606081600003610ebb5750506040805180820190915260018152600360fc1b602082015290565b8160005b8115610ee55780610ecf8161190b565b9150610ede9050600a8361193a565b9150610ebf565b60008167ffffffffffffffff811115610f0057610f0061164a565b6040519080825280601f01601f191660200182016040528015610f2a576020820181803683370190505b5090505b8415610b7857610f3f60018361188a565b9150610f4c600a8661194e565b610f579060306118a1565b60f81b818381518110610f6c57610f6c6117fa565b60200101906001600160f81b031916908160001a905350610f8e600a8661193a565b9450610f2e565b60006001600160e01b031982166380ac58cd60e01b1480610fc657506001600160e01b03198216635b5e139f60e01b145b806102f957506301ffc9a760e01b6001600160e01b03198316146102f9565b61053b838383611124565b610ffa83836111dc565b6110076000848484611023565b61053b5760405162461bcd60e51b8152600401610406906118b9565b60006001600160a01b0384163b1561111957604051630a85bd0160e11b81526001600160a01b0385169063150b7a0290611067903390899088908890600401611962565b6020604051808303816000875af19250505080156110a2575060408051601f3d908101601f1916820190925261109f9181019061199f565b60015b6110ff573d8080156110d0576040519150601f19603f3d011682016040523d82523d6000602084013e6110d5565b606091505b5080516000036110f75760405162461bcd60e51b8152600401610406906118b9565b805181602001fd5b6001600160e01b031916630a85bd0160e11b149050610b78565b506001949350505050565b6001600160a01b03831661117f5761117a81600880546000838152600960205260408120829055600182018355919091527ff3f7a9fe364faab93b216da50a3214154f22a0a2b415b23a84c8169e8b636ee30155565b6111a2565b816001600160a01b0316836001600160a01b0316146111a2576111a2838261132a565b6001600160a01b0382166111b95761053b816113c7565b826001600160a01b0316826001600160a01b03161461053b5761053b8282611476565b6001600160a01b0382166112325760405162461bcd60e51b815260206004820181905260248201527f4552433732313a206d696e7420746f20746865207a65726f20616464726573736044820152606401610406565b6000818152600260205260409020546001600160a01b0316156112975760405162461bcd60e51b815260206004820152601c60248201527f4552433732313a20746f6b656e20616c7265616479206d696e746564000000006044820152606401610406565b6112a360008383610fe5565b6001600160a01b03821660009081526003602052604081208054600192906112cc9084906118a1565b909155505060008181526002602052604080822080546001600160a01b0319166001600160a01b03861690811790915590518392907fddf252ad1be2c89b69c2b068fc378daa952ba7f163c4a11628f55a4df523b3ef908290a45050565b600060016113378461072c565b611341919061188a565b600083815260076020526040902054909150808214611394576001600160a01b03841660009081526006602090815260408083208584528252808320548484528184208190558352600790915290208190555b5060009182526007602090815260408084208490556001600160a01b039094168352600681528383209183525290812055565b6008546000906113d99060019061188a565b60008381526009602052604081205460088054939450909284908110611401576114016117fa565b906000526020600020015490508060088381548110611422576114226117fa565b600091825260208083209091019290925582815260099091526040808220849055858252812055600880548061145a5761145a6119bc565b6001900381819060005260206000200160009055905550505050565b60006114818361072c565b6001600160a01b039093166000908152600660209081526040808320868452825280832085905593825260079052919091209190915550565b6001600160e01b0319811681146109f357600080fd5b6000602082840312156114e257600080fd5b8135610954816114ba565b60005b838110156115085781810151838201526020016114f0565b8381111561086d5750506000910152565b600081518084526115318160208601602086016114ed565b601f01601f19169290920160200192915050565b6020815260006109546020830184611519565b60006020828403121561156a57600080fd5b5035919050565b80356001600160a01b038116811461158857600080fd5b919050565b600080604083850312156115a057600080fd5b6115a983611571565b946020939093013593505050565b6000806000606084860312156115cc57600080fd5b6115d584611571565b92506115e360208501611571565b9150604084013590509250925092565b60006020828403121561160557600080fd5b61095482611571565b6000806040838503121561162157600080fd5b61162a83611571565b91506020830135801515811461163f57600080fd5b809150509250929050565b634e487b7160e01b600052604160045260246000fd5b6000806000806080858703121561167657600080fd5b61167f85611571565b935061168d60208601611571565b925060408501359150606085013567ffffffffffffffff808211156116b157600080fd5b818701915087601f8301126116c557600080fd5b8135818111156116d7576116d761164a565b604051601f8201601f19908116603f011681019083821181831017156116ff576116ff61164a565b816040528281528a602084870101111561171857600080fd5b82602086016020830137600060208483010152809550505050505092959194509250565b6000806040838503121561174f57600080fd5b61175883611571565b915061176660208401611571565b90509250929050565b600181811c9082168061178357607f821691505b6020821081036117a357634e487b7160e01b600052602260045260246000fd5b50919050565b60208082526031908201527f4552433732313a207472616e736665722063616c6c6572206973206e6f74206f6040820152701ddb995c881b9bdc88185c1c1c9bdd9959607a1b606082015260800190565b634e487b7160e01b600052603260045260246000fd5b6020808252818101527f4f776e61626c653a2063616c6c6572206973206e6f7420746865206f776e6572604082015260600190565b600083516118578184602088016114ed565b83519083019061186b8183602088016114ed565b01949350505050565b634e487b7160e01b600052601160045260246000fd5b60008282101561189c5761189c611874565b500390565b600082198211156118b4576118b4611874565b500190565b60208082526032908201527f4552433732313a207472616e7366657220746f206e6f6e20455243373231526560408201527131b2b4bb32b91034b6b83632b6b2b73a32b960711b606082015260800190565b60006001820161191d5761191d611874565b5060010190565b634e487b7160e01b600052601260045260246000fd5b60008261194957611949611924565b500490565b60008261195d5761195d611924565b500690565b6001600160a01b038581168252841660208201526040810183905260806060820181905260009061199590830184611519565b9695505050505050565b6000602082840312156119b157600080fd5b8151610954816114ba565b634e487b7160e01b600052603160045260246000fdfea2646970667358221220c2e8c06ea49270e51c59e15e4a65bec33c17a1e3856f56e139ad7b566b37517264736f6c634300080d0033",
  "linkReferences": {},
  "deployedLinkReferences": {}
}