{
  "_format": "hh-sol-artifact-1",
  "contractName": "GateTest",
  "sourceName": "contracts/GateTest.sol",
  "abi": [
    {
      "inputs": [],
      "stateMutability": "nonpayable",
      "type": "constructor"
    },
    {
      "anonymous": false,
      "inputs": [
        {
          "indexed": true,
          "internalType": "address",
          "name": "owner",
          "type": "address"
        },
        {
          "indexed": true,
          "internalType": "address",
          "name": "approved",
          "type": "address"
        },
        {
          "indexed": true,
          "internalType": "uint256",
          "name": "tokenId",
          "type": "uint256"
        }
      ],
      "name": "Approval",
      "type": "event"
    },
    {
      "anonymous": false,
      "inputs": [
        {
          "indexed": true,
          "internalType": "address",
          "name": "owner",
          "type": "address"
        },
        {
          "indexed": true,
          "internalType": "address",
          "name": "operator",
          "type": "address"
        },
        {
          "indexed": false,
          "internalType": "bool",
          "name": "approved",
          "type": "bool"
        }
      ],
      "name": "ApprovalForAll",
      "type": "event"
    },
    {
      "anonymous": false,
      "inputs": [
        {
          "indexed": true,
          "internalType": "address",
          "name": "previousOwner",
          "type": "address"
        },
        {
          "indexed": true,
          "internalType": "address",
          "name": "newOwner",
          "type": "address"
        }
      ],
      "name": "OwnershipTransferred",
      "type": "event"
    },
    {
      "anonymous": false,
      "inputs": [
        {
          "indexed": true,
          "internalType": "address",
          "name": "from",
          "type": "address"
        },
        {
          "indexed": true,
          "internalType": "address",
          "name": "to",
          "type": "address"
        },
        {
          "indexed": true,
          "internalType": "uint256",
          "name": "tokenId",
          "type": "uint256"
        }
      ],
      "name": "Transfer",
      "type": "event"
    },
    {
      "inputs": [
        {
          "internalType": "address",
          "name": "to",
          "type": "address"
        },
        {
          "internalType": "uint256",
          "name": "tokenId",
          "type": "uint256"
        }
      ],
      "name": "approve",
      "outputs": [],
      "stateMutability": "nonpayable",
      "type": "function"
    },
    {
      "inputs": [
        {
          "internalType": "address",
          "name": "owner",
          "type": "address"
        }
      ],
      "name": "balanceOf",
      "outputs": [
        {
          "internalType": "uint256",
          "name": "",
          "type": "uint256"
        }
      ],
      "stateMutability": "view",
      "type": "function"
    },
    {
      "inputs": [
        {
          "internalType": "uint256",
          "name": "tokenId",
          "type": "uint256"
        }
      ],
      "name": "getApproved",
      "outputs": [
        {
          "internalType": "address",
          "name": "",
          "type": "address"
        }
      ],
      "stateMutability": "view",
      "type": "function"
    },
    {
      "inputs": [
        {
          "internalType": "address",
          "name": "owner",
          "type": "address"
        },
        {
          "internalType": "address",
          "name": "operator",
          "type": "address"
        }
      ],
      "name": "isApprovedForAll",
      "outputs": [
        {
          "internalType": "bool",
          "name": "",
          "type": "bool"
        }
      ],
      "stateMutability": "view",
      "type": "function"
    },
    {
      "inputs": [],
      "name": "name",
      "outputs": [
        {
          "internalType": "string",
          "name": "",
          "type": "string"
        }
      ],
      "stateMutability": "view",
      "type": "function"
    },
    {
      "inputs": [],
      "name": "owner",
      "outputs": [
        {
          "internalType": "address",
          "name": "",
          "type": "address"
        }
      ],
      "stateMutability": "view",
      "type": "function"
    },
    {
      "inputs": [
        {
          "internalType": "uint256",
          "name": "tokenId",
          "type": "uint256"
        }
      ],
      "name": "ownerOf",
      "outputs": [
        {
          "internalType": "address",
          "name": "",
          "type": "address"
        }
      ],
      "stateMutability": "view",
      "type": "function"
    },
    {
      "inputs": [],
      "name": "renounceOwnership",
      "outputs": [],
      "stateMutability": "nonpayable",
      "type": "function"
    },
    {
      "inputs": [
        {
          "internalType": "address",
          "name": "to",
          "type": "address"
        },
        {
          "internalType": "uint256",
          "name": "tokenId",
          "type": "uint256"
        }
      ],
      "name": "safeMint",
      "outputs": [],
      "stateMutability": "nonpayable",
      "type": "function"
    },
    {
      "inputs": [
        {
          "internalType": "address",
          "name": "from",
          "type": "address"
        },
        {
          "internalType": "address",
          "name": "to",
          "type": "address"
        },
        {
          "internalType": "uint256",
          "name": "tokenId",
          "type": "uint256"
        }
      ],
      "name": "safeTransferFrom",
      "outputs": [],
      "stateMutability": "nonpayable",
      "type": "function"
    },
    {
      "inputs": [
        {
          "internalType": "address",
          "name": "from",
          "type": "address"
        },
        {
          "internalType": "address",
          "name": "to",
          "type": "address"
        },
        {
          "internalType": "uint256",
          "name": "tokenId",
          "type": "uint256"
        },
        {
          "internalType": "bytes",
          "name": "_data",
          "type": "bytes"
        }
      ],
      "name": "safeTransferFrom",
      "outputs": [],
      "stateMutability": "nonpayable",
      "type": "function"
    },
    {
      "inputs": [
        {
          "internalType": "address",
          "name": "operator",
          "type": "address"
        },
        {
          "internalType": "bool",
          "name": "approved",
          "type": "bool"
        }
      ],
      "name": "setApprovalForAll",
      "outputs": [],
      "stateMutability": "nonpayable",
      "type": "function"
    },
    {
      "inputs": [
        {
          "internalType": "bytes4",
          "name": "interfaceId",
          "type": "bytes4"
        }
      ],
      "name": "supportsInterface",
      "outputs": [
        {
          "internalType": "bool",
          "name": "",
          "type": "bool"
        }
      ],
      "stateMutability": "view",
      "type": "function"
    },
    {
      "inputs": [],
      "name": "symbol",
      "outputs": [
        {
          "internalType": "string",
          "name": "",
          "type": "string"
        }
      ],
      "stateMutability": "view",
      "type": "function"
    },
    {
      "inputs": [
        {
          "internalType": "uint256",
          "name": "index",
          "type": "uint256"
        }
      ],
      "name": "tokenByIndex",
      "outputs": [
        {
          "internalType": "uint256",
          "name": "",
          "type": "uint256"
        }
      ],
      "stateMutability": "view",
      "type": "function"
    },
    {
      "inputs": [
        {
          "internalType": "address",
          "name": "owner",
          "type": "address"
        },
        {
          "internalType": "uint256",
          "name": "index",
          "type": "uint256"
        }
      ],
      "name": "tokenOfOwnerByIndex",
      "outputs": [
        {
          "internalType": "uint256",
          "name": "",
          "type": "uint256"
        }
      ],
      "stateMutability": "view",
      "type": "function"
    },
    {
      "inputs": [
        {
          "internalType": "uint256",
          "name": "tokenId",
          "type": "uint256"
        }
      ],
      "name": "tokenURI",
      "outputs": [
        {
          "internalType": "string",
          "name": "",
          "type": "string"
        }
      ],
      "stateMutability": "view",
      "type": "function"
    },
    {
      "inputs": [],
      "name": "totalSupply",
      "outputs": [
        {
          "internalType": "uint256",
          "name": "",
          "type": "uint256"
        }
      ],
      "stateMutability": "view",
      "type": "function"
    },
    {
      "inputs": [
        {
          "internalType": "address",
          "name": "from",
          "type": "address"
        },
        {
          "internalType": "address",
          "name": "to",
          "type": "address"
        },
        {
          "internalType": "uint256",
          "name": "tokenId",
          "type": "uint256"
        }
      ],
      "name": "transferFrom",
      "outputs": [],
      "stateMutability": "nonpayable",
      "type": "function"
    },
    {
      "inputs": [
        {
          "internalType": "address",
          "name": "newOwner",
          "type": "address"
        }
      ],
      "name": "transferOwnership",
      "outputs": [],
      "stateMutability": "nonpayable",
      "type": "function"
    }
  ],
  "bytecode": "0x60806040523480156200001157600080fd5b50604080518082018252600881526711d85d1955195cdd60c21b6020808301918252835180850190945260048452634741544560e01b9084015281519192916200005e91600091620000ed565b50805162000074906001906020840190620000ed565b505050620000916200008b6200009760201b60201c565b6200009b565b620001d0565b3390565b600a80546001600160a01b038381166001600160a01b0319831681179093556040519116919082907f8be0079c531659141344cd1fd0a4f28419497f9722a3daafe3b4186f6b6457e090600090a35050565b828054620000fb9062000193565b90600052602060002090601f0160209004810192826200011f57600085556200016a565b82601f106200013a57805160ff19168380011785556200016a565b828001600101855582156200016a579182015b828111156200016a5782518255916020019190600101906200014d565b50620001789291506200017c565b5090565b5b808211156200017857600081556001016200017d565b600181811c90821680620001a857607f821691505b60208210811415620001ca57634e487b7160e01b600052602260045260246000fd5b50919050565b611a0780620001e06000396000f3fe608060405234801561001057600080fd5b506004361061012c5760003560e01c806370a08231116100ad578063a22cb46511610071578063a22cb46514610266578063b88d4fde14610279578063c87b56dd1461028c578063e985e9c51461029f578063f2fde38b146102db57600080fd5b806370a082311461021f578063715018a6146102325780638da5cb5b1461023a57806395d89b411461024b578063a14481941461025357600080fd5b806323b872dd116100f457806323b872dd146101c05780632f745c59146101d357806342842e0e146101e65780634f6ccce7146101f95780636352211e1461020c57600080fd5b806301ffc9a71461013157806306fdde0314610159578063081812fc1461016e578063095ea7b31461019957806318160ddd146101ae575b600080fd5b61014461013f3660046114cc565b6102ee565b60405190151581526020015b60405180910390f35b6101616102ff565b6040516101509190611541565b61018161017c366004611554565b610391565b6040516001600160a01b039091168152602001610150565b6101ac6101a7366004611589565b61042b565b005b6008545b604051908152602001610150565b6101ac6101ce3660046115b3565b610541565b6101b26101e1366004611589565b610572565b6101ac6101f43660046115b3565b610608565b6101b2610207366004611554565b610623565b61018161021a366004611554565b6106b6565b6101b261022d3660046115ef565b61072d565b6101ac6107b4565b600a546001600160a01b0316610181565b6101616107ea565b6101ac610261366004611589565b6107f9565b6101ac61027436600461160a565b610831565b6101ac61028736600461165c565b61083c565b61016161029a366004611554565b610874565b6101446102ad366004611738565b6001600160a01b03918216600090815260056020908152604080832093909416825291909152205460ff1690565b6101ac6102e93660046115ef565b61095c565b60006102f9826109f7565b92915050565b60606000805461030e9061176b565b80601f016020809104026020016040519081016040528092919081815260200182805461033a9061176b565b80156103875780601f1061035c57610100808354040283529160200191610387565b820191906000526020600020905b81548152906001019060200180831161036a57829003601f168201915b5050505050905090565b6000818152600260205260408120546001600160a01b031661040f5760405162461bcd60e51b815260206004820152602c60248201527f4552433732313a20617070726f76656420717565727920666f72206e6f6e657860448201526b34b9ba32b73a103a37b5b2b760a11b60648201526084015b60405180910390fd5b506000908152600460205260409020546001600160a01b031690565b6000610436826106b6565b9050806001600160a01b0316836001600160a01b031614156104a45760405162461bcd60e51b815260206004820152602160248201527f4552433732313a20617070726f76616c20746f2063757272656e74206f776e656044820152603960f91b6064820152608401610406565b336001600160a01b03821614806104c057506104c081336102ad565b6105325760405162461bcd60e51b815260206004820152603860248201527f4552433732313a20617070726f76652063616c6c6572206973206e6f74206f7760448201527f6e6572206e6f7220617070726f76656420666f7220616c6c00000000000000006064820152608401610406565b61053c8383610a1c565b505050565b61054b3382610a8a565b6105675760405162461bcd60e51b8152600401610406906117a6565b61053c838383610b81565b600061057d8361072d565b82106105df5760405162461bcd60e51b815260206004820152602b60248201527f455243373231456e756d657261626c653a206f776e657220696e646578206f7560448201526a74206f6620626f756e647360a81b6064820152608401610406565b506001600160a01b03919091166000908152600660209081526040808320938352929052205490565b61053c8383836040518060200160405280600081525061083c565b600061062e60085490565b82106106915760405162461bcd60e51b815260206004820152602c60248201527f455243373231456e756d657261626c653a20676c6f62616c20696e646578206f60448201526b7574206f6620626f756e647360a01b6064820152608401610406565b600882815481106106a4576106a46117f7565b90600052602060002001549050919050565b6000818152600260205260408120546001600160a01b0316806102f95760405162461bcd60e51b815260206004820152602960248201527f4552433732313a206f776e657220717565727920666f72206e6f6e657869737460448201526832b73a103a37b5b2b760b91b6064820152608401610406565b60006001600160a01b0382166107985760405162461bcd60e51b815260206004820152602a60248201527f4552433732313a2062616c616e636520717565727920666f7220746865207a65604482015269726f206164647265737360b01b6064820152608401610406565b506001600160a01b031660009081526003602052604090205490565b600a546001600160a01b031633146107de5760405162461bcd60e51b81526004016104069061180d565b6107e86000610d28565b565b60606001805461030e9061176b565b600a546001600160a01b031633146108235760405162461bcd60e51b81526004016104069061180d565b61082d8282610d7a565b5050565b61082d338383610d94565b6108463383610a8a565b6108625760405162461bcd60e51b8152600401610406906117a6565b61086e84848484610e63565b50505050565b6000818152600260205260409020546060906001600160a01b03166108f35760405162461bcd60e51b815260206004820152602f60248201527f4552433732314d657461646174613a2055524920717565727920666f72206e6f60448201526e3732bc34b9ba32b73a103a37b5b2b760891b6064820152608401610406565b600061090a60408051602081019091526000815290565b9050600081511161092a5760405180602001604052806000815250610955565b8061093484610e96565b604051602001610945929190611842565b6040516020818303038152906040525b9392505050565b600a546001600160a01b031633146109865760405162461bcd60e51b81526004016104069061180d565b6001600160a01b0381166109eb5760405162461bcd60e51b815260206004820152602660248201527f4f776e61626c653a206e6577206f776e657220697320746865207a65726f206160448201526564647265737360d01b6064820152608401610406565b6109f481610d28565b50565b60006001600160e01b0319821663780e9d6360e01b14806102f957506102f982610f94565b600081815260046020526040902080546001600160a01b0319166001600160a01b0384169081179091558190610a51826106b6565b6001600160a01b03167f8c5be1e5ebec7d5bd14f71427d1e84f3dd0314c0f7b2291e5b200ac8c7c3b92560405160405180910390a45050565b6000818152600260205260408120546001600160a01b0316610b035760405162461bcd60e51b815260206004820152602c60248201527f4552433732313a206f70657261746f7220717565727920666f72206e6f6e657860448201526b34b9ba32b73a103a37b5b2b760a11b6064820152608401610406565b6000610b0e836106b6565b9050806001600160a01b0316846001600160a01b03161480610b495750836001600160a01b0316610b3e84610391565b6001600160a01b0316145b80610b7957506001600160a01b0380821660009081526005602090815260408083209388168352929052205460ff165b949350505050565b826001600160a01b0316610b94826106b6565b6001600160a01b031614610bf85760405162461bcd60e51b815260206004820152602560248201527f4552433732313a207472616e736665722066726f6d20696e636f72726563742060448201526437bbb732b960d91b6064820152608401610406565b6001600160a01b038216610c5a5760405162461bcd60e51b8152602060048201526024808201527f4552433732313a207472616e7366657220746f20746865207a65726f206164646044820152637265737360e01b6064820152608401610406565b610c65838383610fe4565b610c70600082610a1c565b6001600160a01b0383166000908152600360205260408120805460019290610c99908490611887565b90915550506001600160a01b0382166000908152600360205260408120805460019290610cc790849061189e565b909155505060008181526002602052604080822080546001600160a01b0319166001600160a01b0386811691821790925591518493918716917fddf252ad1be2c89b69c2b068fc378daa952ba7f163c4a11628f55a4df523b3ef91a4505050565b600a80546001600160a01b038381166001600160a01b0319831681179093556040519116919082907f8be0079c531659141344cd1fd0a4f28419497f9722a3daafe3b4186f6b6457e090600090a35050565b61082d828260405180602001604052806000815250610fef565b816001600160a01b0316836001600160a01b03161415610df65760405162461bcd60e51b815260206004820152601960248201527f4552433732313a20617070726f766520746f2063616c6c6572000000000000006044820152606401610406565b6001600160a01b03838116600081815260056020908152604080832094871680845294825291829020805460ff191686151590811790915591519182527f17307eab39ab6107e8899845ad3d59bd9653f200f220920489ca2b5937696c31910160405180910390a3505050565b610e6e848484610b81565b610e7a84848484611022565b61086e5760405162461bcd60e51b8152600401610406906118b6565b606081610eba5750506040805180820190915260018152600360fc1b602082015290565b8160005b8115610ee45780610ece81611908565b9150610edd9050600a83611939565b9150610ebe565b60008167ffffffffffffffff811115610eff57610eff611646565b6040519080825280601f01601f191660200182016040528015610f29576020820181803683370190505b5090505b8415610b7957610f3e600183611887565b9150610f4b600a8661194d565b610f5690603061189e565b60f81b818381518110610f6b57610f6b6117f7565b60200101906001600160f81b031916908160001a905350610f8d600a86611939565b9450610f2d565b60006001600160e01b031982166380ac58cd60e01b1480610fc557506001600160e01b03198216635b5e139f60e01b145b806102f957506301ffc9a760e01b6001600160e01b03198316146102f9565b61053c838383611120565b610ff983836111d8565b6110066000848484611022565b61053c5760405162461bcd60e51b8152600401610406906118b6565b60006001600160a01b0384163b1561111557604051630a85bd0160e11b81526001600160a01b0385169063150b7a0290611066903390899088908890600401611961565b6020604051808303816000875af19250505080156110a1575060408051601f3d908101601f1916820190925261109e9181019061199e565b60015b6110fb573d8080156110cf576040519150601f19603f3d011682016040523d82523d6000602084013e6110d4565b606091505b5080516110f35760405162461bcd60e51b8152600401610406906118b6565b805181602001fd5b6001600160e01b031916630a85bd0160e11b149050610b79565b506001949350505050565b6001600160a01b03831661117b5761117681600880546000838152600960205260408120829055600182018355919091527ff3f7a9fe364faab93b216da50a3214154f22a0a2b415b23a84c8169e8b636ee30155565b61119e565b816001600160a01b0316836001600160a01b03161461119e5761119e8382611326565b6001600160a01b0382166111b55761053c816113c3565b826001600160a01b0316826001600160a01b03161461053c5761053c8282611472565b6001600160a01b03821661122e5760405162461bcd60e51b815260206004820181905260248201527f4552433732313a206d696e7420746f20746865207a65726f20616464726573736044820152606401610406565b6000818152600260205260409020546001600160a01b0316156112935760405162461bcd60e51b815260206004820152601c60248201527f4552433732313a20746f6b656e20616c7265616479206d696e746564000000006044820152606401610406565b61129f60008383610fe4565b6001600160a01b03821660009081526003602052604081208054600192906112c890849061189e565b909155505060008181526002602052604080822080546001600160a01b0319166001600160a01b03861690811790915590518392907fddf252ad1be2c89b69c2b068fc378daa952ba7f163c4a11628f55a4df523b3ef908290a45050565b600060016113338461072d565b61133d9190611887565b600083815260076020526040902054909150808214611390576001600160a01b03841660009081526006602090815260408083208584528252808320548484528184208190558352600790915290208190555b5060009182526007602090815260408084208490556001600160a01b039094168352600681528383209183525290812055565b6008546000906113d590600190611887565b600083815260096020526040812054600880549394509092849081106113fd576113fd6117f7565b90600052602060002001549050806008838154811061141e5761141e6117f7565b6000918252602080832090910192909255828152600990915260408082208490558582528120556008805480611456576114566119bb565b6001900381819060005260206000200160009055905550505050565b600061147d8361072d565b6001600160a01b039093166000908152600660209081526040808320868452825280832085905593825260079052919091209190915550565b6001600160e01b0319811681146109f457600080fd5b6000602082840312156114de57600080fd5b8135610955816114b6565b60005b838110156115045781810151838201526020016114ec565b8381111561086e5750506000910152565b6000815180845261152d8160208601602086016114e9565b601f01601f19169290920160200192915050565b6020815260006109556020830184611515565b60006020828403121561156657600080fd5b5035919050565b80356001600160a01b038116811461158457600080fd5b919050565b6000806040838503121561159c57600080fd5b6115a58361156d565b946020939093013593505050565b6000806000606084860312156115c857600080fd5b6115d18461156d565b92506115df6020850161156d565b9150604084013590509250925092565b60006020828403121561160157600080fd5b6109558261156d565b6000806040838503121561161d57600080fd5b6116268361156d565b91506020830135801515811461163b57600080fd5b809150509250929050565b634e487b7160e01b600052604160045260246000fd5b6000806000806080858703121561167257600080fd5b61167b8561156d565b93506116896020860161156d565b925060408501359150606085013567ffffffffffffffff808211156116ad57600080fd5b818701915087601f8301126116c157600080fd5b8135818111156116d3576116d3611646565b604051601f8201601f19908116603f011681019083821181831017156116fb576116fb611646565b816040528281528a602084870101111561171457600080fd5b82602086016020830137600060208483010152809550505050505092959194509250565b6000806040838503121561174b57600080fd5b6117548361156d565b91506117626020840161156d565b90509250929050565b600181811c9082168061177f57607f821691505b602082108114156117a057634e487b7160e01b600052602260045260246000fd5b50919050565b60208082526031908201527f4552433732313a207472616e736665722063616c6c6572206973206e6f74206f6040820152701ddb995c881b9bdc88185c1c1c9bdd9959607a1b606082015260800190565b634e487b7160e01b600052603260045260246000fd5b6020808252818101527f4f776e61626c653a2063616c6c6572206973206e6f7420746865206f776e6572604082015260600190565b600083516118548184602088016114e9565b8351908301906118688183602088016114e9565b01949350505050565b634e487b7160e01b600052601160045260246000fd5b60008282101561189957611899611871565b500390565b600082198211156118b1576118b1611871565b500190565b60208082526032908201527f4552433732313a207472616e7366657220746f206e6f6e20455243373231526560408201527131b2b4bb32b91034b6b83632b6b2b73a32b960711b606082015260800190565b600060001982141561191c5761191c611871565b5060010190565b634e487b7160e01b600052601260045260246000fd5b60008261194857611948611923565b500490565b60008261195c5761195c611923565b500690565b6001600160a01b038581168252841660208201526040810183905260806060820181905260009061199490830184611515565b9695505050505050565b6000602082840312156119b057600080fd5b8151610955816114b6565b634e487b7160e01b600052603160045260246000fdfea2646970667358221220d96c20cfe686ff2d52b6d118eb6b0b26d356b90d92fe720ef91269fd38e5ce5764736f6c634300080c0033",
  "linkReferences": {},
  "deployedLinkReferences": {}
}